{
  "contracts/ShopsBulkTransactions.sol": {
    "ShopsBulkTransactions": {
      "abi": [
        {
          "inputs": [
            {
              "internalType": "string",
              "name": "_symbol",
              "type": "string"
            }
          ],
          "stateMutability": "nonpayable",
          "type": "constructor"
        },
        {
          "anonymous": false,
          "inputs": [
            {
              "indexed": false,
              "internalType": "uint256",
              "name": "_amount",
              "type": "uint256"
            },
            {
              "indexed": false,
              "internalType": "bool",
              "name": "_status",
              "type": "bool"
            }
          ],
          "name": "MultiTransfer",
          "type": "event"
        },
        {
          "inputs": [],
          "name": "clientCheckOrders",
          "outputs": [
            {
              "components": [
                {
                  "internalType": "uint256",
                  "name": "value",
                  "type": "uint256"
                },
                {
                  "internalType": "address",
                  "name": "client",
                  "type": "address"
                },
                {
                  "internalType": "address",
                  "name": "sellar",
                  "type": "address"
                },
                {
                  "internalType": "uint8",
                  "name": "clientDecision",
                  "type": "uint8"
                },
                {
                  "internalType": "uint8",
                  "name": "sellerDecision",
                  "type": "uint8"
                }
              ],
              "internalType": "struct ShopsBulkTransactions.Order[]",
              "name": "",
              "type": "tuple[]"
            }
          ],
          "stateMutability": "view",
          "type": "function"
        },
        {
          "inputs": [
            {
              "internalType": "address",
              "name": "seller",
              "type": "address"
            },
            {
              "internalType": "uint256",
              "name": "value",
              "type": "uint256"
            }
          ],
          "name": "clientProccessTransaction",
          "outputs": [],
          "stateMutability": "nonpayable",
          "type": "function"
        },
        {
          "inputs": [
            {
              "internalType": "address",
              "name": "seller",
              "type": "address"
            },
            {
              "internalType": "uint256",
              "name": "value",
              "type": "uint256"
            }
          ],
          "name": "clientRevertTransaction",
          "outputs": [],
          "stateMutability": "nonpayable",
          "type": "function"
        },
        {
          "inputs": [
            {
              "internalType": "address payable[]",
              "name": "_addresses",
              "type": "address[]"
            },
            {
              "internalType": "uint256[]",
              "name": "_amounts",
              "type": "uint256[]"
            }
          ],
          "name": "multiTransfer",
          "outputs": [],
          "stateMutability": "payable",
          "type": "function"
        },
        {
          "inputs": [],
          "name": "sellerCheckOrders",
          "outputs": [
            {
              "components": [
                {
                  "internalType": "uint256",
                  "name": "value",
                  "type": "uint256"
                },
                {
                  "internalType": "address",
                  "name": "client",
                  "type": "address"
                },
                {
                  "internalType": "address",
                  "name": "sellar",
                  "type": "address"
                },
                {
                  "internalType": "uint8",
                  "name": "clientDecision",
                  "type": "uint8"
                },
                {
                  "internalType": "uint8",
                  "name": "sellerDecision",
                  "type": "uint8"
                }
              ],
              "internalType": "struct ShopsBulkTransactions.Order[]",
              "name": "",
              "type": "tuple[]"
            }
          ],
          "stateMutability": "view",
          "type": "function"
        },
        {
          "inputs": [
            {
              "internalType": "address",
              "name": "client",
              "type": "address"
            },
            {
              "internalType": "uint256",
              "name": "value",
              "type": "uint256"
            }
          ],
          "name": "sellerProccessTransaction",
          "outputs": [],
          "stateMutability": "nonpayable",
          "type": "function"
        },
        {
          "inputs": [
            {
              "internalType": "address",
              "name": "client",
              "type": "address"
            },
            {
              "internalType": "uint256",
              "name": "value",
              "type": "uint256"
            }
          ],
          "name": "sellerRevertTransaction",
          "outputs": [],
          "stateMutability": "nonpayable",
          "type": "function"
        },
        {
          "inputs": [],
          "name": "symbol",
          "outputs": [
            {
              "internalType": "string",
              "name": "",
              "type": "string"
            }
          ],
          "stateMutability": "view",
          "type": "function"
        }
      ],
      "evm": {
        "bytecode": {
          "linkReferences": {},
          "object": "60806040523480156200001157600080fd5b50604051620019c9380380620019c98339810160408190526200003491620000fc565b600160005580516200004e90600490602084019062000056565b505062000225565b8280546200006490620001d2565b90600052602060002090601f016020900481019282620000885760008555620000d3565b82601f10620000a357805160ff1916838001178555620000d3565b82800160010185558215620000d3579182015b82811115620000d3578251825591602001919060010190620000b6565b50620000e1929150620000e5565b5090565b5b80821115620000e15760008155600101620000e6565b600060208083850312156200010f578182fd5b82516001600160401b038082111562000126578384fd5b818501915085601f8301126200013a578384fd5b8151818111156200014f576200014f6200020f565b604051601f8201601f19908116603f011681019083821181831017156200017a576200017a6200020f565b81604052828152888684870101111562000192578687fd5b8693505b82841015620001b5578484018601518185018701529285019262000196565b82841115620001c657868684830101525b98975050505050505050565b600181811c90821680620001e757607f821691505b602082108114156200020957634e487b7160e01b600052602260045260246000fd5b50919050565b634e487b7160e01b600052604160045260246000fd5b61179480620002356000396000f3fe60806040526004361061007b5760003560e01c80636749cf5b1161004e5780636749cf5b146100f557806379e3c0e9146101205780637bcebb161461014057806395d89b411461015557600080fd5b806301f5770b146100805780631e89d545146100a25780632bb5663a146100b55780634827b35a146100d5575b600080fd5b34801561008c57600080fd5b506100a061009b366004611363565b610177565b005b6100a06100b036600461138e565b6101c0565b3480156100c157600080fd5b506100a06100d0366004611363565b61058a565b3480156100e157600080fd5b506100a06100f0366004611363565b6105be565b34801561010157600080fd5b5061010a6105f2565b6040516101179190611533565b60405180910390f35b34801561012c57600080fd5b506100a061013b366004611363565b6108c9565b34801561014c57600080fd5b5061010a610900565b34801561016157600080fd5b5061016a610bcd565b60405161011791906115b6565b600260005414156101a35760405162461bcd60e51b815260040161019a90611609565b60405180910390fd5b60026000819055506101b782826002610c5b565b50506001600055565b600260005414156101e35760405162461bcd60e51b815260040161019a90611609565b600260005580518251146102525760405162461bcd60e51b815260206004820152603060248201527f416464726573736573206c656e677468206d75737420626520657175616c207460448201526f0de40c2dadeeadce8e640d8cadccee8d60831b606482015260840161019a565b348060005b84518110156105455783818151811061028057634e487b7160e01b600052603260045260246000fd5b60200260200101518210156102ed5760405162461bcd60e51b815260206004820152602d60248201527f546f74616c20616d6f756e74206973206c657373207468616e2063757272656e60448201526c1d081cd95b9908185b5bdd5b9d609a1b606482015260840161019a565b83818151811061030d57634e487b7160e01b600052603260045260246000fd5b60200260200101518261032091906116ad565b91506103536040805160a08101825260008082526020820181905291810182905260608101829052608081019190915290565b336020820152855186908390811061037b57634e487b7160e01b600052603260045260246000fd5b60209081029190910101516001600160a01b03166040820152600160808201526000606082015284518590839081106103c457634e487b7160e01b600052603260045260246000fd5b60200260200101518160000181815250506000338784815181106103f857634e487b7160e01b600052603260045260246000fd5b6020026020010151604051602001610411929190611451565b60408051808303601f1901815291815281516020928301206000818152600180855283822080548083018255908352858320885160039283029091019081558887015181840180546001600160a01b0319166001600160a01b03928316179055898701516002928301805460608d015160808e0151939094166001600160a81b031990911617600160a01b60ff948516021760ff60a81b1916600160a81b9390921692909202179055338452865293822080549182018155825293812090930181905589519093509091908990869081106104fc57634e487b7160e01b600052603260045260246000fd5b6020908102919091018101516001600160a01b0316825281810192909252604001600090812080546001810182559082529190200155508061053d816116ff565b915050610257565b5060408051838152600160208201527fc05dae71ad6ebf2680862ebed51b27e8ea99855a67cfc24e7a3e0212c34e5e2f910160405180910390a1505060016000555050565b600260005414156105ad5760405162461bcd60e51b815260040161019a90611609565b60026000556101b782826001610f7e565b600260005414156105e15760405162461bcd60e51b815260040161019a90611609565b60026000556101b782826001610c5b565b336000908152600260209081526040808320805482518185028101850190935280835260609493849392919083018282801561064d57602002820191906000526020600020905b815481526020019060010190808311610639575b5050505050905060005b81518110156106bd576001600083838151811061068457634e487b7160e01b600052603260045260246000fd5b6020026020010151815260200190815260200160002080549050836106a99190611695565b9250806106b5816116ff565b915050610657565b5060008267ffffffffffffffff8111156106e757634e487b7160e01b600052604160045260246000fd5b60405190808252806020026020018201604052801561074057816020015b6040805160a0810182526000808252602080830182905292820181905260608201819052608082015282526000199092019101816107055790505b5090506000805b83518110156108bf5760006001600086848151811061077657634e487b7160e01b600052603260045260246000fd5b60200260200101518152602001908152602001600020805480602002602001604051908101604052809291908181526020016000905b828210156108245760008481526020908190206040805160a08101825260038602909201805483526001808201546001600160a01b03908116858701526002909201549182169284019290925260ff600160a01b820481166060850152600160a81b90910416608083015290835290920191016107ac565b50505050905060005b81518110156108aa5781818151811061085657634e487b7160e01b600052603260045260246000fd5b602002602001015185858151811061087e57634e487b7160e01b600052603260045260246000fd5b60200260200101819052508380610894906116ff565b94505080806108a2906116ff565b91505061082d565b505080806108b7906116ff565b915050610747565b5090949350505050565b600260005414156108ec5760405162461bcd60e51b815260040161019a90611609565b60026000819055506101b782826002610f7e565b336000908152600360209081526040808320805482518185028101850190935280835260609493849392919083018282801561095b57602002820191906000526020600020905b815481526020019060010190808311610947575b5050505050905060005b81518110156109cb576001600083838151811061099257634e487b7160e01b600052603260045260246000fd5b6020026020010151815260200190815260200160002080549050836109b79190611695565b9250806109c3816116ff565b915050610965565b5060008267ffffffffffffffff8111156109f557634e487b7160e01b600052604160045260246000fd5b604051908082528060200260200182016040528015610a4e57816020015b6040805160a081018252600080825260208083018290529282018190526060820181905260808201528252600019909201910181610a135790505b5090506000805b83518110156108bf57600060016000868481518110610a8457634e487b7160e01b600052603260045260246000fd5b60200260200101518152602001908152602001600020805480602002602001604051908101604052809291908181526020016000905b82821015610b325760008481526020908190206040805160a08101825260038602909201805483526001808201546001600160a01b03908116858701526002909201549182169284019290925260ff600160a01b820481166060850152600160a81b9091041660808301529083529092019101610aba565b50505050905060005b8151811015610bb857818181518110610b6457634e487b7160e01b600052603260045260246000fd5b6020026020010151858581518110610b8c57634e487b7160e01b600052603260045260246000fd5b60200260200101819052508380610ba2906116ff565b9450508080610bb0906116ff565b915050610b3b565b50508080610bc5906116ff565b915050610a55565b60048054610bda906116c4565b80601f0160208091040260200160405190810160405280929190818152602001828054610c06906116c4565b8015610c535780601f10610c2857610100808354040283529160200191610c53565b820191906000526020600020905b815481529060010190602001808311610c3657829003601f168201915b505050505081565b60026000541415610c7e5760405162461bcd60e51b815260040161019a90611609565b60026000908155604051610c989033908690602001611451565b60408051601f19818403018152828252805160209182012060008181526001835283812080548085028701850190955284865291955093929091849084015b82821015610d4f5760008481526020908190206040805160a08101825260038602909201805483526001808201546001600160a01b03908116858701526002909201549182169284019290925260ff600160a01b820481166060850152600160a81b9091041660808301529083529092019101610cd7565b50505050905060005b8151811015610f715784828281518110610d8257634e487b7160e01b600052603260045260246000fd5b6020026020010151600001511415610f5f57336001600160a01b0316828281518110610dbe57634e487b7160e01b600052603260045260246000fd5b6020026020010151602001516001600160a01b031614610e205760405162461bcd60e51b815260206004820152601760248201527f596f7520617265206e6f742074686520636c69656e742e000000000000000000604482015260640161019a565b83828281518110610e4157634e487b7160e01b600052603260045260246000fd5b60200260200101516060019060ff16908160ff16815250506000610e8b838381518110610e7e57634e487b7160e01b600052603260045260246000fd5b60200260200101516111b3565b90508060ff1660011415610efe57610ef9838381518110610ebc57634e487b7160e01b600052603260045260246000fd5b602002602001015160400151848481518110610ee857634e487b7160e01b600052603260045260246000fd5b60200260200101516000015161120d565b610f59565b8060ff1660021415610f5957610f59838381518110610f2d57634e487b7160e01b600052603260045260246000fd5b602002602001015160200151848481518110610ee857634e487b7160e01b600052603260045260246000fd5b50610f71565b80610f69816116ff565b915050610d58565b5050600160005550505050565b60026000541415610fa15760405162461bcd60e51b815260040161019a90611609565b60026000908155604051610fbb9085903390602001611451565b60408051601f19818403018152828252805160209182012060008181526001835283812080548085028701850190955284865291955093929091849084015b828210156110725760008481526020908190206040805160a08101825260038602909201805483526001808201546001600160a01b03908116858701526002909201549182169284019290925260ff600160a01b820481166060850152600160a81b9091041660808301529083529092019101610ffa565b50505050905060005b8151811015610f7157848282815181106110a557634e487b7160e01b600052603260045260246000fd5b60200260200101516000015114156111a157336001600160a01b03168282815181106110e157634e487b7160e01b600052603260045260246000fd5b6020026020010151602001516001600160a01b0316146111435760405162461bcd60e51b815260206004820152601760248201527f596f7520617265206e6f74207468652073656c6c65722e000000000000000000604482015260640161019a565b8382828151811061116457634e487b7160e01b600052603260045260246000fd5b60200260200101516080019060ff16908160ff16815250506000610e8b838381518110610e7e57634e487b7160e01b600052603260045260246000fd5b806111ab816116ff565b91505061107b565b6000600260005414156111d85760405162461bcd60e51b815260040161019a90611609565b60026000556080820151606083015160ff908116911614156111ff57506060810151611203565b5060005b6001600055919050565b6001600160a01b0382166112585760405162461bcd60e51b81526020600482015260126024820152710416464726573732063616e277420626520360741b604482015260640161019a565b6000826001600160a01b03168260405160006040518083038185875af1925050503d80600081146112a5576040519150601f19603f3d011682016040523d82523d6000602084013e6112aa565b606091505b505090508060046040516020016112c19190611478565b604051602081830303815290604052906112ee5760405162461bcd60e51b815260040161019a91906115b6565b50505050565b600082601f830112611304578081fd5b8135602061131961131483611671565b611640565b80838252828201915082860187848660051b8901011115611338578586fd5b855b858110156113565781358452928401929084019060010161133a565b5090979650505050505050565b60008060408385031215611375578182fd5b823561138081611746565b946020939093013593505050565b600080604083850312156113a0578182fd5b823567ffffffffffffffff808211156113b7578384fd5b818501915085601f8301126113ca578384fd5b813560206113da61131483611671565b8083825282820191508286018a848660051b89010111156113f9578889fd5b8896505b8487101561142457803561141081611746565b8352600196909601959183019183016113fd565b509650508601359250508082111561143a578283fd5b50611447858286016112f4565b9150509250929050565b6bffffffffffffffffffffffff19606093841b811682529190921b16601482015260280190565b6e02330b4b632b2103a379039b2b7321608d1b81526000600f81845483600182811c9150808316806114ab57607f831692505b60208084108214156114cb57634e487b7160e01b88526022600452602488fd5b8180156114df57600181146114f457611524565b60ff1986168a890152848a0188019650611524565b60008b815260209020895b8681101561151a5781548c82018b01529085019083016114ff565b505087858b010196505b50949998505050505050505050565b602080825282518282018190526000919060409081850190868401855b828110156115a957815180518552868101516001600160a01b039081168887015286820151168686015260608082015160ff90811691870191909152608091820151169085015260a09093019290850190600101611550565b5091979650505050505050565b6000602080835283518082850152825b818110156115e2578581018301518582016040015282016115c6565b818111156115f35783604083870101525b50601f01601f1916929092016040019392505050565b6020808252601f908201527f5265656e7472616e637947756172643a207265656e7472616e742063616c6c00604082015260600190565b604051601f8201601f1916810167ffffffffffffffff8111828210171561166957611669611730565b604052919050565b600067ffffffffffffffff82111561168b5761168b611730565b5060051b60200190565b600082198211156116a8576116a861171a565b500190565b6000828210156116bf576116bf61171a565b500390565b600181811c908216806116d857607f821691505b602082108114156116f957634e487b7160e01b600052602260045260246000fd5b50919050565b60006000198214156117135761171361171a565b5060010190565b634e487b7160e01b600052601160045260246000fd5b634e487b7160e01b600052604160045260246000fd5b6001600160a01b038116811461175b57600080fd5b5056fea26469706673582212208edcd0cb3b62afbf6d4e8cecf83468eb92f3df9cf7461b4b0c7e625156ef7a5364736f6c63430008040033",
          "opcodes": "PUSH1 0x80 PUSH1 0x40 MSTORE CALLVALUE DUP1 ISZERO PUSH3 0x11 JUMPI PUSH1 0x0 DUP1 REVERT JUMPDEST POP PUSH1 0x40 MLOAD PUSH3 0x19C9 CODESIZE SUB DUP1 PUSH3 0x19C9 DUP4 CODECOPY DUP2 ADD PUSH1 0x40 DUP2 SWAP1 MSTORE PUSH3 0x34 SWAP2 PUSH3 0xFC JUMP JUMPDEST PUSH1 0x1 PUSH1 0x0 SSTORE DUP1 MLOAD PUSH3 0x4E SWAP1 PUSH1 0x4 SWAP1 PUSH1 0x20 DUP5 ADD SWAP1 PUSH3 0x56 JUMP JUMPDEST POP POP PUSH3 0x225 JUMP JUMPDEST DUP3 DUP1 SLOAD PUSH3 0x64 SWAP1 PUSH3 0x1D2 JUMP JUMPDEST SWAP1 PUSH1 0x0 MSTORE PUSH1 0x20 PUSH1 0x0 KECCAK256 SWAP1 PUSH1 0x1F ADD PUSH1 0x20 SWAP1 DIV DUP2 ADD SWAP3 DUP3 PUSH3 0x88 JUMPI PUSH1 0x0 DUP6 SSTORE PUSH3 0xD3 JUMP JUMPDEST DUP3 PUSH1 0x1F LT PUSH3 0xA3 JUMPI DUP1 MLOAD PUSH1 0xFF NOT AND DUP4 DUP1 ADD OR DUP6 SSTORE PUSH3 0xD3 JUMP JUMPDEST DUP3 DUP1 ADD PUSH1 0x1 ADD DUP6 SSTORE DUP3 ISZERO PUSH3 0xD3 JUMPI SWAP2 DUP3 ADD JUMPDEST DUP3 DUP2 GT ISZERO PUSH3 0xD3 JUMPI DUP3 MLOAD DUP3 SSTORE SWAP2 PUSH1 0x20 ADD SWAP2 SWAP1 PUSH1 0x1 ADD SWAP1 PUSH3 0xB6 JUMP JUMPDEST POP PUSH3 0xE1 SWAP3 SWAP2 POP PUSH3 0xE5 JUMP JUMPDEST POP SWAP1 JUMP JUMPDEST JUMPDEST DUP1 DUP3 GT ISZERO PUSH3 0xE1 JUMPI PUSH1 0x0 DUP2 SSTORE PUSH1 0x1 ADD PUSH3 0xE6 JUMP JUMPDEST PUSH1 0x0 PUSH1 0x20 DUP1 DUP4 DUP6 SUB SLT ISZERO PUSH3 0x10F JUMPI DUP2 DUP3 REVERT JUMPDEST DUP3 MLOAD PUSH1 0x1 PUSH1 0x1 PUSH1 0x40 SHL SUB DUP1 DUP3 GT ISZERO PUSH3 0x126 JUMPI DUP4 DUP5 REVERT JUMPDEST DUP2 DUP6 ADD SWAP2 POP DUP6 PUSH1 0x1F DUP4 ADD SLT PUSH3 0x13A JUMPI DUP4 DUP5 REVERT JUMPDEST DUP2 MLOAD DUP2 DUP2 GT ISZERO PUSH3 0x14F JUMPI PUSH3 0x14F PUSH3 0x20F JUMP JUMPDEST PUSH1 0x40 MLOAD PUSH1 0x1F DUP3 ADD PUSH1 0x1F NOT SWAP1 DUP2 AND PUSH1 0x3F ADD AND DUP2 ADD SWAP1 DUP4 DUP3 GT DUP2 DUP4 LT OR ISZERO PUSH3 0x17A JUMPI PUSH3 0x17A PUSH3 0x20F JUMP JUMPDEST DUP2 PUSH1 0x40 MSTORE DUP3 DUP2 MSTORE DUP9 DUP7 DUP5 DUP8 ADD ADD GT ISZERO PUSH3 0x192 JUMPI DUP7 DUP8 REVERT JUMPDEST DUP7 SWAP4 POP JUMPDEST DUP3 DUP5 LT ISZERO PUSH3 0x1B5 JUMPI DUP5 DUP5 ADD DUP7 ADD MLOAD DUP2 DUP6 ADD DUP8 ADD MSTORE SWAP3 DUP6 ADD SWAP3 PUSH3 0x196 JUMP JUMPDEST DUP3 DUP5 GT ISZERO PUSH3 0x1C6 JUMPI DUP7 DUP7 DUP5 DUP4 ADD ADD MSTORE JUMPDEST SWAP9 SWAP8 POP POP POP POP POP POP POP POP JUMP JUMPDEST PUSH1 0x1 DUP2 DUP2 SHR SWAP1 DUP3 AND DUP1 PUSH3 0x1E7 JUMPI PUSH1 0x7F DUP3 AND SWAP2 POP JUMPDEST PUSH1 0x20 DUP3 LT DUP2 EQ ISZERO PUSH3 0x209 JUMPI PUSH4 0x4E487B71 PUSH1 0xE0 SHL PUSH1 0x0 MSTORE PUSH1 0x22 PUSH1 0x4 MSTORE PUSH1 0x24 PUSH1 0x0 REVERT JUMPDEST POP SWAP2 SWAP1 POP JUMP JUMPDEST PUSH4 0x4E487B71 PUSH1 0xE0 SHL PUSH1 0x0 MSTORE PUSH1 0x41 PUSH1 0x4 MSTORE PUSH1 0x24 PUSH1 0x0 REVERT JUMPDEST PUSH2 0x1794 DUP1 PUSH3 0x235 PUSH1 0x0 CODECOPY PUSH1 0x0 RETURN INVALID PUSH1 0x80 PUSH1 0x40 MSTORE PUSH1 0x4 CALLDATASIZE LT PUSH2 0x7B JUMPI PUSH1 0x0 CALLDATALOAD PUSH1 0xE0 SHR DUP1 PUSH4 0x6749CF5B GT PUSH2 0x4E JUMPI DUP1 PUSH4 0x6749CF5B EQ PUSH2 0xF5 JUMPI DUP1 PUSH4 0x79E3C0E9 EQ PUSH2 0x120 JUMPI DUP1 PUSH4 0x7BCEBB16 EQ PUSH2 0x140 JUMPI DUP1 PUSH4 0x95D89B41 EQ PUSH2 0x155 JUMPI PUSH1 0x0 DUP1 REVERT JUMPDEST DUP1 PUSH4 0x1F5770B EQ PUSH2 0x80 JUMPI DUP1 PUSH4 0x1E89D545 EQ PUSH2 0xA2 JUMPI DUP1 PUSH4 0x2BB5663A EQ PUSH2 0xB5 JUMPI DUP1 PUSH4 0x4827B35A EQ PUSH2 0xD5 JUMPI JUMPDEST PUSH1 0x0 DUP1 REVERT JUMPDEST CALLVALUE DUP1 ISZERO PUSH2 0x8C JUMPI PUSH1 0x0 DUP1 REVERT JUMPDEST POP PUSH2 0xA0 PUSH2 0x9B CALLDATASIZE PUSH1 0x4 PUSH2 0x1363 JUMP JUMPDEST PUSH2 0x177 JUMP JUMPDEST STOP JUMPDEST PUSH2 0xA0 PUSH2 0xB0 CALLDATASIZE PUSH1 0x4 PUSH2 0x138E JUMP JUMPDEST PUSH2 0x1C0 JUMP JUMPDEST CALLVALUE DUP1 ISZERO PUSH2 0xC1 JUMPI PUSH1 0x0 DUP1 REVERT JUMPDEST POP PUSH2 0xA0 PUSH2 0xD0 CALLDATASIZE PUSH1 0x4 PUSH2 0x1363 JUMP JUMPDEST PUSH2 0x58A JUMP JUMPDEST CALLVALUE DUP1 ISZERO PUSH2 0xE1 JUMPI PUSH1 0x0 DUP1 REVERT JUMPDEST POP PUSH2 0xA0 PUSH2 0xF0 CALLDATASIZE PUSH1 0x4 PUSH2 0x1363 JUMP JUMPDEST PUSH2 0x5BE JUMP JUMPDEST CALLVALUE DUP1 ISZERO PUSH2 0x101 JUMPI PUSH1 0x0 DUP1 REVERT JUMPDEST POP PUSH2 0x10A PUSH2 0x5F2 JUMP JUMPDEST PUSH1 0x40 MLOAD PUSH2 0x117 SWAP2 SWAP1 PUSH2 0x1533 JUMP JUMPDEST PUSH1 0x40 MLOAD DUP1 SWAP2 SUB SWAP1 RETURN JUMPDEST CALLVALUE DUP1 ISZERO PUSH2 0x12C JUMPI PUSH1 0x0 DUP1 REVERT JUMPDEST POP PUSH2 0xA0 PUSH2 0x13B CALLDATASIZE PUSH1 0x4 PUSH2 0x1363 JUMP JUMPDEST PUSH2 0x8C9 JUMP JUMPDEST CALLVALUE DUP1 ISZERO PUSH2 0x14C JUMPI PUSH1 0x0 DUP1 REVERT JUMPDEST POP PUSH2 0x10A PUSH2 0x900 JUMP JUMPDEST CALLVALUE DUP1 ISZERO PUSH2 0x161 JUMPI PUSH1 0x0 DUP1 REVERT JUMPDEST POP PUSH2 0x16A PUSH2 0xBCD JUMP JUMPDEST PUSH1 0x40 MLOAD PUSH2 0x117 SWAP2 SWAP1 PUSH2 0x15B6 JUMP JUMPDEST PUSH1 0x2 PUSH1 0x0 SLOAD EQ ISZERO PUSH2 0x1A3 JUMPI PUSH1 0x40 MLOAD PUSH3 0x461BCD PUSH1 0xE5 SHL DUP2 MSTORE PUSH1 0x4 ADD PUSH2 0x19A SWAP1 PUSH2 0x1609 JUMP JUMPDEST PUSH1 0x40 MLOAD DUP1 SWAP2 SUB SWAP1 REVERT JUMPDEST PUSH1 0x2 PUSH1 0x0 DUP2 SWAP1 SSTORE POP PUSH2 0x1B7 DUP3 DUP3 PUSH1 0x2 PUSH2 0xC5B JUMP JUMPDEST POP POP PUSH1 0x1 PUSH1 0x0 SSTORE JUMP JUMPDEST PUSH1 0x2 PUSH1 0x0 SLOAD EQ ISZERO PUSH2 0x1E3 JUMPI PUSH1 0x40 MLOAD PUSH3 0x461BCD PUSH1 0xE5 SHL DUP2 MSTORE PUSH1 0x4 ADD PUSH2 0x19A SWAP1 PUSH2 0x1609 JUMP JUMPDEST PUSH1 0x2 PUSH1 0x0 SSTORE DUP1 MLOAD DUP3 MLOAD EQ PUSH2 0x252 JUMPI PUSH1 0x40 MLOAD PUSH3 0x461BCD PUSH1 0xE5 SHL DUP2 MSTORE PUSH1 0x20 PUSH1 0x4 DUP3 ADD MSTORE PUSH1 0x30 PUSH1 0x24 DUP3 ADD MSTORE PUSH32 0x416464726573736573206C656E677468206D75737420626520657175616C2074 PUSH1 0x44 DUP3 ADD MSTORE PUSH16 0xDE40C2DADEEADCE8E640D8CADCCEE8D PUSH1 0x83 SHL PUSH1 0x64 DUP3 ADD MSTORE PUSH1 0x84 ADD PUSH2 0x19A JUMP JUMPDEST CALLVALUE DUP1 PUSH1 0x0 JUMPDEST DUP5 MLOAD DUP2 LT ISZERO PUSH2 0x545 JUMPI DUP4 DUP2 DUP2 MLOAD DUP2 LT PUSH2 0x280 JUMPI PUSH4 0x4E487B71 PUSH1 0xE0 SHL PUSH1 0x0 MSTORE PUSH1 0x32 PUSH1 0x4 MSTORE PUSH1 0x24 PUSH1 0x0 REVERT JUMPDEST PUSH1 0x20 MUL PUSH1 0x20 ADD ADD MLOAD DUP3 LT ISZERO PUSH2 0x2ED JUMPI PUSH1 0x40 MLOAD PUSH3 0x461BCD PUSH1 0xE5 SHL DUP2 MSTORE PUSH1 0x20 PUSH1 0x4 DUP3 ADD MSTORE PUSH1 0x2D PUSH1 0x24 DUP3 ADD MSTORE PUSH32 0x546F74616C20616D6F756E74206973206C657373207468616E2063757272656E PUSH1 0x44 DUP3 ADD MSTORE PUSH13 0x1D081CD95B9908185B5BDD5B9D PUSH1 0x9A SHL PUSH1 0x64 DUP3 ADD MSTORE PUSH1 0x84 ADD PUSH2 0x19A JUMP JUMPDEST DUP4 DUP2 DUP2 MLOAD DUP2 LT PUSH2 0x30D JUMPI PUSH4 0x4E487B71 PUSH1 0xE0 SHL PUSH1 0x0 MSTORE PUSH1 0x32 PUSH1 0x4 MSTORE PUSH1 0x24 PUSH1 0x0 REVERT JUMPDEST PUSH1 0x20 MUL PUSH1 0x20 ADD ADD MLOAD DUP3 PUSH2 0x320 SWAP2 SWAP1 PUSH2 0x16AD JUMP JUMPDEST SWAP2 POP PUSH2 0x353 PUSH1 0x40 DUP1 MLOAD PUSH1 0xA0 DUP2 ADD DUP3 MSTORE PUSH1 0x0 DUP1 DUP3 MSTORE PUSH1 0x20 DUP3 ADD DUP2 SWAP1 MSTORE SWAP2 DUP2 ADD DUP3 SWAP1 MSTORE PUSH1 0x60 DUP2 ADD DUP3 SWAP1 MSTORE PUSH1 0x80 DUP2 ADD SWAP2 SWAP1 SWAP2 MSTORE SWAP1 JUMP JUMPDEST CALLER PUSH1 0x20 DUP3 ADD MSTORE DUP6 MLOAD DUP7 SWAP1 DUP4 SWAP1 DUP2 LT PUSH2 0x37B JUMPI PUSH4 0x4E487B71 PUSH1 0xE0 SHL PUSH1 0x0 MSTORE PUSH1 0x32 PUSH1 0x4 MSTORE PUSH1 0x24 PUSH1 0x0 REVERT JUMPDEST PUSH1 0x20 SWAP1 DUP2 MUL SWAP2 SWAP1 SWAP2 ADD ADD MLOAD PUSH1 0x1 PUSH1 0x1 PUSH1 0xA0 SHL SUB AND PUSH1 0x40 DUP3 ADD MSTORE PUSH1 0x1 PUSH1 0x80 DUP3 ADD MSTORE PUSH1 0x0 PUSH1 0x60 DUP3 ADD MSTORE DUP5 MLOAD DUP6 SWAP1 DUP4 SWAP1 DUP2 LT PUSH2 0x3C4 JUMPI PUSH4 0x4E487B71 PUSH1 0xE0 SHL PUSH1 0x0 MSTORE PUSH1 0x32 PUSH1 0x4 MSTORE PUSH1 0x24 PUSH1 0x0 REVERT JUMPDEST PUSH1 0x20 MUL PUSH1 0x20 ADD ADD MLOAD DUP2 PUSH1 0x0 ADD DUP2 DUP2 MSTORE POP POP PUSH1 0x0 CALLER DUP8 DUP5 DUP2 MLOAD DUP2 LT PUSH2 0x3F8 JUMPI PUSH4 0x4E487B71 PUSH1 0xE0 SHL PUSH1 0x0 MSTORE PUSH1 0x32 PUSH1 0x4 MSTORE PUSH1 0x24 PUSH1 0x0 REVERT JUMPDEST PUSH1 0x20 MUL PUSH1 0x20 ADD ADD MLOAD PUSH1 0x40 MLOAD PUSH1 0x20 ADD PUSH2 0x411 SWAP3 SWAP2 SWAP1 PUSH2 0x1451 JUMP JUMPDEST PUSH1 0x40 DUP1 MLOAD DUP1 DUP4 SUB PUSH1 0x1F NOT ADD DUP2 MSTORE SWAP2 DUP2 MSTORE DUP2 MLOAD PUSH1 0x20 SWAP3 DUP4 ADD KECCAK256 PUSH1 0x0 DUP2 DUP2 MSTORE PUSH1 0x1 DUP1 DUP6 MSTORE DUP4 DUP3 KECCAK256 DUP1 SLOAD DUP1 DUP4 ADD DUP3 SSTORE SWAP1 DUP4 MSTORE DUP6 DUP4 KECCAK256 DUP9 MLOAD PUSH1 0x3 SWAP3 DUP4 MUL SWAP1 SWAP2 ADD SWAP1 DUP2 SSTORE DUP9 DUP8 ADD MLOAD DUP2 DUP5 ADD DUP1 SLOAD PUSH1 0x1 PUSH1 0x1 PUSH1 0xA0 SHL SUB NOT AND PUSH1 0x1 PUSH1 0x1 PUSH1 0xA0 SHL SUB SWAP3 DUP4 AND OR SWAP1 SSTORE DUP10 DUP8 ADD MLOAD PUSH1 0x2 SWAP3 DUP4 ADD DUP1 SLOAD PUSH1 0x60 DUP14 ADD MLOAD PUSH1 0x80 DUP15 ADD MLOAD SWAP4 SWAP1 SWAP5 AND PUSH1 0x1 PUSH1 0x1 PUSH1 0xA8 SHL SUB NOT SWAP1 SWAP2 AND OR PUSH1 0x1 PUSH1 0xA0 SHL PUSH1 0xFF SWAP5 DUP6 AND MUL OR PUSH1 0xFF PUSH1 0xA8 SHL NOT AND PUSH1 0x1 PUSH1 0xA8 SHL SWAP4 SWAP1 SWAP3 AND SWAP3 SWAP1 SWAP3 MUL OR SWAP1 SSTORE CALLER DUP5 MSTORE DUP7 MSTORE SWAP4 DUP3 KECCAK256 DUP1 SLOAD SWAP2 DUP3 ADD DUP2 SSTORE DUP3 MSTORE SWAP4 DUP2 KECCAK256 SWAP1 SWAP4 ADD DUP2 SWAP1 SSTORE DUP10 MLOAD SWAP1 SWAP4 POP SWAP1 SWAP2 SWAP1 DUP10 SWAP1 DUP7 SWAP1 DUP2 LT PUSH2 0x4FC JUMPI PUSH4 0x4E487B71 PUSH1 0xE0 SHL PUSH1 0x0 MSTORE PUSH1 0x32 PUSH1 0x4 MSTORE PUSH1 0x24 PUSH1 0x0 REVERT JUMPDEST PUSH1 0x20 SWAP1 DUP2 MUL SWAP2 SWAP1 SWAP2 ADD DUP2 ADD MLOAD PUSH1 0x1 PUSH1 0x1 PUSH1 0xA0 SHL SUB AND DUP3 MSTORE DUP2 DUP2 ADD SWAP3 SWAP1 SWAP3 MSTORE PUSH1 0x40 ADD PUSH1 0x0 SWAP1 DUP2 KECCAK256 DUP1 SLOAD PUSH1 0x1 DUP2 ADD DUP3 SSTORE SWAP1 DUP3 MSTORE SWAP2 SWAP1 KECCAK256 ADD SSTORE POP DUP1 PUSH2 0x53D DUP2 PUSH2 0x16FF JUMP JUMPDEST SWAP2 POP POP PUSH2 0x257 JUMP JUMPDEST POP PUSH1 0x40 DUP1 MLOAD DUP4 DUP2 MSTORE PUSH1 0x1 PUSH1 0x20 DUP3 ADD MSTORE PUSH32 0xC05DAE71AD6EBF2680862EBED51B27E8EA99855A67CFC24E7A3E0212C34E5E2F SWAP2 ADD PUSH1 0x40 MLOAD DUP1 SWAP2 SUB SWAP1 LOG1 POP POP PUSH1 0x1 PUSH1 0x0 SSTORE POP POP JUMP JUMPDEST PUSH1 0x2 PUSH1 0x0 SLOAD EQ ISZERO PUSH2 0x5AD JUMPI PUSH1 0x40 MLOAD PUSH3 0x461BCD PUSH1 0xE5 SHL DUP2 MSTORE PUSH1 0x4 ADD PUSH2 0x19A SWAP1 PUSH2 0x1609 JUMP JUMPDEST PUSH1 0x2 PUSH1 0x0 SSTORE PUSH2 0x1B7 DUP3 DUP3 PUSH1 0x1 PUSH2 0xF7E JUMP JUMPDEST PUSH1 0x2 PUSH1 0x0 SLOAD EQ ISZERO PUSH2 0x5E1 JUMPI PUSH1 0x40 MLOAD PUSH3 0x461BCD PUSH1 0xE5 SHL DUP2 MSTORE PUSH1 0x4 ADD PUSH2 0x19A SWAP1 PUSH2 0x1609 JUMP JUMPDEST PUSH1 0x2 PUSH1 0x0 SSTORE PUSH2 0x1B7 DUP3 DUP3 PUSH1 0x1 PUSH2 0xC5B JUMP JUMPDEST CALLER PUSH1 0x0 SWAP1 DUP2 MSTORE PUSH1 0x2 PUSH1 0x20 SWAP1 DUP2 MSTORE PUSH1 0x40 DUP1 DUP4 KECCAK256 DUP1 SLOAD DUP3 MLOAD DUP2 DUP6 MUL DUP2 ADD DUP6 ADD SWAP1 SWAP4 MSTORE DUP1 DUP4 MSTORE PUSH1 0x60 SWAP5 SWAP4 DUP5 SWAP4 SWAP3 SWAP2 SWAP1 DUP4 ADD DUP3 DUP3 DUP1 ISZERO PUSH2 0x64D JUMPI PUSH1 0x20 MUL DUP3 ADD SWAP2 SWAP1 PUSH1 0x0 MSTORE PUSH1 0x20 PUSH1 0x0 KECCAK256 SWAP1 JUMPDEST DUP2 SLOAD DUP2 MSTORE PUSH1 0x20 ADD SWAP1 PUSH1 0x1 ADD SWAP1 DUP1 DUP4 GT PUSH2 0x639 JUMPI JUMPDEST POP POP POP POP POP SWAP1 POP PUSH1 0x0 JUMPDEST DUP2 MLOAD DUP2 LT ISZERO PUSH2 0x6BD JUMPI PUSH1 0x1 PUSH1 0x0 DUP4 DUP4 DUP2 MLOAD DUP2 LT PUSH2 0x684 JUMPI PUSH4 0x4E487B71 PUSH1 0xE0 SHL PUSH1 0x0 MSTORE PUSH1 0x32 PUSH1 0x4 MSTORE PUSH1 0x24 PUSH1 0x0 REVERT JUMPDEST PUSH1 0x20 MUL PUSH1 0x20 ADD ADD MLOAD DUP2 MSTORE PUSH1 0x20 ADD SWAP1 DUP2 MSTORE PUSH1 0x20 ADD PUSH1 0x0 KECCAK256 DUP1 SLOAD SWAP1 POP DUP4 PUSH2 0x6A9 SWAP2 SWAP1 PUSH2 0x1695 JUMP JUMPDEST SWAP3 POP DUP1 PUSH2 0x6B5 DUP2 PUSH2 0x16FF JUMP JUMPDEST SWAP2 POP POP PUSH2 0x657 JUMP JUMPDEST POP PUSH1 0x0 DUP3 PUSH8 0xFFFFFFFFFFFFFFFF DUP2 GT ISZERO PUSH2 0x6E7 JUMPI PUSH4 0x4E487B71 PUSH1 0xE0 SHL PUSH1 0x0 MSTORE PUSH1 0x41 PUSH1 0x4 MSTORE PUSH1 0x24 PUSH1 0x0 REVERT JUMPDEST PUSH1 0x40 MLOAD SWAP1 DUP1 DUP3 MSTORE DUP1 PUSH1 0x20 MUL PUSH1 0x20 ADD DUP3 ADD PUSH1 0x40 MSTORE DUP1 ISZERO PUSH2 0x740 JUMPI DUP2 PUSH1 0x20 ADD JUMPDEST PUSH1 0x40 DUP1 MLOAD PUSH1 0xA0 DUP2 ADD DUP3 MSTORE PUSH1 0x0 DUP1 DUP3 MSTORE PUSH1 0x20 DUP1 DUP4 ADD DUP3 SWAP1 MSTORE SWAP3 DUP3 ADD DUP2 SWAP1 MSTORE PUSH1 0x60 DUP3 ADD DUP2 SWAP1 MSTORE PUSH1 0x80 DUP3 ADD MSTORE DUP3 MSTORE PUSH1 0x0 NOT SWAP1 SWAP3 ADD SWAP2 ADD DUP2 PUSH2 0x705 JUMPI SWAP1 POP JUMPDEST POP SWAP1 POP PUSH1 0x0 DUP1 JUMPDEST DUP4 MLOAD DUP2 LT ISZERO PUSH2 0x8BF JUMPI PUSH1 0x0 PUSH1 0x1 PUSH1 0x0 DUP7 DUP5 DUP2 MLOAD DUP2 LT PUSH2 0x776 JUMPI PUSH4 0x4E487B71 PUSH1 0xE0 SHL PUSH1 0x0 MSTORE PUSH1 0x32 PUSH1 0x4 MSTORE PUSH1 0x24 PUSH1 0x0 REVERT JUMPDEST PUSH1 0x20 MUL PUSH1 0x20 ADD ADD MLOAD DUP2 MSTORE PUSH1 0x20 ADD SWAP1 DUP2 MSTORE PUSH1 0x20 ADD PUSH1 0x0 KECCAK256 DUP1 SLOAD DUP1 PUSH1 0x20 MUL PUSH1 0x20 ADD PUSH1 0x40 MLOAD SWAP1 DUP2 ADD PUSH1 0x40 MSTORE DUP1 SWAP3 SWAP2 SWAP1 DUP2 DUP2 MSTORE PUSH1 0x20 ADD PUSH1 0x0 SWAP1 JUMPDEST DUP3 DUP3 LT ISZERO PUSH2 0x824 JUMPI PUSH1 0x0 DUP5 DUP2 MSTORE PUSH1 0x20 SWAP1 DUP2 SWAP1 KECCAK256 PUSH1 0x40 DUP1 MLOAD PUSH1 0xA0 DUP2 ADD DUP3 MSTORE PUSH1 0x3 DUP7 MUL SWAP1 SWAP3 ADD DUP1 SLOAD DUP4 MSTORE PUSH1 0x1 DUP1 DUP3 ADD SLOAD PUSH1 0x1 PUSH1 0x1 PUSH1 0xA0 SHL SUB SWAP1 DUP2 AND DUP6 DUP8 ADD MSTORE PUSH1 0x2 SWAP1 SWAP3 ADD SLOAD SWAP2 DUP3 AND SWAP3 DUP5 ADD SWAP3 SWAP1 SWAP3 MSTORE PUSH1 0xFF PUSH1 0x1 PUSH1 0xA0 SHL DUP3 DIV DUP2 AND PUSH1 0x60 DUP6 ADD MSTORE PUSH1 0x1 PUSH1 0xA8 SHL SWAP1 SWAP2 DIV AND PUSH1 0x80 DUP4 ADD MSTORE SWAP1 DUP4 MSTORE SWAP1 SWAP3 ADD SWAP2 ADD PUSH2 0x7AC JUMP JUMPDEST POP POP POP POP SWAP1 POP PUSH1 0x0 JUMPDEST DUP2 MLOAD DUP2 LT ISZERO PUSH2 0x8AA JUMPI DUP2 DUP2 DUP2 MLOAD DUP2 LT PUSH2 0x856 JUMPI PUSH4 0x4E487B71 PUSH1 0xE0 SHL PUSH1 0x0 MSTORE PUSH1 0x32 PUSH1 0x4 MSTORE PUSH1 0x24 PUSH1 0x0 REVERT JUMPDEST PUSH1 0x20 MUL PUSH1 0x20 ADD ADD MLOAD DUP6 DUP6 DUP2 MLOAD DUP2 LT PUSH2 0x87E JUMPI PUSH4 0x4E487B71 PUSH1 0xE0 SHL PUSH1 0x0 MSTORE PUSH1 0x32 PUSH1 0x4 MSTORE PUSH1 0x24 PUSH1 0x0 REVERT JUMPDEST PUSH1 0x20 MUL PUSH1 0x20 ADD ADD DUP2 SWAP1 MSTORE POP DUP4 DUP1 PUSH2 0x894 SWAP1 PUSH2 0x16FF JUMP JUMPDEST SWAP5 POP POP DUP1 DUP1 PUSH2 0x8A2 SWAP1 PUSH2 0x16FF JUMP JUMPDEST SWAP2 POP POP PUSH2 0x82D JUMP JUMPDEST POP POP DUP1 DUP1 PUSH2 0x8B7 SWAP1 PUSH2 0x16FF JUMP JUMPDEST SWAP2 POP POP PUSH2 0x747 JUMP JUMPDEST POP SWAP1 SWAP5 SWAP4 POP POP POP POP JUMP JUMPDEST PUSH1 0x2 PUSH1 0x0 SLOAD EQ ISZERO PUSH2 0x8EC JUMPI PUSH1 0x40 MLOAD PUSH3 0x461BCD PUSH1 0xE5 SHL DUP2 MSTORE PUSH1 0x4 ADD PUSH2 0x19A SWAP1 PUSH2 0x1609 JUMP JUMPDEST PUSH1 0x2 PUSH1 0x0 DUP2 SWAP1 SSTORE POP PUSH2 0x1B7 DUP3 DUP3 PUSH1 0x2 PUSH2 0xF7E JUMP JUMPDEST CALLER PUSH1 0x0 SWAP1 DUP2 MSTORE PUSH1 0x3 PUSH1 0x20 SWAP1 DUP2 MSTORE PUSH1 0x40 DUP1 DUP4 KECCAK256 DUP1 SLOAD DUP3 MLOAD DUP2 DUP6 MUL DUP2 ADD DUP6 ADD SWAP1 SWAP4 MSTORE DUP1 DUP4 MSTORE PUSH1 0x60 SWAP5 SWAP4 DUP5 SWAP4 SWAP3 SWAP2 SWAP1 DUP4 ADD DUP3 DUP3 DUP1 ISZERO PUSH2 0x95B JUMPI PUSH1 0x20 MUL DUP3 ADD SWAP2 SWAP1 PUSH1 0x0 MSTORE PUSH1 0x20 PUSH1 0x0 KECCAK256 SWAP1 JUMPDEST DUP2 SLOAD DUP2 MSTORE PUSH1 0x20 ADD SWAP1 PUSH1 0x1 ADD SWAP1 DUP1 DUP4 GT PUSH2 0x947 JUMPI JUMPDEST POP POP POP POP POP SWAP1 POP PUSH1 0x0 JUMPDEST DUP2 MLOAD DUP2 LT ISZERO PUSH2 0x9CB JUMPI PUSH1 0x1 PUSH1 0x0 DUP4 DUP4 DUP2 MLOAD DUP2 LT PUSH2 0x992 JUMPI PUSH4 0x4E487B71 PUSH1 0xE0 SHL PUSH1 0x0 MSTORE PUSH1 0x32 PUSH1 0x4 MSTORE PUSH1 0x24 PUSH1 0x0 REVERT JUMPDEST PUSH1 0x20 MUL PUSH1 0x20 ADD ADD MLOAD DUP2 MSTORE PUSH1 0x20 ADD SWAP1 DUP2 MSTORE PUSH1 0x20 ADD PUSH1 0x0 KECCAK256 DUP1 SLOAD SWAP1 POP DUP4 PUSH2 0x9B7 SWAP2 SWAP1 PUSH2 0x1695 JUMP JUMPDEST SWAP3 POP DUP1 PUSH2 0x9C3 DUP2 PUSH2 0x16FF JUMP JUMPDEST SWAP2 POP POP PUSH2 0x965 JUMP JUMPDEST POP PUSH1 0x0 DUP3 PUSH8 0xFFFFFFFFFFFFFFFF DUP2 GT ISZERO PUSH2 0x9F5 JUMPI PUSH4 0x4E487B71 PUSH1 0xE0 SHL PUSH1 0x0 MSTORE PUSH1 0x41 PUSH1 0x4 MSTORE PUSH1 0x24 PUSH1 0x0 REVERT JUMPDEST PUSH1 0x40 MLOAD SWAP1 DUP1 DUP3 MSTORE DUP1 PUSH1 0x20 MUL PUSH1 0x20 ADD DUP3 ADD PUSH1 0x40 MSTORE DUP1 ISZERO PUSH2 0xA4E JUMPI DUP2 PUSH1 0x20 ADD JUMPDEST PUSH1 0x40 DUP1 MLOAD PUSH1 0xA0 DUP2 ADD DUP3 MSTORE PUSH1 0x0 DUP1 DUP3 MSTORE PUSH1 0x20 DUP1 DUP4 ADD DUP3 SWAP1 MSTORE SWAP3 DUP3 ADD DUP2 SWAP1 MSTORE PUSH1 0x60 DUP3 ADD DUP2 SWAP1 MSTORE PUSH1 0x80 DUP3 ADD MSTORE DUP3 MSTORE PUSH1 0x0 NOT SWAP1 SWAP3 ADD SWAP2 ADD DUP2 PUSH2 0xA13 JUMPI SWAP1 POP JUMPDEST POP SWAP1 POP PUSH1 0x0 DUP1 JUMPDEST DUP4 MLOAD DUP2 LT ISZERO PUSH2 0x8BF JUMPI PUSH1 0x0 PUSH1 0x1 PUSH1 0x0 DUP7 DUP5 DUP2 MLOAD DUP2 LT PUSH2 0xA84 JUMPI PUSH4 0x4E487B71 PUSH1 0xE0 SHL PUSH1 0x0 MSTORE PUSH1 0x32 PUSH1 0x4 MSTORE PUSH1 0x24 PUSH1 0x0 REVERT JUMPDEST PUSH1 0x20 MUL PUSH1 0x20 ADD ADD MLOAD DUP2 MSTORE PUSH1 0x20 ADD SWAP1 DUP2 MSTORE PUSH1 0x20 ADD PUSH1 0x0 KECCAK256 DUP1 SLOAD DUP1 PUSH1 0x20 MUL PUSH1 0x20 ADD PUSH1 0x40 MLOAD SWAP1 DUP2 ADD PUSH1 0x40 MSTORE DUP1 SWAP3 SWAP2 SWAP1 DUP2 DUP2 MSTORE PUSH1 0x20 ADD PUSH1 0x0 SWAP1 JUMPDEST DUP3 DUP3 LT ISZERO PUSH2 0xB32 JUMPI PUSH1 0x0 DUP5 DUP2 MSTORE PUSH1 0x20 SWAP1 DUP2 SWAP1 KECCAK256 PUSH1 0x40 DUP1 MLOAD PUSH1 0xA0 DUP2 ADD DUP3 MSTORE PUSH1 0x3 DUP7 MUL SWAP1 SWAP3 ADD DUP1 SLOAD DUP4 MSTORE PUSH1 0x1 DUP1 DUP3 ADD SLOAD PUSH1 0x1 PUSH1 0x1 PUSH1 0xA0 SHL SUB SWAP1 DUP2 AND DUP6 DUP8 ADD MSTORE PUSH1 0x2 SWAP1 SWAP3 ADD SLOAD SWAP2 DUP3 AND SWAP3 DUP5 ADD SWAP3 SWAP1 SWAP3 MSTORE PUSH1 0xFF PUSH1 0x1 PUSH1 0xA0 SHL DUP3 DIV DUP2 AND PUSH1 0x60 DUP6 ADD MSTORE PUSH1 0x1 PUSH1 0xA8 SHL SWAP1 SWAP2 DIV AND PUSH1 0x80 DUP4 ADD MSTORE SWAP1 DUP4 MSTORE SWAP1 SWAP3 ADD SWAP2 ADD PUSH2 0xABA JUMP JUMPDEST POP POP POP POP SWAP1 POP PUSH1 0x0 JUMPDEST DUP2 MLOAD DUP2 LT ISZERO PUSH2 0xBB8 JUMPI DUP2 DUP2 DUP2 MLOAD DUP2 LT PUSH2 0xB64 JUMPI PUSH4 0x4E487B71 PUSH1 0xE0 SHL PUSH1 0x0 MSTORE PUSH1 0x32 PUSH1 0x4 MSTORE PUSH1 0x24 PUSH1 0x0 REVERT JUMPDEST PUSH1 0x20 MUL PUSH1 0x20 ADD ADD MLOAD DUP6 DUP6 DUP2 MLOAD DUP2 LT PUSH2 0xB8C JUMPI PUSH4 0x4E487B71 PUSH1 0xE0 SHL PUSH1 0x0 MSTORE PUSH1 0x32 PUSH1 0x4 MSTORE PUSH1 0x24 PUSH1 0x0 REVERT JUMPDEST PUSH1 0x20 MUL PUSH1 0x20 ADD ADD DUP2 SWAP1 MSTORE POP DUP4 DUP1 PUSH2 0xBA2 SWAP1 PUSH2 0x16FF JUMP JUMPDEST SWAP5 POP POP DUP1 DUP1 PUSH2 0xBB0 SWAP1 PUSH2 0x16FF JUMP JUMPDEST SWAP2 POP POP PUSH2 0xB3B JUMP JUMPDEST POP POP DUP1 DUP1 PUSH2 0xBC5 SWAP1 PUSH2 0x16FF JUMP JUMPDEST SWAP2 POP POP PUSH2 0xA55 JUMP JUMPDEST PUSH1 0x4 DUP1 SLOAD PUSH2 0xBDA SWAP1 PUSH2 0x16C4 JUMP JUMPDEST DUP1 PUSH1 0x1F ADD PUSH1 0x20 DUP1 SWAP2 DIV MUL PUSH1 0x20 ADD PUSH1 0x40 MLOAD SWAP1 DUP2 ADD PUSH1 0x40 MSTORE DUP1 SWAP3 SWAP2 SWAP1 DUP2 DUP2 MSTORE PUSH1 0x20 ADD DUP3 DUP1 SLOAD PUSH2 0xC06 SWAP1 PUSH2 0x16C4 JUMP JUMPDEST DUP1 ISZERO PUSH2 0xC53 JUMPI DUP1 PUSH1 0x1F LT PUSH2 0xC28 JUMPI PUSH2 0x100 DUP1 DUP4 SLOAD DIV MUL DUP4 MSTORE SWAP2 PUSH1 0x20 ADD SWAP2 PUSH2 0xC53 JUMP JUMPDEST DUP3 ADD SWAP2 SWAP1 PUSH1 0x0 MSTORE PUSH1 0x20 PUSH1 0x0 KECCAK256 SWAP1 JUMPDEST DUP2 SLOAD DUP2 MSTORE SWAP1 PUSH1 0x1 ADD SWAP1 PUSH1 0x20 ADD DUP1 DUP4 GT PUSH2 0xC36 JUMPI DUP3 SWAP1 SUB PUSH1 0x1F AND DUP3 ADD SWAP2 JUMPDEST POP POP POP POP POP DUP2 JUMP JUMPDEST PUSH1 0x2 PUSH1 0x0 SLOAD EQ ISZERO PUSH2 0xC7E JUMPI PUSH1 0x40 MLOAD PUSH3 0x461BCD PUSH1 0xE5 SHL DUP2 MSTORE PUSH1 0x4 ADD PUSH2 0x19A SWAP1 PUSH2 0x1609 JUMP JUMPDEST PUSH1 0x2 PUSH1 0x0 SWAP1 DUP2 SSTORE PUSH1 0x40 MLOAD PUSH2 0xC98 SWAP1 CALLER SWAP1 DUP7 SWAP1 PUSH1 0x20 ADD PUSH2 0x1451 JUMP JUMPDEST PUSH1 0x40 DUP1 MLOAD PUSH1 0x1F NOT DUP2 DUP5 SUB ADD DUP2 MSTORE DUP3 DUP3 MSTORE DUP1 MLOAD PUSH1 0x20 SWAP2 DUP3 ADD KECCAK256 PUSH1 0x0 DUP2 DUP2 MSTORE PUSH1 0x1 DUP4 MSTORE DUP4 DUP2 KECCAK256 DUP1 SLOAD DUP1 DUP6 MUL DUP8 ADD DUP6 ADD SWAP1 SWAP6 MSTORE DUP5 DUP7 MSTORE SWAP2 SWAP6 POP SWAP4 SWAP3 SWAP1 SWAP2 DUP5 SWAP1 DUP5 ADD JUMPDEST DUP3 DUP3 LT ISZERO PUSH2 0xD4F JUMPI PUSH1 0x0 DUP5 DUP2 MSTORE PUSH1 0x20 SWAP1 DUP2 SWAP1 KECCAK256 PUSH1 0x40 DUP1 MLOAD PUSH1 0xA0 DUP2 ADD DUP3 MSTORE PUSH1 0x3 DUP7 MUL SWAP1 SWAP3 ADD DUP1 SLOAD DUP4 MSTORE PUSH1 0x1 DUP1 DUP3 ADD SLOAD PUSH1 0x1 PUSH1 0x1 PUSH1 0xA0 SHL SUB SWAP1 DUP2 AND DUP6 DUP8 ADD MSTORE PUSH1 0x2 SWAP1 SWAP3 ADD SLOAD SWAP2 DUP3 AND SWAP3 DUP5 ADD SWAP3 SWAP1 SWAP3 MSTORE PUSH1 0xFF PUSH1 0x1 PUSH1 0xA0 SHL DUP3 DIV DUP2 AND PUSH1 0x60 DUP6 ADD MSTORE PUSH1 0x1 PUSH1 0xA8 SHL SWAP1 SWAP2 DIV AND PUSH1 0x80 DUP4 ADD MSTORE SWAP1 DUP4 MSTORE SWAP1 SWAP3 ADD SWAP2 ADD PUSH2 0xCD7 JUMP JUMPDEST POP POP POP POP SWAP1 POP PUSH1 0x0 JUMPDEST DUP2 MLOAD DUP2 LT ISZERO PUSH2 0xF71 JUMPI DUP5 DUP3 DUP3 DUP2 MLOAD DUP2 LT PUSH2 0xD82 JUMPI PUSH4 0x4E487B71 PUSH1 0xE0 SHL PUSH1 0x0 MSTORE PUSH1 0x32 PUSH1 0x4 MSTORE PUSH1 0x24 PUSH1 0x0 REVERT JUMPDEST PUSH1 0x20 MUL PUSH1 0x20 ADD ADD MLOAD PUSH1 0x0 ADD MLOAD EQ ISZERO PUSH2 0xF5F JUMPI CALLER PUSH1 0x1 PUSH1 0x1 PUSH1 0xA0 SHL SUB AND DUP3 DUP3 DUP2 MLOAD DUP2 LT PUSH2 0xDBE JUMPI PUSH4 0x4E487B71 PUSH1 0xE0 SHL PUSH1 0x0 MSTORE PUSH1 0x32 PUSH1 0x4 MSTORE PUSH1 0x24 PUSH1 0x0 REVERT JUMPDEST PUSH1 0x20 MUL PUSH1 0x20 ADD ADD MLOAD PUSH1 0x20 ADD MLOAD PUSH1 0x1 PUSH1 0x1 PUSH1 0xA0 SHL SUB AND EQ PUSH2 0xE20 JUMPI PUSH1 0x40 MLOAD PUSH3 0x461BCD PUSH1 0xE5 SHL DUP2 MSTORE PUSH1 0x20 PUSH1 0x4 DUP3 ADD MSTORE PUSH1 0x17 PUSH1 0x24 DUP3 ADD MSTORE PUSH32 0x596F7520617265206E6F742074686520636C69656E742E000000000000000000 PUSH1 0x44 DUP3 ADD MSTORE PUSH1 0x64 ADD PUSH2 0x19A JUMP JUMPDEST DUP4 DUP3 DUP3 DUP2 MLOAD DUP2 LT PUSH2 0xE41 JUMPI PUSH4 0x4E487B71 PUSH1 0xE0 SHL PUSH1 0x0 MSTORE PUSH1 0x32 PUSH1 0x4 MSTORE PUSH1 0x24 PUSH1 0x0 REVERT JUMPDEST PUSH1 0x20 MUL PUSH1 0x20 ADD ADD MLOAD PUSH1 0x60 ADD SWAP1 PUSH1 0xFF AND SWAP1 DUP2 PUSH1 0xFF AND DUP2 MSTORE POP POP PUSH1 0x0 PUSH2 0xE8B DUP4 DUP4 DUP2 MLOAD DUP2 LT PUSH2 0xE7E JUMPI PUSH4 0x4E487B71 PUSH1 0xE0 SHL PUSH1 0x0 MSTORE PUSH1 0x32 PUSH1 0x4 MSTORE PUSH1 0x24 PUSH1 0x0 REVERT JUMPDEST PUSH1 0x20 MUL PUSH1 0x20 ADD ADD MLOAD PUSH2 0x11B3 JUMP JUMPDEST SWAP1 POP DUP1 PUSH1 0xFF AND PUSH1 0x1 EQ ISZERO PUSH2 0xEFE JUMPI PUSH2 0xEF9 DUP4 DUP4 DUP2 MLOAD DUP2 LT PUSH2 0xEBC JUMPI PUSH4 0x4E487B71 PUSH1 0xE0 SHL PUSH1 0x0 MSTORE PUSH1 0x32 PUSH1 0x4 MSTORE PUSH1 0x24 PUSH1 0x0 REVERT JUMPDEST PUSH1 0x20 MUL PUSH1 0x20 ADD ADD MLOAD PUSH1 0x40 ADD MLOAD DUP5 DUP5 DUP2 MLOAD DUP2 LT PUSH2 0xEE8 JUMPI PUSH4 0x4E487B71 PUSH1 0xE0 SHL PUSH1 0x0 MSTORE PUSH1 0x32 PUSH1 0x4 MSTORE PUSH1 0x24 PUSH1 0x0 REVERT JUMPDEST PUSH1 0x20 MUL PUSH1 0x20 ADD ADD MLOAD PUSH1 0x0 ADD MLOAD PUSH2 0x120D JUMP JUMPDEST PUSH2 0xF59 JUMP JUMPDEST DUP1 PUSH1 0xFF AND PUSH1 0x2 EQ ISZERO PUSH2 0xF59 JUMPI PUSH2 0xF59 DUP4 DUP4 DUP2 MLOAD DUP2 LT PUSH2 0xF2D JUMPI PUSH4 0x4E487B71 PUSH1 0xE0 SHL PUSH1 0x0 MSTORE PUSH1 0x32 PUSH1 0x4 MSTORE PUSH1 0x24 PUSH1 0x0 REVERT JUMPDEST PUSH1 0x20 MUL PUSH1 0x20 ADD ADD MLOAD PUSH1 0x20 ADD MLOAD DUP5 DUP5 DUP2 MLOAD DUP2 LT PUSH2 0xEE8 JUMPI PUSH4 0x4E487B71 PUSH1 0xE0 SHL PUSH1 0x0 MSTORE PUSH1 0x32 PUSH1 0x4 MSTORE PUSH1 0x24 PUSH1 0x0 REVERT JUMPDEST POP PUSH2 0xF71 JUMP JUMPDEST DUP1 PUSH2 0xF69 DUP2 PUSH2 0x16FF JUMP JUMPDEST SWAP2 POP POP PUSH2 0xD58 JUMP JUMPDEST POP POP PUSH1 0x1 PUSH1 0x0 SSTORE POP POP POP POP JUMP JUMPDEST PUSH1 0x2 PUSH1 0x0 SLOAD EQ ISZERO PUSH2 0xFA1 JUMPI PUSH1 0x40 MLOAD PUSH3 0x461BCD PUSH1 0xE5 SHL DUP2 MSTORE PUSH1 0x4 ADD PUSH2 0x19A SWAP1 PUSH2 0x1609 JUMP JUMPDEST PUSH1 0x2 PUSH1 0x0 SWAP1 DUP2 SSTORE PUSH1 0x40 MLOAD PUSH2 0xFBB SWAP1 DUP6 SWAP1 CALLER SWAP1 PUSH1 0x20 ADD PUSH2 0x1451 JUMP JUMPDEST PUSH1 0x40 DUP1 MLOAD PUSH1 0x1F NOT DUP2 DUP5 SUB ADD DUP2 MSTORE DUP3 DUP3 MSTORE DUP1 MLOAD PUSH1 0x20 SWAP2 DUP3 ADD KECCAK256 PUSH1 0x0 DUP2 DUP2 MSTORE PUSH1 0x1 DUP4 MSTORE DUP4 DUP2 KECCAK256 DUP1 SLOAD DUP1 DUP6 MUL DUP8 ADD DUP6 ADD SWAP1 SWAP6 MSTORE DUP5 DUP7 MSTORE SWAP2 SWAP6 POP SWAP4 SWAP3 SWAP1 SWAP2 DUP5 SWAP1 DUP5 ADD JUMPDEST DUP3 DUP3 LT ISZERO PUSH2 0x1072 JUMPI PUSH1 0x0 DUP5 DUP2 MSTORE PUSH1 0x20 SWAP1 DUP2 SWAP1 KECCAK256 PUSH1 0x40 DUP1 MLOAD PUSH1 0xA0 DUP2 ADD DUP3 MSTORE PUSH1 0x3 DUP7 MUL SWAP1 SWAP3 ADD DUP1 SLOAD DUP4 MSTORE PUSH1 0x1 DUP1 DUP3 ADD SLOAD PUSH1 0x1 PUSH1 0x1 PUSH1 0xA0 SHL SUB SWAP1 DUP2 AND DUP6 DUP8 ADD MSTORE PUSH1 0x2 SWAP1 SWAP3 ADD SLOAD SWAP2 DUP3 AND SWAP3 DUP5 ADD SWAP3 SWAP1 SWAP3 MSTORE PUSH1 0xFF PUSH1 0x1 PUSH1 0xA0 SHL DUP3 DIV DUP2 AND PUSH1 0x60 DUP6 ADD MSTORE PUSH1 0x1 PUSH1 0xA8 SHL SWAP1 SWAP2 DIV AND PUSH1 0x80 DUP4 ADD MSTORE SWAP1 DUP4 MSTORE SWAP1 SWAP3 ADD SWAP2 ADD PUSH2 0xFFA JUMP JUMPDEST POP POP POP POP SWAP1 POP PUSH1 0x0 JUMPDEST DUP2 MLOAD DUP2 LT ISZERO PUSH2 0xF71 JUMPI DUP5 DUP3 DUP3 DUP2 MLOAD DUP2 LT PUSH2 0x10A5 JUMPI PUSH4 0x4E487B71 PUSH1 0xE0 SHL PUSH1 0x0 MSTORE PUSH1 0x32 PUSH1 0x4 MSTORE PUSH1 0x24 PUSH1 0x0 REVERT JUMPDEST PUSH1 0x20 MUL PUSH1 0x20 ADD ADD MLOAD PUSH1 0x0 ADD MLOAD EQ ISZERO PUSH2 0x11A1 JUMPI CALLER PUSH1 0x1 PUSH1 0x1 PUSH1 0xA0 SHL SUB AND DUP3 DUP3 DUP2 MLOAD DUP2 LT PUSH2 0x10E1 JUMPI PUSH4 0x4E487B71 PUSH1 0xE0 SHL PUSH1 0x0 MSTORE PUSH1 0x32 PUSH1 0x4 MSTORE PUSH1 0x24 PUSH1 0x0 REVERT JUMPDEST PUSH1 0x20 MUL PUSH1 0x20 ADD ADD MLOAD PUSH1 0x20 ADD MLOAD PUSH1 0x1 PUSH1 0x1 PUSH1 0xA0 SHL SUB AND EQ PUSH2 0x1143 JUMPI PUSH1 0x40 MLOAD PUSH3 0x461BCD PUSH1 0xE5 SHL DUP2 MSTORE PUSH1 0x20 PUSH1 0x4 DUP3 ADD MSTORE PUSH1 0x17 PUSH1 0x24 DUP3 ADD MSTORE PUSH32 0x596F7520617265206E6F74207468652073656C6C65722E000000000000000000 PUSH1 0x44 DUP3 ADD MSTORE PUSH1 0x64 ADD PUSH2 0x19A JUMP JUMPDEST DUP4 DUP3 DUP3 DUP2 MLOAD DUP2 LT PUSH2 0x1164 JUMPI PUSH4 0x4E487B71 PUSH1 0xE0 SHL PUSH1 0x0 MSTORE PUSH1 0x32 PUSH1 0x4 MSTORE PUSH1 0x24 PUSH1 0x0 REVERT JUMPDEST PUSH1 0x20 MUL PUSH1 0x20 ADD ADD MLOAD PUSH1 0x80 ADD SWAP1 PUSH1 0xFF AND SWAP1 DUP2 PUSH1 0xFF AND DUP2 MSTORE POP POP PUSH1 0x0 PUSH2 0xE8B DUP4 DUP4 DUP2 MLOAD DUP2 LT PUSH2 0xE7E JUMPI PUSH4 0x4E487B71 PUSH1 0xE0 SHL PUSH1 0x0 MSTORE PUSH1 0x32 PUSH1 0x4 MSTORE PUSH1 0x24 PUSH1 0x0 REVERT JUMPDEST DUP1 PUSH2 0x11AB DUP2 PUSH2 0x16FF JUMP JUMPDEST SWAP2 POP POP PUSH2 0x107B JUMP JUMPDEST PUSH1 0x0 PUSH1 0x2 PUSH1 0x0 SLOAD EQ ISZERO PUSH2 0x11D8 JUMPI PUSH1 0x40 MLOAD PUSH3 0x461BCD PUSH1 0xE5 SHL DUP2 MSTORE PUSH1 0x4 ADD PUSH2 0x19A SWAP1 PUSH2 0x1609 JUMP JUMPDEST PUSH1 0x2 PUSH1 0x0 SSTORE PUSH1 0x80 DUP3 ADD MLOAD PUSH1 0x60 DUP4 ADD MLOAD PUSH1 0xFF SWAP1 DUP2 AND SWAP2 AND EQ ISZERO PUSH2 0x11FF JUMPI POP PUSH1 0x60 DUP2 ADD MLOAD PUSH2 0x1203 JUMP JUMPDEST POP PUSH1 0x0 JUMPDEST PUSH1 0x1 PUSH1 0x0 SSTORE SWAP2 SWAP1 POP JUMP JUMPDEST PUSH1 0x1 PUSH1 0x1 PUSH1 0xA0 SHL SUB DUP3 AND PUSH2 0x1258 JUMPI PUSH1 0x40 MLOAD PUSH3 0x461BCD PUSH1 0xE5 SHL DUP2 MSTORE PUSH1 0x20 PUSH1 0x4 DUP3 ADD MSTORE PUSH1 0x12 PUSH1 0x24 DUP3 ADD MSTORE PUSH18 0x416464726573732063616E2774206265203 PUSH1 0x74 SHL PUSH1 0x44 DUP3 ADD MSTORE PUSH1 0x64 ADD PUSH2 0x19A JUMP JUMPDEST PUSH1 0x0 DUP3 PUSH1 0x1 PUSH1 0x1 PUSH1 0xA0 SHL SUB AND DUP3 PUSH1 0x40 MLOAD PUSH1 0x0 PUSH1 0x40 MLOAD DUP1 DUP4 SUB DUP2 DUP6 DUP8 GAS CALL SWAP3 POP POP POP RETURNDATASIZE DUP1 PUSH1 0x0 DUP2 EQ PUSH2 0x12A5 JUMPI PUSH1 0x40 MLOAD SWAP2 POP PUSH1 0x1F NOT PUSH1 0x3F RETURNDATASIZE ADD AND DUP3 ADD PUSH1 0x40 MSTORE RETURNDATASIZE DUP3 MSTORE RETURNDATASIZE PUSH1 0x0 PUSH1 0x20 DUP5 ADD RETURNDATACOPY PUSH2 0x12AA JUMP JUMPDEST PUSH1 0x60 SWAP2 POP JUMPDEST POP POP SWAP1 POP DUP1 PUSH1 0x4 PUSH1 0x40 MLOAD PUSH1 0x20 ADD PUSH2 0x12C1 SWAP2 SWAP1 PUSH2 0x1478 JUMP JUMPDEST PUSH1 0x40 MLOAD PUSH1 0x20 DUP2 DUP4 SUB SUB DUP2 MSTORE SWAP1 PUSH1 0x40 MSTORE SWAP1 PUSH2 0x12EE JUMPI PUSH1 0x40 MLOAD PUSH3 0x461BCD PUSH1 0xE5 SHL DUP2 MSTORE PUSH1 0x4 ADD PUSH2 0x19A SWAP2 SWAP1 PUSH2 0x15B6 JUMP JUMPDEST POP POP POP POP JUMP JUMPDEST PUSH1 0x0 DUP3 PUSH1 0x1F DUP4 ADD SLT PUSH2 0x1304 JUMPI DUP1 DUP2 REVERT JUMPDEST DUP2 CALLDATALOAD PUSH1 0x20 PUSH2 0x1319 PUSH2 0x1314 DUP4 PUSH2 0x1671 JUMP JUMPDEST PUSH2 0x1640 JUMP JUMPDEST DUP1 DUP4 DUP3 MSTORE DUP3 DUP3 ADD SWAP2 POP DUP3 DUP7 ADD DUP8 DUP5 DUP7 PUSH1 0x5 SHL DUP10 ADD ADD GT ISZERO PUSH2 0x1338 JUMPI DUP6 DUP7 REVERT JUMPDEST DUP6 JUMPDEST DUP6 DUP2 LT ISZERO PUSH2 0x1356 JUMPI DUP2 CALLDATALOAD DUP5 MSTORE SWAP3 DUP5 ADD SWAP3 SWAP1 DUP5 ADD SWAP1 PUSH1 0x1 ADD PUSH2 0x133A JUMP JUMPDEST POP SWAP1 SWAP8 SWAP7 POP POP POP POP POP POP POP JUMP JUMPDEST PUSH1 0x0 DUP1 PUSH1 0x40 DUP4 DUP6 SUB SLT ISZERO PUSH2 0x1375 JUMPI DUP2 DUP3 REVERT JUMPDEST DUP3 CALLDATALOAD PUSH2 0x1380 DUP2 PUSH2 0x1746 JUMP JUMPDEST SWAP5 PUSH1 0x20 SWAP4 SWAP1 SWAP4 ADD CALLDATALOAD SWAP4 POP POP POP JUMP JUMPDEST PUSH1 0x0 DUP1 PUSH1 0x40 DUP4 DUP6 SUB SLT ISZERO PUSH2 0x13A0 JUMPI DUP2 DUP3 REVERT JUMPDEST DUP3 CALLDATALOAD PUSH8 0xFFFFFFFFFFFFFFFF DUP1 DUP3 GT ISZERO PUSH2 0x13B7 JUMPI DUP4 DUP5 REVERT JUMPDEST DUP2 DUP6 ADD SWAP2 POP DUP6 PUSH1 0x1F DUP4 ADD SLT PUSH2 0x13CA JUMPI DUP4 DUP5 REVERT JUMPDEST DUP2 CALLDATALOAD PUSH1 0x20 PUSH2 0x13DA PUSH2 0x1314 DUP4 PUSH2 0x1671 JUMP JUMPDEST DUP1 DUP4 DUP3 MSTORE DUP3 DUP3 ADD SWAP2 POP DUP3 DUP7 ADD DUP11 DUP5 DUP7 PUSH1 0x5 SHL DUP10 ADD ADD GT ISZERO PUSH2 0x13F9 JUMPI DUP9 DUP10 REVERT JUMPDEST DUP9 SWAP7 POP JUMPDEST DUP5 DUP8 LT ISZERO PUSH2 0x1424 JUMPI DUP1 CALLDATALOAD PUSH2 0x1410 DUP2 PUSH2 0x1746 JUMP JUMPDEST DUP4 MSTORE PUSH1 0x1 SWAP7 SWAP1 SWAP7 ADD SWAP6 SWAP2 DUP4 ADD SWAP2 DUP4 ADD PUSH2 0x13FD JUMP JUMPDEST POP SWAP7 POP POP DUP7 ADD CALLDATALOAD SWAP3 POP POP DUP1 DUP3 GT ISZERO PUSH2 0x143A JUMPI DUP3 DUP4 REVERT JUMPDEST POP PUSH2 0x1447 DUP6 DUP3 DUP7 ADD PUSH2 0x12F4 JUMP JUMPDEST SWAP2 POP POP SWAP3 POP SWAP3 SWAP1 POP JUMP JUMPDEST PUSH12 0xFFFFFFFFFFFFFFFFFFFFFFFF NOT PUSH1 0x60 SWAP4 DUP5 SHL DUP2 AND DUP3 MSTORE SWAP2 SWAP1 SWAP3 SHL AND PUSH1 0x14 DUP3 ADD MSTORE PUSH1 0x28 ADD SWAP1 JUMP JUMPDEST PUSH15 0x2330B4B632B2103A379039B2B7321 PUSH1 0x8D SHL DUP2 MSTORE PUSH1 0x0 PUSH1 0xF DUP2 DUP5 SLOAD DUP4 PUSH1 0x1 DUP3 DUP2 SHR SWAP2 POP DUP1 DUP4 AND DUP1 PUSH2 0x14AB JUMPI PUSH1 0x7F DUP4 AND SWAP3 POP JUMPDEST PUSH1 0x20 DUP1 DUP5 LT DUP3 EQ ISZERO PUSH2 0x14CB JUMPI PUSH4 0x4E487B71 PUSH1 0xE0 SHL DUP9 MSTORE PUSH1 0x22 PUSH1 0x4 MSTORE PUSH1 0x24 DUP9 REVERT JUMPDEST DUP2 DUP1 ISZERO PUSH2 0x14DF JUMPI PUSH1 0x1 DUP2 EQ PUSH2 0x14F4 JUMPI PUSH2 0x1524 JUMP JUMPDEST PUSH1 0xFF NOT DUP7 AND DUP11 DUP10 ADD MSTORE DUP5 DUP11 ADD DUP9 ADD SWAP7 POP PUSH2 0x1524 JUMP JUMPDEST PUSH1 0x0 DUP12 DUP2 MSTORE PUSH1 0x20 SWAP1 KECCAK256 DUP10 JUMPDEST DUP7 DUP2 LT ISZERO PUSH2 0x151A JUMPI DUP2 SLOAD DUP13 DUP3 ADD DUP12 ADD MSTORE SWAP1 DUP6 ADD SWAP1 DUP4 ADD PUSH2 0x14FF JUMP JUMPDEST POP POP DUP8 DUP6 DUP12 ADD ADD SWAP7 POP JUMPDEST POP SWAP5 SWAP10 SWAP9 POP POP POP POP POP POP POP POP POP JUMP JUMPDEST PUSH1 0x20 DUP1 DUP3 MSTORE DUP3 MLOAD DUP3 DUP3 ADD DUP2 SWAP1 MSTORE PUSH1 0x0 SWAP2 SWAP1 PUSH1 0x40 SWAP1 DUP2 DUP6 ADD SWAP1 DUP7 DUP5 ADD DUP6 JUMPDEST DUP3 DUP2 LT ISZERO PUSH2 0x15A9 JUMPI DUP2 MLOAD DUP1 MLOAD DUP6 MSTORE DUP7 DUP2 ADD MLOAD PUSH1 0x1 PUSH1 0x1 PUSH1 0xA0 SHL SUB SWAP1 DUP2 AND DUP9 DUP8 ADD MSTORE DUP7 DUP3 ADD MLOAD AND DUP7 DUP7 ADD MSTORE PUSH1 0x60 DUP1 DUP3 ADD MLOAD PUSH1 0xFF SWAP1 DUP2 AND SWAP2 DUP8 ADD SWAP2 SWAP1 SWAP2 MSTORE PUSH1 0x80 SWAP2 DUP3 ADD MLOAD AND SWAP1 DUP6 ADD MSTORE PUSH1 0xA0 SWAP1 SWAP4 ADD SWAP3 SWAP1 DUP6 ADD SWAP1 PUSH1 0x1 ADD PUSH2 0x1550 JUMP JUMPDEST POP SWAP2 SWAP8 SWAP7 POP POP POP POP POP POP POP JUMP JUMPDEST PUSH1 0x0 PUSH1 0x20 DUP1 DUP4 MSTORE DUP4 MLOAD DUP1 DUP3 DUP6 ADD MSTORE DUP3 JUMPDEST DUP2 DUP2 LT ISZERO PUSH2 0x15E2 JUMPI DUP6 DUP2 ADD DUP4 ADD MLOAD DUP6 DUP3 ADD PUSH1 0x40 ADD MSTORE DUP3 ADD PUSH2 0x15C6 JUMP JUMPDEST DUP2 DUP2 GT ISZERO PUSH2 0x15F3 JUMPI DUP4 PUSH1 0x40 DUP4 DUP8 ADD ADD MSTORE JUMPDEST POP PUSH1 0x1F ADD PUSH1 0x1F NOT AND SWAP3 SWAP1 SWAP3 ADD PUSH1 0x40 ADD SWAP4 SWAP3 POP POP POP JUMP JUMPDEST PUSH1 0x20 DUP1 DUP3 MSTORE PUSH1 0x1F SWAP1 DUP3 ADD MSTORE PUSH32 0x5265656E7472616E637947756172643A207265656E7472616E742063616C6C00 PUSH1 0x40 DUP3 ADD MSTORE PUSH1 0x60 ADD SWAP1 JUMP JUMPDEST PUSH1 0x40 MLOAD PUSH1 0x1F DUP3 ADD PUSH1 0x1F NOT AND DUP2 ADD PUSH8 0xFFFFFFFFFFFFFFFF DUP2 GT DUP3 DUP3 LT OR ISZERO PUSH2 0x1669 JUMPI PUSH2 0x1669 PUSH2 0x1730 JUMP JUMPDEST PUSH1 0x40 MSTORE SWAP2 SWAP1 POP JUMP JUMPDEST PUSH1 0x0 PUSH8 0xFFFFFFFFFFFFFFFF DUP3 GT ISZERO PUSH2 0x168B JUMPI PUSH2 0x168B PUSH2 0x1730 JUMP JUMPDEST POP PUSH1 0x5 SHL PUSH1 0x20 ADD SWAP1 JUMP JUMPDEST PUSH1 0x0 DUP3 NOT DUP3 GT ISZERO PUSH2 0x16A8 JUMPI PUSH2 0x16A8 PUSH2 0x171A JUMP JUMPDEST POP ADD SWAP1 JUMP JUMPDEST PUSH1 0x0 DUP3 DUP3 LT ISZERO PUSH2 0x16BF JUMPI PUSH2 0x16BF PUSH2 0x171A JUMP JUMPDEST POP SUB SWAP1 JUMP JUMPDEST PUSH1 0x1 DUP2 DUP2 SHR SWAP1 DUP3 AND DUP1 PUSH2 0x16D8 JUMPI PUSH1 0x7F DUP3 AND SWAP2 POP JUMPDEST PUSH1 0x20 DUP3 LT DUP2 EQ ISZERO PUSH2 0x16F9 JUMPI PUSH4 0x4E487B71 PUSH1 0xE0 SHL PUSH1 0x0 MSTORE PUSH1 0x22 PUSH1 0x4 MSTORE PUSH1 0x24 PUSH1 0x0 REVERT JUMPDEST POP SWAP2 SWAP1 POP JUMP JUMPDEST PUSH1 0x0 PUSH1 0x0 NOT DUP3 EQ ISZERO PUSH2 0x1713 JUMPI PUSH2 0x1713 PUSH2 0x171A JUMP JUMPDEST POP PUSH1 0x1 ADD SWAP1 JUMP JUMPDEST PUSH4 0x4E487B71 PUSH1 0xE0 SHL PUSH1 0x0 MSTORE PUSH1 0x11 PUSH1 0x4 MSTORE PUSH1 0x24 PUSH1 0x0 REVERT JUMPDEST PUSH4 0x4E487B71 PUSH1 0xE0 SHL PUSH1 0x0 MSTORE PUSH1 0x41 PUSH1 0x4 MSTORE PUSH1 0x24 PUSH1 0x0 REVERT JUMPDEST PUSH1 0x1 PUSH1 0x1 PUSH1 0xA0 SHL SUB DUP2 AND DUP2 EQ PUSH2 0x175B JUMPI PUSH1 0x0 DUP1 REVERT JUMPDEST POP JUMP INVALID LOG2 PUSH5 0x6970667358 0x22 SLT KECCAK256 DUP15 0xDC 0xD0 0xCB EXTCODESIZE PUSH3 0xAFBF6D 0x4E DUP13 0xEC 0xF8 CALLVALUE PUSH9 0xEB92F3DF9CF7461B4B 0xC PUSH31 0x625156EF7A5364736F6C634300080400330000000000000000000000000000 "
        },
        "methodIdentifiers": {
          "clientCheckOrders()": "6749cf5b",
          "clientProccessTransaction(address,uint256)": "4827b35a",
          "clientRevertTransaction(address,uint256)": "01f5770b",
          "multiTransfer(address[],uint256[])": "1e89d545",
          "sellerCheckOrders()": "7bcebb16",
          "sellerProccessTransaction(address,uint256)": "2bb5663a",
          "sellerRevertTransaction(address,uint256)": "79e3c0e9",
          "symbol()": "95d89b41"
        }
      }
    }
  }
}