{
  "contracts/ShopsBulkTransactions.sol": {
    "ShopsBulkTransactions": {
      "abi": [
        {
          "inputs": [
            {
              "internalType": "string",
              "name": "_symbol",
              "type": "string"
            }
          ],
          "stateMutability": "nonpayable",
          "type": "constructor"
        },
        {
          "anonymous": false,
          "inputs": [
            {
              "indexed": false,
              "internalType": "uint256",
              "name": "_amount",
              "type": "uint256"
            },
            {
              "indexed": false,
              "internalType": "bool",
              "name": "_status",
              "type": "bool"
            }
          ],
          "name": "MultiTransfer",
          "type": "event"
        },
        {
          "inputs": [
            {
              "internalType": "address",
              "name": "seller",
              "type": "address"
            },
            {
              "internalType": "string",
              "name": "productHash",
              "type": "string"
            }
          ],
          "name": "checkProductOrders",
          "outputs": [
            {
              "internalType": "uint256",
              "name": "",
              "type": "uint256"
            }
          ],
          "stateMutability": "view",
          "type": "function"
        },
        {
          "inputs": [],
          "name": "clientCheckActiveOrders",
          "outputs": [
            {
              "components": [
                {
                  "internalType": "string",
                  "name": "product_hash",
                  "type": "string"
                },
                {
                  "internalType": "uint256",
                  "name": "value",
                  "type": "uint256"
                },
                {
                  "internalType": "address",
                  "name": "client",
                  "type": "address"
                },
                {
                  "internalType": "address",
                  "name": "sellar",
                  "type": "address"
                },
                {
                  "internalType": "uint8",
                  "name": "clientDecision",
                  "type": "uint8"
                },
                {
                  "internalType": "uint8",
                  "name": "sellerDecision",
                  "type": "uint8"
                },
                {
                  "internalType": "bool",
                  "name": "active",
                  "type": "bool"
                }
              ],
              "internalType": "struct ShopsBulkTransactions.Order[]",
              "name": "",
              "type": "tuple[]"
            }
          ],
          "stateMutability": "view",
          "type": "function"
        },
        {
          "inputs": [],
          "name": "clientCheckOrders",
          "outputs": [
            {
              "components": [
                {
                  "internalType": "string",
                  "name": "product_hash",
                  "type": "string"
                },
                {
                  "internalType": "uint256",
                  "name": "value",
                  "type": "uint256"
                },
                {
                  "internalType": "address",
                  "name": "client",
                  "type": "address"
                },
                {
                  "internalType": "address",
                  "name": "sellar",
                  "type": "address"
                },
                {
                  "internalType": "uint8",
                  "name": "clientDecision",
                  "type": "uint8"
                },
                {
                  "internalType": "uint8",
                  "name": "sellerDecision",
                  "type": "uint8"
                },
                {
                  "internalType": "bool",
                  "name": "active",
                  "type": "bool"
                }
              ],
              "internalType": "struct ShopsBulkTransactions.Order[]",
              "name": "",
              "type": "tuple[]"
            }
          ],
          "stateMutability": "view",
          "type": "function"
        },
        {
          "inputs": [
            {
              "internalType": "address[]",
              "name": "_sellers",
              "type": "address[]"
            },
            {
              "internalType": "uint256[]",
              "name": "_values",
              "type": "uint256[]"
            },
            {
              "internalType": "string[]",
              "name": "_productHashes",
              "type": "string[]"
            }
          ],
          "name": "clientProccessTransaction",
          "outputs": [],
          "stateMutability": "nonpayable",
          "type": "function"
        },
        {
          "inputs": [
            {
              "internalType": "address[]",
              "name": "_sellers",
              "type": "address[]"
            },
            {
              "internalType": "uint256[]",
              "name": "_values",
              "type": "uint256[]"
            },
            {
              "internalType": "string[]",
              "name": "_productHashes",
              "type": "string[]"
            }
          ],
          "name": "clientRevertTransaction",
          "outputs": [],
          "stateMutability": "nonpayable",
          "type": "function"
        },
        {
          "inputs": [
            {
              "internalType": "address payable[]",
              "name": "_addresses",
              "type": "address[]"
            },
            {
              "internalType": "uint256[]",
              "name": "_amounts",
              "type": "uint256[]"
            },
            {
              "internalType": "string[]",
              "name": "_productHashes",
              "type": "string[]"
            }
          ],
          "name": "multiTransfer",
          "outputs": [],
          "stateMutability": "payable",
          "type": "function"
        },
        {
          "inputs": [],
          "name": "sellerCheckActiveOrders",
          "outputs": [
            {
              "components": [
                {
                  "internalType": "string",
                  "name": "product_hash",
                  "type": "string"
                },
                {
                  "internalType": "uint256",
                  "name": "value",
                  "type": "uint256"
                },
                {
                  "internalType": "address",
                  "name": "client",
                  "type": "address"
                },
                {
                  "internalType": "address",
                  "name": "sellar",
                  "type": "address"
                },
                {
                  "internalType": "uint8",
                  "name": "clientDecision",
                  "type": "uint8"
                },
                {
                  "internalType": "uint8",
                  "name": "sellerDecision",
                  "type": "uint8"
                },
                {
                  "internalType": "bool",
                  "name": "active",
                  "type": "bool"
                }
              ],
              "internalType": "struct ShopsBulkTransactions.Order[]",
              "name": "",
              "type": "tuple[]"
            }
          ],
          "stateMutability": "view",
          "type": "function"
        },
        {
          "inputs": [],
          "name": "sellerCheckOrders",
          "outputs": [
            {
              "components": [
                {
                  "internalType": "string",
                  "name": "product_hash",
                  "type": "string"
                },
                {
                  "internalType": "uint256",
                  "name": "value",
                  "type": "uint256"
                },
                {
                  "internalType": "address",
                  "name": "client",
                  "type": "address"
                },
                {
                  "internalType": "address",
                  "name": "sellar",
                  "type": "address"
                },
                {
                  "internalType": "uint8",
                  "name": "clientDecision",
                  "type": "uint8"
                },
                {
                  "internalType": "uint8",
                  "name": "sellerDecision",
                  "type": "uint8"
                },
                {
                  "internalType": "bool",
                  "name": "active",
                  "type": "bool"
                }
              ],
              "internalType": "struct ShopsBulkTransactions.Order[]",
              "name": "",
              "type": "tuple[]"
            }
          ],
          "stateMutability": "view",
          "type": "function"
        },
        {
          "inputs": [
            {
              "internalType": "address[]",
              "name": "_clients",
              "type": "address[]"
            },
            {
              "internalType": "uint256[]",
              "name": "_values",
              "type": "uint256[]"
            },
            {
              "internalType": "string[]",
              "name": "_productHashes",
              "type": "string[]"
            }
          ],
          "name": "sellerProccessTransaction",
          "outputs": [],
          "stateMutability": "nonpayable",
          "type": "function"
        },
        {
          "inputs": [
            {
              "internalType": "address[]",
              "name": "_clients",
              "type": "address[]"
            },
            {
              "internalType": "uint256[]",
              "name": "_values",
              "type": "uint256[]"
            },
            {
              "internalType": "string[]",
              "name": "_productHashes",
              "type": "string[]"
            }
          ],
          "name": "sellerRevertTransaction",
          "outputs": [],
          "stateMutability": "nonpayable",
          "type": "function"
        },
        {
          "inputs": [],
          "name": "symbol",
          "outputs": [
            {
              "internalType": "string",
              "name": "",
              "type": "string"
            }
          ],
          "stateMutability": "view",
          "type": "function"
        }
      ],
      "evm": {
        "bytecode": {
          "linkReferences": {},
          "object": "60806040523480156200001157600080fd5b5060405162008db738038062008db7833981810160405281019062000037919062000220565b6001600081905550620000737f1b28156c09d43c4aaade23b34f8d8ce2dfa2832067202f19b21cb4a0878082ac60001b620000fb60201b60201c565b620000a77fa6124d4a2a8cdd3178cc97b046d63c3bc01c6bbb5137a89c2d96bbaa2be0194160001b620000fb60201b60201c565b620000db7f3a0f20ecc70dfa8f2051313c81a217bec583fc864b41481b2965b063fe81a09360001b620000fb60201b60201c565b8060049080519060200190620000f3929190620000fe565b5050620003d5565b50565b8280546200010c90620002fa565b90600052602060002090601f0160209004810192826200013057600085556200017c565b82601f106200014b57805160ff19168380011785556200017c565b828001600101855582156200017c579182015b828111156200017b5782518255916020019190600101906200015e565b5b5090506200018b91906200018f565b5090565b5b80821115620001aa57600081600090555060010162000190565b5090565b6000620001c5620001bf846200028e565b62000265565b905082815260208101848484011115620001de57600080fd5b620001eb848285620002c4565b509392505050565b600082601f8301126200020557600080fd5b815162000217848260208601620001ae565b91505092915050565b6000602082840312156200023357600080fd5b600082015167ffffffffffffffff8111156200024e57600080fd5b6200025c84828501620001f3565b91505092915050565b60006200027162000284565b90506200027f828262000330565b919050565b6000604051905090565b600067ffffffffffffffff821115620002ac57620002ab62000395565b5b620002b782620003c4565b9050602081019050919050565b60005b83811015620002e4578082015181840152602081019050620002c7565b83811115620002f4576000848401525b50505050565b600060028204905060018216806200031357607f821691505b602082108114156200032a576200032962000366565b5b50919050565b6200033b82620003c4565b810181811067ffffffffffffffff821117156200035d576200035c62000395565b5b80604052505050565b7f4e487b7100000000000000000000000000000000000000000000000000000000600052602260045260246000fd5b7f4e487b7100000000000000000000000000000000000000000000000000000000600052604160045260246000fd5b6000601f19601f8301169050919050565b6189d280620003e56000396000f3fe60806040526004361061009c5760003560e01c80637bcebb16116100645780637bcebb161461018657806395d89b41146101b157806398feff33146101dc578063d760a5a414610207578063dff68ed314610223578063fff357221461024c5761009c565b80631bd0ecf8146100a157806321a598de146100ca5780632c7f173e146101075780636749cf5b14610130578063697b81081461015b575b600080fd5b3480156100ad57600080fd5b506100c860048036038101906100c39190617aca565b610275565b005b3480156100d657600080fd5b506100f160048036038101906100ec9190617a72565b610681565b6040516100fe919061829b565b60405180910390f35b34801561011357600080fd5b5061012e60048036038101906101299190617aca565b610dd9565b005b34801561013c57600080fd5b506101456111e4565b6040516101529190618157565b60405180910390f35b34801561016757600080fd5b50610170611ac6565b60405161017d9190618157565b60405180910390f35b34801561019257600080fd5b5061019b612841565b6040516101a89190618157565b60405180910390f35b3480156101bd57600080fd5b506101c6613123565b6040516101d39190618179565b60405180910390f35b3480156101e857600080fd5b506101f16131b1565b6040516101fe9190618157565b60405180910390f35b610221600480360381019061021c9190617b61565b613f2c565b005b34801561022f57600080fd5b5061024a60048036038101906102459190617aca565b614d8d565b005b34801561025857600080fd5b50610273600480360381019061026e9190617aca565b615199565b005b600260005414156102bb576040517f08c379a00000000000000000000000000000000000000000000000000000000081526004016102b29061827b565b60405180910390fd5b60026000819055506102ef7fce225872c6dced3665beec03ccb12cef74a3271767c0ca34c64caa923b80242a60001b6155a5565b61031b7f1323fb38451aca7270d138706b745515259c5ae19144b5d1b0d79732e17081ce60001b6155a5565b6103477fee734aff5bc82bde0e97a79474abca482fbd6c41dfc822fb682f7bda0045b74260001b6155a5565b6103737fd8ee4d9eddf2ee47367ad57d440be17885da3f28a67debe95c0916bc1589ea5360001b6155a5565b81518351146103b7576040517f08c379a00000000000000000000000000000000000000000000000000000000081526004016103ae9061825b565b60405180910390fd5b6103e37f55f203aa50f16e213ef613d324f37a086c8db69d4681a1a1fb14655ab7cc6aff60001b6155a5565b61040f7fc8213e7d012ccb11824fbf947209fe9db810ddef149c562c1182bb464e41fb7560001b6155a5565b61043b7fc2f5d4b98f0ce79934e027a09aa5f05c8979e8884aaa38fb053a55e1c1b7008860001b6155a5565b6104677f4afb693150ebc803c9b9b407e29c0787bf450a039a687fdc6d36784d996c592b60001b6155a5565b80518351146104ab576040517f08c379a00000000000000000000000000000000000000000000000000000000081526004016104a29061821b565b60405180910390fd5b6104d77f120f3e6026e3ccd889e2aa4aef40acd1ba4209e9570b5d59798f60951e78398a60001b6155a5565b6105037f6ad3315e610968c7ef5617953002108d073f2069711c1769abc1cdf1b45bcb7660001b6155a5565b61052f7f7b8346fe2b001426a8db8ff8c8864347fca068a2c51cf79608051b38319e951c60001b6155a5565b60005b8351811015610673576105677f47b09443ad6b9c906a009bf0a6e80e9c6cccab9f1f6296500f807ace8b289a6c60001b6155a5565b6105937fdc4b9a05170cb35e930301cd2a6241261193dee3b72b1583f895314e96d986e960001b6155a5565b6106608482815181106105cf577f4e487b7100000000000000000000000000000000000000000000000000000000600052603260045260246000fd5b6020026020010151848381518110610610577f4e487b7100000000000000000000000000000000000000000000000000000000600052603260045260246000fd5b60200260200101516002858581518110610653577f4e487b7100000000000000000000000000000000000000000000000000000000600052603260045260246000fd5b60200260200101516155a8565b808061066b90618621565b915050610532565b506001600081905550505050565b60006106af7ffabc0ae6b2ad008967dd438286f56fdd7a9f5ee6ce7a2cc663bb946639c69e7960001b6155a5565b6106db7f45904b6703fe5652187e8881a0b316f2d848d27200aebde94da1f3496eae110a60001b6155a5565b6107077f7d8ae90e468b980021fa75ea6366163f9f268dbaac1652d74279eb072f939b8e60001b6155a5565b60006107357ff3d05d0e26e3fc313f3fb6e9dc2e6ab27b89031be7ee9f3543f81190f8fc00e160001b6155a5565b6107617f1ce58042463b9f02a10ffc238cfe661880fd109cb126715373f7c72f93c45f5360001b6155a5565b6000600360008773ffffffffffffffffffffffffffffffffffffffff1673ffffffffffffffffffffffffffffffffffffffff1681526020019081526020016000208054806020026020016040519081016040528092919081815260200182805480156107ec57602002820191906000526020600020905b8154815260200190600101908083116107d8575b5050505050905061081f7f9b7be32bf7735389781830d5c41b728f2edb7a7fb3d31d38899774ebc91238fd60001b6155a5565b61084b7f370f64d0535346cb0d2e21a8622cc2c914be672c42e67595ebec5352c818664260001b6155a5565b60006108797fdeeb61f89f80d24c37b28d995725a13992a762344f42d4da3e60277d9395b8d560001b6155a5565b6108a57f4054ef2bcad1b721f7cc91e6ea7e4b1f074a4ea0bcf0f79d76ace2389c48857060001b6155a5565b60005b8251811015610d73576108dd7f4b12bda2ba3c04e9eb9adc649707d8e6bd9574c3235dfd3ed466252339a02efa60001b6155a5565b6109097fd061b1446faa6b5b823d3ed8a777fa26f07ac0a093eafa307f8c678441bd672360001b6155a5565b600060016000858481518110610948577f4e487b7100000000000000000000000000000000000000000000000000000000600052603260045260246000fd5b60200260200101518152602001908152602001600020805480602002602001604051908101604052809291908181526020016000905b82821015610b4d57838290600052602060002090600402016040518060e00160405290816000820180546109b1906185be565b80601f01602080910402602001604051908101604052809291908181526020018280546109dd906185be565b8015610a2a5780601f106109ff57610100808354040283529160200191610a2a565b820191906000526020600020905b815481529060010190602001808311610a0d57829003601f168201915b50505050508152602001600182015481526020016002820160009054906101000a900473ffffffffffffffffffffffffffffffffffffffff1673ffffffffffffffffffffffffffffffffffffffff1673ffffffffffffffffffffffffffffffffffffffff1681526020016003820160009054906101000a900473ffffffffffffffffffffffffffffffffffffffff1673ffffffffffffffffffffffffffffffffffffffff1673ffffffffffffffffffffffffffffffffffffffff1681526020016003820160149054906101000a900460ff1660ff1660ff1681526020016003820160159054906101000a900460ff1660ff1660ff1681526020016003820160169054906101000a900460ff1615151515815250508152602001906001019061097e565b505050509050610b7f7f3f47569b0f4c766d7d772be1bb3081443820fe53f82bfa0083a6290943c1cb3e60001b6155a5565b610bab7f6b3dbc2e27b43bef9dd0b119f2ede503dce40918cb071bf9ece74458dad9012460001b6155a5565b60005b8151811015610d5e57610be37fdccf07cc23be5d556fec7289dda66fdb70f691b0550d1ab77dcd6385a134295260001b6155a5565b610c0f7f293d1b8e514aed002ac43114f179820b4d20ecf111fcda5ba1ddf8a1d4fd701360001b6155a5565b8888604051610c1f9291906180f0565b6040518091039020828481518110610c60577f4e487b7100000000000000000000000000000000000000000000000000000000600052603260045260246000fd5b602002602001015160000151805190602001201415610ce457610ca57fbd62002383adeb0663dda15651b583ceb75c31561bb4014600c6388cfb4e6c1160001b6155a5565b610cd17fa677b725f6be7b89822010326718f8b04b384ed39cd4acd1de5a05218d3d969b60001b6155a5565b8580610cdc90618621565b965050610d11565b610d107f5e82ca6b665b43698f6687d164b5fd65646218df52d4cdbddadfdf681904bda760001b6155a5565b5b610d3d7f4023bf8ca586aac5e8fa32987e693e794009eb7007a770eda00663978fdc55f760001b6155a5565b8380610d4890618621565b9450508080610d5690618621565b915050610bae565b50508080610d6b90618621565b9150506108a8565b50610da07fae7ccc1238d9cfcdc30bdfeb1701795f9dd3e3981b992d51960891e3ce41cce960001b6155a5565b610dcc7f84024e72152ddd30f2941ab6ee536c897013e60b83718fd844f71b1191c56cee60001b6155a5565b8293505050509392505050565b60026000541415610e1f576040517f08c379a0000000000000000000000000000000000000000000000000000000008152600401610e169061827b565b60405180910390fd5b6002600081905550610e537f296b5783d6ff777135c28b98e79cd24d43c079525731f443393d617226c5b87c60001b6155a5565b610e7f7fef02c3b67aa5d08584849f107cf97e6c3ada43d270be1bca098c41bedfb968a860001b6155a5565b610eab7f68b6027d5a4d26751c5d13eba0dddc938f57c42fc5130c3e62ba96e8cadf7e7e60001b6155a5565b610ed77fe96c886f6b94afab86a0e0290fa338e96c54a0bc32be917217bcb28d530bd85f60001b6155a5565b8151835114610f1b576040517f08c379a0000000000000000000000000000000000000000000000000000000008152600401610f129061825b565b60405180910390fd5b610f467ed6ed4f3c73c35d46b88b7019cd55124c435deec0c865abc8d5c317a13bdb0660001b6155a5565b610f727ff9039e7dbb7b77d595e9c9d09c377f7e73b020161aa29f070586a3c97e2abcfb60001b6155a5565b610f9e7f21f8dec86290a3056d9e7a6c588256a6125d28570e5fa65300777722813c041660001b6155a5565b610fca7f38c2a31ef7b734bf42835ed23c15e462e09c7689ea38bc8c4e8a715a9cba9c9460001b6155a5565b805183511461100e576040517f08c379a00000000000000000000000000000000000000000000000000000000081526004016110059061821b565b60405180910390fd5b61103a7fffe54561b2c5d37547a8e9c0b6b009e124428530f2b35bed4f022b926d21e8ba60001b6155a5565b6110667f1e1a64e0b6f9bab8804c69150287cbe726c180a6e2a9f15fa64725d4d9b592d960001b6155a5565b6110927ff25a26209f84b743e5750f858c904182f369c13d49286e309da4db17d4e454e660001b6155a5565b60005b83518110156111d6576110ca7f6d5d93d4d666f39e3635f878ab1d6b1cdab1badf6f0133eb352306d3544c59f660001b6155a5565b6110f67f7d29e25132a85bad7441588a2552c5e5ad3acf709ed817a11fa51cf14958f45d60001b6155a5565b6111c3848281518110611132577f4e487b7100000000000000000000000000000000000000000000000000000000600052603260045260246000fd5b6020026020010151848381518110611173577f4e487b7100000000000000000000000000000000000000000000000000000000600052603260045260246000fd5b602002602001015160018585815181106111b6577f4e487b7100000000000000000000000000000000000000000000000000000000600052603260045260246000fd5b60200260200101516155a8565b80806111ce90618621565b915050611095565b506001600081905550505050565b60606112127f222bd5c3c60b207bc6c93b63f280df1d8ee0664faf2a65ba10d7e6aa8d227a2360001b6155a5565b61123e7f33b970841f2c6fe739b21d5ed337b01d15d67cc56029fe918b7d6f22b0a7ed0360001b6155a5565b61126a7f8b9cb3ed2ca9416564be271b8f4bf006a0d89318c8bd24a118e84bd99965b9bc60001b6155a5565b60006112987ff86d9ceb90330b5f7e16f3c0962294212eec37ce00968674754ec3d970eb6f1a60001b6155a5565b6112c47fda89b3d1a6820ee970a17fad959eff2d092cb4846605dca04076ca5cbb0b7d6060001b6155a5565b6000600260003373ffffffffffffffffffffffffffffffffffffffff1673ffffffffffffffffffffffffffffffffffffffff16815260200190815260200160002080548060200260200160405190810160405280929190818152602001828054801561134f57602002820191906000526020600020905b81548152602001906001019080831161133b575b505050505090506113827fc8feee1751f6bd166cc8d5d2ac1e82978364641fb2ba44784c2350763b51ee5f60001b6155a5565b6113ae7fef6a6c6ccabb67335437eda9e43c5cd482a052c201319992c63cd3cc3a27ec3460001b6155a5565b60005b8151811015611489576113e67fcc4910ac7340514801008b98f4376365b8d6d25ea47f3cccf702f41c980c254960001b6155a5565b6114127fdbaff91b5484fb8608ed4763a9380d51863bc0eecb837cf71173bbadbbb5e7d160001b6155a5565b6001600083838151811061144f577f4e487b7100000000000000000000000000000000000000000000000000000000600052603260045260246000fd5b602002602001015181526020019081526020016000208054905083611474919061848b565b9250808061148190618621565b9150506113b1565b506114b67f8cad4bccaca425f2b174b1cbce0578b2dc73d0ab62f36378af4c4b3c7eb0422d60001b6155a5565b6114e27ffb7d4dc8a90eeb933b8ac1088ed842e98fdd6b086eb93e30033834b0ec16075660001b6155a5565b60008267ffffffffffffffff811115611524577f4e487b7100000000000000000000000000000000000000000000000000000000600052604160045260246000fd5b60405190808252806020026020018201604052801561155d57816020015b61154a6175fb565b8152602001906001900390816115425790505b50905061158c7fc6bbae8d0e656826d22a164dbc7a632558db9d4b02b991e82725ea8e867d4c4660001b6155a5565b6115b87f44908b0f88c5bee1a78ced16e0d2c87b30fd133e047051d8523af19fad108ff860001b6155a5565b60006115e67f3d18168eda3d8e2ad718873b04ed6f0194beabeca9efd009f33b4c73b4a7263160001b6155a5565b6116127f62a415ca574ccc183f19407b64765f21778a9c989d771fdfd74cd3a5049b447460001b6155a5565b60005b8351811015611a635761164a7f89345c7a548d73c339a626ae9047f2993f511fa726f73460df044523c7cd437460001b6155a5565b6116767fe8d122382add2474332ddbe6c087227525da81175f64697b2c27a0d390d2977b60001b6155a5565b6000600160008684815181106116b5577f4e487b7100000000000000000000000000000000000000000000000000000000600052603260045260246000fd5b60200260200101518152602001908152602001600020805480602002602001604051908101604052809291908181526020016000905b828210156118ba57838290600052602060002090600402016040518060e001604052908160008201805461171e906185be565b80601f016020809104026020016040519081016040528092919081815260200182805461174a906185be565b80156117975780601f1061176c57610100808354040283529160200191611797565b820191906000526020600020905b81548152906001019060200180831161177a57829003601f168201915b50505050508152602001600182015481526020016002820160009054906101000a900473ffffffffffffffffffffffffffffffffffffffff1673ffffffffffffffffffffffffffffffffffffffff1673ffffffffffffffffffffffffffffffffffffffff1681526020016003820160009054906101000a900473ffffffffffffffffffffffffffffffffffffffff1673ffffffffffffffffffffffffffffffffffffffff1673ffffffffffffffffffffffffffffffffffffffff1681526020016003820160149054906101000a900460ff1660ff1660ff1681526020016003820160159054906101000a900460ff1660ff1660ff1681526020016003820160169054906101000a900460ff161515151581525050815260200190600101906116eb565b5050505090506118ec7f668b9123dd0b448d32735793c50501fdc32929b0ab69e8647df6e34fba14a85560001b6155a5565b6119187f54357b50e80713e1d685c2410e34d8d0d8e09e44e1d9aa9afe54733dedb16ce060001b6155a5565b60005b8151811015611a4e576119507f3b7c8caf3be9495e437ab2ba73df0960d5cafb8ee4c0872ec69608e5966b2d5a60001b6155a5565b61197c7f8e4333b1ac747524b764f899ec7735b80b61936e212e9f79ed1d9e3c8043cb1460001b6155a5565b8181815181106119b5577f4e487b7100000000000000000000000000000000000000000000000000000000600052603260045260246000fd5b60200260200101518585815181106119f6577f4e487b7100000000000000000000000000000000000000000000000000000000600052603260045260246000fd5b6020026020010181905250611a2d7fd84097bb7149014cce2b20c00cef04dc650f81775e4b6c72587f38079d2c53a660001b6155a5565b8380611a3890618621565b9450508080611a4690618621565b91505061191b565b50508080611a5b90618621565b915050611615565b50611a907fd308b0e293211ab0619236057f02623dab12e7c538bea8c6862fef543c584fa960001b6155a5565b611abc7f1713012f2938473c6dbe0565ea0f85e007f54a310e159f8669806d1942e8cba760001b6155a5565b8194505050505090565b6060611af47fad6206ed1d944fc8b49676225681a4d9508db11ba396257151ff180142a0dee760001b6155a5565b611b207f72768c1c3cc5cf295218e11fcffa4fe188a35521f6bcecbead1b51c870144d3160001b6155a5565b611b4c7fa641166883bde9c6ba5df2c7bda4548341969a924594496e7bf99f04c25d79f960001b6155a5565b6000611b7a7f11e7c5ddc2e68d6295c097688e70f297d26f759edbe7663358ba3c8be968379e60001b6155a5565b611ba67fc33871c901941bd26759eca95eb78e139f3c141e776f942c7e675ad232ea244660001b6155a5565b6000600360003373ffffffffffffffffffffffffffffffffffffffff1673ffffffffffffffffffffffffffffffffffffffff168152602001908152602001600020805480602002602001604051908101604052809291908181526020018280548015611c3157602002820191906000526020600020905b815481526020019060010190808311611c1d575b50505050509050611c647f65a41dca29515285f7d4a73a90c5bfd547a71558564e9ea13ed9c93466de43a960001b6155a5565b611c907f69db9f7d211010a0508bfe8a3abd855fd1c1aea0f6a2b57146afdb1a4972a71e60001b6155a5565b6000611cbe7f4842ff640c4e8bec22eca7e262628d247a28ea3fca6ace094a971e51166e1fe260001b6155a5565b611cea7f257f3bd7522fc4e213d06b629efff15c1910e8da4b4557595d82766293b0d9ac60001b6155a5565b60005b825181101561215e57611d227fc2a385ced33ea3fe95b10490bf40eca58778813cd41cc8e3f97b4dbd84d2bd4960001b6155a5565b611d4e7f4fa699d483984876d1e2a3a8853228353221b0088119c6b88068a047f2d5744560001b6155a5565b600060016000858481518110611d8d577f4e487b7100000000000000000000000000000000000000000000000000000000600052603260045260246000fd5b60200260200101518152602001908152602001600020805480602002602001604051908101604052809291908181526020016000905b82821015611f9257838290600052602060002090600402016040518060e0016040529081600082018054611df6906185be565b80601f0160208091040260200160405190810160405280929190818152602001828054611e22906185be565b8015611e6f5780601f10611e4457610100808354040283529160200191611e6f565b820191906000526020600020905b815481529060010190602001808311611e5257829003601f168201915b50505050508152602001600182015481526020016002820160009054906101000a900473ffffffffffffffffffffffffffffffffffffffff1673ffffffffffffffffffffffffffffffffffffffff1673ffffffffffffffffffffffffffffffffffffffff1681526020016003820160009054906101000a900473ffffffffffffffffffffffffffffffffffffffff1673ffffffffffffffffffffffffffffffffffffffff1673ffffffffffffffffffffffffffffffffffffffff1681526020016003820160149054906101000a900460ff1660ff1660ff1681526020016003820160159054906101000a900460ff1660ff1660ff1681526020016003820160169054906101000a900460ff16151515158152505081526020019060010190611dc3565b505050509050611fc47f2e5aadbab38b4ad138ff95cd1314e48eb1ce2ffcb88bd7474e840d348cd217c560001b6155a5565b611ff07fc6188a527919ed1692de0f11b858f63480c26c58d0c97316badeccccf95f1ecc60001b6155a5565b60005b8151811015612149576120287f4137c928fa73878f4eac334003fcee907b8d51ca50cc787a3f854eba75e0ab9160001b6155a5565b6120547ffb51f2a388472d861b8957a7fe78496b4a8f771c31f60c8c93ca62085d79844760001b6155a5565b81818151811061208d577f4e487b7100000000000000000000000000000000000000000000000000000000600052603260045260246000fd5b602002602001015160c0015115612109576120ca7f57c0d03956a5aa0419bd7753bcb87b13fcf5a4932e6d81f3ec4d165c5114141f60001b6155a5565b6120f67f159957f85714e751ecb111f2bed780b88b53d348eec47132e6010a89f94428f760001b6155a5565b858061210190618621565b965050612136565b6121357f2c7a536a10b4ea5449aa2a553d0fc09f7f6b102cf963b5fe066a8b817de8b6f360001b6155a5565b5b808061214190618621565b915050611ff3565b5050808061215690618621565b915050611ced565b5061218b7ff8ee68f24503fec4497a9ac0c120b2bc89ed7dfedd2aa7c567cf60424e6104c860001b6155a5565b6121b77fcd71eb1c75989473a9b68cbe8da397f3c7432360cdd4e5dd35ae4412ad6471d360001b6155a5565b60008367ffffffffffffffff8111156121f9577f4e487b7100000000000000000000000000000000000000000000000000000000600052604160045260246000fd5b60405190808252806020026020018201604052801561223257816020015b61221f6175fb565b8152602001906001900390816122175790505b5090506122617fbdccc5d7f87e296b249c97a33cb8ec5d7df3d8081d356d5b45a37b48b98f037d60001b6155a5565b61228d7ffde27b7f3517e798add8a57c171d8be4a17c74de0c25e18a6bee3726b570bf7160001b6155a5565b60005b83518110156127de576122c57f4b093ba129723397d09862c5b7828dcce34dea49a29f9851d0a3072f97e0341a60001b6155a5565b6122f17f01dd144b7bc76e89f8390e4538b78676df4462a11bc9b922c3e7aa7ff11e49e660001b6155a5565b600060016000868481518110612330577f4e487b7100000000000000000000000000000000000000000000000000000000600052603260045260246000fd5b60200260200101518152602001908152602001600020805480602002602001604051908101604052809291908181526020016000905b8282101561253557838290600052602060002090600402016040518060e0016040529081600082018054612399906185be565b80601f01602080910402602001604051908101604052809291908181526020018280546123c5906185be565b80156124125780601f106123e757610100808354040283529160200191612412565b820191906000526020600020905b8154815290600101906020018083116123f557829003601f168201915b50505050508152602001600182015481526020016002820160009054906101000a900473ffffffffffffffffffffffffffffffffffffffff1673ffffffffffffffffffffffffffffffffffffffff1673ffffffffffffffffffffffffffffffffffffffff1681526020016003820160009054906101000a900473ffffffffffffffffffffffffffffffffffffffff1673ffffffffffffffffffffffffffffffffffffffff1673ffffffffffffffffffffffffffffffffffffffff1681526020016003820160149054906101000a900460ff1660ff1660ff1681526020016003820160159054906101000a900460ff1660ff1660ff1681526020016003820160169054906101000a900460ff16151515158152505081526020019060010190612366565b5050505090506125677f1d25a4572e5b43e6ad13e6aef2a77ab8cfc84a45df00a57970d2294be4473dbf60001b6155a5565b6125937fd044879869dd767d40ada8e5d04c491e4f6a09184b6da47bf82cc0660b0925f260001b6155a5565b60005b81518110156127c9576125cb7fd8688389a6d2749bebe5c9b05535ff01c22e2360e9f66f80f2eaffd1f2e8bcfd60001b6155a5565b6125f77fc160eddd79bcc37b560f1f48cf5891ef581023c46028421b890af30e521d6ec360001b6155a5565b818181518110612630577f4e487b7100000000000000000000000000000000000000000000000000000000600052603260045260246000fd5b602002602001015160c00151156127895761266d7f6be84b3aac49dec470303b652c19738f59fee74fd80e9f262991a013e5dd368860001b6155a5565b6126997fb4cce98b5a4c3ed3972aed5cb02600605c32c4a439b5f6a403ac9d2580fe905e60001b6155a5565b6126c57f885ea0ffd9d8c5b0f2bcf4198c35b566f9db76fc97e7e0db303f5fc22f18497560001b6155a5565b8181815181106126fe577f4e487b7100000000000000000000000000000000000000000000000000000000600052603260045260246000fd5b602002602001015184868151811061273f577f4e487b7100000000000000000000000000000000000000000000000000000000600052603260045260246000fd5b60200260200101819052506127767f4bd4688547bfbd4a4e034dd8a99df8c9e1341893c110a9fdb299a4756e9a31ef60001b6155a5565b848061278190618621565b9550506127b6565b6127b57fcd3566958c7f42143eb53afe51bee3766e338394ed7aaa6f1d3613cabfe9cd8260001b6155a5565b5b80806127c190618621565b915050612596565b505080806127d690618621565b915050612290565b5061280b7f9d37c55cfd143ffd9646690a068637aa5574c3967df72cdfeba69a734b00279c60001b6155a5565b6128377fe52d950f7baa7e7cc9822ac0f9b0da8d1625ca2139bd9e49e3c127c0facaff3860001b6155a5565b8094505050505090565b606061286f7f8f836ace9f16af12100566a1bb15a8bd46a7cc3e3c96f7edf84ef77ad9e45d6b60001b6155a5565b61289b7f47936fee125bfe93da8e14a79c72441835628bdd1edb497cd38a5797947803f960001b6155a5565b6128c77fbe20d91755cc0a7875a492a5ad5ee4395c711990d9a2cee81bf0f526c473543d60001b6155a5565b60006128f57f734f758d8f8c9f4e05d69b291d4c87862a31d008f5d7d2983c65b7c08a8fcae460001b6155a5565b6129217f9a10f36028b814bfd210594b9f4f446554fd1db55b0a9230bb4aec4ed157107660001b6155a5565b6000600360003373ffffffffffffffffffffffffffffffffffffffff1673ffffffffffffffffffffffffffffffffffffffff1681526020019081526020016000208054806020026020016040519081016040528092919081815260200182805480156129ac57602002820191906000526020600020905b815481526020019060010190808311612998575b505050505090506129df7f6900b700b10c8059b800c61bb5f0a4760084f1a523e344bbf9e8c22511fa72cf60001b6155a5565b612a0b7f074275c4a970010ed2994c08e872a9343da3d950847ea6bd21b921cd4258757060001b6155a5565b60005b8151811015612ae657612a437f3d2dd2fcdefc969b4c256cf01804ccb632d9c41762a0b0afb721c6354fe7ad6560001b6155a5565b612a6f7fd2da66384332bc26d5e13f61e41cf56c19b09c4df9be80dbd3e616e1085c3ab960001b6155a5565b60016000838381518110612aac577f4e487b7100000000000000000000000000000000000000000000000000000000600052603260045260246000fd5b602002602001015181526020019081526020016000208054905083612ad1919061848b565b92508080612ade90618621565b915050612a0e565b50612b137fb5e67bfa225c8d1c79d21dc7209fadc562d0fc584154d9ac52f7546bcdba2b3960001b6155a5565b612b3f7f06707e0ba162d204714adb92118fddaf7e34eea61c8791b8b8d290574da6e58b60001b6155a5565b60008267ffffffffffffffff811115612b81577f4e487b7100000000000000000000000000000000000000000000000000000000600052604160045260246000fd5b604051908082528060200260200182016040528015612bba57816020015b612ba76175fb565b815260200190600190039081612b9f5790505b509050612be97f84e8d720bd40d7ccf8b0efdbec8131eb1209e1b238bb32e57787b93e06a2324b60001b6155a5565b612c157fce06d370584663254270c9f2f07e920e321d01582c9b7ce5c553ea839f3eed7860001b6155a5565b6000612c437f7db7c1d2d8114cbbf223dcfba533c9b05d474b8edaf6b93c8db7c966299743c060001b6155a5565b612c6f7f9b0e063fd8edd5c792d59f8bac934ef756337e86e2f8c0a71eb1ecd3e3a72aab60001b6155a5565b60005b83518110156130c057612ca77f65ebc68c04f854b76e1956929d07bc2cde8ea1951eb9ee6fdf4cc3cc17d848ed60001b6155a5565b612cd37f5559521831722fbf24c439d3a5a639ec36292d6298640fdd2f0ae082e47f55a260001b6155a5565b600060016000868481518110612d12577f4e487b7100000000000000000000000000000000000000000000000000000000600052603260045260246000fd5b60200260200101518152602001908152602001600020805480602002602001604051908101604052809291908181526020016000905b82821015612f1757838290600052602060002090600402016040518060e0016040529081600082018054612d7b906185be565b80601f0160208091040260200160405190810160405280929190818152602001828054612da7906185be565b8015612df45780601f10612dc957610100808354040283529160200191612df4565b820191906000526020600020905b815481529060010190602001808311612dd757829003601f168201915b50505050508152602001600182015481526020016002820160009054906101000a900473ffffffffffffffffffffffffffffffffffffffff1673ffffffffffffffffffffffffffffffffffffffff1673ffffffffffffffffffffffffffffffffffffffff1681526020016003820160009054906101000a900473ffffffffffffffffffffffffffffffffffffffff1673ffffffffffffffffffffffffffffffffffffffff1673ffffffffffffffffffffffffffffffffffffffff1681526020016003820160149054906101000a900460ff1660ff1660ff1681526020016003820160159054906101000a900460ff1660ff1660ff1681526020016003820160169054906101000a900460ff16151515158152505081526020019060010190612d48565b505050509050612f497f9527a8974c33d6d4bb4f55d041ba131ede4d899466e087a03132e41217d9cd3260001b6155a5565b612f757f7a03cb84e8651c1563291dbec1969f8ef760d6567fa70a0de923a0d5f4203d8460001b6155a5565b60005b81518110156130ab57612fad7f7f55289962b2a920cbcb7a2739bfa47910b3a04cfa97a565f82c6b89c240f8a260001b6155a5565b612fd97f58a9495b12b90e23bc6227ef5d2873565bc33379c80c57122bdf06e79c51526d60001b6155a5565b818181518110613012577f4e487b7100000000000000000000000000000000000000000000000000000000600052603260045260246000fd5b6020026020010151858581518110613053577f4e487b7100000000000000000000000000000000000000000000000000000000600052603260045260246000fd5b602002602001018190525061308a7f71840e5e01b7b978014869a332b1147b036955469c3a5dfc4c6144eaba278fdc60001b6155a5565b838061309590618621565b94505080806130a390618621565b915050612f78565b505080806130b890618621565b915050612c72565b506130ed7f05dc11c95ba7355164c5ee96b3bce3ce8794a72cfe432d605e5ec8c8a4b6412c60001b6155a5565b6131197fce631827f523dee1c0d90cc3bb88f04ea89caea28fec6a0317576739b31b43be60001b6155a5565b8194505050505090565b60048054613130906185be565b80601f016020809104026020016040519081016040528092919081815260200182805461315c906185be565b80156131a95780601f1061317e576101008083540402835291602001916131a9565b820191906000526020600020905b81548152906001019060200180831161318c57829003601f168201915b505050505081565b60606131df7f63276596c358bd1154b1ccbc35c3bb881e337671a79d5ff41f0cc509be6fa8db60001b6155a5565b61320b7fd47552340fcd501acea69f4472e1f5c554d91cd3c29a8cabfdba34e2afb90da960001b6155a5565b6132377fdb0b76a0dce10b2c616aa1471cd7e36a8bca49a227c1fa3ff435fca911a3078760001b6155a5565b60006132657fd1716a729a89f69d72600f9179565b94f6a653437de7494ac79f6e267a4eb9e360001b6155a5565b6132917fd1a4b36a0259ba81d9df120e50dedfa0ca8f2ce16591750f9a8b52cecf3cf78360001b6155a5565b6000600260003373ffffffffffffffffffffffffffffffffffffffff1673ffffffffffffffffffffffffffffffffffffffff16815260200190815260200160002080548060200260200160405190810160405280929190818152602001828054801561331c57602002820191906000526020600020905b815481526020019060010190808311613308575b5050505050905061334f7f0513a72309a2a8d7a8094c5887b6fb62b8c25db21579393274f45e9133cd0d2e60001b6155a5565b61337b7f113afc036953b4909e0635f0741a0bf8fe4b5ef556a78795c768ca79ef77066860001b6155a5565b60006133a97f0ecda4a5019fa6f29cc5817d8c535c33fc1b0912763a43ae059b49910297297860001b6155a5565b6133d57f88e63cf5e013c950455c818379506489606dd0b9ebda5af3a3630ca0d877e2e560001b6155a5565b60005b82518110156138495761340d7f18bf3c9e77bc5454590b39419fd6a0afe4342be7be03fb33e5541b993a0a6cbb60001b6155a5565b6134397fc149372d9057fc7505c5a5c907fe0aadf90e0232a921f7eb32698a7b5eb070f460001b6155a5565b600060016000858481518110613478577f4e487b7100000000000000000000000000000000000000000000000000000000600052603260045260246000fd5b60200260200101518152602001908152602001600020805480602002602001604051908101604052809291908181526020016000905b8282101561367d57838290600052602060002090600402016040518060e00160405290816000820180546134e1906185be565b80601f016020809104026020016040519081016040528092919081815260200182805461350d906185be565b801561355a5780601f1061352f5761010080835404028352916020019161355a565b820191906000526020600020905b81548152906001019060200180831161353d57829003601f168201915b50505050508152602001600182015481526020016002820160009054906101000a900473ffffffffffffffffffffffffffffffffffffffff1673ffffffffffffffffffffffffffffffffffffffff1673ffffffffffffffffffffffffffffffffffffffff1681526020016003820160009054906101000a900473ffffffffffffffffffffffffffffffffffffffff1673ffffffffffffffffffffffffffffffffffffffff1673ffffffffffffffffffffffffffffffffffffffff1681526020016003820160149054906101000a900460ff1660ff1660ff1681526020016003820160159054906101000a900460ff1660ff1660ff1681526020016003820160169054906101000a900460ff161515151581525050815260200190600101906134ae565b5050505090506136af7f36012d30e5c326b8aed1ecfc279d035a2897e9a0e74e3aed9665342626bc187460001b6155a5565b6136db7fd9d9676a3042bb24e4bb5a1984897329c83b813593707a98ef107dc8ab143d3360001b6155a5565b60005b8151811015613834576137137f5d0b16690b569389ac46dea954d4b9ae434e965706654b262ff5d38eb0a4b03160001b6155a5565b61373f7f488569a5d444a81a1c6b456542bdfed94ee03c62550e7e63389ffe33ee2f4a1c60001b6155a5565b818181518110613778577f4e487b7100000000000000000000000000000000000000000000000000000000600052603260045260246000fd5b602002602001015160c00151156137f4576137b57f7833acc5163c711ed8e8aae2896ae961f2858b87843023654ae70398059e404b60001b6155a5565b6137e17fe47c97f4fd576bbcebb9d31be91a11ac896889a6984added6cc8ed77c3152e0060001b6155a5565b85806137ec90618621565b965050613821565b6138207f90b9d60c0ea7578eea449e74c7d014bd0b6b11defd0ae16bdf2507f786ac44dc60001b6155a5565b5b808061382c90618621565b9150506136de565b5050808061384190618621565b9150506133d8565b506138767f40663ee4f026a9ab72187dfcbeb95f6e3d3a0170da79b6da2b8b871a3121d15c60001b6155a5565b6138a27fd3010ca31cce6cc98c76621550ed8bd91b1f600d9dfa066b7d9753de1f4a563460001b6155a5565b60008367ffffffffffffffff8111156138e4577f4e487b7100000000000000000000000000000000000000000000000000000000600052604160045260246000fd5b60405190808252806020026020018201604052801561391d57816020015b61390a6175fb565b8152602001906001900390816139025790505b50905061394c7f33837f06265691ac687b790a025204a4bbe6a7093869e3db920f4a6c2072315360001b6155a5565b6139787f678f83765ee733af44f468743ec19c50b610673853f2c9a3d5631938d6911f8760001b6155a5565b60005b8351811015613ec9576139b07f01aa34b85bd9593cdc34396d826594fb9a227cd27d4b3e9caf29dfde36ebc8cb60001b6155a5565b6139dc7f7b240bef50087b5f39e892384410ec7e595bc55541f465150e660e25db992c4260001b6155a5565b600060016000868481518110613a1b577f4e487b7100000000000000000000000000000000000000000000000000000000600052603260045260246000fd5b60200260200101518152602001908152602001600020805480602002602001604051908101604052809291908181526020016000905b82821015613c2057838290600052602060002090600402016040518060e0016040529081600082018054613a84906185be565b80601f0160208091040260200160405190810160405280929190818152602001828054613ab0906185be565b8015613afd5780601f10613ad257610100808354040283529160200191613afd565b820191906000526020600020905b815481529060010190602001808311613ae057829003601f168201915b50505050508152602001600182015481526020016002820160009054906101000a900473ffffffffffffffffffffffffffffffffffffffff1673ffffffffffffffffffffffffffffffffffffffff1673ffffffffffffffffffffffffffffffffffffffff1681526020016003820160009054906101000a900473ffffffffffffffffffffffffffffffffffffffff1673ffffffffffffffffffffffffffffffffffffffff1673ffffffffffffffffffffffffffffffffffffffff1681526020016003820160149054906101000a900460ff1660ff1660ff1681526020016003820160159054906101000a900460ff1660ff1660ff1681526020016003820160169054906101000a900460ff16151515158152505081526020019060010190613a51565b505050509050613c527f45d0e05ef3545c939bb4bbec5b129ea892640b193835c3521dcc298d064b67ff60001b6155a5565b613c7e7f29ac35bb54bb3a6cd2bb183cdd5551811c6760a50bff6d144ab64551e93e2c6960001b6155a5565b60005b8151811015613eb457613cb67fbd6bf9f362ddfc8ded0d0271dbbf6052fab03969af91163e89c842a669ead3f560001b6155a5565b613ce27fc5eb8b1f93279b9ddceac691834f8d7d3ffcde19d6c46248df268b9d8eff797260001b6155a5565b818181518110613d1b577f4e487b7100000000000000000000000000000000000000000000000000000000600052603260045260246000fd5b602002602001015160c0015115613e7457613d587f60b82b93ca2b285b36f1c21cf2071c908fa9f2a5fc3ff2a3777f7f09daf01a4a60001b6155a5565b613d847f48d8b01496cbbaf52ae2fa84c9a829a9cf90666fc4e858c6473fe3520919807060001b6155a5565b613db07f804b86cdb370fd74d72bece4aaacdcbb9d0217463b54eaa37520c0d11dfa757860001b6155a5565b818181518110613de9577f4e487b7100000000000000000000000000000000000000000000000000000000600052603260045260246000fd5b6020026020010151848681518110613e2a577f4e487b7100000000000000000000000000000000000000000000000000000000600052603260045260246000fd5b6020026020010181905250613e617fc599e9f8c7b3fffc6c6a3e5406de671c75ecc78de6cd64bca191cb1123a9daf260001b6155a5565b8480613e6c90618621565b955050613ea1565b613ea07f2e5ac1126f2af602ceab1d5aaa0f92e76ce7002d565eeea08a16e78692da5e4860001b6155a5565b5b8080613eac90618621565b915050613c81565b50508080613ec190618621565b91505061397b565b50613ef67fa5689d8cff4a9e4ae641dad46297d32ec284015c6bdfe3885352edf9891ec03860001b6155a5565b613f227f0da1717149ca941f2633ca94680e7b3bd909a08319b2ca99cf99673b1c0edc1560001b6155a5565b8094505050505090565b60026000541415613f72576040517f08c379a0000000000000000000000000000000000000000000000000000000008152600401613f699061827b565b60405180910390fd5b6002600081905550613fa67fe4ca7d1344cb3de64511a104ef3f975484959d7bae8c0b2aef6ba92b08e3bf2a60001b6155a5565b613fd27fb9e5ded4758982dbbe00a37d7edbc8a9e823fe5950566a60a2774bc8c40d881b60001b6155a5565b613ffe7f89ec7b5d6bb858108c2d4fabd59e19299dce1d5a7c1a73ef425c7aa01c38446360001b6155a5565b61402a7fd0a816930603fb3a680490dee0f10fb1c2ec964e4492f407a5d00a07f9014f7560001b6155a5565b815183511461406e576040517f08c379a0000000000000000000000000000000000000000000000000000000008152600401614065906181db565b60405180910390fd5b61409a7f216c06d339af1fe21290b7a9b37a4e4656f8d8006c9a4323cc87377f1fa5253a60001b6155a5565b6140c67f3bb2f83bc0c17a6137ca255e10f3484619c3cae4af4cfb44b762ef085a0d98be60001b6155a5565b6140f27f7ebcbb5cf2f8762a3b999f93e8eef249d224483017b2ef5c20a9206b739ec7e960001b6155a5565b60003490506141237fc43178b6b68b23d247436e7543013cf3a8168bb4e5a06e7c1c236714ca87ab6960001b6155a5565b61414f7fd85d814eb6f97f3d4c903ab01bdd88c27209709aad20258f1747d244877d162760001b6155a5565b60003490506141807f75a6c25dfbd8c8c6fc43eb5a11096034f8a172bc81243124188edbe327cbdad760001b6155a5565b6141ac7f14c8814a49fea40f942df7e75f29dcf3d2082892e5c0fd2b0321dcd67f86c23260001b6155a5565b60005b8551811015614ceb576141e47f16563cd738c0536a8035e24e6803fd8b967248ba15d3c3e7404774999e517a6e60001b6155a5565b6142107fae1f12ef2098e13e4b96551839865bec433bbad9694e54da39a487e292d0a85960001b6155a5565b61423c7feb8d9bc145985444be2308fb932bb65d1d961da4ff318c0efaa2e4ee337548ab60001b6155a5565b848181518110614275577f4e487b7100000000000000000000000000000000000000000000000000000000600052603260045260246000fd5b60200260200101518210156142bf576040517f08c379a00000000000000000000000000000000000000000000000000000000081526004016142b6906181bb565b60405180910390fd5b6142eb7f78e9b43f2eb3d84d3129049f3b51f51310c87fcb9b56d49aec97930b5bcf652e60001b6155a5565b6143177fa5afbe5b74af0a7398e583d8a07e66c68500fd4bae70f467f49a5adbdd15562e60001b6155a5565b6143437f8b0d74648df624ca7d4b47fcd16e459b254775bfbb387097e614fce4099b236360001b6155a5565b84818151811061437c577f4e487b7100000000000000000000000000000000000000000000000000000000600052603260045260246000fd5b60200260200101518261438f91906184e1565b91506143bd7fba521e97adba263f57ca0b67fec7519b76b2703ae24177c0ad99b2927a7bed0a60001b6155a5565b6143e97f7e7732563b0555388341742316d7e774ba8274a40c3b64e21ec57740c93dc14660001b6155a5565b6143f16175fb565b61441d7f6c783e909c09e578e42e0552e5e747992a85393c2da6f04292fc9e48dd66297760001b6155a5565b6144497f2819975c4b6aaf9bf615dfc3e1e6036d6dd5692ee2f013289d22115ee3c50a3e60001b6155a5565b33816040019073ffffffffffffffffffffffffffffffffffffffff16908173ffffffffffffffffffffffffffffffffffffffff16815250506144ad7f2a827d34bf1695d6984effd232f01396735bbe4e6902937f35867c41b0ab8c0b60001b6155a5565b6144d97f5c3689dc7d4c4d092da08247b8c33ef8d3461345eb406148ab89e4e06189d37960001b6155a5565b868281518110614512577f4e487b7100000000000000000000000000000000000000000000000000000000600052603260045260246000fd5b6020026020010151816060019073ffffffffffffffffffffffffffffffffffffffff16908173ffffffffffffffffffffffffffffffffffffffff168152505061457d7f89fa96a3b4f1bc915d13dd6d6aa930d877f86f68aaadadf0da7af14bfd6af6c960001b6155a5565b6145a97f45bc537c8142bc77490b94ab3baf00dca3395881a78ad2706d8c0b6395d7d97060001b6155a5565b60018160a0019060ff16908160ff16815250506145e87f4e993a250feb410e43e54657ead082d7afeb15da55ab1e8003195936925dd55460001b6155a5565b6146147f76a698951d2f0589b4a1b8cd97cc1471d1eedea4345582d2174a35cd72db144260001b6155a5565b6000816080019060ff16908160ff16815250506146537f428ba52e3191617290e9e2c9de1d51d220d542a8591c3f926b9ef7d8eb8c36e960001b6155a5565b61467f7f890b3f539efcfb1826291e772e3c422900469b05869eabf7ba258329933aab3760001b6155a5565b8582815181106146b8577f4e487b7100000000000000000000000000000000000000000000000000000000600052603260045260246000fd5b60200260200101518160200181815250506146f57f9b2fd3f30f4c2553165a82df8c546e6685c457072d753c9f89ebbbefa534310660001b6155a5565b6147217ff39d1afa5322f0c9315a9384a89edcee160eb9381921b67c9dcb7cb2229556e360001b6155a5565b84828151811061475a577f4e487b7100000000000000000000000000000000000000000000000000000000600052603260045260246000fd5b602002602001015181600001819052506147967f93f63b7d8f453acd3e3c7fc48135f41ca9ac56139240a1629347e4712b8e6d6e60001b6155a5565b6147c27f926c405000f4b941695fb53a0602755d8d6067f3178f62f24cda165b299246ea60001b6155a5565b60018160c00190151590811515815250506147ff7f3d6e390250b25172f55c5c80cd52d5f6e51836980978f96811a728a7ce5c5ddc60001b6155a5565b61482b7f1d6cfd7c74f91907e625b6c0bcc56d64313eb40de74806e9b312f6faec24ad7460001b6155a5565b600033888481518110614867577f4e487b7100000000000000000000000000000000000000000000000000000000600052603260045260246000fd5b60200260200101516040516020016148809291906180c4565b6040516020818303038152906040528051906020012090506148c47f6bf082f63849c31b4c8c3b4473eaa119d0561d658bd8369183edca56da4abc5060001b6155a5565b6148f07f0987b899e26724efd03f435e3d6070a33bb9fcb90f4438d8b72541dbc8c4712160001b6155a5565b60016000828152602001908152602001600020829080600181540180825580915050600190039060005260206000209060040201600090919091909150600082015181600001908051906020019061494992919061766c565b506020820151816001015560408201518160020160006101000a81548173ffffffffffffffffffffffffffffffffffffffff021916908373ffffffffffffffffffffffffffffffffffffffff16021790555060608201518160030160006101000a81548173ffffffffffffffffffffffffffffffffffffffff021916908373ffffffffffffffffffffffffffffffffffffffff16021790555060808201518160030160146101000a81548160ff021916908360ff16021790555060a08201518160030160156101000a81548160ff021916908360ff16021790555060c08201518160030160166101000a81548160ff0219169083151502179055505050614a727f11f6b79c65525aa967486c6da616a4420514d61bb51407772d0c532f76ea29d460001b6155a5565b614a9e7ff2721113512ebc1b43b7f48516fd97bcaf4f0188fca67e55c2d5e34da71baa7760001b6155a5565b6001806000838152602001908152602001600020805490501415614ca957614ae87f3e15ac9fddbe850b91276bae678e955b1c6136882dff381b6727c7aa57247b9960001b6155a5565b614b147fa5a1f44274239ec653f97a096a02cc427ec2ccdb40a1e78eb5001aa6aa59060d60001b6155a5565b614b407f42e8d3193f76acb434a3d1ce3e28a5e5bc81c5285c8029f6e4bb0786e92f7fa260001b6155a5565b600260003373ffffffffffffffffffffffffffffffffffffffff1673ffffffffffffffffffffffffffffffffffffffff168152602001908152602001600020819080600181540180825580915050600190039060005260206000200160009091909190915055614bd27ffb2b7766d36631949b4feed8ffbc44e138a8cbc95b7a2ea5d24d412ad988f5d160001b6155a5565b614bfe7fa7856fff9b2eefa15261b63e3af3f2a861c78a95023897ff28082b04618c783b60001b6155a5565b60036000898581518110614c3b577f4e487b7100000000000000000000000000000000000000000000000000000000600052603260045260246000fd5b602002602001015173ffffffffffffffffffffffffffffffffffffffff1673ffffffffffffffffffffffffffffffffffffffff168152602001908152602001600020819080600181540180825580915050600190039060005260206000200160009091909190915055614cd6565b614cd57f0d2c67bbb2124decc73f222ef0d8cdbdd58b490548fa38cefe847df196019ee460001b6155a5565b5b50508080614ce390618621565b9150506141af565b50614d187fc843fd2ccfe6c9decf472a967292823a6e62bd006855c646d1174987acfd702060001b6155a5565b614d447f6c1b83ca75e1706039e7106745f4bd735318a69b3ca7667e69931e392344032d60001b6155a5565b7fc05dae71ad6ebf2680862ebed51b27e8ea99855a67cfc24e7a3e0212c34e5e2f826001604051614d769291906182b6565b60405180910390a150506001600081905550505050565b60026000541415614dd3576040517f08c379a0000000000000000000000000000000000000000000000000000000008152600401614dca9061827b565b60405180910390fd5b6002600081905550614e077f381ad280a6da1adb8a0d159d48dcc739ccb4e8d545d9568669bcb372a48d581160001b6155a5565b614e337f4f9aed166026740f6be5a9defa129872471f87df57eb0cca99a2a59c9f5a604c60001b6155a5565b614e5f7f4b777db8724acf451cc2b278a6bf728e23e441b33563be0424b79449dffad6de60001b6155a5565b614e8b7f73ae1a0bc210f2e15ab5594382a0822fe26ffede8e795bf49db704c4de7c884660001b6155a5565b8151835114614ecf576040517f08c379a0000000000000000000000000000000000000000000000000000000008152600401614ec69061825b565b60405180910390fd5b614efb7f6a867b3b26d8b770d11bc734ae1fed92d037196ec09b3f643609b18761345a2d60001b6155a5565b614f277f6cf636fcce5b8bdd6a30ba3eabb6ca449b559097a75fd76d61b12454d413b27b60001b6155a5565b614f537f7dc49570188db9cd4a6fbb57b3b0b6fa73e89f7ddf170dc590f18a18a74d3fcb60001b6155a5565b614f7f7f885e80c7e978c4b28a2e15d370ec559b614e54ac96ab936a7d09e6aec6555ed360001b6155a5565b8051835114614fc3576040517f08c379a0000000000000000000000000000000000000000000000000000000008152600401614fba9061821b565b60405180910390fd5b614fef7f509c5c4d1ef1f7f5ef2933a2b01652fc31aeb268183d53aca7cd34068486fcff60001b6155a5565b61501b7f975969b3eea1901f9b5808678472c07da2e5b897f3038c0223b87c79414e245d60001b6155a5565b6150477f8e7240870454a1cc59670ae72d51d3dbe6c80a0bb2daa7186bc241e9856dccfd60001b6155a5565b60005b835181101561518b5761507f7f884f425d5efdc9b7b2680d30dea37b4ed737818cfd107f8dc5dcab69e0e5cdd260001b6155a5565b6150ab7fdf194bc1cc9218e47181df0dc47e49ce37a09b617a0827c4f9340789469f9de660001b6155a5565b6151788482815181106150e7577f4e487b7100000000000000000000000000000000000000000000000000000000600052603260045260246000fd5b6020026020010151848381518110615128577f4e487b7100000000000000000000000000000000000000000000000000000000600052603260045260246000fd5b6020026020010151600185858151811061516b577f4e487b7100000000000000000000000000000000000000000000000000000000600052603260045260246000fd5b6020026020010151616360565b808061518390618621565b91505061504a565b506001600081905550505050565b600260005414156151df576040517f08c379a00000000000000000000000000000000000000000000000000000000081526004016151d69061827b565b60405180910390fd5b60026000819055506152137f0fb46a91f9d1091a2293a8b6b5ff02cb52d6005faa1faea8c37b4356c376a72360001b6155a5565b61523f7f887e6e69df35b0a71d56be8f57572d3a3900e00c610d782a7e7d767aaec3454160001b6155a5565b61526b7ff4f39df32f3ba0986946319005f702c22d02b339084dc0f5134465570ea7e41360001b6155a5565b6152977f9ada3eff898cdd6c516c8a7c501b7b28aa85ad689737de962acfd659c405999260001b6155a5565b81518351146152db576040517f08c379a00000000000000000000000000000000000000000000000000000000081526004016152d29061825b565b60405180910390fd5b6153077fbc824a199d35fba14dd21eb9699be03f8068ef5f847d53a2a5b2114c8aa7f34e60001b6155a5565b6153337f64a43fba3dafac21dac5a16729b7621bc2ad3fdd6013fe9df0e8e8a4d17ded8260001b6155a5565b61535f7f102792acea8042302dd4ea8142450df56cbd9bd914e354ce1c81a4ba36dff65460001b6155a5565b61538b7f7345ab6d4b8a37aa58311dc7867225e4fe738d8694e17d5fa3aad97dbd8ffbf360001b6155a5565b80518351146153cf576040517f08c379a00000000000000000000000000000000000000000000000000000000081526004016153c69061821b565b60405180910390fd5b6153fb7f8af34646974b93ec249c42c5f734d8cce595536ce3540395f9aa19796569e9cc60001b6155a5565b6154277f0b8e74f29847cbeddd53f90553e08b5cc80bf0886f72b4a78993649a2008f22260001b6155a5565b6154537f29b2f39d683a71078ebc55e75911653f715907ca7a0a70c0cbdd7ee3f1a43d6160001b6155a5565b60005b83518110156155975761548b7fea7c7d45363c255e8f6876be4a896e69c2719671d7e2f93cacad2cc97a36f6c360001b6155a5565b6154b77f7972acb2711ab07c3a8aea04f4ac9b34cf767168f5619b6058b642619ab1cde860001b6155a5565b6155848482815181106154f3577f4e487b7100000000000000000000000000000000000000000000000000000000600052603260045260246000fd5b6020026020010151848381518110615534577f4e487b7100000000000000000000000000000000000000000000000000000000600052603260045260246000fd5b60200260200101516002858581518110615577577f4e487b7100000000000000000000000000000000000000000000000000000000600052603260045260246000fd5b6020026020010151616360565b808061558f90618621565b915050615456565b506001600081905550505050565b50565b6155d47f45bc97869a901b06ab58ac604318fbc1e2eaedbe961c9543008cfd0fd9906de060001b6155a5565b6156007f22c741739e6584fce21bce0e1a5efa9a7b3e68dc3cdcc1eb8a7c8c4c682413ac60001b6155a5565b61562c7fe1f14b5b287d3c376513b93832aeb34dc85bc5e67e0b18be7358c543476d953560001b6155a5565b60003385604051602001615641929190618098565b6040516020818303038152906040528051906020012090506156857ff96e1be01757cd692fba3b828f9a989c292b98cc55fd03d8da404115e7de152760001b6155a5565b6156b17f605c6368627562466ab87460aac936c57df4714a2f3f36fab63ded8b033c206360001b6155a5565b60005b6001600083815260200190815260200160002080549050811015616358576156fe7f0630989738fe3afa06aa0ad8887ddb0e0c7403a590f9e66fe6cb604ff117d0e860001b6155a5565b61572a7fb26bb0e4d191a52f7fa922505a4bbec6f3623595c92504a559b7bb4c261d6f1560001b6155a5565b828051906020012060016000848152602001908152602001600020828154811061577d577f4e487b7100000000000000000000000000000000000000000000000000000000600052603260045260246000fd5b906000526020600020906004020160000160405161579b9190618109565b604051809103902014801561580b5750846001600084815260200190815260200160002082815481106157f7577f4e487b7100000000000000000000000000000000000000000000000000000000600052603260045260246000fd5b906000526020600020906004020160010154145b8015615884575060011515600160008481526020019081526020016000208281548110615861577f4e487b7100000000000000000000000000000000000000000000000000000000600052603260045260246000fd5b906000526020600020906004020160030160169054906101000a900460ff161515145b15616319576158b57f3393e140d524dd7a94537af0ced7a2abd1a3547fedb17b6160fb39e0a5d6667160001b6155a5565b6158e17f92a1729bc461cc299047e287845b661f8b3ea90073afcaeaa33e3f2ea4f1a25560001b6155a5565b61590d7fd3a58cdc6c7ed24d29763d9f51a33bace457fd44ff8c2ab925e002cb3bc7bd3160001b6155a5565b6159397ffa896351ef360a2823528f39656e4db955ebaaee3521d42895343c6f77c2b82060001b6155a5565b3373ffffffffffffffffffffffffffffffffffffffff1660016000848152602001908152602001600020828154811061599b577f4e487b7100000000000000000000000000000000000000000000000000000000600052603260045260246000fd5b906000526020600020906004020160020160009054906101000a900473ffffffffffffffffffffffffffffffffffffffff1673ffffffffffffffffffffffffffffffffffffffff1614615a23576040517f08c379a0000000000000000000000000000000000000000000000000000000008152600401615a1a9061819b565b60405180910390fd5b615a4f7f6bde55768d84a52ec7ff4199bb8d93309109b235b12afdcbfb2adec100257ce660001b6155a5565b615a7b7fad5a5b40c30d9518d30bacae4424b45f12cdedf7e3a93de9b12dcd21bfde7e4f60001b6155a5565b615aa77f85d50a6352ce5720060e47f70bed0a4d409d221be134e9262fb07db34dd6a13d60001b6155a5565b83600160008481526020019081526020016000208281548110615af3577f4e487b7100000000000000000000000000000000000000000000000000000000600052603260045260246000fd5b906000526020600020906004020160030160146101000a81548160ff021916908360ff160217905550615b487fe9a7b28c1d469265c28ff4181b260a0451cac7b78132bd36301e4c72f225900860001b6155a5565b615b747fd7c50ae5a66cea5dc82e6a7eca3f2d16e59824c1b0c2c33df787fa190d222d0b60001b6155a5565b6000615d7f600160008581526020019081526020016000208381548110615bc4577f4e487b7100000000000000000000000000000000000000000000000000000000600052603260045260246000fd5b90600052602060002090600402016040518060e0016040529081600082018054615bed906185be565b80601f0160208091040260200160405190810160405280929190818152602001828054615c19906185be565b8015615c665780601f10615c3b57610100808354040283529160200191615c66565b820191906000526020600020905b815481529060010190602001808311615c4957829003601f168201915b50505050508152602001600182015481526020016002820160009054906101000a900473ffffffffffffffffffffffffffffffffffffffff1673ffffffffffffffffffffffffffffffffffffffff1673ffffffffffffffffffffffffffffffffffffffff1681526020016003820160009054906101000a900473ffffffffffffffffffffffffffffffffffffffff1673ffffffffffffffffffffffffffffffffffffffff1673ffffffffffffffffffffffffffffffffffffffff1681526020016003820160149054906101000a900460ff1660ff1660ff1681526020016003820160159054906101000a900460ff1660ff1660ff1681526020016003820160169054906101000a900460ff161515151581525050617118565b9050615dad7fcf91c5af73084883f146ab837cbdc6f5aadae26d8fea48b10f92e15f19e51c7560001b6155a5565b615dd97fe4920712f789066ebb77a380a6d415fb95246753fe11307454a054248459928360001b6155a5565b60018160ff16141561601d57615e117fdfb6464a5b280b098fa3805443364a1987a2fcae08aa912f32be32d24d81915860001b6155a5565b615e3d7fdcf703fcf270bf3b23752f02f42978c209b39650fa725cb2ddcc5eac5e494eef60001b6155a5565b615e697f37398638a6afeb11075d7c90a8d097e956b3bfeed6644339311712279ec5e24860001b6155a5565b6000600160008581526020019081526020016000208381548110615eb6577f4e487b7100000000000000000000000000000000000000000000000000000000600052603260045260246000fd5b906000526020600020906004020160030160166101000a81548160ff021916908315150217905550615f0a7f4cb65f69d2d206122f7afa94e00c9422600cba10951c565913b65525e225e26360001b6155a5565b615f367f79a0d6708dcd2e8e985ab8265b3faefbe3f02823c8818b53302020c55cf3c79060001b6155a5565b616018600160008581526020019081526020016000208381548110615f84577f4e487b7100000000000000000000000000000000000000000000000000000000600052603260045260246000fd5b906000526020600020906004020160030160009054906101000a900473ffffffffffffffffffffffffffffffffffffffff16600160008681526020019081526020016000208481548110616001577f4e487b7100000000000000000000000000000000000000000000000000000000600052603260045260246000fd5b9060005260206000209060040201600101546172d2565b6162e7565b6160497f3a0d5261176f6a00d4609fcc5b1c0392a974620cc908ff97a8c4eaeaa6dbb70260001b6155a5565b6160757fe6314975e5d249722b6e7ee8fac8fa183843380a14682136a6ccb44b423ff04360001b6155a5565b60028160ff1614156162b9576160ad7fb95d0fc3c4a94a4a334d0439b3f477c7706365ea0abc4d6d9318ac2efb0da6a860001b6155a5565b6160d97f47765b28ad7692e9a317beb9af244efbf77f9e64d4d124a8070e0de91e3373ea60001b6155a5565b6161057f0b134d0e5ce7c3f174e3cd33d028413a61eb797c556998e26f3aa9fb8928e70960001b6155a5565b6000600160008581526020019081526020016000208381548110616152577f4e487b7100000000000000000000000000000000000000000000000000000000600052603260045260246000fd5b906000526020600020906004020160030160166101000a81548160ff0219169083151502179055506161a67fa4190470457fa0fa61447a1834dbdfe71f8b44a37b5de209c3fac77f5b7e92bd60001b6155a5565b6161d27f083c51243a2f76ef61b3680ccf2dc6ea3e784c0f2421532ef34ffc5a8e3dd93760001b6155a5565b6162b4600160008581526020019081526020016000208381548110616220577f4e487b7100000000000000000000000000000000000000000000000000000000600052603260045260246000fd5b906000526020600020906004020160020160009054906101000a900473ffffffffffffffffffffffffffffffffffffffff1660016000868152602001908152602001600020848154811061629d577f4e487b7100000000000000000000000000000000000000000000000000000000600052603260045260246000fd5b9060005260206000209060040201600101546172d2565b6162e6565b6162e57f99eee5929aa802a93368125957e06a88cc8e9e18a01d4bbeda0bb8c43ae77e7b60001b6155a5565b5b5b6163137f5019b229f799dfce4e29566c016adaae96cac2fe0d6079e2e37008ce3fce345860001b6155a5565b50616358565b6163457f40af5b9a309629bdcbd47f61fae6c23eaccc9b413f4a7029bbf19aa3590931d660001b6155a5565b808061635090618621565b9150506156b4565b505050505050565b61638c7fc3488727d8408e9ad4a2b076491ff82bf9c4025309af92aaec13b4d012658f4060001b6155a5565b6163b87f9eba7de883eacbd67f39b955b87b9763752c8407a331350e8d94a9b568bdae9a60001b6155a5565b6163e47fc61ec12f65977e00a224bb6bcde56da2897e450b8bcbb5cdff82d593a18211c360001b6155a5565b600084336040516020016163f9929190618098565b60405160208183030381529060405280519060200120905061643d7f93adb31ac62e1ad42de614264256fb35e831a96831b56aeccac1bea89f4ee10360001b6155a5565b6164697f0c79687543dcfc721b77d9664f5b84bab2dedca422c9038b4863bd3b1b70541960001b6155a5565b60005b6001600083815260200190815260200160002080549050811015617110576164b67fe629f083ec54999e1f943a442dfa9d63b55ebd86d94786dba1b485fd845d915460001b6155a5565b6164e27f9c27018cc9446cc7ad69ea74635ea404415e9021648a95459a0fd52154c9eeb760001b6155a5565b8280519060200120600160008481526020019081526020016000208281548110616535577f4e487b7100000000000000000000000000000000000000000000000000000000600052603260045260246000fd5b90600052602060002090600402016000016040516165539190618109565b60405180910390201480156165c35750846001600084815260200190815260200160002082815481106165af577f4e487b7100000000000000000000000000000000000000000000000000000000600052603260045260246000fd5b906000526020600020906004020160010154145b801561663c575060011515600160008481526020019081526020016000208281548110616619577f4e487b7100000000000000000000000000000000000000000000000000000000600052603260045260246000fd5b906000526020600020906004020160030160169054906101000a900460ff161515145b156170d15761666d7f94fb308a42f54264855038e99ad836ccb780a6c3db1a59f69d228be93ee331cc60001b6155a5565b6166997f2be9fbaa356e95e00dfa66bdb3bb63bbb80db2fcec9912a4d7b34890480505ae60001b6155a5565b6166c57f33107a5735490a6f1dfccfac711a3cae7e207b6950cb25b191268f7ff10a79db60001b6155a5565b6166f17ffc56934afcf86f4705088f421a787ee9501515e946790f4983fde1d37951cbb960001b6155a5565b3373ffffffffffffffffffffffffffffffffffffffff16600160008481526020019081526020016000208281548110616753577f4e487b7100000000000000000000000000000000000000000000000000000000600052603260045260246000fd5b906000526020600020906004020160030160009054906101000a900473ffffffffffffffffffffffffffffffffffffffff1673ffffffffffffffffffffffffffffffffffffffff16146167db576040517f08c379a00000000000000000000000000000000000000000000000000000000081526004016167d2906181fb565b60405180910390fd5b6168077fb691f3e98e3f6f316544de74f39beefe848856b2e36e01d43345db637fb9fe6260001b6155a5565b6168337fca93852d056ef4e1f99976986152643780f4aed9d4a7cc64a19ade1e5365d7ee60001b6155a5565b61685f7fca24c6bec7f5ee95052a4e8d24849fc659d9716879173d79740643fee52d19cb60001b6155a5565b836001600084815260200190815260200160002082815481106168ab577f4e487b7100000000000000000000000000000000000000000000000000000000600052603260045260246000fd5b906000526020600020906004020160030160156101000a81548160ff021916908360ff1602179055506169007f3ff04b0297bb2df9b0f01b0333cb6ce5c13b13f0fcc2b91bc68d547e8a90090260001b6155a5565b61692c7f7e7f774a4abc73e5a777141daf53848029272d061460ec96e0c573e165f17c4360001b6155a5565b6000616b3760016000858152602001908152602001600020838154811061697c577f4e487b7100000000000000000000000000000000000000000000000000000000600052603260045260246000fd5b90600052602060002090600402016040518060e00160405290816000820180546169a5906185be565b80601f01602080910402602001604051908101604052809291908181526020018280546169d1906185be565b8015616a1e5780601f106169f357610100808354040283529160200191616a1e565b820191906000526020600020905b815481529060010190602001808311616a0157829003601f168201915b50505050508152602001600182015481526020016002820160009054906101000a900473ffffffffffffffffffffffffffffffffffffffff1673ffffffffffffffffffffffffffffffffffffffff1673ffffffffffffffffffffffffffffffffffffffff1681526020016003820160009054906101000a900473ffffffffffffffffffffffffffffffffffffffff1673ffffffffffffffffffffffffffffffffffffffff1673ffffffffffffffffffffffffffffffffffffffff1681526020016003820160149054906101000a900460ff1660ff1660ff1681526020016003820160159054906101000a900460ff1660ff1660ff1681526020016003820160169054906101000a900460ff161515151581525050617118565b9050616b657fd023d16ad0edd65993bd6809c42937ebbfb449076852cc9b68b94b8c4224cc0d60001b6155a5565b616b917fb10dd68e8a422d9916b99333b192c9d65635b0053c21bf54c0702b63f1d6e2b960001b6155a5565b60018160ff161415616dd557616bc97f458fe24b31cb912b8825e3d6b8e947a33e6934a9ce8d98d45e5a32ff0b96abe160001b6155a5565b616bf57f580626280a140b06a2a3f9f99b05517baf346b9831f6d6f548399a78d6e7cbc460001b6155a5565b616c217fed008b8714e0427442b66bdac8b7f26fcffa517de7a4bfb81c195719942e744b60001b6155a5565b6000600160008581526020019081526020016000208381548110616c6e577f4e487b7100000000000000000000000000000000000000000000000000000000600052603260045260246000fd5b906000526020600020906004020160030160166101000a81548160ff021916908315150217905550616cc27f9ff9b8f0baeca0b503d750f68031dcbc0af2aaa98f931431913e17568605c8ad60001b6155a5565b616cee7f07bd60c06f70ffda42e499a140adb60c8c1452187e7c5c395863fd87c7f39a5e60001b6155a5565b616dd0600160008581526020019081526020016000208381548110616d3c577f4e487b7100000000000000000000000000000000000000000000000000000000600052603260045260246000fd5b906000526020600020906004020160030160009054906101000a900473ffffffffffffffffffffffffffffffffffffffff16600160008681526020019081526020016000208481548110616db9577f4e487b7100000000000000000000000000000000000000000000000000000000600052603260045260246000fd5b9060005260206000209060040201600101546172d2565b61709f565b616e017f3aa70e00e2849c4a0be2d6e3128c54695a528e66cc5269c64b00a9774571864b60001b6155a5565b616e2d7fe1e3f73ead691eb72af2d5bcf79e26f415cfeb3b7d7e7d8c1da2db523f8ea97960001b6155a5565b60028160ff16141561707157616e657f3751607b55b6687b326485a7fc3198eb0b42fb763ab9b97a073b2a4678ccb21760001b6155a5565b616e917ffee8c2d3e2301774451fa413d64c98c46135cc1af119cc792f1054924f0f855b60001b6155a5565b616ebd7f91f4647edcd93e81bd77a286e1b04e94134182eaa11401e5ea92f17dceecd2a360001b6155a5565b6000600160008581526020019081526020016000208381548110616f0a577f4e487b7100000000000000000000000000000000000000000000000000000000600052603260045260246000fd5b906000526020600020906004020160030160166101000a81548160ff021916908315150217905550616f5e7f3d2e4469f5589814eec4c618f032be720e5bce9b9f7f9de580c74914bc22c13c60001b6155a5565b616f8a7f326e6e06249c8d88d51b8b970c2c9501fb01e15fa831d225c3c0d72b06b24e1660001b6155a5565b61706c600160008581526020019081526020016000208381548110616fd8577f4e487b7100000000000000000000000000000000000000000000000000000000600052603260045260246000fd5b906000526020600020906004020160020160009054906101000a900473ffffffffffffffffffffffffffffffffffffffff16600160008681526020019081526020016000208481548110617055577f4e487b7100000000000000000000000000000000000000000000000000000000600052603260045260246000fd5b9060005260206000209060040201600101546172d2565b61709e565b61709d7fd72da27dc5f0f3c46c9115dad7a276f0022cafb173ae24fc60cfe1d69803f85e60001b6155a5565b5b5b6170cb7f3b314b359cb150df41f55c39a050b0c5c3a4c8655aebe708667d656804ac2f3d60001b6155a5565b50617110565b6170fd7f110f6e8c9015622968d06f4dfaaea7886c78da91251c6fa5e1c32820237b216560001b6155a5565b808061710890618621565b91505061646c565b505050505050565b60006171467f296bf0a7a83664a6b9f4354503ffa99e9e7180921aceeed988e915915885975660001b6155a5565b6171727f8e4360a2d62a326ee63cc252c046f3e17c5645174ad3979b2ecde8481e1692bd60001b6155a5565b61719e7f5e3829e677254ac9767263386db30a1da3433db0cd79038d87d5501f1de0a89b60001b6155a5565b8160a0015160ff16826080015160ff161415617244576171e07f64eda29a32a701c62d5e1dc34709b58a8da2050ca617a91c3fce535585625ce360001b6155a5565b61720c7f20693dbf7d02b8b2ff3c8a3b8f9b32a6e599f8d656d058de244f23a56eba2d3f60001b6155a5565b6172387f58e93b0cb23ea18f904127a819f54aa692442d3d8e9e3b43a7188f7bd7e1a85c60001b6155a5565b816080015190506172cd565b6172707f9095d97dbbe22925732d6036bcd7f656918109db03039995996387b1759cc00360001b6155a5565b61729c7fc588e76523078724c9200906b3fbd930464efca5e9052517481e2c5161e5a92260001b6155a5565b6172c87f1c0cf05fa90f43438ab53c6825b663ab55e0c71f0b93f96ab0e97599540df64b60001b6155a5565b600090505b919050565b6172fe7f71f08193a37e668af77b3da62c34c204c6f174067e2cd4ffa929aaa15c66480260001b6155a5565b61732a7f5b8a3e08342d74308281dbfd9c1f9336a5d2e85a33d7e73f4f89fbc4867f41c260001b6155a5565b6173567fb299914feef0cad260f31ccc2fc3516e7fece8a77f3df6c646e1e3b7231baf1960001b6155a5565b6173827f6b1a85df98f3242777e5de08b6e2dc7b5997ad8f2286e100233f0432c69aa5ed60001b6155a5565b600073ffffffffffffffffffffffffffffffffffffffff168273ffffffffffffffffffffffffffffffffffffffff1614156173f2576040517f08c379a00000000000000000000000000000000000000000000000000000000081526004016173e99061823b565b60405180910390fd5b61741e7fe9ff362e423db456d9ea3db26f458c1aa7110a5d214845fd8fae36669a3e89f360001b6155a5565b61744a7f61452fce097c5c5dbe4886468103f38d94ddd089a969f922d8e98b8f65786b4160001b6155a5565b6174767f776a931901b759b4907749820c55b5bc7b129a346cbdd50c8c678cc96037ad0460001b6155a5565b60008273ffffffffffffffffffffffffffffffffffffffff168260405161749c90618120565b60006040518083038185875af1925050503d80600081146174d9576040519150601f19603f3d011682016040523d82523d6000602084013e6174de565b606091505b5050905061750e7f48cf56fc52fe977e282eeac6632426bedd372f04823a104645020424a51d1a0a60001b6155a5565b61753a7ff8602e1c4445ef0e782d12f83eb37463ec2ab10b98f2a5be4cd53c49096ff09460001b6155a5565b6175667f5fb4738965a5550ffc8b8fd3a281aff7f38b429cdacab732a31a2d4fb37a22c260001b6155a5565b8060046040516020016175799190618135565b604051602081830303815290604052906175c9576040517f08c379a00000000000000000000000000000000000000000000000000000000081526004016175c09190618179565b60405180910390fd5b506175f67f3a5a2a277e455235e1e1b85e7b45f9a06f2bfafa068e9f2ad8c8f237b1f008e360001b6155a5565b505050565b6040518060e001604052806060815260200160008152602001600073ffffffffffffffffffffffffffffffffffffffff168152602001600073ffffffffffffffffffffffffffffffffffffffff168152602001600060ff168152602001600060ff1681526020016000151581525090565b828054617678906185be565b90600052602060002090601f01602090048101928261769a57600085556176e1565b82601f106176b357805160ff19168380011785556176e1565b828001600101855582156176e1579182015b828111156176e05782518255916020019190600101906176c5565b5b5090506176ee91906176f2565b5090565b5b8082111561770b5760008160009055506001016176f3565b5090565b600061772261771d84618304565b6182df565b9050808382526020820190508285602086028201111561774157600080fd5b60005b8581101561777157816177578882617917565b845260208401935060208301925050600181019050617744565b5050509392505050565b600061778e61778984618330565b6182df565b905080838252602082019050828560208602820111156177ad57600080fd5b60005b858110156177dd57816177c3888261792c565b8452602084019350602083019250506001810190506177b0565b5050509392505050565b60006177fa6177f58461835c565b6182df565b9050808382526020820190508285602086028201111561781957600080fd5b60005b8581101561786357813567ffffffffffffffff81111561783b57600080fd5b8086016178488982617a33565b8552602085019450602084019350505060018101905061781c565b5050509392505050565b600061788061787b84618388565b6182df565b9050808382526020820190508285602086028201111561789f57600080fd5b60005b858110156178cf57816178b58882617a5d565b8452602084019350602083019250506001810190506178a2565b5050509392505050565b60006178ec6178e7846183b4565b6182df565b90508281526020810184848401111561790457600080fd5b61790f84828561857c565b509392505050565b60008135905061792681618957565b92915050565b60008135905061793b8161896e565b92915050565b600082601f83011261795257600080fd5b813561796284826020860161770f565b91505092915050565b600082601f83011261797c57600080fd5b813561798c84826020860161777b565b91505092915050565b600082601f8301126179a657600080fd5b81356179b68482602086016177e7565b91505092915050565b600082601f8301126179d057600080fd5b81356179e084826020860161786d565b91505092915050565b60008083601f8401126179fb57600080fd5b8235905067ffffffffffffffff811115617a1457600080fd5b602083019150836001820283011115617a2c57600080fd5b9250929050565b600082601f830112617a4457600080fd5b8135617a548482602086016178d9565b91505092915050565b600081359050617a6c81618985565b92915050565b600080600060408486031215617a8757600080fd5b6000617a9586828701617917565b935050602084013567ffffffffffffffff811115617ab257600080fd5b617abe868287016179e9565b92509250509250925092565b600080600060608486031215617adf57600080fd5b600084013567ffffffffffffffff811115617af957600080fd5b617b0586828701617941565b935050602084013567ffffffffffffffff811115617b2257600080fd5b617b2e868287016179bf565b925050604084013567ffffffffffffffff811115617b4b57600080fd5b617b5786828701617995565b9150509250925092565b600080600060608486031215617b7657600080fd5b600084013567ffffffffffffffff811115617b9057600080fd5b617b9c8682870161796b565b935050602084013567ffffffffffffffff811115617bb957600080fd5b617bc5868287016179bf565b925050604084013567ffffffffffffffff811115617be257600080fd5b617bee86828701617995565b9150509250925092565b6000617c048383617fcf565b905092915050565b617c1d617c1882618527565b61867c565b82525050565b617c2c81618515565b82525050565b617c43617c3e82618515565b61866a565b82525050565b6000617c548261841f565b617c5e8185618442565b935083602082028501617c70856183e5565b8060005b85811015617cac5784840389528151617c8d8582617bf8565b9450617c9883618435565b925060208a01995050600181019050617c74565b50829750879550505050505092915050565b617cc781618539565b82525050565b617cd681618539565b82525050565b6000617ce88385618453565b9350617cf583858461857c565b82840190509392505050565b60008154617d0e816185be565b617d188186618453565b94506001821660008114617d335760018114617d4457617d77565b60ff19831686528186019350617d77565b617d4d856183f5565b60005b83811015617d6f57815481890152600182019150602081019050617d50565b838801955050505b50505092915050565b6000617d8b8261842a565b617d95818561845e565b9350617da581856020860161858b565b617dae8161872d565b840191505092915050565b6000617dc48261842a565b617dce818561846f565b9350617dde81856020860161858b565b617de78161872d565b840191505092915050565b60008154617dff816185be565b617e098186618480565b94506001821660008114617e245760018114617e3557617e68565b60ff19831686528186019350617e68565b617e3e8561840a565b60005b83811015617e6057815481890152600182019150602081019050617e41565b838801955050505b50505092915050565b6000617e7e60178361846f565b9150617e898261874b565b602082019050919050565b6000617ea1602d8361846f565b9150617eac82618774565b604082019050919050565b6000617ec460308361846f565b9150617ecf826187c3565b604082019050919050565b6000617ee760178361846f565b9150617ef282618812565b602082019050919050565b6000617f0a600083618453565b9150617f158261883b565b600082019050919050565b6000617f2d600f83618480565b9150617f388261883e565b600f82019050919050565b6000617f5060378361846f565b9150617f5b82618867565b604082019050919050565b6000617f7360128361846f565b9150617f7e826188b6565b602082019050919050565b6000617f96602f8361846f565b9150617fa1826188df565b604082019050919050565b6000617fb9601f8361846f565b9150617fc48261892e565b602082019050919050565b600060e0830160008301518482036000860152617fec8282617d80565b9150506020830151618001602086018261806b565b5060408301516180146040860182617c23565b5060608301516180276060860182617c23565b50608083015161803a6080860182618089565b5060a083015161804d60a0860182618089565b5060c083015161806060c0860182617cbe565b508091505092915050565b61807481618565565b82525050565b61808381618565565b82525050565b6180928161856f565b82525050565b60006180a48285617c32565b6014820191506180b48284617c32565b6014820191508190509392505050565b60006180d08285617c32565b6014820191506180e08284617c0c565b6014820191508190509392505050565b60006180fd828486617cdc565b91508190509392505050565b60006181158284617d01565b915081905092915050565b600061812b82617efd565b9150819050919050565b600061814082617f20565b915061814c8284617df2565b915081905092915050565b600060208201905081810360008301526181718184617c49565b905092915050565b600060208201905081810360008301526181938184617db9565b905092915050565b600060208201905081810360008301526181b481617e71565b9050919050565b600060208201905081810360008301526181d481617e94565b9050919050565b600060208201905081810360008301526181f481617eb7565b9050919050565b6000602082019050818103600083015261821481617eda565b9050919050565b6000602082019050818103600083015261823481617f43565b9050919050565b6000602082019050818103600083015261825481617f66565b9050919050565b6000602082019050818103600083015261827481617f89565b9050919050565b6000602082019050818103600083015261829481617fac565b9050919050565b60006020820190506182b0600083018461807a565b92915050565b60006040820190506182cb600083018561807a565b6182d86020830184617ccd565b9392505050565b60006182e96182fa565b90506182f582826185f0565b919050565b6000604051905090565b600067ffffffffffffffff82111561831f5761831e6186fe565b5b602082029050602081019050919050565b600067ffffffffffffffff82111561834b5761834a6186fe565b5b602082029050602081019050919050565b600067ffffffffffffffff821115618377576183766186fe565b5b602082029050602081019050919050565b600067ffffffffffffffff8211156183a3576183a26186fe565b5b602082029050602081019050919050565b600067ffffffffffffffff8211156183cf576183ce6186fe565b5b6183d88261872d565b9050602081019050919050565b6000819050602082019050919050565b60008190508160005260206000209050919050565b60008190508160005260206000209050919050565b600081519050919050565b600081519050919050565b6000602082019050919050565b600082825260208201905092915050565b600081905092915050565b600082825260208201905092915050565b600082825260208201905092915050565b600081905092915050565b600061849682618565565b91506184a183618565565b9250827fffffffffffffffffffffffffffffffffffffffffffffffffffffffffffffffff038211156184d6576184d56186a0565b5b828201905092915050565b60006184ec82618565565b91506184f783618565565b92508282101561850a576185096186a0565b5b828203905092915050565b600061852082618545565b9050919050565b600061853282618545565b9050919050565b60008115159050919050565b600073ffffffffffffffffffffffffffffffffffffffff82169050919050565b6000819050919050565b600060ff82169050919050565b82818337600083830152505050565b60005b838110156185a957808201518184015260208101905061858e565b838111156185b8576000848401525b50505050565b600060028204905060018216806185d657607f821691505b602082108114156185ea576185e96186cf565b5b50919050565b6185f98261872d565b810181811067ffffffffffffffff82111715618618576186176186fe565b5b80604052505050565b600061862c82618565565b91507fffffffffffffffffffffffffffffffffffffffffffffffffffffffffffffffff82141561865f5761865e6186a0565b5b600182019050919050565b60006186758261868e565b9050919050565b60006186878261868e565b9050919050565b60006186998261873e565b9050919050565b7f4e487b7100000000000000000000000000000000000000000000000000000000600052601160045260246000fd5b7f4e487b7100000000000000000000000000000000000000000000000000000000600052602260045260246000fd5b7f4e487b7100000000000000000000000000000000000000000000000000000000600052604160045260246000fd5b6000601f19601f8301169050919050565b60008160601b9050919050565b7f596f7520617265206e6f742074686520636c69656e742e000000000000000000600082015250565b7f546f74616c20616d6f756e74206973206c657373207468616e2063757272656e60008201527f742073656e6420616d6f756e7400000000000000000000000000000000000000602082015250565b7f416464726573736573206c656e677468206d75737420626520657175616c207460008201527f6f20616d6f756e7473206c656e67746800000000000000000000000000000000602082015250565b7f596f7520617265206e6f74207468652073656c6c65722e000000000000000000600082015250565b50565b7f4661696c656420746f2073656e64200000000000000000000000000000000000600082015250565b7f416464726573736573206c656e677468206d75737420626520657175616c207460008201527f6f2070726f6475637420686173686573206c656e677468000000000000000000602082015250565b7f416464726573732063616e277420626520300000000000000000000000000000600082015250565b7f416464726573736573206c656e677468206d75737420626520657175616c207460008201527f6f2076616c756573206c656e6774680000000000000000000000000000000000602082015250565b7f5265656e7472616e637947756172643a207265656e7472616e742063616c6c00600082015250565b61896081618515565b811461896b57600080fd5b50565b61897781618527565b811461898257600080fd5b50565b61898e81618565565b811461899957600080fd5b5056fea26469706673582212206f10bd131eb2399c0215a17c5d5062d1fa7cd4ea34be1064662100a3c4bca62a64736f6c63430008040033",
          "opcodes": "PUSH1 0x80 PUSH1 0x40 MSTORE CALLVALUE DUP1 ISZERO PUSH3 0x11 JUMPI PUSH1 0x0 DUP1 REVERT JUMPDEST POP PUSH1 0x40 MLOAD PUSH3 0x8DB7 CODESIZE SUB DUP1 PUSH3 0x8DB7 DUP4 CODECOPY DUP2 DUP2 ADD PUSH1 0x40 MSTORE DUP2 ADD SWAP1 PUSH3 0x37 SWAP2 SWAP1 PUSH3 0x220 JUMP JUMPDEST PUSH1 0x1 PUSH1 0x0 DUP2 SWAP1 SSTORE POP PUSH3 0x73 PUSH32 0x1B28156C09D43C4AAADE23B34F8D8CE2DFA2832067202F19B21CB4A0878082AC PUSH1 0x0 SHL PUSH3 0xFB PUSH1 0x20 SHL PUSH1 0x20 SHR JUMP JUMPDEST PUSH3 0xA7 PUSH32 0xA6124D4A2A8CDD3178CC97B046D63C3BC01C6BBB5137A89C2D96BBAA2BE01941 PUSH1 0x0 SHL PUSH3 0xFB PUSH1 0x20 SHL PUSH1 0x20 SHR JUMP JUMPDEST PUSH3 0xDB PUSH32 0x3A0F20ECC70DFA8F2051313C81A217BEC583FC864B41481B2965B063FE81A093 PUSH1 0x0 SHL PUSH3 0xFB PUSH1 0x20 SHL PUSH1 0x20 SHR JUMP JUMPDEST DUP1 PUSH1 0x4 SWAP1 DUP1 MLOAD SWAP1 PUSH1 0x20 ADD SWAP1 PUSH3 0xF3 SWAP3 SWAP2 SWAP1 PUSH3 0xFE JUMP JUMPDEST POP POP PUSH3 0x3D5 JUMP JUMPDEST POP JUMP JUMPDEST DUP3 DUP1 SLOAD PUSH3 0x10C SWAP1 PUSH3 0x2FA JUMP JUMPDEST SWAP1 PUSH1 0x0 MSTORE PUSH1 0x20 PUSH1 0x0 KECCAK256 SWAP1 PUSH1 0x1F ADD PUSH1 0x20 SWAP1 DIV DUP2 ADD SWAP3 DUP3 PUSH3 0x130 JUMPI PUSH1 0x0 DUP6 SSTORE PUSH3 0x17C JUMP JUMPDEST DUP3 PUSH1 0x1F LT PUSH3 0x14B JUMPI DUP1 MLOAD PUSH1 0xFF NOT AND DUP4 DUP1 ADD OR DUP6 SSTORE PUSH3 0x17C JUMP JUMPDEST DUP3 DUP1 ADD PUSH1 0x1 ADD DUP6 SSTORE DUP3 ISZERO PUSH3 0x17C JUMPI SWAP2 DUP3 ADD JUMPDEST DUP3 DUP2 GT ISZERO PUSH3 0x17B JUMPI DUP3 MLOAD DUP3 SSTORE SWAP2 PUSH1 0x20 ADD SWAP2 SWAP1 PUSH1 0x1 ADD SWAP1 PUSH3 0x15E JUMP JUMPDEST JUMPDEST POP SWAP1 POP PUSH3 0x18B SWAP2 SWAP1 PUSH3 0x18F JUMP JUMPDEST POP SWAP1 JUMP JUMPDEST JUMPDEST DUP1 DUP3 GT ISZERO PUSH3 0x1AA JUMPI PUSH1 0x0 DUP2 PUSH1 0x0 SWAP1 SSTORE POP PUSH1 0x1 ADD PUSH3 0x190 JUMP JUMPDEST POP SWAP1 JUMP JUMPDEST PUSH1 0x0 PUSH3 0x1C5 PUSH3 0x1BF DUP5 PUSH3 0x28E JUMP JUMPDEST PUSH3 0x265 JUMP JUMPDEST SWAP1 POP DUP3 DUP2 MSTORE PUSH1 0x20 DUP2 ADD DUP5 DUP5 DUP5 ADD GT ISZERO PUSH3 0x1DE JUMPI PUSH1 0x0 DUP1 REVERT JUMPDEST PUSH3 0x1EB DUP5 DUP3 DUP6 PUSH3 0x2C4 JUMP JUMPDEST POP SWAP4 SWAP3 POP POP POP JUMP JUMPDEST PUSH1 0x0 DUP3 PUSH1 0x1F DUP4 ADD SLT PUSH3 0x205 JUMPI PUSH1 0x0 DUP1 REVERT JUMPDEST DUP2 MLOAD PUSH3 0x217 DUP5 DUP3 PUSH1 0x20 DUP7 ADD PUSH3 0x1AE JUMP JUMPDEST SWAP2 POP POP SWAP3 SWAP2 POP POP JUMP JUMPDEST PUSH1 0x0 PUSH1 0x20 DUP3 DUP5 SUB SLT ISZERO PUSH3 0x233 JUMPI PUSH1 0x0 DUP1 REVERT JUMPDEST PUSH1 0x0 DUP3 ADD MLOAD PUSH8 0xFFFFFFFFFFFFFFFF DUP2 GT ISZERO PUSH3 0x24E JUMPI PUSH1 0x0 DUP1 REVERT JUMPDEST PUSH3 0x25C DUP5 DUP3 DUP6 ADD PUSH3 0x1F3 JUMP JUMPDEST SWAP2 POP POP SWAP3 SWAP2 POP POP JUMP JUMPDEST PUSH1 0x0 PUSH3 0x271 PUSH3 0x284 JUMP JUMPDEST SWAP1 POP PUSH3 0x27F DUP3 DUP3 PUSH3 0x330 JUMP JUMPDEST SWAP2 SWAP1 POP JUMP JUMPDEST PUSH1 0x0 PUSH1 0x40 MLOAD SWAP1 POP SWAP1 JUMP JUMPDEST PUSH1 0x0 PUSH8 0xFFFFFFFFFFFFFFFF DUP3 GT ISZERO PUSH3 0x2AC JUMPI PUSH3 0x2AB PUSH3 0x395 JUMP JUMPDEST JUMPDEST PUSH3 0x2B7 DUP3 PUSH3 0x3C4 JUMP JUMPDEST SWAP1 POP PUSH1 0x20 DUP2 ADD SWAP1 POP SWAP2 SWAP1 POP JUMP JUMPDEST PUSH1 0x0 JUMPDEST DUP4 DUP2 LT ISZERO PUSH3 0x2E4 JUMPI DUP1 DUP3 ADD MLOAD DUP2 DUP5 ADD MSTORE PUSH1 0x20 DUP2 ADD SWAP1 POP PUSH3 0x2C7 JUMP JUMPDEST DUP4 DUP2 GT ISZERO PUSH3 0x2F4 JUMPI PUSH1 0x0 DUP5 DUP5 ADD MSTORE JUMPDEST POP POP POP POP JUMP JUMPDEST PUSH1 0x0 PUSH1 0x2 DUP3 DIV SWAP1 POP PUSH1 0x1 DUP3 AND DUP1 PUSH3 0x313 JUMPI PUSH1 0x7F DUP3 AND SWAP2 POP JUMPDEST PUSH1 0x20 DUP3 LT DUP2 EQ ISZERO PUSH3 0x32A JUMPI PUSH3 0x329 PUSH3 0x366 JUMP JUMPDEST JUMPDEST POP SWAP2 SWAP1 POP JUMP JUMPDEST PUSH3 0x33B DUP3 PUSH3 0x3C4 JUMP JUMPDEST DUP2 ADD DUP2 DUP2 LT PUSH8 0xFFFFFFFFFFFFFFFF DUP3 GT OR ISZERO PUSH3 0x35D JUMPI PUSH3 0x35C PUSH3 0x395 JUMP JUMPDEST JUMPDEST DUP1 PUSH1 0x40 MSTORE POP POP POP JUMP JUMPDEST PUSH32 0x4E487B7100000000000000000000000000000000000000000000000000000000 PUSH1 0x0 MSTORE PUSH1 0x22 PUSH1 0x4 MSTORE PUSH1 0x24 PUSH1 0x0 REVERT JUMPDEST PUSH32 0x4E487B7100000000000000000000000000000000000000000000000000000000 PUSH1 0x0 MSTORE PUSH1 0x41 PUSH1 0x4 MSTORE PUSH1 0x24 PUSH1 0x0 REVERT JUMPDEST PUSH1 0x0 PUSH1 0x1F NOT PUSH1 0x1F DUP4 ADD AND SWAP1 POP SWAP2 SWAP1 POP JUMP JUMPDEST PUSH2 0x89D2 DUP1 PUSH3 0x3E5 PUSH1 0x0 CODECOPY PUSH1 0x0 RETURN INVALID PUSH1 0x80 PUSH1 0x40 MSTORE PUSH1 0x4 CALLDATASIZE LT PUSH2 0x9C JUMPI PUSH1 0x0 CALLDATALOAD PUSH1 0xE0 SHR DUP1 PUSH4 0x7BCEBB16 GT PUSH2 0x64 JUMPI DUP1 PUSH4 0x7BCEBB16 EQ PUSH2 0x186 JUMPI DUP1 PUSH4 0x95D89B41 EQ PUSH2 0x1B1 JUMPI DUP1 PUSH4 0x98FEFF33 EQ PUSH2 0x1DC JUMPI DUP1 PUSH4 0xD760A5A4 EQ PUSH2 0x207 JUMPI DUP1 PUSH4 0xDFF68ED3 EQ PUSH2 0x223 JUMPI DUP1 PUSH4 0xFFF35722 EQ PUSH2 0x24C JUMPI PUSH2 0x9C JUMP JUMPDEST DUP1 PUSH4 0x1BD0ECF8 EQ PUSH2 0xA1 JUMPI DUP1 PUSH4 0x21A598DE EQ PUSH2 0xCA JUMPI DUP1 PUSH4 0x2C7F173E EQ PUSH2 0x107 JUMPI DUP1 PUSH4 0x6749CF5B EQ PUSH2 0x130 JUMPI DUP1 PUSH4 0x697B8108 EQ PUSH2 0x15B JUMPI JUMPDEST PUSH1 0x0 DUP1 REVERT JUMPDEST CALLVALUE DUP1 ISZERO PUSH2 0xAD JUMPI PUSH1 0x0 DUP1 REVERT JUMPDEST POP PUSH2 0xC8 PUSH1 0x4 DUP1 CALLDATASIZE SUB DUP2 ADD SWAP1 PUSH2 0xC3 SWAP2 SWAP1 PUSH2 0x7ACA JUMP JUMPDEST PUSH2 0x275 JUMP JUMPDEST STOP JUMPDEST CALLVALUE DUP1 ISZERO PUSH2 0xD6 JUMPI PUSH1 0x0 DUP1 REVERT JUMPDEST POP PUSH2 0xF1 PUSH1 0x4 DUP1 CALLDATASIZE SUB DUP2 ADD SWAP1 PUSH2 0xEC SWAP2 SWAP1 PUSH2 0x7A72 JUMP JUMPDEST PUSH2 0x681 JUMP JUMPDEST PUSH1 0x40 MLOAD PUSH2 0xFE SWAP2 SWAP1 PUSH2 0x829B JUMP JUMPDEST PUSH1 0x40 MLOAD DUP1 SWAP2 SUB SWAP1 RETURN JUMPDEST CALLVALUE DUP1 ISZERO PUSH2 0x113 JUMPI PUSH1 0x0 DUP1 REVERT JUMPDEST POP PUSH2 0x12E PUSH1 0x4 DUP1 CALLDATASIZE SUB DUP2 ADD SWAP1 PUSH2 0x129 SWAP2 SWAP1 PUSH2 0x7ACA JUMP JUMPDEST PUSH2 0xDD9 JUMP JUMPDEST STOP JUMPDEST CALLVALUE DUP1 ISZERO PUSH2 0x13C JUMPI PUSH1 0x0 DUP1 REVERT JUMPDEST POP PUSH2 0x145 PUSH2 0x11E4 JUMP JUMPDEST PUSH1 0x40 MLOAD PUSH2 0x152 SWAP2 SWAP1 PUSH2 0x8157 JUMP JUMPDEST PUSH1 0x40 MLOAD DUP1 SWAP2 SUB SWAP1 RETURN JUMPDEST CALLVALUE DUP1 ISZERO PUSH2 0x167 JUMPI PUSH1 0x0 DUP1 REVERT JUMPDEST POP PUSH2 0x170 PUSH2 0x1AC6 JUMP JUMPDEST PUSH1 0x40 MLOAD PUSH2 0x17D SWAP2 SWAP1 PUSH2 0x8157 JUMP JUMPDEST PUSH1 0x40 MLOAD DUP1 SWAP2 SUB SWAP1 RETURN JUMPDEST CALLVALUE DUP1 ISZERO PUSH2 0x192 JUMPI PUSH1 0x0 DUP1 REVERT JUMPDEST POP PUSH2 0x19B PUSH2 0x2841 JUMP JUMPDEST PUSH1 0x40 MLOAD PUSH2 0x1A8 SWAP2 SWAP1 PUSH2 0x8157 JUMP JUMPDEST PUSH1 0x40 MLOAD DUP1 SWAP2 SUB SWAP1 RETURN JUMPDEST CALLVALUE DUP1 ISZERO PUSH2 0x1BD JUMPI PUSH1 0x0 DUP1 REVERT JUMPDEST POP PUSH2 0x1C6 PUSH2 0x3123 JUMP JUMPDEST PUSH1 0x40 MLOAD PUSH2 0x1D3 SWAP2 SWAP1 PUSH2 0x8179 JUMP JUMPDEST PUSH1 0x40 MLOAD DUP1 SWAP2 SUB SWAP1 RETURN JUMPDEST CALLVALUE DUP1 ISZERO PUSH2 0x1E8 JUMPI PUSH1 0x0 DUP1 REVERT JUMPDEST POP PUSH2 0x1F1 PUSH2 0x31B1 JUMP JUMPDEST PUSH1 0x40 MLOAD PUSH2 0x1FE SWAP2 SWAP1 PUSH2 0x8157 JUMP JUMPDEST PUSH1 0x40 MLOAD DUP1 SWAP2 SUB SWAP1 RETURN JUMPDEST PUSH2 0x221 PUSH1 0x4 DUP1 CALLDATASIZE SUB DUP2 ADD SWAP1 PUSH2 0x21C SWAP2 SWAP1 PUSH2 0x7B61 JUMP JUMPDEST PUSH2 0x3F2C JUMP JUMPDEST STOP JUMPDEST CALLVALUE DUP1 ISZERO PUSH2 0x22F JUMPI PUSH1 0x0 DUP1 REVERT JUMPDEST POP PUSH2 0x24A PUSH1 0x4 DUP1 CALLDATASIZE SUB DUP2 ADD SWAP1 PUSH2 0x245 SWAP2 SWAP1 PUSH2 0x7ACA JUMP JUMPDEST PUSH2 0x4D8D JUMP JUMPDEST STOP JUMPDEST CALLVALUE DUP1 ISZERO PUSH2 0x258 JUMPI PUSH1 0x0 DUP1 REVERT JUMPDEST POP PUSH2 0x273 PUSH1 0x4 DUP1 CALLDATASIZE SUB DUP2 ADD SWAP1 PUSH2 0x26E SWAP2 SWAP1 PUSH2 0x7ACA JUMP JUMPDEST PUSH2 0x5199 JUMP JUMPDEST STOP JUMPDEST PUSH1 0x2 PUSH1 0x0 SLOAD EQ ISZERO PUSH2 0x2BB JUMPI PUSH1 0x40 MLOAD PUSH32 0x8C379A000000000000000000000000000000000000000000000000000000000 DUP2 MSTORE PUSH1 0x4 ADD PUSH2 0x2B2 SWAP1 PUSH2 0x827B JUMP JUMPDEST PUSH1 0x40 MLOAD DUP1 SWAP2 SUB SWAP1 REVERT JUMPDEST PUSH1 0x2 PUSH1 0x0 DUP2 SWAP1 SSTORE POP PUSH2 0x2EF PUSH32 0xCE225872C6DCED3665BEEC03CCB12CEF74A3271767C0CA34C64CAA923B80242A PUSH1 0x0 SHL PUSH2 0x55A5 JUMP JUMPDEST PUSH2 0x31B PUSH32 0x1323FB38451ACA7270D138706B745515259C5AE19144B5D1B0D79732E17081CE PUSH1 0x0 SHL PUSH2 0x55A5 JUMP JUMPDEST PUSH2 0x347 PUSH32 0xEE734AFF5BC82BDE0E97A79474ABCA482FBD6C41DFC822FB682F7BDA0045B742 PUSH1 0x0 SHL PUSH2 0x55A5 JUMP JUMPDEST PUSH2 0x373 PUSH32 0xD8EE4D9EDDF2EE47367AD57D440BE17885DA3F28A67DEBE95C0916BC1589EA53 PUSH1 0x0 SHL PUSH2 0x55A5 JUMP JUMPDEST DUP2 MLOAD DUP4 MLOAD EQ PUSH2 0x3B7 JUMPI PUSH1 0x40 MLOAD PUSH32 0x8C379A000000000000000000000000000000000000000000000000000000000 DUP2 MSTORE PUSH1 0x4 ADD PUSH2 0x3AE SWAP1 PUSH2 0x825B JUMP JUMPDEST PUSH1 0x40 MLOAD DUP1 SWAP2 SUB SWAP1 REVERT JUMPDEST PUSH2 0x3E3 PUSH32 0x55F203AA50F16E213EF613D324F37A086C8DB69D4681A1A1FB14655AB7CC6AFF PUSH1 0x0 SHL PUSH2 0x55A5 JUMP JUMPDEST PUSH2 0x40F PUSH32 0xC8213E7D012CCB11824FBF947209FE9DB810DDEF149C562C1182BB464E41FB75 PUSH1 0x0 SHL PUSH2 0x55A5 JUMP JUMPDEST PUSH2 0x43B PUSH32 0xC2F5D4B98F0CE79934E027A09AA5F05C8979E8884AAA38FB053A55E1C1B70088 PUSH1 0x0 SHL PUSH2 0x55A5 JUMP JUMPDEST PUSH2 0x467 PUSH32 0x4AFB693150EBC803C9B9B407E29C0787BF450A039A687FDC6D36784D996C592B PUSH1 0x0 SHL PUSH2 0x55A5 JUMP JUMPDEST DUP1 MLOAD DUP4 MLOAD EQ PUSH2 0x4AB JUMPI PUSH1 0x40 MLOAD PUSH32 0x8C379A000000000000000000000000000000000000000000000000000000000 DUP2 MSTORE PUSH1 0x4 ADD PUSH2 0x4A2 SWAP1 PUSH2 0x821B JUMP JUMPDEST PUSH1 0x40 MLOAD DUP1 SWAP2 SUB SWAP1 REVERT JUMPDEST PUSH2 0x4D7 PUSH32 0x120F3E6026E3CCD889E2AA4AEF40ACD1BA4209E9570B5D59798F60951E78398A PUSH1 0x0 SHL PUSH2 0x55A5 JUMP JUMPDEST PUSH2 0x503 PUSH32 0x6AD3315E610968C7EF5617953002108D073F2069711C1769ABC1CDF1B45BCB76 PUSH1 0x0 SHL PUSH2 0x55A5 JUMP JUMPDEST PUSH2 0x52F PUSH32 0x7B8346FE2B001426A8DB8FF8C8864347FCA068A2C51CF79608051B38319E951C PUSH1 0x0 SHL PUSH2 0x55A5 JUMP JUMPDEST PUSH1 0x0 JUMPDEST DUP4 MLOAD DUP2 LT ISZERO PUSH2 0x673 JUMPI PUSH2 0x567 PUSH32 0x47B09443AD6B9C906A009BF0A6E80E9C6CCCAB9F1F6296500F807ACE8B289A6C PUSH1 0x0 SHL PUSH2 0x55A5 JUMP JUMPDEST PUSH2 0x593 PUSH32 0xDC4B9A05170CB35E930301CD2A6241261193DEE3B72B1583F895314E96D986E9 PUSH1 0x0 SHL PUSH2 0x55A5 JUMP JUMPDEST PUSH2 0x660 DUP5 DUP3 DUP2 MLOAD DUP2 LT PUSH2 0x5CF JUMPI PUSH32 0x4E487B7100000000000000000000000000000000000000000000000000000000 PUSH1 0x0 MSTORE PUSH1 0x32 PUSH1 0x4 MSTORE PUSH1 0x24 PUSH1 0x0 REVERT JUMPDEST PUSH1 0x20 MUL PUSH1 0x20 ADD ADD MLOAD DUP5 DUP4 DUP2 MLOAD DUP2 LT PUSH2 0x610 JUMPI PUSH32 0x4E487B7100000000000000000000000000000000000000000000000000000000 PUSH1 0x0 MSTORE PUSH1 0x32 PUSH1 0x4 MSTORE PUSH1 0x24 PUSH1 0x0 REVERT JUMPDEST PUSH1 0x20 MUL PUSH1 0x20 ADD ADD MLOAD PUSH1 0x2 DUP6 DUP6 DUP2 MLOAD DUP2 LT PUSH2 0x653 JUMPI PUSH32 0x4E487B7100000000000000000000000000000000000000000000000000000000 PUSH1 0x0 MSTORE PUSH1 0x32 PUSH1 0x4 MSTORE PUSH1 0x24 PUSH1 0x0 REVERT JUMPDEST PUSH1 0x20 MUL PUSH1 0x20 ADD ADD MLOAD PUSH2 0x55A8 JUMP JUMPDEST DUP1 DUP1 PUSH2 0x66B SWAP1 PUSH2 0x8621 JUMP JUMPDEST SWAP2 POP POP PUSH2 0x532 JUMP JUMPDEST POP PUSH1 0x1 PUSH1 0x0 DUP2 SWAP1 SSTORE POP POP POP POP JUMP JUMPDEST PUSH1 0x0 PUSH2 0x6AF PUSH32 0xFABC0AE6B2AD008967DD438286F56FDD7A9F5EE6CE7A2CC663BB946639C69E79 PUSH1 0x0 SHL PUSH2 0x55A5 JUMP JUMPDEST PUSH2 0x6DB PUSH32 0x45904B6703FE5652187E8881A0B316F2D848D27200AEBDE94DA1F3496EAE110A PUSH1 0x0 SHL PUSH2 0x55A5 JUMP JUMPDEST PUSH2 0x707 PUSH32 0x7D8AE90E468B980021FA75EA6366163F9F268DBAAC1652D74279EB072F939B8E PUSH1 0x0 SHL PUSH2 0x55A5 JUMP JUMPDEST PUSH1 0x0 PUSH2 0x735 PUSH32 0xF3D05D0E26E3FC313F3FB6E9DC2E6AB27B89031BE7EE9F3543F81190F8FC00E1 PUSH1 0x0 SHL PUSH2 0x55A5 JUMP JUMPDEST PUSH2 0x761 PUSH32 0x1CE58042463B9F02A10FFC238CFE661880FD109CB126715373F7C72F93C45F53 PUSH1 0x0 SHL PUSH2 0x55A5 JUMP JUMPDEST PUSH1 0x0 PUSH1 0x3 PUSH1 0x0 DUP8 PUSH20 0xFFFFFFFFFFFFFFFFFFFFFFFFFFFFFFFFFFFFFFFF AND PUSH20 0xFFFFFFFFFFFFFFFFFFFFFFFFFFFFFFFFFFFFFFFF AND DUP2 MSTORE PUSH1 0x20 ADD SWAP1 DUP2 MSTORE PUSH1 0x20 ADD PUSH1 0x0 KECCAK256 DUP1 SLOAD DUP1 PUSH1 0x20 MUL PUSH1 0x20 ADD PUSH1 0x40 MLOAD SWAP1 DUP2 ADD PUSH1 0x40 MSTORE DUP1 SWAP3 SWAP2 SWAP1 DUP2 DUP2 MSTORE PUSH1 0x20 ADD DUP3 DUP1 SLOAD DUP1 ISZERO PUSH2 0x7EC JUMPI PUSH1 0x20 MUL DUP3 ADD SWAP2 SWAP1 PUSH1 0x0 MSTORE PUSH1 0x20 PUSH1 0x0 KECCAK256 SWAP1 JUMPDEST DUP2 SLOAD DUP2 MSTORE PUSH1 0x20 ADD SWAP1 PUSH1 0x1 ADD SWAP1 DUP1 DUP4 GT PUSH2 0x7D8 JUMPI JUMPDEST POP POP POP POP POP SWAP1 POP PUSH2 0x81F PUSH32 0x9B7BE32BF7735389781830D5C41B728F2EDB7A7FB3D31D38899774EBC91238FD PUSH1 0x0 SHL PUSH2 0x55A5 JUMP JUMPDEST PUSH2 0x84B PUSH32 0x370F64D0535346CB0D2E21A8622CC2C914BE672C42E67595EBEC5352C8186642 PUSH1 0x0 SHL PUSH2 0x55A5 JUMP JUMPDEST PUSH1 0x0 PUSH2 0x879 PUSH32 0xDEEB61F89F80D24C37B28D995725A13992A762344F42D4DA3E60277D9395B8D5 PUSH1 0x0 SHL PUSH2 0x55A5 JUMP JUMPDEST PUSH2 0x8A5 PUSH32 0x4054EF2BCAD1B721F7CC91E6EA7E4B1F074A4EA0BCF0F79D76ACE2389C488570 PUSH1 0x0 SHL PUSH2 0x55A5 JUMP JUMPDEST PUSH1 0x0 JUMPDEST DUP3 MLOAD DUP2 LT ISZERO PUSH2 0xD73 JUMPI PUSH2 0x8DD PUSH32 0x4B12BDA2BA3C04E9EB9ADC649707D8E6BD9574C3235DFD3ED466252339A02EFA PUSH1 0x0 SHL PUSH2 0x55A5 JUMP JUMPDEST PUSH2 0x909 PUSH32 0xD061B1446FAA6B5B823D3ED8A777FA26F07AC0A093EAFA307F8C678441BD6723 PUSH1 0x0 SHL PUSH2 0x55A5 JUMP JUMPDEST PUSH1 0x0 PUSH1 0x1 PUSH1 0x0 DUP6 DUP5 DUP2 MLOAD DUP2 LT PUSH2 0x948 JUMPI PUSH32 0x4E487B7100000000000000000000000000000000000000000000000000000000 PUSH1 0x0 MSTORE PUSH1 0x32 PUSH1 0x4 MSTORE PUSH1 0x24 PUSH1 0x0 REVERT JUMPDEST PUSH1 0x20 MUL PUSH1 0x20 ADD ADD MLOAD DUP2 MSTORE PUSH1 0x20 ADD SWAP1 DUP2 MSTORE PUSH1 0x20 ADD PUSH1 0x0 KECCAK256 DUP1 SLOAD DUP1 PUSH1 0x20 MUL PUSH1 0x20 ADD PUSH1 0x40 MLOAD SWAP1 DUP2 ADD PUSH1 0x40 MSTORE DUP1 SWAP3 SWAP2 SWAP1 DUP2 DUP2 MSTORE PUSH1 0x20 ADD PUSH1 0x0 SWAP1 JUMPDEST DUP3 DUP3 LT ISZERO PUSH2 0xB4D JUMPI DUP4 DUP3 SWAP1 PUSH1 0x0 MSTORE PUSH1 0x20 PUSH1 0x0 KECCAK256 SWAP1 PUSH1 0x4 MUL ADD PUSH1 0x40 MLOAD DUP1 PUSH1 0xE0 ADD PUSH1 0x40 MSTORE SWAP1 DUP2 PUSH1 0x0 DUP3 ADD DUP1 SLOAD PUSH2 0x9B1 SWAP1 PUSH2 0x85BE JUMP JUMPDEST DUP1 PUSH1 0x1F ADD PUSH1 0x20 DUP1 SWAP2 DIV MUL PUSH1 0x20 ADD PUSH1 0x40 MLOAD SWAP1 DUP2 ADD PUSH1 0x40 MSTORE DUP1 SWAP3 SWAP2 SWAP1 DUP2 DUP2 MSTORE PUSH1 0x20 ADD DUP3 DUP1 SLOAD PUSH2 0x9DD SWAP1 PUSH2 0x85BE JUMP JUMPDEST DUP1 ISZERO PUSH2 0xA2A JUMPI DUP1 PUSH1 0x1F LT PUSH2 0x9FF JUMPI PUSH2 0x100 DUP1 DUP4 SLOAD DIV MUL DUP4 MSTORE SWAP2 PUSH1 0x20 ADD SWAP2 PUSH2 0xA2A JUMP JUMPDEST DUP3 ADD SWAP2 SWAP1 PUSH1 0x0 MSTORE PUSH1 0x20 PUSH1 0x0 KECCAK256 SWAP1 JUMPDEST DUP2 SLOAD DUP2 MSTORE SWAP1 PUSH1 0x1 ADD SWAP1 PUSH1 0x20 ADD DUP1 DUP4 GT PUSH2 0xA0D JUMPI DUP3 SWAP1 SUB PUSH1 0x1F AND DUP3 ADD SWAP2 JUMPDEST POP POP POP POP POP DUP2 MSTORE PUSH1 0x20 ADD PUSH1 0x1 DUP3 ADD SLOAD DUP2 MSTORE PUSH1 0x20 ADD PUSH1 0x2 DUP3 ADD PUSH1 0x0 SWAP1 SLOAD SWAP1 PUSH2 0x100 EXP SWAP1 DIV PUSH20 0xFFFFFFFFFFFFFFFFFFFFFFFFFFFFFFFFFFFFFFFF AND PUSH20 0xFFFFFFFFFFFFFFFFFFFFFFFFFFFFFFFFFFFFFFFF AND PUSH20 0xFFFFFFFFFFFFFFFFFFFFFFFFFFFFFFFFFFFFFFFF AND DUP2 MSTORE PUSH1 0x20 ADD PUSH1 0x3 DUP3 ADD PUSH1 0x0 SWAP1 SLOAD SWAP1 PUSH2 0x100 EXP SWAP1 DIV PUSH20 0xFFFFFFFFFFFFFFFFFFFFFFFFFFFFFFFFFFFFFFFF AND PUSH20 0xFFFFFFFFFFFFFFFFFFFFFFFFFFFFFFFFFFFFFFFF AND PUSH20 0xFFFFFFFFFFFFFFFFFFFFFFFFFFFFFFFFFFFFFFFF AND DUP2 MSTORE PUSH1 0x20 ADD PUSH1 0x3 DUP3 ADD PUSH1 0x14 SWAP1 SLOAD SWAP1 PUSH2 0x100 EXP SWAP1 DIV PUSH1 0xFF AND PUSH1 0xFF AND PUSH1 0xFF AND DUP2 MSTORE PUSH1 0x20 ADD PUSH1 0x3 DUP3 ADD PUSH1 0x15 SWAP1 SLOAD SWAP1 PUSH2 0x100 EXP SWAP1 DIV PUSH1 0xFF AND PUSH1 0xFF AND PUSH1 0xFF AND DUP2 MSTORE PUSH1 0x20 ADD PUSH1 0x3 DUP3 ADD PUSH1 0x16 SWAP1 SLOAD SWAP1 PUSH2 0x100 EXP SWAP1 DIV PUSH1 0xFF AND ISZERO ISZERO ISZERO ISZERO DUP2 MSTORE POP POP DUP2 MSTORE PUSH1 0x20 ADD SWAP1 PUSH1 0x1 ADD SWAP1 PUSH2 0x97E JUMP JUMPDEST POP POP POP POP SWAP1 POP PUSH2 0xB7F PUSH32 0x3F47569B0F4C766D7D772BE1BB3081443820FE53F82BFA0083A6290943C1CB3E PUSH1 0x0 SHL PUSH2 0x55A5 JUMP JUMPDEST PUSH2 0xBAB PUSH32 0x6B3DBC2E27B43BEF9DD0B119F2EDE503DCE40918CB071BF9ECE74458DAD90124 PUSH1 0x0 SHL PUSH2 0x55A5 JUMP JUMPDEST PUSH1 0x0 JUMPDEST DUP2 MLOAD DUP2 LT ISZERO PUSH2 0xD5E JUMPI PUSH2 0xBE3 PUSH32 0xDCCF07CC23BE5D556FEC7289DDA66FDB70F691B0550D1AB77DCD6385A1342952 PUSH1 0x0 SHL PUSH2 0x55A5 JUMP JUMPDEST PUSH2 0xC0F PUSH32 0x293D1B8E514AED002AC43114F179820B4D20ECF111FCDA5BA1DDF8A1D4FD7013 PUSH1 0x0 SHL PUSH2 0x55A5 JUMP JUMPDEST DUP9 DUP9 PUSH1 0x40 MLOAD PUSH2 0xC1F SWAP3 SWAP2 SWAP1 PUSH2 0x80F0 JUMP JUMPDEST PUSH1 0x40 MLOAD DUP1 SWAP2 SUB SWAP1 KECCAK256 DUP3 DUP5 DUP2 MLOAD DUP2 LT PUSH2 0xC60 JUMPI PUSH32 0x4E487B7100000000000000000000000000000000000000000000000000000000 PUSH1 0x0 MSTORE PUSH1 0x32 PUSH1 0x4 MSTORE PUSH1 0x24 PUSH1 0x0 REVERT JUMPDEST PUSH1 0x20 MUL PUSH1 0x20 ADD ADD MLOAD PUSH1 0x0 ADD MLOAD DUP1 MLOAD SWAP1 PUSH1 0x20 ADD KECCAK256 EQ ISZERO PUSH2 0xCE4 JUMPI PUSH2 0xCA5 PUSH32 0xBD62002383ADEB0663DDA15651B583CEB75C31561BB4014600C6388CFB4E6C11 PUSH1 0x0 SHL PUSH2 0x55A5 JUMP JUMPDEST PUSH2 0xCD1 PUSH32 0xA677B725F6BE7B89822010326718F8B04B384ED39CD4ACD1DE5A05218D3D969B PUSH1 0x0 SHL PUSH2 0x55A5 JUMP JUMPDEST DUP6 DUP1 PUSH2 0xCDC SWAP1 PUSH2 0x8621 JUMP JUMPDEST SWAP7 POP POP PUSH2 0xD11 JUMP JUMPDEST PUSH2 0xD10 PUSH32 0x5E82CA6B665B43698F6687D164B5FD65646218DF52D4CDBDDADFDF681904BDA7 PUSH1 0x0 SHL PUSH2 0x55A5 JUMP JUMPDEST JUMPDEST PUSH2 0xD3D PUSH32 0x4023BF8CA586AAC5E8FA32987E693E794009EB7007A770EDA00663978FDC55F7 PUSH1 0x0 SHL PUSH2 0x55A5 JUMP JUMPDEST DUP4 DUP1 PUSH2 0xD48 SWAP1 PUSH2 0x8621 JUMP JUMPDEST SWAP5 POP POP DUP1 DUP1 PUSH2 0xD56 SWAP1 PUSH2 0x8621 JUMP JUMPDEST SWAP2 POP POP PUSH2 0xBAE JUMP JUMPDEST POP POP DUP1 DUP1 PUSH2 0xD6B SWAP1 PUSH2 0x8621 JUMP JUMPDEST SWAP2 POP POP PUSH2 0x8A8 JUMP JUMPDEST POP PUSH2 0xDA0 PUSH32 0xAE7CCC1238D9CFCDC30BDFEB1701795F9DD3E3981B992D51960891E3CE41CCE9 PUSH1 0x0 SHL PUSH2 0x55A5 JUMP JUMPDEST PUSH2 0xDCC PUSH32 0x84024E72152DDD30F2941AB6EE536C897013E60B83718FD844F71B1191C56CEE PUSH1 0x0 SHL PUSH2 0x55A5 JUMP JUMPDEST DUP3 SWAP4 POP POP POP POP SWAP4 SWAP3 POP POP POP JUMP JUMPDEST PUSH1 0x2 PUSH1 0x0 SLOAD EQ ISZERO PUSH2 0xE1F JUMPI PUSH1 0x40 MLOAD PUSH32 0x8C379A000000000000000000000000000000000000000000000000000000000 DUP2 MSTORE PUSH1 0x4 ADD PUSH2 0xE16 SWAP1 PUSH2 0x827B JUMP JUMPDEST PUSH1 0x40 MLOAD DUP1 SWAP2 SUB SWAP1 REVERT JUMPDEST PUSH1 0x2 PUSH1 0x0 DUP2 SWAP1 SSTORE POP PUSH2 0xE53 PUSH32 0x296B5783D6FF777135C28B98E79CD24D43C079525731F443393D617226C5B87C PUSH1 0x0 SHL PUSH2 0x55A5 JUMP JUMPDEST PUSH2 0xE7F PUSH32 0xEF02C3B67AA5D08584849F107CF97E6C3ADA43D270BE1BCA098C41BEDFB968A8 PUSH1 0x0 SHL PUSH2 0x55A5 JUMP JUMPDEST PUSH2 0xEAB PUSH32 0x68B6027D5A4D26751C5D13EBA0DDDC938F57C42FC5130C3E62BA96E8CADF7E7E PUSH1 0x0 SHL PUSH2 0x55A5 JUMP JUMPDEST PUSH2 0xED7 PUSH32 0xE96C886F6B94AFAB86A0E0290FA338E96C54A0BC32BE917217BCB28D530BD85F PUSH1 0x0 SHL PUSH2 0x55A5 JUMP JUMPDEST DUP2 MLOAD DUP4 MLOAD EQ PUSH2 0xF1B JUMPI PUSH1 0x40 MLOAD PUSH32 0x8C379A000000000000000000000000000000000000000000000000000000000 DUP2 MSTORE PUSH1 0x4 ADD PUSH2 0xF12 SWAP1 PUSH2 0x825B JUMP JUMPDEST PUSH1 0x40 MLOAD DUP1 SWAP2 SUB SWAP1 REVERT JUMPDEST PUSH2 0xF46 PUSH31 0xD6ED4F3C73C35D46B88B7019CD55124C435DEEC0C865ABC8D5C317A13BDB06 PUSH1 0x0 SHL PUSH2 0x55A5 JUMP JUMPDEST PUSH2 0xF72 PUSH32 0xF9039E7DBB7B77D595E9C9D09C377F7E73B020161AA29F070586A3C97E2ABCFB PUSH1 0x0 SHL PUSH2 0x55A5 JUMP JUMPDEST PUSH2 0xF9E PUSH32 0x21F8DEC86290A3056D9E7A6C588256A6125D28570E5FA65300777722813C0416 PUSH1 0x0 SHL PUSH2 0x55A5 JUMP JUMPDEST PUSH2 0xFCA PUSH32 0x38C2A31EF7B734BF42835ED23C15E462E09C7689EA38BC8C4E8A715A9CBA9C94 PUSH1 0x0 SHL PUSH2 0x55A5 JUMP JUMPDEST DUP1 MLOAD DUP4 MLOAD EQ PUSH2 0x100E JUMPI PUSH1 0x40 MLOAD PUSH32 0x8C379A000000000000000000000000000000000000000000000000000000000 DUP2 MSTORE PUSH1 0x4 ADD PUSH2 0x1005 SWAP1 PUSH2 0x821B JUMP JUMPDEST PUSH1 0x40 MLOAD DUP1 SWAP2 SUB SWAP1 REVERT JUMPDEST PUSH2 0x103A PUSH32 0xFFE54561B2C5D37547A8E9C0B6B009E124428530F2B35BED4F022B926D21E8BA PUSH1 0x0 SHL PUSH2 0x55A5 JUMP JUMPDEST PUSH2 0x1066 PUSH32 0x1E1A64E0B6F9BAB8804C69150287CBE726C180A6E2A9F15FA64725D4D9B592D9 PUSH1 0x0 SHL PUSH2 0x55A5 JUMP JUMPDEST PUSH2 0x1092 PUSH32 0xF25A26209F84B743E5750F858C904182F369C13D49286E309DA4DB17D4E454E6 PUSH1 0x0 SHL PUSH2 0x55A5 JUMP JUMPDEST PUSH1 0x0 JUMPDEST DUP4 MLOAD DUP2 LT ISZERO PUSH2 0x11D6 JUMPI PUSH2 0x10CA PUSH32 0x6D5D93D4D666F39E3635F878AB1D6B1CDAB1BADF6F0133EB352306D3544C59F6 PUSH1 0x0 SHL PUSH2 0x55A5 JUMP JUMPDEST PUSH2 0x10F6 PUSH32 0x7D29E25132A85BAD7441588A2552C5E5AD3ACF709ED817A11FA51CF14958F45D PUSH1 0x0 SHL PUSH2 0x55A5 JUMP JUMPDEST PUSH2 0x11C3 DUP5 DUP3 DUP2 MLOAD DUP2 LT PUSH2 0x1132 JUMPI PUSH32 0x4E487B7100000000000000000000000000000000000000000000000000000000 PUSH1 0x0 MSTORE PUSH1 0x32 PUSH1 0x4 MSTORE PUSH1 0x24 PUSH1 0x0 REVERT JUMPDEST PUSH1 0x20 MUL PUSH1 0x20 ADD ADD MLOAD DUP5 DUP4 DUP2 MLOAD DUP2 LT PUSH2 0x1173 JUMPI PUSH32 0x4E487B7100000000000000000000000000000000000000000000000000000000 PUSH1 0x0 MSTORE PUSH1 0x32 PUSH1 0x4 MSTORE PUSH1 0x24 PUSH1 0x0 REVERT JUMPDEST PUSH1 0x20 MUL PUSH1 0x20 ADD ADD MLOAD PUSH1 0x1 DUP6 DUP6 DUP2 MLOAD DUP2 LT PUSH2 0x11B6 JUMPI PUSH32 0x4E487B7100000000000000000000000000000000000000000000000000000000 PUSH1 0x0 MSTORE PUSH1 0x32 PUSH1 0x4 MSTORE PUSH1 0x24 PUSH1 0x0 REVERT JUMPDEST PUSH1 0x20 MUL PUSH1 0x20 ADD ADD MLOAD PUSH2 0x55A8 JUMP JUMPDEST DUP1 DUP1 PUSH2 0x11CE SWAP1 PUSH2 0x8621 JUMP JUMPDEST SWAP2 POP POP PUSH2 0x1095 JUMP JUMPDEST POP PUSH1 0x1 PUSH1 0x0 DUP2 SWAP1 SSTORE POP POP POP POP JUMP JUMPDEST PUSH1 0x60 PUSH2 0x1212 PUSH32 0x222BD5C3C60B207BC6C93B63F280DF1D8EE0664FAF2A65BA10D7E6AA8D227A23 PUSH1 0x0 SHL PUSH2 0x55A5 JUMP JUMPDEST PUSH2 0x123E PUSH32 0x33B970841F2C6FE739B21D5ED337B01D15D67CC56029FE918B7D6F22B0A7ED03 PUSH1 0x0 SHL PUSH2 0x55A5 JUMP JUMPDEST PUSH2 0x126A PUSH32 0x8B9CB3ED2CA9416564BE271B8F4BF006A0D89318C8BD24A118E84BD99965B9BC PUSH1 0x0 SHL PUSH2 0x55A5 JUMP JUMPDEST PUSH1 0x0 PUSH2 0x1298 PUSH32 0xF86D9CEB90330B5F7E16F3C0962294212EEC37CE00968674754EC3D970EB6F1A PUSH1 0x0 SHL PUSH2 0x55A5 JUMP JUMPDEST PUSH2 0x12C4 PUSH32 0xDA89B3D1A6820EE970A17FAD959EFF2D092CB4846605DCA04076CA5CBB0B7D60 PUSH1 0x0 SHL PUSH2 0x55A5 JUMP JUMPDEST PUSH1 0x0 PUSH1 0x2 PUSH1 0x0 CALLER PUSH20 0xFFFFFFFFFFFFFFFFFFFFFFFFFFFFFFFFFFFFFFFF AND PUSH20 0xFFFFFFFFFFFFFFFFFFFFFFFFFFFFFFFFFFFFFFFF AND DUP2 MSTORE PUSH1 0x20 ADD SWAP1 DUP2 MSTORE PUSH1 0x20 ADD PUSH1 0x0 KECCAK256 DUP1 SLOAD DUP1 PUSH1 0x20 MUL PUSH1 0x20 ADD PUSH1 0x40 MLOAD SWAP1 DUP2 ADD PUSH1 0x40 MSTORE DUP1 SWAP3 SWAP2 SWAP1 DUP2 DUP2 MSTORE PUSH1 0x20 ADD DUP3 DUP1 SLOAD DUP1 ISZERO PUSH2 0x134F JUMPI PUSH1 0x20 MUL DUP3 ADD SWAP2 SWAP1 PUSH1 0x0 MSTORE PUSH1 0x20 PUSH1 0x0 KECCAK256 SWAP1 JUMPDEST DUP2 SLOAD DUP2 MSTORE PUSH1 0x20 ADD SWAP1 PUSH1 0x1 ADD SWAP1 DUP1 DUP4 GT PUSH2 0x133B JUMPI JUMPDEST POP POP POP POP POP SWAP1 POP PUSH2 0x1382 PUSH32 0xC8FEEE1751F6BD166CC8D5D2AC1E82978364641FB2BA44784C2350763B51EE5F PUSH1 0x0 SHL PUSH2 0x55A5 JUMP JUMPDEST PUSH2 0x13AE PUSH32 0xEF6A6C6CCABB67335437EDA9E43C5CD482A052C201319992C63CD3CC3A27EC34 PUSH1 0x0 SHL PUSH2 0x55A5 JUMP JUMPDEST PUSH1 0x0 JUMPDEST DUP2 MLOAD DUP2 LT ISZERO PUSH2 0x1489 JUMPI PUSH2 0x13E6 PUSH32 0xCC4910AC7340514801008B98F4376365B8D6D25EA47F3CCCF702F41C980C2549 PUSH1 0x0 SHL PUSH2 0x55A5 JUMP JUMPDEST PUSH2 0x1412 PUSH32 0xDBAFF91B5484FB8608ED4763A9380D51863BC0EECB837CF71173BBADBBB5E7D1 PUSH1 0x0 SHL PUSH2 0x55A5 JUMP JUMPDEST PUSH1 0x1 PUSH1 0x0 DUP4 DUP4 DUP2 MLOAD DUP2 LT PUSH2 0x144F JUMPI PUSH32 0x4E487B7100000000000000000000000000000000000000000000000000000000 PUSH1 0x0 MSTORE PUSH1 0x32 PUSH1 0x4 MSTORE PUSH1 0x24 PUSH1 0x0 REVERT JUMPDEST PUSH1 0x20 MUL PUSH1 0x20 ADD ADD MLOAD DUP2 MSTORE PUSH1 0x20 ADD SWAP1 DUP2 MSTORE PUSH1 0x20 ADD PUSH1 0x0 KECCAK256 DUP1 SLOAD SWAP1 POP DUP4 PUSH2 0x1474 SWAP2 SWAP1 PUSH2 0x848B JUMP JUMPDEST SWAP3 POP DUP1 DUP1 PUSH2 0x1481 SWAP1 PUSH2 0x8621 JUMP JUMPDEST SWAP2 POP POP PUSH2 0x13B1 JUMP JUMPDEST POP PUSH2 0x14B6 PUSH32 0x8CAD4BCCACA425F2B174B1CBCE0578B2DC73D0AB62F36378AF4C4B3C7EB0422D PUSH1 0x0 SHL PUSH2 0x55A5 JUMP JUMPDEST PUSH2 0x14E2 PUSH32 0xFB7D4DC8A90EEB933B8AC1088ED842E98FDD6B086EB93E30033834B0EC160756 PUSH1 0x0 SHL PUSH2 0x55A5 JUMP JUMPDEST PUSH1 0x0 DUP3 PUSH8 0xFFFFFFFFFFFFFFFF DUP2 GT ISZERO PUSH2 0x1524 JUMPI PUSH32 0x4E487B7100000000000000000000000000000000000000000000000000000000 PUSH1 0x0 MSTORE PUSH1 0x41 PUSH1 0x4 MSTORE PUSH1 0x24 PUSH1 0x0 REVERT JUMPDEST PUSH1 0x40 MLOAD SWAP1 DUP1 DUP3 MSTORE DUP1 PUSH1 0x20 MUL PUSH1 0x20 ADD DUP3 ADD PUSH1 0x40 MSTORE DUP1 ISZERO PUSH2 0x155D JUMPI DUP2 PUSH1 0x20 ADD JUMPDEST PUSH2 0x154A PUSH2 0x75FB JUMP JUMPDEST DUP2 MSTORE PUSH1 0x20 ADD SWAP1 PUSH1 0x1 SWAP1 SUB SWAP1 DUP2 PUSH2 0x1542 JUMPI SWAP1 POP JUMPDEST POP SWAP1 POP PUSH2 0x158C PUSH32 0xC6BBAE8D0E656826D22A164DBC7A632558DB9D4B02B991E82725EA8E867D4C46 PUSH1 0x0 SHL PUSH2 0x55A5 JUMP JUMPDEST PUSH2 0x15B8 PUSH32 0x44908B0F88C5BEE1A78CED16E0D2C87B30FD133E047051D8523AF19FAD108FF8 PUSH1 0x0 SHL PUSH2 0x55A5 JUMP JUMPDEST PUSH1 0x0 PUSH2 0x15E6 PUSH32 0x3D18168EDA3D8E2AD718873B04ED6F0194BEABECA9EFD009F33B4C73B4A72631 PUSH1 0x0 SHL PUSH2 0x55A5 JUMP JUMPDEST PUSH2 0x1612 PUSH32 0x62A415CA574CCC183F19407B64765F21778A9C989D771FDFD74CD3A5049B4474 PUSH1 0x0 SHL PUSH2 0x55A5 JUMP JUMPDEST PUSH1 0x0 JUMPDEST DUP4 MLOAD DUP2 LT ISZERO PUSH2 0x1A63 JUMPI PUSH2 0x164A PUSH32 0x89345C7A548D73C339A626AE9047F2993F511FA726F73460DF044523C7CD4374 PUSH1 0x0 SHL PUSH2 0x55A5 JUMP JUMPDEST PUSH2 0x1676 PUSH32 0xE8D122382ADD2474332DDBE6C087227525DA81175F64697B2C27A0D390D2977B PUSH1 0x0 SHL PUSH2 0x55A5 JUMP JUMPDEST PUSH1 0x0 PUSH1 0x1 PUSH1 0x0 DUP7 DUP5 DUP2 MLOAD DUP2 LT PUSH2 0x16B5 JUMPI PUSH32 0x4E487B7100000000000000000000000000000000000000000000000000000000 PUSH1 0x0 MSTORE PUSH1 0x32 PUSH1 0x4 MSTORE PUSH1 0x24 PUSH1 0x0 REVERT JUMPDEST PUSH1 0x20 MUL PUSH1 0x20 ADD ADD MLOAD DUP2 MSTORE PUSH1 0x20 ADD SWAP1 DUP2 MSTORE PUSH1 0x20 ADD PUSH1 0x0 KECCAK256 DUP1 SLOAD DUP1 PUSH1 0x20 MUL PUSH1 0x20 ADD PUSH1 0x40 MLOAD SWAP1 DUP2 ADD PUSH1 0x40 MSTORE DUP1 SWAP3 SWAP2 SWAP1 DUP2 DUP2 MSTORE PUSH1 0x20 ADD PUSH1 0x0 SWAP1 JUMPDEST DUP3 DUP3 LT ISZERO PUSH2 0x18BA JUMPI DUP4 DUP3 SWAP1 PUSH1 0x0 MSTORE PUSH1 0x20 PUSH1 0x0 KECCAK256 SWAP1 PUSH1 0x4 MUL ADD PUSH1 0x40 MLOAD DUP1 PUSH1 0xE0 ADD PUSH1 0x40 MSTORE SWAP1 DUP2 PUSH1 0x0 DUP3 ADD DUP1 SLOAD PUSH2 0x171E SWAP1 PUSH2 0x85BE JUMP JUMPDEST DUP1 PUSH1 0x1F ADD PUSH1 0x20 DUP1 SWAP2 DIV MUL PUSH1 0x20 ADD PUSH1 0x40 MLOAD SWAP1 DUP2 ADD PUSH1 0x40 MSTORE DUP1 SWAP3 SWAP2 SWAP1 DUP2 DUP2 MSTORE PUSH1 0x20 ADD DUP3 DUP1 SLOAD PUSH2 0x174A SWAP1 PUSH2 0x85BE JUMP JUMPDEST DUP1 ISZERO PUSH2 0x1797 JUMPI DUP1 PUSH1 0x1F LT PUSH2 0x176C JUMPI PUSH2 0x100 DUP1 DUP4 SLOAD DIV MUL DUP4 MSTORE SWAP2 PUSH1 0x20 ADD SWAP2 PUSH2 0x1797 JUMP JUMPDEST DUP3 ADD SWAP2 SWAP1 PUSH1 0x0 MSTORE PUSH1 0x20 PUSH1 0x0 KECCAK256 SWAP1 JUMPDEST DUP2 SLOAD DUP2 MSTORE SWAP1 PUSH1 0x1 ADD SWAP1 PUSH1 0x20 ADD DUP1 DUP4 GT PUSH2 0x177A JUMPI DUP3 SWAP1 SUB PUSH1 0x1F AND DUP3 ADD SWAP2 JUMPDEST POP POP POP POP POP DUP2 MSTORE PUSH1 0x20 ADD PUSH1 0x1 DUP3 ADD SLOAD DUP2 MSTORE PUSH1 0x20 ADD PUSH1 0x2 DUP3 ADD PUSH1 0x0 SWAP1 SLOAD SWAP1 PUSH2 0x100 EXP SWAP1 DIV PUSH20 0xFFFFFFFFFFFFFFFFFFFFFFFFFFFFFFFFFFFFFFFF AND PUSH20 0xFFFFFFFFFFFFFFFFFFFFFFFFFFFFFFFFFFFFFFFF AND PUSH20 0xFFFFFFFFFFFFFFFFFFFFFFFFFFFFFFFFFFFFFFFF AND DUP2 MSTORE PUSH1 0x20 ADD PUSH1 0x3 DUP3 ADD PUSH1 0x0 SWAP1 SLOAD SWAP1 PUSH2 0x100 EXP SWAP1 DIV PUSH20 0xFFFFFFFFFFFFFFFFFFFFFFFFFFFFFFFFFFFFFFFF AND PUSH20 0xFFFFFFFFFFFFFFFFFFFFFFFFFFFFFFFFFFFFFFFF AND PUSH20 0xFFFFFFFFFFFFFFFFFFFFFFFFFFFFFFFFFFFFFFFF AND DUP2 MSTORE PUSH1 0x20 ADD PUSH1 0x3 DUP3 ADD PUSH1 0x14 SWAP1 SLOAD SWAP1 PUSH2 0x100 EXP SWAP1 DIV PUSH1 0xFF AND PUSH1 0xFF AND PUSH1 0xFF AND DUP2 MSTORE PUSH1 0x20 ADD PUSH1 0x3 DUP3 ADD PUSH1 0x15 SWAP1 SLOAD SWAP1 PUSH2 0x100 EXP SWAP1 DIV PUSH1 0xFF AND PUSH1 0xFF AND PUSH1 0xFF AND DUP2 MSTORE PUSH1 0x20 ADD PUSH1 0x3 DUP3 ADD PUSH1 0x16 SWAP1 SLOAD SWAP1 PUSH2 0x100 EXP SWAP1 DIV PUSH1 0xFF AND ISZERO ISZERO ISZERO ISZERO DUP2 MSTORE POP POP DUP2 MSTORE PUSH1 0x20 ADD SWAP1 PUSH1 0x1 ADD SWAP1 PUSH2 0x16EB JUMP JUMPDEST POP POP POP POP SWAP1 POP PUSH2 0x18EC PUSH32 0x668B9123DD0B448D32735793C50501FDC32929B0AB69E8647DF6E34FBA14A855 PUSH1 0x0 SHL PUSH2 0x55A5 JUMP JUMPDEST PUSH2 0x1918 PUSH32 0x54357B50E80713E1D685C2410E34D8D0D8E09E44E1D9AA9AFE54733DEDB16CE0 PUSH1 0x0 SHL PUSH2 0x55A5 JUMP JUMPDEST PUSH1 0x0 JUMPDEST DUP2 MLOAD DUP2 LT ISZERO PUSH2 0x1A4E JUMPI PUSH2 0x1950 PUSH32 0x3B7C8CAF3BE9495E437AB2BA73DF0960D5CAFB8EE4C0872EC69608E5966B2D5A PUSH1 0x0 SHL PUSH2 0x55A5 JUMP JUMPDEST PUSH2 0x197C PUSH32 0x8E4333B1AC747524B764F899EC7735B80B61936E212E9F79ED1D9E3C8043CB14 PUSH1 0x0 SHL PUSH2 0x55A5 JUMP JUMPDEST DUP2 DUP2 DUP2 MLOAD DUP2 LT PUSH2 0x19B5 JUMPI PUSH32 0x4E487B7100000000000000000000000000000000000000000000000000000000 PUSH1 0x0 MSTORE PUSH1 0x32 PUSH1 0x4 MSTORE PUSH1 0x24 PUSH1 0x0 REVERT JUMPDEST PUSH1 0x20 MUL PUSH1 0x20 ADD ADD MLOAD DUP6 DUP6 DUP2 MLOAD DUP2 LT PUSH2 0x19F6 JUMPI PUSH32 0x4E487B7100000000000000000000000000000000000000000000000000000000 PUSH1 0x0 MSTORE PUSH1 0x32 PUSH1 0x4 MSTORE PUSH1 0x24 PUSH1 0x0 REVERT JUMPDEST PUSH1 0x20 MUL PUSH1 0x20 ADD ADD DUP2 SWAP1 MSTORE POP PUSH2 0x1A2D PUSH32 0xD84097BB7149014CCE2B20C00CEF04DC650F81775E4B6C72587F38079D2C53A6 PUSH1 0x0 SHL PUSH2 0x55A5 JUMP JUMPDEST DUP4 DUP1 PUSH2 0x1A38 SWAP1 PUSH2 0x8621 JUMP JUMPDEST SWAP5 POP POP DUP1 DUP1 PUSH2 0x1A46 SWAP1 PUSH2 0x8621 JUMP JUMPDEST SWAP2 POP POP PUSH2 0x191B JUMP JUMPDEST POP POP DUP1 DUP1 PUSH2 0x1A5B SWAP1 PUSH2 0x8621 JUMP JUMPDEST SWAP2 POP POP PUSH2 0x1615 JUMP JUMPDEST POP PUSH2 0x1A90 PUSH32 0xD308B0E293211AB0619236057F02623DAB12E7C538BEA8C6862FEF543C584FA9 PUSH1 0x0 SHL PUSH2 0x55A5 JUMP JUMPDEST PUSH2 0x1ABC PUSH32 0x1713012F2938473C6DBE0565EA0F85E007F54A310E159F8669806D1942E8CBA7 PUSH1 0x0 SHL PUSH2 0x55A5 JUMP JUMPDEST DUP2 SWAP5 POP POP POP POP POP SWAP1 JUMP JUMPDEST PUSH1 0x60 PUSH2 0x1AF4 PUSH32 0xAD6206ED1D944FC8B49676225681A4D9508DB11BA396257151FF180142A0DEE7 PUSH1 0x0 SHL PUSH2 0x55A5 JUMP JUMPDEST PUSH2 0x1B20 PUSH32 0x72768C1C3CC5CF295218E11FCFFA4FE188A35521F6BCECBEAD1B51C870144D31 PUSH1 0x0 SHL PUSH2 0x55A5 JUMP JUMPDEST PUSH2 0x1B4C PUSH32 0xA641166883BDE9C6BA5DF2C7BDA4548341969A924594496E7BF99F04C25D79F9 PUSH1 0x0 SHL PUSH2 0x55A5 JUMP JUMPDEST PUSH1 0x0 PUSH2 0x1B7A PUSH32 0x11E7C5DDC2E68D6295C097688E70F297D26F759EDBE7663358BA3C8BE968379E PUSH1 0x0 SHL PUSH2 0x55A5 JUMP JUMPDEST PUSH2 0x1BA6 PUSH32 0xC33871C901941BD26759ECA95EB78E139F3C141E776F942C7E675AD232EA2446 PUSH1 0x0 SHL PUSH2 0x55A5 JUMP JUMPDEST PUSH1 0x0 PUSH1 0x3 PUSH1 0x0 CALLER PUSH20 0xFFFFFFFFFFFFFFFFFFFFFFFFFFFFFFFFFFFFFFFF AND PUSH20 0xFFFFFFFFFFFFFFFFFFFFFFFFFFFFFFFFFFFFFFFF AND DUP2 MSTORE PUSH1 0x20 ADD SWAP1 DUP2 MSTORE PUSH1 0x20 ADD PUSH1 0x0 KECCAK256 DUP1 SLOAD DUP1 PUSH1 0x20 MUL PUSH1 0x20 ADD PUSH1 0x40 MLOAD SWAP1 DUP2 ADD PUSH1 0x40 MSTORE DUP1 SWAP3 SWAP2 SWAP1 DUP2 DUP2 MSTORE PUSH1 0x20 ADD DUP3 DUP1 SLOAD DUP1 ISZERO PUSH2 0x1C31 JUMPI PUSH1 0x20 MUL DUP3 ADD SWAP2 SWAP1 PUSH1 0x0 MSTORE PUSH1 0x20 PUSH1 0x0 KECCAK256 SWAP1 JUMPDEST DUP2 SLOAD DUP2 MSTORE PUSH1 0x20 ADD SWAP1 PUSH1 0x1 ADD SWAP1 DUP1 DUP4 GT PUSH2 0x1C1D JUMPI JUMPDEST POP POP POP POP POP SWAP1 POP PUSH2 0x1C64 PUSH32 0x65A41DCA29515285F7D4A73A90C5BFD547A71558564E9EA13ED9C93466DE43A9 PUSH1 0x0 SHL PUSH2 0x55A5 JUMP JUMPDEST PUSH2 0x1C90 PUSH32 0x69DB9F7D211010A0508BFE8A3ABD855FD1C1AEA0F6A2B57146AFDB1A4972A71E PUSH1 0x0 SHL PUSH2 0x55A5 JUMP JUMPDEST PUSH1 0x0 PUSH2 0x1CBE PUSH32 0x4842FF640C4E8BEC22ECA7E262628D247A28EA3FCA6ACE094A971E51166E1FE2 PUSH1 0x0 SHL PUSH2 0x55A5 JUMP JUMPDEST PUSH2 0x1CEA PUSH32 0x257F3BD7522FC4E213D06B629EFFF15C1910E8DA4B4557595D82766293B0D9AC PUSH1 0x0 SHL PUSH2 0x55A5 JUMP JUMPDEST PUSH1 0x0 JUMPDEST DUP3 MLOAD DUP2 LT ISZERO PUSH2 0x215E JUMPI PUSH2 0x1D22 PUSH32 0xC2A385CED33EA3FE95B10490BF40ECA58778813CD41CC8E3F97B4DBD84D2BD49 PUSH1 0x0 SHL PUSH2 0x55A5 JUMP JUMPDEST PUSH2 0x1D4E PUSH32 0x4FA699D483984876D1E2A3A8853228353221B0088119C6B88068A047F2D57445 PUSH1 0x0 SHL PUSH2 0x55A5 JUMP JUMPDEST PUSH1 0x0 PUSH1 0x1 PUSH1 0x0 DUP6 DUP5 DUP2 MLOAD DUP2 LT PUSH2 0x1D8D JUMPI PUSH32 0x4E487B7100000000000000000000000000000000000000000000000000000000 PUSH1 0x0 MSTORE PUSH1 0x32 PUSH1 0x4 MSTORE PUSH1 0x24 PUSH1 0x0 REVERT JUMPDEST PUSH1 0x20 MUL PUSH1 0x20 ADD ADD MLOAD DUP2 MSTORE PUSH1 0x20 ADD SWAP1 DUP2 MSTORE PUSH1 0x20 ADD PUSH1 0x0 KECCAK256 DUP1 SLOAD DUP1 PUSH1 0x20 MUL PUSH1 0x20 ADD PUSH1 0x40 MLOAD SWAP1 DUP2 ADD PUSH1 0x40 MSTORE DUP1 SWAP3 SWAP2 SWAP1 DUP2 DUP2 MSTORE PUSH1 0x20 ADD PUSH1 0x0 SWAP1 JUMPDEST DUP3 DUP3 LT ISZERO PUSH2 0x1F92 JUMPI DUP4 DUP3 SWAP1 PUSH1 0x0 MSTORE PUSH1 0x20 PUSH1 0x0 KECCAK256 SWAP1 PUSH1 0x4 MUL ADD PUSH1 0x40 MLOAD DUP1 PUSH1 0xE0 ADD PUSH1 0x40 MSTORE SWAP1 DUP2 PUSH1 0x0 DUP3 ADD DUP1 SLOAD PUSH2 0x1DF6 SWAP1 PUSH2 0x85BE JUMP JUMPDEST DUP1 PUSH1 0x1F ADD PUSH1 0x20 DUP1 SWAP2 DIV MUL PUSH1 0x20 ADD PUSH1 0x40 MLOAD SWAP1 DUP2 ADD PUSH1 0x40 MSTORE DUP1 SWAP3 SWAP2 SWAP1 DUP2 DUP2 MSTORE PUSH1 0x20 ADD DUP3 DUP1 SLOAD PUSH2 0x1E22 SWAP1 PUSH2 0x85BE JUMP JUMPDEST DUP1 ISZERO PUSH2 0x1E6F JUMPI DUP1 PUSH1 0x1F LT PUSH2 0x1E44 JUMPI PUSH2 0x100 DUP1 DUP4 SLOAD DIV MUL DUP4 MSTORE SWAP2 PUSH1 0x20 ADD SWAP2 PUSH2 0x1E6F JUMP JUMPDEST DUP3 ADD SWAP2 SWAP1 PUSH1 0x0 MSTORE PUSH1 0x20 PUSH1 0x0 KECCAK256 SWAP1 JUMPDEST DUP2 SLOAD DUP2 MSTORE SWAP1 PUSH1 0x1 ADD SWAP1 PUSH1 0x20 ADD DUP1 DUP4 GT PUSH2 0x1E52 JUMPI DUP3 SWAP1 SUB PUSH1 0x1F AND DUP3 ADD SWAP2 JUMPDEST POP POP POP POP POP DUP2 MSTORE PUSH1 0x20 ADD PUSH1 0x1 DUP3 ADD SLOAD DUP2 MSTORE PUSH1 0x20 ADD PUSH1 0x2 DUP3 ADD PUSH1 0x0 SWAP1 SLOAD SWAP1 PUSH2 0x100 EXP SWAP1 DIV PUSH20 0xFFFFFFFFFFFFFFFFFFFFFFFFFFFFFFFFFFFFFFFF AND PUSH20 0xFFFFFFFFFFFFFFFFFFFFFFFFFFFFFFFFFFFFFFFF AND PUSH20 0xFFFFFFFFFFFFFFFFFFFFFFFFFFFFFFFFFFFFFFFF AND DUP2 MSTORE PUSH1 0x20 ADD PUSH1 0x3 DUP3 ADD PUSH1 0x0 SWAP1 SLOAD SWAP1 PUSH2 0x100 EXP SWAP1 DIV PUSH20 0xFFFFFFFFFFFFFFFFFFFFFFFFFFFFFFFFFFFFFFFF AND PUSH20 0xFFFFFFFFFFFFFFFFFFFFFFFFFFFFFFFFFFFFFFFF AND PUSH20 0xFFFFFFFFFFFFFFFFFFFFFFFFFFFFFFFFFFFFFFFF AND DUP2 MSTORE PUSH1 0x20 ADD PUSH1 0x3 DUP3 ADD PUSH1 0x14 SWAP1 SLOAD SWAP1 PUSH2 0x100 EXP SWAP1 DIV PUSH1 0xFF AND PUSH1 0xFF AND PUSH1 0xFF AND DUP2 MSTORE PUSH1 0x20 ADD PUSH1 0x3 DUP3 ADD PUSH1 0x15 SWAP1 SLOAD SWAP1 PUSH2 0x100 EXP SWAP1 DIV PUSH1 0xFF AND PUSH1 0xFF AND PUSH1 0xFF AND DUP2 MSTORE PUSH1 0x20 ADD PUSH1 0x3 DUP3 ADD PUSH1 0x16 SWAP1 SLOAD SWAP1 PUSH2 0x100 EXP SWAP1 DIV PUSH1 0xFF AND ISZERO ISZERO ISZERO ISZERO DUP2 MSTORE POP POP DUP2 MSTORE PUSH1 0x20 ADD SWAP1 PUSH1 0x1 ADD SWAP1 PUSH2 0x1DC3 JUMP JUMPDEST POP POP POP POP SWAP1 POP PUSH2 0x1FC4 PUSH32 0x2E5AADBAB38B4AD138FF95CD1314E48EB1CE2FFCB88BD7474E840D348CD217C5 PUSH1 0x0 SHL PUSH2 0x55A5 JUMP JUMPDEST PUSH2 0x1FF0 PUSH32 0xC6188A527919ED1692DE0F11B858F63480C26C58D0C97316BADECCCCF95F1ECC PUSH1 0x0 SHL PUSH2 0x55A5 JUMP JUMPDEST PUSH1 0x0 JUMPDEST DUP2 MLOAD DUP2 LT ISZERO PUSH2 0x2149 JUMPI PUSH2 0x2028 PUSH32 0x4137C928FA73878F4EAC334003FCEE907B8D51CA50CC787A3F854EBA75E0AB91 PUSH1 0x0 SHL PUSH2 0x55A5 JUMP JUMPDEST PUSH2 0x2054 PUSH32 0xFB51F2A388472D861B8957A7FE78496B4A8F771C31F60C8C93CA62085D798447 PUSH1 0x0 SHL PUSH2 0x55A5 JUMP JUMPDEST DUP2 DUP2 DUP2 MLOAD DUP2 LT PUSH2 0x208D JUMPI PUSH32 0x4E487B7100000000000000000000000000000000000000000000000000000000 PUSH1 0x0 MSTORE PUSH1 0x32 PUSH1 0x4 MSTORE PUSH1 0x24 PUSH1 0x0 REVERT JUMPDEST PUSH1 0x20 MUL PUSH1 0x20 ADD ADD MLOAD PUSH1 0xC0 ADD MLOAD ISZERO PUSH2 0x2109 JUMPI PUSH2 0x20CA PUSH32 0x57C0D03956A5AA0419BD7753BCB87B13FCF5A4932E6D81F3EC4D165C5114141F PUSH1 0x0 SHL PUSH2 0x55A5 JUMP JUMPDEST PUSH2 0x20F6 PUSH32 0x159957F85714E751ECB111F2BED780B88B53D348EEC47132E6010A89F94428F7 PUSH1 0x0 SHL PUSH2 0x55A5 JUMP JUMPDEST DUP6 DUP1 PUSH2 0x2101 SWAP1 PUSH2 0x8621 JUMP JUMPDEST SWAP7 POP POP PUSH2 0x2136 JUMP JUMPDEST PUSH2 0x2135 PUSH32 0x2C7A536A10B4EA5449AA2A553D0FC09F7F6B102CF963B5FE066A8B817DE8B6F3 PUSH1 0x0 SHL PUSH2 0x55A5 JUMP JUMPDEST JUMPDEST DUP1 DUP1 PUSH2 0x2141 SWAP1 PUSH2 0x8621 JUMP JUMPDEST SWAP2 POP POP PUSH2 0x1FF3 JUMP JUMPDEST POP POP DUP1 DUP1 PUSH2 0x2156 SWAP1 PUSH2 0x8621 JUMP JUMPDEST SWAP2 POP POP PUSH2 0x1CED JUMP JUMPDEST POP PUSH2 0x218B PUSH32 0xF8EE68F24503FEC4497A9AC0C120B2BC89ED7DFEDD2AA7C567CF60424E6104C8 PUSH1 0x0 SHL PUSH2 0x55A5 JUMP JUMPDEST PUSH2 0x21B7 PUSH32 0xCD71EB1C75989473A9B68CBE8DA397F3C7432360CDD4E5DD35AE4412AD6471D3 PUSH1 0x0 SHL PUSH2 0x55A5 JUMP JUMPDEST PUSH1 0x0 DUP4 PUSH8 0xFFFFFFFFFFFFFFFF DUP2 GT ISZERO PUSH2 0x21F9 JUMPI PUSH32 0x4E487B7100000000000000000000000000000000000000000000000000000000 PUSH1 0x0 MSTORE PUSH1 0x41 PUSH1 0x4 MSTORE PUSH1 0x24 PUSH1 0x0 REVERT JUMPDEST PUSH1 0x40 MLOAD SWAP1 DUP1 DUP3 MSTORE DUP1 PUSH1 0x20 MUL PUSH1 0x20 ADD DUP3 ADD PUSH1 0x40 MSTORE DUP1 ISZERO PUSH2 0x2232 JUMPI DUP2 PUSH1 0x20 ADD JUMPDEST PUSH2 0x221F PUSH2 0x75FB JUMP JUMPDEST DUP2 MSTORE PUSH1 0x20 ADD SWAP1 PUSH1 0x1 SWAP1 SUB SWAP1 DUP2 PUSH2 0x2217 JUMPI SWAP1 POP JUMPDEST POP SWAP1 POP PUSH2 0x2261 PUSH32 0xBDCCC5D7F87E296B249C97A33CB8EC5D7DF3D8081D356D5B45A37B48B98F037D PUSH1 0x0 SHL PUSH2 0x55A5 JUMP JUMPDEST PUSH2 0x228D PUSH32 0xFDE27B7F3517E798ADD8A57C171D8BE4A17C74DE0C25E18A6BEE3726B570BF71 PUSH1 0x0 SHL PUSH2 0x55A5 JUMP JUMPDEST PUSH1 0x0 JUMPDEST DUP4 MLOAD DUP2 LT ISZERO PUSH2 0x27DE JUMPI PUSH2 0x22C5 PUSH32 0x4B093BA129723397D09862C5B7828DCCE34DEA49A29F9851D0A3072F97E0341A PUSH1 0x0 SHL PUSH2 0x55A5 JUMP JUMPDEST PUSH2 0x22F1 PUSH32 0x1DD144B7BC76E89F8390E4538B78676DF4462A11BC9B922C3E7AA7FF11E49E6 PUSH1 0x0 SHL PUSH2 0x55A5 JUMP JUMPDEST PUSH1 0x0 PUSH1 0x1 PUSH1 0x0 DUP7 DUP5 DUP2 MLOAD DUP2 LT PUSH2 0x2330 JUMPI PUSH32 0x4E487B7100000000000000000000000000000000000000000000000000000000 PUSH1 0x0 MSTORE PUSH1 0x32 PUSH1 0x4 MSTORE PUSH1 0x24 PUSH1 0x0 REVERT JUMPDEST PUSH1 0x20 MUL PUSH1 0x20 ADD ADD MLOAD DUP2 MSTORE PUSH1 0x20 ADD SWAP1 DUP2 MSTORE PUSH1 0x20 ADD PUSH1 0x0 KECCAK256 DUP1 SLOAD DUP1 PUSH1 0x20 MUL PUSH1 0x20 ADD PUSH1 0x40 MLOAD SWAP1 DUP2 ADD PUSH1 0x40 MSTORE DUP1 SWAP3 SWAP2 SWAP1 DUP2 DUP2 MSTORE PUSH1 0x20 ADD PUSH1 0x0 SWAP1 JUMPDEST DUP3 DUP3 LT ISZERO PUSH2 0x2535 JUMPI DUP4 DUP3 SWAP1 PUSH1 0x0 MSTORE PUSH1 0x20 PUSH1 0x0 KECCAK256 SWAP1 PUSH1 0x4 MUL ADD PUSH1 0x40 MLOAD DUP1 PUSH1 0xE0 ADD PUSH1 0x40 MSTORE SWAP1 DUP2 PUSH1 0x0 DUP3 ADD DUP1 SLOAD PUSH2 0x2399 SWAP1 PUSH2 0x85BE JUMP JUMPDEST DUP1 PUSH1 0x1F ADD PUSH1 0x20 DUP1 SWAP2 DIV MUL PUSH1 0x20 ADD PUSH1 0x40 MLOAD SWAP1 DUP2 ADD PUSH1 0x40 MSTORE DUP1 SWAP3 SWAP2 SWAP1 DUP2 DUP2 MSTORE PUSH1 0x20 ADD DUP3 DUP1 SLOAD PUSH2 0x23C5 SWAP1 PUSH2 0x85BE JUMP JUMPDEST DUP1 ISZERO PUSH2 0x2412 JUMPI DUP1 PUSH1 0x1F LT PUSH2 0x23E7 JUMPI PUSH2 0x100 DUP1 DUP4 SLOAD DIV MUL DUP4 MSTORE SWAP2 PUSH1 0x20 ADD SWAP2 PUSH2 0x2412 JUMP JUMPDEST DUP3 ADD SWAP2 SWAP1 PUSH1 0x0 MSTORE PUSH1 0x20 PUSH1 0x0 KECCAK256 SWAP1 JUMPDEST DUP2 SLOAD DUP2 MSTORE SWAP1 PUSH1 0x1 ADD SWAP1 PUSH1 0x20 ADD DUP1 DUP4 GT PUSH2 0x23F5 JUMPI DUP3 SWAP1 SUB PUSH1 0x1F AND DUP3 ADD SWAP2 JUMPDEST POP POP POP POP POP DUP2 MSTORE PUSH1 0x20 ADD PUSH1 0x1 DUP3 ADD SLOAD DUP2 MSTORE PUSH1 0x20 ADD PUSH1 0x2 DUP3 ADD PUSH1 0x0 SWAP1 SLOAD SWAP1 PUSH2 0x100 EXP SWAP1 DIV PUSH20 0xFFFFFFFFFFFFFFFFFFFFFFFFFFFFFFFFFFFFFFFF AND PUSH20 0xFFFFFFFFFFFFFFFFFFFFFFFFFFFFFFFFFFFFFFFF AND PUSH20 0xFFFFFFFFFFFFFFFFFFFFFFFFFFFFFFFFFFFFFFFF AND DUP2 MSTORE PUSH1 0x20 ADD PUSH1 0x3 DUP3 ADD PUSH1 0x0 SWAP1 SLOAD SWAP1 PUSH2 0x100 EXP SWAP1 DIV PUSH20 0xFFFFFFFFFFFFFFFFFFFFFFFFFFFFFFFFFFFFFFFF AND PUSH20 0xFFFFFFFFFFFFFFFFFFFFFFFFFFFFFFFFFFFFFFFF AND PUSH20 0xFFFFFFFFFFFFFFFFFFFFFFFFFFFFFFFFFFFFFFFF AND DUP2 MSTORE PUSH1 0x20 ADD PUSH1 0x3 DUP3 ADD PUSH1 0x14 SWAP1 SLOAD SWAP1 PUSH2 0x100 EXP SWAP1 DIV PUSH1 0xFF AND PUSH1 0xFF AND PUSH1 0xFF AND DUP2 MSTORE PUSH1 0x20 ADD PUSH1 0x3 DUP3 ADD PUSH1 0x15 SWAP1 SLOAD SWAP1 PUSH2 0x100 EXP SWAP1 DIV PUSH1 0xFF AND PUSH1 0xFF AND PUSH1 0xFF AND DUP2 MSTORE PUSH1 0x20 ADD PUSH1 0x3 DUP3 ADD PUSH1 0x16 SWAP1 SLOAD SWAP1 PUSH2 0x100 EXP SWAP1 DIV PUSH1 0xFF AND ISZERO ISZERO ISZERO ISZERO DUP2 MSTORE POP POP DUP2 MSTORE PUSH1 0x20 ADD SWAP1 PUSH1 0x1 ADD SWAP1 PUSH2 0x2366 JUMP JUMPDEST POP POP POP POP SWAP1 POP PUSH2 0x2567 PUSH32 0x1D25A4572E5B43E6AD13E6AEF2A77AB8CFC84A45DF00A57970D2294BE4473DBF PUSH1 0x0 SHL PUSH2 0x55A5 JUMP JUMPDEST PUSH2 0x2593 PUSH32 0xD044879869DD767D40ADA8E5D04C491E4F6A09184B6DA47BF82CC0660B0925F2 PUSH1 0x0 SHL PUSH2 0x55A5 JUMP JUMPDEST PUSH1 0x0 JUMPDEST DUP2 MLOAD DUP2 LT ISZERO PUSH2 0x27C9 JUMPI PUSH2 0x25CB PUSH32 0xD8688389A6D2749BEBE5C9B05535FF01C22E2360E9F66F80F2EAFFD1F2E8BCFD PUSH1 0x0 SHL PUSH2 0x55A5 JUMP JUMPDEST PUSH2 0x25F7 PUSH32 0xC160EDDD79BCC37B560F1F48CF5891EF581023C46028421B890AF30E521D6EC3 PUSH1 0x0 SHL PUSH2 0x55A5 JUMP JUMPDEST DUP2 DUP2 DUP2 MLOAD DUP2 LT PUSH2 0x2630 JUMPI PUSH32 0x4E487B7100000000000000000000000000000000000000000000000000000000 PUSH1 0x0 MSTORE PUSH1 0x32 PUSH1 0x4 MSTORE PUSH1 0x24 PUSH1 0x0 REVERT JUMPDEST PUSH1 0x20 MUL PUSH1 0x20 ADD ADD MLOAD PUSH1 0xC0 ADD MLOAD ISZERO PUSH2 0x2789 JUMPI PUSH2 0x266D PUSH32 0x6BE84B3AAC49DEC470303B652C19738F59FEE74FD80E9F262991A013E5DD3688 PUSH1 0x0 SHL PUSH2 0x55A5 JUMP JUMPDEST PUSH2 0x2699 PUSH32 0xB4CCE98B5A4C3ED3972AED5CB02600605C32C4A439B5F6A403AC9D2580FE905E PUSH1 0x0 SHL PUSH2 0x55A5 JUMP JUMPDEST PUSH2 0x26C5 PUSH32 0x885EA0FFD9D8C5B0F2BCF4198C35B566F9DB76FC97E7E0DB303F5FC22F184975 PUSH1 0x0 SHL PUSH2 0x55A5 JUMP JUMPDEST DUP2 DUP2 DUP2 MLOAD DUP2 LT PUSH2 0x26FE JUMPI PUSH32 0x4E487B7100000000000000000000000000000000000000000000000000000000 PUSH1 0x0 MSTORE PUSH1 0x32 PUSH1 0x4 MSTORE PUSH1 0x24 PUSH1 0x0 REVERT JUMPDEST PUSH1 0x20 MUL PUSH1 0x20 ADD ADD MLOAD DUP5 DUP7 DUP2 MLOAD DUP2 LT PUSH2 0x273F JUMPI PUSH32 0x4E487B7100000000000000000000000000000000000000000000000000000000 PUSH1 0x0 MSTORE PUSH1 0x32 PUSH1 0x4 MSTORE PUSH1 0x24 PUSH1 0x0 REVERT JUMPDEST PUSH1 0x20 MUL PUSH1 0x20 ADD ADD DUP2 SWAP1 MSTORE POP PUSH2 0x2776 PUSH32 0x4BD4688547BFBD4A4E034DD8A99DF8C9E1341893C110A9FDB299A4756E9A31EF PUSH1 0x0 SHL PUSH2 0x55A5 JUMP JUMPDEST DUP5 DUP1 PUSH2 0x2781 SWAP1 PUSH2 0x8621 JUMP JUMPDEST SWAP6 POP POP PUSH2 0x27B6 JUMP JUMPDEST PUSH2 0x27B5 PUSH32 0xCD3566958C7F42143EB53AFE51BEE3766E338394ED7AAA6F1D3613CABFE9CD82 PUSH1 0x0 SHL PUSH2 0x55A5 JUMP JUMPDEST JUMPDEST DUP1 DUP1 PUSH2 0x27C1 SWAP1 PUSH2 0x8621 JUMP JUMPDEST SWAP2 POP POP PUSH2 0x2596 JUMP JUMPDEST POP POP DUP1 DUP1 PUSH2 0x27D6 SWAP1 PUSH2 0x8621 JUMP JUMPDEST SWAP2 POP POP PUSH2 0x2290 JUMP JUMPDEST POP PUSH2 0x280B PUSH32 0x9D37C55CFD143FFD9646690A068637AA5574C3967DF72CDFEBA69A734B00279C PUSH1 0x0 SHL PUSH2 0x55A5 JUMP JUMPDEST PUSH2 0x2837 PUSH32 0xE52D950F7BAA7E7CC9822AC0F9B0DA8D1625CA2139BD9E49E3C127C0FACAFF38 PUSH1 0x0 SHL PUSH2 0x55A5 JUMP JUMPDEST DUP1 SWAP5 POP POP POP POP POP SWAP1 JUMP JUMPDEST PUSH1 0x60 PUSH2 0x286F PUSH32 0x8F836ACE9F16AF12100566A1BB15A8BD46A7CC3E3C96F7EDF84EF77AD9E45D6B PUSH1 0x0 SHL PUSH2 0x55A5 JUMP JUMPDEST PUSH2 0x289B PUSH32 0x47936FEE125BFE93DA8E14A79C72441835628BDD1EDB497CD38A5797947803F9 PUSH1 0x0 SHL PUSH2 0x55A5 JUMP JUMPDEST PUSH2 0x28C7 PUSH32 0xBE20D91755CC0A7875A492A5AD5EE4395C711990D9A2CEE81BF0F526C473543D PUSH1 0x0 SHL PUSH2 0x55A5 JUMP JUMPDEST PUSH1 0x0 PUSH2 0x28F5 PUSH32 0x734F758D8F8C9F4E05D69B291D4C87862A31D008F5D7D2983C65B7C08A8FCAE4 PUSH1 0x0 SHL PUSH2 0x55A5 JUMP JUMPDEST PUSH2 0x2921 PUSH32 0x9A10F36028B814BFD210594B9F4F446554FD1DB55B0A9230BB4AEC4ED1571076 PUSH1 0x0 SHL PUSH2 0x55A5 JUMP JUMPDEST PUSH1 0x0 PUSH1 0x3 PUSH1 0x0 CALLER PUSH20 0xFFFFFFFFFFFFFFFFFFFFFFFFFFFFFFFFFFFFFFFF AND PUSH20 0xFFFFFFFFFFFFFFFFFFFFFFFFFFFFFFFFFFFFFFFF AND DUP2 MSTORE PUSH1 0x20 ADD SWAP1 DUP2 MSTORE PUSH1 0x20 ADD PUSH1 0x0 KECCAK256 DUP1 SLOAD DUP1 PUSH1 0x20 MUL PUSH1 0x20 ADD PUSH1 0x40 MLOAD SWAP1 DUP2 ADD PUSH1 0x40 MSTORE DUP1 SWAP3 SWAP2 SWAP1 DUP2 DUP2 MSTORE PUSH1 0x20 ADD DUP3 DUP1 SLOAD DUP1 ISZERO PUSH2 0x29AC JUMPI PUSH1 0x20 MUL DUP3 ADD SWAP2 SWAP1 PUSH1 0x0 MSTORE PUSH1 0x20 PUSH1 0x0 KECCAK256 SWAP1 JUMPDEST DUP2 SLOAD DUP2 MSTORE PUSH1 0x20 ADD SWAP1 PUSH1 0x1 ADD SWAP1 DUP1 DUP4 GT PUSH2 0x2998 JUMPI JUMPDEST POP POP POP POP POP SWAP1 POP PUSH2 0x29DF PUSH32 0x6900B700B10C8059B800C61BB5F0A4760084F1A523E344BBF9E8C22511FA72CF PUSH1 0x0 SHL PUSH2 0x55A5 JUMP JUMPDEST PUSH2 0x2A0B PUSH32 0x74275C4A970010ED2994C08E872A9343DA3D950847EA6BD21B921CD42587570 PUSH1 0x0 SHL PUSH2 0x55A5 JUMP JUMPDEST PUSH1 0x0 JUMPDEST DUP2 MLOAD DUP2 LT ISZERO PUSH2 0x2AE6 JUMPI PUSH2 0x2A43 PUSH32 0x3D2DD2FCDEFC969B4C256CF01804CCB632D9C41762A0B0AFB721C6354FE7AD65 PUSH1 0x0 SHL PUSH2 0x55A5 JUMP JUMPDEST PUSH2 0x2A6F PUSH32 0xD2DA66384332BC26D5E13F61E41CF56C19B09C4DF9BE80DBD3E616E1085C3AB9 PUSH1 0x0 SHL PUSH2 0x55A5 JUMP JUMPDEST PUSH1 0x1 PUSH1 0x0 DUP4 DUP4 DUP2 MLOAD DUP2 LT PUSH2 0x2AAC JUMPI PUSH32 0x4E487B7100000000000000000000000000000000000000000000000000000000 PUSH1 0x0 MSTORE PUSH1 0x32 PUSH1 0x4 MSTORE PUSH1 0x24 PUSH1 0x0 REVERT JUMPDEST PUSH1 0x20 MUL PUSH1 0x20 ADD ADD MLOAD DUP2 MSTORE PUSH1 0x20 ADD SWAP1 DUP2 MSTORE PUSH1 0x20 ADD PUSH1 0x0 KECCAK256 DUP1 SLOAD SWAP1 POP DUP4 PUSH2 0x2AD1 SWAP2 SWAP1 PUSH2 0x848B JUMP JUMPDEST SWAP3 POP DUP1 DUP1 PUSH2 0x2ADE SWAP1 PUSH2 0x8621 JUMP JUMPDEST SWAP2 POP POP PUSH2 0x2A0E JUMP JUMPDEST POP PUSH2 0x2B13 PUSH32 0xB5E67BFA225C8D1C79D21DC7209FADC562D0FC584154D9AC52F7546BCDBA2B39 PUSH1 0x0 SHL PUSH2 0x55A5 JUMP JUMPDEST PUSH2 0x2B3F PUSH32 0x6707E0BA162D204714ADB92118FDDAF7E34EEA61C8791B8B8D290574DA6E58B PUSH1 0x0 SHL PUSH2 0x55A5 JUMP JUMPDEST PUSH1 0x0 DUP3 PUSH8 0xFFFFFFFFFFFFFFFF DUP2 GT ISZERO PUSH2 0x2B81 JUMPI PUSH32 0x4E487B7100000000000000000000000000000000000000000000000000000000 PUSH1 0x0 MSTORE PUSH1 0x41 PUSH1 0x4 MSTORE PUSH1 0x24 PUSH1 0x0 REVERT JUMPDEST PUSH1 0x40 MLOAD SWAP1 DUP1 DUP3 MSTORE DUP1 PUSH1 0x20 MUL PUSH1 0x20 ADD DUP3 ADD PUSH1 0x40 MSTORE DUP1 ISZERO PUSH2 0x2BBA JUMPI DUP2 PUSH1 0x20 ADD JUMPDEST PUSH2 0x2BA7 PUSH2 0x75FB JUMP JUMPDEST DUP2 MSTORE PUSH1 0x20 ADD SWAP1 PUSH1 0x1 SWAP1 SUB SWAP1 DUP2 PUSH2 0x2B9F JUMPI SWAP1 POP JUMPDEST POP SWAP1 POP PUSH2 0x2BE9 PUSH32 0x84E8D720BD40D7CCF8B0EFDBEC8131EB1209E1B238BB32E57787B93E06A2324B PUSH1 0x0 SHL PUSH2 0x55A5 JUMP JUMPDEST PUSH2 0x2C15 PUSH32 0xCE06D370584663254270C9F2F07E920E321D01582C9B7CE5C553EA839F3EED78 PUSH1 0x0 SHL PUSH2 0x55A5 JUMP JUMPDEST PUSH1 0x0 PUSH2 0x2C43 PUSH32 0x7DB7C1D2D8114CBBF223DCFBA533C9B05D474B8EDAF6B93C8DB7C966299743C0 PUSH1 0x0 SHL PUSH2 0x55A5 JUMP JUMPDEST PUSH2 0x2C6F PUSH32 0x9B0E063FD8EDD5C792D59F8BAC934EF756337E86E2F8C0A71EB1ECD3E3A72AAB PUSH1 0x0 SHL PUSH2 0x55A5 JUMP JUMPDEST PUSH1 0x0 JUMPDEST DUP4 MLOAD DUP2 LT ISZERO PUSH2 0x30C0 JUMPI PUSH2 0x2CA7 PUSH32 0x65EBC68C04F854B76E1956929D07BC2CDE8EA1951EB9EE6FDF4CC3CC17D848ED PUSH1 0x0 SHL PUSH2 0x55A5 JUMP JUMPDEST PUSH2 0x2CD3 PUSH32 0x5559521831722FBF24C439D3A5A639EC36292D6298640FDD2F0AE082E47F55A2 PUSH1 0x0 SHL PUSH2 0x55A5 JUMP JUMPDEST PUSH1 0x0 PUSH1 0x1 PUSH1 0x0 DUP7 DUP5 DUP2 MLOAD DUP2 LT PUSH2 0x2D12 JUMPI PUSH32 0x4E487B7100000000000000000000000000000000000000000000000000000000 PUSH1 0x0 MSTORE PUSH1 0x32 PUSH1 0x4 MSTORE PUSH1 0x24 PUSH1 0x0 REVERT JUMPDEST PUSH1 0x20 MUL PUSH1 0x20 ADD ADD MLOAD DUP2 MSTORE PUSH1 0x20 ADD SWAP1 DUP2 MSTORE PUSH1 0x20 ADD PUSH1 0x0 KECCAK256 DUP1 SLOAD DUP1 PUSH1 0x20 MUL PUSH1 0x20 ADD PUSH1 0x40 MLOAD SWAP1 DUP2 ADD PUSH1 0x40 MSTORE DUP1 SWAP3 SWAP2 SWAP1 DUP2 DUP2 MSTORE PUSH1 0x20 ADD PUSH1 0x0 SWAP1 JUMPDEST DUP3 DUP3 LT ISZERO PUSH2 0x2F17 JUMPI DUP4 DUP3 SWAP1 PUSH1 0x0 MSTORE PUSH1 0x20 PUSH1 0x0 KECCAK256 SWAP1 PUSH1 0x4 MUL ADD PUSH1 0x40 MLOAD DUP1 PUSH1 0xE0 ADD PUSH1 0x40 MSTORE SWAP1 DUP2 PUSH1 0x0 DUP3 ADD DUP1 SLOAD PUSH2 0x2D7B SWAP1 PUSH2 0x85BE JUMP JUMPDEST DUP1 PUSH1 0x1F ADD PUSH1 0x20 DUP1 SWAP2 DIV MUL PUSH1 0x20 ADD PUSH1 0x40 MLOAD SWAP1 DUP2 ADD PUSH1 0x40 MSTORE DUP1 SWAP3 SWAP2 SWAP1 DUP2 DUP2 MSTORE PUSH1 0x20 ADD DUP3 DUP1 SLOAD PUSH2 0x2DA7 SWAP1 PUSH2 0x85BE JUMP JUMPDEST DUP1 ISZERO PUSH2 0x2DF4 JUMPI DUP1 PUSH1 0x1F LT PUSH2 0x2DC9 JUMPI PUSH2 0x100 DUP1 DUP4 SLOAD DIV MUL DUP4 MSTORE SWAP2 PUSH1 0x20 ADD SWAP2 PUSH2 0x2DF4 JUMP JUMPDEST DUP3 ADD SWAP2 SWAP1 PUSH1 0x0 MSTORE PUSH1 0x20 PUSH1 0x0 KECCAK256 SWAP1 JUMPDEST DUP2 SLOAD DUP2 MSTORE SWAP1 PUSH1 0x1 ADD SWAP1 PUSH1 0x20 ADD DUP1 DUP4 GT PUSH2 0x2DD7 JUMPI DUP3 SWAP1 SUB PUSH1 0x1F AND DUP3 ADD SWAP2 JUMPDEST POP POP POP POP POP DUP2 MSTORE PUSH1 0x20 ADD PUSH1 0x1 DUP3 ADD SLOAD DUP2 MSTORE PUSH1 0x20 ADD PUSH1 0x2 DUP3 ADD PUSH1 0x0 SWAP1 SLOAD SWAP1 PUSH2 0x100 EXP SWAP1 DIV PUSH20 0xFFFFFFFFFFFFFFFFFFFFFFFFFFFFFFFFFFFFFFFF AND PUSH20 0xFFFFFFFFFFFFFFFFFFFFFFFFFFFFFFFFFFFFFFFF AND PUSH20 0xFFFFFFFFFFFFFFFFFFFFFFFFFFFFFFFFFFFFFFFF AND DUP2 MSTORE PUSH1 0x20 ADD PUSH1 0x3 DUP3 ADD PUSH1 0x0 SWAP1 SLOAD SWAP1 PUSH2 0x100 EXP SWAP1 DIV PUSH20 0xFFFFFFFFFFFFFFFFFFFFFFFFFFFFFFFFFFFFFFFF AND PUSH20 0xFFFFFFFFFFFFFFFFFFFFFFFFFFFFFFFFFFFFFFFF AND PUSH20 0xFFFFFFFFFFFFFFFFFFFFFFFFFFFFFFFFFFFFFFFF AND DUP2 MSTORE PUSH1 0x20 ADD PUSH1 0x3 DUP3 ADD PUSH1 0x14 SWAP1 SLOAD SWAP1 PUSH2 0x100 EXP SWAP1 DIV PUSH1 0xFF AND PUSH1 0xFF AND PUSH1 0xFF AND DUP2 MSTORE PUSH1 0x20 ADD PUSH1 0x3 DUP3 ADD PUSH1 0x15 SWAP1 SLOAD SWAP1 PUSH2 0x100 EXP SWAP1 DIV PUSH1 0xFF AND PUSH1 0xFF AND PUSH1 0xFF AND DUP2 MSTORE PUSH1 0x20 ADD PUSH1 0x3 DUP3 ADD PUSH1 0x16 SWAP1 SLOAD SWAP1 PUSH2 0x100 EXP SWAP1 DIV PUSH1 0xFF AND ISZERO ISZERO ISZERO ISZERO DUP2 MSTORE POP POP DUP2 MSTORE PUSH1 0x20 ADD SWAP1 PUSH1 0x1 ADD SWAP1 PUSH2 0x2D48 JUMP JUMPDEST POP POP POP POP SWAP1 POP PUSH2 0x2F49 PUSH32 0x9527A8974C33D6D4BB4F55D041BA131EDE4D899466E087A03132E41217D9CD32 PUSH1 0x0 SHL PUSH2 0x55A5 JUMP JUMPDEST PUSH2 0x2F75 PUSH32 0x7A03CB84E8651C1563291DBEC1969F8EF760D6567FA70A0DE923A0D5F4203D84 PUSH1 0x0 SHL PUSH2 0x55A5 JUMP JUMPDEST PUSH1 0x0 JUMPDEST DUP2 MLOAD DUP2 LT ISZERO PUSH2 0x30AB JUMPI PUSH2 0x2FAD PUSH32 0x7F55289962B2A920CBCB7A2739BFA47910B3A04CFA97A565F82C6B89C240F8A2 PUSH1 0x0 SHL PUSH2 0x55A5 JUMP JUMPDEST PUSH2 0x2FD9 PUSH32 0x58A9495B12B90E23BC6227EF5D2873565BC33379C80C57122BDF06E79C51526D PUSH1 0x0 SHL PUSH2 0x55A5 JUMP JUMPDEST DUP2 DUP2 DUP2 MLOAD DUP2 LT PUSH2 0x3012 JUMPI PUSH32 0x4E487B7100000000000000000000000000000000000000000000000000000000 PUSH1 0x0 MSTORE PUSH1 0x32 PUSH1 0x4 MSTORE PUSH1 0x24 PUSH1 0x0 REVERT JUMPDEST PUSH1 0x20 MUL PUSH1 0x20 ADD ADD MLOAD DUP6 DUP6 DUP2 MLOAD DUP2 LT PUSH2 0x3053 JUMPI PUSH32 0x4E487B7100000000000000000000000000000000000000000000000000000000 PUSH1 0x0 MSTORE PUSH1 0x32 PUSH1 0x4 MSTORE PUSH1 0x24 PUSH1 0x0 REVERT JUMPDEST PUSH1 0x20 MUL PUSH1 0x20 ADD ADD DUP2 SWAP1 MSTORE POP PUSH2 0x308A PUSH32 0x71840E5E01B7B978014869A332B1147B036955469C3A5DFC4C6144EABA278FDC PUSH1 0x0 SHL PUSH2 0x55A5 JUMP JUMPDEST DUP4 DUP1 PUSH2 0x3095 SWAP1 PUSH2 0x8621 JUMP JUMPDEST SWAP5 POP POP DUP1 DUP1 PUSH2 0x30A3 SWAP1 PUSH2 0x8621 JUMP JUMPDEST SWAP2 POP POP PUSH2 0x2F78 JUMP JUMPDEST POP POP DUP1 DUP1 PUSH2 0x30B8 SWAP1 PUSH2 0x8621 JUMP JUMPDEST SWAP2 POP POP PUSH2 0x2C72 JUMP JUMPDEST POP PUSH2 0x30ED PUSH32 0x5DC11C95BA7355164C5EE96B3BCE3CE8794A72CFE432D605E5EC8C8A4B6412C PUSH1 0x0 SHL PUSH2 0x55A5 JUMP JUMPDEST PUSH2 0x3119 PUSH32 0xCE631827F523DEE1C0D90CC3BB88F04EA89CAEA28FEC6A0317576739B31B43BE PUSH1 0x0 SHL PUSH2 0x55A5 JUMP JUMPDEST DUP2 SWAP5 POP POP POP POP POP SWAP1 JUMP JUMPDEST PUSH1 0x4 DUP1 SLOAD PUSH2 0x3130 SWAP1 PUSH2 0x85BE JUMP JUMPDEST DUP1 PUSH1 0x1F ADD PUSH1 0x20 DUP1 SWAP2 DIV MUL PUSH1 0x20 ADD PUSH1 0x40 MLOAD SWAP1 DUP2 ADD PUSH1 0x40 MSTORE DUP1 SWAP3 SWAP2 SWAP1 DUP2 DUP2 MSTORE PUSH1 0x20 ADD DUP3 DUP1 SLOAD PUSH2 0x315C SWAP1 PUSH2 0x85BE JUMP JUMPDEST DUP1 ISZERO PUSH2 0x31A9 JUMPI DUP1 PUSH1 0x1F LT PUSH2 0x317E JUMPI PUSH2 0x100 DUP1 DUP4 SLOAD DIV MUL DUP4 MSTORE SWAP2 PUSH1 0x20 ADD SWAP2 PUSH2 0x31A9 JUMP JUMPDEST DUP3 ADD SWAP2 SWAP1 PUSH1 0x0 MSTORE PUSH1 0x20 PUSH1 0x0 KECCAK256 SWAP1 JUMPDEST DUP2 SLOAD DUP2 MSTORE SWAP1 PUSH1 0x1 ADD SWAP1 PUSH1 0x20 ADD DUP1 DUP4 GT PUSH2 0x318C JUMPI DUP3 SWAP1 SUB PUSH1 0x1F AND DUP3 ADD SWAP2 JUMPDEST POP POP POP POP POP DUP2 JUMP JUMPDEST PUSH1 0x60 PUSH2 0x31DF PUSH32 0x63276596C358BD1154B1CCBC35C3BB881E337671A79D5FF41F0CC509BE6FA8DB PUSH1 0x0 SHL PUSH2 0x55A5 JUMP JUMPDEST PUSH2 0x320B PUSH32 0xD47552340FCD501ACEA69F4472E1F5C554D91CD3C29A8CABFDBA34E2AFB90DA9 PUSH1 0x0 SHL PUSH2 0x55A5 JUMP JUMPDEST PUSH2 0x3237 PUSH32 0xDB0B76A0DCE10B2C616AA1471CD7E36A8BCA49A227C1FA3FF435FCA911A30787 PUSH1 0x0 SHL PUSH2 0x55A5 JUMP JUMPDEST PUSH1 0x0 PUSH2 0x3265 PUSH32 0xD1716A729A89F69D72600F9179565B94F6A653437DE7494AC79F6E267A4EB9E3 PUSH1 0x0 SHL PUSH2 0x55A5 JUMP JUMPDEST PUSH2 0x3291 PUSH32 0xD1A4B36A0259BA81D9DF120E50DEDFA0CA8F2CE16591750F9A8B52CECF3CF783 PUSH1 0x0 SHL PUSH2 0x55A5 JUMP JUMPDEST PUSH1 0x0 PUSH1 0x2 PUSH1 0x0 CALLER PUSH20 0xFFFFFFFFFFFFFFFFFFFFFFFFFFFFFFFFFFFFFFFF AND PUSH20 0xFFFFFFFFFFFFFFFFFFFFFFFFFFFFFFFFFFFFFFFF AND DUP2 MSTORE PUSH1 0x20 ADD SWAP1 DUP2 MSTORE PUSH1 0x20 ADD PUSH1 0x0 KECCAK256 DUP1 SLOAD DUP1 PUSH1 0x20 MUL PUSH1 0x20 ADD PUSH1 0x40 MLOAD SWAP1 DUP2 ADD PUSH1 0x40 MSTORE DUP1 SWAP3 SWAP2 SWAP1 DUP2 DUP2 MSTORE PUSH1 0x20 ADD DUP3 DUP1 SLOAD DUP1 ISZERO PUSH2 0x331C JUMPI PUSH1 0x20 MUL DUP3 ADD SWAP2 SWAP1 PUSH1 0x0 MSTORE PUSH1 0x20 PUSH1 0x0 KECCAK256 SWAP1 JUMPDEST DUP2 SLOAD DUP2 MSTORE PUSH1 0x20 ADD SWAP1 PUSH1 0x1 ADD SWAP1 DUP1 DUP4 GT PUSH2 0x3308 JUMPI JUMPDEST POP POP POP POP POP SWAP1 POP PUSH2 0x334F PUSH32 0x513A72309A2A8D7A8094C5887B6FB62B8C25DB21579393274F45E9133CD0D2E PUSH1 0x0 SHL PUSH2 0x55A5 JUMP JUMPDEST PUSH2 0x337B PUSH32 0x113AFC036953B4909E0635F0741A0BF8FE4B5EF556A78795C768CA79EF770668 PUSH1 0x0 SHL PUSH2 0x55A5 JUMP JUMPDEST PUSH1 0x0 PUSH2 0x33A9 PUSH32 0xECDA4A5019FA6F29CC5817D8C535C33FC1B0912763A43AE059B499102972978 PUSH1 0x0 SHL PUSH2 0x55A5 JUMP JUMPDEST PUSH2 0x33D5 PUSH32 0x88E63CF5E013C950455C818379506489606DD0B9EBDA5AF3A3630CA0D877E2E5 PUSH1 0x0 SHL PUSH2 0x55A5 JUMP JUMPDEST PUSH1 0x0 JUMPDEST DUP3 MLOAD DUP2 LT ISZERO PUSH2 0x3849 JUMPI PUSH2 0x340D PUSH32 0x18BF3C9E77BC5454590B39419FD6A0AFE4342BE7BE03FB33E5541B993A0A6CBB PUSH1 0x0 SHL PUSH2 0x55A5 JUMP JUMPDEST PUSH2 0x3439 PUSH32 0xC149372D9057FC7505C5A5C907FE0AADF90E0232A921F7EB32698A7B5EB070F4 PUSH1 0x0 SHL PUSH2 0x55A5 JUMP JUMPDEST PUSH1 0x0 PUSH1 0x1 PUSH1 0x0 DUP6 DUP5 DUP2 MLOAD DUP2 LT PUSH2 0x3478 JUMPI PUSH32 0x4E487B7100000000000000000000000000000000000000000000000000000000 PUSH1 0x0 MSTORE PUSH1 0x32 PUSH1 0x4 MSTORE PUSH1 0x24 PUSH1 0x0 REVERT JUMPDEST PUSH1 0x20 MUL PUSH1 0x20 ADD ADD MLOAD DUP2 MSTORE PUSH1 0x20 ADD SWAP1 DUP2 MSTORE PUSH1 0x20 ADD PUSH1 0x0 KECCAK256 DUP1 SLOAD DUP1 PUSH1 0x20 MUL PUSH1 0x20 ADD PUSH1 0x40 MLOAD SWAP1 DUP2 ADD PUSH1 0x40 MSTORE DUP1 SWAP3 SWAP2 SWAP1 DUP2 DUP2 MSTORE PUSH1 0x20 ADD PUSH1 0x0 SWAP1 JUMPDEST DUP3 DUP3 LT ISZERO PUSH2 0x367D JUMPI DUP4 DUP3 SWAP1 PUSH1 0x0 MSTORE PUSH1 0x20 PUSH1 0x0 KECCAK256 SWAP1 PUSH1 0x4 MUL ADD PUSH1 0x40 MLOAD DUP1 PUSH1 0xE0 ADD PUSH1 0x40 MSTORE SWAP1 DUP2 PUSH1 0x0 DUP3 ADD DUP1 SLOAD PUSH2 0x34E1 SWAP1 PUSH2 0x85BE JUMP JUMPDEST DUP1 PUSH1 0x1F ADD PUSH1 0x20 DUP1 SWAP2 DIV MUL PUSH1 0x20 ADD PUSH1 0x40 MLOAD SWAP1 DUP2 ADD PUSH1 0x40 MSTORE DUP1 SWAP3 SWAP2 SWAP1 DUP2 DUP2 MSTORE PUSH1 0x20 ADD DUP3 DUP1 SLOAD PUSH2 0x350D SWAP1 PUSH2 0x85BE JUMP JUMPDEST DUP1 ISZERO PUSH2 0x355A JUMPI DUP1 PUSH1 0x1F LT PUSH2 0x352F JUMPI PUSH2 0x100 DUP1 DUP4 SLOAD DIV MUL DUP4 MSTORE SWAP2 PUSH1 0x20 ADD SWAP2 PUSH2 0x355A JUMP JUMPDEST DUP3 ADD SWAP2 SWAP1 PUSH1 0x0 MSTORE PUSH1 0x20 PUSH1 0x0 KECCAK256 SWAP1 JUMPDEST DUP2 SLOAD DUP2 MSTORE SWAP1 PUSH1 0x1 ADD SWAP1 PUSH1 0x20 ADD DUP1 DUP4 GT PUSH2 0x353D JUMPI DUP3 SWAP1 SUB PUSH1 0x1F AND DUP3 ADD SWAP2 JUMPDEST POP POP POP POP POP DUP2 MSTORE PUSH1 0x20 ADD PUSH1 0x1 DUP3 ADD SLOAD DUP2 MSTORE PUSH1 0x20 ADD PUSH1 0x2 DUP3 ADD PUSH1 0x0 SWAP1 SLOAD SWAP1 PUSH2 0x100 EXP SWAP1 DIV PUSH20 0xFFFFFFFFFFFFFFFFFFFFFFFFFFFFFFFFFFFFFFFF AND PUSH20 0xFFFFFFFFFFFFFFFFFFFFFFFFFFFFFFFFFFFFFFFF AND PUSH20 0xFFFFFFFFFFFFFFFFFFFFFFFFFFFFFFFFFFFFFFFF AND DUP2 MSTORE PUSH1 0x20 ADD PUSH1 0x3 DUP3 ADD PUSH1 0x0 SWAP1 SLOAD SWAP1 PUSH2 0x100 EXP SWAP1 DIV PUSH20 0xFFFFFFFFFFFFFFFFFFFFFFFFFFFFFFFFFFFFFFFF AND PUSH20 0xFFFFFFFFFFFFFFFFFFFFFFFFFFFFFFFFFFFFFFFF AND PUSH20 0xFFFFFFFFFFFFFFFFFFFFFFFFFFFFFFFFFFFFFFFF AND DUP2 MSTORE PUSH1 0x20 ADD PUSH1 0x3 DUP3 ADD PUSH1 0x14 SWAP1 SLOAD SWAP1 PUSH2 0x100 EXP SWAP1 DIV PUSH1 0xFF AND PUSH1 0xFF AND PUSH1 0xFF AND DUP2 MSTORE PUSH1 0x20 ADD PUSH1 0x3 DUP3 ADD PUSH1 0x15 SWAP1 SLOAD SWAP1 PUSH2 0x100 EXP SWAP1 DIV PUSH1 0xFF AND PUSH1 0xFF AND PUSH1 0xFF AND DUP2 MSTORE PUSH1 0x20 ADD PUSH1 0x3 DUP3 ADD PUSH1 0x16 SWAP1 SLOAD SWAP1 PUSH2 0x100 EXP SWAP1 DIV PUSH1 0xFF AND ISZERO ISZERO ISZERO ISZERO DUP2 MSTORE POP POP DUP2 MSTORE PUSH1 0x20 ADD SWAP1 PUSH1 0x1 ADD SWAP1 PUSH2 0x34AE JUMP JUMPDEST POP POP POP POP SWAP1 POP PUSH2 0x36AF PUSH32 0x36012D30E5C326B8AED1ECFC279D035A2897E9A0E74E3AED9665342626BC1874 PUSH1 0x0 SHL PUSH2 0x55A5 JUMP JUMPDEST PUSH2 0x36DB PUSH32 0xD9D9676A3042BB24E4BB5A1984897329C83B813593707A98EF107DC8AB143D33 PUSH1 0x0 SHL PUSH2 0x55A5 JUMP JUMPDEST PUSH1 0x0 JUMPDEST DUP2 MLOAD DUP2 LT ISZERO PUSH2 0x3834 JUMPI PUSH2 0x3713 PUSH32 0x5D0B16690B569389AC46DEA954D4B9AE434E965706654B262FF5D38EB0A4B031 PUSH1 0x0 SHL PUSH2 0x55A5 JUMP JUMPDEST PUSH2 0x373F PUSH32 0x488569A5D444A81A1C6B456542BDFED94EE03C62550E7E63389FFE33EE2F4A1C PUSH1 0x0 SHL PUSH2 0x55A5 JUMP JUMPDEST DUP2 DUP2 DUP2 MLOAD DUP2 LT PUSH2 0x3778 JUMPI PUSH32 0x4E487B7100000000000000000000000000000000000000000000000000000000 PUSH1 0x0 MSTORE PUSH1 0x32 PUSH1 0x4 MSTORE PUSH1 0x24 PUSH1 0x0 REVERT JUMPDEST PUSH1 0x20 MUL PUSH1 0x20 ADD ADD MLOAD PUSH1 0xC0 ADD MLOAD ISZERO PUSH2 0x37F4 JUMPI PUSH2 0x37B5 PUSH32 0x7833ACC5163C711ED8E8AAE2896AE961F2858B87843023654AE70398059E404B PUSH1 0x0 SHL PUSH2 0x55A5 JUMP JUMPDEST PUSH2 0x37E1 PUSH32 0xE47C97F4FD576BBCEBB9D31BE91A11AC896889A6984ADDED6CC8ED77C3152E00 PUSH1 0x0 SHL PUSH2 0x55A5 JUMP JUMPDEST DUP6 DUP1 PUSH2 0x37EC SWAP1 PUSH2 0x8621 JUMP JUMPDEST SWAP7 POP POP PUSH2 0x3821 JUMP JUMPDEST PUSH2 0x3820 PUSH32 0x90B9D60C0EA7578EEA449E74C7D014BD0B6B11DEFD0AE16BDF2507F786AC44DC PUSH1 0x0 SHL PUSH2 0x55A5 JUMP JUMPDEST JUMPDEST DUP1 DUP1 PUSH2 0x382C SWAP1 PUSH2 0x8621 JUMP JUMPDEST SWAP2 POP POP PUSH2 0x36DE JUMP JUMPDEST POP POP DUP1 DUP1 PUSH2 0x3841 SWAP1 PUSH2 0x8621 JUMP JUMPDEST SWAP2 POP POP PUSH2 0x33D8 JUMP JUMPDEST POP PUSH2 0x3876 PUSH32 0x40663EE4F026A9AB72187DFCBEB95F6E3D3A0170DA79B6DA2B8B871A3121D15C PUSH1 0x0 SHL PUSH2 0x55A5 JUMP JUMPDEST PUSH2 0x38A2 PUSH32 0xD3010CA31CCE6CC98C76621550ED8BD91B1F600D9DFA066B7D9753DE1F4A5634 PUSH1 0x0 SHL PUSH2 0x55A5 JUMP JUMPDEST PUSH1 0x0 DUP4 PUSH8 0xFFFFFFFFFFFFFFFF DUP2 GT ISZERO PUSH2 0x38E4 JUMPI PUSH32 0x4E487B7100000000000000000000000000000000000000000000000000000000 PUSH1 0x0 MSTORE PUSH1 0x41 PUSH1 0x4 MSTORE PUSH1 0x24 PUSH1 0x0 REVERT JUMPDEST PUSH1 0x40 MLOAD SWAP1 DUP1 DUP3 MSTORE DUP1 PUSH1 0x20 MUL PUSH1 0x20 ADD DUP3 ADD PUSH1 0x40 MSTORE DUP1 ISZERO PUSH2 0x391D JUMPI DUP2 PUSH1 0x20 ADD JUMPDEST PUSH2 0x390A PUSH2 0x75FB JUMP JUMPDEST DUP2 MSTORE PUSH1 0x20 ADD SWAP1 PUSH1 0x1 SWAP1 SUB SWAP1 DUP2 PUSH2 0x3902 JUMPI SWAP1 POP JUMPDEST POP SWAP1 POP PUSH2 0x394C PUSH32 0x33837F06265691AC687B790A025204A4BBE6A7093869E3DB920F4A6C20723153 PUSH1 0x0 SHL PUSH2 0x55A5 JUMP JUMPDEST PUSH2 0x3978 PUSH32 0x678F83765EE733AF44F468743EC19C50B610673853F2C9A3D5631938D6911F87 PUSH1 0x0 SHL PUSH2 0x55A5 JUMP JUMPDEST PUSH1 0x0 JUMPDEST DUP4 MLOAD DUP2 LT ISZERO PUSH2 0x3EC9 JUMPI PUSH2 0x39B0 PUSH32 0x1AA34B85BD9593CDC34396D826594FB9A227CD27D4B3E9CAF29DFDE36EBC8CB PUSH1 0x0 SHL PUSH2 0x55A5 JUMP JUMPDEST PUSH2 0x39DC PUSH32 0x7B240BEF50087B5F39E892384410EC7E595BC55541F465150E660E25DB992C42 PUSH1 0x0 SHL PUSH2 0x55A5 JUMP JUMPDEST PUSH1 0x0 PUSH1 0x1 PUSH1 0x0 DUP7 DUP5 DUP2 MLOAD DUP2 LT PUSH2 0x3A1B JUMPI PUSH32 0x4E487B7100000000000000000000000000000000000000000000000000000000 PUSH1 0x0 MSTORE PUSH1 0x32 PUSH1 0x4 MSTORE PUSH1 0x24 PUSH1 0x0 REVERT JUMPDEST PUSH1 0x20 MUL PUSH1 0x20 ADD ADD MLOAD DUP2 MSTORE PUSH1 0x20 ADD SWAP1 DUP2 MSTORE PUSH1 0x20 ADD PUSH1 0x0 KECCAK256 DUP1 SLOAD DUP1 PUSH1 0x20 MUL PUSH1 0x20 ADD PUSH1 0x40 MLOAD SWAP1 DUP2 ADD PUSH1 0x40 MSTORE DUP1 SWAP3 SWAP2 SWAP1 DUP2 DUP2 MSTORE PUSH1 0x20 ADD PUSH1 0x0 SWAP1 JUMPDEST DUP3 DUP3 LT ISZERO PUSH2 0x3C20 JUMPI DUP4 DUP3 SWAP1 PUSH1 0x0 MSTORE PUSH1 0x20 PUSH1 0x0 KECCAK256 SWAP1 PUSH1 0x4 MUL ADD PUSH1 0x40 MLOAD DUP1 PUSH1 0xE0 ADD PUSH1 0x40 MSTORE SWAP1 DUP2 PUSH1 0x0 DUP3 ADD DUP1 SLOAD PUSH2 0x3A84 SWAP1 PUSH2 0x85BE JUMP JUMPDEST DUP1 PUSH1 0x1F ADD PUSH1 0x20 DUP1 SWAP2 DIV MUL PUSH1 0x20 ADD PUSH1 0x40 MLOAD SWAP1 DUP2 ADD PUSH1 0x40 MSTORE DUP1 SWAP3 SWAP2 SWAP1 DUP2 DUP2 MSTORE PUSH1 0x20 ADD DUP3 DUP1 SLOAD PUSH2 0x3AB0 SWAP1 PUSH2 0x85BE JUMP JUMPDEST DUP1 ISZERO PUSH2 0x3AFD JUMPI DUP1 PUSH1 0x1F LT PUSH2 0x3AD2 JUMPI PUSH2 0x100 DUP1 DUP4 SLOAD DIV MUL DUP4 MSTORE SWAP2 PUSH1 0x20 ADD SWAP2 PUSH2 0x3AFD JUMP JUMPDEST DUP3 ADD SWAP2 SWAP1 PUSH1 0x0 MSTORE PUSH1 0x20 PUSH1 0x0 KECCAK256 SWAP1 JUMPDEST DUP2 SLOAD DUP2 MSTORE SWAP1 PUSH1 0x1 ADD SWAP1 PUSH1 0x20 ADD DUP1 DUP4 GT PUSH2 0x3AE0 JUMPI DUP3 SWAP1 SUB PUSH1 0x1F AND DUP3 ADD SWAP2 JUMPDEST POP POP POP POP POP DUP2 MSTORE PUSH1 0x20 ADD PUSH1 0x1 DUP3 ADD SLOAD DUP2 MSTORE PUSH1 0x20 ADD PUSH1 0x2 DUP3 ADD PUSH1 0x0 SWAP1 SLOAD SWAP1 PUSH2 0x100 EXP SWAP1 DIV PUSH20 0xFFFFFFFFFFFFFFFFFFFFFFFFFFFFFFFFFFFFFFFF AND PUSH20 0xFFFFFFFFFFFFFFFFFFFFFFFFFFFFFFFFFFFFFFFF AND PUSH20 0xFFFFFFFFFFFFFFFFFFFFFFFFFFFFFFFFFFFFFFFF AND DUP2 MSTORE PUSH1 0x20 ADD PUSH1 0x3 DUP3 ADD PUSH1 0x0 SWAP1 SLOAD SWAP1 PUSH2 0x100 EXP SWAP1 DIV PUSH20 0xFFFFFFFFFFFFFFFFFFFFFFFFFFFFFFFFFFFFFFFF AND PUSH20 0xFFFFFFFFFFFFFFFFFFFFFFFFFFFFFFFFFFFFFFFF AND PUSH20 0xFFFFFFFFFFFFFFFFFFFFFFFFFFFFFFFFFFFFFFFF AND DUP2 MSTORE PUSH1 0x20 ADD PUSH1 0x3 DUP3 ADD PUSH1 0x14 SWAP1 SLOAD SWAP1 PUSH2 0x100 EXP SWAP1 DIV PUSH1 0xFF AND PUSH1 0xFF AND PUSH1 0xFF AND DUP2 MSTORE PUSH1 0x20 ADD PUSH1 0x3 DUP3 ADD PUSH1 0x15 SWAP1 SLOAD SWAP1 PUSH2 0x100 EXP SWAP1 DIV PUSH1 0xFF AND PUSH1 0xFF AND PUSH1 0xFF AND DUP2 MSTORE PUSH1 0x20 ADD PUSH1 0x3 DUP3 ADD PUSH1 0x16 SWAP1 SLOAD SWAP1 PUSH2 0x100 EXP SWAP1 DIV PUSH1 0xFF AND ISZERO ISZERO ISZERO ISZERO DUP2 MSTORE POP POP DUP2 MSTORE PUSH1 0x20 ADD SWAP1 PUSH1 0x1 ADD SWAP1 PUSH2 0x3A51 JUMP JUMPDEST POP POP POP POP SWAP1 POP PUSH2 0x3C52 PUSH32 0x45D0E05EF3545C939BB4BBEC5B129EA892640B193835C3521DCC298D064B67FF PUSH1 0x0 SHL PUSH2 0x55A5 JUMP JUMPDEST PUSH2 0x3C7E PUSH32 0x29AC35BB54BB3A6CD2BB183CDD5551811C6760A50BFF6D144AB64551E93E2C69 PUSH1 0x0 SHL PUSH2 0x55A5 JUMP JUMPDEST PUSH1 0x0 JUMPDEST DUP2 MLOAD DUP2 LT ISZERO PUSH2 0x3EB4 JUMPI PUSH2 0x3CB6 PUSH32 0xBD6BF9F362DDFC8DED0D0271DBBF6052FAB03969AF91163E89C842A669EAD3F5 PUSH1 0x0 SHL PUSH2 0x55A5 JUMP JUMPDEST PUSH2 0x3CE2 PUSH32 0xC5EB8B1F93279B9DDCEAC691834F8D7D3FFCDE19D6C46248DF268B9D8EFF7972 PUSH1 0x0 SHL PUSH2 0x55A5 JUMP JUMPDEST DUP2 DUP2 DUP2 MLOAD DUP2 LT PUSH2 0x3D1B JUMPI PUSH32 0x4E487B7100000000000000000000000000000000000000000000000000000000 PUSH1 0x0 MSTORE PUSH1 0x32 PUSH1 0x4 MSTORE PUSH1 0x24 PUSH1 0x0 REVERT JUMPDEST PUSH1 0x20 MUL PUSH1 0x20 ADD ADD MLOAD PUSH1 0xC0 ADD MLOAD ISZERO PUSH2 0x3E74 JUMPI PUSH2 0x3D58 PUSH32 0x60B82B93CA2B285B36F1C21CF2071C908FA9F2A5FC3FF2A3777F7F09DAF01A4A PUSH1 0x0 SHL PUSH2 0x55A5 JUMP JUMPDEST PUSH2 0x3D84 PUSH32 0x48D8B01496CBBAF52AE2FA84C9A829A9CF90666FC4E858C6473FE35209198070 PUSH1 0x0 SHL PUSH2 0x55A5 JUMP JUMPDEST PUSH2 0x3DB0 PUSH32 0x804B86CDB370FD74D72BECE4AAACDCBB9D0217463B54EAA37520C0D11DFA7578 PUSH1 0x0 SHL PUSH2 0x55A5 JUMP JUMPDEST DUP2 DUP2 DUP2 MLOAD DUP2 LT PUSH2 0x3DE9 JUMPI PUSH32 0x4E487B7100000000000000000000000000000000000000000000000000000000 PUSH1 0x0 MSTORE PUSH1 0x32 PUSH1 0x4 MSTORE PUSH1 0x24 PUSH1 0x0 REVERT JUMPDEST PUSH1 0x20 MUL PUSH1 0x20 ADD ADD MLOAD DUP5 DUP7 DUP2 MLOAD DUP2 LT PUSH2 0x3E2A JUMPI PUSH32 0x4E487B7100000000000000000000000000000000000000000000000000000000 PUSH1 0x0 MSTORE PUSH1 0x32 PUSH1 0x4 MSTORE PUSH1 0x24 PUSH1 0x0 REVERT JUMPDEST PUSH1 0x20 MUL PUSH1 0x20 ADD ADD DUP2 SWAP1 MSTORE POP PUSH2 0x3E61 PUSH32 0xC599E9F8C7B3FFFC6C6A3E5406DE671C75ECC78DE6CD64BCA191CB1123A9DAF2 PUSH1 0x0 SHL PUSH2 0x55A5 JUMP JUMPDEST DUP5 DUP1 PUSH2 0x3E6C SWAP1 PUSH2 0x8621 JUMP JUMPDEST SWAP6 POP POP PUSH2 0x3EA1 JUMP JUMPDEST PUSH2 0x3EA0 PUSH32 0x2E5AC1126F2AF602CEAB1D5AAA0F92E76CE7002D565EEEA08A16E78692DA5E48 PUSH1 0x0 SHL PUSH2 0x55A5 JUMP JUMPDEST JUMPDEST DUP1 DUP1 PUSH2 0x3EAC SWAP1 PUSH2 0x8621 JUMP JUMPDEST SWAP2 POP POP PUSH2 0x3C81 JUMP JUMPDEST POP POP DUP1 DUP1 PUSH2 0x3EC1 SWAP1 PUSH2 0x8621 JUMP JUMPDEST SWAP2 POP POP PUSH2 0x397B JUMP JUMPDEST POP PUSH2 0x3EF6 PUSH32 0xA5689D8CFF4A9E4AE641DAD46297D32EC284015C6BDFE3885352EDF9891EC038 PUSH1 0x0 SHL PUSH2 0x55A5 JUMP JUMPDEST PUSH2 0x3F22 PUSH32 0xDA1717149CA941F2633CA94680E7B3BD909A08319B2CA99CF99673B1C0EDC15 PUSH1 0x0 SHL PUSH2 0x55A5 JUMP JUMPDEST DUP1 SWAP5 POP POP POP POP POP SWAP1 JUMP JUMPDEST PUSH1 0x2 PUSH1 0x0 SLOAD EQ ISZERO PUSH2 0x3F72 JUMPI PUSH1 0x40 MLOAD PUSH32 0x8C379A000000000000000000000000000000000000000000000000000000000 DUP2 MSTORE PUSH1 0x4 ADD PUSH2 0x3F69 SWAP1 PUSH2 0x827B JUMP JUMPDEST PUSH1 0x40 MLOAD DUP1 SWAP2 SUB SWAP1 REVERT JUMPDEST PUSH1 0x2 PUSH1 0x0 DUP2 SWAP1 SSTORE POP PUSH2 0x3FA6 PUSH32 0xE4CA7D1344CB3DE64511A104EF3F975484959D7BAE8C0B2AEF6BA92B08E3BF2A PUSH1 0x0 SHL PUSH2 0x55A5 JUMP JUMPDEST PUSH2 0x3FD2 PUSH32 0xB9E5DED4758982DBBE00A37D7EDBC8A9E823FE5950566A60A2774BC8C40D881B PUSH1 0x0 SHL PUSH2 0x55A5 JUMP JUMPDEST PUSH2 0x3FFE PUSH32 0x89EC7B5D6BB858108C2D4FABD59E19299DCE1D5A7C1A73EF425C7AA01C384463 PUSH1 0x0 SHL PUSH2 0x55A5 JUMP JUMPDEST PUSH2 0x402A PUSH32 0xD0A816930603FB3A680490DEE0F10FB1C2EC964E4492F407A5D00A07F9014F75 PUSH1 0x0 SHL PUSH2 0x55A5 JUMP JUMPDEST DUP2 MLOAD DUP4 MLOAD EQ PUSH2 0x406E JUMPI PUSH1 0x40 MLOAD PUSH32 0x8C379A000000000000000000000000000000000000000000000000000000000 DUP2 MSTORE PUSH1 0x4 ADD PUSH2 0x4065 SWAP1 PUSH2 0x81DB JUMP JUMPDEST PUSH1 0x40 MLOAD DUP1 SWAP2 SUB SWAP1 REVERT JUMPDEST PUSH2 0x409A PUSH32 0x216C06D339AF1FE21290B7A9B37A4E4656F8D8006C9A4323CC87377F1FA5253A PUSH1 0x0 SHL PUSH2 0x55A5 JUMP JUMPDEST PUSH2 0x40C6 PUSH32 0x3BB2F83BC0C17A6137CA255E10F3484619C3CAE4AF4CFB44B762EF085A0D98BE PUSH1 0x0 SHL PUSH2 0x55A5 JUMP JUMPDEST PUSH2 0x40F2 PUSH32 0x7EBCBB5CF2F8762A3B999F93E8EEF249D224483017B2EF5C20A9206B739EC7E9 PUSH1 0x0 SHL PUSH2 0x55A5 JUMP JUMPDEST PUSH1 0x0 CALLVALUE SWAP1 POP PUSH2 0x4123 PUSH32 0xC43178B6B68B23D247436E7543013CF3A8168BB4E5A06E7C1C236714CA87AB69 PUSH1 0x0 SHL PUSH2 0x55A5 JUMP JUMPDEST PUSH2 0x414F PUSH32 0xD85D814EB6F97F3D4C903AB01BDD88C27209709AAD20258F1747D244877D1627 PUSH1 0x0 SHL PUSH2 0x55A5 JUMP JUMPDEST PUSH1 0x0 CALLVALUE SWAP1 POP PUSH2 0x4180 PUSH32 0x75A6C25DFBD8C8C6FC43EB5A11096034F8A172BC81243124188EDBE327CBDAD7 PUSH1 0x0 SHL PUSH2 0x55A5 JUMP JUMPDEST PUSH2 0x41AC PUSH32 0x14C8814A49FEA40F942DF7E75F29DCF3D2082892E5C0FD2B0321DCD67F86C232 PUSH1 0x0 SHL PUSH2 0x55A5 JUMP JUMPDEST PUSH1 0x0 JUMPDEST DUP6 MLOAD DUP2 LT ISZERO PUSH2 0x4CEB JUMPI PUSH2 0x41E4 PUSH32 0x16563CD738C0536A8035E24E6803FD8B967248BA15D3C3E7404774999E517A6E PUSH1 0x0 SHL PUSH2 0x55A5 JUMP JUMPDEST PUSH2 0x4210 PUSH32 0xAE1F12EF2098E13E4B96551839865BEC433BBAD9694E54DA39A487E292D0A859 PUSH1 0x0 SHL PUSH2 0x55A5 JUMP JUMPDEST PUSH2 0x423C PUSH32 0xEB8D9BC145985444BE2308FB932BB65D1D961DA4FF318C0EFAA2E4EE337548AB PUSH1 0x0 SHL PUSH2 0x55A5 JUMP JUMPDEST DUP5 DUP2 DUP2 MLOAD DUP2 LT PUSH2 0x4275 JUMPI PUSH32 0x4E487B7100000000000000000000000000000000000000000000000000000000 PUSH1 0x0 MSTORE PUSH1 0x32 PUSH1 0x4 MSTORE PUSH1 0x24 PUSH1 0x0 REVERT JUMPDEST PUSH1 0x20 MUL PUSH1 0x20 ADD ADD MLOAD DUP3 LT ISZERO PUSH2 0x42BF JUMPI PUSH1 0x40 MLOAD PUSH32 0x8C379A000000000000000000000000000000000000000000000000000000000 DUP2 MSTORE PUSH1 0x4 ADD PUSH2 0x42B6 SWAP1 PUSH2 0x81BB JUMP JUMPDEST PUSH1 0x40 MLOAD DUP1 SWAP2 SUB SWAP1 REVERT JUMPDEST PUSH2 0x42EB PUSH32 0x78E9B43F2EB3D84D3129049F3B51F51310C87FCB9B56D49AEC97930B5BCF652E PUSH1 0x0 SHL PUSH2 0x55A5 JUMP JUMPDEST PUSH2 0x4317 PUSH32 0xA5AFBE5B74AF0A7398E583D8A07E66C68500FD4BAE70F467F49A5ADBDD15562E PUSH1 0x0 SHL PUSH2 0x55A5 JUMP JUMPDEST PUSH2 0x4343 PUSH32 0x8B0D74648DF624CA7D4B47FCD16E459B254775BFBB387097E614FCE4099B2363 PUSH1 0x0 SHL PUSH2 0x55A5 JUMP JUMPDEST DUP5 DUP2 DUP2 MLOAD DUP2 LT PUSH2 0x437C JUMPI PUSH32 0x4E487B7100000000000000000000000000000000000000000000000000000000 PUSH1 0x0 MSTORE PUSH1 0x32 PUSH1 0x4 MSTORE PUSH1 0x24 PUSH1 0x0 REVERT JUMPDEST PUSH1 0x20 MUL PUSH1 0x20 ADD ADD MLOAD DUP3 PUSH2 0x438F SWAP2 SWAP1 PUSH2 0x84E1 JUMP JUMPDEST SWAP2 POP PUSH2 0x43BD PUSH32 0xBA521E97ADBA263F57CA0B67FEC7519B76B2703AE24177C0AD99B2927A7BED0A PUSH1 0x0 SHL PUSH2 0x55A5 JUMP JUMPDEST PUSH2 0x43E9 PUSH32 0x7E7732563B0555388341742316D7E774BA8274A40C3B64E21EC57740C93DC146 PUSH1 0x0 SHL PUSH2 0x55A5 JUMP JUMPDEST PUSH2 0x43F1 PUSH2 0x75FB JUMP JUMPDEST PUSH2 0x441D PUSH32 0x6C783E909C09E578E42E0552E5E747992A85393C2DA6F04292FC9E48DD662977 PUSH1 0x0 SHL PUSH2 0x55A5 JUMP JUMPDEST PUSH2 0x4449 PUSH32 0x2819975C4B6AAF9BF615DFC3E1E6036D6DD5692EE2F013289D22115EE3C50A3E PUSH1 0x0 SHL PUSH2 0x55A5 JUMP JUMPDEST CALLER DUP2 PUSH1 0x40 ADD SWAP1 PUSH20 0xFFFFFFFFFFFFFFFFFFFFFFFFFFFFFFFFFFFFFFFF AND SWAP1 DUP2 PUSH20 0xFFFFFFFFFFFFFFFFFFFFFFFFFFFFFFFFFFFFFFFF AND DUP2 MSTORE POP POP PUSH2 0x44AD PUSH32 0x2A827D34BF1695D6984EFFD232F01396735BBE4E6902937F35867C41B0AB8C0B PUSH1 0x0 SHL PUSH2 0x55A5 JUMP JUMPDEST PUSH2 0x44D9 PUSH32 0x5C3689DC7D4C4D092DA08247B8C33EF8D3461345EB406148AB89E4E06189D379 PUSH1 0x0 SHL PUSH2 0x55A5 JUMP JUMPDEST DUP7 DUP3 DUP2 MLOAD DUP2 LT PUSH2 0x4512 JUMPI PUSH32 0x4E487B7100000000000000000000000000000000000000000000000000000000 PUSH1 0x0 MSTORE PUSH1 0x32 PUSH1 0x4 MSTORE PUSH1 0x24 PUSH1 0x0 REVERT JUMPDEST PUSH1 0x20 MUL PUSH1 0x20 ADD ADD MLOAD DUP2 PUSH1 0x60 ADD SWAP1 PUSH20 0xFFFFFFFFFFFFFFFFFFFFFFFFFFFFFFFFFFFFFFFF AND SWAP1 DUP2 PUSH20 0xFFFFFFFFFFFFFFFFFFFFFFFFFFFFFFFFFFFFFFFF AND DUP2 MSTORE POP POP PUSH2 0x457D PUSH32 0x89FA96A3B4F1BC915D13DD6D6AA930D877F86F68AAADADF0DA7AF14BFD6AF6C9 PUSH1 0x0 SHL PUSH2 0x55A5 JUMP JUMPDEST PUSH2 0x45A9 PUSH32 0x45BC537C8142BC77490B94AB3BAF00DCA3395881A78AD2706D8C0B6395D7D970 PUSH1 0x0 SHL PUSH2 0x55A5 JUMP JUMPDEST PUSH1 0x1 DUP2 PUSH1 0xA0 ADD SWAP1 PUSH1 0xFF AND SWAP1 DUP2 PUSH1 0xFF AND DUP2 MSTORE POP POP PUSH2 0x45E8 PUSH32 0x4E993A250FEB410E43E54657EAD082D7AFEB15DA55AB1E8003195936925DD554 PUSH1 0x0 SHL PUSH2 0x55A5 JUMP JUMPDEST PUSH2 0x4614 PUSH32 0x76A698951D2F0589B4A1B8CD97CC1471D1EEDEA4345582D2174A35CD72DB1442 PUSH1 0x0 SHL PUSH2 0x55A5 JUMP JUMPDEST PUSH1 0x0 DUP2 PUSH1 0x80 ADD SWAP1 PUSH1 0xFF AND SWAP1 DUP2 PUSH1 0xFF AND DUP2 MSTORE POP POP PUSH2 0x4653 PUSH32 0x428BA52E3191617290E9E2C9DE1D51D220D542A8591C3F926B9EF7D8EB8C36E9 PUSH1 0x0 SHL PUSH2 0x55A5 JUMP JUMPDEST PUSH2 0x467F PUSH32 0x890B3F539EFCFB1826291E772E3C422900469B05869EABF7BA258329933AAB37 PUSH1 0x0 SHL PUSH2 0x55A5 JUMP JUMPDEST DUP6 DUP3 DUP2 MLOAD DUP2 LT PUSH2 0x46B8 JUMPI PUSH32 0x4E487B7100000000000000000000000000000000000000000000000000000000 PUSH1 0x0 MSTORE PUSH1 0x32 PUSH1 0x4 MSTORE PUSH1 0x24 PUSH1 0x0 REVERT JUMPDEST PUSH1 0x20 MUL PUSH1 0x20 ADD ADD MLOAD DUP2 PUSH1 0x20 ADD DUP2 DUP2 MSTORE POP POP PUSH2 0x46F5 PUSH32 0x9B2FD3F30F4C2553165A82DF8C546E6685C457072D753C9F89EBBBEFA5343106 PUSH1 0x0 SHL PUSH2 0x55A5 JUMP JUMPDEST PUSH2 0x4721 PUSH32 0xF39D1AFA5322F0C9315A9384A89EDCEE160EB9381921B67C9DCB7CB2229556E3 PUSH1 0x0 SHL PUSH2 0x55A5 JUMP JUMPDEST DUP5 DUP3 DUP2 MLOAD DUP2 LT PUSH2 0x475A JUMPI PUSH32 0x4E487B7100000000000000000000000000000000000000000000000000000000 PUSH1 0x0 MSTORE PUSH1 0x32 PUSH1 0x4 MSTORE PUSH1 0x24 PUSH1 0x0 REVERT JUMPDEST PUSH1 0x20 MUL PUSH1 0x20 ADD ADD MLOAD DUP2 PUSH1 0x0 ADD DUP2 SWAP1 MSTORE POP PUSH2 0x4796 PUSH32 0x93F63B7D8F453ACD3E3C7FC48135F41CA9AC56139240A1629347E4712B8E6D6E PUSH1 0x0 SHL PUSH2 0x55A5 JUMP JUMPDEST PUSH2 0x47C2 PUSH32 0x926C405000F4B941695FB53A0602755D8D6067F3178F62F24CDA165B299246EA PUSH1 0x0 SHL PUSH2 0x55A5 JUMP JUMPDEST PUSH1 0x1 DUP2 PUSH1 0xC0 ADD SWAP1 ISZERO ISZERO SWAP1 DUP2 ISZERO ISZERO DUP2 MSTORE POP POP PUSH2 0x47FF PUSH32 0x3D6E390250B25172F55C5C80CD52D5F6E51836980978F96811A728A7CE5C5DDC PUSH1 0x0 SHL PUSH2 0x55A5 JUMP JUMPDEST PUSH2 0x482B PUSH32 0x1D6CFD7C74F91907E625B6C0BCC56D64313EB40DE74806E9B312F6FAEC24AD74 PUSH1 0x0 SHL PUSH2 0x55A5 JUMP JUMPDEST PUSH1 0x0 CALLER DUP9 DUP5 DUP2 MLOAD DUP2 LT PUSH2 0x4867 JUMPI PUSH32 0x4E487B7100000000000000000000000000000000000000000000000000000000 PUSH1 0x0 MSTORE PUSH1 0x32 PUSH1 0x4 MSTORE PUSH1 0x24 PUSH1 0x0 REVERT JUMPDEST PUSH1 0x20 MUL PUSH1 0x20 ADD ADD MLOAD PUSH1 0x40 MLOAD PUSH1 0x20 ADD PUSH2 0x4880 SWAP3 SWAP2 SWAP1 PUSH2 0x80C4 JUMP JUMPDEST PUSH1 0x40 MLOAD PUSH1 0x20 DUP2 DUP4 SUB SUB DUP2 MSTORE SWAP1 PUSH1 0x40 MSTORE DUP1 MLOAD SWAP1 PUSH1 0x20 ADD KECCAK256 SWAP1 POP PUSH2 0x48C4 PUSH32 0x6BF082F63849C31B4C8C3B4473EAA119D0561D658BD8369183EDCA56DA4ABC50 PUSH1 0x0 SHL PUSH2 0x55A5 JUMP JUMPDEST PUSH2 0x48F0 PUSH32 0x987B899E26724EFD03F435E3D6070A33BB9FCB90F4438D8B72541DBC8C47121 PUSH1 0x0 SHL PUSH2 0x55A5 JUMP JUMPDEST PUSH1 0x1 PUSH1 0x0 DUP3 DUP2 MSTORE PUSH1 0x20 ADD SWAP1 DUP2 MSTORE PUSH1 0x20 ADD PUSH1 0x0 KECCAK256 DUP3 SWAP1 DUP1 PUSH1 0x1 DUP2 SLOAD ADD DUP1 DUP3 SSTORE DUP1 SWAP2 POP POP PUSH1 0x1 SWAP1 SUB SWAP1 PUSH1 0x0 MSTORE PUSH1 0x20 PUSH1 0x0 KECCAK256 SWAP1 PUSH1 0x4 MUL ADD PUSH1 0x0 SWAP1 SWAP2 SWAP1 SWAP2 SWAP1 SWAP2 POP PUSH1 0x0 DUP3 ADD MLOAD DUP2 PUSH1 0x0 ADD SWAP1 DUP1 MLOAD SWAP1 PUSH1 0x20 ADD SWAP1 PUSH2 0x4949 SWAP3 SWAP2 SWAP1 PUSH2 0x766C JUMP JUMPDEST POP PUSH1 0x20 DUP3 ADD MLOAD DUP2 PUSH1 0x1 ADD SSTORE PUSH1 0x40 DUP3 ADD MLOAD DUP2 PUSH1 0x2 ADD PUSH1 0x0 PUSH2 0x100 EXP DUP2 SLOAD DUP2 PUSH20 0xFFFFFFFFFFFFFFFFFFFFFFFFFFFFFFFFFFFFFFFF MUL NOT AND SWAP1 DUP4 PUSH20 0xFFFFFFFFFFFFFFFFFFFFFFFFFFFFFFFFFFFFFFFF AND MUL OR SWAP1 SSTORE POP PUSH1 0x60 DUP3 ADD MLOAD DUP2 PUSH1 0x3 ADD PUSH1 0x0 PUSH2 0x100 EXP DUP2 SLOAD DUP2 PUSH20 0xFFFFFFFFFFFFFFFFFFFFFFFFFFFFFFFFFFFFFFFF MUL NOT AND SWAP1 DUP4 PUSH20 0xFFFFFFFFFFFFFFFFFFFFFFFFFFFFFFFFFFFFFFFF AND MUL OR SWAP1 SSTORE POP PUSH1 0x80 DUP3 ADD MLOAD DUP2 PUSH1 0x3 ADD PUSH1 0x14 PUSH2 0x100 EXP DUP2 SLOAD DUP2 PUSH1 0xFF MUL NOT AND SWAP1 DUP4 PUSH1 0xFF AND MUL OR SWAP1 SSTORE POP PUSH1 0xA0 DUP3 ADD MLOAD DUP2 PUSH1 0x3 ADD PUSH1 0x15 PUSH2 0x100 EXP DUP2 SLOAD DUP2 PUSH1 0xFF MUL NOT AND SWAP1 DUP4 PUSH1 0xFF AND MUL OR SWAP1 SSTORE POP PUSH1 0xC0 DUP3 ADD MLOAD DUP2 PUSH1 0x3 ADD PUSH1 0x16 PUSH2 0x100 EXP DUP2 SLOAD DUP2 PUSH1 0xFF MUL NOT AND SWAP1 DUP4 ISZERO ISZERO MUL OR SWAP1 SSTORE POP POP POP PUSH2 0x4A72 PUSH32 0x11F6B79C65525AA967486C6DA616A4420514D61BB51407772D0C532F76EA29D4 PUSH1 0x0 SHL PUSH2 0x55A5 JUMP JUMPDEST PUSH2 0x4A9E PUSH32 0xF2721113512EBC1B43B7F48516FD97BCAF4F0188FCA67E55C2D5E34DA71BAA77 PUSH1 0x0 SHL PUSH2 0x55A5 JUMP JUMPDEST PUSH1 0x1 DUP1 PUSH1 0x0 DUP4 DUP2 MSTORE PUSH1 0x20 ADD SWAP1 DUP2 MSTORE PUSH1 0x20 ADD PUSH1 0x0 KECCAK256 DUP1 SLOAD SWAP1 POP EQ ISZERO PUSH2 0x4CA9 JUMPI PUSH2 0x4AE8 PUSH32 0x3E15AC9FDDBE850B91276BAE678E955B1C6136882DFF381B6727C7AA57247B99 PUSH1 0x0 SHL PUSH2 0x55A5 JUMP JUMPDEST PUSH2 0x4B14 PUSH32 0xA5A1F44274239EC653F97A096A02CC427EC2CCDB40A1E78EB5001AA6AA59060D PUSH1 0x0 SHL PUSH2 0x55A5 JUMP JUMPDEST PUSH2 0x4B40 PUSH32 0x42E8D3193F76ACB434A3D1CE3E28A5E5BC81C5285C8029F6E4BB0786E92F7FA2 PUSH1 0x0 SHL PUSH2 0x55A5 JUMP JUMPDEST PUSH1 0x2 PUSH1 0x0 CALLER PUSH20 0xFFFFFFFFFFFFFFFFFFFFFFFFFFFFFFFFFFFFFFFF AND PUSH20 0xFFFFFFFFFFFFFFFFFFFFFFFFFFFFFFFFFFFFFFFF AND DUP2 MSTORE PUSH1 0x20 ADD SWAP1 DUP2 MSTORE PUSH1 0x20 ADD PUSH1 0x0 KECCAK256 DUP2 SWAP1 DUP1 PUSH1 0x1 DUP2 SLOAD ADD DUP1 DUP3 SSTORE DUP1 SWAP2 POP POP PUSH1 0x1 SWAP1 SUB SWAP1 PUSH1 0x0 MSTORE PUSH1 0x20 PUSH1 0x0 KECCAK256 ADD PUSH1 0x0 SWAP1 SWAP2 SWAP1 SWAP2 SWAP1 SWAP2 POP SSTORE PUSH2 0x4BD2 PUSH32 0xFB2B7766D36631949B4FEED8FFBC44E138A8CBC95B7A2EA5D24D412AD988F5D1 PUSH1 0x0 SHL PUSH2 0x55A5 JUMP JUMPDEST PUSH2 0x4BFE PUSH32 0xA7856FFF9B2EEFA15261B63E3AF3F2A861C78A95023897FF28082B04618C783B PUSH1 0x0 SHL PUSH2 0x55A5 JUMP JUMPDEST PUSH1 0x3 PUSH1 0x0 DUP10 DUP6 DUP2 MLOAD DUP2 LT PUSH2 0x4C3B JUMPI PUSH32 0x4E487B7100000000000000000000000000000000000000000000000000000000 PUSH1 0x0 MSTORE PUSH1 0x32 PUSH1 0x4 MSTORE PUSH1 0x24 PUSH1 0x0 REVERT JUMPDEST PUSH1 0x20 MUL PUSH1 0x20 ADD ADD MLOAD PUSH20 0xFFFFFFFFFFFFFFFFFFFFFFFFFFFFFFFFFFFFFFFF AND PUSH20 0xFFFFFFFFFFFFFFFFFFFFFFFFFFFFFFFFFFFFFFFF AND DUP2 MSTORE PUSH1 0x20 ADD SWAP1 DUP2 MSTORE PUSH1 0x20 ADD PUSH1 0x0 KECCAK256 DUP2 SWAP1 DUP1 PUSH1 0x1 DUP2 SLOAD ADD DUP1 DUP3 SSTORE DUP1 SWAP2 POP POP PUSH1 0x1 SWAP1 SUB SWAP1 PUSH1 0x0 MSTORE PUSH1 0x20 PUSH1 0x0 KECCAK256 ADD PUSH1 0x0 SWAP1 SWAP2 SWAP1 SWAP2 SWAP1 SWAP2 POP SSTORE PUSH2 0x4CD6 JUMP JUMPDEST PUSH2 0x4CD5 PUSH32 0xD2C67BBB2124DECC73F222EF0D8CDBDD58B490548FA38CEFE847DF196019EE4 PUSH1 0x0 SHL PUSH2 0x55A5 JUMP JUMPDEST JUMPDEST POP POP DUP1 DUP1 PUSH2 0x4CE3 SWAP1 PUSH2 0x8621 JUMP JUMPDEST SWAP2 POP POP PUSH2 0x41AF JUMP JUMPDEST POP PUSH2 0x4D18 PUSH32 0xC843FD2CCFE6C9DECF472A967292823A6E62BD006855C646D1174987ACFD7020 PUSH1 0x0 SHL PUSH2 0x55A5 JUMP JUMPDEST PUSH2 0x4D44 PUSH32 0x6C1B83CA75E1706039E7106745F4BD735318A69B3CA7667E69931E392344032D PUSH1 0x0 SHL PUSH2 0x55A5 JUMP JUMPDEST PUSH32 0xC05DAE71AD6EBF2680862EBED51B27E8EA99855A67CFC24E7A3E0212C34E5E2F DUP3 PUSH1 0x1 PUSH1 0x40 MLOAD PUSH2 0x4D76 SWAP3 SWAP2 SWAP1 PUSH2 0x82B6 JUMP JUMPDEST PUSH1 0x40 MLOAD DUP1 SWAP2 SUB SWAP1 LOG1 POP POP PUSH1 0x1 PUSH1 0x0 DUP2 SWAP1 SSTORE POP POP POP POP JUMP JUMPDEST PUSH1 0x2 PUSH1 0x0 SLOAD EQ ISZERO PUSH2 0x4DD3 JUMPI PUSH1 0x40 MLOAD PUSH32 0x8C379A000000000000000000000000000000000000000000000000000000000 DUP2 MSTORE PUSH1 0x4 ADD PUSH2 0x4DCA SWAP1 PUSH2 0x827B JUMP JUMPDEST PUSH1 0x40 MLOAD DUP1 SWAP2 SUB SWAP1 REVERT JUMPDEST PUSH1 0x2 PUSH1 0x0 DUP2 SWAP1 SSTORE POP PUSH2 0x4E07 PUSH32 0x381AD280A6DA1ADB8A0D159D48DCC739CCB4E8D545D9568669BCB372A48D5811 PUSH1 0x0 SHL PUSH2 0x55A5 JUMP JUMPDEST PUSH2 0x4E33 PUSH32 0x4F9AED166026740F6BE5A9DEFA129872471F87DF57EB0CCA99A2A59C9F5A604C PUSH1 0x0 SHL PUSH2 0x55A5 JUMP JUMPDEST PUSH2 0x4E5F PUSH32 0x4B777DB8724ACF451CC2B278A6BF728E23E441B33563BE0424B79449DFFAD6DE PUSH1 0x0 SHL PUSH2 0x55A5 JUMP JUMPDEST PUSH2 0x4E8B PUSH32 0x73AE1A0BC210F2E15AB5594382A0822FE26FFEDE8E795BF49DB704C4DE7C8846 PUSH1 0x0 SHL PUSH2 0x55A5 JUMP JUMPDEST DUP2 MLOAD DUP4 MLOAD EQ PUSH2 0x4ECF JUMPI PUSH1 0x40 MLOAD PUSH32 0x8C379A000000000000000000000000000000000000000000000000000000000 DUP2 MSTORE PUSH1 0x4 ADD PUSH2 0x4EC6 SWAP1 PUSH2 0x825B JUMP JUMPDEST PUSH1 0x40 MLOAD DUP1 SWAP2 SUB SWAP1 REVERT JUMPDEST PUSH2 0x4EFB PUSH32 0x6A867B3B26D8B770D11BC734AE1FED92D037196EC09B3F643609B18761345A2D PUSH1 0x0 SHL PUSH2 0x55A5 JUMP JUMPDEST PUSH2 0x4F27 PUSH32 0x6CF636FCCE5B8BDD6A30BA3EABB6CA449B559097A75FD76D61B12454D413B27B PUSH1 0x0 SHL PUSH2 0x55A5 JUMP JUMPDEST PUSH2 0x4F53 PUSH32 0x7DC49570188DB9CD4A6FBB57B3B0B6FA73E89F7DDF170DC590F18A18A74D3FCB PUSH1 0x0 SHL PUSH2 0x55A5 JUMP JUMPDEST PUSH2 0x4F7F PUSH32 0x885E80C7E978C4B28A2E15D370EC559B614E54AC96AB936A7D09E6AEC6555ED3 PUSH1 0x0 SHL PUSH2 0x55A5 JUMP JUMPDEST DUP1 MLOAD DUP4 MLOAD EQ PUSH2 0x4FC3 JUMPI PUSH1 0x40 MLOAD PUSH32 0x8C379A000000000000000000000000000000000000000000000000000000000 DUP2 MSTORE PUSH1 0x4 ADD PUSH2 0x4FBA SWAP1 PUSH2 0x821B JUMP JUMPDEST PUSH1 0x40 MLOAD DUP1 SWAP2 SUB SWAP1 REVERT JUMPDEST PUSH2 0x4FEF PUSH32 0x509C5C4D1EF1F7F5EF2933A2B01652FC31AEB268183D53ACA7CD34068486FCFF PUSH1 0x0 SHL PUSH2 0x55A5 JUMP JUMPDEST PUSH2 0x501B PUSH32 0x975969B3EEA1901F9B5808678472C07DA2E5B897F3038C0223B87C79414E245D PUSH1 0x0 SHL PUSH2 0x55A5 JUMP JUMPDEST PUSH2 0x5047 PUSH32 0x8E7240870454A1CC59670AE72D51D3DBE6C80A0BB2DAA7186BC241E9856DCCFD PUSH1 0x0 SHL PUSH2 0x55A5 JUMP JUMPDEST PUSH1 0x0 JUMPDEST DUP4 MLOAD DUP2 LT ISZERO PUSH2 0x518B JUMPI PUSH2 0x507F PUSH32 0x884F425D5EFDC9B7B2680D30DEA37B4ED737818CFD107F8DC5DCAB69E0E5CDD2 PUSH1 0x0 SHL PUSH2 0x55A5 JUMP JUMPDEST PUSH2 0x50AB PUSH32 0xDF194BC1CC9218E47181DF0DC47E49CE37A09B617A0827C4F9340789469F9DE6 PUSH1 0x0 SHL PUSH2 0x55A5 JUMP JUMPDEST PUSH2 0x5178 DUP5 DUP3 DUP2 MLOAD DUP2 LT PUSH2 0x50E7 JUMPI PUSH32 0x4E487B7100000000000000000000000000000000000000000000000000000000 PUSH1 0x0 MSTORE PUSH1 0x32 PUSH1 0x4 MSTORE PUSH1 0x24 PUSH1 0x0 REVERT JUMPDEST PUSH1 0x20 MUL PUSH1 0x20 ADD ADD MLOAD DUP5 DUP4 DUP2 MLOAD DUP2 LT PUSH2 0x5128 JUMPI PUSH32 0x4E487B7100000000000000000000000000000000000000000000000000000000 PUSH1 0x0 MSTORE PUSH1 0x32 PUSH1 0x4 MSTORE PUSH1 0x24 PUSH1 0x0 REVERT JUMPDEST PUSH1 0x20 MUL PUSH1 0x20 ADD ADD MLOAD PUSH1 0x1 DUP6 DUP6 DUP2 MLOAD DUP2 LT PUSH2 0x516B JUMPI PUSH32 0x4E487B7100000000000000000000000000000000000000000000000000000000 PUSH1 0x0 MSTORE PUSH1 0x32 PUSH1 0x4 MSTORE PUSH1 0x24 PUSH1 0x0 REVERT JUMPDEST PUSH1 0x20 MUL PUSH1 0x20 ADD ADD MLOAD PUSH2 0x6360 JUMP JUMPDEST DUP1 DUP1 PUSH2 0x5183 SWAP1 PUSH2 0x8621 JUMP JUMPDEST SWAP2 POP POP PUSH2 0x504A JUMP JUMPDEST POP PUSH1 0x1 PUSH1 0x0 DUP2 SWAP1 SSTORE POP POP POP POP JUMP JUMPDEST PUSH1 0x2 PUSH1 0x0 SLOAD EQ ISZERO PUSH2 0x51DF JUMPI PUSH1 0x40 MLOAD PUSH32 0x8C379A000000000000000000000000000000000000000000000000000000000 DUP2 MSTORE PUSH1 0x4 ADD PUSH2 0x51D6 SWAP1 PUSH2 0x827B JUMP JUMPDEST PUSH1 0x40 MLOAD DUP1 SWAP2 SUB SWAP1 REVERT JUMPDEST PUSH1 0x2 PUSH1 0x0 DUP2 SWAP1 SSTORE POP PUSH2 0x5213 PUSH32 0xFB46A91F9D1091A2293A8B6B5FF02CB52D6005FAA1FAEA8C37B4356C376A723 PUSH1 0x0 SHL PUSH2 0x55A5 JUMP JUMPDEST PUSH2 0x523F PUSH32 0x887E6E69DF35B0A71D56BE8F57572D3A3900E00C610D782A7E7D767AAEC34541 PUSH1 0x0 SHL PUSH2 0x55A5 JUMP JUMPDEST PUSH2 0x526B PUSH32 0xF4F39DF32F3BA0986946319005F702C22D02B339084DC0F5134465570EA7E413 PUSH1 0x0 SHL PUSH2 0x55A5 JUMP JUMPDEST PUSH2 0x5297 PUSH32 0x9ADA3EFF898CDD6C516C8A7C501B7B28AA85AD689737DE962ACFD659C4059992 PUSH1 0x0 SHL PUSH2 0x55A5 JUMP JUMPDEST DUP2 MLOAD DUP4 MLOAD EQ PUSH2 0x52DB JUMPI PUSH1 0x40 MLOAD PUSH32 0x8C379A000000000000000000000000000000000000000000000000000000000 DUP2 MSTORE PUSH1 0x4 ADD PUSH2 0x52D2 SWAP1 PUSH2 0x825B JUMP JUMPDEST PUSH1 0x40 MLOAD DUP1 SWAP2 SUB SWAP1 REVERT JUMPDEST PUSH2 0x5307 PUSH32 0xBC824A199D35FBA14DD21EB9699BE03F8068EF5F847D53A2A5B2114C8AA7F34E PUSH1 0x0 SHL PUSH2 0x55A5 JUMP JUMPDEST PUSH2 0x5333 PUSH32 0x64A43FBA3DAFAC21DAC5A16729B7621BC2AD3FDD6013FE9DF0E8E8A4D17DED82 PUSH1 0x0 SHL PUSH2 0x55A5 JUMP JUMPDEST PUSH2 0x535F PUSH32 0x102792ACEA8042302DD4EA8142450DF56CBD9BD914E354CE1C81A4BA36DFF654 PUSH1 0x0 SHL PUSH2 0x55A5 JUMP JUMPDEST PUSH2 0x538B PUSH32 0x7345AB6D4B8A37AA58311DC7867225E4FE738D8694E17D5FA3AAD97DBD8FFBF3 PUSH1 0x0 SHL PUSH2 0x55A5 JUMP JUMPDEST DUP1 MLOAD DUP4 MLOAD EQ PUSH2 0x53CF JUMPI PUSH1 0x40 MLOAD PUSH32 0x8C379A000000000000000000000000000000000000000000000000000000000 DUP2 MSTORE PUSH1 0x4 ADD PUSH2 0x53C6 SWAP1 PUSH2 0x821B JUMP JUMPDEST PUSH1 0x40 MLOAD DUP1 SWAP2 SUB SWAP1 REVERT JUMPDEST PUSH2 0x53FB PUSH32 0x8AF34646974B93EC249C42C5F734D8CCE595536CE3540395F9AA19796569E9CC PUSH1 0x0 SHL PUSH2 0x55A5 JUMP JUMPDEST PUSH2 0x5427 PUSH32 0xB8E74F29847CBEDDD53F90553E08B5CC80BF0886F72B4A78993649A2008F222 PUSH1 0x0 SHL PUSH2 0x55A5 JUMP JUMPDEST PUSH2 0x5453 PUSH32 0x29B2F39D683A71078EBC55E75911653F715907CA7A0A70C0CBDD7EE3F1A43D61 PUSH1 0x0 SHL PUSH2 0x55A5 JUMP JUMPDEST PUSH1 0x0 JUMPDEST DUP4 MLOAD DUP2 LT ISZERO PUSH2 0x5597 JUMPI PUSH2 0x548B PUSH32 0xEA7C7D45363C255E8F6876BE4A896E69C2719671D7E2F93CACAD2CC97A36F6C3 PUSH1 0x0 SHL PUSH2 0x55A5 JUMP JUMPDEST PUSH2 0x54B7 PUSH32 0x7972ACB2711AB07C3A8AEA04F4AC9B34CF767168F5619B6058B642619AB1CDE8 PUSH1 0x0 SHL PUSH2 0x55A5 JUMP JUMPDEST PUSH2 0x5584 DUP5 DUP3 DUP2 MLOAD DUP2 LT PUSH2 0x54F3 JUMPI PUSH32 0x4E487B7100000000000000000000000000000000000000000000000000000000 PUSH1 0x0 MSTORE PUSH1 0x32 PUSH1 0x4 MSTORE PUSH1 0x24 PUSH1 0x0 REVERT JUMPDEST PUSH1 0x20 MUL PUSH1 0x20 ADD ADD MLOAD DUP5 DUP4 DUP2 MLOAD DUP2 LT PUSH2 0x5534 JUMPI PUSH32 0x4E487B7100000000000000000000000000000000000000000000000000000000 PUSH1 0x0 MSTORE PUSH1 0x32 PUSH1 0x4 MSTORE PUSH1 0x24 PUSH1 0x0 REVERT JUMPDEST PUSH1 0x20 MUL PUSH1 0x20 ADD ADD MLOAD PUSH1 0x2 DUP6 DUP6 DUP2 MLOAD DUP2 LT PUSH2 0x5577 JUMPI PUSH32 0x4E487B7100000000000000000000000000000000000000000000000000000000 PUSH1 0x0 MSTORE PUSH1 0x32 PUSH1 0x4 MSTORE PUSH1 0x24 PUSH1 0x0 REVERT JUMPDEST PUSH1 0x20 MUL PUSH1 0x20 ADD ADD MLOAD PUSH2 0x6360 JUMP JUMPDEST DUP1 DUP1 PUSH2 0x558F SWAP1 PUSH2 0x8621 JUMP JUMPDEST SWAP2 POP POP PUSH2 0x5456 JUMP JUMPDEST POP PUSH1 0x1 PUSH1 0x0 DUP2 SWAP1 SSTORE POP POP POP POP JUMP JUMPDEST POP JUMP JUMPDEST PUSH2 0x55D4 PUSH32 0x45BC97869A901B06AB58AC604318FBC1E2EAEDBE961C9543008CFD0FD9906DE0 PUSH1 0x0 SHL PUSH2 0x55A5 JUMP JUMPDEST PUSH2 0x5600 PUSH32 0x22C741739E6584FCE21BCE0E1A5EFA9A7B3E68DC3CDCC1EB8A7C8C4C682413AC PUSH1 0x0 SHL PUSH2 0x55A5 JUMP JUMPDEST PUSH2 0x562C PUSH32 0xE1F14B5B287D3C376513B93832AEB34DC85BC5E67E0B18BE7358C543476D9535 PUSH1 0x0 SHL PUSH2 0x55A5 JUMP JUMPDEST PUSH1 0x0 CALLER DUP6 PUSH1 0x40 MLOAD PUSH1 0x20 ADD PUSH2 0x5641 SWAP3 SWAP2 SWAP1 PUSH2 0x8098 JUMP JUMPDEST PUSH1 0x40 MLOAD PUSH1 0x20 DUP2 DUP4 SUB SUB DUP2 MSTORE SWAP1 PUSH1 0x40 MSTORE DUP1 MLOAD SWAP1 PUSH1 0x20 ADD KECCAK256 SWAP1 POP PUSH2 0x5685 PUSH32 0xF96E1BE01757CD692FBA3B828F9A989C292B98CC55FD03D8DA404115E7DE1527 PUSH1 0x0 SHL PUSH2 0x55A5 JUMP JUMPDEST PUSH2 0x56B1 PUSH32 0x605C6368627562466AB87460AAC936C57DF4714A2F3F36FAB63DED8B033C2063 PUSH1 0x0 SHL PUSH2 0x55A5 JUMP JUMPDEST PUSH1 0x0 JUMPDEST PUSH1 0x1 PUSH1 0x0 DUP4 DUP2 MSTORE PUSH1 0x20 ADD SWAP1 DUP2 MSTORE PUSH1 0x20 ADD PUSH1 0x0 KECCAK256 DUP1 SLOAD SWAP1 POP DUP2 LT ISZERO PUSH2 0x6358 JUMPI PUSH2 0x56FE PUSH32 0x630989738FE3AFA06AA0AD8887DDB0E0C7403A590F9E66FE6CB604FF117D0E8 PUSH1 0x0 SHL PUSH2 0x55A5 JUMP JUMPDEST PUSH2 0x572A PUSH32 0xB26BB0E4D191A52F7FA922505A4BBEC6F3623595C92504A559B7BB4C261D6F15 PUSH1 0x0 SHL PUSH2 0x55A5 JUMP JUMPDEST DUP3 DUP1 MLOAD SWAP1 PUSH1 0x20 ADD KECCAK256 PUSH1 0x1 PUSH1 0x0 DUP5 DUP2 MSTORE PUSH1 0x20 ADD SWAP1 DUP2 MSTORE PUSH1 0x20 ADD PUSH1 0x0 KECCAK256 DUP3 DUP2 SLOAD DUP2 LT PUSH2 0x577D JUMPI PUSH32 0x4E487B7100000000000000000000000000000000000000000000000000000000 PUSH1 0x0 MSTORE PUSH1 0x32 PUSH1 0x4 MSTORE PUSH1 0x24 PUSH1 0x0 REVERT JUMPDEST SWAP1 PUSH1 0x0 MSTORE PUSH1 0x20 PUSH1 0x0 KECCAK256 SWAP1 PUSH1 0x4 MUL ADD PUSH1 0x0 ADD PUSH1 0x40 MLOAD PUSH2 0x579B SWAP2 SWAP1 PUSH2 0x8109 JUMP JUMPDEST PUSH1 0x40 MLOAD DUP1 SWAP2 SUB SWAP1 KECCAK256 EQ DUP1 ISZERO PUSH2 0x580B JUMPI POP DUP5 PUSH1 0x1 PUSH1 0x0 DUP5 DUP2 MSTORE PUSH1 0x20 ADD SWAP1 DUP2 MSTORE PUSH1 0x20 ADD PUSH1 0x0 KECCAK256 DUP3 DUP2 SLOAD DUP2 LT PUSH2 0x57F7 JUMPI PUSH32 0x4E487B7100000000000000000000000000000000000000000000000000000000 PUSH1 0x0 MSTORE PUSH1 0x32 PUSH1 0x4 MSTORE PUSH1 0x24 PUSH1 0x0 REVERT JUMPDEST SWAP1 PUSH1 0x0 MSTORE PUSH1 0x20 PUSH1 0x0 KECCAK256 SWAP1 PUSH1 0x4 MUL ADD PUSH1 0x1 ADD SLOAD EQ JUMPDEST DUP1 ISZERO PUSH2 0x5884 JUMPI POP PUSH1 0x1 ISZERO ISZERO PUSH1 0x1 PUSH1 0x0 DUP5 DUP2 MSTORE PUSH1 0x20 ADD SWAP1 DUP2 MSTORE PUSH1 0x20 ADD PUSH1 0x0 KECCAK256 DUP3 DUP2 SLOAD DUP2 LT PUSH2 0x5861 JUMPI PUSH32 0x4E487B7100000000000000000000000000000000000000000000000000000000 PUSH1 0x0 MSTORE PUSH1 0x32 PUSH1 0x4 MSTORE PUSH1 0x24 PUSH1 0x0 REVERT JUMPDEST SWAP1 PUSH1 0x0 MSTORE PUSH1 0x20 PUSH1 0x0 KECCAK256 SWAP1 PUSH1 0x4 MUL ADD PUSH1 0x3 ADD PUSH1 0x16 SWAP1 SLOAD SWAP1 PUSH2 0x100 EXP SWAP1 DIV PUSH1 0xFF AND ISZERO ISZERO EQ JUMPDEST ISZERO PUSH2 0x6319 JUMPI PUSH2 0x58B5 PUSH32 0x3393E140D524DD7A94537AF0CED7A2ABD1A3547FEDB17B6160FB39E0A5D66671 PUSH1 0x0 SHL PUSH2 0x55A5 JUMP JUMPDEST PUSH2 0x58E1 PUSH32 0x92A1729BC461CC299047E287845B661F8B3EA90073AFCAEAA33E3F2EA4F1A255 PUSH1 0x0 SHL PUSH2 0x55A5 JUMP JUMPDEST PUSH2 0x590D PUSH32 0xD3A58CDC6C7ED24D29763D9F51A33BACE457FD44FF8C2AB925E002CB3BC7BD31 PUSH1 0x0 SHL PUSH2 0x55A5 JUMP JUMPDEST PUSH2 0x5939 PUSH32 0xFA896351EF360A2823528F39656E4DB955EBAAEE3521D42895343C6F77C2B820 PUSH1 0x0 SHL PUSH2 0x55A5 JUMP JUMPDEST CALLER PUSH20 0xFFFFFFFFFFFFFFFFFFFFFFFFFFFFFFFFFFFFFFFF AND PUSH1 0x1 PUSH1 0x0 DUP5 DUP2 MSTORE PUSH1 0x20 ADD SWAP1 DUP2 MSTORE PUSH1 0x20 ADD PUSH1 0x0 KECCAK256 DUP3 DUP2 SLOAD DUP2 LT PUSH2 0x599B JUMPI PUSH32 0x4E487B7100000000000000000000000000000000000000000000000000000000 PUSH1 0x0 MSTORE PUSH1 0x32 PUSH1 0x4 MSTORE PUSH1 0x24 PUSH1 0x0 REVERT JUMPDEST SWAP1 PUSH1 0x0 MSTORE PUSH1 0x20 PUSH1 0x0 KECCAK256 SWAP1 PUSH1 0x4 MUL ADD PUSH1 0x2 ADD PUSH1 0x0 SWAP1 SLOAD SWAP1 PUSH2 0x100 EXP SWAP1 DIV PUSH20 0xFFFFFFFFFFFFFFFFFFFFFFFFFFFFFFFFFFFFFFFF AND PUSH20 0xFFFFFFFFFFFFFFFFFFFFFFFFFFFFFFFFFFFFFFFF AND EQ PUSH2 0x5A23 JUMPI PUSH1 0x40 MLOAD PUSH32 0x8C379A000000000000000000000000000000000000000000000000000000000 DUP2 MSTORE PUSH1 0x4 ADD PUSH2 0x5A1A SWAP1 PUSH2 0x819B JUMP JUMPDEST PUSH1 0x40 MLOAD DUP1 SWAP2 SUB SWAP1 REVERT JUMPDEST PUSH2 0x5A4F PUSH32 0x6BDE55768D84A52EC7FF4199BB8D93309109B235B12AFDCBFB2ADEC100257CE6 PUSH1 0x0 SHL PUSH2 0x55A5 JUMP JUMPDEST PUSH2 0x5A7B PUSH32 0xAD5A5B40C30D9518D30BACAE4424B45F12CDEDF7E3A93DE9B12DCD21BFDE7E4F PUSH1 0x0 SHL PUSH2 0x55A5 JUMP JUMPDEST PUSH2 0x5AA7 PUSH32 0x85D50A6352CE5720060E47F70BED0A4D409D221BE134E9262FB07DB34DD6A13D PUSH1 0x0 SHL PUSH2 0x55A5 JUMP JUMPDEST DUP4 PUSH1 0x1 PUSH1 0x0 DUP5 DUP2 MSTORE PUSH1 0x20 ADD SWAP1 DUP2 MSTORE PUSH1 0x20 ADD PUSH1 0x0 KECCAK256 DUP3 DUP2 SLOAD DUP2 LT PUSH2 0x5AF3 JUMPI PUSH32 0x4E487B7100000000000000000000000000000000000000000000000000000000 PUSH1 0x0 MSTORE PUSH1 0x32 PUSH1 0x4 MSTORE PUSH1 0x24 PUSH1 0x0 REVERT JUMPDEST SWAP1 PUSH1 0x0 MSTORE PUSH1 0x20 PUSH1 0x0 KECCAK256 SWAP1 PUSH1 0x4 MUL ADD PUSH1 0x3 ADD PUSH1 0x14 PUSH2 0x100 EXP DUP2 SLOAD DUP2 PUSH1 0xFF MUL NOT AND SWAP1 DUP4 PUSH1 0xFF AND MUL OR SWAP1 SSTORE POP PUSH2 0x5B48 PUSH32 0xE9A7B28C1D469265C28FF4181B260A0451CAC7B78132BD36301E4C72F2259008 PUSH1 0x0 SHL PUSH2 0x55A5 JUMP JUMPDEST PUSH2 0x5B74 PUSH32 0xD7C50AE5A66CEA5DC82E6A7ECA3F2D16E59824C1B0C2C33DF787FA190D222D0B PUSH1 0x0 SHL PUSH2 0x55A5 JUMP JUMPDEST PUSH1 0x0 PUSH2 0x5D7F PUSH1 0x1 PUSH1 0x0 DUP6 DUP2 MSTORE PUSH1 0x20 ADD SWAP1 DUP2 MSTORE PUSH1 0x20 ADD PUSH1 0x0 KECCAK256 DUP4 DUP2 SLOAD DUP2 LT PUSH2 0x5BC4 JUMPI PUSH32 0x4E487B7100000000000000000000000000000000000000000000000000000000 PUSH1 0x0 MSTORE PUSH1 0x32 PUSH1 0x4 MSTORE PUSH1 0x24 PUSH1 0x0 REVERT JUMPDEST SWAP1 PUSH1 0x0 MSTORE PUSH1 0x20 PUSH1 0x0 KECCAK256 SWAP1 PUSH1 0x4 MUL ADD PUSH1 0x40 MLOAD DUP1 PUSH1 0xE0 ADD PUSH1 0x40 MSTORE SWAP1 DUP2 PUSH1 0x0 DUP3 ADD DUP1 SLOAD PUSH2 0x5BED SWAP1 PUSH2 0x85BE JUMP JUMPDEST DUP1 PUSH1 0x1F ADD PUSH1 0x20 DUP1 SWAP2 DIV MUL PUSH1 0x20 ADD PUSH1 0x40 MLOAD SWAP1 DUP2 ADD PUSH1 0x40 MSTORE DUP1 SWAP3 SWAP2 SWAP1 DUP2 DUP2 MSTORE PUSH1 0x20 ADD DUP3 DUP1 SLOAD PUSH2 0x5C19 SWAP1 PUSH2 0x85BE JUMP JUMPDEST DUP1 ISZERO PUSH2 0x5C66 JUMPI DUP1 PUSH1 0x1F LT PUSH2 0x5C3B JUMPI PUSH2 0x100 DUP1 DUP4 SLOAD DIV MUL DUP4 MSTORE SWAP2 PUSH1 0x20 ADD SWAP2 PUSH2 0x5C66 JUMP JUMPDEST DUP3 ADD SWAP2 SWAP1 PUSH1 0x0 MSTORE PUSH1 0x20 PUSH1 0x0 KECCAK256 SWAP1 JUMPDEST DUP2 SLOAD DUP2 MSTORE SWAP1 PUSH1 0x1 ADD SWAP1 PUSH1 0x20 ADD DUP1 DUP4 GT PUSH2 0x5C49 JUMPI DUP3 SWAP1 SUB PUSH1 0x1F AND DUP3 ADD SWAP2 JUMPDEST POP POP POP POP POP DUP2 MSTORE PUSH1 0x20 ADD PUSH1 0x1 DUP3 ADD SLOAD DUP2 MSTORE PUSH1 0x20 ADD PUSH1 0x2 DUP3 ADD PUSH1 0x0 SWAP1 SLOAD SWAP1 PUSH2 0x100 EXP SWAP1 DIV PUSH20 0xFFFFFFFFFFFFFFFFFFFFFFFFFFFFFFFFFFFFFFFF AND PUSH20 0xFFFFFFFFFFFFFFFFFFFFFFFFFFFFFFFFFFFFFFFF AND PUSH20 0xFFFFFFFFFFFFFFFFFFFFFFFFFFFFFFFFFFFFFFFF AND DUP2 MSTORE PUSH1 0x20 ADD PUSH1 0x3 DUP3 ADD PUSH1 0x0 SWAP1 SLOAD SWAP1 PUSH2 0x100 EXP SWAP1 DIV PUSH20 0xFFFFFFFFFFFFFFFFFFFFFFFFFFFFFFFFFFFFFFFF AND PUSH20 0xFFFFFFFFFFFFFFFFFFFFFFFFFFFFFFFFFFFFFFFF AND PUSH20 0xFFFFFFFFFFFFFFFFFFFFFFFFFFFFFFFFFFFFFFFF AND DUP2 MSTORE PUSH1 0x20 ADD PUSH1 0x3 DUP3 ADD PUSH1 0x14 SWAP1 SLOAD SWAP1 PUSH2 0x100 EXP SWAP1 DIV PUSH1 0xFF AND PUSH1 0xFF AND PUSH1 0xFF AND DUP2 MSTORE PUSH1 0x20 ADD PUSH1 0x3 DUP3 ADD PUSH1 0x15 SWAP1 SLOAD SWAP1 PUSH2 0x100 EXP SWAP1 DIV PUSH1 0xFF AND PUSH1 0xFF AND PUSH1 0xFF AND DUP2 MSTORE PUSH1 0x20 ADD PUSH1 0x3 DUP3 ADD PUSH1 0x16 SWAP1 SLOAD SWAP1 PUSH2 0x100 EXP SWAP1 DIV PUSH1 0xFF AND ISZERO ISZERO ISZERO ISZERO DUP2 MSTORE POP POP PUSH2 0x7118 JUMP JUMPDEST SWAP1 POP PUSH2 0x5DAD PUSH32 0xCF91C5AF73084883F146AB837CBDC6F5AADAE26D8FEA48B10F92E15F19E51C75 PUSH1 0x0 SHL PUSH2 0x55A5 JUMP JUMPDEST PUSH2 0x5DD9 PUSH32 0xE4920712F789066EBB77A380A6D415FB95246753FE11307454A0542484599283 PUSH1 0x0 SHL PUSH2 0x55A5 JUMP JUMPDEST PUSH1 0x1 DUP2 PUSH1 0xFF AND EQ ISZERO PUSH2 0x601D JUMPI PUSH2 0x5E11 PUSH32 0xDFB6464A5B280B098FA3805443364A1987A2FCAE08AA912F32BE32D24D819158 PUSH1 0x0 SHL PUSH2 0x55A5 JUMP JUMPDEST PUSH2 0x5E3D PUSH32 0xDCF703FCF270BF3B23752F02F42978C209B39650FA725CB2DDCC5EAC5E494EEF PUSH1 0x0 SHL PUSH2 0x55A5 JUMP JUMPDEST PUSH2 0x5E69 PUSH32 0x37398638A6AFEB11075D7C90A8D097E956B3BFEED6644339311712279EC5E248 PUSH1 0x0 SHL PUSH2 0x55A5 JUMP JUMPDEST PUSH1 0x0 PUSH1 0x1 PUSH1 0x0 DUP6 DUP2 MSTORE PUSH1 0x20 ADD SWAP1 DUP2 MSTORE PUSH1 0x20 ADD PUSH1 0x0 KECCAK256 DUP4 DUP2 SLOAD DUP2 LT PUSH2 0x5EB6 JUMPI PUSH32 0x4E487B7100000000000000000000000000000000000000000000000000000000 PUSH1 0x0 MSTORE PUSH1 0x32 PUSH1 0x4 MSTORE PUSH1 0x24 PUSH1 0x0 REVERT JUMPDEST SWAP1 PUSH1 0x0 MSTORE PUSH1 0x20 PUSH1 0x0 KECCAK256 SWAP1 PUSH1 0x4 MUL ADD PUSH1 0x3 ADD PUSH1 0x16 PUSH2 0x100 EXP DUP2 SLOAD DUP2 PUSH1 0xFF MUL NOT AND SWAP1 DUP4 ISZERO ISZERO MUL OR SWAP1 SSTORE POP PUSH2 0x5F0A PUSH32 0x4CB65F69D2D206122F7AFA94E00C9422600CBA10951C565913B65525E225E263 PUSH1 0x0 SHL PUSH2 0x55A5 JUMP JUMPDEST PUSH2 0x5F36 PUSH32 0x79A0D6708DCD2E8E985AB8265B3FAEFBE3F02823C8818B53302020C55CF3C790 PUSH1 0x0 SHL PUSH2 0x55A5 JUMP JUMPDEST PUSH2 0x6018 PUSH1 0x1 PUSH1 0x0 DUP6 DUP2 MSTORE PUSH1 0x20 ADD SWAP1 DUP2 MSTORE PUSH1 0x20 ADD PUSH1 0x0 KECCAK256 DUP4 DUP2 SLOAD DUP2 LT PUSH2 0x5F84 JUMPI PUSH32 0x4E487B7100000000000000000000000000000000000000000000000000000000 PUSH1 0x0 MSTORE PUSH1 0x32 PUSH1 0x4 MSTORE PUSH1 0x24 PUSH1 0x0 REVERT JUMPDEST SWAP1 PUSH1 0x0 MSTORE PUSH1 0x20 PUSH1 0x0 KECCAK256 SWAP1 PUSH1 0x4 MUL ADD PUSH1 0x3 ADD PUSH1 0x0 SWAP1 SLOAD SWAP1 PUSH2 0x100 EXP SWAP1 DIV PUSH20 0xFFFFFFFFFFFFFFFFFFFFFFFFFFFFFFFFFFFFFFFF AND PUSH1 0x1 PUSH1 0x0 DUP7 DUP2 MSTORE PUSH1 0x20 ADD SWAP1 DUP2 MSTORE PUSH1 0x20 ADD PUSH1 0x0 KECCAK256 DUP5 DUP2 SLOAD DUP2 LT PUSH2 0x6001 JUMPI PUSH32 0x4E487B7100000000000000000000000000000000000000000000000000000000 PUSH1 0x0 MSTORE PUSH1 0x32 PUSH1 0x4 MSTORE PUSH1 0x24 PUSH1 0x0 REVERT JUMPDEST SWAP1 PUSH1 0x0 MSTORE PUSH1 0x20 PUSH1 0x0 KECCAK256 SWAP1 PUSH1 0x4 MUL ADD PUSH1 0x1 ADD SLOAD PUSH2 0x72D2 JUMP JUMPDEST PUSH2 0x62E7 JUMP JUMPDEST PUSH2 0x6049 PUSH32 0x3A0D5261176F6A00D4609FCC5B1C0392A974620CC908FF97A8C4EAEAA6DBB702 PUSH1 0x0 SHL PUSH2 0x55A5 JUMP JUMPDEST PUSH2 0x6075 PUSH32 0xE6314975E5D249722B6E7EE8FAC8FA183843380A14682136A6CCB44B423FF043 PUSH1 0x0 SHL PUSH2 0x55A5 JUMP JUMPDEST PUSH1 0x2 DUP2 PUSH1 0xFF AND EQ ISZERO PUSH2 0x62B9 JUMPI PUSH2 0x60AD PUSH32 0xB95D0FC3C4A94A4A334D0439B3F477C7706365EA0ABC4D6D9318AC2EFB0DA6A8 PUSH1 0x0 SHL PUSH2 0x55A5 JUMP JUMPDEST PUSH2 0x60D9 PUSH32 0x47765B28AD7692E9A317BEB9AF244EFBF77F9E64D4D124A8070E0DE91E3373EA PUSH1 0x0 SHL PUSH2 0x55A5 JUMP JUMPDEST PUSH2 0x6105 PUSH32 0xB134D0E5CE7C3F174E3CD33D028413A61EB797C556998E26F3AA9FB8928E709 PUSH1 0x0 SHL PUSH2 0x55A5 JUMP JUMPDEST PUSH1 0x0 PUSH1 0x1 PUSH1 0x0 DUP6 DUP2 MSTORE PUSH1 0x20 ADD SWAP1 DUP2 MSTORE PUSH1 0x20 ADD PUSH1 0x0 KECCAK256 DUP4 DUP2 SLOAD DUP2 LT PUSH2 0x6152 JUMPI PUSH32 0x4E487B7100000000000000000000000000000000000000000000000000000000 PUSH1 0x0 MSTORE PUSH1 0x32 PUSH1 0x4 MSTORE PUSH1 0x24 PUSH1 0x0 REVERT JUMPDEST SWAP1 PUSH1 0x0 MSTORE PUSH1 0x20 PUSH1 0x0 KECCAK256 SWAP1 PUSH1 0x4 MUL ADD PUSH1 0x3 ADD PUSH1 0x16 PUSH2 0x100 EXP DUP2 SLOAD DUP2 PUSH1 0xFF MUL NOT AND SWAP1 DUP4 ISZERO ISZERO MUL OR SWAP1 SSTORE POP PUSH2 0x61A6 PUSH32 0xA4190470457FA0FA61447A1834DBDFE71F8B44A37B5DE209C3FAC77F5B7E92BD PUSH1 0x0 SHL PUSH2 0x55A5 JUMP JUMPDEST PUSH2 0x61D2 PUSH32 0x83C51243A2F76EF61B3680CCF2DC6EA3E784C0F2421532EF34FFC5A8E3DD937 PUSH1 0x0 SHL PUSH2 0x55A5 JUMP JUMPDEST PUSH2 0x62B4 PUSH1 0x1 PUSH1 0x0 DUP6 DUP2 MSTORE PUSH1 0x20 ADD SWAP1 DUP2 MSTORE PUSH1 0x20 ADD PUSH1 0x0 KECCAK256 DUP4 DUP2 SLOAD DUP2 LT PUSH2 0x6220 JUMPI PUSH32 0x4E487B7100000000000000000000000000000000000000000000000000000000 PUSH1 0x0 MSTORE PUSH1 0x32 PUSH1 0x4 MSTORE PUSH1 0x24 PUSH1 0x0 REVERT JUMPDEST SWAP1 PUSH1 0x0 MSTORE PUSH1 0x20 PUSH1 0x0 KECCAK256 SWAP1 PUSH1 0x4 MUL ADD PUSH1 0x2 ADD PUSH1 0x0 SWAP1 SLOAD SWAP1 PUSH2 0x100 EXP SWAP1 DIV PUSH20 0xFFFFFFFFFFFFFFFFFFFFFFFFFFFFFFFFFFFFFFFF AND PUSH1 0x1 PUSH1 0x0 DUP7 DUP2 MSTORE PUSH1 0x20 ADD SWAP1 DUP2 MSTORE PUSH1 0x20 ADD PUSH1 0x0 KECCAK256 DUP5 DUP2 SLOAD DUP2 LT PUSH2 0x629D JUMPI PUSH32 0x4E487B7100000000000000000000000000000000000000000000000000000000 PUSH1 0x0 MSTORE PUSH1 0x32 PUSH1 0x4 MSTORE PUSH1 0x24 PUSH1 0x0 REVERT JUMPDEST SWAP1 PUSH1 0x0 MSTORE PUSH1 0x20 PUSH1 0x0 KECCAK256 SWAP1 PUSH1 0x4 MUL ADD PUSH1 0x1 ADD SLOAD PUSH2 0x72D2 JUMP JUMPDEST PUSH2 0x62E6 JUMP JUMPDEST PUSH2 0x62E5 PUSH32 0x99EEE5929AA802A93368125957E06A88CC8E9E18A01D4BBEDA0BB8C43AE77E7B PUSH1 0x0 SHL PUSH2 0x55A5 JUMP JUMPDEST JUMPDEST JUMPDEST PUSH2 0x6313 PUSH32 0x5019B229F799DFCE4E29566C016ADAAE96CAC2FE0D6079E2E37008CE3FCE3458 PUSH1 0x0 SHL PUSH2 0x55A5 JUMP JUMPDEST POP PUSH2 0x6358 JUMP JUMPDEST PUSH2 0x6345 PUSH32 0x40AF5B9A309629BDCBD47F61FAE6C23EACCC9B413F4A7029BBF19AA3590931D6 PUSH1 0x0 SHL PUSH2 0x55A5 JUMP JUMPDEST DUP1 DUP1 PUSH2 0x6350 SWAP1 PUSH2 0x8621 JUMP JUMPDEST SWAP2 POP POP PUSH2 0x56B4 JUMP JUMPDEST POP POP POP POP POP POP JUMP JUMPDEST PUSH2 0x638C PUSH32 0xC3488727D8408E9AD4A2B076491FF82BF9C4025309AF92AAEC13B4D012658F40 PUSH1 0x0 SHL PUSH2 0x55A5 JUMP JUMPDEST PUSH2 0x63B8 PUSH32 0x9EBA7DE883EACBD67F39B955B87B9763752C8407A331350E8D94A9B568BDAE9A PUSH1 0x0 SHL PUSH2 0x55A5 JUMP JUMPDEST PUSH2 0x63E4 PUSH32 0xC61EC12F65977E00A224BB6BCDE56DA2897E450B8BCBB5CDFF82D593A18211C3 PUSH1 0x0 SHL PUSH2 0x55A5 JUMP JUMPDEST PUSH1 0x0 DUP5 CALLER PUSH1 0x40 MLOAD PUSH1 0x20 ADD PUSH2 0x63F9 SWAP3 SWAP2 SWAP1 PUSH2 0x8098 JUMP JUMPDEST PUSH1 0x40 MLOAD PUSH1 0x20 DUP2 DUP4 SUB SUB DUP2 MSTORE SWAP1 PUSH1 0x40 MSTORE DUP1 MLOAD SWAP1 PUSH1 0x20 ADD KECCAK256 SWAP1 POP PUSH2 0x643D PUSH32 0x93ADB31AC62E1AD42DE614264256FB35E831A96831B56AECCAC1BEA89F4EE103 PUSH1 0x0 SHL PUSH2 0x55A5 JUMP JUMPDEST PUSH2 0x6469 PUSH32 0xC79687543DCFC721B77D9664F5B84BAB2DEDCA422C9038B4863BD3B1B705419 PUSH1 0x0 SHL PUSH2 0x55A5 JUMP JUMPDEST PUSH1 0x0 JUMPDEST PUSH1 0x1 PUSH1 0x0 DUP4 DUP2 MSTORE PUSH1 0x20 ADD SWAP1 DUP2 MSTORE PUSH1 0x20 ADD PUSH1 0x0 KECCAK256 DUP1 SLOAD SWAP1 POP DUP2 LT ISZERO PUSH2 0x7110 JUMPI PUSH2 0x64B6 PUSH32 0xE629F083EC54999E1F943A442DFA9D63B55EBD86D94786DBA1B485FD845D9154 PUSH1 0x0 SHL PUSH2 0x55A5 JUMP JUMPDEST PUSH2 0x64E2 PUSH32 0x9C27018CC9446CC7AD69EA74635EA404415E9021648A95459A0FD52154C9EEB7 PUSH1 0x0 SHL PUSH2 0x55A5 JUMP JUMPDEST DUP3 DUP1 MLOAD SWAP1 PUSH1 0x20 ADD KECCAK256 PUSH1 0x1 PUSH1 0x0 DUP5 DUP2 MSTORE PUSH1 0x20 ADD SWAP1 DUP2 MSTORE PUSH1 0x20 ADD PUSH1 0x0 KECCAK256 DUP3 DUP2 SLOAD DUP2 LT PUSH2 0x6535 JUMPI PUSH32 0x4E487B7100000000000000000000000000000000000000000000000000000000 PUSH1 0x0 MSTORE PUSH1 0x32 PUSH1 0x4 MSTORE PUSH1 0x24 PUSH1 0x0 REVERT JUMPDEST SWAP1 PUSH1 0x0 MSTORE PUSH1 0x20 PUSH1 0x0 KECCAK256 SWAP1 PUSH1 0x4 MUL ADD PUSH1 0x0 ADD PUSH1 0x40 MLOAD PUSH2 0x6553 SWAP2 SWAP1 PUSH2 0x8109 JUMP JUMPDEST PUSH1 0x40 MLOAD DUP1 SWAP2 SUB SWAP1 KECCAK256 EQ DUP1 ISZERO PUSH2 0x65C3 JUMPI POP DUP5 PUSH1 0x1 PUSH1 0x0 DUP5 DUP2 MSTORE PUSH1 0x20 ADD SWAP1 DUP2 MSTORE PUSH1 0x20 ADD PUSH1 0x0 KECCAK256 DUP3 DUP2 SLOAD DUP2 LT PUSH2 0x65AF JUMPI PUSH32 0x4E487B7100000000000000000000000000000000000000000000000000000000 PUSH1 0x0 MSTORE PUSH1 0x32 PUSH1 0x4 MSTORE PUSH1 0x24 PUSH1 0x0 REVERT JUMPDEST SWAP1 PUSH1 0x0 MSTORE PUSH1 0x20 PUSH1 0x0 KECCAK256 SWAP1 PUSH1 0x4 MUL ADD PUSH1 0x1 ADD SLOAD EQ JUMPDEST DUP1 ISZERO PUSH2 0x663C JUMPI POP PUSH1 0x1 ISZERO ISZERO PUSH1 0x1 PUSH1 0x0 DUP5 DUP2 MSTORE PUSH1 0x20 ADD SWAP1 DUP2 MSTORE PUSH1 0x20 ADD PUSH1 0x0 KECCAK256 DUP3 DUP2 SLOAD DUP2 LT PUSH2 0x6619 JUMPI PUSH32 0x4E487B7100000000000000000000000000000000000000000000000000000000 PUSH1 0x0 MSTORE PUSH1 0x32 PUSH1 0x4 MSTORE PUSH1 0x24 PUSH1 0x0 REVERT JUMPDEST SWAP1 PUSH1 0x0 MSTORE PUSH1 0x20 PUSH1 0x0 KECCAK256 SWAP1 PUSH1 0x4 MUL ADD PUSH1 0x3 ADD PUSH1 0x16 SWAP1 SLOAD SWAP1 PUSH2 0x100 EXP SWAP1 DIV PUSH1 0xFF AND ISZERO ISZERO EQ JUMPDEST ISZERO PUSH2 0x70D1 JUMPI PUSH2 0x666D PUSH32 0x94FB308A42F54264855038E99AD836CCB780A6C3DB1A59F69D228BE93EE331CC PUSH1 0x0 SHL PUSH2 0x55A5 JUMP JUMPDEST PUSH2 0x6699 PUSH32 0x2BE9FBAA356E95E00DFA66BDB3BB63BBB80DB2FCEC9912A4D7B34890480505AE PUSH1 0x0 SHL PUSH2 0x55A5 JUMP JUMPDEST PUSH2 0x66C5 PUSH32 0x33107A5735490A6F1DFCCFAC711A3CAE7E207B6950CB25B191268F7FF10A79DB PUSH1 0x0 SHL PUSH2 0x55A5 JUMP JUMPDEST PUSH2 0x66F1 PUSH32 0xFC56934AFCF86F4705088F421A787EE9501515E946790F4983FDE1D37951CBB9 PUSH1 0x0 SHL PUSH2 0x55A5 JUMP JUMPDEST CALLER PUSH20 0xFFFFFFFFFFFFFFFFFFFFFFFFFFFFFFFFFFFFFFFF AND PUSH1 0x1 PUSH1 0x0 DUP5 DUP2 MSTORE PUSH1 0x20 ADD SWAP1 DUP2 MSTORE PUSH1 0x20 ADD PUSH1 0x0 KECCAK256 DUP3 DUP2 SLOAD DUP2 LT PUSH2 0x6753 JUMPI PUSH32 0x4E487B7100000000000000000000000000000000000000000000000000000000 PUSH1 0x0 MSTORE PUSH1 0x32 PUSH1 0x4 MSTORE PUSH1 0x24 PUSH1 0x0 REVERT JUMPDEST SWAP1 PUSH1 0x0 MSTORE PUSH1 0x20 PUSH1 0x0 KECCAK256 SWAP1 PUSH1 0x4 MUL ADD PUSH1 0x3 ADD PUSH1 0x0 SWAP1 SLOAD SWAP1 PUSH2 0x100 EXP SWAP1 DIV PUSH20 0xFFFFFFFFFFFFFFFFFFFFFFFFFFFFFFFFFFFFFFFF AND PUSH20 0xFFFFFFFFFFFFFFFFFFFFFFFFFFFFFFFFFFFFFFFF AND EQ PUSH2 0x67DB JUMPI PUSH1 0x40 MLOAD PUSH32 0x8C379A000000000000000000000000000000000000000000000000000000000 DUP2 MSTORE PUSH1 0x4 ADD PUSH2 0x67D2 SWAP1 PUSH2 0x81FB JUMP JUMPDEST PUSH1 0x40 MLOAD DUP1 SWAP2 SUB SWAP1 REVERT JUMPDEST PUSH2 0x6807 PUSH32 0xB691F3E98E3F6F316544DE74F39BEEFE848856B2E36E01D43345DB637FB9FE62 PUSH1 0x0 SHL PUSH2 0x55A5 JUMP JUMPDEST PUSH2 0x6833 PUSH32 0xCA93852D056EF4E1F99976986152643780F4AED9D4A7CC64A19ADE1E5365D7EE PUSH1 0x0 SHL PUSH2 0x55A5 JUMP JUMPDEST PUSH2 0x685F PUSH32 0xCA24C6BEC7F5EE95052A4E8D24849FC659D9716879173D79740643FEE52D19CB PUSH1 0x0 SHL PUSH2 0x55A5 JUMP JUMPDEST DUP4 PUSH1 0x1 PUSH1 0x0 DUP5 DUP2 MSTORE PUSH1 0x20 ADD SWAP1 DUP2 MSTORE PUSH1 0x20 ADD PUSH1 0x0 KECCAK256 DUP3 DUP2 SLOAD DUP2 LT PUSH2 0x68AB JUMPI PUSH32 0x4E487B7100000000000000000000000000000000000000000000000000000000 PUSH1 0x0 MSTORE PUSH1 0x32 PUSH1 0x4 MSTORE PUSH1 0x24 PUSH1 0x0 REVERT JUMPDEST SWAP1 PUSH1 0x0 MSTORE PUSH1 0x20 PUSH1 0x0 KECCAK256 SWAP1 PUSH1 0x4 MUL ADD PUSH1 0x3 ADD PUSH1 0x15 PUSH2 0x100 EXP DUP2 SLOAD DUP2 PUSH1 0xFF MUL NOT AND SWAP1 DUP4 PUSH1 0xFF AND MUL OR SWAP1 SSTORE POP PUSH2 0x6900 PUSH32 0x3FF04B0297BB2DF9B0F01B0333CB6CE5C13B13F0FCC2B91BC68D547E8A900902 PUSH1 0x0 SHL PUSH2 0x55A5 JUMP JUMPDEST PUSH2 0x692C PUSH32 0x7E7F774A4ABC73E5A777141DAF53848029272D061460EC96E0C573E165F17C43 PUSH1 0x0 SHL PUSH2 0x55A5 JUMP JUMPDEST PUSH1 0x0 PUSH2 0x6B37 PUSH1 0x1 PUSH1 0x0 DUP6 DUP2 MSTORE PUSH1 0x20 ADD SWAP1 DUP2 MSTORE PUSH1 0x20 ADD PUSH1 0x0 KECCAK256 DUP4 DUP2 SLOAD DUP2 LT PUSH2 0x697C JUMPI PUSH32 0x4E487B7100000000000000000000000000000000000000000000000000000000 PUSH1 0x0 MSTORE PUSH1 0x32 PUSH1 0x4 MSTORE PUSH1 0x24 PUSH1 0x0 REVERT JUMPDEST SWAP1 PUSH1 0x0 MSTORE PUSH1 0x20 PUSH1 0x0 KECCAK256 SWAP1 PUSH1 0x4 MUL ADD PUSH1 0x40 MLOAD DUP1 PUSH1 0xE0 ADD PUSH1 0x40 MSTORE SWAP1 DUP2 PUSH1 0x0 DUP3 ADD DUP1 SLOAD PUSH2 0x69A5 SWAP1 PUSH2 0x85BE JUMP JUMPDEST DUP1 PUSH1 0x1F ADD PUSH1 0x20 DUP1 SWAP2 DIV MUL PUSH1 0x20 ADD PUSH1 0x40 MLOAD SWAP1 DUP2 ADD PUSH1 0x40 MSTORE DUP1 SWAP3 SWAP2 SWAP1 DUP2 DUP2 MSTORE PUSH1 0x20 ADD DUP3 DUP1 SLOAD PUSH2 0x69D1 SWAP1 PUSH2 0x85BE JUMP JUMPDEST DUP1 ISZERO PUSH2 0x6A1E JUMPI DUP1 PUSH1 0x1F LT PUSH2 0x69F3 JUMPI PUSH2 0x100 DUP1 DUP4 SLOAD DIV MUL DUP4 MSTORE SWAP2 PUSH1 0x20 ADD SWAP2 PUSH2 0x6A1E JUMP JUMPDEST DUP3 ADD SWAP2 SWAP1 PUSH1 0x0 MSTORE PUSH1 0x20 PUSH1 0x0 KECCAK256 SWAP1 JUMPDEST DUP2 SLOAD DUP2 MSTORE SWAP1 PUSH1 0x1 ADD SWAP1 PUSH1 0x20 ADD DUP1 DUP4 GT PUSH2 0x6A01 JUMPI DUP3 SWAP1 SUB PUSH1 0x1F AND DUP3 ADD SWAP2 JUMPDEST POP POP POP POP POP DUP2 MSTORE PUSH1 0x20 ADD PUSH1 0x1 DUP3 ADD SLOAD DUP2 MSTORE PUSH1 0x20 ADD PUSH1 0x2 DUP3 ADD PUSH1 0x0 SWAP1 SLOAD SWAP1 PUSH2 0x100 EXP SWAP1 DIV PUSH20 0xFFFFFFFFFFFFFFFFFFFFFFFFFFFFFFFFFFFFFFFF AND PUSH20 0xFFFFFFFFFFFFFFFFFFFFFFFFFFFFFFFFFFFFFFFF AND PUSH20 0xFFFFFFFFFFFFFFFFFFFFFFFFFFFFFFFFFFFFFFFF AND DUP2 MSTORE PUSH1 0x20 ADD PUSH1 0x3 DUP3 ADD PUSH1 0x0 SWAP1 SLOAD SWAP1 PUSH2 0x100 EXP SWAP1 DIV PUSH20 0xFFFFFFFFFFFFFFFFFFFFFFFFFFFFFFFFFFFFFFFF AND PUSH20 0xFFFFFFFFFFFFFFFFFFFFFFFFFFFFFFFFFFFFFFFF AND PUSH20 0xFFFFFFFFFFFFFFFFFFFFFFFFFFFFFFFFFFFFFFFF AND DUP2 MSTORE PUSH1 0x20 ADD PUSH1 0x3 DUP3 ADD PUSH1 0x14 SWAP1 SLOAD SWAP1 PUSH2 0x100 EXP SWAP1 DIV PUSH1 0xFF AND PUSH1 0xFF AND PUSH1 0xFF AND DUP2 MSTORE PUSH1 0x20 ADD PUSH1 0x3 DUP3 ADD PUSH1 0x15 SWAP1 SLOAD SWAP1 PUSH2 0x100 EXP SWAP1 DIV PUSH1 0xFF AND PUSH1 0xFF AND PUSH1 0xFF AND DUP2 MSTORE PUSH1 0x20 ADD PUSH1 0x3 DUP3 ADD PUSH1 0x16 SWAP1 SLOAD SWAP1 PUSH2 0x100 EXP SWAP1 DIV PUSH1 0xFF AND ISZERO ISZERO ISZERO ISZERO DUP2 MSTORE POP POP PUSH2 0x7118 JUMP JUMPDEST SWAP1 POP PUSH2 0x6B65 PUSH32 0xD023D16AD0EDD65993BD6809C42937EBBFB449076852CC9B68B94B8C4224CC0D PUSH1 0x0 SHL PUSH2 0x55A5 JUMP JUMPDEST PUSH2 0x6B91 PUSH32 0xB10DD68E8A422D9916B99333B192C9D65635B0053C21BF54C0702B63F1D6E2B9 PUSH1 0x0 SHL PUSH2 0x55A5 JUMP JUMPDEST PUSH1 0x1 DUP2 PUSH1 0xFF AND EQ ISZERO PUSH2 0x6DD5 JUMPI PUSH2 0x6BC9 PUSH32 0x458FE24B31CB912B8825E3D6B8E947A33E6934A9CE8D98D45E5A32FF0B96ABE1 PUSH1 0x0 SHL PUSH2 0x55A5 JUMP JUMPDEST PUSH2 0x6BF5 PUSH32 0x580626280A140B06A2A3F9F99B05517BAF346B9831F6D6F548399A78D6E7CBC4 PUSH1 0x0 SHL PUSH2 0x55A5 JUMP JUMPDEST PUSH2 0x6C21 PUSH32 0xED008B8714E0427442B66BDAC8B7F26FCFFA517DE7A4BFB81C195719942E744B PUSH1 0x0 SHL PUSH2 0x55A5 JUMP JUMPDEST PUSH1 0x0 PUSH1 0x1 PUSH1 0x0 DUP6 DUP2 MSTORE PUSH1 0x20 ADD SWAP1 DUP2 MSTORE PUSH1 0x20 ADD PUSH1 0x0 KECCAK256 DUP4 DUP2 SLOAD DUP2 LT PUSH2 0x6C6E JUMPI PUSH32 0x4E487B7100000000000000000000000000000000000000000000000000000000 PUSH1 0x0 MSTORE PUSH1 0x32 PUSH1 0x4 MSTORE PUSH1 0x24 PUSH1 0x0 REVERT JUMPDEST SWAP1 PUSH1 0x0 MSTORE PUSH1 0x20 PUSH1 0x0 KECCAK256 SWAP1 PUSH1 0x4 MUL ADD PUSH1 0x3 ADD PUSH1 0x16 PUSH2 0x100 EXP DUP2 SLOAD DUP2 PUSH1 0xFF MUL NOT AND SWAP1 DUP4 ISZERO ISZERO MUL OR SWAP1 SSTORE POP PUSH2 0x6CC2 PUSH32 0x9FF9B8F0BAECA0B503D750F68031DCBC0AF2AAA98F931431913E17568605C8AD PUSH1 0x0 SHL PUSH2 0x55A5 JUMP JUMPDEST PUSH2 0x6CEE PUSH32 0x7BD60C06F70FFDA42E499A140ADB60C8C1452187E7C5C395863FD87C7F39A5E PUSH1 0x0 SHL PUSH2 0x55A5 JUMP JUMPDEST PUSH2 0x6DD0 PUSH1 0x1 PUSH1 0x0 DUP6 DUP2 MSTORE PUSH1 0x20 ADD SWAP1 DUP2 MSTORE PUSH1 0x20 ADD PUSH1 0x0 KECCAK256 DUP4 DUP2 SLOAD DUP2 LT PUSH2 0x6D3C JUMPI PUSH32 0x4E487B7100000000000000000000000000000000000000000000000000000000 PUSH1 0x0 MSTORE PUSH1 0x32 PUSH1 0x4 MSTORE PUSH1 0x24 PUSH1 0x0 REVERT JUMPDEST SWAP1 PUSH1 0x0 MSTORE PUSH1 0x20 PUSH1 0x0 KECCAK256 SWAP1 PUSH1 0x4 MUL ADD PUSH1 0x3 ADD PUSH1 0x0 SWAP1 SLOAD SWAP1 PUSH2 0x100 EXP SWAP1 DIV PUSH20 0xFFFFFFFFFFFFFFFFFFFFFFFFFFFFFFFFFFFFFFFF AND PUSH1 0x1 PUSH1 0x0 DUP7 DUP2 MSTORE PUSH1 0x20 ADD SWAP1 DUP2 MSTORE PUSH1 0x20 ADD PUSH1 0x0 KECCAK256 DUP5 DUP2 SLOAD DUP2 LT PUSH2 0x6DB9 JUMPI PUSH32 0x4E487B7100000000000000000000000000000000000000000000000000000000 PUSH1 0x0 MSTORE PUSH1 0x32 PUSH1 0x4 MSTORE PUSH1 0x24 PUSH1 0x0 REVERT JUMPDEST SWAP1 PUSH1 0x0 MSTORE PUSH1 0x20 PUSH1 0x0 KECCAK256 SWAP1 PUSH1 0x4 MUL ADD PUSH1 0x1 ADD SLOAD PUSH2 0x72D2 JUMP JUMPDEST PUSH2 0x709F JUMP JUMPDEST PUSH2 0x6E01 PUSH32 0x3AA70E00E2849C4A0BE2D6E3128C54695A528E66CC5269C64B00A9774571864B PUSH1 0x0 SHL PUSH2 0x55A5 JUMP JUMPDEST PUSH2 0x6E2D PUSH32 0xE1E3F73EAD691EB72AF2D5BCF79E26F415CFEB3B7D7E7D8C1DA2DB523F8EA979 PUSH1 0x0 SHL PUSH2 0x55A5 JUMP JUMPDEST PUSH1 0x2 DUP2 PUSH1 0xFF AND EQ ISZERO PUSH2 0x7071 JUMPI PUSH2 0x6E65 PUSH32 0x3751607B55B6687B326485A7FC3198EB0B42FB763AB9B97A073B2A4678CCB217 PUSH1 0x0 SHL PUSH2 0x55A5 JUMP JUMPDEST PUSH2 0x6E91 PUSH32 0xFEE8C2D3E2301774451FA413D64C98C46135CC1AF119CC792F1054924F0F855B PUSH1 0x0 SHL PUSH2 0x55A5 JUMP JUMPDEST PUSH2 0x6EBD PUSH32 0x91F4647EDCD93E81BD77A286E1B04E94134182EAA11401E5EA92F17DCEECD2A3 PUSH1 0x0 SHL PUSH2 0x55A5 JUMP JUMPDEST PUSH1 0x0 PUSH1 0x1 PUSH1 0x0 DUP6 DUP2 MSTORE PUSH1 0x20 ADD SWAP1 DUP2 MSTORE PUSH1 0x20 ADD PUSH1 0x0 KECCAK256 DUP4 DUP2 SLOAD DUP2 LT PUSH2 0x6F0A JUMPI PUSH32 0x4E487B7100000000000000000000000000000000000000000000000000000000 PUSH1 0x0 MSTORE PUSH1 0x32 PUSH1 0x4 MSTORE PUSH1 0x24 PUSH1 0x0 REVERT JUMPDEST SWAP1 PUSH1 0x0 MSTORE PUSH1 0x20 PUSH1 0x0 KECCAK256 SWAP1 PUSH1 0x4 MUL ADD PUSH1 0x3 ADD PUSH1 0x16 PUSH2 0x100 EXP DUP2 SLOAD DUP2 PUSH1 0xFF MUL NOT AND SWAP1 DUP4 ISZERO ISZERO MUL OR SWAP1 SSTORE POP PUSH2 0x6F5E PUSH32 0x3D2E4469F5589814EEC4C618F032BE720E5BCE9B9F7F9DE580C74914BC22C13C PUSH1 0x0 SHL PUSH2 0x55A5 JUMP JUMPDEST PUSH2 0x6F8A PUSH32 0x326E6E06249C8D88D51B8B970C2C9501FB01E15FA831D225C3C0D72B06B24E16 PUSH1 0x0 SHL PUSH2 0x55A5 JUMP JUMPDEST PUSH2 0x706C PUSH1 0x1 PUSH1 0x0 DUP6 DUP2 MSTORE PUSH1 0x20 ADD SWAP1 DUP2 MSTORE PUSH1 0x20 ADD PUSH1 0x0 KECCAK256 DUP4 DUP2 SLOAD DUP2 LT PUSH2 0x6FD8 JUMPI PUSH32 0x4E487B7100000000000000000000000000000000000000000000000000000000 PUSH1 0x0 MSTORE PUSH1 0x32 PUSH1 0x4 MSTORE PUSH1 0x24 PUSH1 0x0 REVERT JUMPDEST SWAP1 PUSH1 0x0 MSTORE PUSH1 0x20 PUSH1 0x0 KECCAK256 SWAP1 PUSH1 0x4 MUL ADD PUSH1 0x2 ADD PUSH1 0x0 SWAP1 SLOAD SWAP1 PUSH2 0x100 EXP SWAP1 DIV PUSH20 0xFFFFFFFFFFFFFFFFFFFFFFFFFFFFFFFFFFFFFFFF AND PUSH1 0x1 PUSH1 0x0 DUP7 DUP2 MSTORE PUSH1 0x20 ADD SWAP1 DUP2 MSTORE PUSH1 0x20 ADD PUSH1 0x0 KECCAK256 DUP5 DUP2 SLOAD DUP2 LT PUSH2 0x7055 JUMPI PUSH32 0x4E487B7100000000000000000000000000000000000000000000000000000000 PUSH1 0x0 MSTORE PUSH1 0x32 PUSH1 0x4 MSTORE PUSH1 0x24 PUSH1 0x0 REVERT JUMPDEST SWAP1 PUSH1 0x0 MSTORE PUSH1 0x20 PUSH1 0x0 KECCAK256 SWAP1 PUSH1 0x4 MUL ADD PUSH1 0x1 ADD SLOAD PUSH2 0x72D2 JUMP JUMPDEST PUSH2 0x709E JUMP JUMPDEST PUSH2 0x709D PUSH32 0xD72DA27DC5F0F3C46C9115DAD7A276F0022CAFB173AE24FC60CFE1D69803F85E PUSH1 0x0 SHL PUSH2 0x55A5 JUMP JUMPDEST JUMPDEST JUMPDEST PUSH2 0x70CB PUSH32 0x3B314B359CB150DF41F55C39A050B0C5C3A4C8655AEBE708667D656804AC2F3D PUSH1 0x0 SHL PUSH2 0x55A5 JUMP JUMPDEST POP PUSH2 0x7110 JUMP JUMPDEST PUSH2 0x70FD PUSH32 0x110F6E8C9015622968D06F4DFAAEA7886C78DA91251C6FA5E1C32820237B2165 PUSH1 0x0 SHL PUSH2 0x55A5 JUMP JUMPDEST DUP1 DUP1 PUSH2 0x7108 SWAP1 PUSH2 0x8621 JUMP JUMPDEST SWAP2 POP POP PUSH2 0x646C JUMP JUMPDEST POP POP POP POP POP POP JUMP JUMPDEST PUSH1 0x0 PUSH2 0x7146 PUSH32 0x296BF0A7A83664A6B9F4354503FFA99E9E7180921ACEEED988E9159158859756 PUSH1 0x0 SHL PUSH2 0x55A5 JUMP JUMPDEST PUSH2 0x7172 PUSH32 0x8E4360A2D62A326EE63CC252C046F3E17C5645174AD3979B2ECDE8481E1692BD PUSH1 0x0 SHL PUSH2 0x55A5 JUMP JUMPDEST PUSH2 0x719E PUSH32 0x5E3829E677254AC9767263386DB30A1DA3433DB0CD79038D87D5501F1DE0A89B PUSH1 0x0 SHL PUSH2 0x55A5 JUMP JUMPDEST DUP2 PUSH1 0xA0 ADD MLOAD PUSH1 0xFF AND DUP3 PUSH1 0x80 ADD MLOAD PUSH1 0xFF AND EQ ISZERO PUSH2 0x7244 JUMPI PUSH2 0x71E0 PUSH32 0x64EDA29A32A701C62D5E1DC34709B58A8DA2050CA617A91C3FCE535585625CE3 PUSH1 0x0 SHL PUSH2 0x55A5 JUMP JUMPDEST PUSH2 0x720C PUSH32 0x20693DBF7D02B8B2FF3C8A3B8F9B32A6E599F8D656D058DE244F23A56EBA2D3F PUSH1 0x0 SHL PUSH2 0x55A5 JUMP JUMPDEST PUSH2 0x7238 PUSH32 0x58E93B0CB23EA18F904127A819F54AA692442D3D8E9E3B43A7188F7BD7E1A85C PUSH1 0x0 SHL PUSH2 0x55A5 JUMP JUMPDEST DUP2 PUSH1 0x80 ADD MLOAD SWAP1 POP PUSH2 0x72CD JUMP JUMPDEST PUSH2 0x7270 PUSH32 0x9095D97DBBE22925732D6036BCD7F656918109DB03039995996387B1759CC003 PUSH1 0x0 SHL PUSH2 0x55A5 JUMP JUMPDEST PUSH2 0x729C PUSH32 0xC588E76523078724C9200906B3FBD930464EFCA5E9052517481E2C5161E5A922 PUSH1 0x0 SHL PUSH2 0x55A5 JUMP JUMPDEST PUSH2 0x72C8 PUSH32 0x1C0CF05FA90F43438AB53C6825B663AB55E0C71F0B93F96AB0E97599540DF64B PUSH1 0x0 SHL PUSH2 0x55A5 JUMP JUMPDEST PUSH1 0x0 SWAP1 POP JUMPDEST SWAP2 SWAP1 POP JUMP JUMPDEST PUSH2 0x72FE PUSH32 0x71F08193A37E668AF77B3DA62C34C204C6F174067E2CD4FFA929AAA15C664802 PUSH1 0x0 SHL PUSH2 0x55A5 JUMP JUMPDEST PUSH2 0x732A PUSH32 0x5B8A3E08342D74308281DBFD9C1F9336A5D2E85A33D7E73F4F89FBC4867F41C2 PUSH1 0x0 SHL PUSH2 0x55A5 JUMP JUMPDEST PUSH2 0x7356 PUSH32 0xB299914FEEF0CAD260F31CCC2FC3516E7FECE8A77F3DF6C646E1E3B7231BAF19 PUSH1 0x0 SHL PUSH2 0x55A5 JUMP JUMPDEST PUSH2 0x7382 PUSH32 0x6B1A85DF98F3242777E5DE08B6E2DC7B5997AD8F2286E100233F0432C69AA5ED PUSH1 0x0 SHL PUSH2 0x55A5 JUMP JUMPDEST PUSH1 0x0 PUSH20 0xFFFFFFFFFFFFFFFFFFFFFFFFFFFFFFFFFFFFFFFF AND DUP3 PUSH20 0xFFFFFFFFFFFFFFFFFFFFFFFFFFFFFFFFFFFFFFFF AND EQ ISZERO PUSH2 0x73F2 JUMPI PUSH1 0x40 MLOAD PUSH32 0x8C379A000000000000000000000000000000000000000000000000000000000 DUP2 MSTORE PUSH1 0x4 ADD PUSH2 0x73E9 SWAP1 PUSH2 0x823B JUMP JUMPDEST PUSH1 0x40 MLOAD DUP1 SWAP2 SUB SWAP1 REVERT JUMPDEST PUSH2 0x741E PUSH32 0xE9FF362E423DB456D9EA3DB26F458C1AA7110A5D214845FD8FAE36669A3E89F3 PUSH1 0x0 SHL PUSH2 0x55A5 JUMP JUMPDEST PUSH2 0x744A PUSH32 0x61452FCE097C5C5DBE4886468103F38D94DDD089A969F922D8E98B8F65786B41 PUSH1 0x0 SHL PUSH2 0x55A5 JUMP JUMPDEST PUSH2 0x7476 PUSH32 0x776A931901B759B4907749820C55B5BC7B129A346CBDD50C8C678CC96037AD04 PUSH1 0x0 SHL PUSH2 0x55A5 JUMP JUMPDEST PUSH1 0x0 DUP3 PUSH20 0xFFFFFFFFFFFFFFFFFFFFFFFFFFFFFFFFFFFFFFFF AND DUP3 PUSH1 0x40 MLOAD PUSH2 0x749C SWAP1 PUSH2 0x8120 JUMP JUMPDEST PUSH1 0x0 PUSH1 0x40 MLOAD DUP1 DUP4 SUB DUP2 DUP6 DUP8 GAS CALL SWAP3 POP POP POP RETURNDATASIZE DUP1 PUSH1 0x0 DUP2 EQ PUSH2 0x74D9 JUMPI PUSH1 0x40 MLOAD SWAP2 POP PUSH1 0x1F NOT PUSH1 0x3F RETURNDATASIZE ADD AND DUP3 ADD PUSH1 0x40 MSTORE RETURNDATASIZE DUP3 MSTORE RETURNDATASIZE PUSH1 0x0 PUSH1 0x20 DUP5 ADD RETURNDATACOPY PUSH2 0x74DE JUMP JUMPDEST PUSH1 0x60 SWAP2 POP JUMPDEST POP POP SWAP1 POP PUSH2 0x750E PUSH32 0x48CF56FC52FE977E282EEAC6632426BEDD372F04823A104645020424A51D1A0A PUSH1 0x0 SHL PUSH2 0x55A5 JUMP JUMPDEST PUSH2 0x753A PUSH32 0xF8602E1C4445EF0E782D12F83EB37463EC2AB10B98F2A5BE4CD53C49096FF094 PUSH1 0x0 SHL PUSH2 0x55A5 JUMP JUMPDEST PUSH2 0x7566 PUSH32 0x5FB4738965A5550FFC8B8FD3A281AFF7F38B429CDACAB732A31A2D4FB37A22C2 PUSH1 0x0 SHL PUSH2 0x55A5 JUMP JUMPDEST DUP1 PUSH1 0x4 PUSH1 0x40 MLOAD PUSH1 0x20 ADD PUSH2 0x7579 SWAP2 SWAP1 PUSH2 0x8135 JUMP JUMPDEST PUSH1 0x40 MLOAD PUSH1 0x20 DUP2 DUP4 SUB SUB DUP2 MSTORE SWAP1 PUSH1 0x40 MSTORE SWAP1 PUSH2 0x75C9 JUMPI PUSH1 0x40 MLOAD PUSH32 0x8C379A000000000000000000000000000000000000000000000000000000000 DUP2 MSTORE PUSH1 0x4 ADD PUSH2 0x75C0 SWAP2 SWAP1 PUSH2 0x8179 JUMP JUMPDEST PUSH1 0x40 MLOAD DUP1 SWAP2 SUB SWAP1 REVERT JUMPDEST POP PUSH2 0x75F6 PUSH32 0x3A5A2A277E455235E1E1B85E7B45F9A06F2BFAFA068E9F2AD8C8F237B1F008E3 PUSH1 0x0 SHL PUSH2 0x55A5 JUMP JUMPDEST POP POP POP JUMP JUMPDEST PUSH1 0x40 MLOAD DUP1 PUSH1 0xE0 ADD PUSH1 0x40 MSTORE DUP1 PUSH1 0x60 DUP2 MSTORE PUSH1 0x20 ADD PUSH1 0x0 DUP2 MSTORE PUSH1 0x20 ADD PUSH1 0x0 PUSH20 0xFFFFFFFFFFFFFFFFFFFFFFFFFFFFFFFFFFFFFFFF AND DUP2 MSTORE PUSH1 0x20 ADD PUSH1 0x0 PUSH20 0xFFFFFFFFFFFFFFFFFFFFFFFFFFFFFFFFFFFFFFFF AND DUP2 MSTORE PUSH1 0x20 ADD PUSH1 0x0 PUSH1 0xFF AND DUP2 MSTORE PUSH1 0x20 ADD PUSH1 0x0 PUSH1 0xFF AND DUP2 MSTORE PUSH1 0x20 ADD PUSH1 0x0 ISZERO ISZERO DUP2 MSTORE POP SWAP1 JUMP JUMPDEST DUP3 DUP1 SLOAD PUSH2 0x7678 SWAP1 PUSH2 0x85BE JUMP JUMPDEST SWAP1 PUSH1 0x0 MSTORE PUSH1 0x20 PUSH1 0x0 KECCAK256 SWAP1 PUSH1 0x1F ADD PUSH1 0x20 SWAP1 DIV DUP2 ADD SWAP3 DUP3 PUSH2 0x769A JUMPI PUSH1 0x0 DUP6 SSTORE PUSH2 0x76E1 JUMP JUMPDEST DUP3 PUSH1 0x1F LT PUSH2 0x76B3 JUMPI DUP1 MLOAD PUSH1 0xFF NOT AND DUP4 DUP1 ADD OR DUP6 SSTORE PUSH2 0x76E1 JUMP JUMPDEST DUP3 DUP1 ADD PUSH1 0x1 ADD DUP6 SSTORE DUP3 ISZERO PUSH2 0x76E1 JUMPI SWAP2 DUP3 ADD JUMPDEST DUP3 DUP2 GT ISZERO PUSH2 0x76E0 JUMPI DUP3 MLOAD DUP3 SSTORE SWAP2 PUSH1 0x20 ADD SWAP2 SWAP1 PUSH1 0x1 ADD SWAP1 PUSH2 0x76C5 JUMP JUMPDEST JUMPDEST POP SWAP1 POP PUSH2 0x76EE SWAP2 SWAP1 PUSH2 0x76F2 JUMP JUMPDEST POP SWAP1 JUMP JUMPDEST JUMPDEST DUP1 DUP3 GT ISZERO PUSH2 0x770B JUMPI PUSH1 0x0 DUP2 PUSH1 0x0 SWAP1 SSTORE POP PUSH1 0x1 ADD PUSH2 0x76F3 JUMP JUMPDEST POP SWAP1 JUMP JUMPDEST PUSH1 0x0 PUSH2 0x7722 PUSH2 0x771D DUP5 PUSH2 0x8304 JUMP JUMPDEST PUSH2 0x82DF JUMP JUMPDEST SWAP1 POP DUP1 DUP4 DUP3 MSTORE PUSH1 0x20 DUP3 ADD SWAP1 POP DUP3 DUP6 PUSH1 0x20 DUP7 MUL DUP3 ADD GT ISZERO PUSH2 0x7741 JUMPI PUSH1 0x0 DUP1 REVERT JUMPDEST PUSH1 0x0 JUMPDEST DUP6 DUP2 LT ISZERO PUSH2 0x7771 JUMPI DUP2 PUSH2 0x7757 DUP9 DUP3 PUSH2 0x7917 JUMP JUMPDEST DUP5 MSTORE PUSH1 0x20 DUP5 ADD SWAP4 POP PUSH1 0x20 DUP4 ADD SWAP3 POP POP PUSH1 0x1 DUP2 ADD SWAP1 POP PUSH2 0x7744 JUMP JUMPDEST POP POP POP SWAP4 SWAP3 POP POP POP JUMP JUMPDEST PUSH1 0x0 PUSH2 0x778E PUSH2 0x7789 DUP5 PUSH2 0x8330 JUMP JUMPDEST PUSH2 0x82DF JUMP JUMPDEST SWAP1 POP DUP1 DUP4 DUP3 MSTORE PUSH1 0x20 DUP3 ADD SWAP1 POP DUP3 DUP6 PUSH1 0x20 DUP7 MUL DUP3 ADD GT ISZERO PUSH2 0x77AD JUMPI PUSH1 0x0 DUP1 REVERT JUMPDEST PUSH1 0x0 JUMPDEST DUP6 DUP2 LT ISZERO PUSH2 0x77DD JUMPI DUP2 PUSH2 0x77C3 DUP9 DUP3 PUSH2 0x792C JUMP JUMPDEST DUP5 MSTORE PUSH1 0x20 DUP5 ADD SWAP4 POP PUSH1 0x20 DUP4 ADD SWAP3 POP POP PUSH1 0x1 DUP2 ADD SWAP1 POP PUSH2 0x77B0 JUMP JUMPDEST POP POP POP SWAP4 SWAP3 POP POP POP JUMP JUMPDEST PUSH1 0x0 PUSH2 0x77FA PUSH2 0x77F5 DUP5 PUSH2 0x835C JUMP JUMPDEST PUSH2 0x82DF JUMP JUMPDEST SWAP1 POP DUP1 DUP4 DUP3 MSTORE PUSH1 0x20 DUP3 ADD SWAP1 POP DUP3 DUP6 PUSH1 0x20 DUP7 MUL DUP3 ADD GT ISZERO PUSH2 0x7819 JUMPI PUSH1 0x0 DUP1 REVERT JUMPDEST PUSH1 0x0 JUMPDEST DUP6 DUP2 LT ISZERO PUSH2 0x7863 JUMPI DUP2 CALLDATALOAD PUSH8 0xFFFFFFFFFFFFFFFF DUP2 GT ISZERO PUSH2 0x783B JUMPI PUSH1 0x0 DUP1 REVERT JUMPDEST DUP1 DUP7 ADD PUSH2 0x7848 DUP10 DUP3 PUSH2 0x7A33 JUMP JUMPDEST DUP6 MSTORE PUSH1 0x20 DUP6 ADD SWAP5 POP PUSH1 0x20 DUP5 ADD SWAP4 POP POP POP PUSH1 0x1 DUP2 ADD SWAP1 POP PUSH2 0x781C JUMP JUMPDEST POP POP POP SWAP4 SWAP3 POP POP POP JUMP JUMPDEST PUSH1 0x0 PUSH2 0x7880 PUSH2 0x787B DUP5 PUSH2 0x8388 JUMP JUMPDEST PUSH2 0x82DF JUMP JUMPDEST SWAP1 POP DUP1 DUP4 DUP3 MSTORE PUSH1 0x20 DUP3 ADD SWAP1 POP DUP3 DUP6 PUSH1 0x20 DUP7 MUL DUP3 ADD GT ISZERO PUSH2 0x789F JUMPI PUSH1 0x0 DUP1 REVERT JUMPDEST PUSH1 0x0 JUMPDEST DUP6 DUP2 LT ISZERO PUSH2 0x78CF JUMPI DUP2 PUSH2 0x78B5 DUP9 DUP3 PUSH2 0x7A5D JUMP JUMPDEST DUP5 MSTORE PUSH1 0x20 DUP5 ADD SWAP4 POP PUSH1 0x20 DUP4 ADD SWAP3 POP POP PUSH1 0x1 DUP2 ADD SWAP1 POP PUSH2 0x78A2 JUMP JUMPDEST POP POP POP SWAP4 SWAP3 POP POP POP JUMP JUMPDEST PUSH1 0x0 PUSH2 0x78EC PUSH2 0x78E7 DUP5 PUSH2 0x83B4 JUMP JUMPDEST PUSH2 0x82DF JUMP JUMPDEST SWAP1 POP DUP3 DUP2 MSTORE PUSH1 0x20 DUP2 ADD DUP5 DUP5 DUP5 ADD GT ISZERO PUSH2 0x7904 JUMPI PUSH1 0x0 DUP1 REVERT JUMPDEST PUSH2 0x790F DUP5 DUP3 DUP6 PUSH2 0x857C JUMP JUMPDEST POP SWAP4 SWAP3 POP POP POP JUMP JUMPDEST PUSH1 0x0 DUP2 CALLDATALOAD SWAP1 POP PUSH2 0x7926 DUP2 PUSH2 0x8957 JUMP JUMPDEST SWAP3 SWAP2 POP POP JUMP JUMPDEST PUSH1 0x0 DUP2 CALLDATALOAD SWAP1 POP PUSH2 0x793B DUP2 PUSH2 0x896E JUMP JUMPDEST SWAP3 SWAP2 POP POP JUMP JUMPDEST PUSH1 0x0 DUP3 PUSH1 0x1F DUP4 ADD SLT PUSH2 0x7952 JUMPI PUSH1 0x0 DUP1 REVERT JUMPDEST DUP2 CALLDATALOAD PUSH2 0x7962 DUP5 DUP3 PUSH1 0x20 DUP7 ADD PUSH2 0x770F JUMP JUMPDEST SWAP2 POP POP SWAP3 SWAP2 POP POP JUMP JUMPDEST PUSH1 0x0 DUP3 PUSH1 0x1F DUP4 ADD SLT PUSH2 0x797C JUMPI PUSH1 0x0 DUP1 REVERT JUMPDEST DUP2 CALLDATALOAD PUSH2 0x798C DUP5 DUP3 PUSH1 0x20 DUP7 ADD PUSH2 0x777B JUMP JUMPDEST SWAP2 POP POP SWAP3 SWAP2 POP POP JUMP JUMPDEST PUSH1 0x0 DUP3 PUSH1 0x1F DUP4 ADD SLT PUSH2 0x79A6 JUMPI PUSH1 0x0 DUP1 REVERT JUMPDEST DUP2 CALLDATALOAD PUSH2 0x79B6 DUP5 DUP3 PUSH1 0x20 DUP7 ADD PUSH2 0x77E7 JUMP JUMPDEST SWAP2 POP POP SWAP3 SWAP2 POP POP JUMP JUMPDEST PUSH1 0x0 DUP3 PUSH1 0x1F DUP4 ADD SLT PUSH2 0x79D0 JUMPI PUSH1 0x0 DUP1 REVERT JUMPDEST DUP2 CALLDATALOAD PUSH2 0x79E0 DUP5 DUP3 PUSH1 0x20 DUP7 ADD PUSH2 0x786D JUMP JUMPDEST SWAP2 POP POP SWAP3 SWAP2 POP POP JUMP JUMPDEST PUSH1 0x0 DUP1 DUP4 PUSH1 0x1F DUP5 ADD SLT PUSH2 0x79FB JUMPI PUSH1 0x0 DUP1 REVERT JUMPDEST DUP3 CALLDATALOAD SWAP1 POP PUSH8 0xFFFFFFFFFFFFFFFF DUP2 GT ISZERO PUSH2 0x7A14 JUMPI PUSH1 0x0 DUP1 REVERT JUMPDEST PUSH1 0x20 DUP4 ADD SWAP2 POP DUP4 PUSH1 0x1 DUP3 MUL DUP4 ADD GT ISZERO PUSH2 0x7A2C JUMPI PUSH1 0x0 DUP1 REVERT JUMPDEST SWAP3 POP SWAP3 SWAP1 POP JUMP JUMPDEST PUSH1 0x0 DUP3 PUSH1 0x1F DUP4 ADD SLT PUSH2 0x7A44 JUMPI PUSH1 0x0 DUP1 REVERT JUMPDEST DUP2 CALLDATALOAD PUSH2 0x7A54 DUP5 DUP3 PUSH1 0x20 DUP7 ADD PUSH2 0x78D9 JUMP JUMPDEST SWAP2 POP POP SWAP3 SWAP2 POP POP JUMP JUMPDEST PUSH1 0x0 DUP2 CALLDATALOAD SWAP1 POP PUSH2 0x7A6C DUP2 PUSH2 0x8985 JUMP JUMPDEST SWAP3 SWAP2 POP POP JUMP JUMPDEST PUSH1 0x0 DUP1 PUSH1 0x0 PUSH1 0x40 DUP5 DUP7 SUB SLT ISZERO PUSH2 0x7A87 JUMPI PUSH1 0x0 DUP1 REVERT JUMPDEST PUSH1 0x0 PUSH2 0x7A95 DUP7 DUP3 DUP8 ADD PUSH2 0x7917 JUMP JUMPDEST SWAP4 POP POP PUSH1 0x20 DUP5 ADD CALLDATALOAD PUSH8 0xFFFFFFFFFFFFFFFF DUP2 GT ISZERO PUSH2 0x7AB2 JUMPI PUSH1 0x0 DUP1 REVERT JUMPDEST PUSH2 0x7ABE DUP7 DUP3 DUP8 ADD PUSH2 0x79E9 JUMP JUMPDEST SWAP3 POP SWAP3 POP POP SWAP3 POP SWAP3 POP SWAP3 JUMP JUMPDEST PUSH1 0x0 DUP1 PUSH1 0x0 PUSH1 0x60 DUP5 DUP7 SUB SLT ISZERO PUSH2 0x7ADF JUMPI PUSH1 0x0 DUP1 REVERT JUMPDEST PUSH1 0x0 DUP5 ADD CALLDATALOAD PUSH8 0xFFFFFFFFFFFFFFFF DUP2 GT ISZERO PUSH2 0x7AF9 JUMPI PUSH1 0x0 DUP1 REVERT JUMPDEST PUSH2 0x7B05 DUP7 DUP3 DUP8 ADD PUSH2 0x7941 JUMP JUMPDEST SWAP4 POP POP PUSH1 0x20 DUP5 ADD CALLDATALOAD PUSH8 0xFFFFFFFFFFFFFFFF DUP2 GT ISZERO PUSH2 0x7B22 JUMPI PUSH1 0x0 DUP1 REVERT JUMPDEST PUSH2 0x7B2E DUP7 DUP3 DUP8 ADD PUSH2 0x79BF JUMP JUMPDEST SWAP3 POP POP PUSH1 0x40 DUP5 ADD CALLDATALOAD PUSH8 0xFFFFFFFFFFFFFFFF DUP2 GT ISZERO PUSH2 0x7B4B JUMPI PUSH1 0x0 DUP1 REVERT JUMPDEST PUSH2 0x7B57 DUP7 DUP3 DUP8 ADD PUSH2 0x7995 JUMP JUMPDEST SWAP2 POP POP SWAP3 POP SWAP3 POP SWAP3 JUMP JUMPDEST PUSH1 0x0 DUP1 PUSH1 0x0 PUSH1 0x60 DUP5 DUP7 SUB SLT ISZERO PUSH2 0x7B76 JUMPI PUSH1 0x0 DUP1 REVERT JUMPDEST PUSH1 0x0 DUP5 ADD CALLDATALOAD PUSH8 0xFFFFFFFFFFFFFFFF DUP2 GT ISZERO PUSH2 0x7B90 JUMPI PUSH1 0x0 DUP1 REVERT JUMPDEST PUSH2 0x7B9C DUP7 DUP3 DUP8 ADD PUSH2 0x796B JUMP JUMPDEST SWAP4 POP POP PUSH1 0x20 DUP5 ADD CALLDATALOAD PUSH8 0xFFFFFFFFFFFFFFFF DUP2 GT ISZERO PUSH2 0x7BB9 JUMPI PUSH1 0x0 DUP1 REVERT JUMPDEST PUSH2 0x7BC5 DUP7 DUP3 DUP8 ADD PUSH2 0x79BF JUMP JUMPDEST SWAP3 POP POP PUSH1 0x40 DUP5 ADD CALLDATALOAD PUSH8 0xFFFFFFFFFFFFFFFF DUP2 GT ISZERO PUSH2 0x7BE2 JUMPI PUSH1 0x0 DUP1 REVERT JUMPDEST PUSH2 0x7BEE DUP7 DUP3 DUP8 ADD PUSH2 0x7995 JUMP JUMPDEST SWAP2 POP POP SWAP3 POP SWAP3 POP SWAP3 JUMP JUMPDEST PUSH1 0x0 PUSH2 0x7C04 DUP4 DUP4 PUSH2 0x7FCF JUMP JUMPDEST SWAP1 POP SWAP3 SWAP2 POP POP JUMP JUMPDEST PUSH2 0x7C1D PUSH2 0x7C18 DUP3 PUSH2 0x8527 JUMP JUMPDEST PUSH2 0x867C JUMP JUMPDEST DUP3 MSTORE POP POP JUMP JUMPDEST PUSH2 0x7C2C DUP2 PUSH2 0x8515 JUMP JUMPDEST DUP3 MSTORE POP POP JUMP JUMPDEST PUSH2 0x7C43 PUSH2 0x7C3E DUP3 PUSH2 0x8515 JUMP JUMPDEST PUSH2 0x866A JUMP JUMPDEST DUP3 MSTORE POP POP JUMP JUMPDEST PUSH1 0x0 PUSH2 0x7C54 DUP3 PUSH2 0x841F JUMP JUMPDEST PUSH2 0x7C5E DUP2 DUP6 PUSH2 0x8442 JUMP JUMPDEST SWAP4 POP DUP4 PUSH1 0x20 DUP3 MUL DUP6 ADD PUSH2 0x7C70 DUP6 PUSH2 0x83E5 JUMP JUMPDEST DUP1 PUSH1 0x0 JUMPDEST DUP6 DUP2 LT ISZERO PUSH2 0x7CAC JUMPI DUP5 DUP5 SUB DUP10 MSTORE DUP2 MLOAD PUSH2 0x7C8D DUP6 DUP3 PUSH2 0x7BF8 JUMP JUMPDEST SWAP5 POP PUSH2 0x7C98 DUP4 PUSH2 0x8435 JUMP JUMPDEST SWAP3 POP PUSH1 0x20 DUP11 ADD SWAP10 POP POP PUSH1 0x1 DUP2 ADD SWAP1 POP PUSH2 0x7C74 JUMP JUMPDEST POP DUP3 SWAP8 POP DUP8 SWAP6 POP POP POP POP POP POP SWAP3 SWAP2 POP POP JUMP JUMPDEST PUSH2 0x7CC7 DUP2 PUSH2 0x8539 JUMP JUMPDEST DUP3 MSTORE POP POP JUMP JUMPDEST PUSH2 0x7CD6 DUP2 PUSH2 0x8539 JUMP JUMPDEST DUP3 MSTORE POP POP JUMP JUMPDEST PUSH1 0x0 PUSH2 0x7CE8 DUP4 DUP6 PUSH2 0x8453 JUMP JUMPDEST SWAP4 POP PUSH2 0x7CF5 DUP4 DUP6 DUP5 PUSH2 0x857C JUMP JUMPDEST DUP3 DUP5 ADD SWAP1 POP SWAP4 SWAP3 POP POP POP JUMP JUMPDEST PUSH1 0x0 DUP2 SLOAD PUSH2 0x7D0E DUP2 PUSH2 0x85BE JUMP JUMPDEST PUSH2 0x7D18 DUP2 DUP7 PUSH2 0x8453 JUMP JUMPDEST SWAP5 POP PUSH1 0x1 DUP3 AND PUSH1 0x0 DUP2 EQ PUSH2 0x7D33 JUMPI PUSH1 0x1 DUP2 EQ PUSH2 0x7D44 JUMPI PUSH2 0x7D77 JUMP JUMPDEST PUSH1 0xFF NOT DUP4 AND DUP7 MSTORE DUP2 DUP7 ADD SWAP4 POP PUSH2 0x7D77 JUMP JUMPDEST PUSH2 0x7D4D DUP6 PUSH2 0x83F5 JUMP JUMPDEST PUSH1 0x0 JUMPDEST DUP4 DUP2 LT ISZERO PUSH2 0x7D6F JUMPI DUP2 SLOAD DUP2 DUP10 ADD MSTORE PUSH1 0x1 DUP3 ADD SWAP2 POP PUSH1 0x20 DUP2 ADD SWAP1 POP PUSH2 0x7D50 JUMP JUMPDEST DUP4 DUP9 ADD SWAP6 POP POP POP JUMPDEST POP POP POP SWAP3 SWAP2 POP POP JUMP JUMPDEST PUSH1 0x0 PUSH2 0x7D8B DUP3 PUSH2 0x842A JUMP JUMPDEST PUSH2 0x7D95 DUP2 DUP6 PUSH2 0x845E JUMP JUMPDEST SWAP4 POP PUSH2 0x7DA5 DUP2 DUP6 PUSH1 0x20 DUP7 ADD PUSH2 0x858B JUMP JUMPDEST PUSH2 0x7DAE DUP2 PUSH2 0x872D JUMP JUMPDEST DUP5 ADD SWAP2 POP POP SWAP3 SWAP2 POP POP JUMP JUMPDEST PUSH1 0x0 PUSH2 0x7DC4 DUP3 PUSH2 0x842A JUMP JUMPDEST PUSH2 0x7DCE DUP2 DUP6 PUSH2 0x846F JUMP JUMPDEST SWAP4 POP PUSH2 0x7DDE DUP2 DUP6 PUSH1 0x20 DUP7 ADD PUSH2 0x858B JUMP JUMPDEST PUSH2 0x7DE7 DUP2 PUSH2 0x872D JUMP JUMPDEST DUP5 ADD SWAP2 POP POP SWAP3 SWAP2 POP POP JUMP JUMPDEST PUSH1 0x0 DUP2 SLOAD PUSH2 0x7DFF DUP2 PUSH2 0x85BE JUMP JUMPDEST PUSH2 0x7E09 DUP2 DUP7 PUSH2 0x8480 JUMP JUMPDEST SWAP5 POP PUSH1 0x1 DUP3 AND PUSH1 0x0 DUP2 EQ PUSH2 0x7E24 JUMPI PUSH1 0x1 DUP2 EQ PUSH2 0x7E35 JUMPI PUSH2 0x7E68 JUMP JUMPDEST PUSH1 0xFF NOT DUP4 AND DUP7 MSTORE DUP2 DUP7 ADD SWAP4 POP PUSH2 0x7E68 JUMP JUMPDEST PUSH2 0x7E3E DUP6 PUSH2 0x840A JUMP JUMPDEST PUSH1 0x0 JUMPDEST DUP4 DUP2 LT ISZERO PUSH2 0x7E60 JUMPI DUP2 SLOAD DUP2 DUP10 ADD MSTORE PUSH1 0x1 DUP3 ADD SWAP2 POP PUSH1 0x20 DUP2 ADD SWAP1 POP PUSH2 0x7E41 JUMP JUMPDEST DUP4 DUP9 ADD SWAP6 POP POP POP JUMPDEST POP POP POP SWAP3 SWAP2 POP POP JUMP JUMPDEST PUSH1 0x0 PUSH2 0x7E7E PUSH1 0x17 DUP4 PUSH2 0x846F JUMP JUMPDEST SWAP2 POP PUSH2 0x7E89 DUP3 PUSH2 0x874B JUMP JUMPDEST PUSH1 0x20 DUP3 ADD SWAP1 POP SWAP2 SWAP1 POP JUMP JUMPDEST PUSH1 0x0 PUSH2 0x7EA1 PUSH1 0x2D DUP4 PUSH2 0x846F JUMP JUMPDEST SWAP2 POP PUSH2 0x7EAC DUP3 PUSH2 0x8774 JUMP JUMPDEST PUSH1 0x40 DUP3 ADD SWAP1 POP SWAP2 SWAP1 POP JUMP JUMPDEST PUSH1 0x0 PUSH2 0x7EC4 PUSH1 0x30 DUP4 PUSH2 0x846F JUMP JUMPDEST SWAP2 POP PUSH2 0x7ECF DUP3 PUSH2 0x87C3 JUMP JUMPDEST PUSH1 0x40 DUP3 ADD SWAP1 POP SWAP2 SWAP1 POP JUMP JUMPDEST PUSH1 0x0 PUSH2 0x7EE7 PUSH1 0x17 DUP4 PUSH2 0x846F JUMP JUMPDEST SWAP2 POP PUSH2 0x7EF2 DUP3 PUSH2 0x8812 JUMP JUMPDEST PUSH1 0x20 DUP3 ADD SWAP1 POP SWAP2 SWAP1 POP JUMP JUMPDEST PUSH1 0x0 PUSH2 0x7F0A PUSH1 0x0 DUP4 PUSH2 0x8453 JUMP JUMPDEST SWAP2 POP PUSH2 0x7F15 DUP3 PUSH2 0x883B JUMP JUMPDEST PUSH1 0x0 DUP3 ADD SWAP1 POP SWAP2 SWAP1 POP JUMP JUMPDEST PUSH1 0x0 PUSH2 0x7F2D PUSH1 0xF DUP4 PUSH2 0x8480 JUMP JUMPDEST SWAP2 POP PUSH2 0x7F38 DUP3 PUSH2 0x883E JUMP JUMPDEST PUSH1 0xF DUP3 ADD SWAP1 POP SWAP2 SWAP1 POP JUMP JUMPDEST PUSH1 0x0 PUSH2 0x7F50 PUSH1 0x37 DUP4 PUSH2 0x846F JUMP JUMPDEST SWAP2 POP PUSH2 0x7F5B DUP3 PUSH2 0x8867 JUMP JUMPDEST PUSH1 0x40 DUP3 ADD SWAP1 POP SWAP2 SWAP1 POP JUMP JUMPDEST PUSH1 0x0 PUSH2 0x7F73 PUSH1 0x12 DUP4 PUSH2 0x846F JUMP JUMPDEST SWAP2 POP PUSH2 0x7F7E DUP3 PUSH2 0x88B6 JUMP JUMPDEST PUSH1 0x20 DUP3 ADD SWAP1 POP SWAP2 SWAP1 POP JUMP JUMPDEST PUSH1 0x0 PUSH2 0x7F96 PUSH1 0x2F DUP4 PUSH2 0x846F JUMP JUMPDEST SWAP2 POP PUSH2 0x7FA1 DUP3 PUSH2 0x88DF JUMP JUMPDEST PUSH1 0x40 DUP3 ADD SWAP1 POP SWAP2 SWAP1 POP JUMP JUMPDEST PUSH1 0x0 PUSH2 0x7FB9 PUSH1 0x1F DUP4 PUSH2 0x846F JUMP JUMPDEST SWAP2 POP PUSH2 0x7FC4 DUP3 PUSH2 0x892E JUMP JUMPDEST PUSH1 0x20 DUP3 ADD SWAP1 POP SWAP2 SWAP1 POP JUMP JUMPDEST PUSH1 0x0 PUSH1 0xE0 DUP4 ADD PUSH1 0x0 DUP4 ADD MLOAD DUP5 DUP3 SUB PUSH1 0x0 DUP7 ADD MSTORE PUSH2 0x7FEC DUP3 DUP3 PUSH2 0x7D80 JUMP JUMPDEST SWAP2 POP POP PUSH1 0x20 DUP4 ADD MLOAD PUSH2 0x8001 PUSH1 0x20 DUP7 ADD DUP3 PUSH2 0x806B JUMP JUMPDEST POP PUSH1 0x40 DUP4 ADD MLOAD PUSH2 0x8014 PUSH1 0x40 DUP7 ADD DUP3 PUSH2 0x7C23 JUMP JUMPDEST POP PUSH1 0x60 DUP4 ADD MLOAD PUSH2 0x8027 PUSH1 0x60 DUP7 ADD DUP3 PUSH2 0x7C23 JUMP JUMPDEST POP PUSH1 0x80 DUP4 ADD MLOAD PUSH2 0x803A PUSH1 0x80 DUP7 ADD DUP3 PUSH2 0x8089 JUMP JUMPDEST POP PUSH1 0xA0 DUP4 ADD MLOAD PUSH2 0x804D PUSH1 0xA0 DUP7 ADD DUP3 PUSH2 0x8089 JUMP JUMPDEST POP PUSH1 0xC0 DUP4 ADD MLOAD PUSH2 0x8060 PUSH1 0xC0 DUP7 ADD DUP3 PUSH2 0x7CBE JUMP JUMPDEST POP DUP1 SWAP2 POP POP SWAP3 SWAP2 POP POP JUMP JUMPDEST PUSH2 0x8074 DUP2 PUSH2 0x8565 JUMP JUMPDEST DUP3 MSTORE POP POP JUMP JUMPDEST PUSH2 0x8083 DUP2 PUSH2 0x8565 JUMP JUMPDEST DUP3 MSTORE POP POP JUMP JUMPDEST PUSH2 0x8092 DUP2 PUSH2 0x856F JUMP JUMPDEST DUP3 MSTORE POP POP JUMP JUMPDEST PUSH1 0x0 PUSH2 0x80A4 DUP3 DUP6 PUSH2 0x7C32 JUMP JUMPDEST PUSH1 0x14 DUP3 ADD SWAP2 POP PUSH2 0x80B4 DUP3 DUP5 PUSH2 0x7C32 JUMP JUMPDEST PUSH1 0x14 DUP3 ADD SWAP2 POP DUP2 SWAP1 POP SWAP4 SWAP3 POP POP POP JUMP JUMPDEST PUSH1 0x0 PUSH2 0x80D0 DUP3 DUP6 PUSH2 0x7C32 JUMP JUMPDEST PUSH1 0x14 DUP3 ADD SWAP2 POP PUSH2 0x80E0 DUP3 DUP5 PUSH2 0x7C0C JUMP JUMPDEST PUSH1 0x14 DUP3 ADD SWAP2 POP DUP2 SWAP1 POP SWAP4 SWAP3 POP POP POP JUMP JUMPDEST PUSH1 0x0 PUSH2 0x80FD DUP3 DUP5 DUP7 PUSH2 0x7CDC JUMP JUMPDEST SWAP2 POP DUP2 SWAP1 POP SWAP4 SWAP3 POP POP POP JUMP JUMPDEST PUSH1 0x0 PUSH2 0x8115 DUP3 DUP5 PUSH2 0x7D01 JUMP JUMPDEST SWAP2 POP DUP2 SWAP1 POP SWAP3 SWAP2 POP POP JUMP JUMPDEST PUSH1 0x0 PUSH2 0x812B DUP3 PUSH2 0x7EFD JUMP JUMPDEST SWAP2 POP DUP2 SWAP1 POP SWAP2 SWAP1 POP JUMP JUMPDEST PUSH1 0x0 PUSH2 0x8140 DUP3 PUSH2 0x7F20 JUMP JUMPDEST SWAP2 POP PUSH2 0x814C DUP3 DUP5 PUSH2 0x7DF2 JUMP JUMPDEST SWAP2 POP DUP2 SWAP1 POP SWAP3 SWAP2 POP POP JUMP JUMPDEST PUSH1 0x0 PUSH1 0x20 DUP3 ADD SWAP1 POP DUP2 DUP2 SUB PUSH1 0x0 DUP4 ADD MSTORE PUSH2 0x8171 DUP2 DUP5 PUSH2 0x7C49 JUMP JUMPDEST SWAP1 POP SWAP3 SWAP2 POP POP JUMP JUMPDEST PUSH1 0x0 PUSH1 0x20 DUP3 ADD SWAP1 POP DUP2 DUP2 SUB PUSH1 0x0 DUP4 ADD MSTORE PUSH2 0x8193 DUP2 DUP5 PUSH2 0x7DB9 JUMP JUMPDEST SWAP1 POP SWAP3 SWAP2 POP POP JUMP JUMPDEST PUSH1 0x0 PUSH1 0x20 DUP3 ADD SWAP1 POP DUP2 DUP2 SUB PUSH1 0x0 DUP4 ADD MSTORE PUSH2 0x81B4 DUP2 PUSH2 0x7E71 JUMP JUMPDEST SWAP1 POP SWAP2 SWAP1 POP JUMP JUMPDEST PUSH1 0x0 PUSH1 0x20 DUP3 ADD SWAP1 POP DUP2 DUP2 SUB PUSH1 0x0 DUP4 ADD MSTORE PUSH2 0x81D4 DUP2 PUSH2 0x7E94 JUMP JUMPDEST SWAP1 POP SWAP2 SWAP1 POP JUMP JUMPDEST PUSH1 0x0 PUSH1 0x20 DUP3 ADD SWAP1 POP DUP2 DUP2 SUB PUSH1 0x0 DUP4 ADD MSTORE PUSH2 0x81F4 DUP2 PUSH2 0x7EB7 JUMP JUMPDEST SWAP1 POP SWAP2 SWAP1 POP JUMP JUMPDEST PUSH1 0x0 PUSH1 0x20 DUP3 ADD SWAP1 POP DUP2 DUP2 SUB PUSH1 0x0 DUP4 ADD MSTORE PUSH2 0x8214 DUP2 PUSH2 0x7EDA JUMP JUMPDEST SWAP1 POP SWAP2 SWAP1 POP JUMP JUMPDEST PUSH1 0x0 PUSH1 0x20 DUP3 ADD SWAP1 POP DUP2 DUP2 SUB PUSH1 0x0 DUP4 ADD MSTORE PUSH2 0x8234 DUP2 PUSH2 0x7F43 JUMP JUMPDEST SWAP1 POP SWAP2 SWAP1 POP JUMP JUMPDEST PUSH1 0x0 PUSH1 0x20 DUP3 ADD SWAP1 POP DUP2 DUP2 SUB PUSH1 0x0 DUP4 ADD MSTORE PUSH2 0x8254 DUP2 PUSH2 0x7F66 JUMP JUMPDEST SWAP1 POP SWAP2 SWAP1 POP JUMP JUMPDEST PUSH1 0x0 PUSH1 0x20 DUP3 ADD SWAP1 POP DUP2 DUP2 SUB PUSH1 0x0 DUP4 ADD MSTORE PUSH2 0x8274 DUP2 PUSH2 0x7F89 JUMP JUMPDEST SWAP1 POP SWAP2 SWAP1 POP JUMP JUMPDEST PUSH1 0x0 PUSH1 0x20 DUP3 ADD SWAP1 POP DUP2 DUP2 SUB PUSH1 0x0 DUP4 ADD MSTORE PUSH2 0x8294 DUP2 PUSH2 0x7FAC JUMP JUMPDEST SWAP1 POP SWAP2 SWAP1 POP JUMP JUMPDEST PUSH1 0x0 PUSH1 0x20 DUP3 ADD SWAP1 POP PUSH2 0x82B0 PUSH1 0x0 DUP4 ADD DUP5 PUSH2 0x807A JUMP JUMPDEST SWAP3 SWAP2 POP POP JUMP JUMPDEST PUSH1 0x0 PUSH1 0x40 DUP3 ADD SWAP1 POP PUSH2 0x82CB PUSH1 0x0 DUP4 ADD DUP6 PUSH2 0x807A JUMP JUMPDEST PUSH2 0x82D8 PUSH1 0x20 DUP4 ADD DUP5 PUSH2 0x7CCD JUMP JUMPDEST SWAP4 SWAP3 POP POP POP JUMP JUMPDEST PUSH1 0x0 PUSH2 0x82E9 PUSH2 0x82FA JUMP JUMPDEST SWAP1 POP PUSH2 0x82F5 DUP3 DUP3 PUSH2 0x85F0 JUMP JUMPDEST SWAP2 SWAP1 POP JUMP JUMPDEST PUSH1 0x0 PUSH1 0x40 MLOAD SWAP1 POP SWAP1 JUMP JUMPDEST PUSH1 0x0 PUSH8 0xFFFFFFFFFFFFFFFF DUP3 GT ISZERO PUSH2 0x831F JUMPI PUSH2 0x831E PUSH2 0x86FE JUMP JUMPDEST JUMPDEST PUSH1 0x20 DUP3 MUL SWAP1 POP PUSH1 0x20 DUP2 ADD SWAP1 POP SWAP2 SWAP1 POP JUMP JUMPDEST PUSH1 0x0 PUSH8 0xFFFFFFFFFFFFFFFF DUP3 GT ISZERO PUSH2 0x834B JUMPI PUSH2 0x834A PUSH2 0x86FE JUMP JUMPDEST JUMPDEST PUSH1 0x20 DUP3 MUL SWAP1 POP PUSH1 0x20 DUP2 ADD SWAP1 POP SWAP2 SWAP1 POP JUMP JUMPDEST PUSH1 0x0 PUSH8 0xFFFFFFFFFFFFFFFF DUP3 GT ISZERO PUSH2 0x8377 JUMPI PUSH2 0x8376 PUSH2 0x86FE JUMP JUMPDEST JUMPDEST PUSH1 0x20 DUP3 MUL SWAP1 POP PUSH1 0x20 DUP2 ADD SWAP1 POP SWAP2 SWAP1 POP JUMP JUMPDEST PUSH1 0x0 PUSH8 0xFFFFFFFFFFFFFFFF DUP3 GT ISZERO PUSH2 0x83A3 JUMPI PUSH2 0x83A2 PUSH2 0x86FE JUMP JUMPDEST JUMPDEST PUSH1 0x20 DUP3 MUL SWAP1 POP PUSH1 0x20 DUP2 ADD SWAP1 POP SWAP2 SWAP1 POP JUMP JUMPDEST PUSH1 0x0 PUSH8 0xFFFFFFFFFFFFFFFF DUP3 GT ISZERO PUSH2 0x83CF JUMPI PUSH2 0x83CE PUSH2 0x86FE JUMP JUMPDEST JUMPDEST PUSH2 0x83D8 DUP3 PUSH2 0x872D JUMP JUMPDEST SWAP1 POP PUSH1 0x20 DUP2 ADD SWAP1 POP SWAP2 SWAP1 POP JUMP JUMPDEST PUSH1 0x0 DUP2 SWAP1 POP PUSH1 0x20 DUP3 ADD SWAP1 POP SWAP2 SWAP1 POP JUMP JUMPDEST PUSH1 0x0 DUP2 SWAP1 POP DUP2 PUSH1 0x0 MSTORE PUSH1 0x20 PUSH1 0x0 KECCAK256 SWAP1 POP SWAP2 SWAP1 POP JUMP JUMPDEST PUSH1 0x0 DUP2 SWAP1 POP DUP2 PUSH1 0x0 MSTORE PUSH1 0x20 PUSH1 0x0 KECCAK256 SWAP1 POP SWAP2 SWAP1 POP JUMP JUMPDEST PUSH1 0x0 DUP2 MLOAD SWAP1 POP SWAP2 SWAP1 POP JUMP JUMPDEST PUSH1 0x0 DUP2 MLOAD SWAP1 POP SWAP2 SWAP1 POP JUMP JUMPDEST PUSH1 0x0 PUSH1 0x20 DUP3 ADD SWAP1 POP SWAP2 SWAP1 POP JUMP JUMPDEST PUSH1 0x0 DUP3 DUP3 MSTORE PUSH1 0x20 DUP3 ADD SWAP1 POP SWAP3 SWAP2 POP POP JUMP JUMPDEST PUSH1 0x0 DUP2 SWAP1 POP SWAP3 SWAP2 POP POP JUMP JUMPDEST PUSH1 0x0 DUP3 DUP3 MSTORE PUSH1 0x20 DUP3 ADD SWAP1 POP SWAP3 SWAP2 POP POP JUMP JUMPDEST PUSH1 0x0 DUP3 DUP3 MSTORE PUSH1 0x20 DUP3 ADD SWAP1 POP SWAP3 SWAP2 POP POP JUMP JUMPDEST PUSH1 0x0 DUP2 SWAP1 POP SWAP3 SWAP2 POP POP JUMP JUMPDEST PUSH1 0x0 PUSH2 0x8496 DUP3 PUSH2 0x8565 JUMP JUMPDEST SWAP2 POP PUSH2 0x84A1 DUP4 PUSH2 0x8565 JUMP JUMPDEST SWAP3 POP DUP3 PUSH32 0xFFFFFFFFFFFFFFFFFFFFFFFFFFFFFFFFFFFFFFFFFFFFFFFFFFFFFFFFFFFFFFFF SUB DUP3 GT ISZERO PUSH2 0x84D6 JUMPI PUSH2 0x84D5 PUSH2 0x86A0 JUMP JUMPDEST JUMPDEST DUP3 DUP3 ADD SWAP1 POP SWAP3 SWAP2 POP POP JUMP JUMPDEST PUSH1 0x0 PUSH2 0x84EC DUP3 PUSH2 0x8565 JUMP JUMPDEST SWAP2 POP PUSH2 0x84F7 DUP4 PUSH2 0x8565 JUMP JUMPDEST SWAP3 POP DUP3 DUP3 LT ISZERO PUSH2 0x850A JUMPI PUSH2 0x8509 PUSH2 0x86A0 JUMP JUMPDEST JUMPDEST DUP3 DUP3 SUB SWAP1 POP SWAP3 SWAP2 POP POP JUMP JUMPDEST PUSH1 0x0 PUSH2 0x8520 DUP3 PUSH2 0x8545 JUMP JUMPDEST SWAP1 POP SWAP2 SWAP1 POP JUMP JUMPDEST PUSH1 0x0 PUSH2 0x8532 DUP3 PUSH2 0x8545 JUMP JUMPDEST SWAP1 POP SWAP2 SWAP1 POP JUMP JUMPDEST PUSH1 0x0 DUP2 ISZERO ISZERO SWAP1 POP SWAP2 SWAP1 POP JUMP JUMPDEST PUSH1 0x0 PUSH20 0xFFFFFFFFFFFFFFFFFFFFFFFFFFFFFFFFFFFFFFFF DUP3 AND SWAP1 POP SWAP2 SWAP1 POP JUMP JUMPDEST PUSH1 0x0 DUP2 SWAP1 POP SWAP2 SWAP1 POP JUMP JUMPDEST PUSH1 0x0 PUSH1 0xFF DUP3 AND SWAP1 POP SWAP2 SWAP1 POP JUMP JUMPDEST DUP3 DUP2 DUP4 CALLDATACOPY PUSH1 0x0 DUP4 DUP4 ADD MSTORE POP POP POP JUMP JUMPDEST PUSH1 0x0 JUMPDEST DUP4 DUP2 LT ISZERO PUSH2 0x85A9 JUMPI DUP1 DUP3 ADD MLOAD DUP2 DUP5 ADD MSTORE PUSH1 0x20 DUP2 ADD SWAP1 POP PUSH2 0x858E JUMP JUMPDEST DUP4 DUP2 GT ISZERO PUSH2 0x85B8 JUMPI PUSH1 0x0 DUP5 DUP5 ADD MSTORE JUMPDEST POP POP POP POP JUMP JUMPDEST PUSH1 0x0 PUSH1 0x2 DUP3 DIV SWAP1 POP PUSH1 0x1 DUP3 AND DUP1 PUSH2 0x85D6 JUMPI PUSH1 0x7F DUP3 AND SWAP2 POP JUMPDEST PUSH1 0x20 DUP3 LT DUP2 EQ ISZERO PUSH2 0x85EA JUMPI PUSH2 0x85E9 PUSH2 0x86CF JUMP JUMPDEST JUMPDEST POP SWAP2 SWAP1 POP JUMP JUMPDEST PUSH2 0x85F9 DUP3 PUSH2 0x872D JUMP JUMPDEST DUP2 ADD DUP2 DUP2 LT PUSH8 0xFFFFFFFFFFFFFFFF DUP3 GT OR ISZERO PUSH2 0x8618 JUMPI PUSH2 0x8617 PUSH2 0x86FE JUMP JUMPDEST JUMPDEST DUP1 PUSH1 0x40 MSTORE POP POP POP JUMP JUMPDEST PUSH1 0x0 PUSH2 0x862C DUP3 PUSH2 0x8565 JUMP JUMPDEST SWAP2 POP PUSH32 0xFFFFFFFFFFFFFFFFFFFFFFFFFFFFFFFFFFFFFFFFFFFFFFFFFFFFFFFFFFFFFFFF DUP3 EQ ISZERO PUSH2 0x865F JUMPI PUSH2 0x865E PUSH2 0x86A0 JUMP JUMPDEST JUMPDEST PUSH1 0x1 DUP3 ADD SWAP1 POP SWAP2 SWAP1 POP JUMP JUMPDEST PUSH1 0x0 PUSH2 0x8675 DUP3 PUSH2 0x868E JUMP JUMPDEST SWAP1 POP SWAP2 SWAP1 POP JUMP JUMPDEST PUSH1 0x0 PUSH2 0x8687 DUP3 PUSH2 0x868E JUMP JUMPDEST SWAP1 POP SWAP2 SWAP1 POP JUMP JUMPDEST PUSH1 0x0 PUSH2 0x8699 DUP3 PUSH2 0x873E JUMP JUMPDEST SWAP1 POP SWAP2 SWAP1 POP JUMP JUMPDEST PUSH32 0x4E487B7100000000000000000000000000000000000000000000000000000000 PUSH1 0x0 MSTORE PUSH1 0x11 PUSH1 0x4 MSTORE PUSH1 0x24 PUSH1 0x0 REVERT JUMPDEST PUSH32 0x4E487B7100000000000000000000000000000000000000000000000000000000 PUSH1 0x0 MSTORE PUSH1 0x22 PUSH1 0x4 MSTORE PUSH1 0x24 PUSH1 0x0 REVERT JUMPDEST PUSH32 0x4E487B7100000000000000000000000000000000000000000000000000000000 PUSH1 0x0 MSTORE PUSH1 0x41 PUSH1 0x4 MSTORE PUSH1 0x24 PUSH1 0x0 REVERT JUMPDEST PUSH1 0x0 PUSH1 0x1F NOT PUSH1 0x1F DUP4 ADD AND SWAP1 POP SWAP2 SWAP1 POP JUMP JUMPDEST PUSH1 0x0 DUP2 PUSH1 0x60 SHL SWAP1 POP SWAP2 SWAP1 POP JUMP JUMPDEST PUSH32 0x596F7520617265206E6F742074686520636C69656E742E000000000000000000 PUSH1 0x0 DUP3 ADD MSTORE POP JUMP JUMPDEST PUSH32 0x546F74616C20616D6F756E74206973206C657373207468616E2063757272656E PUSH1 0x0 DUP3 ADD MSTORE PUSH32 0x742073656E6420616D6F756E7400000000000000000000000000000000000000 PUSH1 0x20 DUP3 ADD MSTORE POP JUMP JUMPDEST PUSH32 0x416464726573736573206C656E677468206D75737420626520657175616C2074 PUSH1 0x0 DUP3 ADD MSTORE PUSH32 0x6F20616D6F756E7473206C656E67746800000000000000000000000000000000 PUSH1 0x20 DUP3 ADD MSTORE POP JUMP JUMPDEST PUSH32 0x596F7520617265206E6F74207468652073656C6C65722E000000000000000000 PUSH1 0x0 DUP3 ADD MSTORE POP JUMP JUMPDEST POP JUMP JUMPDEST PUSH32 0x4661696C656420746F2073656E64200000000000000000000000000000000000 PUSH1 0x0 DUP3 ADD MSTORE POP JUMP JUMPDEST PUSH32 0x416464726573736573206C656E677468206D75737420626520657175616C2074 PUSH1 0x0 DUP3 ADD MSTORE PUSH32 0x6F2070726F6475637420686173686573206C656E677468000000000000000000 PUSH1 0x20 DUP3 ADD MSTORE POP JUMP JUMPDEST PUSH32 0x416464726573732063616E277420626520300000000000000000000000000000 PUSH1 0x0 DUP3 ADD MSTORE POP JUMP JUMPDEST PUSH32 0x416464726573736573206C656E677468206D75737420626520657175616C2074 PUSH1 0x0 DUP3 ADD MSTORE PUSH32 0x6F2076616C756573206C656E6774680000000000000000000000000000000000 PUSH1 0x20 DUP3 ADD MSTORE POP JUMP JUMPDEST PUSH32 0x5265656E7472616E637947756172643A207265656E7472616E742063616C6C00 PUSH1 0x0 DUP3 ADD MSTORE POP JUMP JUMPDEST PUSH2 0x8960 DUP2 PUSH2 0x8515 JUMP JUMPDEST DUP2 EQ PUSH2 0x896B JUMPI PUSH1 0x0 DUP1 REVERT JUMPDEST POP JUMP JUMPDEST PUSH2 0x8977 DUP2 PUSH2 0x8527 JUMP JUMPDEST DUP2 EQ PUSH2 0x8982 JUMPI PUSH1 0x0 DUP1 REVERT JUMPDEST POP JUMP JUMPDEST PUSH2 0x898E DUP2 PUSH2 0x8565 JUMP JUMPDEST DUP2 EQ PUSH2 0x8999 JUMPI PUSH1 0x0 DUP1 REVERT JUMPDEST POP JUMP INVALID LOG2 PUSH5 0x6970667358 0x22 SLT KECCAK256 PUSH16 0x10BD131EB2399C0215A17C5D5062D1FA PUSH29 0xD4EA34BE1064662100A3C4BCA62A64736F6C6343000804003300000000 "
        },
        "methodIdentifiers": {
          "checkProductOrders(address,string)": "21a598de",
          "clientCheckActiveOrders()": "98feff33",
          "clientCheckOrders()": "6749cf5b",
          "clientProccessTransaction(address[],uint256[],string[])": "2c7f173e",
          "clientRevertTransaction(address[],uint256[],string[])": "1bd0ecf8",
          "multiTransfer(address[],uint256[],string[])": "d760a5a4",
          "sellerCheckActiveOrders()": "697b8108",
          "sellerCheckOrders()": "7bcebb16",
          "sellerProccessTransaction(address[],uint256[],string[])": "dff68ed3",
          "sellerRevertTransaction(address[],uint256[],string[])": "fff35722",
          "symbol()": "95d89b41"
        }
      }
    }
  }
}