{
  "_format": "hh-sol-artifact-1",
  "contractName": "ShopsBulkTransactions",
  "sourceName": "contracts/ShopsBulkTransactions.sol",
  "abi": [
    {
      "inputs": [
        {
          "internalType": "string",
          "name": "_symbol",
          "type": "string"
        },
        {
          "internalType": "address",
          "name": "arbitrator",
          "type": "address"
        }
      ],
      "stateMutability": "nonpayable",
      "type": "constructor"
    },
    {
      "anonymous": false,
      "inputs": [
        {
          "indexed": false,
          "internalType": "uint256",
          "name": "_amount",
          "type": "uint256"
        },
        {
          "indexed": false,
          "internalType": "bool",
          "name": "_status",
          "type": "bool"
        }
      ],
      "name": "MultiTransfer",
      "type": "event"
    },
    {
      "inputs": [
        {
          "internalType": "address[]",
          "name": "_clients",
          "type": "address[]"
        },
        {
          "internalType": "address[]",
          "name": "_sellers",
          "type": "address[]"
        },
        {
          "internalType": "bytes32[]",
          "name": "_orderHashes",
          "type": "bytes32[]"
        }
      ],
      "name": "arbitratorProccessTransaction",
      "outputs": [],
      "stateMutability": "nonpayable",
      "type": "function"
    },
    {
      "inputs": [
        {
          "internalType": "address[]",
          "name": "_clients",
          "type": "address[]"
        },
        {
          "internalType": "address[]",
          "name": "_sellers",
          "type": "address[]"
        },
        {
          "internalType": "bytes32[]",
          "name": "_orderHashes",
          "type": "bytes32[]"
        }
      ],
      "name": "arbitratorRevertTransaction",
      "outputs": [],
      "stateMutability": "nonpayable",
      "type": "function"
    },
    {
      "inputs": [
        {
          "internalType": "address",
          "name": "seller",
          "type": "address"
        },
        {
          "internalType": "string",
          "name": "productHash",
          "type": "string"
        }
      ],
      "name": "checkProductOrders",
      "outputs": [
        {
          "internalType": "uint256",
          "name": "",
          "type": "uint256"
        }
      ],
      "stateMutability": "view",
      "type": "function"
    },
    {
      "inputs": [],
      "name": "clientCheckActiveOrders",
      "outputs": [
        {
          "components": [
            {
              "internalType": "bytes32",
              "name": "orderHash",
              "type": "bytes32"
            },
            {
              "internalType": "string",
              "name": "productHash",
              "type": "string"
            },
            {
              "internalType": "uint256",
              "name": "value",
              "type": "uint256"
            },
            {
              "internalType": "address",
              "name": "client",
              "type": "address"
            },
            {
              "internalType": "address",
              "name": "seller",
              "type": "address"
            },
            {
              "internalType": "address",
              "name": "arbitrator",
              "type": "address"
            },
            {
              "internalType": "uint8",
              "name": "clientDecision",
              "type": "uint8"
            },
            {
              "internalType": "uint8",
              "name": "sellerDecision",
              "type": "uint8"
            },
            {
              "internalType": "uint8",
              "name": "arbitratorDecision",
              "type": "uint8"
            },
            {
              "internalType": "uint256",
              "name": "deadline",
              "type": "uint256"
            },
            {
              "internalType": "bool",
              "name": "active",
              "type": "bool"
            }
          ],
          "internalType": "struct ShopsBulkTransactions.Order[]",
          "name": "",
          "type": "tuple[]"
        }
      ],
      "stateMutability": "view",
      "type": "function"
    },
    {
      "inputs": [],
      "name": "clientCheckOrders",
      "outputs": [
        {
          "components": [
            {
              "internalType": "bytes32",
              "name": "orderHash",
              "type": "bytes32"
            },
            {
              "internalType": "string",
              "name": "productHash",
              "type": "string"
            },
            {
              "internalType": "uint256",
              "name": "value",
              "type": "uint256"
            },
            {
              "internalType": "address",
              "name": "client",
              "type": "address"
            },
            {
              "internalType": "address",
              "name": "seller",
              "type": "address"
            },
            {
              "internalType": "address",
              "name": "arbitrator",
              "type": "address"
            },
            {
              "internalType": "uint8",
              "name": "clientDecision",
              "type": "uint8"
            },
            {
              "internalType": "uint8",
              "name": "sellerDecision",
              "type": "uint8"
            },
            {
              "internalType": "uint8",
              "name": "arbitratorDecision",
              "type": "uint8"
            },
            {
              "internalType": "uint256",
              "name": "deadline",
              "type": "uint256"
            },
            {
              "internalType": "bool",
              "name": "active",
              "type": "bool"
            }
          ],
          "internalType": "struct ShopsBulkTransactions.Order[]",
          "name": "",
          "type": "tuple[]"
        }
      ],
      "stateMutability": "view",
      "type": "function"
    },
    {
      "inputs": [
        {
          "internalType": "address[]",
          "name": "_sellers",
          "type": "address[]"
        },
        {
          "internalType": "bytes32[]",
          "name": "_orderHashes",
          "type": "bytes32[]"
        }
      ],
      "name": "clientProccessTransaction",
      "outputs": [],
      "stateMutability": "nonpayable",
      "type": "function"
    },
    {
      "inputs": [
        {
          "internalType": "address[]",
          "name": "_sellers",
          "type": "address[]"
        },
        {
          "internalType": "bytes32[]",
          "name": "_orderHashes",
          "type": "bytes32[]"
        }
      ],
      "name": "clientRevertTransaction",
      "outputs": [],
      "stateMutability": "nonpayable",
      "type": "function"
    },
    {
      "inputs": [
        {
          "internalType": "address payable[]",
          "name": "_addresses",
          "type": "address[]"
        },
        {
          "internalType": "uint256[]",
          "name": "_amounts",
          "type": "uint256[]"
        },
        {
          "internalType": "string[]",
          "name": "_productHashes",
          "type": "string[]"
        }
      ],
      "name": "multiTransfer",
      "outputs": [],
      "stateMutability": "payable",
      "type": "function"
    },
    {
      "inputs": [],
      "name": "sellerCheckActiveOrders",
      "outputs": [
        {
          "components": [
            {
              "internalType": "bytes32",
              "name": "orderHash",
              "type": "bytes32"
            },
            {
              "internalType": "string",
              "name": "productHash",
              "type": "string"
            },
            {
              "internalType": "uint256",
              "name": "value",
              "type": "uint256"
            },
            {
              "internalType": "address",
              "name": "client",
              "type": "address"
            },
            {
              "internalType": "address",
              "name": "seller",
              "type": "address"
            },
            {
              "internalType": "address",
              "name": "arbitrator",
              "type": "address"
            },
            {
              "internalType": "uint8",
              "name": "clientDecision",
              "type": "uint8"
            },
            {
              "internalType": "uint8",
              "name": "sellerDecision",
              "type": "uint8"
            },
            {
              "internalType": "uint8",
              "name": "arbitratorDecision",
              "type": "uint8"
            },
            {
              "internalType": "uint256",
              "name": "deadline",
              "type": "uint256"
            },
            {
              "internalType": "bool",
              "name": "active",
              "type": "bool"
            }
          ],
          "internalType": "struct ShopsBulkTransactions.Order[]",
          "name": "",
          "type": "tuple[]"
        }
      ],
      "stateMutability": "view",
      "type": "function"
    },
    {
      "inputs": [],
      "name": "sellerCheckOrders",
      "outputs": [
        {
          "components": [
            {
              "internalType": "bytes32",
              "name": "orderHash",
              "type": "bytes32"
            },
            {
              "internalType": "string",
              "name": "productHash",
              "type": "string"
            },
            {
              "internalType": "uint256",
              "name": "value",
              "type": "uint256"
            },
            {
              "internalType": "address",
              "name": "client",
              "type": "address"
            },
            {
              "internalType": "address",
              "name": "seller",
              "type": "address"
            },
            {
              "internalType": "address",
              "name": "arbitrator",
              "type": "address"
            },
            {
              "internalType": "uint8",
              "name": "clientDecision",
              "type": "uint8"
            },
            {
              "internalType": "uint8",
              "name": "sellerDecision",
              "type": "uint8"
            },
            {
              "internalType": "uint8",
              "name": "arbitratorDecision",
              "type": "uint8"
            },
            {
              "internalType": "uint256",
              "name": "deadline",
              "type": "uint256"
            },
            {
              "internalType": "bool",
              "name": "active",
              "type": "bool"
            }
          ],
          "internalType": "struct ShopsBulkTransactions.Order[]",
          "name": "",
          "type": "tuple[]"
        }
      ],
      "stateMutability": "view",
      "type": "function"
    },
    {
      "inputs": [
        {
          "internalType": "address[]",
          "name": "_clients",
          "type": "address[]"
        },
        {
          "internalType": "bytes32[]",
          "name": "_orderHashes",
          "type": "bytes32[]"
        }
      ],
      "name": "sellerProccessTransaction",
      "outputs": [],
      "stateMutability": "nonpayable",
      "type": "function"
    },
    {
      "inputs": [
        {
          "internalType": "address[]",
          "name": "_clients",
          "type": "address[]"
        },
        {
          "internalType": "bytes32[]",
          "name": "_orderHashes",
          "type": "bytes32[]"
        }
      ],
      "name": "sellerRevertTransaction",
      "outputs": [],
      "stateMutability": "nonpayable",
      "type": "function"
    },
    {
      "inputs": [],
      "name": "symbol",
      "outputs": [
        {
          "internalType": "string",
          "name": "",
          "type": "string"
        }
      ],
      "stateMutability": "view",
      "type": "function"
    }
  ],
  "bytecode": "0x60806040523480156200001157600080fd5b5060405162003fd538038062003fd5833981016040819052620000349162000139565b600160005581516200004e90600590602085019062000076565b50600180546001600160a01b0319166001600160a01b03929092169190911790555062000277565b828054620000849062000224565b90600052602060002090601f016020900481019282620000a85760008555620000f3565b82601f10620000c357805160ff1916838001178555620000f3565b82800160010185558215620000f3579182015b82811115620000f3578251825591602001919060010190620000d6565b506200010192915062000105565b5090565b5b8082111562000101576000815560010162000106565b80516001600160a01b03811681146200013457600080fd5b919050565b600080604083850312156200014c578182fd5b82516001600160401b038082111562000163578384fd5b818501915085601f83011262000177578384fd5b8151818111156200018c576200018c62000261565b604051601f8201601f19908116603f01168101908382118183101715620001b757620001b762000261565b81604052828152602093508884848701011115620001d3578687fd5b8691505b82821015620001f65784820184015181830185015290830190620001d7565b828211156200020757868484830101525b9550620002199150508582016200011c565b925050509250929050565b600181811c908216806200023957607f821691505b602082108114156200025b57634e487b7160e01b600052602260045260246000fd5b50919050565b634e487b7160e01b600052604160045260246000fd5b613d4e80620002876000396000f3fe6080604052600436106100c25760003560e01c8063745715b51161007f57806398feff331161005957806398feff33146101ea578063d760a5a4146101ff578063f24baeaa14610212578063fcf8a0c01461023257600080fd5b8063745715b5146101935780637bcebb16146101b357806395d89b41146101c857600080fd5b80630955bff5146100c757806321a598de146100e95780633acee9bc1461011c578063400b64031461013c5780636749cf5b1461015c578063697b81081461017e575b600080fd5b3480156100d357600080fd5b506100e76100e2366004613646565b610252565b005b3480156100f557600080fd5b50610109610104366004613542565b610347565b6040519081526020015b60405180910390f35b34801561012857600080fd5b506100e7610137366004613646565b610620565b34801561014857600080fd5b506100e76101573660046135c2565b610702565b34801561016857600080fd5b50610171610817565b60405161011391906139c2565b34801561018a57600080fd5b50610171610bab565b34801561019f57600080fd5b506100e76101ae366004613646565b61113d565b3480156101bf57600080fd5b50610171611212565b3480156101d457600080fd5b506101dd61159c565b6040516101139190613ab8565b3480156101f657600080fd5b5061017161162a565b6100e761020d3660046136a7565b611bb3565b34801561021e57600080fd5b506100e761022d366004613646565b6120cd565b34801561023e57600080fd5b506100e761024d3660046135c2565b6121a2565b6002600054141561027e5760405162461bcd60e51b815260040161027590613b97565b60405180910390fd5b600260005580518251146102a45760405162461bcd60e51b815260040161027590613b41565b60008251116102c55760405162461bcd60e51b815260040161027590613acb565b60005b825181101561033d5761032b8382815181106102f457634e487b7160e01b600052603260045260246000fd5b6020026020010151600184848151811061031e57634e487b7160e01b600052603260045260246000fd5b602002602001015161229f565b8061033581613cb9565b9150506102c8565b5050600160005550565b6001600160a01b03831660009081526004602090815260408083208054825181850281018501909352808352849384939291908301828280156103a957602002820191906000526020600020905b815481526020019060010190808311610395575b505050505090506000805b8251811015610614576000600260008584815181106103e357634e487b7160e01b600052603260045260246000fd5b60200260200101518152602001908152602001600020805480602002602001604051908101604052809291908181526020016000905b8282101561056e5783829060005260206000209060080201604051806101600160405290816000820154815260200160018201805461045790613c7e565b80601f016020809104026020016040519081016040528092919081815260200182805461048390613c7e565b80156104d05780601f106104a5576101008083540402835291602001916104d0565b820191906000526020600020905b8154815290600101906020018083116104b357829003601f168201915b5050509183525050600282015460208083019190915260038301546001600160a01b0390811660408401526004840154811660608401526005840154908116608084015260ff600160a01b8204811660a0850152600160a81b8204811660c0850152600160b01b909104811660e084015260068401546101008401526007909301549092161515610120909101529082526001929092019101610419565b50505050905060005b81518110156105ff578888604051610590929190613987565b60405180910390208282815181106105b857634e487b7160e01b600052603260045260246000fd5b6020026020010151602001518051906020012014156105df57856105db81613cb9565b9650505b836105e981613cb9565b94505080806105f790613cb9565b915050610577565b5050808061060c90613cb9565b9150506103b4565b50919695505050505050565b600260005414156106435760405162461bcd60e51b815260040161027590613b97565b600260005580518251146106695760405162461bcd60e51b815260040161027590613b41565b600082511161068a5760405162461bcd60e51b815260040161027590613acb565b60005b825181101561033d576106f08382815181106106b957634e487b7160e01b600052603260045260246000fd5b602002602001015160018484815181106106e357634e487b7160e01b600052603260045260246000fd5b602002602001015161287a565b806106fa81613cb9565b91505061068d565b600260005414156107255760405162461bcd60e51b815260040161027590613b97565b6002600055805183511461074b5760405162461bcd60e51b815260040161027590613b41565b815183511461076c5760405162461bcd60e51b815260040161027590613af3565b60005b835181101561080c576107fa84828151811061079b57634e487b7160e01b600052603260045260246000fd5b60200260200101518483815181106107c357634e487b7160e01b600052603260045260246000fd5b602002602001015160018585815181106107ed57634e487b7160e01b600052603260045260246000fd5b6020026020010151612cfb565b8061080481613cb9565b91505061076f565b505060016000555050565b336000908152600360209081526040808320805482518185028101850190935280835260609493849392919083018282801561087257602002820191906000526020600020905b81548152602001906001019080831161085e575b5050505050905060005b81518110156108e257600260008383815181106108a957634e487b7160e01b600052603260045260246000fd5b6020026020010151815260200190815260200160002080549050836108ce9190613c23565b9250806108da81613cb9565b91505061087c565b5060008267ffffffffffffffff81111561090c57634e487b7160e01b600052604160045260246000fd5b60405190808252806020026020018201604052801561094557816020015b610932613296565b81526020019060019003908161092a5790505b5090506000805b8351811015610ba15760006002600086848151811061097b57634e487b7160e01b600052603260045260246000fd5b60200260200101518152602001908152602001600020805480602002602001604051908101604052809291908181526020016000905b82821015610b06578382906000526020600020906008020160405180610160016040529081600082015481526020016001820180546109ef90613c7e565b80601f0160208091040260200160405190810160405280929190818152602001828054610a1b90613c7e565b8015610a685780601f10610a3d57610100808354040283529160200191610a68565b820191906000526020600020905b815481529060010190602001808311610a4b57829003601f168201915b5050509183525050600282015460208083019190915260038301546001600160a01b0390811660408401526004840154811660608401526005840154908116608084015260ff600160a01b8204811660a0850152600160a81b8204811660c0850152600160b01b909104811660e0840152600684015461010084015260079093015490921615156101209091015290825260019290920191016109b1565b50505050905060005b8151811015610b8c57818181518110610b3857634e487b7160e01b600052603260045260246000fd5b6020026020010151858581518110610b6057634e487b7160e01b600052603260045260246000fd5b60200260200101819052508380610b7690613cb9565b9450508080610b8490613cb9565b915050610b0f565b50508080610b9990613cb9565b91505061094c565b5090949350505050565b3360009081526004602090815260408083208054825181850281018501909352808352606094938493929190830182828015610c0657602002820191906000526020600020905b815481526020019060010190808311610bf2575b505050505090506000805b8251811015610e4457600060026000858481518110610c4057634e487b7160e01b600052603260045260246000fd5b60200260200101518152602001908152602001600020805480602002602001604051908101604052809291908181526020016000905b82821015610dcb57838290600052602060002090600802016040518061016001604052908160008201548152602001600182018054610cb490613c7e565b80601f0160208091040260200160405190810160405280929190818152602001828054610ce090613c7e565b8015610d2d5780601f10610d0257610100808354040283529160200191610d2d565b820191906000526020600020905b815481529060010190602001808311610d1057829003601f168201915b5050509183525050600282015460208083019190915260038301546001600160a01b0390811660408401526004840154811660608401526005840154908116608084015260ff600160a01b8204811660a0850152600160a81b8204811660c0850152600160b01b909104811660e084015260068401546101008401526007909301549092161515610120909101529082526001929092019101610c76565b50505050905060005b8151811015610e2f57818181518110610dfd57634e487b7160e01b600052603260045260246000fd5b6020026020010151610140015115610e1d5785610e1981613cb9565b9650505b80610e2781613cb9565b915050610dd4565b50508080610e3c90613cb9565b915050610c11565b5060008367ffffffffffffffff811115610e6e57634e487b7160e01b600052604160045260246000fd5b604051908082528060200260200182016040528015610ea757816020015b610e94613296565b815260200190600190039081610e8c5790505b50905060005b835181101561113457600060026000868481518110610edc57634e487b7160e01b600052603260045260246000fd5b60200260200101518152602001908152602001600020805480602002602001604051908101604052809291908181526020016000905b8282101561106757838290600052602060002090600802016040518061016001604052908160008201548152602001600182018054610f5090613c7e565b80601f0160208091040260200160405190810160405280929190818152602001828054610f7c90613c7e565b8015610fc95780601f10610f9e57610100808354040283529160200191610fc9565b820191906000526020600020905b815481529060010190602001808311610fac57829003601f168201915b5050509183525050600282015460208083019190915260038301546001600160a01b0390811660408401526004840154811660608401526005840154908116608084015260ff600160a01b8204811660a0850152600160a81b8204811660c0850152600160b01b909104811660e084015260068401546101008401526007909301549092161515610120909101529082526001929092019101610f12565b50505050905060005b815181101561111f5781818151811061109957634e487b7160e01b600052603260045260246000fd5b602002602001015161014001511561110d578181815181106110cb57634e487b7160e01b600052603260045260246000fd5b60200260200101518486815181106110f357634e487b7160e01b600052603260045260246000fd5b6020026020010181905250848061110990613cb9565b9550505b8061111781613cb9565b915050611070565b5050808061112c90613cb9565b915050610ead565b50949350505050565b600260005414156111605760405162461bcd60e51b815260040161027590613b97565b600260005580518251146111865760405162461bcd60e51b815260040161027590613b41565b60008251116111a75760405162461bcd60e51b815260040161027590613acb565b60005b825181101561033d576112008382815181106111d657634e487b7160e01b600052603260045260246000fd5b6020026020010151600284848151811061031e57634e487b7160e01b600052603260045260246000fd5b8061120a81613cb9565b9150506111aa565b336000908152600460209081526040808320805482518185028101850190935280835260609493849392919083018282801561126d57602002820191906000526020600020905b815481526020019060010190808311611259575b5050505050905060005b81518110156112dd57600260008383815181106112a457634e487b7160e01b600052603260045260246000fd5b6020026020010151815260200190815260200160002080549050836112c99190613c23565b9250806112d581613cb9565b915050611277565b5060008267ffffffffffffffff81111561130757634e487b7160e01b600052604160045260246000fd5b60405190808252806020026020018201604052801561134057816020015b61132d613296565b8152602001906001900390816113255790505b5090506000805b8351811015610ba15760006002600086848151811061137657634e487b7160e01b600052603260045260246000fd5b60200260200101518152602001908152602001600020805480602002602001604051908101604052809291908181526020016000905b82821015611501578382906000526020600020906008020160405180610160016040529081600082015481526020016001820180546113ea90613c7e565b80601f016020809104026020016040519081016040528092919081815260200182805461141690613c7e565b80156114635780601f1061143857610100808354040283529160200191611463565b820191906000526020600020905b81548152906001019060200180831161144657829003601f168201915b5050509183525050600282015460208083019190915260038301546001600160a01b0390811660408401526004840154811660608401526005840154908116608084015260ff600160a01b8204811660a0850152600160a81b8204811660c0850152600160b01b909104811660e0840152600684015461010084015260079093015490921615156101209091015290825260019290920191016113ac565b50505050905060005b81518110156115875781818151811061153357634e487b7160e01b600052603260045260246000fd5b602002602001015185858151811061155b57634e487b7160e01b600052603260045260246000fd5b6020026020010181905250838061157190613cb9565b945050808061157f90613cb9565b91505061150a565b5050808061159490613cb9565b915050611347565b600580546115a990613c7e565b80601f01602080910402602001604051908101604052809291908181526020018280546115d590613c7e565b80156116225780601f106115f757610100808354040283529160200191611622565b820191906000526020600020905b81548152906001019060200180831161160557829003601f168201915b505050505081565b336000908152600360209081526040808320805482518185028101850190935280835260609493849392919083018282801561168557602002820191906000526020600020905b815481526020019060010190808311611671575b505050505090506000805b82518110156118c3576000600260008584815181106116bf57634e487b7160e01b600052603260045260246000fd5b60200260200101518152602001908152602001600020805480602002602001604051908101604052809291908181526020016000905b8282101561184a5783829060005260206000209060080201604051806101600160405290816000820154815260200160018201805461173390613c7e565b80601f016020809104026020016040519081016040528092919081815260200182805461175f90613c7e565b80156117ac5780601f10611781576101008083540402835291602001916117ac565b820191906000526020600020905b81548152906001019060200180831161178f57829003601f168201915b5050509183525050600282015460208083019190915260038301546001600160a01b0390811660408401526004840154811660608401526005840154908116608084015260ff600160a01b8204811660a0850152600160a81b8204811660c0850152600160b01b909104811660e0840152600684015461010084015260079093015490921615156101209091015290825260019290920191016116f5565b50505050905060005b81518110156118ae5781818151811061187c57634e487b7160e01b600052603260045260246000fd5b602002602001015161014001511561189c578561189881613cb9565b9650505b806118a681613cb9565b915050611853565b505080806118bb90613cb9565b915050611690565b5060008367ffffffffffffffff8111156118ed57634e487b7160e01b600052604160045260246000fd5b60405190808252806020026020018201604052801561192657816020015b611913613296565b81526020019060019003908161190b5790505b50905060005b83518110156111345760006002600086848151811061195b57634e487b7160e01b600052603260045260246000fd5b60200260200101518152602001908152602001600020805480602002602001604051908101604052809291908181526020016000905b82821015611ae6578382906000526020600020906008020160405180610160016040529081600082015481526020016001820180546119cf90613c7e565b80601f01602080910402602001604051908101604052809291908181526020018280546119fb90613c7e565b8015611a485780601f10611a1d57610100808354040283529160200191611a48565b820191906000526020600020905b815481529060010190602001808311611a2b57829003601f168201915b5050509183525050600282015460208083019190915260038301546001600160a01b0390811660408401526004840154811660608401526005840154908116608084015260ff600160a01b8204811660a0850152600160a81b8204811660c0850152600160b01b909104811660e084015260068401546101008401526007909301549092161515610120909101529082526001929092019101611991565b50505050905060005b8151811015611b9e57818181518110611b1857634e487b7160e01b600052603260045260246000fd5b6020026020010151610140015115611b8c57818181518110611b4a57634e487b7160e01b600052603260045260246000fd5b6020026020010151848681518110611b7257634e487b7160e01b600052603260045260246000fd5b60200260200101819052508480611b8890613cb9565b9550505b80611b9681613cb9565b915050611aef565b50508080611bab90613cb9565b91505061192c565b60026000541415611bd65760405162461bcd60e51b815260040161027590613b97565b60026000558151835114611c455760405162461bcd60e51b815260206004820152603060248201527f416464726573736573206c656e677468206d75737420626520657175616c207460448201526f0de40c2dadeeadce8e640d8cadccee8d60831b6064820152608401610275565b348060005b855181101561208757848181518110611c7357634e487b7160e01b600052603260045260246000fd5b6020026020010151821015611ce05760405162461bcd60e51b815260206004820152602d60248201527f546f74616c20616d6f756e74206973206c657373207468616e2063757272656e60448201526c1d081cd95b9908185b5bdd5b9d609a1b6064820152608401610275565b848181518110611d0057634e487b7160e01b600052603260045260246000fd5b602002602001015182611d139190613c3b565b9150611d1d613296565b3360608201528651879083908110611d4557634e487b7160e01b600052603260045260246000fd5b60209081029190910101516001600160a01b0390811660808301526001805490911660a083015260e0820152600060c082018190526101008201528551869083908110611da257634e487b7160e01b600052603260045260246000fd5b6020026020010151816040018181525050848281518110611dd357634e487b7160e01b600052603260045260246000fd5b602002602001015181602001819052504262278d00611df29190613c23565b6101208201819052600161014083018190526060830151608084015160a085015160e086015160c08701516101008801516040808a01516020808c01519251611e4a9b999a989997989697959694959294910161386e565b60405160208183030381529060405280519060200120816000018181525050600033888481518110611e8c57634e487b7160e01b600052603260045260246000fd5b6020026020010151604051602001611ea5929190613847565b60408051601f1981840301815291815281516020928301206000818152600284529182208054600181810183559184529284902086516008909402019283558584015180519295508694611eff93928501929101906132f3565b5060408281015160028381019190915560608401516003840180546001600160a01b03199081166001600160a01b0393841617909155608086015160048601805490921690831617905560a085015160058501805460c088015160e08901516101008a0151949095166001600160a81b031990921691909117600160a01b60ff928316021761ffff60a81b1916600160a81b9482169490940260ff60b01b191693909317600160b01b93909216929092021790556101208401516006840155610140909301516007909201805460ff1916921515929092179091556000838152602092909252902054600114156120725733600090815260036020908152604082208054600181018255908352908220018290558851600491908a908690811061203957634e487b7160e01b600052603260045260246000fd5b6020908102919091018101516001600160a01b031682528181019290925260400160009081208054600181018255908252919020018190555b5050808061207f90613cb9565b915050611c4a565b5060408051838152600160208201527fc05dae71ad6ebf2680862ebed51b27e8ea99855a67cfc24e7a3e0212c34e5e2f910160405180910390a150506001600055505050565b600260005414156120f05760405162461bcd60e51b815260040161027590613b97565b600260005580518251146121165760405162461bcd60e51b815260040161027590613b41565b60008251116121375760405162461bcd60e51b815260040161027590613acb565b60005b825181101561033d5761219083828151811061216657634e487b7160e01b600052603260045260246000fd5b602002602001015160028484815181106106e357634e487b7160e01b600052603260045260246000fd5b8061219a81613cb9565b91505061213a565b600260005414156121c55760405162461bcd60e51b815260040161027590613b97565b600260005580518351146121eb5760405162461bcd60e51b815260040161027590613b41565b815183511461220c5760405162461bcd60e51b815260040161027590613af3565b60005b835181101561080c5761228d84828151811061223b57634e487b7160e01b600052603260045260246000fd5b602002602001015184838151811061226357634e487b7160e01b600052603260045260246000fd5b602002602001015160028585815181106107ed57634e487b7160e01b600052603260045260246000fd5b8061229781613cb9565b91505061220f565b600033846040516020016122b4929190613847565b60405160208183030381529060405280519060200120905060005b60008281526002602052604090205481101561287357600082815260026020526040902080548491908390811061231657634e487b7160e01b600052603260045260246000fd5b90600052602060002090600802016000015414801561237b5750600082815260026020526040902080548290811061235e57634e487b7160e01b600052603260045260246000fd5b600091825260209091206007600890920201015460ff1615156001145b156128615760008281526002602052604090208054339190839081106123b157634e487b7160e01b600052603260045260246000fd5b60009182526020909120600360089092020101546001600160a01b03161461241b5760405162461bcd60e51b815260206004820152601760248201527f596f7520617265206e6f742074686520636c69656e742e0000000000000000006044820152606401610275565b600082815260026020526040902080548591908390811061244c57634e487b7160e01b600052603260045260246000fd5b906000526020600020906008020160050160146101000a81548160ff021916908360ff16021790555060006125e86002600085815260200190815260200160002083815481106124ac57634e487b7160e01b600052603260045260246000fd5b906000526020600020906008020160405180610160016040529081600082015481526020016001820180546124e090613c7e565b80601f016020809104026020016040519081016040528092919081815260200182805461250c90613c7e565b80156125595780601f1061252e57610100808354040283529160200191612559565b820191906000526020600020905b81548152906001019060200180831161253c57829003601f168201915b50505091835250506002820154602082015260038201546001600160a01b0390811660408301526004830154811660608301526005830154908116608083015260ff600160a01b8204811660a0840152600160a81b8204811660c0840152600160b01b909104811660e083015260068301546101008301526007909201549091161515610120909101526130c3565b90508060ff166001141561273a57600083815260026020526040812080548490811061262457634e487b7160e01b600052603260045260246000fd5b906000526020600020906008020160070160006101000a81548160ff02191690831515021790555061269460026000858152602001908152602001600020838154811061268157634e487b7160e01b600052603260045260246000fd5b9060005260206000209060080201613127565b600083815260026020526040902080546127359190849081106126c757634e487b7160e01b600052603260045260246000fd5b906000526020600020906008020160040160009054906101000a90046001600160a01b031660026000868152602001908152602001600020848154811061271e57634e487b7160e01b600052603260045260246000fd5b9060005260206000209060080201600201546131af565b61285b565b8060ff166002141561285b57600083815260026020526040812080548490811061277457634e487b7160e01b600052603260045260246000fd5b906000526020600020906008020160070160006101000a81548160ff0219169083151502179055506127d160026000858152602001908152602001600020838154811061268157634e487b7160e01b600052603260045260246000fd5b6000838152600260205260409020805461285b91908490811061280457634e487b7160e01b600052603260045260246000fd5b906000526020600020906008020160030160009054906101000a90046001600160a01b031660026000868152602001908152602001600020848154811061271e57634e487b7160e01b600052603260045260246000fd5b50612873565b8061286b81613cb9565b9150506122cf565b5050505050565b6000833360405160200161288f929190613847565b60405160208183030381529060405280519060200120905060005b6000828152600260205260409020548110156128735760008281526002602052604090208054849190839081106128f157634e487b7160e01b600052603260045260246000fd5b9060005260206000209060080201600001541480156129565750600082815260026020526040902080548290811061293957634e487b7160e01b600052603260045260246000fd5b600091825260209091206007600890920201015460ff1615156001145b15612ce957600082815260026020526040902080543391908390811061298c57634e487b7160e01b600052603260045260246000fd5b60009182526020909120600460089092020101546001600160a01b0316146129f65760405162461bcd60e51b815260206004820152601760248201527f596f7520617265206e6f74207468652073656c6c65722e0000000000000000006044820152606401610275565b6000828152600260205260409020805485919083908110612a2757634e487b7160e01b600052603260045260246000fd5b906000526020600020906008020160050160156101000a81548160ff021916908360ff1602179055506000612a876002600085815260200190815260200160002083815481106124ac57634e487b7160e01b600052603260045260246000fd5b90508060ff1660011415612ac357600083815260026020526040812080548490811061262457634e487b7160e01b600052603260045260246000fd5b8060ff1660021415612b8d576000838152600260205260408120805484908110612afd57634e487b7160e01b600052603260045260246000fd5b906000526020600020906008020160070160006101000a81548160ff021916908315150217905550612b5a60026000858152602001908152602001600020838154811061268157634e487b7160e01b600052603260045260246000fd5b6000838152600260205260409020805461273591908490811061280457634e487b7160e01b600052603260045260246000fd5b6000838152600260205260409020805442919084908110612bbe57634e487b7160e01b600052603260045260246000fd5b906000526020600020906008020160060154108015612c2657506000838152600260205260409020805483908110612c0657634e487b7160e01b600052603260045260246000fd5b6000918252602090912060089091020160050154600160a01b900460ff16155b1561285b576000838152600260205260408120805484908110612c5957634e487b7160e01b600052603260045260246000fd5b906000526020600020906008020160070160006101000a81548160ff021916908315150217905550612cb660026000858152602001908152602001600020838154811061268157634e487b7160e01b600052603260045260246000fd5b6000838152600260205260409020805461285b9190849081106126c757634e487b7160e01b600052603260045260246000fd5b80612cf381613cb9565b9150506128aa565b60008484604051602001612d10929190613847565b60405160208183030381529060405280519060200120905060005b6000828152600260205260409020548110156130bb576000828152600260205260409020805484919083908110612d7257634e487b7160e01b600052603260045260246000fd5b906000526020600020906008020160000154148015612dd757506000828152600260205260409020805482908110612dba57634e487b7160e01b600052603260045260246000fd5b600091825260209091206007600890920201015460ff1615156001145b156130a9576000828152600260205260409020805433919083908110612e0d57634e487b7160e01b600052603260045260246000fd5b60009182526020909120600560089092020101546001600160a01b031614612e775760405162461bcd60e51b815260206004820152601b60248201527f596f7520617265206e6f74207468652061726269747261746f722e00000000006044820152606401610275565b6000828152600260205260409020805485919083908110612ea857634e487b7160e01b600052603260045260246000fd5b906000526020600020906008020160050160166101000a81548160ff021916908360ff1602179055506000612f086002600085815260200190815260200160002083815481106124ac57634e487b7160e01b600052603260045260246000fd5b90508060ff1660011415612fd9576000838152600260205260408120805484908110612f4457634e487b7160e01b600052603260045260246000fd5b906000526020600020906008020160070160006101000a81548160ff021916908315150217905550612fa160026000858152602001908152602001600020838154811061268157634e487b7160e01b600052603260045260246000fd5b60008381526002602052604090208054612fd49190849081106126c757634e487b7160e01b600052603260045260246000fd5b6130a3565b8060ff16600214156130a357600083815260026020526040812080548490811061301357634e487b7160e01b600052603260045260246000fd5b906000526020600020906008020160070160006101000a81548160ff02191690831515021790555061307060026000858152602001908152602001600020838154811061268157634e487b7160e01b600052603260045260246000fd5b600083815260026020526040902080546130a391908490811061280457634e487b7160e01b600052603260045260246000fd5b506130bb565b806130b381613cb9565b915050612d2b565b505050505050565b60008160e0015160ff168260c0015160ff1614156130e3575060c0015190565b81610100015160ff168260c0015160ff161415613102575060c0015190565b8160e0015160ff1682610100015160ff1614156131225750610100015190565b919050565b600381015460048201546005830154600284015460068501546007860154604051613193966001600160a01b03908116968116959081169460ff600160a81b8304811695600160a01b8404821695600160b01b909404821694929360018d019391921690602001613900565b60408051601f1981840301815291905280516020909101209055565b6001600160a01b0382166131fa5760405162461bcd60e51b81526020600482015260126024820152710416464726573732063616e277420626520360741b6044820152606401610275565b6000826001600160a01b03168260405160006040518083038185875af1925050503d8060008114613247576040519150601f19603f3d011682016040523d82523d6000602084013e61324c565b606091505b505090508060056040516020016132639190613997565b604051602081830303815290604052906132905760405162461bcd60e51b81526004016102759190613ab8565b50505050565b604080516101608101825260008082526060602083018190529282018190529181018290526080810182905260a0810182905260c0810182905260e081018290526101008101829052610120810182905261014081019190915290565b8280546132ff90613c7e565b90600052602060002090601f0160209004810192826133215760008555613367565b82601f1061333a57805160ff1916838001178555613367565b82800160010185558215613367579182015b8281111561336757825182559160200191906001019061334c565b50613373929150613377565b5090565b5b808211156133735760008155600101613378565b600082601f83011261339c578081fd5b813560206133b16133ac83613bff565b613bce565b80838252828201915082860187848660051b89010111156133d0578586fd5b855b858110156133f75781356133e581613d00565b845292840192908401906001016133d2565b5090979650505050505050565b600082601f830112613414578081fd5b813560206134246133ac83613bff565b80838252828201915082860187848660051b8901011115613443578586fd5b855b858110156133f757813584529284019290840190600101613445565b6000601f8381840112613472578182fd5b823560206134826133ac83613bff565b80838252828201915082870188848660051b8a010111156134a1578687fd5b865b8581101561353457813567ffffffffffffffff808211156134c257898afd5b818b0191508b603f8301126134d557898afd5b868201356040828211156134eb576134eb613cea565b6134fc828c01601f19168a01613bce565b92508183528d81838601011115613511578b8cfd5b818185018a85013750810187018a905285525092840192908401906001016134a3565b509098975050505050505050565b600080600060408486031215613556578283fd5b833561356181613d00565b9250602084013567ffffffffffffffff8082111561357d578384fd5b818601915086601f830112613590578384fd5b81358181111561359e578485fd5b8760208285010111156135af578485fd5b6020830194508093505050509250925092565b6000806000606084860312156135d6578283fd5b833567ffffffffffffffff808211156135ed578485fd5b6135f98783880161338c565b9450602086013591508082111561360e578384fd5b61361a8783880161338c565b9350604086013591508082111561362f578283fd5b5061363c86828701613404565b9150509250925092565b60008060408385031215613658578182fd5b823567ffffffffffffffff8082111561366f578384fd5b61367b8683870161338c565b93506020850135915080821115613690578283fd5b5061369d85828601613404565b9150509250929050565b6000806000606084860312156136bb578283fd5b833567ffffffffffffffff808211156136d2578485fd5b818601915086601f8301126136e5578485fd5b813560206136f56133ac83613bff565b8083825282820191508286018b848660051b890101111561371457898afd5b8996505b8487101561373f57803561372b81613d00565b835260019690960195918301918301613718565b5097505087013592505080821115613755578384fd5b61376187838801613404565b93506040860135915080821115613776578283fd5b5061363c86828701613461565b6000815180845261379b816020860160208601613c52565b601f01601f19169290920160200192915050565b8054600090600181811c90808316806137c957607f831692505b60208084108214156137e957634e487b7160e01b86526022600452602486fd5b8180156137fd576001811461380e5761383b565b60ff1986168952848901965061383b565b60008881526020902060005b868110156138335781548b82015290850190830161381a565b505084890196505b50505050505092915050565b6bffffffffffffffffffffffff19606093841b811682529190921b16601482015260280190565b6bffffffffffffffffffffffff1960608c811b821683528b811b821660148401528a901b1660288201526001600160f81b031960f889811b8216603c84015288811b8216603d84015287901b16603e820152600085603f83015284516138db81605f850160208901613c52565b909101605f81019390935250151560f81b607f82015260800198975050505050505050565b60006bffffffffffffffffffffffff19808d60601b168352808c60601b166014840152808b60601b1660288401525060ff60f81b808a60f81b16603c840152808960f81b16603d840152808860f81b16603e8401525085603f830152613969605f8301866137af565b9384525050151560f81b602082015260210198975050505050505050565b8183823760009101908152919050565b6e02330b4b632b2103a379039b2b7321608d1b815260006139bb600f8301846137af565b9392505050565b60006020808301818452808551808352604092508286019150828160051b870101848801865b8381101561353457603f1989840301855281516101608151855288820151818a870152613a1782870182613783565b9150508782015188860152606080830151613a3c828801826001600160a01b03169052565b50506080828101516001600160a01b039081169187019190915260a0808401519091169086015260c08083015160ff9081169187019190915260e08084015182169087015261010080840151909116908601526101208083015190860152610140918201511515919094015293860193908601906001016139e8565b6020815260006139bb6020830184613783565b6020808252600e908201526d2737903830b930b6b2ba32b9399760911b604082015260600190565b6020808252602e908201527f436c69656e7473206c656e677468206d75737420626520657175616c20746f2060408201526d0e6cad8d8cae4e640d8cadccee8d60931b606082015260800190565b60208082526036908201527f416464726573736573206c656e677468206d75737420626520657175616c2074604082015275379037b93232b9103430b9b432b9903632b733ba341760511b606082015260800190565b6020808252601f908201527f5265656e7472616e637947756172643a207265656e7472616e742063616c6c00604082015260600190565b604051601f8201601f1916810167ffffffffffffffff81118282101715613bf757613bf7613cea565b604052919050565b600067ffffffffffffffff821115613c1957613c19613cea565b5060051b60200190565b60008219821115613c3657613c36613cd4565b500190565b600082821015613c4d57613c4d613cd4565b500390565b60005b83811015613c6d578181015183820152602001613c55565b838111156132905750506000910152565b600181811c90821680613c9257607f821691505b60208210811415613cb357634e487b7160e01b600052602260045260246000fd5b50919050565b6000600019821415613ccd57613ccd613cd4565b5060010190565b634e487b7160e01b600052601160045260246000fd5b634e487b7160e01b600052604160045260246000fd5b6001600160a01b0381168114613d1557600080fd5b5056fea26469706673582212205f70af0a891d9c858c32650e491188a28832e2e47ebfc33118d90fd42fd76c0564736f6c63430008040033",
  "linkReferences": {},
  "deployedLinkReferences": {}
}