{
  "_format": "hh-sol-artifact-1",
  "contractName": "ShopsBulkTransactions",
  "sourceName": "contracts/ShopsBulkTransactions.sol",
  "abi": [
    {
      "inputs": [
        {
          "internalType": "string",
          "name": "_symbol",
          "type": "string"
        },
        {
          "internalType": "address",
          "name": "arbitrator",
          "type": "address"
        }
      ],
      "stateMutability": "nonpayable",
      "type": "constructor"
    },
    {
      "anonymous": false,
      "inputs": [
        {
          "indexed": false,
          "internalType": "uint256",
          "name": "_amount",
          "type": "uint256"
        },
        {
          "indexed": false,
          "internalType": "bool",
          "name": "_status",
          "type": "bool"
        }
      ],
      "name": "MultiTransfer",
      "type": "event"
    },
    {
      "inputs": [
        {
          "internalType": "address[]",
          "name": "_clients",
          "type": "address[]"
        },
        {
          "internalType": "address[]",
          "name": "_sellers",
          "type": "address[]"
        },
        {
          "internalType": "bytes32[]",
          "name": "_orderHashes",
          "type": "bytes32[]"
        }
      ],
      "name": "arbitratorProccessTransaction",
      "outputs": [],
      "stateMutability": "nonpayable",
      "type": "function"
    },
    {
      "inputs": [
        {
          "internalType": "address[]",
          "name": "_clients",
          "type": "address[]"
        },
        {
          "internalType": "address[]",
          "name": "_sellers",
          "type": "address[]"
        },
        {
          "internalType": "bytes32[]",
          "name": "_orderHashes",
          "type": "bytes32[]"
        }
      ],
      "name": "arbitratorRevertTransaction",
      "outputs": [],
      "stateMutability": "nonpayable",
      "type": "function"
    },
    {
      "inputs": [
        {
          "internalType": "address",
          "name": "seller",
          "type": "address"
        },
        {
          "internalType": "string",
          "name": "productHash",
          "type": "string"
        }
      ],
      "name": "checkProductOrders",
      "outputs": [
        {
          "internalType": "uint256",
          "name": "",
          "type": "uint256"
        }
      ],
      "stateMutability": "view",
      "type": "function"
    },
    {
      "inputs": [],
      "name": "clientCheckActiveOrders",
      "outputs": [
        {
          "components": [
            {
              "internalType": "bytes32",
              "name": "orderHash",
              "type": "bytes32"
            },
            {
              "internalType": "string",
              "name": "productHash",
              "type": "string"
            },
            {
              "internalType": "uint256",
              "name": "value",
              "type": "uint256"
            },
            {
              "internalType": "address",
              "name": "client",
              "type": "address"
            },
            {
              "internalType": "address",
              "name": "seller",
              "type": "address"
            },
            {
              "internalType": "address",
              "name": "arbitrator",
              "type": "address"
            },
            {
              "internalType": "uint8",
              "name": "clientDecision",
              "type": "uint8"
            },
            {
              "internalType": "uint8",
              "name": "sellerDecision",
              "type": "uint8"
            },
            {
              "internalType": "uint8",
              "name": "arbitratorDecision",
              "type": "uint8"
            },
            {
              "internalType": "uint256",
              "name": "deadline",
              "type": "uint256"
            },
            {
              "internalType": "bool",
              "name": "active",
              "type": "bool"
            }
          ],
          "internalType": "struct ShopsBulkTransactions.Order[]",
          "name": "",
          "type": "tuple[]"
        }
      ],
      "stateMutability": "view",
      "type": "function"
    },
    {
      "inputs": [],
      "name": "clientCheckOrders",
      "outputs": [
        {
          "components": [
            {
              "internalType": "bytes32",
              "name": "orderHash",
              "type": "bytes32"
            },
            {
              "internalType": "string",
              "name": "productHash",
              "type": "string"
            },
            {
              "internalType": "uint256",
              "name": "value",
              "type": "uint256"
            },
            {
              "internalType": "address",
              "name": "client",
              "type": "address"
            },
            {
              "internalType": "address",
              "name": "seller",
              "type": "address"
            },
            {
              "internalType": "address",
              "name": "arbitrator",
              "type": "address"
            },
            {
              "internalType": "uint8",
              "name": "clientDecision",
              "type": "uint8"
            },
            {
              "internalType": "uint8",
              "name": "sellerDecision",
              "type": "uint8"
            },
            {
              "internalType": "uint8",
              "name": "arbitratorDecision",
              "type": "uint8"
            },
            {
              "internalType": "uint256",
              "name": "deadline",
              "type": "uint256"
            },
            {
              "internalType": "bool",
              "name": "active",
              "type": "bool"
            }
          ],
          "internalType": "struct ShopsBulkTransactions.Order[]",
          "name": "",
          "type": "tuple[]"
        }
      ],
      "stateMutability": "view",
      "type": "function"
    },
    {
      "inputs": [
        {
          "internalType": "address[]",
          "name": "_sellers",
          "type": "address[]"
        },
        {
          "internalType": "bytes32[]",
          "name": "_orderHashes",
          "type": "bytes32[]"
        }
      ],
      "name": "clientProccessTransaction",
      "outputs": [],
      "stateMutability": "nonpayable",
      "type": "function"
    },
    {
      "inputs": [
        {
          "internalType": "address[]",
          "name": "_sellers",
          "type": "address[]"
        },
        {
          "internalType": "bytes32[]",
          "name": "_orderHashes",
          "type": "bytes32[]"
        }
      ],
      "name": "clientRevertTransaction",
      "outputs": [],
      "stateMutability": "nonpayable",
      "type": "function"
    },
    {
      "inputs": [
        {
          "internalType": "address payable[]",
          "name": "_addresses",
          "type": "address[]"
        },
        {
          "internalType": "uint256[]",
          "name": "_amounts",
          "type": "uint256[]"
        },
        {
          "internalType": "string[]",
          "name": "_productHashes",
          "type": "string[]"
        }
      ],
      "name": "multiTransfer",
      "outputs": [],
      "stateMutability": "payable",
      "type": "function"
    },
    {
      "inputs": [],
      "name": "sellerCheckActiveOrders",
      "outputs": [
        {
          "components": [
            {
              "internalType": "bytes32",
              "name": "orderHash",
              "type": "bytes32"
            },
            {
              "internalType": "string",
              "name": "productHash",
              "type": "string"
            },
            {
              "internalType": "uint256",
              "name": "value",
              "type": "uint256"
            },
            {
              "internalType": "address",
              "name": "client",
              "type": "address"
            },
            {
              "internalType": "address",
              "name": "seller",
              "type": "address"
            },
            {
              "internalType": "address",
              "name": "arbitrator",
              "type": "address"
            },
            {
              "internalType": "uint8",
              "name": "clientDecision",
              "type": "uint8"
            },
            {
              "internalType": "uint8",
              "name": "sellerDecision",
              "type": "uint8"
            },
            {
              "internalType": "uint8",
              "name": "arbitratorDecision",
              "type": "uint8"
            },
            {
              "internalType": "uint256",
              "name": "deadline",
              "type": "uint256"
            },
            {
              "internalType": "bool",
              "name": "active",
              "type": "bool"
            }
          ],
          "internalType": "struct ShopsBulkTransactions.Order[]",
          "name": "",
          "type": "tuple[]"
        }
      ],
      "stateMutability": "view",
      "type": "function"
    },
    {
      "inputs": [],
      "name": "sellerCheckOrders",
      "outputs": [
        {
          "components": [
            {
              "internalType": "bytes32",
              "name": "orderHash",
              "type": "bytes32"
            },
            {
              "internalType": "string",
              "name": "productHash",
              "type": "string"
            },
            {
              "internalType": "uint256",
              "name": "value",
              "type": "uint256"
            },
            {
              "internalType": "address",
              "name": "client",
              "type": "address"
            },
            {
              "internalType": "address",
              "name": "seller",
              "type": "address"
            },
            {
              "internalType": "address",
              "name": "arbitrator",
              "type": "address"
            },
            {
              "internalType": "uint8",
              "name": "clientDecision",
              "type": "uint8"
            },
            {
              "internalType": "uint8",
              "name": "sellerDecision",
              "type": "uint8"
            },
            {
              "internalType": "uint8",
              "name": "arbitratorDecision",
              "type": "uint8"
            },
            {
              "internalType": "uint256",
              "name": "deadline",
              "type": "uint256"
            },
            {
              "internalType": "bool",
              "name": "active",
              "type": "bool"
            }
          ],
          "internalType": "struct ShopsBulkTransactions.Order[]",
          "name": "",
          "type": "tuple[]"
        }
      ],
      "stateMutability": "view",
      "type": "function"
    },
    {
      "inputs": [
        {
          "internalType": "address[]",
          "name": "_clients",
          "type": "address[]"
        },
        {
          "internalType": "bytes32[]",
          "name": "_orderHashes",
          "type": "bytes32[]"
        }
      ],
      "name": "sellerProccessTransaction",
      "outputs": [],
      "stateMutability": "nonpayable",
      "type": "function"
    },
    {
      "inputs": [
        {
          "internalType": "address[]",
          "name": "_clients",
          "type": "address[]"
        },
        {
          "internalType": "bytes32[]",
          "name": "_orderHashes",
          "type": "bytes32[]"
        }
      ],
      "name": "sellerRevertTransaction",
      "outputs": [],
      "stateMutability": "nonpayable",
      "type": "function"
    },
    {
      "inputs": [],
      "name": "symbol",
      "outputs": [
        {
          "internalType": "string",
          "name": "",
          "type": "string"
        }
      ],
      "stateMutability": "view",
      "type": "function"
    }
  ],
  "bytecode": "0x60806040523480156200001157600080fd5b5060405162005d7f38038062005d7f833981016040819052620000349162000139565b600160005581516200004e90600590602085019062000076565b50600180546001600160a01b0319166001600160a01b03929092169190911790555062000277565b828054620000849062000224565b90600052602060002090601f016020900481019282620000a85760008555620000f3565b82601f10620000c357805160ff1916838001178555620000f3565b82800160010185558215620000f3579182015b82811115620000f3578251825591602001919060010190620000d6565b506200010192915062000105565b5090565b5b8082111562000101576000815560010162000106565b80516001600160a01b03811681146200013457600080fd5b919050565b600080604083850312156200014c578182fd5b82516001600160401b038082111562000163578384fd5b818501915085601f83011262000177578384fd5b8151818111156200018c576200018c62000261565b604051601f8201601f19908116603f01168101908382118183101715620001b757620001b762000261565b81604052828152602093508884848701011115620001d3578687fd5b8691505b82821015620001f65784820184015181830185015290830190620001d7565b828211156200020757868484830101525b9550620002199150508582016200011c565b925050509250929050565b600181811c908216806200023957607f821691505b602082108114156200025b57634e487b7160e01b600052602260045260246000fd5b50919050565b634e487b7160e01b600052604160045260246000fd5b615af880620002876000396000f3fe6080604052600436106100c25760003560e01c8063745715b51161007f57806398feff331161005957806398feff33146101ea578063d760a5a4146101ff578063f24baeaa14610212578063fcf8a0c01461023257600080fd5b8063745715b5146101935780637bcebb16146101b357806395d89b41146101c857600080fd5b80630955bff5146100c757806321a598de146100e95780633acee9bc1461011c578063400b64031461013c5780636749cf5b1461015c578063697b81081461017e575b600080fd5b3480156100d357600080fd5b506100e76100e23660046153f0565b610252565b005b3480156100f557600080fd5b506101096101043660046152ec565b610347565b6040519081526020015b60405180910390f35b34801561012857600080fd5b506100e76101373660046153f0565b610620565b34801561014857600080fd5b506100e761015736600461536c565b610702565b34801561016857600080fd5b50610171610817565b604051610113919061576c565b34801561018a57600080fd5b50610171610bab565b34801561019f57600080fd5b506100e76101ae3660046153f0565b61113d565b3480156101bf57600080fd5b50610171611212565b3480156101d457600080fd5b506101dd61159c565b6040516101139190615862565b3480156101f657600080fd5b5061017161162a565b6100e761020d366004615451565b611bb3565b34801561021e57600080fd5b506100e761022d3660046153f0565b6120cd565b34801561023e57600080fd5b506100e761024d36600461536c565b6121a2565b6002600054141561027e5760405162461bcd60e51b815260040161027590615941565b60405180910390fd5b600260005580518251146102a45760405162461bcd60e51b8152600401610275906158eb565b60008251116102c55760405162461bcd60e51b815260040161027590615875565b60005b825181101561033d5761032b8382815181106102f457634e487b7160e01b600052603260045260246000fd5b6020026020010151600184848151811061031e57634e487b7160e01b600052603260045260246000fd5b602002602001015161229f565b8061033581615a63565b9150506102c8565b5050600160005550565b6001600160a01b03831660009081526004602090815260408083208054825181850281018501909352808352849384939291908301828280156103a957602002820191906000526020600020905b815481526020019060010190808311610395575b505050505090506000805b8251811015610614576000600260008584815181106103e357634e487b7160e01b600052603260045260246000fd5b60200260200101518152602001908152602001600020805480602002602001604051908101604052809291908181526020016000905b8282101561056e5783829060005260206000209060080201604051806101600160405290816000820154815260200160018201805461045790615a28565b80601f016020809104026020016040519081016040528092919081815260200182805461048390615a28565b80156104d05780601f106104a5576101008083540402835291602001916104d0565b820191906000526020600020905b8154815290600101906020018083116104b357829003601f168201915b5050509183525050600282015460208083019190915260038301546001600160a01b0390811660408401526004840154811660608401526005840154908116608084015260ff600160a01b8204811660a0850152600160a81b8204811660c0850152600160b01b909104811660e084015260068401546101008401526007909301549092161515610120909101529082526001929092019101610419565b50505050905060005b81518110156105ff578888604051610590929190615731565b60405180910390208282815181106105b857634e487b7160e01b600052603260045260246000fd5b6020026020010151602001518051906020012014156105df57856105db81615a63565b9650505b836105e981615a63565b94505080806105f790615a63565b915050610577565b5050808061060c90615a63565b9150506103b4565b50919695505050505050565b600260005414156106435760405162461bcd60e51b815260040161027590615941565b600260005580518251146106695760405162461bcd60e51b8152600401610275906158eb565b600082511161068a5760405162461bcd60e51b815260040161027590615875565b60005b825181101561033d576106f08382815181106106b957634e487b7160e01b600052603260045260246000fd5b602002602001015160018484815181106106e357634e487b7160e01b600052603260045260246000fd5b602002602001015161327e565b806106fa81615a63565b91505061068d565b600260005414156107255760405162461bcd60e51b815260040161027590615941565b6002600055805183511461074b5760405162461bcd60e51b8152600401610275906158eb565b815183511461076c5760405162461bcd60e51b81526004016102759061589d565b60005b835181101561080c576107fa84828151811061079b57634e487b7160e01b600052603260045260246000fd5b60200260200101518483815181106107c357634e487b7160e01b600052603260045260246000fd5b602002602001015160018585815181106107ed57634e487b7160e01b600052603260045260246000fd5b6020026020010151614116565b8061080481615a63565b91505061076f565b505060016000555050565b336000908152600360209081526040808320805482518185028101850190935280835260609493849392919083018282801561087257602002820191906000526020600020905b81548152602001906001019080831161085e575b5050505050905060005b81518110156108e257600260008383815181106108a957634e487b7160e01b600052603260045260246000fd5b6020026020010151815260200190815260200160002080549050836108ce91906159cd565b9250806108da81615a63565b91505061087c565b5060008267ffffffffffffffff81111561090c57634e487b7160e01b600052604160045260246000fd5b60405190808252806020026020018201604052801561094557816020015b610932615040565b81526020019060019003908161092a5790505b5090506000805b8351811015610ba15760006002600086848151811061097b57634e487b7160e01b600052603260045260246000fd5b60200260200101518152602001908152602001600020805480602002602001604051908101604052809291908181526020016000905b82821015610b06578382906000526020600020906008020160405180610160016040529081600082015481526020016001820180546109ef90615a28565b80601f0160208091040260200160405190810160405280929190818152602001828054610a1b90615a28565b8015610a685780601f10610a3d57610100808354040283529160200191610a68565b820191906000526020600020905b815481529060010190602001808311610a4b57829003601f168201915b5050509183525050600282015460208083019190915260038301546001600160a01b0390811660408401526004840154811660608401526005840154908116608084015260ff600160a01b8204811660a0850152600160a81b8204811660c0850152600160b01b909104811660e0840152600684015461010084015260079093015490921615156101209091015290825260019290920191016109b1565b50505050905060005b8151811015610b8c57818181518110610b3857634e487b7160e01b600052603260045260246000fd5b6020026020010151858581518110610b6057634e487b7160e01b600052603260045260246000fd5b60200260200101819052508380610b7690615a63565b9450508080610b8490615a63565b915050610b0f565b50508080610b9990615a63565b91505061094c565b5090949350505050565b3360009081526004602090815260408083208054825181850281018501909352808352606094938493929190830182828015610c0657602002820191906000526020600020905b815481526020019060010190808311610bf2575b505050505090506000805b8251811015610e4457600060026000858481518110610c4057634e487b7160e01b600052603260045260246000fd5b60200260200101518152602001908152602001600020805480602002602001604051908101604052809291908181526020016000905b82821015610dcb57838290600052602060002090600802016040518061016001604052908160008201548152602001600182018054610cb490615a28565b80601f0160208091040260200160405190810160405280929190818152602001828054610ce090615a28565b8015610d2d5780601f10610d0257610100808354040283529160200191610d2d565b820191906000526020600020905b815481529060010190602001808311610d1057829003601f168201915b5050509183525050600282015460208083019190915260038301546001600160a01b0390811660408401526004840154811660608401526005840154908116608084015260ff600160a01b8204811660a0850152600160a81b8204811660c0850152600160b01b909104811660e084015260068401546101008401526007909301549092161515610120909101529082526001929092019101610c76565b50505050905060005b8151811015610e2f57818181518110610dfd57634e487b7160e01b600052603260045260246000fd5b6020026020010151610140015115610e1d5785610e1981615a63565b9650505b80610e2781615a63565b915050610dd4565b50508080610e3c90615a63565b915050610c11565b5060008367ffffffffffffffff811115610e6e57634e487b7160e01b600052604160045260246000fd5b604051908082528060200260200182016040528015610ea757816020015b610e94615040565b815260200190600190039081610e8c5790505b50905060005b835181101561113457600060026000868481518110610edc57634e487b7160e01b600052603260045260246000fd5b60200260200101518152602001908152602001600020805480602002602001604051908101604052809291908181526020016000905b8282101561106757838290600052602060002090600802016040518061016001604052908160008201548152602001600182018054610f5090615a28565b80601f0160208091040260200160405190810160405280929190818152602001828054610f7c90615a28565b8015610fc95780601f10610f9e57610100808354040283529160200191610fc9565b820191906000526020600020905b815481529060010190602001808311610fac57829003601f168201915b5050509183525050600282015460208083019190915260038301546001600160a01b0390811660408401526004840154811660608401526005840154908116608084015260ff600160a01b8204811660a0850152600160a81b8204811660c0850152600160b01b909104811660e084015260068401546101008401526007909301549092161515610120909101529082526001929092019101610f12565b50505050905060005b815181101561111f5781818151811061109957634e487b7160e01b600052603260045260246000fd5b602002602001015161014001511561110d578181815181106110cb57634e487b7160e01b600052603260045260246000fd5b60200260200101518486815181106110f357634e487b7160e01b600052603260045260246000fd5b6020026020010181905250848061110990615a63565b9550505b8061111781615a63565b915050611070565b5050808061112c90615a63565b915050610ead565b50949350505050565b600260005414156111605760405162461bcd60e51b815260040161027590615941565b600260005580518251146111865760405162461bcd60e51b8152600401610275906158eb565b60008251116111a75760405162461bcd60e51b815260040161027590615875565b60005b825181101561033d576112008382815181106111d657634e487b7160e01b600052603260045260246000fd5b6020026020010151600284848151811061031e57634e487b7160e01b600052603260045260246000fd5b8061120a81615a63565b9150506111aa565b336000908152600460209081526040808320805482518185028101850190935280835260609493849392919083018282801561126d57602002820191906000526020600020905b815481526020019060010190808311611259575b5050505050905060005b81518110156112dd57600260008383815181106112a457634e487b7160e01b600052603260045260246000fd5b6020026020010151815260200190815260200160002080549050836112c991906159cd565b9250806112d581615a63565b915050611277565b5060008267ffffffffffffffff81111561130757634e487b7160e01b600052604160045260246000fd5b60405190808252806020026020018201604052801561134057816020015b61132d615040565b8152602001906001900390816113255790505b5090506000805b8351811015610ba15760006002600086848151811061137657634e487b7160e01b600052603260045260246000fd5b60200260200101518152602001908152602001600020805480602002602001604051908101604052809291908181526020016000905b82821015611501578382906000526020600020906008020160405180610160016040529081600082015481526020016001820180546113ea90615a28565b80601f016020809104026020016040519081016040528092919081815260200182805461141690615a28565b80156114635780601f1061143857610100808354040283529160200191611463565b820191906000526020600020905b81548152906001019060200180831161144657829003601f168201915b5050509183525050600282015460208083019190915260038301546001600160a01b0390811660408401526004840154811660608401526005840154908116608084015260ff600160a01b8204811660a0850152600160a81b8204811660c0850152600160b01b909104811660e0840152600684015461010084015260079093015490921615156101209091015290825260019290920191016113ac565b50505050905060005b81518110156115875781818151811061153357634e487b7160e01b600052603260045260246000fd5b602002602001015185858151811061155b57634e487b7160e01b600052603260045260246000fd5b6020026020010181905250838061157190615a63565b945050808061157f90615a63565b91505061150a565b5050808061159490615a63565b915050611347565b600580546115a990615a28565b80601f01602080910402602001604051908101604052809291908181526020018280546115d590615a28565b80156116225780601f106115f757610100808354040283529160200191611622565b820191906000526020600020905b81548152906001019060200180831161160557829003601f168201915b505050505081565b336000908152600360209081526040808320805482518185028101850190935280835260609493849392919083018282801561168557602002820191906000526020600020905b815481526020019060010190808311611671575b505050505090506000805b82518110156118c3576000600260008584815181106116bf57634e487b7160e01b600052603260045260246000fd5b60200260200101518152602001908152602001600020805480602002602001604051908101604052809291908181526020016000905b8282101561184a5783829060005260206000209060080201604051806101600160405290816000820154815260200160018201805461173390615a28565b80601f016020809104026020016040519081016040528092919081815260200182805461175f90615a28565b80156117ac5780601f10611781576101008083540402835291602001916117ac565b820191906000526020600020905b81548152906001019060200180831161178f57829003601f168201915b5050509183525050600282015460208083019190915260038301546001600160a01b0390811660408401526004840154811660608401526005840154908116608084015260ff600160a01b8204811660a0850152600160a81b8204811660c0850152600160b01b909104811660e0840152600684015461010084015260079093015490921615156101209091015290825260019290920191016116f5565b50505050905060005b81518110156118ae5781818151811061187c57634e487b7160e01b600052603260045260246000fd5b602002602001015161014001511561189c578561189881615a63565b9650505b806118a681615a63565b915050611853565b505080806118bb90615a63565b915050611690565b5060008367ffffffffffffffff8111156118ed57634e487b7160e01b600052604160045260246000fd5b60405190808252806020026020018201604052801561192657816020015b611913615040565b81526020019060019003908161190b5790505b50905060005b83518110156111345760006002600086848151811061195b57634e487b7160e01b600052603260045260246000fd5b60200260200101518152602001908152602001600020805480602002602001604051908101604052809291908181526020016000905b82821015611ae6578382906000526020600020906008020160405180610160016040529081600082015481526020016001820180546119cf90615a28565b80601f01602080910402602001604051908101604052809291908181526020018280546119fb90615a28565b8015611a485780601f10611a1d57610100808354040283529160200191611a48565b820191906000526020600020905b815481529060010190602001808311611a2b57829003601f168201915b5050509183525050600282015460208083019190915260038301546001600160a01b0390811660408401526004840154811660608401526005840154908116608084015260ff600160a01b8204811660a0850152600160a81b8204811660c0850152600160b01b909104811660e084015260068401546101008401526007909301549092161515610120909101529082526001929092019101611991565b50505050905060005b8151811015611b9e57818181518110611b1857634e487b7160e01b600052603260045260246000fd5b6020026020010151610140015115611b8c57818181518110611b4a57634e487b7160e01b600052603260045260246000fd5b6020026020010151848681518110611b7257634e487b7160e01b600052603260045260246000fd5b60200260200101819052508480611b8890615a63565b9550505b80611b9681615a63565b915050611aef565b50508080611bab90615a63565b91505061192c565b60026000541415611bd65760405162461bcd60e51b815260040161027590615941565b60026000558151835114611c455760405162461bcd60e51b815260206004820152603060248201527f416464726573736573206c656e677468206d75737420626520657175616c207460448201526f0de40c2dadeeadce8e640d8cadccee8d60831b6064820152608401610275565b348060005b855181101561208757848181518110611c7357634e487b7160e01b600052603260045260246000fd5b6020026020010151821015611ce05760405162461bcd60e51b815260206004820152602d60248201527f546f74616c20616d6f756e74206973206c657373207468616e2063757272656e60448201526c1d081cd95b9908185b5bdd5b9d609a1b6064820152608401610275565b848181518110611d0057634e487b7160e01b600052603260045260246000fd5b602002602001015182611d1391906159e5565b9150611d1d615040565b3360608201528651879083908110611d4557634e487b7160e01b600052603260045260246000fd5b60209081029190910101516001600160a01b0390811660808301526001805490911660a083015260e0820152600060c082018190526101008201528551869083908110611da257634e487b7160e01b600052603260045260246000fd5b6020026020010151816040018181525050848281518110611dd357634e487b7160e01b600052603260045260246000fd5b602002602001015181602001819052504262278d00611df291906159cd565b6101208201819052600161014083018190526060830151608084015160a085015160e086015160c08701516101008801516040808a01516020808c01519251611e4a9b999a9899979896979596949592949101615618565b60405160208183030381529060405280519060200120816000018181525050600033888481518110611e8c57634e487b7160e01b600052603260045260246000fd5b6020026020010151604051602001611ea59291906155f1565b60408051601f1981840301815291815281516020928301206000818152600284529182208054600181810183559184529284902086516008909402019283558584015180519295508694611eff939285019291019061509d565b5060408281015160028381019190915560608401516003840180546001600160a01b03199081166001600160a01b0393841617909155608086015160048601805490921690831617905560a085015160058501805460c088015160e08901516101008a0151949095166001600160a81b031990921691909117600160a01b60ff928316021761ffff60a81b1916600160a81b9482169490940260ff60b01b191693909317600160b01b93909216929092021790556101208401516006840155610140909301516007909201805460ff1916921515929092179091556000838152602092909252902054600114156120725733600090815260036020908152604082208054600181018255908352908220018290558851600491908a908690811061203957634e487b7160e01b600052603260045260246000fd5b6020908102919091018101516001600160a01b031682528181019290925260400160009081208054600181018255908252919020018190555b5050808061207f90615a63565b915050611c4a565b5060408051838152600160208201527fc05dae71ad6ebf2680862ebed51b27e8ea99855a67cfc24e7a3e0212c34e5e2f910160405180910390a150506001600055505050565b600260005414156120f05760405162461bcd60e51b815260040161027590615941565b600260005580518251146121165760405162461bcd60e51b8152600401610275906158eb565b60008251116121375760405162461bcd60e51b815260040161027590615875565b60005b825181101561033d5761219083828151811061216657634e487b7160e01b600052603260045260246000fd5b602002602001015160028484815181106106e357634e487b7160e01b600052603260045260246000fd5b8061219a81615a63565b91505061213a565b600260005414156121c55760405162461bcd60e51b815260040161027590615941565b600260005580518351146121eb5760405162461bcd60e51b8152600401610275906158eb565b815183511461220c5760405162461bcd60e51b81526004016102759061589d565b60005b835181101561080c5761228d84828151811061223b57634e487b7160e01b600052603260045260246000fd5b602002602001015184838151811061226357634e487b7160e01b600052603260045260246000fd5b602002602001015160028585815181106107ed57634e487b7160e01b600052603260045260246000fd5b8061229781615a63565b91505061220f565b600033846040516020016122b49291906155f1565b60405160208183030381529060405280519060200120905060005b60008281526002602052604090205481101561327757600082815260026020526040902080548491908390811061231657634e487b7160e01b600052603260045260246000fd5b90600052602060002090600802016000015414801561237b5750600082815260026020526040902080548290811061235e57634e487b7160e01b600052603260045260246000fd5b600091825260209091206007600890920201015460ff1615156001145b156132655760008281526002602052604090208054339190839081106123b157634e487b7160e01b600052603260045260246000fd5b60009182526020909120600360089092020101546001600160a01b03161461241b5760405162461bcd60e51b815260206004820152601760248201527f596f7520617265206e6f742074686520636c69656e742e0000000000000000006044820152606401610275565b600082815260026020526040902080548591908390811061244c57634e487b7160e01b600052603260045260246000fd5b906000526020600020906008020160050160146101000a81548160ff021916908360ff1602179055506002600083815260200190815260200160002081815481106124a757634e487b7160e01b600052603260045260246000fd5b906000526020600020906008020160030160009054906101000a90046001600160a01b03166002600084815260200190815260200160002082815481106124fe57634e487b7160e01b600052603260045260246000fd5b906000526020600020906008020160040160009054906101000a90046001600160a01b031660026000858152602001908152602001600020838154811061255557634e487b7160e01b600052603260045260246000fd5b906000526020600020906008020160050160009054906101000a90046001600160a01b03166002600086815260200190815260200160002084815481106125ac57634e487b7160e01b600052603260045260246000fd5b906000526020600020906008020160050160159054906101000a900460ff166002600087815260200190815260200160002085815481106125fd57634e487b7160e01b600052603260045260246000fd5b906000526020600020906008020160050160149054906101000a900460ff1660026000888152602001908152602001600020868154811061264e57634e487b7160e01b600052603260045260246000fd5b906000526020600020906008020160050160169054906101000a900460ff1660026000898152602001908152602001600020878154811061269f57634e487b7160e01b600052603260045260246000fd5b906000526020600020906008020160020154600260008a815260200190815260200160002088815481106126e357634e487b7160e01b600052603260045260246000fd5b9060005260206000209060080201600101600260008b8152602001908152602001600020898154811061272657634e487b7160e01b600052603260045260246000fd5b906000526020600020906008020160060154600260008c81526020019081526020016000208a8154811061276a57634e487b7160e01b600052603260045260246000fd5b60009182526020918290206007600890920201015460405161279b9b9a999897969594939260ff90921691016156aa565b60408051601f1981840301815291815281516020928301206000858152600290935291208054839081106127df57634e487b7160e01b600052603260045260246000fd5b906000526020600020906008020160000181905550600061296760026000858152602001908152602001600020838154811061282b57634e487b7160e01b600052603260045260246000fd5b9060005260206000209060080201604051806101600160405290816000820154815260200160018201805461285f90615a28565b80601f016020809104026020016040519081016040528092919081815260200182805461288b90615a28565b80156128d85780601f106128ad576101008083540402835291602001916128d8565b820191906000526020600020905b8154815290600101906020018083116128bb57829003601f168201915b50505091835250506002820154602082015260038201546001600160a01b0390811660408301526004830154811660608301526005830154908116608083015260ff600160a01b8204811660a0840152600160a81b8204811660c0840152600160b01b909104811660e08301526006830154610100830152600790920154909116151561012090910152614ef5565b90508060ff1660011415612df25760008381526002602052604081208054849081106129a357634e487b7160e01b600052603260045260246000fd5b906000526020600020906008020160070160006101000a81548160ff0219169083151502179055506002600084815260200190815260200160002082815481106129fd57634e487b7160e01b600052603260045260246000fd5b906000526020600020906008020160030160009054906101000a90046001600160a01b0316600260008581526020019081526020016000208381548110612a5457634e487b7160e01b600052603260045260246000fd5b906000526020600020906008020160040160009054906101000a90046001600160a01b0316600260008681526020019081526020016000208481548110612aab57634e487b7160e01b600052603260045260246000fd5b906000526020600020906008020160050160009054906101000a90046001600160a01b0316600260008781526020019081526020016000208581548110612b0257634e487b7160e01b600052603260045260246000fd5b906000526020600020906008020160050160159054906101000a900460ff16600260008881526020019081526020016000208681548110612b5357634e487b7160e01b600052603260045260246000fd5b906000526020600020906008020160050160149054906101000a900460ff16600260008981526020019081526020016000208781548110612ba457634e487b7160e01b600052603260045260246000fd5b906000526020600020906008020160050160169054906101000a900460ff16600260008a81526020019081526020016000208881548110612bf557634e487b7160e01b600052603260045260246000fd5b906000526020600020906008020160020154600260008b81526020019081526020016000208981548110612c3957634e487b7160e01b600052603260045260246000fd5b9060005260206000209060080201600101600260008c81526020019081526020016000208a81548110612c7c57634e487b7160e01b600052603260045260246000fd5b906000526020600020906008020160060154600260008d81526020019081526020016000208b81548110612cc057634e487b7160e01b600052603260045260246000fd5b600091825260209182902060076008909202010154604051612cf19b9a999897969594939260ff90921691016156aa565b60408051601f198184030181529181528151602092830120600086815260029093529120805484908110612d3557634e487b7160e01b600052603260045260246000fd5b906000526020600020906008020160000181905550612ded600260008581526020019081526020016000208381548110612d7f57634e487b7160e01b600052603260045260246000fd5b906000526020600020906008020160040160009054906101000a90046001600160a01b0316600260008681526020019081526020016000208481548110612dd657634e487b7160e01b600052603260045260246000fd5b906000526020600020906008020160020154614f59565b61325f565b8060ff166002141561325f576000838152600260205260408120805484908110612e2c57634e487b7160e01b600052603260045260246000fd5b906000526020600020906008020160070160006101000a81548160ff021916908315150217905550600260008481526020019081526020016000208281548110612e8657634e487b7160e01b600052603260045260246000fd5b906000526020600020906008020160030160009054906101000a90046001600160a01b0316600260008581526020019081526020016000208381548110612edd57634e487b7160e01b600052603260045260246000fd5b906000526020600020906008020160040160009054906101000a90046001600160a01b0316600260008681526020019081526020016000208481548110612f3457634e487b7160e01b600052603260045260246000fd5b906000526020600020906008020160050160009054906101000a90046001600160a01b0316600260008781526020019081526020016000208581548110612f8b57634e487b7160e01b600052603260045260246000fd5b906000526020600020906008020160050160159054906101000a900460ff16600260008881526020019081526020016000208681548110612fdc57634e487b7160e01b600052603260045260246000fd5b906000526020600020906008020160050160149054906101000a900460ff1660026000898152602001908152602001600020878154811061302d57634e487b7160e01b600052603260045260246000fd5b906000526020600020906008020160050160169054906101000a900460ff16600260008a8152602001908152602001600020888154811061307e57634e487b7160e01b600052603260045260246000fd5b906000526020600020906008020160020154600260008b815260200190815260200160002089815481106130c257634e487b7160e01b600052603260045260246000fd5b9060005260206000209060080201600101600260008c81526020019081526020016000208a8154811061310557634e487b7160e01b600052603260045260246000fd5b906000526020600020906008020160060154600260008d81526020019081526020016000208b8154811061314957634e487b7160e01b600052603260045260246000fd5b60009182526020918290206007600890920201015460405161317a9b9a999897969594939260ff90921691016156aa565b60408051601f1981840301815291815281516020928301206000868152600290935291208054849081106131be57634e487b7160e01b600052603260045260246000fd5b90600052602060002090600802016000018190555061325f60026000858152602001908152602001600020838154811061320857634e487b7160e01b600052603260045260246000fd5b906000526020600020906008020160030160009054906101000a90046001600160a01b0316600260008681526020019081526020016000208481548110612dd657634e487b7160e01b600052603260045260246000fd5b50613277565b8061326f81615a63565b9150506122cf565b5050505050565b600083336040516020016132939291906155f1565b60405160208183030381529060405280519060200120905060005b6000828152600260205260409020548110156132775760008281526002602052604090208054849190839081106132f557634e487b7160e01b600052603260045260246000fd5b90600052602060002090600802016000015414801561335a5750600082815260026020526040902080548290811061333d57634e487b7160e01b600052603260045260246000fd5b600091825260209091206007600890920201015460ff1615156001145b1561410457600082815260026020526040902080543391908390811061339057634e487b7160e01b600052603260045260246000fd5b60009182526020909120600460089092020101546001600160a01b0316146133fa5760405162461bcd60e51b815260206004820152601760248201527f596f7520617265206e6f74207468652073656c6c65722e0000000000000000006044820152606401610275565b600082815260026020526040902080548591908390811061342b57634e487b7160e01b600052603260045260246000fd5b906000526020600020906008020160050160156101000a81548160ff021916908360ff16021790555060026000838152602001908152602001600020818154811061348657634e487b7160e01b600052603260045260246000fd5b906000526020600020906008020160030160009054906101000a90046001600160a01b03166002600084815260200190815260200160002082815481106134dd57634e487b7160e01b600052603260045260246000fd5b906000526020600020906008020160040160009054906101000a90046001600160a01b031660026000858152602001908152602001600020838154811061353457634e487b7160e01b600052603260045260246000fd5b906000526020600020906008020160050160009054906101000a90046001600160a01b031660026000868152602001908152602001600020848154811061358b57634e487b7160e01b600052603260045260246000fd5b906000526020600020906008020160050160159054906101000a900460ff166002600087815260200190815260200160002085815481106135dc57634e487b7160e01b600052603260045260246000fd5b906000526020600020906008020160050160149054906101000a900460ff1660026000888152602001908152602001600020868154811061362d57634e487b7160e01b600052603260045260246000fd5b906000526020600020906008020160050160169054906101000a900460ff1660026000898152602001908152602001600020878154811061367e57634e487b7160e01b600052603260045260246000fd5b906000526020600020906008020160020154600260008a815260200190815260200160002088815481106136c257634e487b7160e01b600052603260045260246000fd5b9060005260206000209060080201600101600260008b8152602001908152602001600020898154811061370557634e487b7160e01b600052603260045260246000fd5b906000526020600020906008020160060154600260008c81526020019081526020016000208a8154811061374957634e487b7160e01b600052603260045260246000fd5b60009182526020918290206007600890920201015460405161377a9b9a999897969594939260ff90921691016156aa565b60408051601f1981840301815291815281516020928301206000858152600290935291208054839081106137be57634e487b7160e01b600052603260045260246000fd5b906000526020600020906008020160000181905550600061380a60026000858152602001908152602001600020838154811061282b57634e487b7160e01b600052603260045260246000fd5b90508060ff16600114156138465760008381526002602052604081208054849081106129a357634e487b7160e01b600052603260045260246000fd5b8060ff1660021415613c5c57600083815260026020526040812080548490811061388057634e487b7160e01b600052603260045260246000fd5b906000526020600020906008020160070160006101000a81548160ff0219169083151502179055506002600084815260200190815260200160002082815481106138da57634e487b7160e01b600052603260045260246000fd5b906000526020600020906008020160030160009054906101000a90046001600160a01b031660026000858152602001908152602001600020838154811061393157634e487b7160e01b600052603260045260246000fd5b906000526020600020906008020160040160009054906101000a90046001600160a01b031660026000868152602001908152602001600020848154811061398857634e487b7160e01b600052603260045260246000fd5b906000526020600020906008020160050160009054906101000a90046001600160a01b03166002600087815260200190815260200160002085815481106139df57634e487b7160e01b600052603260045260246000fd5b906000526020600020906008020160050160159054906101000a900460ff16600260008881526020019081526020016000208681548110613a3057634e487b7160e01b600052603260045260246000fd5b906000526020600020906008020160050160149054906101000a900460ff16600260008981526020019081526020016000208781548110613a8157634e487b7160e01b600052603260045260246000fd5b906000526020600020906008020160050160169054906101000a900460ff16600260008a81526020019081526020016000208881548110613ad257634e487b7160e01b600052603260045260246000fd5b906000526020600020906008020160020154600260008b81526020019081526020016000208981548110613b1657634e487b7160e01b600052603260045260246000fd5b9060005260206000209060080201600101600260008c81526020019081526020016000208a81548110613b5957634e487b7160e01b600052603260045260246000fd5b906000526020600020906008020160060154600260008d81526020019081526020016000208b81548110613b9d57634e487b7160e01b600052603260045260246000fd5b600091825260209182902060076008909202010154604051613bce9b9a999897969594939260ff90921691016156aa565b60408051601f198184030181529181528151602092830120600086815260029093529120805484908110613c1257634e487b7160e01b600052603260045260246000fd5b906000526020600020906008020160000181905550612ded60026000858152602001908152602001600020838154811061320857634e487b7160e01b600052603260045260246000fd5b6000838152600260205260409020805442919084908110613c8d57634e487b7160e01b600052603260045260246000fd5b906000526020600020906008020160060154108015613cf557506000838152600260205260409020805483908110613cd557634e487b7160e01b600052603260045260246000fd5b6000918252602090912060089091020160050154600160a01b900460ff16155b1561325f576000838152600260205260408120805484908110613d2857634e487b7160e01b600052603260045260246000fd5b906000526020600020906008020160070160006101000a81548160ff021916908315150217905550600260008481526020019081526020016000208281548110613d8257634e487b7160e01b600052603260045260246000fd5b906000526020600020906008020160030160009054906101000a90046001600160a01b0316600260008581526020019081526020016000208381548110613dd957634e487b7160e01b600052603260045260246000fd5b906000526020600020906008020160040160009054906101000a90046001600160a01b0316600260008681526020019081526020016000208481548110613e3057634e487b7160e01b600052603260045260246000fd5b906000526020600020906008020160050160009054906101000a90046001600160a01b0316600260008781526020019081526020016000208581548110613e8757634e487b7160e01b600052603260045260246000fd5b906000526020600020906008020160050160159054906101000a900460ff16600260008881526020019081526020016000208681548110613ed857634e487b7160e01b600052603260045260246000fd5b906000526020600020906008020160050160149054906101000a900460ff16600260008981526020019081526020016000208781548110613f2957634e487b7160e01b600052603260045260246000fd5b906000526020600020906008020160050160169054906101000a900460ff16600260008a81526020019081526020016000208881548110613f7a57634e487b7160e01b600052603260045260246000fd5b906000526020600020906008020160020154600260008b81526020019081526020016000208981548110613fbe57634e487b7160e01b600052603260045260246000fd5b9060005260206000209060080201600101600260008c81526020019081526020016000208a8154811061400157634e487b7160e01b600052603260045260246000fd5b906000526020600020906008020160060154600260008d81526020019081526020016000208b8154811061404557634e487b7160e01b600052603260045260246000fd5b6000918252602091829020600760089092020101546040516140769b9a999897969594939260ff90921691016156aa565b60408051601f1981840301815291815281516020928301206000868152600290935291208054849081106140ba57634e487b7160e01b600052603260045260246000fd5b90600052602060002090600802016000018190555061325f600260008581526020019081526020016000208381548110612d7f57634e487b7160e01b600052603260045260246000fd5b8061410e81615a63565b9150506132ae565b6000848460405160200161412b9291906155f1565b60405160208183030381529060405280519060200120905060005b600082815260026020526040902054811015614eed57600082815260026020526040902080548491908390811061418d57634e487b7160e01b600052603260045260246000fd5b9060005260206000209060080201600001541480156141f2575060008281526002602052604090208054829081106141d557634e487b7160e01b600052603260045260246000fd5b600091825260209091206007600890920201015460ff1615156001145b15614edb57600082815260026020526040902080543391908390811061422857634e487b7160e01b600052603260045260246000fd5b60009182526020909120600560089092020101546001600160a01b0316146142925760405162461bcd60e51b815260206004820152601b60248201527f596f7520617265206e6f74207468652061726269747261746f722e00000000006044820152606401610275565b60008281526002602052604090208054859190839081106142c357634e487b7160e01b600052603260045260246000fd5b906000526020600020906008020160050160166101000a81548160ff021916908360ff16021790555060026000838152602001908152602001600020818154811061431e57634e487b7160e01b600052603260045260246000fd5b906000526020600020906008020160030160009054906101000a90046001600160a01b031660026000848152602001908152602001600020828154811061437557634e487b7160e01b600052603260045260246000fd5b906000526020600020906008020160040160009054906101000a90046001600160a01b03166002600085815260200190815260200160002083815481106143cc57634e487b7160e01b600052603260045260246000fd5b906000526020600020906008020160050160009054906101000a90046001600160a01b031660026000868152602001908152602001600020848154811061442357634e487b7160e01b600052603260045260246000fd5b906000526020600020906008020160050160159054906101000a900460ff1660026000878152602001908152602001600020858154811061447457634e487b7160e01b600052603260045260246000fd5b906000526020600020906008020160050160149054906101000a900460ff166002600088815260200190815260200160002086815481106144c557634e487b7160e01b600052603260045260246000fd5b906000526020600020906008020160050160169054906101000a900460ff1660026000898152602001908152602001600020878154811061451657634e487b7160e01b600052603260045260246000fd5b906000526020600020906008020160020154600260008a8152602001908152602001600020888154811061455a57634e487b7160e01b600052603260045260246000fd5b9060005260206000209060080201600101600260008b8152602001908152602001600020898154811061459d57634e487b7160e01b600052603260045260246000fd5b906000526020600020906008020160060154600260008c81526020019081526020016000208a815481106145e157634e487b7160e01b600052603260045260246000fd5b6000918252602091829020600760089092020101546040516146129b9a999897969594939260ff90921691016156aa565b60408051601f19818403018152918152815160209283012060008581526002909352912080548390811061465657634e487b7160e01b600052603260045260246000fd5b90600052602060002090600802016000018190555060006146a260026000858152602001908152602001600020838154811061282b57634e487b7160e01b600052603260045260246000fd5b90508060ff1660011415614abf5760008381526002602052604081208054849081106146de57634e487b7160e01b600052603260045260246000fd5b906000526020600020906008020160070160006101000a81548160ff02191690831515021790555060026000848152602001908152602001600020828154811061473857634e487b7160e01b600052603260045260246000fd5b906000526020600020906008020160030160009054906101000a90046001600160a01b031660026000858152602001908152602001600020838154811061478f57634e487b7160e01b600052603260045260246000fd5b906000526020600020906008020160040160009054906101000a90046001600160a01b03166002600086815260200190815260200160002084815481106147e657634e487b7160e01b600052603260045260246000fd5b906000526020600020906008020160050160009054906101000a90046001600160a01b031660026000878152602001908152602001600020858154811061483d57634e487b7160e01b600052603260045260246000fd5b906000526020600020906008020160050160159054906101000a900460ff1660026000888152602001908152602001600020868154811061488e57634e487b7160e01b600052603260045260246000fd5b906000526020600020906008020160050160149054906101000a900460ff166002600089815260200190815260200160002087815481106148df57634e487b7160e01b600052603260045260246000fd5b906000526020600020906008020160050160169054906101000a900460ff16600260008a8152602001908152602001600020888154811061493057634e487b7160e01b600052603260045260246000fd5b906000526020600020906008020160020154600260008b8152602001908152602001600020898154811061497457634e487b7160e01b600052603260045260246000fd5b9060005260206000209060080201600101600260008c81526020019081526020016000208a815481106149b757634e487b7160e01b600052603260045260246000fd5b906000526020600020906008020160060154600260008d81526020019081526020016000208b815481106149fb57634e487b7160e01b600052603260045260246000fd5b600091825260209182902060076008909202010154604051614a2c9b9a999897969594939260ff90921691016156aa565b60408051601f198184030181529181528151602092830120600086815260029093529120805484908110614a7057634e487b7160e01b600052603260045260246000fd5b906000526020600020906008020160000181905550614aba600260008581526020019081526020016000208381548110612d7f57634e487b7160e01b600052603260045260246000fd5b614ed5565b8060ff1660021415614ed5576000838152600260205260408120805484908110614af957634e487b7160e01b600052603260045260246000fd5b906000526020600020906008020160070160006101000a81548160ff021916908315150217905550600260008481526020019081526020016000208281548110614b5357634e487b7160e01b600052603260045260246000fd5b906000526020600020906008020160030160009054906101000a90046001600160a01b0316600260008581526020019081526020016000208381548110614baa57634e487b7160e01b600052603260045260246000fd5b906000526020600020906008020160040160009054906101000a90046001600160a01b0316600260008681526020019081526020016000208481548110614c0157634e487b7160e01b600052603260045260246000fd5b906000526020600020906008020160050160009054906101000a90046001600160a01b0316600260008781526020019081526020016000208581548110614c5857634e487b7160e01b600052603260045260246000fd5b906000526020600020906008020160050160159054906101000a900460ff16600260008881526020019081526020016000208681548110614ca957634e487b7160e01b600052603260045260246000fd5b906000526020600020906008020160050160149054906101000a900460ff16600260008981526020019081526020016000208781548110614cfa57634e487b7160e01b600052603260045260246000fd5b906000526020600020906008020160050160169054906101000a900460ff16600260008a81526020019081526020016000208881548110614d4b57634e487b7160e01b600052603260045260246000fd5b906000526020600020906008020160020154600260008b81526020019081526020016000208981548110614d8f57634e487b7160e01b600052603260045260246000fd5b9060005260206000209060080201600101600260008c81526020019081526020016000208a81548110614dd257634e487b7160e01b600052603260045260246000fd5b906000526020600020906008020160060154600260008d81526020019081526020016000208b81548110614e1657634e487b7160e01b600052603260045260246000fd5b600091825260209182902060076008909202010154604051614e479b9a999897969594939260ff90921691016156aa565b60408051601f198184030181529181528151602092830120600086815260029093529120805484908110614e8b57634e487b7160e01b600052603260045260246000fd5b906000526020600020906008020160000181905550614ed560026000858152602001908152602001600020838154811061320857634e487b7160e01b600052603260045260246000fd5b50614eed565b80614ee581615a63565b915050614146565b505050505050565b60008160e0015160ff168260c0015160ff161415614f15575060c0015190565b81610100015160ff168260c0015160ff161415614f34575060c0015190565b8160e0015160ff1682610100015160ff161415614f545750610100015190565b919050565b6001600160a01b038216614fa45760405162461bcd60e51b81526020600482015260126024820152710416464726573732063616e277420626520360741b6044820152606401610275565b6000826001600160a01b03168260405160006040518083038185875af1925050503d8060008114614ff1576040519150601f19603f3d011682016040523d82523d6000602084013e614ff6565b606091505b5050905080600560405160200161500d9190615741565b6040516020818303038152906040529061503a5760405162461bcd60e51b81526004016102759190615862565b50505050565b604080516101608101825260008082526060602083018190529282018190529181018290526080810182905260a0810182905260c0810182905260e081018290526101008101829052610120810182905261014081019190915290565b8280546150a990615a28565b90600052602060002090601f0160209004810192826150cb5760008555615111565b82601f106150e457805160ff1916838001178555615111565b82800160010185558215615111579182015b828111156151115782518255916020019190600101906150f6565b5061511d929150615121565b5090565b5b8082111561511d5760008155600101615122565b600082601f830112615146578081fd5b8135602061515b615156836159a9565b615978565b80838252828201915082860187848660051b890101111561517a578586fd5b855b858110156151a157813561518f81615aaa565b8452928401929084019060010161517c565b5090979650505050505050565b600082601f8301126151be578081fd5b813560206151ce615156836159a9565b80838252828201915082860187848660051b89010111156151ed578586fd5b855b858110156151a1578135845292840192908401906001016151ef565b6000601f838184011261521c578182fd5b8235602061522c615156836159a9565b80838252828201915082870188848660051b8a0101111561524b578687fd5b865b858110156152de57813567ffffffffffffffff8082111561526c57898afd5b818b0191508b603f83011261527f57898afd5b8682013560408282111561529557615295615a94565b6152a6828c01601f19168a01615978565b92508183528d818386010111156152bb578b8cfd5b818185018a85013750810187018a9052855250928401929084019060010161524d565b509098975050505050505050565b600080600060408486031215615300578283fd5b833561530b81615aaa565b9250602084013567ffffffffffffffff80821115615327578384fd5b818601915086601f83011261533a578384fd5b813581811115615348578485fd5b876020828501011115615359578485fd5b6020830194508093505050509250925092565b600080600060608486031215615380578283fd5b833567ffffffffffffffff80821115615397578485fd5b6153a387838801615136565b945060208601359150808211156153b8578384fd5b6153c487838801615136565b935060408601359150808211156153d9578283fd5b506153e6868287016151ae565b9150509250925092565b60008060408385031215615402578182fd5b823567ffffffffffffffff80821115615419578384fd5b61542586838701615136565b9350602085013591508082111561543a578283fd5b50615447858286016151ae565b9150509250929050565b600080600060608486031215615465578283fd5b833567ffffffffffffffff8082111561547c578485fd5b818601915086601f83011261548f578485fd5b8135602061549f615156836159a9565b8083825282820191508286018b848660051b89010111156154be57898afd5b8996505b848710156154e95780356154d581615aaa565b8352600196909601959183019183016154c2565b50975050870135925050808211156154ff578384fd5b61550b878388016151ae565b93506040860135915080821115615520578283fd5b506153e68682870161520b565b600081518084526155458160208601602086016159fc565b601f01601f19169290920160200192915050565b8054600090600181811c908083168061557357607f831692505b602080841082141561559357634e487b7160e01b86526022600452602486fd5b8180156155a757600181146155b8576155e5565b60ff198616895284890196506155e5565b60008881526020902060005b868110156155dd5781548b8201529085019083016155c4565b505084890196505b50505050505092915050565b6bffffffffffffffffffffffff19606093841b811682529190921b16601482015260280190565b6bffffffffffffffffffffffff1960608c811b821683528b811b821660148401528a901b1660288201526001600160f81b031960f889811b8216603c84015288811b8216603d84015287901b16603e820152600085603f830152845161568581605f8501602089016159fc565b909101605f81019390935250151560f81b607f82015260800198975050505050505050565b60006bffffffffffffffffffffffff19808d60601b168352808c60601b166014840152808b60601b1660288401525060ff60f81b808a60f81b16603c840152808960f81b16603d840152808860f81b16603e8401525085603f830152615713605f830186615559565b9384525050151560f81b602082015260210198975050505050505050565b8183823760009101908152919050565b6e02330b4b632b2103a379039b2b7321608d1b81526000615765600f830184615559565b9392505050565b60006020808301818452808551808352604092508286019150828160051b870101848801865b838110156152de57603f1989840301855281516101608151855288820151818a8701526157c18287018261552d565b91505087820151888601526060808301516157e6828801826001600160a01b03169052565b50506080828101516001600160a01b039081169187019190915260a0808401519091169086015260c08083015160ff9081169187019190915260e0808401518216908701526101008084015190911690860152610120808301519086015261014091820151151591909401529386019390860190600101615792565b602081526000615765602083018461552d565b6020808252600e908201526d2737903830b930b6b2ba32b9399760911b604082015260600190565b6020808252602e908201527f436c69656e7473206c656e677468206d75737420626520657175616c20746f2060408201526d0e6cad8d8cae4e640d8cadccee8d60931b606082015260800190565b60208082526036908201527f416464726573736573206c656e677468206d75737420626520657175616c2074604082015275379037b93232b9103430b9b432b9903632b733ba341760511b606082015260800190565b6020808252601f908201527f5265656e7472616e637947756172643a207265656e7472616e742063616c6c00604082015260600190565b604051601f8201601f1916810167ffffffffffffffff811182821017156159a1576159a1615a94565b604052919050565b600067ffffffffffffffff8211156159c3576159c3615a94565b5060051b60200190565b600082198211156159e0576159e0615a7e565b500190565b6000828210156159f7576159f7615a7e565b500390565b60005b83811015615a175781810151838201526020016159ff565b8381111561503a5750506000910152565b600181811c90821680615a3c57607f821691505b60208210811415615a5d57634e487b7160e01b600052602260045260246000fd5b50919050565b6000600019821415615a7757615a77615a7e565b5060010190565b634e487b7160e01b600052601160045260246000fd5b634e487b7160e01b600052604160045260246000fd5b6001600160a01b0381168114615abf57600080fd5b5056fea2646970667358221220b5647fa8f12f11c21e0c1ea005f60c31d520fb98ad81ffae7f275736b184eda364736f6c63430008040033",
  "linkReferences": {},
  "deployedLinkReferences": {}
}