{
  "_format": "hh-sol-artifact-1",
  "contractName": "ShopsBulkTransactions",
  "sourceName": "contracts/ShopsBulkTransactions.sol",
  "abi": [
    {
      "inputs": [
        {
          "internalType": "string",
          "name": "_symbol",
          "type": "string"
        }
      ],
      "stateMutability": "nonpayable",
      "type": "constructor"
    },
    {
      "anonymous": false,
      "inputs": [
        {
          "indexed": false,
          "internalType": "uint256",
          "name": "_amount",
          "type": "uint256"
        },
        {
          "indexed": false,
          "internalType": "bool",
          "name": "_status",
          "type": "bool"
        }
      ],
      "name": "MultiTransfer",
      "type": "event"
    },
    {
      "inputs": [],
      "name": "clientCheckOrders",
      "outputs": [
        {
          "components": [
            {
              "internalType": "uint256",
              "name": "value",
              "type": "uint256"
            },
            {
              "internalType": "address",
              "name": "client",
              "type": "address"
            },
            {
              "internalType": "address",
              "name": "sellar",
              "type": "address"
            },
            {
              "internalType": "uint8",
              "name": "clientDecision",
              "type": "uint8"
            },
            {
              "internalType": "uint8",
              "name": "sellerDecision",
              "type": "uint8"
            }
          ],
          "internalType": "struct ShopsBulkTransactions.Order[]",
          "name": "",
          "type": "tuple[]"
        }
      ],
      "stateMutability": "view",
      "type": "function"
    },
    {
      "inputs": [
        {
          "internalType": "address",
          "name": "seller",
          "type": "address"
        },
        {
          "internalType": "uint256",
          "name": "value",
          "type": "uint256"
        }
      ],
      "name": "clientProccessTransaction",
      "outputs": [],
      "stateMutability": "nonpayable",
      "type": "function"
    },
    {
      "inputs": [
        {
          "internalType": "address",
          "name": "seller",
          "type": "address"
        },
        {
          "internalType": "uint256",
          "name": "value",
          "type": "uint256"
        }
      ],
      "name": "clientRevertTransaction",
      "outputs": [],
      "stateMutability": "nonpayable",
      "type": "function"
    },
    {
      "inputs": [
        {
          "internalType": "address payable[]",
          "name": "_addresses",
          "type": "address[]"
        },
        {
          "internalType": "uint256[]",
          "name": "_amounts",
          "type": "uint256[]"
        }
      ],
      "name": "multiTransfer",
      "outputs": [],
      "stateMutability": "payable",
      "type": "function"
    },
    {
      "inputs": [],
      "name": "sellerCheckOrders",
      "outputs": [
        {
          "components": [
            {
              "internalType": "uint256",
              "name": "value",
              "type": "uint256"
            },
            {
              "internalType": "address",
              "name": "client",
              "type": "address"
            },
            {
              "internalType": "address",
              "name": "sellar",
              "type": "address"
            },
            {
              "internalType": "uint8",
              "name": "clientDecision",
              "type": "uint8"
            },
            {
              "internalType": "uint8",
              "name": "sellerDecision",
              "type": "uint8"
            }
          ],
          "internalType": "struct ShopsBulkTransactions.Order[]",
          "name": "",
          "type": "tuple[]"
        }
      ],
      "stateMutability": "view",
      "type": "function"
    },
    {
      "inputs": [
        {
          "internalType": "address",
          "name": "client",
          "type": "address"
        },
        {
          "internalType": "uint256",
          "name": "value",
          "type": "uint256"
        }
      ],
      "name": "sellerProccessTransaction",
      "outputs": [],
      "stateMutability": "nonpayable",
      "type": "function"
    },
    {
      "inputs": [
        {
          "internalType": "address",
          "name": "client",
          "type": "address"
        },
        {
          "internalType": "uint256",
          "name": "value",
          "type": "uint256"
        }
      ],
      "name": "sellerRevertTransaction",
      "outputs": [],
      "stateMutability": "nonpayable",
      "type": "function"
    },
    {
      "inputs": [],
      "name": "symbol",
      "outputs": [
        {
          "internalType": "string",
          "name": "",
          "type": "string"
        }
      ],
      "stateMutability": "view",
      "type": "function"
    }
  ],
  "bytecode": "0x60806040523480156200001157600080fd5b50604051620019c9380380620019c98339810160408190526200003491620000fc565b600160005580516200004e90600490602084019062000056565b505062000225565b8280546200006490620001d2565b90600052602060002090601f016020900481019282620000885760008555620000d3565b82601f10620000a357805160ff1916838001178555620000d3565b82800160010185558215620000d3579182015b82811115620000d3578251825591602001919060010190620000b6565b50620000e1929150620000e5565b5090565b5b80821115620000e15760008155600101620000e6565b600060208083850312156200010f578182fd5b82516001600160401b038082111562000126578384fd5b818501915085601f8301126200013a578384fd5b8151818111156200014f576200014f6200020f565b604051601f8201601f19908116603f011681019083821181831017156200017a576200017a6200020f565b81604052828152888684870101111562000192578687fd5b8693505b82841015620001b5578484018601518185018701529285019262000196565b82841115620001c657868684830101525b98975050505050505050565b600181811c90821680620001e757607f821691505b602082108114156200020957634e487b7160e01b600052602260045260246000fd5b50919050565b634e487b7160e01b600052604160045260246000fd5b61179480620002356000396000f3fe60806040526004361061007b5760003560e01c80636749cf5b1161004e5780636749cf5b146100f557806379e3c0e9146101205780637bcebb161461014057806395d89b411461015557600080fd5b806301f5770b146100805780631e89d545146100a25780632bb5663a146100b55780634827b35a146100d5575b600080fd5b34801561008c57600080fd5b506100a061009b366004611363565b610177565b005b6100a06100b036600461138e565b6101c0565b3480156100c157600080fd5b506100a06100d0366004611363565b61058a565b3480156100e157600080fd5b506100a06100f0366004611363565b6105be565b34801561010157600080fd5b5061010a6105f2565b6040516101179190611533565b60405180910390f35b34801561012c57600080fd5b506100a061013b366004611363565b6108c9565b34801561014c57600080fd5b5061010a610900565b34801561016157600080fd5b5061016a610bcd565b60405161011791906115b6565b600260005414156101a35760405162461bcd60e51b815260040161019a90611609565b60405180910390fd5b60026000819055506101b782826002610c5b565b50506001600055565b600260005414156101e35760405162461bcd60e51b815260040161019a90611609565b600260005580518251146102525760405162461bcd60e51b815260206004820152603060248201527f416464726573736573206c656e677468206d75737420626520657175616c207460448201526f0de40c2dadeeadce8e640d8cadccee8d60831b606482015260840161019a565b348060005b84518110156105455783818151811061028057634e487b7160e01b600052603260045260246000fd5b60200260200101518210156102ed5760405162461bcd60e51b815260206004820152602d60248201527f546f74616c20616d6f756e74206973206c657373207468616e2063757272656e60448201526c1d081cd95b9908185b5bdd5b9d609a1b606482015260840161019a565b83818151811061030d57634e487b7160e01b600052603260045260246000fd5b60200260200101518261032091906116ad565b91506103536040805160a08101825260008082526020820181905291810182905260608101829052608081019190915290565b336020820152855186908390811061037b57634e487b7160e01b600052603260045260246000fd5b60209081029190910101516001600160a01b03166040820152600160808201526000606082015284518590839081106103c457634e487b7160e01b600052603260045260246000fd5b60200260200101518160000181815250506000338784815181106103f857634e487b7160e01b600052603260045260246000fd5b6020026020010151604051602001610411929190611451565b60408051808303601f1901815291815281516020928301206000818152600180855283822080548083018255908352858320885160039283029091019081558887015181840180546001600160a01b0319166001600160a01b03928316179055898701516002928301805460608d015160808e0151939094166001600160a81b031990911617600160a01b60ff948516021760ff60a81b1916600160a81b9390921692909202179055338452865293822080549182018155825293812090930181905589519093509091908990869081106104fc57634e487b7160e01b600052603260045260246000fd5b6020908102919091018101516001600160a01b0316825281810192909252604001600090812080546001810182559082529190200155508061053d816116ff565b915050610257565b5060408051838152600160208201527fc05dae71ad6ebf2680862ebed51b27e8ea99855a67cfc24e7a3e0212c34e5e2f910160405180910390a1505060016000555050565b600260005414156105ad5760405162461bcd60e51b815260040161019a90611609565b60026000556101b782826001610f7e565b600260005414156105e15760405162461bcd60e51b815260040161019a90611609565b60026000556101b782826001610c5b565b336000908152600260209081526040808320805482518185028101850190935280835260609493849392919083018282801561064d57602002820191906000526020600020905b815481526020019060010190808311610639575b5050505050905060005b81518110156106bd576001600083838151811061068457634e487b7160e01b600052603260045260246000fd5b6020026020010151815260200190815260200160002080549050836106a99190611695565b9250806106b5816116ff565b915050610657565b5060008267ffffffffffffffff8111156106e757634e487b7160e01b600052604160045260246000fd5b60405190808252806020026020018201604052801561074057816020015b6040805160a0810182526000808252602080830182905292820181905260608201819052608082015282526000199092019101816107055790505b5090506000805b83518110156108bf5760006001600086848151811061077657634e487b7160e01b600052603260045260246000fd5b60200260200101518152602001908152602001600020805480602002602001604051908101604052809291908181526020016000905b828210156108245760008481526020908190206040805160a08101825260038602909201805483526001808201546001600160a01b03908116858701526002909201549182169284019290925260ff600160a01b820481166060850152600160a81b90910416608083015290835290920191016107ac565b50505050905060005b81518110156108aa5781818151811061085657634e487b7160e01b600052603260045260246000fd5b602002602001015185858151811061087e57634e487b7160e01b600052603260045260246000fd5b60200260200101819052508380610894906116ff565b94505080806108a2906116ff565b91505061082d565b505080806108b7906116ff565b915050610747565b5090949350505050565b600260005414156108ec5760405162461bcd60e51b815260040161019a90611609565b60026000819055506101b782826002610f7e565b336000908152600360209081526040808320805482518185028101850190935280835260609493849392919083018282801561095b57602002820191906000526020600020905b815481526020019060010190808311610947575b5050505050905060005b81518110156109cb576001600083838151811061099257634e487b7160e01b600052603260045260246000fd5b6020026020010151815260200190815260200160002080549050836109b79190611695565b9250806109c3816116ff565b915050610965565b5060008267ffffffffffffffff8111156109f557634e487b7160e01b600052604160045260246000fd5b604051908082528060200260200182016040528015610a4e57816020015b6040805160a081018252600080825260208083018290529282018190526060820181905260808201528252600019909201910181610a135790505b5090506000805b83518110156108bf57600060016000868481518110610a8457634e487b7160e01b600052603260045260246000fd5b60200260200101518152602001908152602001600020805480602002602001604051908101604052809291908181526020016000905b82821015610b325760008481526020908190206040805160a08101825260038602909201805483526001808201546001600160a01b03908116858701526002909201549182169284019290925260ff600160a01b820481166060850152600160a81b9091041660808301529083529092019101610aba565b50505050905060005b8151811015610bb857818181518110610b6457634e487b7160e01b600052603260045260246000fd5b6020026020010151858581518110610b8c57634e487b7160e01b600052603260045260246000fd5b60200260200101819052508380610ba2906116ff565b9450508080610bb0906116ff565b915050610b3b565b50508080610bc5906116ff565b915050610a55565b60048054610bda906116c4565b80601f0160208091040260200160405190810160405280929190818152602001828054610c06906116c4565b8015610c535780601f10610c2857610100808354040283529160200191610c53565b820191906000526020600020905b815481529060010190602001808311610c3657829003601f168201915b505050505081565b60026000541415610c7e5760405162461bcd60e51b815260040161019a90611609565b60026000908155604051610c989033908690602001611451565b60408051601f19818403018152828252805160209182012060008181526001835283812080548085028701850190955284865291955093929091849084015b82821015610d4f5760008481526020908190206040805160a08101825260038602909201805483526001808201546001600160a01b03908116858701526002909201549182169284019290925260ff600160a01b820481166060850152600160a81b9091041660808301529083529092019101610cd7565b50505050905060005b8151811015610f715784828281518110610d8257634e487b7160e01b600052603260045260246000fd5b6020026020010151600001511415610f5f57336001600160a01b0316828281518110610dbe57634e487b7160e01b600052603260045260246000fd5b6020026020010151602001516001600160a01b031614610e205760405162461bcd60e51b815260206004820152601760248201527f596f7520617265206e6f742074686520636c69656e742e000000000000000000604482015260640161019a565b83828281518110610e4157634e487b7160e01b600052603260045260246000fd5b60200260200101516060019060ff16908160ff16815250506000610e8b838381518110610e7e57634e487b7160e01b600052603260045260246000fd5b60200260200101516111b3565b90508060ff1660011415610efe57610ef9838381518110610ebc57634e487b7160e01b600052603260045260246000fd5b602002602001015160400151848481518110610ee857634e487b7160e01b600052603260045260246000fd5b60200260200101516000015161120d565b610f59565b8060ff1660021415610f5957610f59838381518110610f2d57634e487b7160e01b600052603260045260246000fd5b602002602001015160200151848481518110610ee857634e487b7160e01b600052603260045260246000fd5b50610f71565b80610f69816116ff565b915050610d58565b5050600160005550505050565b60026000541415610fa15760405162461bcd60e51b815260040161019a90611609565b60026000908155604051610fbb9085903390602001611451565b60408051601f19818403018152828252805160209182012060008181526001835283812080548085028701850190955284865291955093929091849084015b828210156110725760008481526020908190206040805160a08101825260038602909201805483526001808201546001600160a01b03908116858701526002909201549182169284019290925260ff600160a01b820481166060850152600160a81b9091041660808301529083529092019101610ffa565b50505050905060005b8151811015610f7157848282815181106110a557634e487b7160e01b600052603260045260246000fd5b60200260200101516000015114156111a157336001600160a01b03168282815181106110e157634e487b7160e01b600052603260045260246000fd5b6020026020010151602001516001600160a01b0316146111435760405162461bcd60e51b815260206004820152601760248201527f596f7520617265206e6f74207468652073656c6c65722e000000000000000000604482015260640161019a565b8382828151811061116457634e487b7160e01b600052603260045260246000fd5b60200260200101516080019060ff16908160ff16815250506000610e8b838381518110610e7e57634e487b7160e01b600052603260045260246000fd5b806111ab816116ff565b91505061107b565b6000600260005414156111d85760405162461bcd60e51b815260040161019a90611609565b60026000556080820151606083015160ff908116911614156111ff57506060810151611203565b5060005b6001600055919050565b6001600160a01b0382166112585760405162461bcd60e51b81526020600482015260126024820152710416464726573732063616e277420626520360741b604482015260640161019a565b6000826001600160a01b03168260405160006040518083038185875af1925050503d80600081146112a5576040519150601f19603f3d011682016040523d82523d6000602084013e6112aa565b606091505b505090508060046040516020016112c19190611478565b604051602081830303815290604052906112ee5760405162461bcd60e51b815260040161019a91906115b6565b50505050565b600082601f830112611304578081fd5b8135602061131961131483611671565b611640565b80838252828201915082860187848660051b8901011115611338578586fd5b855b858110156113565781358452928401929084019060010161133a565b5090979650505050505050565b60008060408385031215611375578182fd5b823561138081611746565b946020939093013593505050565b600080604083850312156113a0578182fd5b823567ffffffffffffffff808211156113b7578384fd5b818501915085601f8301126113ca578384fd5b813560206113da61131483611671565b8083825282820191508286018a848660051b89010111156113f9578889fd5b8896505b8487101561142457803561141081611746565b8352600196909601959183019183016113fd565b509650508601359250508082111561143a578283fd5b50611447858286016112f4565b9150509250929050565b6bffffffffffffffffffffffff19606093841b811682529190921b16601482015260280190565b6e02330b4b632b2103a379039b2b7321608d1b81526000600f81845483600182811c9150808316806114ab57607f831692505b60208084108214156114cb57634e487b7160e01b88526022600452602488fd5b8180156114df57600181146114f457611524565b60ff1986168a890152848a0188019650611524565b60008b815260209020895b8681101561151a5781548c82018b01529085019083016114ff565b505087858b010196505b50949998505050505050505050565b602080825282518282018190526000919060409081850190868401855b828110156115a957815180518552868101516001600160a01b039081168887015286820151168686015260608082015160ff90811691870191909152608091820151169085015260a09093019290850190600101611550565b5091979650505050505050565b6000602080835283518082850152825b818110156115e2578581018301518582016040015282016115c6565b818111156115f35783604083870101525b50601f01601f1916929092016040019392505050565b6020808252601f908201527f5265656e7472616e637947756172643a207265656e7472616e742063616c6c00604082015260600190565b604051601f8201601f1916810167ffffffffffffffff8111828210171561166957611669611730565b604052919050565b600067ffffffffffffffff82111561168b5761168b611730565b5060051b60200190565b600082198211156116a8576116a861171a565b500190565b6000828210156116bf576116bf61171a565b500390565b600181811c908216806116d857607f821691505b602082108114156116f957634e487b7160e01b600052602260045260246000fd5b50919050565b60006000198214156117135761171361171a565b5060010190565b634e487b7160e01b600052601160045260246000fd5b634e487b7160e01b600052604160045260246000fd5b6001600160a01b038116811461175b57600080fd5b5056fea26469706673582212208edcd0cb3b62afbf6d4e8cecf83468eb92f3df9cf7461b4b0c7e625156ef7a5364736f6c63430008040033",
  "linkReferences": {},
  "deployedLinkReferences": {}
}