{
  "_format": "hh-sol-artifact-1",
  "contractName": "ShopsBulkTransactions",
  "sourceName": "contracts/ShopsBulkTransactions.sol",
  "abi": [
    {
      "inputs": [
        {
          "internalType": "string",
          "name": "_symbol",
          "type": "string"
        }
      ],
      "stateMutability": "nonpayable",
      "type": "constructor"
    },
    {
      "anonymous": false,
      "inputs": [
        {
          "indexed": false,
          "internalType": "uint256",
          "name": "_amount",
          "type": "uint256"
        },
        {
          "indexed": false,
          "internalType": "bool",
          "name": "_status",
          "type": "bool"
        }
      ],
      "name": "MultiTransfer",
      "type": "event"
    },
    {
      "inputs": [
        {
          "internalType": "address[]",
          "name": "_clients",
          "type": "address[]"
        },
        {
          "internalType": "address[]",
          "name": "_sellers",
          "type": "address[]"
        },
        {
          "internalType": "uint256[]",
          "name": "_values",
          "type": "uint256[]"
        },
        {
          "internalType": "string[]",
          "name": "_productHashes",
          "type": "string[]"
        }
      ],
      "name": "arbitratorProccessTransaction",
      "outputs": [],
      "stateMutability": "nonpayable",
      "type": "function"
    },
    {
      "inputs": [
        {
          "internalType": "address[]",
          "name": "_clients",
          "type": "address[]"
        },
        {
          "internalType": "address[]",
          "name": "_sellers",
          "type": "address[]"
        },
        {
          "internalType": "uint256[]",
          "name": "_values",
          "type": "uint256[]"
        },
        {
          "internalType": "string[]",
          "name": "_productHashes",
          "type": "string[]"
        }
      ],
      "name": "arbitratorRevertTransaction",
      "outputs": [],
      "stateMutability": "nonpayable",
      "type": "function"
    },
    {
      "inputs": [
        {
          "internalType": "address",
          "name": "seller",
          "type": "address"
        },
        {
          "internalType": "string",
          "name": "productHash",
          "type": "string"
        }
      ],
      "name": "checkProductOrders",
      "outputs": [
        {
          "internalType": "uint256",
          "name": "",
          "type": "uint256"
        }
      ],
      "stateMutability": "view",
      "type": "function"
    },
    {
      "inputs": [],
      "name": "clientCheckActiveOrders",
      "outputs": [
        {
          "components": [
            {
              "internalType": "string",
              "name": "product_hash",
              "type": "string"
            },
            {
              "internalType": "uint256",
              "name": "value",
              "type": "uint256"
            },
            {
              "internalType": "address",
              "name": "client",
              "type": "address"
            },
            {
              "internalType": "address",
              "name": "seller",
              "type": "address"
            },
            {
              "internalType": "address",
              "name": "arbitrator",
              "type": "address"
            },
            {
              "internalType": "uint8",
              "name": "clientDecision",
              "type": "uint8"
            },
            {
              "internalType": "uint8",
              "name": "sellerDecision",
              "type": "uint8"
            },
            {
              "internalType": "uint8",
              "name": "arbitratorDecision",
              "type": "uint8"
            },
            {
              "internalType": "uint256",
              "name": "deadline",
              "type": "uint256"
            },
            {
              "internalType": "bool",
              "name": "active",
              "type": "bool"
            }
          ],
          "internalType": "struct ShopsBulkTransactions.Order[]",
          "name": "",
          "type": "tuple[]"
        }
      ],
      "stateMutability": "view",
      "type": "function"
    },
    {
      "inputs": [],
      "name": "clientCheckOrders",
      "outputs": [
        {
          "components": [
            {
              "internalType": "string",
              "name": "product_hash",
              "type": "string"
            },
            {
              "internalType": "uint256",
              "name": "value",
              "type": "uint256"
            },
            {
              "internalType": "address",
              "name": "client",
              "type": "address"
            },
            {
              "internalType": "address",
              "name": "seller",
              "type": "address"
            },
            {
              "internalType": "address",
              "name": "arbitrator",
              "type": "address"
            },
            {
              "internalType": "uint8",
              "name": "clientDecision",
              "type": "uint8"
            },
            {
              "internalType": "uint8",
              "name": "sellerDecision",
              "type": "uint8"
            },
            {
              "internalType": "uint8",
              "name": "arbitratorDecision",
              "type": "uint8"
            },
            {
              "internalType": "uint256",
              "name": "deadline",
              "type": "uint256"
            },
            {
              "internalType": "bool",
              "name": "active",
              "type": "bool"
            }
          ],
          "internalType": "struct ShopsBulkTransactions.Order[]",
          "name": "",
          "type": "tuple[]"
        }
      ],
      "stateMutability": "view",
      "type": "function"
    },
    {
      "inputs": [
        {
          "internalType": "address[]",
          "name": "_sellers",
          "type": "address[]"
        },
        {
          "internalType": "uint256[]",
          "name": "_values",
          "type": "uint256[]"
        },
        {
          "internalType": "string[]",
          "name": "_productHashes",
          "type": "string[]"
        }
      ],
      "name": "clientProccessTransaction",
      "outputs": [],
      "stateMutability": "nonpayable",
      "type": "function"
    },
    {
      "inputs": [
        {
          "internalType": "address[]",
          "name": "_sellers",
          "type": "address[]"
        },
        {
          "internalType": "uint256[]",
          "name": "_values",
          "type": "uint256[]"
        },
        {
          "internalType": "string[]",
          "name": "_productHashes",
          "type": "string[]"
        }
      ],
      "name": "clientRevertTransaction",
      "outputs": [],
      "stateMutability": "nonpayable",
      "type": "function"
    },
    {
      "inputs": [
        {
          "internalType": "address payable[]",
          "name": "_addresses",
          "type": "address[]"
        },
        {
          "internalType": "uint256[]",
          "name": "_amounts",
          "type": "uint256[]"
        },
        {
          "internalType": "string[]",
          "name": "_productHashes",
          "type": "string[]"
        }
      ],
      "name": "multiTransfer",
      "outputs": [],
      "stateMutability": "payable",
      "type": "function"
    },
    {
      "inputs": [],
      "name": "sellerCheckActiveOrders",
      "outputs": [
        {
          "components": [
            {
              "internalType": "string",
              "name": "product_hash",
              "type": "string"
            },
            {
              "internalType": "uint256",
              "name": "value",
              "type": "uint256"
            },
            {
              "internalType": "address",
              "name": "client",
              "type": "address"
            },
            {
              "internalType": "address",
              "name": "seller",
              "type": "address"
            },
            {
              "internalType": "address",
              "name": "arbitrator",
              "type": "address"
            },
            {
              "internalType": "uint8",
              "name": "clientDecision",
              "type": "uint8"
            },
            {
              "internalType": "uint8",
              "name": "sellerDecision",
              "type": "uint8"
            },
            {
              "internalType": "uint8",
              "name": "arbitratorDecision",
              "type": "uint8"
            },
            {
              "internalType": "uint256",
              "name": "deadline",
              "type": "uint256"
            },
            {
              "internalType": "bool",
              "name": "active",
              "type": "bool"
            }
          ],
          "internalType": "struct ShopsBulkTransactions.Order[]",
          "name": "",
          "type": "tuple[]"
        }
      ],
      "stateMutability": "view",
      "type": "function"
    },
    {
      "inputs": [],
      "name": "sellerCheckOrders",
      "outputs": [
        {
          "components": [
            {
              "internalType": "string",
              "name": "product_hash",
              "type": "string"
            },
            {
              "internalType": "uint256",
              "name": "value",
              "type": "uint256"
            },
            {
              "internalType": "address",
              "name": "client",
              "type": "address"
            },
            {
              "internalType": "address",
              "name": "seller",
              "type": "address"
            },
            {
              "internalType": "address",
              "name": "arbitrator",
              "type": "address"
            },
            {
              "internalType": "uint8",
              "name": "clientDecision",
              "type": "uint8"
            },
            {
              "internalType": "uint8",
              "name": "sellerDecision",
              "type": "uint8"
            },
            {
              "internalType": "uint8",
              "name": "arbitratorDecision",
              "type": "uint8"
            },
            {
              "internalType": "uint256",
              "name": "deadline",
              "type": "uint256"
            },
            {
              "internalType": "bool",
              "name": "active",
              "type": "bool"
            }
          ],
          "internalType": "struct ShopsBulkTransactions.Order[]",
          "name": "",
          "type": "tuple[]"
        }
      ],
      "stateMutability": "view",
      "type": "function"
    },
    {
      "inputs": [
        {
          "internalType": "address[]",
          "name": "_clients",
          "type": "address[]"
        },
        {
          "internalType": "uint256[]",
          "name": "_values",
          "type": "uint256[]"
        },
        {
          "internalType": "string[]",
          "name": "_productHashes",
          "type": "string[]"
        }
      ],
      "name": "sellerProccessTransaction",
      "outputs": [],
      "stateMutability": "nonpayable",
      "type": "function"
    },
    {
      "inputs": [
        {
          "internalType": "address[]",
          "name": "_clients",
          "type": "address[]"
        },
        {
          "internalType": "uint256[]",
          "name": "_values",
          "type": "uint256[]"
        },
        {
          "internalType": "string[]",
          "name": "_productHashes",
          "type": "string[]"
        }
      ],
      "name": "sellerRevertTransaction",
      "outputs": [],
      "stateMutability": "nonpayable",
      "type": "function"
    },
    {
      "inputs": [],
      "name": "symbol",
      "outputs": [
        {
          "internalType": "string",
          "name": "",
          "type": "string"
        }
      ],
      "stateMutability": "view",
      "type": "function"
    }
  ],
  "bytecode": "0x6080604052600180546001600160a01b03191673b6f32c6d8c23e5201ec123644f11cf6f013d93631790553480156200003757600080fd5b5060405162003e9338038062003e938339810160408190526200005a9162000122565b60016000558051620000749060059060208401906200007c565b50506200024b565b8280546200008a90620001f8565b90600052602060002090601f016020900481019282620000ae5760008555620000f9565b82601f10620000c957805160ff1916838001178555620000f9565b82800160010185558215620000f9579182015b82811115620000f9578251825591602001919060010190620000dc565b50620001079291506200010b565b5090565b5b808211156200010757600081556001016200010c565b6000602080838503121562000135578182fd5b82516001600160401b03808211156200014c578384fd5b818501915085601f83011262000160578384fd5b81518181111562000175576200017562000235565b604051601f8201601f19908116603f01168101908382118183101715620001a057620001a062000235565b816040528281528886848701011115620001b8578687fd5b8693505b82841015620001db5784840186015181850187015292850192620001bc565b82841115620001ec57868684830101525b98975050505050505050565b600181811c908216806200020d57607f821691505b602082108114156200022f57634e487b7160e01b600052602260045260246000fd5b50919050565b634e487b7160e01b600052604160045260246000fd5b613c38806200025b6000396000f3fe6080604052600436106100c25760003560e01c80637bcebb161161007f578063d760a5a411610059578063d760a5a4146101df578063dff68ed3146101f2578063e1a2974c14610212578063fff357221461023257600080fd5b80637bcebb161461019357806395d89b41146101a857806398feff33146101ca57600080fd5b80631bd0ecf8146100c757806321a598de146100e957806324c7ec201461011c5780632c7f173e1461013c5780636749cf5b1461015c578063697b81081461017e575b600080fd5b3480156100d357600080fd5b506100e76100e2366004613634565b610252565b005b3480156100f557600080fd5b5061010961010436600461350c565b610370565b6040519081526020015b60405180910390f35b34801561012857600080fd5b506100e761013736600461358c565b61063f565b34801561014857600080fd5b506100e7610157366004613634565b61079e565b34801561016857600080fd5b5061017161089b565b60405161011391906138b6565b34801561018a57600080fd5b50610171610c25565b34801561019f57600080fd5b506101716111a3565b3480156101b457600080fd5b506101bd611523565b60405161011391906139a0565b3480156101d657600080fd5b506101716115b1565b6100e76101ed3660046136b8565b611b26565b3480156101fe57600080fd5b506100e761020d366004613634565b611fcd565b34801561021e57600080fd5b506100e761022d36600461358c565b6120d7565b34801561023e57600080fd5b506100e761024d366004613634565b61221d565b6002600054141561027e5760405162461bcd60e51b815260040161027590613aad565b60405180910390fd5b600260005581518351146102a45760405162461bcd60e51b815260040161027590613a5e565b80518351146102c55760405162461bcd60e51b815260040161027590613a01565b60005b8351811015610365576103538482815181106102f457634e487b7160e01b600052603260045260246000fd5b602002602001015184838151811061031c57634e487b7160e01b600052603260045260246000fd5b6020026020010151600285858151811061034657634e487b7160e01b600052603260045260246000fd5b602002602001015161231a565b8061035d81613ba3565b9150506102c8565b505060016000555050565b6001600160a01b03831660009081526004602090815260408083208054825181850281018501909352808352849384939291908301828280156103d257602002820191906000526020600020905b8154815260200190600101908083116103be575b505050505090506000805b82518110156106335760006002600085848151811061040c57634e487b7160e01b600052603260045260246000fd5b60200260200101518152602001908152602001600020805480602002602001604051908101604052809291908181526020016000905b8282101561058d57838290600052602060002090600702016040518061014001604052908160008201805461047690613b68565b80601f01602080910402602001604051908101604052809291908181526020018280546104a290613b68565b80156104ef5780601f106104c4576101008083540402835291602001916104ef565b820191906000526020600020905b8154815290600101906020018083116104d257829003601f168201915b505050918352505060018281015460208084019190915260028401546001600160a01b0390811660408501526003850154811660608501526004850154908116608085015260ff600160a01b8204811660a0860152600160a81b8204811660c0860152600160b01b909104811660e0850152600585015461010085015260069094015490931615156101209092019190915291835292019101610442565b50505050905060005b815181101561061e5788886040516105af92919061386f565b60405180910390208282815181106105d757634e487b7160e01b600052603260045260246000fd5b6020026020010151600001518051906020012014156105fe57856105fa81613ba3565b9650505b8361060881613ba3565b945050808061061690613ba3565b915050610596565b5050808061062b90613ba3565b9150506103dd565b50919695505050505050565b600260005414156106625760405162461bcd60e51b815260040161027590613aad565b600260005581518451146106885760405162461bcd60e51b815260040161027590613a5e565b80518451146106a95760405162461bcd60e51b815260040161027590613a01565b82518451146106ca5760405162461bcd60e51b8152600401610275906139b3565b60005b8451811015610792576107808582815181106106f957634e487b7160e01b600052603260045260246000fd5b602002602001015185838151811061072157634e487b7160e01b600052603260045260246000fd5b602002602001015185848151811061074957634e487b7160e01b600052603260045260246000fd5b6020026020010151600286868151811061077357634e487b7160e01b600052603260045260246000fd5b60200260200101516128d1565b8061078a81613ba3565b9150506106cd565b50506001600055505050565b600260005414156107c15760405162461bcd60e51b815260040161027590613aad565b600260005581518351146107e75760405162461bcd60e51b815260040161027590613a5e565b80518351146108085760405162461bcd60e51b815260040161027590613a01565b60005b83518110156103655761088984828151811061083757634e487b7160e01b600052603260045260246000fd5b602002602001015184838151811061085f57634e487b7160e01b600052603260045260246000fd5b6020026020010151600185858151811061034657634e487b7160e01b600052603260045260246000fd5b8061089381613ba3565b91505061080b565b33600090815260036020908152604080832080548251818502810185019093528083526060949384939291908301828280156108f657602002820191906000526020600020905b8154815260200190600101908083116108e2575b5050505050905060005b8151811015610966576002600083838151811061092d57634e487b7160e01b600052603260045260246000fd5b6020026020010151815260200190815260200160002080549050836109529190613b39565b92508061095e81613ba3565b915050610900565b5060008267ffffffffffffffff81111561099057634e487b7160e01b600052604160045260246000fd5b6040519080825280602002602001820160405280156109c957816020015b6109b6613269565b8152602001906001900390816109ae5790505b5090506000805b8351811015610c1b576000600260008684815181106109ff57634e487b7160e01b600052603260045260246000fd5b60200260200101518152602001908152602001600020805480602002602001604051908101604052809291908181526020016000905b82821015610b80578382906000526020600020906007020160405180610140016040529081600082018054610a6990613b68565b80601f0160208091040260200160405190810160405280929190818152602001828054610a9590613b68565b8015610ae25780601f10610ab757610100808354040283529160200191610ae2565b820191906000526020600020905b815481529060010190602001808311610ac557829003601f168201915b505050918352505060018281015460208084019190915260028401546001600160a01b0390811660408501526003850154811660608501526004850154908116608085015260ff600160a01b8204811660a0860152600160a81b8204811660c0860152600160b01b909104811660e0850152600585015461010085015260069094015490931615156101209092019190915291835292019101610a35565b50505050905060005b8151811015610c0657818181518110610bb257634e487b7160e01b600052603260045260246000fd5b6020026020010151858581518110610bda57634e487b7160e01b600052603260045260246000fd5b60200260200101819052508380610bf090613ba3565b9450508080610bfe90613ba3565b915050610b89565b50508080610c1390613ba3565b9150506109d0565b5090949350505050565b3360009081526004602090815260408083208054825181850281018501909352808352606094938493929190830182828015610c8057602002820191906000526020600020905b815481526020019060010190808311610c6c575b505050505090506000805b8251811015610eb457600060026000858481518110610cba57634e487b7160e01b600052603260045260246000fd5b60200260200101518152602001908152602001600020805480602002602001604051908101604052809291908181526020016000905b82821015610e3b578382906000526020600020906007020160405180610140016040529081600082018054610d2490613b68565b80601f0160208091040260200160405190810160405280929190818152602001828054610d5090613b68565b8015610d9d5780601f10610d7257610100808354040283529160200191610d9d565b820191906000526020600020905b815481529060010190602001808311610d8057829003601f168201915b505050918352505060018281015460208084019190915260028401546001600160a01b0390811660408501526003850154811660608501526004850154908116608085015260ff600160a01b8204811660a0860152600160a81b8204811660c0860152600160b01b909104811660e0850152600585015461010085015260069094015490931615156101209092019190915291835292019101610cf0565b50505050905060005b8151811015610e9f57818181518110610e6d57634e487b7160e01b600052603260045260246000fd5b6020026020010151610120015115610e8d5785610e8981613ba3565b9650505b80610e9781613ba3565b915050610e44565b50508080610eac90613ba3565b915050610c8b565b5060008367ffffffffffffffff811115610ede57634e487b7160e01b600052604160045260246000fd5b604051908082528060200260200182016040528015610f1757816020015b610f04613269565b815260200190600190039081610efc5790505b50905060005b835181101561119a57600060026000868481518110610f4c57634e487b7160e01b600052603260045260246000fd5b60200260200101518152602001908152602001600020805480602002602001604051908101604052809291908181526020016000905b828210156110cd578382906000526020600020906007020160405180610140016040529081600082018054610fb690613b68565b80601f0160208091040260200160405190810160405280929190818152602001828054610fe290613b68565b801561102f5780601f106110045761010080835404028352916020019161102f565b820191906000526020600020905b81548152906001019060200180831161101257829003601f168201915b505050918352505060018281015460208084019190915260028401546001600160a01b0390811660408501526003850154811660608501526004850154908116608085015260ff600160a01b8204811660a0860152600160a81b8204811660c0860152600160b01b909104811660e0850152600585015461010085015260069094015490931615156101209092019190915291835292019101610f82565b50505050905060005b8151811015611185578181815181106110ff57634e487b7160e01b600052603260045260246000fd5b60200260200101516101200151156111735781818151811061113157634e487b7160e01b600052603260045260246000fd5b602002602001015184868151811061115957634e487b7160e01b600052603260045260246000fd5b6020026020010181905250848061116f90613ba3565b9550505b8061117d81613ba3565b9150506110d6565b5050808061119290613ba3565b915050610f1d565b50949350505050565b33600090815260046020908152604080832080548251818502810185019093528083526060949384939291908301828280156111fe57602002820191906000526020600020905b8154815260200190600101908083116111ea575b5050505050905060005b815181101561126e576002600083838151811061123557634e487b7160e01b600052603260045260246000fd5b60200260200101518152602001908152602001600020805490508361125a9190613b39565b92508061126681613ba3565b915050611208565b5060008267ffffffffffffffff81111561129857634e487b7160e01b600052604160045260246000fd5b6040519080825280602002602001820160405280156112d157816020015b6112be613269565b8152602001906001900390816112b65790505b5090506000805b8351811015610c1b5760006002600086848151811061130757634e487b7160e01b600052603260045260246000fd5b60200260200101518152602001908152602001600020805480602002602001604051908101604052809291908181526020016000905b8282101561148857838290600052602060002090600702016040518061014001604052908160008201805461137190613b68565b80601f016020809104026020016040519081016040528092919081815260200182805461139d90613b68565b80156113ea5780601f106113bf576101008083540402835291602001916113ea565b820191906000526020600020905b8154815290600101906020018083116113cd57829003601f168201915b505050918352505060018281015460208084019190915260028401546001600160a01b0390811660408501526003850154811660608501526004850154908116608085015260ff600160a01b8204811660a0860152600160a81b8204811660c0860152600160b01b909104811660e085015260058501546101008501526006909401549093161515610120909201919091529183529201910161133d565b50505050905060005b815181101561150e578181815181106114ba57634e487b7160e01b600052603260045260246000fd5b60200260200101518585815181106114e257634e487b7160e01b600052603260045260246000fd5b602002602001018190525083806114f890613ba3565b945050808061150690613ba3565b915050611491565b5050808061151b90613ba3565b9150506112d8565b6005805461153090613b68565b80601f016020809104026020016040519081016040528092919081815260200182805461155c90613b68565b80156115a95780601f1061157e576101008083540402835291602001916115a9565b820191906000526020600020905b81548152906001019060200180831161158c57829003601f168201915b505050505081565b336000908152600360209081526040808320805482518185028101850190935280835260609493849392919083018282801561160c57602002820191906000526020600020905b8154815260200190600101908083116115f8575b505050505090506000805b82518110156118405760006002600085848151811061164657634e487b7160e01b600052603260045260246000fd5b60200260200101518152602001908152602001600020805480602002602001604051908101604052809291908181526020016000905b828210156117c75783829060005260206000209060070201604051806101400160405290816000820180546116b090613b68565b80601f01602080910402602001604051908101604052809291908181526020018280546116dc90613b68565b80156117295780601f106116fe57610100808354040283529160200191611729565b820191906000526020600020905b81548152906001019060200180831161170c57829003601f168201915b505050918352505060018281015460208084019190915260028401546001600160a01b0390811660408501526003850154811660608501526004850154908116608085015260ff600160a01b8204811660a0860152600160a81b8204811660c0860152600160b01b909104811660e085015260058501546101008501526006909401549093161515610120909201919091529183529201910161167c565b50505050905060005b815181101561182b578181815181106117f957634e487b7160e01b600052603260045260246000fd5b6020026020010151610120015115611819578561181581613ba3565b9650505b8061182381613ba3565b9150506117d0565b5050808061183890613ba3565b915050611617565b5060008367ffffffffffffffff81111561186a57634e487b7160e01b600052604160045260246000fd5b6040519080825280602002602001820160405280156118a357816020015b611890613269565b8152602001906001900390816118885790505b50905060005b835181101561119a576000600260008684815181106118d857634e487b7160e01b600052603260045260246000fd5b60200260200101518152602001908152602001600020805480602002602001604051908101604052809291908181526020016000905b82821015611a5957838290600052602060002090600702016040518061014001604052908160008201805461194290613b68565b80601f016020809104026020016040519081016040528092919081815260200182805461196e90613b68565b80156119bb5780601f10611990576101008083540402835291602001916119bb565b820191906000526020600020905b81548152906001019060200180831161199e57829003601f168201915b505050918352505060018281015460208084019190915260028401546001600160a01b0390811660408501526003850154811660608501526004850154908116608085015260ff600160a01b8204811660a0860152600160a81b8204811660c0860152600160b01b909104811660e085015260058501546101008501526006909401549093161515610120909201919091529183529201910161190e565b50505050905060005b8151811015611b1157818181518110611a8b57634e487b7160e01b600052603260045260246000fd5b6020026020010151610120015115611aff57818181518110611abd57634e487b7160e01b600052603260045260246000fd5b6020026020010151848681518110611ae557634e487b7160e01b600052603260045260246000fd5b60200260200101819052508480611afb90613ba3565b9550505b80611b0981613ba3565b915050611a62565b50508080611b1e90613ba3565b9150506118a9565b60026000541415611b495760405162461bcd60e51b815260040161027590613aad565b60026000558151835114611bb85760405162461bcd60e51b815260206004820152603060248201527f416464726573736573206c656e677468206d75737420626520657175616c207460448201526f0de40c2dadeeadce8e640d8cadccee8d60831b6064820152608401610275565b348060005b8551811015611f8757848181518110611be657634e487b7160e01b600052603260045260246000fd5b6020026020010151821015611c535760405162461bcd60e51b815260206004820152602d60248201527f546f74616c20616d6f756e74206973206c657373207468616e2063757272656e60448201526c1d081cd95b9908185b5bdd5b9d609a1b6064820152608401610275565b848181518110611c7357634e487b7160e01b600052603260045260246000fd5b602002602001015182611c869190613b51565b9150611c90613269565b3360408201528651879083908110611cb857634e487b7160e01b600052603260045260246000fd5b60209081029190910101516001600160a01b03908116606083015260018054909116608083015260c0820152600060a0820181905260e08201528551869083908110611d1457634e487b7160e01b600052603260045260246000fd5b6020026020010151816020018181525050848281518110611d4557634e487b7160e01b600052603260045260246000fd5b60209081029190910101518152611d5f4262278d00613b39565b610100820152600161012082015286516000903390899085908110611d9457634e487b7160e01b600052603260045260246000fd5b6020026020010151604051602001611dad929190613848565b60408051601f198184030181529181528151602092830120600081815260028452918220805460018101825590835291839020855180519295508694600790940290910192611e01928492909101906132bd565b50602082810151600183810191909155604080850151600280860180546001600160a01b03199081166001600160a01b03948516179091556060880151600388018054909216908416179055608087015160048701805460a08a015160c08b015160e08c0151949096166001600160a81b031990921691909117600160a01b60ff928316021761ffff60a81b1916600160a81b9582169590950260ff60b01b191694909417600160b01b9490921693909302179091556101008601516005860155610120909501516006909401805460ff1916941515949094179093556000858152939091529120541415611f725733600090815260036020908152604082208054600181018255908352908220018290558851600491908a9086908110611f3957634e487b7160e01b600052603260045260246000fd5b6020908102919091018101516001600160a01b031682528181019290925260400160009081208054600181018255908252919020018190555b50508080611f7f90613ba3565b915050611bbd565b5060408051838152600160208201527fc05dae71ad6ebf2680862ebed51b27e8ea99855a67cfc24e7a3e0212c34e5e2f910160405180910390a150506001600055505050565b60026000541415611ff05760405162461bcd60e51b815260040161027590613aad565b600260005581518351146120165760405162461bcd60e51b815260040161027590613a5e565b80518351146120375760405162461bcd60e51b815260040161027590613a01565b60005b8351811015610365576120c584828151811061206657634e487b7160e01b600052603260045260246000fd5b602002602001015184838151811061208e57634e487b7160e01b600052603260045260246000fd5b602002602001015160018585815181106120b857634e487b7160e01b600052603260045260246000fd5b6020026020010151612c9d565b806120cf81613ba3565b91505061203a565b600260005414156120fa5760405162461bcd60e51b815260040161027590613aad565b600260005581518451146121205760405162461bcd60e51b815260040161027590613a5e565b80518451146121415760405162461bcd60e51b815260040161027590613a01565b82518451146121625760405162461bcd60e51b8152600401610275906139b3565b60005b84518110156107925761220b85828151811061219157634e487b7160e01b600052603260045260246000fd5b60200260200101518583815181106121b957634e487b7160e01b600052603260045260246000fd5b60200260200101518584815181106121e157634e487b7160e01b600052603260045260246000fd5b6020026020010151600186868151811061077357634e487b7160e01b600052603260045260246000fd5b8061221581613ba3565b915050612165565b600260005414156122405760405162461bcd60e51b815260040161027590613aad565b600260005581518351146122665760405162461bcd60e51b815260040161027590613a5e565b80518351146122875760405162461bcd60e51b815260040161027590613a01565b60005b8351811015610365576123088482815181106122b657634e487b7160e01b600052603260045260246000fd5b60200260200101518483815181106122de57634e487b7160e01b600052603260045260246000fd5b602002602001015160028585815181106120b857634e487b7160e01b600052603260045260246000fd5b8061231281613ba3565b91505061228a565b6000338560405160200161232f929190613848565b60405160208183030381529060405280519060200120905060005b6000828152600260205260409020548110156128c957828051906020012060026000848152602001908152602001600020828154811061239a57634e487b7160e01b600052603260045260246000fd5b90600052602060002090600702016000016040516123b8919061387f565b604051809103902014801561240d575060008281526002602052604090208054869190839081106123f957634e487b7160e01b600052603260045260246000fd5b906000526020600020906007020160010154145b801561245f5750600082815260026020526040902080548290811061244257634e487b7160e01b600052603260045260246000fd5b600091825260209091206006600790920201015460ff1615156001145b156128b757600082815260026020526040902080543391908390811061249557634e487b7160e01b600052603260045260246000fd5b60009182526020909120600260079092020101546001600160a01b0316146124ff5760405162461bcd60e51b815260206004820152601760248201527f596f7520617265206e6f742074686520636c69656e742e0000000000000000006044820152606401610275565b600082815260026020526040902080548591908390811061253057634e487b7160e01b600052603260045260246000fd5b906000526020600020906007020160040160146101000a81548160ff021916908360ff16021790555060006126c260026000858152602001908152602001600020838154811061259057634e487b7160e01b600052603260045260246000fd5b9060005260206000209060070201604051806101400160405290816000820180546125ba90613b68565b80601f01602080910402602001604051908101604052809291908181526020018280546125e690613b68565b80156126335780601f1061260857610100808354040283529160200191612633565b820191906000526020600020905b81548152906001019060200180831161261657829003601f168201915b50505091835250506001820154602082015260028201546001600160a01b0390811660408301526003830154811660608301526004830154908116608083015260ff600160a01b8204811660a0840152600160a81b8204811660c0840152600160b01b909104811660e08301526005830154610100830152600690920154909116151561012090910152613121565b90508060ff16600114156127ce5760008381526002602052604081208054849081106126fe57634e487b7160e01b600052603260045260246000fd5b906000526020600020906007020160060160006101000a81548160ff0219169083151502179055506127c960026000858152602001908152602001600020838154811061275b57634e487b7160e01b600052603260045260246000fd5b906000526020600020906007020160030160009054906101000a90046001600160a01b03166002600086815260200190815260200160002084815481106127b257634e487b7160e01b600052603260045260246000fd5b906000526020600020906007020160010154613182565b6128b1565b8060ff16600214156128b157600083815260026020526040812080548490811061280857634e487b7160e01b600052603260045260246000fd5b906000526020600020906007020160060160006101000a81548160ff0219169083151502179055506128b160026000858152602001908152602001600020838154811061286557634e487b7160e01b600052603260045260246000fd5b600091825260208083206002600790930201820154878452919052604090912080546001600160a01b0390921691859081106127b257634e487b7160e01b600052603260045260246000fd5b506128c9565b806128c181613ba3565b91505061234a565b505050505050565b600085856040516020016128e6929190613848565b60405160208183030381529060405280519060200120905060005b600082815260026020526040902054811015612c9457828051906020012060026000848152602001908152602001600020828154811061295157634e487b7160e01b600052603260045260246000fd5b906000526020600020906007020160000160405161296f919061387f565b60405180910390201480156129c4575060008281526002602052604090208054869190839081106129b057634e487b7160e01b600052603260045260246000fd5b906000526020600020906007020160010154145b8015612a16575060008281526002602052604090208054829081106129f957634e487b7160e01b600052603260045260246000fd5b600091825260209091206006600790920201015460ff1615156001145b15612c82576000828152600260205260409020805433919083908110612a4c57634e487b7160e01b600052603260045260246000fd5b60009182526020909120600460079092020101546001600160a01b031614612ab65760405162461bcd60e51b815260206004820152601b60248201527f596f7520617265206e6f74207468652061726269747261746f722e00000000006044820152606401610275565b6000828152600260205260409020805485919083908110612ae757634e487b7160e01b600052603260045260246000fd5b906000526020600020906007020160040160166101000a81548160ff021916908360ff1602179055506000612b4760026000858152602001908152602001600020838154811061259057634e487b7160e01b600052603260045260246000fd5b90508060ff1660011415612be5576000838152600260205260408120805484908110612b8357634e487b7160e01b600052603260045260246000fd5b906000526020600020906007020160060160006101000a81548160ff021916908315150217905550612be060026000858152602001908152602001600020838154811061275b57634e487b7160e01b600052603260045260246000fd5b612c7c565b8060ff1660021415612c7c576000838152600260205260408120805484908110612c1f57634e487b7160e01b600052603260045260246000fd5b906000526020600020906007020160060160006101000a81548160ff021916908315150217905550612c7c60026000858152602001908152602001600020838154811061286557634e487b7160e01b600052603260045260246000fd5b50612c94565b80612c8c81613ba3565b915050612901565b50505050505050565b60008433604051602001612cb2929190613848565b60405160208183030381529060405280519060200120905060005b6000828152600260205260409020548110156128c9578280519060200120600260008481526020019081526020016000208281548110612d1d57634e487b7160e01b600052603260045260246000fd5b9060005260206000209060070201600001604051612d3b919061387f565b6040518091039020148015612d9057506000828152600260205260409020805486919083908110612d7c57634e487b7160e01b600052603260045260246000fd5b906000526020600020906007020160010154145b8015612de257506000828152600260205260409020805482908110612dc557634e487b7160e01b600052603260045260246000fd5b600091825260209091206006600790920201015460ff1615156001145b1561310f576000828152600260205260409020805433919083908110612e1857634e487b7160e01b600052603260045260246000fd5b60009182526020909120600360079092020101546001600160a01b031614612e825760405162461bcd60e51b815260206004820152601760248201527f596f7520617265206e6f74207468652073656c6c65722e0000000000000000006044820152606401610275565b6000828152600260205260409020805485919083908110612eb357634e487b7160e01b600052603260045260246000fd5b906000526020600020906007020160040160156101000a81548160ff021916908360ff1602179055506000612f1360026000858152602001908152602001600020838154811061259057634e487b7160e01b600052603260045260246000fd5b90508060ff1660011415612f4f5760008381526002602052604081208054849081106126fe57634e487b7160e01b600052603260045260246000fd5b8060ff1660021415612fe6576000838152600260205260408120805484908110612f8957634e487b7160e01b600052603260045260246000fd5b906000526020600020906007020160060160006101000a81548160ff0219169083151502179055506127c960026000858152602001908152602001600020838154811061286557634e487b7160e01b600052603260045260246000fd5b600083815260026020526040902080544291908490811061301757634e487b7160e01b600052603260045260246000fd5b90600052602060002090600702016005015410801561307f5750600083815260026020526040902080548390811061305f57634e487b7160e01b600052603260045260246000fd5b6000918252602090912060079091020160040154600160a01b900460ff16155b156128b15760008381526002602052604081208054849081106130b257634e487b7160e01b600052603260045260246000fd5b906000526020600020906007020160060160006101000a81548160ff0219169083151502179055506128b160026000858152602001908152602001600020838154811061275b57634e487b7160e01b600052603260045260246000fd5b8061311981613ba3565b915050612ccd565b60008160c0015160ff168260a0015160ff161415613141575060a0015190565b8160e0015160ff168260a0015160ff16141561315f575060a0015190565b8160c0015160ff168260e0015160ff16141561317d575060e0015190565b919050565b6001600160a01b0382166131cd5760405162461bcd60e51b81526020600482015260126024820152710416464726573732063616e277420626520360741b6044820152606401610275565b6000826001600160a01b03168260405160006040518083038185875af1925050503d806000811461321a576040519150601f19603f3d011682016040523d82523d6000602084013e61321f565b606091505b505090508060056040516020016132369190613892565b604051602081830303815290604052906132635760405162461bcd60e51b815260040161027591906139a0565b50505050565b6040805161014081018252606080825260006020830181905292820183905281018290526080810182905260a0810182905260c0810182905260e08101829052610100810182905261012081019190915290565b8280546132c990613b68565b90600052602060002090601f0160209004810192826132eb5760008555613331565b82601f1061330457805160ff1916838001178555613331565b82800160010185558215613331579182015b82811115613331578251825591602001919060010190613316565b5061333d929150613341565b5090565b5b8082111561333d5760008155600101613342565b600082601f830112613366578081fd5b8135602061337b61337683613b15565b613ae4565b80838252828201915082860187848660051b890101111561339a578586fd5b855b858110156133c15781356133af81613bea565b8452928401929084019060010161339c565b5090979650505050505050565b6000601f83818401126133df578182fd5b823560206133ef61337683613b15565b80838252828201915082870188848660051b8a0101111561340e578687fd5b865b858110156134a157813567ffffffffffffffff8082111561342f57898afd5b818b0191508b603f83011261344257898afd5b8682013560408282111561345857613458613bd4565b613469828c01601f19168a01613ae4565b92508183528d8183860101111561347e578b8cfd5b818185018a85013750810187018a90528552509284019290840190600101613410565b509098975050505050505050565b600082601f8301126134bf578081fd5b813560206134cf61337683613b15565b80838252828201915082860187848660051b89010111156134ee578586fd5b855b858110156133c1578135845292840192908401906001016134f0565b600080600060408486031215613520578283fd5b833561352b81613bea565b9250602084013567ffffffffffffffff80821115613547578384fd5b818601915086601f83011261355a578384fd5b813581811115613568578485fd5b876020828501011115613579578485fd5b6020830194508093505050509250925092565b600080600080608085870312156135a1578081fd5b843567ffffffffffffffff808211156135b8578283fd5b6135c488838901613356565b955060208701359150808211156135d9578283fd5b6135e588838901613356565b945060408701359150808211156135fa578283fd5b613606888389016134af565b9350606087013591508082111561361b578283fd5b50613628878288016133ce565b91505092959194509250565b600080600060608486031215613648578283fd5b833567ffffffffffffffff8082111561365f578485fd5b61366b87838801613356565b94506020860135915080821115613680578384fd5b61368c878388016134af565b935060408601359150808211156136a1578283fd5b506136ae868287016133ce565b9150509250925092565b6000806000606084860312156136cc578283fd5b833567ffffffffffffffff808211156136e3578485fd5b818601915086601f8301126136f6578485fd5b8135602061370661337683613b15565b8083825282820191508286018b848660051b890101111561372557898afd5b8996505b8487101561375057803561373c81613bea565b835260019690960195918301918301613729565b5097505087013592505080821115613680578384fd5b8054600090600181811c908083168061378057607f831692505b60208084108214156137a057634e487b7160e01b86526022600452602486fd5b8180156137b457600181146137c5576137f1565b60ff198616895284890196506137f1565b876000528160002060005b868110156137e95781548b8201529085019083016137d0565b505084890196505b50505050505092915050565b60008151808452815b8181101561382257602081850181015186830182015201613806565b818111156138335782602083870101525b50601f01601f19169290920160200192915050565b6bffffffffffffffffffffffff19606093841b811682529190921b16601482015260280190565b8183823760009101908152919050565b600061388b8284613766565b9392505050565b6e02330b4b632b2103a379039b2b7321608d1b8152600061388b600f830184613766565b60006020808301818452808551808352604092508286019150828160051b870101848801865b838110156134a157603f1989840301855281516101408151818652613903828701826137fd565b915050888201518986015287820151613926898701826001600160a01b03169052565b506060828101516001600160a01b03908116918701919091526080808401519091169086015260a08083015160ff9081169187019190915260c08084015182169087015260e080840151909116908601526101008083015190860152610120918201511515919094015293860193908601906001016138dc565b60208152600061388b60208301846137fd565b6020808252602e908201527f436c69656e7473206c656e677468206d75737420626520657175616c20746f2060408201526d0e6cad8d8cae4e640d8cadccee8d60931b606082015260800190565b60208082526037908201527f416464726573736573206c656e677468206d75737420626520657175616c207460408201527f6f2070726f6475637420686173686573206c656e677468000000000000000000606082015260800190565b6020808252602f908201527f416464726573736573206c656e677468206d75737420626520657175616c207460408201526e0de40ecc2d8eacae640d8cadccee8d608b1b606082015260800190565b6020808252601f908201527f5265656e7472616e637947756172643a207265656e7472616e742063616c6c00604082015260600190565b604051601f8201601f1916810167ffffffffffffffff81118282101715613b0d57613b0d613bd4565b604052919050565b600067ffffffffffffffff821115613b2f57613b2f613bd4565b5060051b60200190565b60008219821115613b4c57613b4c613bbe565b500190565b600082821015613b6357613b63613bbe565b500390565b600181811c90821680613b7c57607f821691505b60208210811415613b9d57634e487b7160e01b600052602260045260246000fd5b50919050565b6000600019821415613bb757613bb7613bbe565b5060010190565b634e487b7160e01b600052601160045260246000fd5b634e487b7160e01b600052604160045260246000fd5b6001600160a01b0381168114613bff57600080fd5b5056fea2646970667358221220d2381ae8727deec8ac361b0fb9ec3e73c53be2680793d27202d014b947c4380f64736f6c63430008040033",
  "linkReferences": {},
  "deployedLinkReferences": {}
}