{
  "_format": "hh-sol-artifact-1",
  "contractName": "ShopsBulkTransactions",
  "sourceName": "contracts/ShopsBulkTransactions.sol",
  "abi": [
    {
      "inputs": [
        {
          "internalType": "string",
          "name": "_symbol",
          "type": "string"
        }
      ],
      "stateMutability": "nonpayable",
      "type": "constructor"
    },
    {
      "anonymous": false,
      "inputs": [
        {
          "indexed": false,
          "internalType": "uint256",
          "name": "_amount",
          "type": "uint256"
        },
        {
          "indexed": false,
          "internalType": "bool",
          "name": "_status",
          "type": "bool"
        }
      ],
      "name": "MultiTransfer",
      "type": "event"
    },
    {
      "inputs": [
        {
          "internalType": "address",
          "name": "seller",
          "type": "address"
        },
        {
          "internalType": "string",
          "name": "productHash",
          "type": "string"
        }
      ],
      "name": "checkProductOrders",
      "outputs": [
        {
          "internalType": "uint256",
          "name": "",
          "type": "uint256"
        }
      ],
      "stateMutability": "view",
      "type": "function"
    },
    {
      "inputs": [],
      "name": "clientCheckActiveOrders",
      "outputs": [
        {
          "components": [
            {
              "internalType": "string",
              "name": "product_hash",
              "type": "string"
            },
            {
              "internalType": "uint256",
              "name": "value",
              "type": "uint256"
            },
            {
              "internalType": "address",
              "name": "client",
              "type": "address"
            },
            {
              "internalType": "address",
              "name": "sellar",
              "type": "address"
            },
            {
              "internalType": "uint8",
              "name": "clientDecision",
              "type": "uint8"
            },
            {
              "internalType": "uint8",
              "name": "sellerDecision",
              "type": "uint8"
            },
            {
              "internalType": "bool",
              "name": "active",
              "type": "bool"
            }
          ],
          "internalType": "struct ShopsBulkTransactions.Order[]",
          "name": "",
          "type": "tuple[]"
        }
      ],
      "stateMutability": "view",
      "type": "function"
    },
    {
      "inputs": [],
      "name": "clientCheckOrders",
      "outputs": [
        {
          "components": [
            {
              "internalType": "string",
              "name": "product_hash",
              "type": "string"
            },
            {
              "internalType": "uint256",
              "name": "value",
              "type": "uint256"
            },
            {
              "internalType": "address",
              "name": "client",
              "type": "address"
            },
            {
              "internalType": "address",
              "name": "sellar",
              "type": "address"
            },
            {
              "internalType": "uint8",
              "name": "clientDecision",
              "type": "uint8"
            },
            {
              "internalType": "uint8",
              "name": "sellerDecision",
              "type": "uint8"
            },
            {
              "internalType": "bool",
              "name": "active",
              "type": "bool"
            }
          ],
          "internalType": "struct ShopsBulkTransactions.Order[]",
          "name": "",
          "type": "tuple[]"
        }
      ],
      "stateMutability": "view",
      "type": "function"
    },
    {
      "inputs": [
        {
          "internalType": "address[]",
          "name": "_sellers",
          "type": "address[]"
        },
        {
          "internalType": "uint256[]",
          "name": "_values",
          "type": "uint256[]"
        },
        {
          "internalType": "string[]",
          "name": "_productHashes",
          "type": "string[]"
        }
      ],
      "name": "clientProccessTransaction",
      "outputs": [],
      "stateMutability": "nonpayable",
      "type": "function"
    },
    {
      "inputs": [
        {
          "internalType": "address[]",
          "name": "_sellers",
          "type": "address[]"
        },
        {
          "internalType": "uint256[]",
          "name": "_values",
          "type": "uint256[]"
        },
        {
          "internalType": "string[]",
          "name": "_productHashes",
          "type": "string[]"
        }
      ],
      "name": "clientRevertTransaction",
      "outputs": [],
      "stateMutability": "nonpayable",
      "type": "function"
    },
    {
      "inputs": [
        {
          "internalType": "address payable[]",
          "name": "_addresses",
          "type": "address[]"
        },
        {
          "internalType": "uint256[]",
          "name": "_amounts",
          "type": "uint256[]"
        },
        {
          "internalType": "string[]",
          "name": "_productHashes",
          "type": "string[]"
        }
      ],
      "name": "multiTransfer",
      "outputs": [],
      "stateMutability": "payable",
      "type": "function"
    },
    {
      "inputs": [],
      "name": "sellerCheckActiveOrders",
      "outputs": [
        {
          "components": [
            {
              "internalType": "string",
              "name": "product_hash",
              "type": "string"
            },
            {
              "internalType": "uint256",
              "name": "value",
              "type": "uint256"
            },
            {
              "internalType": "address",
              "name": "client",
              "type": "address"
            },
            {
              "internalType": "address",
              "name": "sellar",
              "type": "address"
            },
            {
              "internalType": "uint8",
              "name": "clientDecision",
              "type": "uint8"
            },
            {
              "internalType": "uint8",
              "name": "sellerDecision",
              "type": "uint8"
            },
            {
              "internalType": "bool",
              "name": "active",
              "type": "bool"
            }
          ],
          "internalType": "struct ShopsBulkTransactions.Order[]",
          "name": "",
          "type": "tuple[]"
        }
      ],
      "stateMutability": "view",
      "type": "function"
    },
    {
      "inputs": [],
      "name": "sellerCheckOrders",
      "outputs": [
        {
          "components": [
            {
              "internalType": "string",
              "name": "product_hash",
              "type": "string"
            },
            {
              "internalType": "uint256",
              "name": "value",
              "type": "uint256"
            },
            {
              "internalType": "address",
              "name": "client",
              "type": "address"
            },
            {
              "internalType": "address",
              "name": "sellar",
              "type": "address"
            },
            {
              "internalType": "uint8",
              "name": "clientDecision",
              "type": "uint8"
            },
            {
              "internalType": "uint8",
              "name": "sellerDecision",
              "type": "uint8"
            },
            {
              "internalType": "bool",
              "name": "active",
              "type": "bool"
            }
          ],
          "internalType": "struct ShopsBulkTransactions.Order[]",
          "name": "",
          "type": "tuple[]"
        }
      ],
      "stateMutability": "view",
      "type": "function"
    },
    {
      "inputs": [
        {
          "internalType": "address[]",
          "name": "_clients",
          "type": "address[]"
        },
        {
          "internalType": "uint256[]",
          "name": "_values",
          "type": "uint256[]"
        },
        {
          "internalType": "string[]",
          "name": "_productHashes",
          "type": "string[]"
        }
      ],
      "name": "sellerProccessTransaction",
      "outputs": [],
      "stateMutability": "nonpayable",
      "type": "function"
    },
    {
      "inputs": [
        {
          "internalType": "address[]",
          "name": "_clients",
          "type": "address[]"
        },
        {
          "internalType": "uint256[]",
          "name": "_values",
          "type": "uint256[]"
        },
        {
          "internalType": "string[]",
          "name": "_productHashes",
          "type": "string[]"
        }
      ],
      "name": "sellerRevertTransaction",
      "outputs": [],
      "stateMutability": "nonpayable",
      "type": "function"
    },
    {
      "inputs": [],
      "name": "symbol",
      "outputs": [
        {
          "internalType": "string",
          "name": "",
          "type": "string"
        }
      ],
      "stateMutability": "view",
      "type": "function"
    }
  ],
  "bytecode": "0x60806040523480156200001157600080fd5b5060405162008db738038062008db7833981810160405281019062000037919062000220565b6001600081905550620000737f1b28156c09d43c4aaade23b34f8d8ce2dfa2832067202f19b21cb4a0878082ac60001b620000fb60201b60201c565b620000a77fa6124d4a2a8cdd3178cc97b046d63c3bc01c6bbb5137a89c2d96bbaa2be0194160001b620000fb60201b60201c565b620000db7f3a0f20ecc70dfa8f2051313c81a217bec583fc864b41481b2965b063fe81a09360001b620000fb60201b60201c565b8060049080519060200190620000f3929190620000fe565b5050620003d5565b50565b8280546200010c90620002fa565b90600052602060002090601f0160209004810192826200013057600085556200017c565b82601f106200014b57805160ff19168380011785556200017c565b828001600101855582156200017c579182015b828111156200017b5782518255916020019190600101906200015e565b5b5090506200018b91906200018f565b5090565b5b80821115620001aa57600081600090555060010162000190565b5090565b6000620001c5620001bf846200028e565b62000265565b905082815260208101848484011115620001de57600080fd5b620001eb848285620002c4565b509392505050565b600082601f8301126200020557600080fd5b815162000217848260208601620001ae565b91505092915050565b6000602082840312156200023357600080fd5b600082015167ffffffffffffffff8111156200024e57600080fd5b6200025c84828501620001f3565b91505092915050565b60006200027162000284565b90506200027f828262000330565b919050565b6000604051905090565b600067ffffffffffffffff821115620002ac57620002ab62000395565b5b620002b782620003c4565b9050602081019050919050565b60005b83811015620002e4578082015181840152602081019050620002c7565b83811115620002f4576000848401525b50505050565b600060028204905060018216806200031357607f821691505b602082108114156200032a576200032962000366565b5b50919050565b6200033b82620003c4565b810181811067ffffffffffffffff821117156200035d576200035c62000395565b5b80604052505050565b7f4e487b7100000000000000000000000000000000000000000000000000000000600052602260045260246000fd5b7f4e487b7100000000000000000000000000000000000000000000000000000000600052604160045260246000fd5b6000601f19601f8301169050919050565b6189d280620003e56000396000f3fe60806040526004361061009c5760003560e01c80637bcebb16116100645780637bcebb161461018657806395d89b41146101b157806398feff33146101dc578063d760a5a414610207578063dff68ed314610223578063fff357221461024c5761009c565b80631bd0ecf8146100a157806321a598de146100ca5780632c7f173e146101075780636749cf5b14610130578063697b81081461015b575b600080fd5b3480156100ad57600080fd5b506100c860048036038101906100c39190617aca565b610275565b005b3480156100d657600080fd5b506100f160048036038101906100ec9190617a72565b610681565b6040516100fe919061829b565b60405180910390f35b34801561011357600080fd5b5061012e60048036038101906101299190617aca565b610dd9565b005b34801561013c57600080fd5b506101456111e4565b6040516101529190618157565b60405180910390f35b34801561016757600080fd5b50610170611ac6565b60405161017d9190618157565b60405180910390f35b34801561019257600080fd5b5061019b612841565b6040516101a89190618157565b60405180910390f35b3480156101bd57600080fd5b506101c6613123565b6040516101d39190618179565b60405180910390f35b3480156101e857600080fd5b506101f16131b1565b6040516101fe9190618157565b60405180910390f35b610221600480360381019061021c9190617b61565b613f2c565b005b34801561022f57600080fd5b5061024a60048036038101906102459190617aca565b614d8d565b005b34801561025857600080fd5b50610273600480360381019061026e9190617aca565b615199565b005b600260005414156102bb576040517f08c379a00000000000000000000000000000000000000000000000000000000081526004016102b29061827b565b60405180910390fd5b60026000819055506102ef7fce225872c6dced3665beec03ccb12cef74a3271767c0ca34c64caa923b80242a60001b6155a5565b61031b7f1323fb38451aca7270d138706b745515259c5ae19144b5d1b0d79732e17081ce60001b6155a5565b6103477fee734aff5bc82bde0e97a79474abca482fbd6c41dfc822fb682f7bda0045b74260001b6155a5565b6103737fd8ee4d9eddf2ee47367ad57d440be17885da3f28a67debe95c0916bc1589ea5360001b6155a5565b81518351146103b7576040517f08c379a00000000000000000000000000000000000000000000000000000000081526004016103ae9061825b565b60405180910390fd5b6103e37f55f203aa50f16e213ef613d324f37a086c8db69d4681a1a1fb14655ab7cc6aff60001b6155a5565b61040f7fc8213e7d012ccb11824fbf947209fe9db810ddef149c562c1182bb464e41fb7560001b6155a5565b61043b7fc2f5d4b98f0ce79934e027a09aa5f05c8979e8884aaa38fb053a55e1c1b7008860001b6155a5565b6104677f4afb693150ebc803c9b9b407e29c0787bf450a039a687fdc6d36784d996c592b60001b6155a5565b80518351146104ab576040517f08c379a00000000000000000000000000000000000000000000000000000000081526004016104a29061821b565b60405180910390fd5b6104d77f120f3e6026e3ccd889e2aa4aef40acd1ba4209e9570b5d59798f60951e78398a60001b6155a5565b6105037f6ad3315e610968c7ef5617953002108d073f2069711c1769abc1cdf1b45bcb7660001b6155a5565b61052f7f7b8346fe2b001426a8db8ff8c8864347fca068a2c51cf79608051b38319e951c60001b6155a5565b60005b8351811015610673576105677f47b09443ad6b9c906a009bf0a6e80e9c6cccab9f1f6296500f807ace8b289a6c60001b6155a5565b6105937fdc4b9a05170cb35e930301cd2a6241261193dee3b72b1583f895314e96d986e960001b6155a5565b6106608482815181106105cf577f4e487b7100000000000000000000000000000000000000000000000000000000600052603260045260246000fd5b6020026020010151848381518110610610577f4e487b7100000000000000000000000000000000000000000000000000000000600052603260045260246000fd5b60200260200101516002858581518110610653577f4e487b7100000000000000000000000000000000000000000000000000000000600052603260045260246000fd5b60200260200101516155a8565b808061066b90618621565b915050610532565b506001600081905550505050565b60006106af7ffabc0ae6b2ad008967dd438286f56fdd7a9f5ee6ce7a2cc663bb946639c69e7960001b6155a5565b6106db7f45904b6703fe5652187e8881a0b316f2d848d27200aebde94da1f3496eae110a60001b6155a5565b6107077f7d8ae90e468b980021fa75ea6366163f9f268dbaac1652d74279eb072f939b8e60001b6155a5565b60006107357ff3d05d0e26e3fc313f3fb6e9dc2e6ab27b89031be7ee9f3543f81190f8fc00e160001b6155a5565b6107617f1ce58042463b9f02a10ffc238cfe661880fd109cb126715373f7c72f93c45f5360001b6155a5565b6000600360008773ffffffffffffffffffffffffffffffffffffffff1673ffffffffffffffffffffffffffffffffffffffff1681526020019081526020016000208054806020026020016040519081016040528092919081815260200182805480156107ec57602002820191906000526020600020905b8154815260200190600101908083116107d8575b5050505050905061081f7f9b7be32bf7735389781830d5c41b728f2edb7a7fb3d31d38899774ebc91238fd60001b6155a5565b61084b7f370f64d0535346cb0d2e21a8622cc2c914be672c42e67595ebec5352c818664260001b6155a5565b60006108797fdeeb61f89f80d24c37b28d995725a13992a762344f42d4da3e60277d9395b8d560001b6155a5565b6108a57f4054ef2bcad1b721f7cc91e6ea7e4b1f074a4ea0bcf0f79d76ace2389c48857060001b6155a5565b60005b8251811015610d73576108dd7f4b12bda2ba3c04e9eb9adc649707d8e6bd9574c3235dfd3ed466252339a02efa60001b6155a5565b6109097fd061b1446faa6b5b823d3ed8a777fa26f07ac0a093eafa307f8c678441bd672360001b6155a5565b600060016000858481518110610948577f4e487b7100000000000000000000000000000000000000000000000000000000600052603260045260246000fd5b60200260200101518152602001908152602001600020805480602002602001604051908101604052809291908181526020016000905b82821015610b4d57838290600052602060002090600402016040518060e00160405290816000820180546109b1906185be565b80601f01602080910402602001604051908101604052809291908181526020018280546109dd906185be565b8015610a2a5780601f106109ff57610100808354040283529160200191610a2a565b820191906000526020600020905b815481529060010190602001808311610a0d57829003601f168201915b50505050508152602001600182015481526020016002820160009054906101000a900473ffffffffffffffffffffffffffffffffffffffff1673ffffffffffffffffffffffffffffffffffffffff1673ffffffffffffffffffffffffffffffffffffffff1681526020016003820160009054906101000a900473ffffffffffffffffffffffffffffffffffffffff1673ffffffffffffffffffffffffffffffffffffffff1673ffffffffffffffffffffffffffffffffffffffff1681526020016003820160149054906101000a900460ff1660ff1660ff1681526020016003820160159054906101000a900460ff1660ff1660ff1681526020016003820160169054906101000a900460ff1615151515815250508152602001906001019061097e565b505050509050610b7f7f3f47569b0f4c766d7d772be1bb3081443820fe53f82bfa0083a6290943c1cb3e60001b6155a5565b610bab7f6b3dbc2e27b43bef9dd0b119f2ede503dce40918cb071bf9ece74458dad9012460001b6155a5565b60005b8151811015610d5e57610be37fdccf07cc23be5d556fec7289dda66fdb70f691b0550d1ab77dcd6385a134295260001b6155a5565b610c0f7f293d1b8e514aed002ac43114f179820b4d20ecf111fcda5ba1ddf8a1d4fd701360001b6155a5565b8888604051610c1f9291906180f0565b6040518091039020828481518110610c60577f4e487b7100000000000000000000000000000000000000000000000000000000600052603260045260246000fd5b602002602001015160000151805190602001201415610ce457610ca57fbd62002383adeb0663dda15651b583ceb75c31561bb4014600c6388cfb4e6c1160001b6155a5565b610cd17fa677b725f6be7b89822010326718f8b04b384ed39cd4acd1de5a05218d3d969b60001b6155a5565b8580610cdc90618621565b965050610d11565b610d107f5e82ca6b665b43698f6687d164b5fd65646218df52d4cdbddadfdf681904bda760001b6155a5565b5b610d3d7f4023bf8ca586aac5e8fa32987e693e794009eb7007a770eda00663978fdc55f760001b6155a5565b8380610d4890618621565b9450508080610d5690618621565b915050610bae565b50508080610d6b90618621565b9150506108a8565b50610da07fae7ccc1238d9cfcdc30bdfeb1701795f9dd3e3981b992d51960891e3ce41cce960001b6155a5565b610dcc7f84024e72152ddd30f2941ab6ee536c897013e60b83718fd844f71b1191c56cee60001b6155a5565b8293505050509392505050565b60026000541415610e1f576040517f08c379a0000000000000000000000000000000000000000000000000000000008152600401610e169061827b565b60405180910390fd5b6002600081905550610e537f296b5783d6ff777135c28b98e79cd24d43c079525731f443393d617226c5b87c60001b6155a5565b610e7f7fef02c3b67aa5d08584849f107cf97e6c3ada43d270be1bca098c41bedfb968a860001b6155a5565b610eab7f68b6027d5a4d26751c5d13eba0dddc938f57c42fc5130c3e62ba96e8cadf7e7e60001b6155a5565b610ed77fe96c886f6b94afab86a0e0290fa338e96c54a0bc32be917217bcb28d530bd85f60001b6155a5565b8151835114610f1b576040517f08c379a0000000000000000000000000000000000000000000000000000000008152600401610f129061825b565b60405180910390fd5b610f467ed6ed4f3c73c35d46b88b7019cd55124c435deec0c865abc8d5c317a13bdb0660001b6155a5565b610f727ff9039e7dbb7b77d595e9c9d09c377f7e73b020161aa29f070586a3c97e2abcfb60001b6155a5565b610f9e7f21f8dec86290a3056d9e7a6c588256a6125d28570e5fa65300777722813c041660001b6155a5565b610fca7f38c2a31ef7b734bf42835ed23c15e462e09c7689ea38bc8c4e8a715a9cba9c9460001b6155a5565b805183511461100e576040517f08c379a00000000000000000000000000000000000000000000000000000000081526004016110059061821b565b60405180910390fd5b61103a7fffe54561b2c5d37547a8e9c0b6b009e124428530f2b35bed4f022b926d21e8ba60001b6155a5565b6110667f1e1a64e0b6f9bab8804c69150287cbe726c180a6e2a9f15fa64725d4d9b592d960001b6155a5565b6110927ff25a26209f84b743e5750f858c904182f369c13d49286e309da4db17d4e454e660001b6155a5565b60005b83518110156111d6576110ca7f6d5d93d4d666f39e3635f878ab1d6b1cdab1badf6f0133eb352306d3544c59f660001b6155a5565b6110f67f7d29e25132a85bad7441588a2552c5e5ad3acf709ed817a11fa51cf14958f45d60001b6155a5565b6111c3848281518110611132577f4e487b7100000000000000000000000000000000000000000000000000000000600052603260045260246000fd5b6020026020010151848381518110611173577f4e487b7100000000000000000000000000000000000000000000000000000000600052603260045260246000fd5b602002602001015160018585815181106111b6577f4e487b7100000000000000000000000000000000000000000000000000000000600052603260045260246000fd5b60200260200101516155a8565b80806111ce90618621565b915050611095565b506001600081905550505050565b60606112127f222bd5c3c60b207bc6c93b63f280df1d8ee0664faf2a65ba10d7e6aa8d227a2360001b6155a5565b61123e7f33b970841f2c6fe739b21d5ed337b01d15d67cc56029fe918b7d6f22b0a7ed0360001b6155a5565b61126a7f8b9cb3ed2ca9416564be271b8f4bf006a0d89318c8bd24a118e84bd99965b9bc60001b6155a5565b60006112987ff86d9ceb90330b5f7e16f3c0962294212eec37ce00968674754ec3d970eb6f1a60001b6155a5565b6112c47fda89b3d1a6820ee970a17fad959eff2d092cb4846605dca04076ca5cbb0b7d6060001b6155a5565b6000600260003373ffffffffffffffffffffffffffffffffffffffff1673ffffffffffffffffffffffffffffffffffffffff16815260200190815260200160002080548060200260200160405190810160405280929190818152602001828054801561134f57602002820191906000526020600020905b81548152602001906001019080831161133b575b505050505090506113827fc8feee1751f6bd166cc8d5d2ac1e82978364641fb2ba44784c2350763b51ee5f60001b6155a5565b6113ae7fef6a6c6ccabb67335437eda9e43c5cd482a052c201319992c63cd3cc3a27ec3460001b6155a5565b60005b8151811015611489576113e67fcc4910ac7340514801008b98f4376365b8d6d25ea47f3cccf702f41c980c254960001b6155a5565b6114127fdbaff91b5484fb8608ed4763a9380d51863bc0eecb837cf71173bbadbbb5e7d160001b6155a5565b6001600083838151811061144f577f4e487b7100000000000000000000000000000000000000000000000000000000600052603260045260246000fd5b602002602001015181526020019081526020016000208054905083611474919061848b565b9250808061148190618621565b9150506113b1565b506114b67f8cad4bccaca425f2b174b1cbce0578b2dc73d0ab62f36378af4c4b3c7eb0422d60001b6155a5565b6114e27ffb7d4dc8a90eeb933b8ac1088ed842e98fdd6b086eb93e30033834b0ec16075660001b6155a5565b60008267ffffffffffffffff811115611524577f4e487b7100000000000000000000000000000000000000000000000000000000600052604160045260246000fd5b60405190808252806020026020018201604052801561155d57816020015b61154a6175fb565b8152602001906001900390816115425790505b50905061158c7fc6bbae8d0e656826d22a164dbc7a632558db9d4b02b991e82725ea8e867d4c4660001b6155a5565b6115b87f44908b0f88c5bee1a78ced16e0d2c87b30fd133e047051d8523af19fad108ff860001b6155a5565b60006115e67f3d18168eda3d8e2ad718873b04ed6f0194beabeca9efd009f33b4c73b4a7263160001b6155a5565b6116127f62a415ca574ccc183f19407b64765f21778a9c989d771fdfd74cd3a5049b447460001b6155a5565b60005b8351811015611a635761164a7f89345c7a548d73c339a626ae9047f2993f511fa726f73460df044523c7cd437460001b6155a5565b6116767fe8d122382add2474332ddbe6c087227525da81175f64697b2c27a0d390d2977b60001b6155a5565b6000600160008684815181106116b5577f4e487b7100000000000000000000000000000000000000000000000000000000600052603260045260246000fd5b60200260200101518152602001908152602001600020805480602002602001604051908101604052809291908181526020016000905b828210156118ba57838290600052602060002090600402016040518060e001604052908160008201805461171e906185be565b80601f016020809104026020016040519081016040528092919081815260200182805461174a906185be565b80156117975780601f1061176c57610100808354040283529160200191611797565b820191906000526020600020905b81548152906001019060200180831161177a57829003601f168201915b50505050508152602001600182015481526020016002820160009054906101000a900473ffffffffffffffffffffffffffffffffffffffff1673ffffffffffffffffffffffffffffffffffffffff1673ffffffffffffffffffffffffffffffffffffffff1681526020016003820160009054906101000a900473ffffffffffffffffffffffffffffffffffffffff1673ffffffffffffffffffffffffffffffffffffffff1673ffffffffffffffffffffffffffffffffffffffff1681526020016003820160149054906101000a900460ff1660ff1660ff1681526020016003820160159054906101000a900460ff1660ff1660ff1681526020016003820160169054906101000a900460ff161515151581525050815260200190600101906116eb565b5050505090506118ec7f668b9123dd0b448d32735793c50501fdc32929b0ab69e8647df6e34fba14a85560001b6155a5565b6119187f54357b50e80713e1d685c2410e34d8d0d8e09e44e1d9aa9afe54733dedb16ce060001b6155a5565b60005b8151811015611a4e576119507f3b7c8caf3be9495e437ab2ba73df0960d5cafb8ee4c0872ec69608e5966b2d5a60001b6155a5565b61197c7f8e4333b1ac747524b764f899ec7735b80b61936e212e9f79ed1d9e3c8043cb1460001b6155a5565b8181815181106119b5577f4e487b7100000000000000000000000000000000000000000000000000000000600052603260045260246000fd5b60200260200101518585815181106119f6577f4e487b7100000000000000000000000000000000000000000000000000000000600052603260045260246000fd5b6020026020010181905250611a2d7fd84097bb7149014cce2b20c00cef04dc650f81775e4b6c72587f38079d2c53a660001b6155a5565b8380611a3890618621565b9450508080611a4690618621565b91505061191b565b50508080611a5b90618621565b915050611615565b50611a907fd308b0e293211ab0619236057f02623dab12e7c538bea8c6862fef543c584fa960001b6155a5565b611abc7f1713012f2938473c6dbe0565ea0f85e007f54a310e159f8669806d1942e8cba760001b6155a5565b8194505050505090565b6060611af47fad6206ed1d944fc8b49676225681a4d9508db11ba396257151ff180142a0dee760001b6155a5565b611b207f72768c1c3cc5cf295218e11fcffa4fe188a35521f6bcecbead1b51c870144d3160001b6155a5565b611b4c7fa641166883bde9c6ba5df2c7bda4548341969a924594496e7bf99f04c25d79f960001b6155a5565b6000611b7a7f11e7c5ddc2e68d6295c097688e70f297d26f759edbe7663358ba3c8be968379e60001b6155a5565b611ba67fc33871c901941bd26759eca95eb78e139f3c141e776f942c7e675ad232ea244660001b6155a5565b6000600360003373ffffffffffffffffffffffffffffffffffffffff1673ffffffffffffffffffffffffffffffffffffffff168152602001908152602001600020805480602002602001604051908101604052809291908181526020018280548015611c3157602002820191906000526020600020905b815481526020019060010190808311611c1d575b50505050509050611c647f65a41dca29515285f7d4a73a90c5bfd547a71558564e9ea13ed9c93466de43a960001b6155a5565b611c907f69db9f7d211010a0508bfe8a3abd855fd1c1aea0f6a2b57146afdb1a4972a71e60001b6155a5565b6000611cbe7f4842ff640c4e8bec22eca7e262628d247a28ea3fca6ace094a971e51166e1fe260001b6155a5565b611cea7f257f3bd7522fc4e213d06b629efff15c1910e8da4b4557595d82766293b0d9ac60001b6155a5565b60005b825181101561215e57611d227fc2a385ced33ea3fe95b10490bf40eca58778813cd41cc8e3f97b4dbd84d2bd4960001b6155a5565b611d4e7f4fa699d483984876d1e2a3a8853228353221b0088119c6b88068a047f2d5744560001b6155a5565b600060016000858481518110611d8d577f4e487b7100000000000000000000000000000000000000000000000000000000600052603260045260246000fd5b60200260200101518152602001908152602001600020805480602002602001604051908101604052809291908181526020016000905b82821015611f9257838290600052602060002090600402016040518060e0016040529081600082018054611df6906185be565b80601f0160208091040260200160405190810160405280929190818152602001828054611e22906185be565b8015611e6f5780601f10611e4457610100808354040283529160200191611e6f565b820191906000526020600020905b815481529060010190602001808311611e5257829003601f168201915b50505050508152602001600182015481526020016002820160009054906101000a900473ffffffffffffffffffffffffffffffffffffffff1673ffffffffffffffffffffffffffffffffffffffff1673ffffffffffffffffffffffffffffffffffffffff1681526020016003820160009054906101000a900473ffffffffffffffffffffffffffffffffffffffff1673ffffffffffffffffffffffffffffffffffffffff1673ffffffffffffffffffffffffffffffffffffffff1681526020016003820160149054906101000a900460ff1660ff1660ff1681526020016003820160159054906101000a900460ff1660ff1660ff1681526020016003820160169054906101000a900460ff16151515158152505081526020019060010190611dc3565b505050509050611fc47f2e5aadbab38b4ad138ff95cd1314e48eb1ce2ffcb88bd7474e840d348cd217c560001b6155a5565b611ff07fc6188a527919ed1692de0f11b858f63480c26c58d0c97316badeccccf95f1ecc60001b6155a5565b60005b8151811015612149576120287f4137c928fa73878f4eac334003fcee907b8d51ca50cc787a3f854eba75e0ab9160001b6155a5565b6120547ffb51f2a388472d861b8957a7fe78496b4a8f771c31f60c8c93ca62085d79844760001b6155a5565b81818151811061208d577f4e487b7100000000000000000000000000000000000000000000000000000000600052603260045260246000fd5b602002602001015160c0015115612109576120ca7f57c0d03956a5aa0419bd7753bcb87b13fcf5a4932e6d81f3ec4d165c5114141f60001b6155a5565b6120f67f159957f85714e751ecb111f2bed780b88b53d348eec47132e6010a89f94428f760001b6155a5565b858061210190618621565b965050612136565b6121357f2c7a536a10b4ea5449aa2a553d0fc09f7f6b102cf963b5fe066a8b817de8b6f360001b6155a5565b5b808061214190618621565b915050611ff3565b5050808061215690618621565b915050611ced565b5061218b7ff8ee68f24503fec4497a9ac0c120b2bc89ed7dfedd2aa7c567cf60424e6104c860001b6155a5565b6121b77fcd71eb1c75989473a9b68cbe8da397f3c7432360cdd4e5dd35ae4412ad6471d360001b6155a5565b60008367ffffffffffffffff8111156121f9577f4e487b7100000000000000000000000000000000000000000000000000000000600052604160045260246000fd5b60405190808252806020026020018201604052801561223257816020015b61221f6175fb565b8152602001906001900390816122175790505b5090506122617fbdccc5d7f87e296b249c97a33cb8ec5d7df3d8081d356d5b45a37b48b98f037d60001b6155a5565b61228d7ffde27b7f3517e798add8a57c171d8be4a17c74de0c25e18a6bee3726b570bf7160001b6155a5565b60005b83518110156127de576122c57f4b093ba129723397d09862c5b7828dcce34dea49a29f9851d0a3072f97e0341a60001b6155a5565b6122f17f01dd144b7bc76e89f8390e4538b78676df4462a11bc9b922c3e7aa7ff11e49e660001b6155a5565b600060016000868481518110612330577f4e487b7100000000000000000000000000000000000000000000000000000000600052603260045260246000fd5b60200260200101518152602001908152602001600020805480602002602001604051908101604052809291908181526020016000905b8282101561253557838290600052602060002090600402016040518060e0016040529081600082018054612399906185be565b80601f01602080910402602001604051908101604052809291908181526020018280546123c5906185be565b80156124125780601f106123e757610100808354040283529160200191612412565b820191906000526020600020905b8154815290600101906020018083116123f557829003601f168201915b50505050508152602001600182015481526020016002820160009054906101000a900473ffffffffffffffffffffffffffffffffffffffff1673ffffffffffffffffffffffffffffffffffffffff1673ffffffffffffffffffffffffffffffffffffffff1681526020016003820160009054906101000a900473ffffffffffffffffffffffffffffffffffffffff1673ffffffffffffffffffffffffffffffffffffffff1673ffffffffffffffffffffffffffffffffffffffff1681526020016003820160149054906101000a900460ff1660ff1660ff1681526020016003820160159054906101000a900460ff1660ff1660ff1681526020016003820160169054906101000a900460ff16151515158152505081526020019060010190612366565b5050505090506125677f1d25a4572e5b43e6ad13e6aef2a77ab8cfc84a45df00a57970d2294be4473dbf60001b6155a5565b6125937fd044879869dd767d40ada8e5d04c491e4f6a09184b6da47bf82cc0660b0925f260001b6155a5565b60005b81518110156127c9576125cb7fd8688389a6d2749bebe5c9b05535ff01c22e2360e9f66f80f2eaffd1f2e8bcfd60001b6155a5565b6125f77fc160eddd79bcc37b560f1f48cf5891ef581023c46028421b890af30e521d6ec360001b6155a5565b818181518110612630577f4e487b7100000000000000000000000000000000000000000000000000000000600052603260045260246000fd5b602002602001015160c00151156127895761266d7f6be84b3aac49dec470303b652c19738f59fee74fd80e9f262991a013e5dd368860001b6155a5565b6126997fb4cce98b5a4c3ed3972aed5cb02600605c32c4a439b5f6a403ac9d2580fe905e60001b6155a5565b6126c57f885ea0ffd9d8c5b0f2bcf4198c35b566f9db76fc97e7e0db303f5fc22f18497560001b6155a5565b8181815181106126fe577f4e487b7100000000000000000000000000000000000000000000000000000000600052603260045260246000fd5b602002602001015184868151811061273f577f4e487b7100000000000000000000000000000000000000000000000000000000600052603260045260246000fd5b60200260200101819052506127767f4bd4688547bfbd4a4e034dd8a99df8c9e1341893c110a9fdb299a4756e9a31ef60001b6155a5565b848061278190618621565b9550506127b6565b6127b57fcd3566958c7f42143eb53afe51bee3766e338394ed7aaa6f1d3613cabfe9cd8260001b6155a5565b5b80806127c190618621565b915050612596565b505080806127d690618621565b915050612290565b5061280b7f9d37c55cfd143ffd9646690a068637aa5574c3967df72cdfeba69a734b00279c60001b6155a5565b6128377fe52d950f7baa7e7cc9822ac0f9b0da8d1625ca2139bd9e49e3c127c0facaff3860001b6155a5565b8094505050505090565b606061286f7f8f836ace9f16af12100566a1bb15a8bd46a7cc3e3c96f7edf84ef77ad9e45d6b60001b6155a5565b61289b7f47936fee125bfe93da8e14a79c72441835628bdd1edb497cd38a5797947803f960001b6155a5565b6128c77fbe20d91755cc0a7875a492a5ad5ee4395c711990d9a2cee81bf0f526c473543d60001b6155a5565b60006128f57f734f758d8f8c9f4e05d69b291d4c87862a31d008f5d7d2983c65b7c08a8fcae460001b6155a5565b6129217f9a10f36028b814bfd210594b9f4f446554fd1db55b0a9230bb4aec4ed157107660001b6155a5565b6000600360003373ffffffffffffffffffffffffffffffffffffffff1673ffffffffffffffffffffffffffffffffffffffff1681526020019081526020016000208054806020026020016040519081016040528092919081815260200182805480156129ac57602002820191906000526020600020905b815481526020019060010190808311612998575b505050505090506129df7f6900b700b10c8059b800c61bb5f0a4760084f1a523e344bbf9e8c22511fa72cf60001b6155a5565b612a0b7f074275c4a970010ed2994c08e872a9343da3d950847ea6bd21b921cd4258757060001b6155a5565b60005b8151811015612ae657612a437f3d2dd2fcdefc969b4c256cf01804ccb632d9c41762a0b0afb721c6354fe7ad6560001b6155a5565b612a6f7fd2da66384332bc26d5e13f61e41cf56c19b09c4df9be80dbd3e616e1085c3ab960001b6155a5565b60016000838381518110612aac577f4e487b7100000000000000000000000000000000000000000000000000000000600052603260045260246000fd5b602002602001015181526020019081526020016000208054905083612ad1919061848b565b92508080612ade90618621565b915050612a0e565b50612b137fb5e67bfa225c8d1c79d21dc7209fadc562d0fc584154d9ac52f7546bcdba2b3960001b6155a5565b612b3f7f06707e0ba162d204714adb92118fddaf7e34eea61c8791b8b8d290574da6e58b60001b6155a5565b60008267ffffffffffffffff811115612b81577f4e487b7100000000000000000000000000000000000000000000000000000000600052604160045260246000fd5b604051908082528060200260200182016040528015612bba57816020015b612ba76175fb565b815260200190600190039081612b9f5790505b509050612be97f84e8d720bd40d7ccf8b0efdbec8131eb1209e1b238bb32e57787b93e06a2324b60001b6155a5565b612c157fce06d370584663254270c9f2f07e920e321d01582c9b7ce5c553ea839f3eed7860001b6155a5565b6000612c437f7db7c1d2d8114cbbf223dcfba533c9b05d474b8edaf6b93c8db7c966299743c060001b6155a5565b612c6f7f9b0e063fd8edd5c792d59f8bac934ef756337e86e2f8c0a71eb1ecd3e3a72aab60001b6155a5565b60005b83518110156130c057612ca77f65ebc68c04f854b76e1956929d07bc2cde8ea1951eb9ee6fdf4cc3cc17d848ed60001b6155a5565b612cd37f5559521831722fbf24c439d3a5a639ec36292d6298640fdd2f0ae082e47f55a260001b6155a5565b600060016000868481518110612d12577f4e487b7100000000000000000000000000000000000000000000000000000000600052603260045260246000fd5b60200260200101518152602001908152602001600020805480602002602001604051908101604052809291908181526020016000905b82821015612f1757838290600052602060002090600402016040518060e0016040529081600082018054612d7b906185be565b80601f0160208091040260200160405190810160405280929190818152602001828054612da7906185be565b8015612df45780601f10612dc957610100808354040283529160200191612df4565b820191906000526020600020905b815481529060010190602001808311612dd757829003601f168201915b50505050508152602001600182015481526020016002820160009054906101000a900473ffffffffffffffffffffffffffffffffffffffff1673ffffffffffffffffffffffffffffffffffffffff1673ffffffffffffffffffffffffffffffffffffffff1681526020016003820160009054906101000a900473ffffffffffffffffffffffffffffffffffffffff1673ffffffffffffffffffffffffffffffffffffffff1673ffffffffffffffffffffffffffffffffffffffff1681526020016003820160149054906101000a900460ff1660ff1660ff1681526020016003820160159054906101000a900460ff1660ff1660ff1681526020016003820160169054906101000a900460ff16151515158152505081526020019060010190612d48565b505050509050612f497f9527a8974c33d6d4bb4f55d041ba131ede4d899466e087a03132e41217d9cd3260001b6155a5565b612f757f7a03cb84e8651c1563291dbec1969f8ef760d6567fa70a0de923a0d5f4203d8460001b6155a5565b60005b81518110156130ab57612fad7f7f55289962b2a920cbcb7a2739bfa47910b3a04cfa97a565f82c6b89c240f8a260001b6155a5565b612fd97f58a9495b12b90e23bc6227ef5d2873565bc33379c80c57122bdf06e79c51526d60001b6155a5565b818181518110613012577f4e487b7100000000000000000000000000000000000000000000000000000000600052603260045260246000fd5b6020026020010151858581518110613053577f4e487b7100000000000000000000000000000000000000000000000000000000600052603260045260246000fd5b602002602001018190525061308a7f71840e5e01b7b978014869a332b1147b036955469c3a5dfc4c6144eaba278fdc60001b6155a5565b838061309590618621565b94505080806130a390618621565b915050612f78565b505080806130b890618621565b915050612c72565b506130ed7f05dc11c95ba7355164c5ee96b3bce3ce8794a72cfe432d605e5ec8c8a4b6412c60001b6155a5565b6131197fce631827f523dee1c0d90cc3bb88f04ea89caea28fec6a0317576739b31b43be60001b6155a5565b8194505050505090565b60048054613130906185be565b80601f016020809104026020016040519081016040528092919081815260200182805461315c906185be565b80156131a95780601f1061317e576101008083540402835291602001916131a9565b820191906000526020600020905b81548152906001019060200180831161318c57829003601f168201915b505050505081565b60606131df7f63276596c358bd1154b1ccbc35c3bb881e337671a79d5ff41f0cc509be6fa8db60001b6155a5565b61320b7fd47552340fcd501acea69f4472e1f5c554d91cd3c29a8cabfdba34e2afb90da960001b6155a5565b6132377fdb0b76a0dce10b2c616aa1471cd7e36a8bca49a227c1fa3ff435fca911a3078760001b6155a5565b60006132657fd1716a729a89f69d72600f9179565b94f6a653437de7494ac79f6e267a4eb9e360001b6155a5565b6132917fd1a4b36a0259ba81d9df120e50dedfa0ca8f2ce16591750f9a8b52cecf3cf78360001b6155a5565b6000600260003373ffffffffffffffffffffffffffffffffffffffff1673ffffffffffffffffffffffffffffffffffffffff16815260200190815260200160002080548060200260200160405190810160405280929190818152602001828054801561331c57602002820191906000526020600020905b815481526020019060010190808311613308575b5050505050905061334f7f0513a72309a2a8d7a8094c5887b6fb62b8c25db21579393274f45e9133cd0d2e60001b6155a5565b61337b7f113afc036953b4909e0635f0741a0bf8fe4b5ef556a78795c768ca79ef77066860001b6155a5565b60006133a97f0ecda4a5019fa6f29cc5817d8c535c33fc1b0912763a43ae059b49910297297860001b6155a5565b6133d57f88e63cf5e013c950455c818379506489606dd0b9ebda5af3a3630ca0d877e2e560001b6155a5565b60005b82518110156138495761340d7f18bf3c9e77bc5454590b39419fd6a0afe4342be7be03fb33e5541b993a0a6cbb60001b6155a5565b6134397fc149372d9057fc7505c5a5c907fe0aadf90e0232a921f7eb32698a7b5eb070f460001b6155a5565b600060016000858481518110613478577f4e487b7100000000000000000000000000000000000000000000000000000000600052603260045260246000fd5b60200260200101518152602001908152602001600020805480602002602001604051908101604052809291908181526020016000905b8282101561367d57838290600052602060002090600402016040518060e00160405290816000820180546134e1906185be565b80601f016020809104026020016040519081016040528092919081815260200182805461350d906185be565b801561355a5780601f1061352f5761010080835404028352916020019161355a565b820191906000526020600020905b81548152906001019060200180831161353d57829003601f168201915b50505050508152602001600182015481526020016002820160009054906101000a900473ffffffffffffffffffffffffffffffffffffffff1673ffffffffffffffffffffffffffffffffffffffff1673ffffffffffffffffffffffffffffffffffffffff1681526020016003820160009054906101000a900473ffffffffffffffffffffffffffffffffffffffff1673ffffffffffffffffffffffffffffffffffffffff1673ffffffffffffffffffffffffffffffffffffffff1681526020016003820160149054906101000a900460ff1660ff1660ff1681526020016003820160159054906101000a900460ff1660ff1660ff1681526020016003820160169054906101000a900460ff161515151581525050815260200190600101906134ae565b5050505090506136af7f36012d30e5c326b8aed1ecfc279d035a2897e9a0e74e3aed9665342626bc187460001b6155a5565b6136db7fd9d9676a3042bb24e4bb5a1984897329c83b813593707a98ef107dc8ab143d3360001b6155a5565b60005b8151811015613834576137137f5d0b16690b569389ac46dea954d4b9ae434e965706654b262ff5d38eb0a4b03160001b6155a5565b61373f7f488569a5d444a81a1c6b456542bdfed94ee03c62550e7e63389ffe33ee2f4a1c60001b6155a5565b818181518110613778577f4e487b7100000000000000000000000000000000000000000000000000000000600052603260045260246000fd5b602002602001015160c00151156137f4576137b57f7833acc5163c711ed8e8aae2896ae961f2858b87843023654ae70398059e404b60001b6155a5565b6137e17fe47c97f4fd576bbcebb9d31be91a11ac896889a6984added6cc8ed77c3152e0060001b6155a5565b85806137ec90618621565b965050613821565b6138207f90b9d60c0ea7578eea449e74c7d014bd0b6b11defd0ae16bdf2507f786ac44dc60001b6155a5565b5b808061382c90618621565b9150506136de565b5050808061384190618621565b9150506133d8565b506138767f40663ee4f026a9ab72187dfcbeb95f6e3d3a0170da79b6da2b8b871a3121d15c60001b6155a5565b6138a27fd3010ca31cce6cc98c76621550ed8bd91b1f600d9dfa066b7d9753de1f4a563460001b6155a5565b60008367ffffffffffffffff8111156138e4577f4e487b7100000000000000000000000000000000000000000000000000000000600052604160045260246000fd5b60405190808252806020026020018201604052801561391d57816020015b61390a6175fb565b8152602001906001900390816139025790505b50905061394c7f33837f06265691ac687b790a025204a4bbe6a7093869e3db920f4a6c2072315360001b6155a5565b6139787f678f83765ee733af44f468743ec19c50b610673853f2c9a3d5631938d6911f8760001b6155a5565b60005b8351811015613ec9576139b07f01aa34b85bd9593cdc34396d826594fb9a227cd27d4b3e9caf29dfde36ebc8cb60001b6155a5565b6139dc7f7b240bef50087b5f39e892384410ec7e595bc55541f465150e660e25db992c4260001b6155a5565b600060016000868481518110613a1b577f4e487b7100000000000000000000000000000000000000000000000000000000600052603260045260246000fd5b60200260200101518152602001908152602001600020805480602002602001604051908101604052809291908181526020016000905b82821015613c2057838290600052602060002090600402016040518060e0016040529081600082018054613a84906185be565b80601f0160208091040260200160405190810160405280929190818152602001828054613ab0906185be565b8015613afd5780601f10613ad257610100808354040283529160200191613afd565b820191906000526020600020905b815481529060010190602001808311613ae057829003601f168201915b50505050508152602001600182015481526020016002820160009054906101000a900473ffffffffffffffffffffffffffffffffffffffff1673ffffffffffffffffffffffffffffffffffffffff1673ffffffffffffffffffffffffffffffffffffffff1681526020016003820160009054906101000a900473ffffffffffffffffffffffffffffffffffffffff1673ffffffffffffffffffffffffffffffffffffffff1673ffffffffffffffffffffffffffffffffffffffff1681526020016003820160149054906101000a900460ff1660ff1660ff1681526020016003820160159054906101000a900460ff1660ff1660ff1681526020016003820160169054906101000a900460ff16151515158152505081526020019060010190613a51565b505050509050613c527f45d0e05ef3545c939bb4bbec5b129ea892640b193835c3521dcc298d064b67ff60001b6155a5565b613c7e7f29ac35bb54bb3a6cd2bb183cdd5551811c6760a50bff6d144ab64551e93e2c6960001b6155a5565b60005b8151811015613eb457613cb67fbd6bf9f362ddfc8ded0d0271dbbf6052fab03969af91163e89c842a669ead3f560001b6155a5565b613ce27fc5eb8b1f93279b9ddceac691834f8d7d3ffcde19d6c46248df268b9d8eff797260001b6155a5565b818181518110613d1b577f4e487b7100000000000000000000000000000000000000000000000000000000600052603260045260246000fd5b602002602001015160c0015115613e7457613d587f60b82b93ca2b285b36f1c21cf2071c908fa9f2a5fc3ff2a3777f7f09daf01a4a60001b6155a5565b613d847f48d8b01496cbbaf52ae2fa84c9a829a9cf90666fc4e858c6473fe3520919807060001b6155a5565b613db07f804b86cdb370fd74d72bece4aaacdcbb9d0217463b54eaa37520c0d11dfa757860001b6155a5565b818181518110613de9577f4e487b7100000000000000000000000000000000000000000000000000000000600052603260045260246000fd5b6020026020010151848681518110613e2a577f4e487b7100000000000000000000000000000000000000000000000000000000600052603260045260246000fd5b6020026020010181905250613e617fc599e9f8c7b3fffc6c6a3e5406de671c75ecc78de6cd64bca191cb1123a9daf260001b6155a5565b8480613e6c90618621565b955050613ea1565b613ea07f2e5ac1126f2af602ceab1d5aaa0f92e76ce7002d565eeea08a16e78692da5e4860001b6155a5565b5b8080613eac90618621565b915050613c81565b50508080613ec190618621565b91505061397b565b50613ef67fa5689d8cff4a9e4ae641dad46297d32ec284015c6bdfe3885352edf9891ec03860001b6155a5565b613f227f0da1717149ca941f2633ca94680e7b3bd909a08319b2ca99cf99673b1c0edc1560001b6155a5565b8094505050505090565b60026000541415613f72576040517f08c379a0000000000000000000000000000000000000000000000000000000008152600401613f699061827b565b60405180910390fd5b6002600081905550613fa67fe4ca7d1344cb3de64511a104ef3f975484959d7bae8c0b2aef6ba92b08e3bf2a60001b6155a5565b613fd27fb9e5ded4758982dbbe00a37d7edbc8a9e823fe5950566a60a2774bc8c40d881b60001b6155a5565b613ffe7f89ec7b5d6bb858108c2d4fabd59e19299dce1d5a7c1a73ef425c7aa01c38446360001b6155a5565b61402a7fd0a816930603fb3a680490dee0f10fb1c2ec964e4492f407a5d00a07f9014f7560001b6155a5565b815183511461406e576040517f08c379a0000000000000000000000000000000000000000000000000000000008152600401614065906181db565b60405180910390fd5b61409a7f216c06d339af1fe21290b7a9b37a4e4656f8d8006c9a4323cc87377f1fa5253a60001b6155a5565b6140c67f3bb2f83bc0c17a6137ca255e10f3484619c3cae4af4cfb44b762ef085a0d98be60001b6155a5565b6140f27f7ebcbb5cf2f8762a3b999f93e8eef249d224483017b2ef5c20a9206b739ec7e960001b6155a5565b60003490506141237fc43178b6b68b23d247436e7543013cf3a8168bb4e5a06e7c1c236714ca87ab6960001b6155a5565b61414f7fd85d814eb6f97f3d4c903ab01bdd88c27209709aad20258f1747d244877d162760001b6155a5565b60003490506141807f75a6c25dfbd8c8c6fc43eb5a11096034f8a172bc81243124188edbe327cbdad760001b6155a5565b6141ac7f14c8814a49fea40f942df7e75f29dcf3d2082892e5c0fd2b0321dcd67f86c23260001b6155a5565b60005b8551811015614ceb576141e47f16563cd738c0536a8035e24e6803fd8b967248ba15d3c3e7404774999e517a6e60001b6155a5565b6142107fae1f12ef2098e13e4b96551839865bec433bbad9694e54da39a487e292d0a85960001b6155a5565b61423c7feb8d9bc145985444be2308fb932bb65d1d961da4ff318c0efaa2e4ee337548ab60001b6155a5565b848181518110614275577f4e487b7100000000000000000000000000000000000000000000000000000000600052603260045260246000fd5b60200260200101518210156142bf576040517f08c379a00000000000000000000000000000000000000000000000000000000081526004016142b6906181bb565b60405180910390fd5b6142eb7f78e9b43f2eb3d84d3129049f3b51f51310c87fcb9b56d49aec97930b5bcf652e60001b6155a5565b6143177fa5afbe5b74af0a7398e583d8a07e66c68500fd4bae70f467f49a5adbdd15562e60001b6155a5565b6143437f8b0d74648df624ca7d4b47fcd16e459b254775bfbb387097e614fce4099b236360001b6155a5565b84818151811061437c577f4e487b7100000000000000000000000000000000000000000000000000000000600052603260045260246000fd5b60200260200101518261438f91906184e1565b91506143bd7fba521e97adba263f57ca0b67fec7519b76b2703ae24177c0ad99b2927a7bed0a60001b6155a5565b6143e97f7e7732563b0555388341742316d7e774ba8274a40c3b64e21ec57740c93dc14660001b6155a5565b6143f16175fb565b61441d7f6c783e909c09e578e42e0552e5e747992a85393c2da6f04292fc9e48dd66297760001b6155a5565b6144497f2819975c4b6aaf9bf615dfc3e1e6036d6dd5692ee2f013289d22115ee3c50a3e60001b6155a5565b33816040019073ffffffffffffffffffffffffffffffffffffffff16908173ffffffffffffffffffffffffffffffffffffffff16815250506144ad7f2a827d34bf1695d6984effd232f01396735bbe4e6902937f35867c41b0ab8c0b60001b6155a5565b6144d97f5c3689dc7d4c4d092da08247b8c33ef8d3461345eb406148ab89e4e06189d37960001b6155a5565b868281518110614512577f4e487b7100000000000000000000000000000000000000000000000000000000600052603260045260246000fd5b6020026020010151816060019073ffffffffffffffffffffffffffffffffffffffff16908173ffffffffffffffffffffffffffffffffffffffff168152505061457d7f89fa96a3b4f1bc915d13dd6d6aa930d877f86f68aaadadf0da7af14bfd6af6c960001b6155a5565b6145a97f45bc537c8142bc77490b94ab3baf00dca3395881a78ad2706d8c0b6395d7d97060001b6155a5565b60018160a0019060ff16908160ff16815250506145e87f4e993a250feb410e43e54657ead082d7afeb15da55ab1e8003195936925dd55460001b6155a5565b6146147f76a698951d2f0589b4a1b8cd97cc1471d1eedea4345582d2174a35cd72db144260001b6155a5565b6000816080019060ff16908160ff16815250506146537f428ba52e3191617290e9e2c9de1d51d220d542a8591c3f926b9ef7d8eb8c36e960001b6155a5565b61467f7f890b3f539efcfb1826291e772e3c422900469b05869eabf7ba258329933aab3760001b6155a5565b8582815181106146b8577f4e487b7100000000000000000000000000000000000000000000000000000000600052603260045260246000fd5b60200260200101518160200181815250506146f57f9b2fd3f30f4c2553165a82df8c546e6685c457072d753c9f89ebbbefa534310660001b6155a5565b6147217ff39d1afa5322f0c9315a9384a89edcee160eb9381921b67c9dcb7cb2229556e360001b6155a5565b84828151811061475a577f4e487b7100000000000000000000000000000000000000000000000000000000600052603260045260246000fd5b602002602001015181600001819052506147967f93f63b7d8f453acd3e3c7fc48135f41ca9ac56139240a1629347e4712b8e6d6e60001b6155a5565b6147c27f926c405000f4b941695fb53a0602755d8d6067f3178f62f24cda165b299246ea60001b6155a5565b60018160c00190151590811515815250506147ff7f3d6e390250b25172f55c5c80cd52d5f6e51836980978f96811a728a7ce5c5ddc60001b6155a5565b61482b7f1d6cfd7c74f91907e625b6c0bcc56d64313eb40de74806e9b312f6faec24ad7460001b6155a5565b600033888481518110614867577f4e487b7100000000000000000000000000000000000000000000000000000000600052603260045260246000fd5b60200260200101516040516020016148809291906180c4565b6040516020818303038152906040528051906020012090506148c47f6bf082f63849c31b4c8c3b4473eaa119d0561d658bd8369183edca56da4abc5060001b6155a5565b6148f07f0987b899e26724efd03f435e3d6070a33bb9fcb90f4438d8b72541dbc8c4712160001b6155a5565b60016000828152602001908152602001600020829080600181540180825580915050600190039060005260206000209060040201600090919091909150600082015181600001908051906020019061494992919061766c565b506020820151816001015560408201518160020160006101000a81548173ffffffffffffffffffffffffffffffffffffffff021916908373ffffffffffffffffffffffffffffffffffffffff16021790555060608201518160030160006101000a81548173ffffffffffffffffffffffffffffffffffffffff021916908373ffffffffffffffffffffffffffffffffffffffff16021790555060808201518160030160146101000a81548160ff021916908360ff16021790555060a08201518160030160156101000a81548160ff021916908360ff16021790555060c08201518160030160166101000a81548160ff0219169083151502179055505050614a727f11f6b79c65525aa967486c6da616a4420514d61bb51407772d0c532f76ea29d460001b6155a5565b614a9e7ff2721113512ebc1b43b7f48516fd97bcaf4f0188fca67e55c2d5e34da71baa7760001b6155a5565b6001806000838152602001908152602001600020805490501415614ca957614ae87f3e15ac9fddbe850b91276bae678e955b1c6136882dff381b6727c7aa57247b9960001b6155a5565b614b147fa5a1f44274239ec653f97a096a02cc427ec2ccdb40a1e78eb5001aa6aa59060d60001b6155a5565b614b407f42e8d3193f76acb434a3d1ce3e28a5e5bc81c5285c8029f6e4bb0786e92f7fa260001b6155a5565b600260003373ffffffffffffffffffffffffffffffffffffffff1673ffffffffffffffffffffffffffffffffffffffff168152602001908152602001600020819080600181540180825580915050600190039060005260206000200160009091909190915055614bd27ffb2b7766d36631949b4feed8ffbc44e138a8cbc95b7a2ea5d24d412ad988f5d160001b6155a5565b614bfe7fa7856fff9b2eefa15261b63e3af3f2a861c78a95023897ff28082b04618c783b60001b6155a5565b60036000898581518110614c3b577f4e487b7100000000000000000000000000000000000000000000000000000000600052603260045260246000fd5b602002602001015173ffffffffffffffffffffffffffffffffffffffff1673ffffffffffffffffffffffffffffffffffffffff168152602001908152602001600020819080600181540180825580915050600190039060005260206000200160009091909190915055614cd6565b614cd57f0d2c67bbb2124decc73f222ef0d8cdbdd58b490548fa38cefe847df196019ee460001b6155a5565b5b50508080614ce390618621565b9150506141af565b50614d187fc843fd2ccfe6c9decf472a967292823a6e62bd006855c646d1174987acfd702060001b6155a5565b614d447f6c1b83ca75e1706039e7106745f4bd735318a69b3ca7667e69931e392344032d60001b6155a5565b7fc05dae71ad6ebf2680862ebed51b27e8ea99855a67cfc24e7a3e0212c34e5e2f826001604051614d769291906182b6565b60405180910390a150506001600081905550505050565b60026000541415614dd3576040517f08c379a0000000000000000000000000000000000000000000000000000000008152600401614dca9061827b565b60405180910390fd5b6002600081905550614e077f381ad280a6da1adb8a0d159d48dcc739ccb4e8d545d9568669bcb372a48d581160001b6155a5565b614e337f4f9aed166026740f6be5a9defa129872471f87df57eb0cca99a2a59c9f5a604c60001b6155a5565b614e5f7f4b777db8724acf451cc2b278a6bf728e23e441b33563be0424b79449dffad6de60001b6155a5565b614e8b7f73ae1a0bc210f2e15ab5594382a0822fe26ffede8e795bf49db704c4de7c884660001b6155a5565b8151835114614ecf576040517f08c379a0000000000000000000000000000000000000000000000000000000008152600401614ec69061825b565b60405180910390fd5b614efb7f6a867b3b26d8b770d11bc734ae1fed92d037196ec09b3f643609b18761345a2d60001b6155a5565b614f277f6cf636fcce5b8bdd6a30ba3eabb6ca449b559097a75fd76d61b12454d413b27b60001b6155a5565b614f537f7dc49570188db9cd4a6fbb57b3b0b6fa73e89f7ddf170dc590f18a18a74d3fcb60001b6155a5565b614f7f7f885e80c7e978c4b28a2e15d370ec559b614e54ac96ab936a7d09e6aec6555ed360001b6155a5565b8051835114614fc3576040517f08c379a0000000000000000000000000000000000000000000000000000000008152600401614fba9061821b565b60405180910390fd5b614fef7f509c5c4d1ef1f7f5ef2933a2b01652fc31aeb268183d53aca7cd34068486fcff60001b6155a5565b61501b7f975969b3eea1901f9b5808678472c07da2e5b897f3038c0223b87c79414e245d60001b6155a5565b6150477f8e7240870454a1cc59670ae72d51d3dbe6c80a0bb2daa7186bc241e9856dccfd60001b6155a5565b60005b835181101561518b5761507f7f884f425d5efdc9b7b2680d30dea37b4ed737818cfd107f8dc5dcab69e0e5cdd260001b6155a5565b6150ab7fdf194bc1cc9218e47181df0dc47e49ce37a09b617a0827c4f9340789469f9de660001b6155a5565b6151788482815181106150e7577f4e487b7100000000000000000000000000000000000000000000000000000000600052603260045260246000fd5b6020026020010151848381518110615128577f4e487b7100000000000000000000000000000000000000000000000000000000600052603260045260246000fd5b6020026020010151600185858151811061516b577f4e487b7100000000000000000000000000000000000000000000000000000000600052603260045260246000fd5b6020026020010151616360565b808061518390618621565b91505061504a565b506001600081905550505050565b600260005414156151df576040517f08c379a00000000000000000000000000000000000000000000000000000000081526004016151d69061827b565b60405180910390fd5b60026000819055506152137f0fb46a91f9d1091a2293a8b6b5ff02cb52d6005faa1faea8c37b4356c376a72360001b6155a5565b61523f7f887e6e69df35b0a71d56be8f57572d3a3900e00c610d782a7e7d767aaec3454160001b6155a5565b61526b7ff4f39df32f3ba0986946319005f702c22d02b339084dc0f5134465570ea7e41360001b6155a5565b6152977f9ada3eff898cdd6c516c8a7c501b7b28aa85ad689737de962acfd659c405999260001b6155a5565b81518351146152db576040517f08c379a00000000000000000000000000000000000000000000000000000000081526004016152d29061825b565b60405180910390fd5b6153077fbc824a199d35fba14dd21eb9699be03f8068ef5f847d53a2a5b2114c8aa7f34e60001b6155a5565b6153337f64a43fba3dafac21dac5a16729b7621bc2ad3fdd6013fe9df0e8e8a4d17ded8260001b6155a5565b61535f7f102792acea8042302dd4ea8142450df56cbd9bd914e354ce1c81a4ba36dff65460001b6155a5565b61538b7f7345ab6d4b8a37aa58311dc7867225e4fe738d8694e17d5fa3aad97dbd8ffbf360001b6155a5565b80518351146153cf576040517f08c379a00000000000000000000000000000000000000000000000000000000081526004016153c69061821b565b60405180910390fd5b6153fb7f8af34646974b93ec249c42c5f734d8cce595536ce3540395f9aa19796569e9cc60001b6155a5565b6154277f0b8e74f29847cbeddd53f90553e08b5cc80bf0886f72b4a78993649a2008f22260001b6155a5565b6154537f29b2f39d683a71078ebc55e75911653f715907ca7a0a70c0cbdd7ee3f1a43d6160001b6155a5565b60005b83518110156155975761548b7fea7c7d45363c255e8f6876be4a896e69c2719671d7e2f93cacad2cc97a36f6c360001b6155a5565b6154b77f7972acb2711ab07c3a8aea04f4ac9b34cf767168f5619b6058b642619ab1cde860001b6155a5565b6155848482815181106154f3577f4e487b7100000000000000000000000000000000000000000000000000000000600052603260045260246000fd5b6020026020010151848381518110615534577f4e487b7100000000000000000000000000000000000000000000000000000000600052603260045260246000fd5b60200260200101516002858581518110615577577f4e487b7100000000000000000000000000000000000000000000000000000000600052603260045260246000fd5b6020026020010151616360565b808061558f90618621565b915050615456565b506001600081905550505050565b50565b6155d47f45bc97869a901b06ab58ac604318fbc1e2eaedbe961c9543008cfd0fd9906de060001b6155a5565b6156007f22c741739e6584fce21bce0e1a5efa9a7b3e68dc3cdcc1eb8a7c8c4c682413ac60001b6155a5565b61562c7fe1f14b5b287d3c376513b93832aeb34dc85bc5e67e0b18be7358c543476d953560001b6155a5565b60003385604051602001615641929190618098565b6040516020818303038152906040528051906020012090506156857ff96e1be01757cd692fba3b828f9a989c292b98cc55fd03d8da404115e7de152760001b6155a5565b6156b17f605c6368627562466ab87460aac936c57df4714a2f3f36fab63ded8b033c206360001b6155a5565b60005b6001600083815260200190815260200160002080549050811015616358576156fe7f0630989738fe3afa06aa0ad8887ddb0e0c7403a590f9e66fe6cb604ff117d0e860001b6155a5565b61572a7fb26bb0e4d191a52f7fa922505a4bbec6f3623595c92504a559b7bb4c261d6f1560001b6155a5565b828051906020012060016000848152602001908152602001600020828154811061577d577f4e487b7100000000000000000000000000000000000000000000000000000000600052603260045260246000fd5b906000526020600020906004020160000160405161579b9190618109565b604051809103902014801561580b5750846001600084815260200190815260200160002082815481106157f7577f4e487b7100000000000000000000000000000000000000000000000000000000600052603260045260246000fd5b906000526020600020906004020160010154145b8015615884575060011515600160008481526020019081526020016000208281548110615861577f4e487b7100000000000000000000000000000000000000000000000000000000600052603260045260246000fd5b906000526020600020906004020160030160169054906101000a900460ff161515145b15616319576158b57f3393e140d524dd7a94537af0ced7a2abd1a3547fedb17b6160fb39e0a5d6667160001b6155a5565b6158e17f92a1729bc461cc299047e287845b661f8b3ea90073afcaeaa33e3f2ea4f1a25560001b6155a5565b61590d7fd3a58cdc6c7ed24d29763d9f51a33bace457fd44ff8c2ab925e002cb3bc7bd3160001b6155a5565b6159397ffa896351ef360a2823528f39656e4db955ebaaee3521d42895343c6f77c2b82060001b6155a5565b3373ffffffffffffffffffffffffffffffffffffffff1660016000848152602001908152602001600020828154811061599b577f4e487b7100000000000000000000000000000000000000000000000000000000600052603260045260246000fd5b906000526020600020906004020160020160009054906101000a900473ffffffffffffffffffffffffffffffffffffffff1673ffffffffffffffffffffffffffffffffffffffff1614615a23576040517f08c379a0000000000000000000000000000000000000000000000000000000008152600401615a1a9061819b565b60405180910390fd5b615a4f7f6bde55768d84a52ec7ff4199bb8d93309109b235b12afdcbfb2adec100257ce660001b6155a5565b615a7b7fad5a5b40c30d9518d30bacae4424b45f12cdedf7e3a93de9b12dcd21bfde7e4f60001b6155a5565b615aa77f85d50a6352ce5720060e47f70bed0a4d409d221be134e9262fb07db34dd6a13d60001b6155a5565b83600160008481526020019081526020016000208281548110615af3577f4e487b7100000000000000000000000000000000000000000000000000000000600052603260045260246000fd5b906000526020600020906004020160030160146101000a81548160ff021916908360ff160217905550615b487fe9a7b28c1d469265c28ff4181b260a0451cac7b78132bd36301e4c72f225900860001b6155a5565b615b747fd7c50ae5a66cea5dc82e6a7eca3f2d16e59824c1b0c2c33df787fa190d222d0b60001b6155a5565b6000615d7f600160008581526020019081526020016000208381548110615bc4577f4e487b7100000000000000000000000000000000000000000000000000000000600052603260045260246000fd5b90600052602060002090600402016040518060e0016040529081600082018054615bed906185be565b80601f0160208091040260200160405190810160405280929190818152602001828054615c19906185be565b8015615c665780601f10615c3b57610100808354040283529160200191615c66565b820191906000526020600020905b815481529060010190602001808311615c4957829003601f168201915b50505050508152602001600182015481526020016002820160009054906101000a900473ffffffffffffffffffffffffffffffffffffffff1673ffffffffffffffffffffffffffffffffffffffff1673ffffffffffffffffffffffffffffffffffffffff1681526020016003820160009054906101000a900473ffffffffffffffffffffffffffffffffffffffff1673ffffffffffffffffffffffffffffffffffffffff1673ffffffffffffffffffffffffffffffffffffffff1681526020016003820160149054906101000a900460ff1660ff1660ff1681526020016003820160159054906101000a900460ff1660ff1660ff1681526020016003820160169054906101000a900460ff161515151581525050617118565b9050615dad7fcf91c5af73084883f146ab837cbdc6f5aadae26d8fea48b10f92e15f19e51c7560001b6155a5565b615dd97fe4920712f789066ebb77a380a6d415fb95246753fe11307454a054248459928360001b6155a5565b60018160ff16141561601d57615e117fdfb6464a5b280b098fa3805443364a1987a2fcae08aa912f32be32d24d81915860001b6155a5565b615e3d7fdcf703fcf270bf3b23752f02f42978c209b39650fa725cb2ddcc5eac5e494eef60001b6155a5565b615e697f37398638a6afeb11075d7c90a8d097e956b3bfeed6644339311712279ec5e24860001b6155a5565b6000600160008581526020019081526020016000208381548110615eb6577f4e487b7100000000000000000000000000000000000000000000000000000000600052603260045260246000fd5b906000526020600020906004020160030160166101000a81548160ff021916908315150217905550615f0a7f4cb65f69d2d206122f7afa94e00c9422600cba10951c565913b65525e225e26360001b6155a5565b615f367f79a0d6708dcd2e8e985ab8265b3faefbe3f02823c8818b53302020c55cf3c79060001b6155a5565b616018600160008581526020019081526020016000208381548110615f84577f4e487b7100000000000000000000000000000000000000000000000000000000600052603260045260246000fd5b906000526020600020906004020160030160009054906101000a900473ffffffffffffffffffffffffffffffffffffffff16600160008681526020019081526020016000208481548110616001577f4e487b7100000000000000000000000000000000000000000000000000000000600052603260045260246000fd5b9060005260206000209060040201600101546172d2565b6162e7565b6160497f3a0d5261176f6a00d4609fcc5b1c0392a974620cc908ff97a8c4eaeaa6dbb70260001b6155a5565b6160757fe6314975e5d249722b6e7ee8fac8fa183843380a14682136a6ccb44b423ff04360001b6155a5565b60028160ff1614156162b9576160ad7fb95d0fc3c4a94a4a334d0439b3f477c7706365ea0abc4d6d9318ac2efb0da6a860001b6155a5565b6160d97f47765b28ad7692e9a317beb9af244efbf77f9e64d4d124a8070e0de91e3373ea60001b6155a5565b6161057f0b134d0e5ce7c3f174e3cd33d028413a61eb797c556998e26f3aa9fb8928e70960001b6155a5565b6000600160008581526020019081526020016000208381548110616152577f4e487b7100000000000000000000000000000000000000000000000000000000600052603260045260246000fd5b906000526020600020906004020160030160166101000a81548160ff0219169083151502179055506161a67fa4190470457fa0fa61447a1834dbdfe71f8b44a37b5de209c3fac77f5b7e92bd60001b6155a5565b6161d27f083c51243a2f76ef61b3680ccf2dc6ea3e784c0f2421532ef34ffc5a8e3dd93760001b6155a5565b6162b4600160008581526020019081526020016000208381548110616220577f4e487b7100000000000000000000000000000000000000000000000000000000600052603260045260246000fd5b906000526020600020906004020160020160009054906101000a900473ffffffffffffffffffffffffffffffffffffffff1660016000868152602001908152602001600020848154811061629d577f4e487b7100000000000000000000000000000000000000000000000000000000600052603260045260246000fd5b9060005260206000209060040201600101546172d2565b6162e6565b6162e57f99eee5929aa802a93368125957e06a88cc8e9e18a01d4bbeda0bb8c43ae77e7b60001b6155a5565b5b5b6163137f5019b229f799dfce4e29566c016adaae96cac2fe0d6079e2e37008ce3fce345860001b6155a5565b50616358565b6163457f40af5b9a309629bdcbd47f61fae6c23eaccc9b413f4a7029bbf19aa3590931d660001b6155a5565b808061635090618621565b9150506156b4565b505050505050565b61638c7fc3488727d8408e9ad4a2b076491ff82bf9c4025309af92aaec13b4d012658f4060001b6155a5565b6163b87f9eba7de883eacbd67f39b955b87b9763752c8407a331350e8d94a9b568bdae9a60001b6155a5565b6163e47fc61ec12f65977e00a224bb6bcde56da2897e450b8bcbb5cdff82d593a18211c360001b6155a5565b600084336040516020016163f9929190618098565b60405160208183030381529060405280519060200120905061643d7f93adb31ac62e1ad42de614264256fb35e831a96831b56aeccac1bea89f4ee10360001b6155a5565b6164697f0c79687543dcfc721b77d9664f5b84bab2dedca422c9038b4863bd3b1b70541960001b6155a5565b60005b6001600083815260200190815260200160002080549050811015617110576164b67fe629f083ec54999e1f943a442dfa9d63b55ebd86d94786dba1b485fd845d915460001b6155a5565b6164e27f9c27018cc9446cc7ad69ea74635ea404415e9021648a95459a0fd52154c9eeb760001b6155a5565b8280519060200120600160008481526020019081526020016000208281548110616535577f4e487b7100000000000000000000000000000000000000000000000000000000600052603260045260246000fd5b90600052602060002090600402016000016040516165539190618109565b60405180910390201480156165c35750846001600084815260200190815260200160002082815481106165af577f4e487b7100000000000000000000000000000000000000000000000000000000600052603260045260246000fd5b906000526020600020906004020160010154145b801561663c575060011515600160008481526020019081526020016000208281548110616619577f4e487b7100000000000000000000000000000000000000000000000000000000600052603260045260246000fd5b906000526020600020906004020160030160169054906101000a900460ff161515145b156170d15761666d7f94fb308a42f54264855038e99ad836ccb780a6c3db1a59f69d228be93ee331cc60001b6155a5565b6166997f2be9fbaa356e95e00dfa66bdb3bb63bbb80db2fcec9912a4d7b34890480505ae60001b6155a5565b6166c57f33107a5735490a6f1dfccfac711a3cae7e207b6950cb25b191268f7ff10a79db60001b6155a5565b6166f17ffc56934afcf86f4705088f421a787ee9501515e946790f4983fde1d37951cbb960001b6155a5565b3373ffffffffffffffffffffffffffffffffffffffff16600160008481526020019081526020016000208281548110616753577f4e487b7100000000000000000000000000000000000000000000000000000000600052603260045260246000fd5b906000526020600020906004020160030160009054906101000a900473ffffffffffffffffffffffffffffffffffffffff1673ffffffffffffffffffffffffffffffffffffffff16146167db576040517f08c379a00000000000000000000000000000000000000000000000000000000081526004016167d2906181fb565b60405180910390fd5b6168077fb691f3e98e3f6f316544de74f39beefe848856b2e36e01d43345db637fb9fe6260001b6155a5565b6168337fca93852d056ef4e1f99976986152643780f4aed9d4a7cc64a19ade1e5365d7ee60001b6155a5565b61685f7fca24c6bec7f5ee95052a4e8d24849fc659d9716879173d79740643fee52d19cb60001b6155a5565b836001600084815260200190815260200160002082815481106168ab577f4e487b7100000000000000000000000000000000000000000000000000000000600052603260045260246000fd5b906000526020600020906004020160030160156101000a81548160ff021916908360ff1602179055506169007f3ff04b0297bb2df9b0f01b0333cb6ce5c13b13f0fcc2b91bc68d547e8a90090260001b6155a5565b61692c7f7e7f774a4abc73e5a777141daf53848029272d061460ec96e0c573e165f17c4360001b6155a5565b6000616b3760016000858152602001908152602001600020838154811061697c577f4e487b7100000000000000000000000000000000000000000000000000000000600052603260045260246000fd5b90600052602060002090600402016040518060e00160405290816000820180546169a5906185be565b80601f01602080910402602001604051908101604052809291908181526020018280546169d1906185be565b8015616a1e5780601f106169f357610100808354040283529160200191616a1e565b820191906000526020600020905b815481529060010190602001808311616a0157829003601f168201915b50505050508152602001600182015481526020016002820160009054906101000a900473ffffffffffffffffffffffffffffffffffffffff1673ffffffffffffffffffffffffffffffffffffffff1673ffffffffffffffffffffffffffffffffffffffff1681526020016003820160009054906101000a900473ffffffffffffffffffffffffffffffffffffffff1673ffffffffffffffffffffffffffffffffffffffff1673ffffffffffffffffffffffffffffffffffffffff1681526020016003820160149054906101000a900460ff1660ff1660ff1681526020016003820160159054906101000a900460ff1660ff1660ff1681526020016003820160169054906101000a900460ff161515151581525050617118565b9050616b657fd023d16ad0edd65993bd6809c42937ebbfb449076852cc9b68b94b8c4224cc0d60001b6155a5565b616b917fb10dd68e8a422d9916b99333b192c9d65635b0053c21bf54c0702b63f1d6e2b960001b6155a5565b60018160ff161415616dd557616bc97f458fe24b31cb912b8825e3d6b8e947a33e6934a9ce8d98d45e5a32ff0b96abe160001b6155a5565b616bf57f580626280a140b06a2a3f9f99b05517baf346b9831f6d6f548399a78d6e7cbc460001b6155a5565b616c217fed008b8714e0427442b66bdac8b7f26fcffa517de7a4bfb81c195719942e744b60001b6155a5565b6000600160008581526020019081526020016000208381548110616c6e577f4e487b7100000000000000000000000000000000000000000000000000000000600052603260045260246000fd5b906000526020600020906004020160030160166101000a81548160ff021916908315150217905550616cc27f9ff9b8f0baeca0b503d750f68031dcbc0af2aaa98f931431913e17568605c8ad60001b6155a5565b616cee7f07bd60c06f70ffda42e499a140adb60c8c1452187e7c5c395863fd87c7f39a5e60001b6155a5565b616dd0600160008581526020019081526020016000208381548110616d3c577f4e487b7100000000000000000000000000000000000000000000000000000000600052603260045260246000fd5b906000526020600020906004020160030160009054906101000a900473ffffffffffffffffffffffffffffffffffffffff16600160008681526020019081526020016000208481548110616db9577f4e487b7100000000000000000000000000000000000000000000000000000000600052603260045260246000fd5b9060005260206000209060040201600101546172d2565b61709f565b616e017f3aa70e00e2849c4a0be2d6e3128c54695a528e66cc5269c64b00a9774571864b60001b6155a5565b616e2d7fe1e3f73ead691eb72af2d5bcf79e26f415cfeb3b7d7e7d8c1da2db523f8ea97960001b6155a5565b60028160ff16141561707157616e657f3751607b55b6687b326485a7fc3198eb0b42fb763ab9b97a073b2a4678ccb21760001b6155a5565b616e917ffee8c2d3e2301774451fa413d64c98c46135cc1af119cc792f1054924f0f855b60001b6155a5565b616ebd7f91f4647edcd93e81bd77a286e1b04e94134182eaa11401e5ea92f17dceecd2a360001b6155a5565b6000600160008581526020019081526020016000208381548110616f0a577f4e487b7100000000000000000000000000000000000000000000000000000000600052603260045260246000fd5b906000526020600020906004020160030160166101000a81548160ff021916908315150217905550616f5e7f3d2e4469f5589814eec4c618f032be720e5bce9b9f7f9de580c74914bc22c13c60001b6155a5565b616f8a7f326e6e06249c8d88d51b8b970c2c9501fb01e15fa831d225c3c0d72b06b24e1660001b6155a5565b61706c600160008581526020019081526020016000208381548110616fd8577f4e487b7100000000000000000000000000000000000000000000000000000000600052603260045260246000fd5b906000526020600020906004020160020160009054906101000a900473ffffffffffffffffffffffffffffffffffffffff16600160008681526020019081526020016000208481548110617055577f4e487b7100000000000000000000000000000000000000000000000000000000600052603260045260246000fd5b9060005260206000209060040201600101546172d2565b61709e565b61709d7fd72da27dc5f0f3c46c9115dad7a276f0022cafb173ae24fc60cfe1d69803f85e60001b6155a5565b5b5b6170cb7f3b314b359cb150df41f55c39a050b0c5c3a4c8655aebe708667d656804ac2f3d60001b6155a5565b50617110565b6170fd7f110f6e8c9015622968d06f4dfaaea7886c78da91251c6fa5e1c32820237b216560001b6155a5565b808061710890618621565b91505061646c565b505050505050565b60006171467f296bf0a7a83664a6b9f4354503ffa99e9e7180921aceeed988e915915885975660001b6155a5565b6171727f8e4360a2d62a326ee63cc252c046f3e17c5645174ad3979b2ecde8481e1692bd60001b6155a5565b61719e7f5e3829e677254ac9767263386db30a1da3433db0cd79038d87d5501f1de0a89b60001b6155a5565b8160a0015160ff16826080015160ff161415617244576171e07f64eda29a32a701c62d5e1dc34709b58a8da2050ca617a91c3fce535585625ce360001b6155a5565b61720c7f20693dbf7d02b8b2ff3c8a3b8f9b32a6e599f8d656d058de244f23a56eba2d3f60001b6155a5565b6172387f58e93b0cb23ea18f904127a819f54aa692442d3d8e9e3b43a7188f7bd7e1a85c60001b6155a5565b816080015190506172cd565b6172707f9095d97dbbe22925732d6036bcd7f656918109db03039995996387b1759cc00360001b6155a5565b61729c7fc588e76523078724c9200906b3fbd930464efca5e9052517481e2c5161e5a92260001b6155a5565b6172c87f1c0cf05fa90f43438ab53c6825b663ab55e0c71f0b93f96ab0e97599540df64b60001b6155a5565b600090505b919050565b6172fe7f71f08193a37e668af77b3da62c34c204c6f174067e2cd4ffa929aaa15c66480260001b6155a5565b61732a7f5b8a3e08342d74308281dbfd9c1f9336a5d2e85a33d7e73f4f89fbc4867f41c260001b6155a5565b6173567fb299914feef0cad260f31ccc2fc3516e7fece8a77f3df6c646e1e3b7231baf1960001b6155a5565b6173827f6b1a85df98f3242777e5de08b6e2dc7b5997ad8f2286e100233f0432c69aa5ed60001b6155a5565b600073ffffffffffffffffffffffffffffffffffffffff168273ffffffffffffffffffffffffffffffffffffffff1614156173f2576040517f08c379a00000000000000000000000000000000000000000000000000000000081526004016173e99061823b565b60405180910390fd5b61741e7fe9ff362e423db456d9ea3db26f458c1aa7110a5d214845fd8fae36669a3e89f360001b6155a5565b61744a7f61452fce097c5c5dbe4886468103f38d94ddd089a969f922d8e98b8f65786b4160001b6155a5565b6174767f776a931901b759b4907749820c55b5bc7b129a346cbdd50c8c678cc96037ad0460001b6155a5565b60008273ffffffffffffffffffffffffffffffffffffffff168260405161749c90618120565b60006040518083038185875af1925050503d80600081146174d9576040519150601f19603f3d011682016040523d82523d6000602084013e6174de565b606091505b5050905061750e7f48cf56fc52fe977e282eeac6632426bedd372f04823a104645020424a51d1a0a60001b6155a5565b61753a7ff8602e1c4445ef0e782d12f83eb37463ec2ab10b98f2a5be4cd53c49096ff09460001b6155a5565b6175667f5fb4738965a5550ffc8b8fd3a281aff7f38b429cdacab732a31a2d4fb37a22c260001b6155a5565b8060046040516020016175799190618135565b604051602081830303815290604052906175c9576040517f08c379a00000000000000000000000000000000000000000000000000000000081526004016175c09190618179565b60405180910390fd5b506175f67f3a5a2a277e455235e1e1b85e7b45f9a06f2bfafa068e9f2ad8c8f237b1f008e360001b6155a5565b505050565b6040518060e001604052806060815260200160008152602001600073ffffffffffffffffffffffffffffffffffffffff168152602001600073ffffffffffffffffffffffffffffffffffffffff168152602001600060ff168152602001600060ff1681526020016000151581525090565b828054617678906185be565b90600052602060002090601f01602090048101928261769a57600085556176e1565b82601f106176b357805160ff19168380011785556176e1565b828001600101855582156176e1579182015b828111156176e05782518255916020019190600101906176c5565b5b5090506176ee91906176f2565b5090565b5b8082111561770b5760008160009055506001016176f3565b5090565b600061772261771d84618304565b6182df565b9050808382526020820190508285602086028201111561774157600080fd5b60005b8581101561777157816177578882617917565b845260208401935060208301925050600181019050617744565b5050509392505050565b600061778e61778984618330565b6182df565b905080838252602082019050828560208602820111156177ad57600080fd5b60005b858110156177dd57816177c3888261792c565b8452602084019350602083019250506001810190506177b0565b5050509392505050565b60006177fa6177f58461835c565b6182df565b9050808382526020820190508285602086028201111561781957600080fd5b60005b8581101561786357813567ffffffffffffffff81111561783b57600080fd5b8086016178488982617a33565b8552602085019450602084019350505060018101905061781c565b5050509392505050565b600061788061787b84618388565b6182df565b9050808382526020820190508285602086028201111561789f57600080fd5b60005b858110156178cf57816178b58882617a5d565b8452602084019350602083019250506001810190506178a2565b5050509392505050565b60006178ec6178e7846183b4565b6182df565b90508281526020810184848401111561790457600080fd5b61790f84828561857c565b509392505050565b60008135905061792681618957565b92915050565b60008135905061793b8161896e565b92915050565b600082601f83011261795257600080fd5b813561796284826020860161770f565b91505092915050565b600082601f83011261797c57600080fd5b813561798c84826020860161777b565b91505092915050565b600082601f8301126179a657600080fd5b81356179b68482602086016177e7565b91505092915050565b600082601f8301126179d057600080fd5b81356179e084826020860161786d565b91505092915050565b60008083601f8401126179fb57600080fd5b8235905067ffffffffffffffff811115617a1457600080fd5b602083019150836001820283011115617a2c57600080fd5b9250929050565b600082601f830112617a4457600080fd5b8135617a548482602086016178d9565b91505092915050565b600081359050617a6c81618985565b92915050565b600080600060408486031215617a8757600080fd5b6000617a9586828701617917565b935050602084013567ffffffffffffffff811115617ab257600080fd5b617abe868287016179e9565b92509250509250925092565b600080600060608486031215617adf57600080fd5b600084013567ffffffffffffffff811115617af957600080fd5b617b0586828701617941565b935050602084013567ffffffffffffffff811115617b2257600080fd5b617b2e868287016179bf565b925050604084013567ffffffffffffffff811115617b4b57600080fd5b617b5786828701617995565b9150509250925092565b600080600060608486031215617b7657600080fd5b600084013567ffffffffffffffff811115617b9057600080fd5b617b9c8682870161796b565b935050602084013567ffffffffffffffff811115617bb957600080fd5b617bc5868287016179bf565b925050604084013567ffffffffffffffff811115617be257600080fd5b617bee86828701617995565b9150509250925092565b6000617c048383617fcf565b905092915050565b617c1d617c1882618527565b61867c565b82525050565b617c2c81618515565b82525050565b617c43617c3e82618515565b61866a565b82525050565b6000617c548261841f565b617c5e8185618442565b935083602082028501617c70856183e5565b8060005b85811015617cac5784840389528151617c8d8582617bf8565b9450617c9883618435565b925060208a01995050600181019050617c74565b50829750879550505050505092915050565b617cc781618539565b82525050565b617cd681618539565b82525050565b6000617ce88385618453565b9350617cf583858461857c565b82840190509392505050565b60008154617d0e816185be565b617d188186618453565b94506001821660008114617d335760018114617d4457617d77565b60ff19831686528186019350617d77565b617d4d856183f5565b60005b83811015617d6f57815481890152600182019150602081019050617d50565b838801955050505b50505092915050565b6000617d8b8261842a565b617d95818561845e565b9350617da581856020860161858b565b617dae8161872d565b840191505092915050565b6000617dc48261842a565b617dce818561846f565b9350617dde81856020860161858b565b617de78161872d565b840191505092915050565b60008154617dff816185be565b617e098186618480565b94506001821660008114617e245760018114617e3557617e68565b60ff19831686528186019350617e68565b617e3e8561840a565b60005b83811015617e6057815481890152600182019150602081019050617e41565b838801955050505b50505092915050565b6000617e7e60178361846f565b9150617e898261874b565b602082019050919050565b6000617ea1602d8361846f565b9150617eac82618774565b604082019050919050565b6000617ec460308361846f565b9150617ecf826187c3565b604082019050919050565b6000617ee760178361846f565b9150617ef282618812565b602082019050919050565b6000617f0a600083618453565b9150617f158261883b565b600082019050919050565b6000617f2d600f83618480565b9150617f388261883e565b600f82019050919050565b6000617f5060378361846f565b9150617f5b82618867565b604082019050919050565b6000617f7360128361846f565b9150617f7e826188b6565b602082019050919050565b6000617f96602f8361846f565b9150617fa1826188df565b604082019050919050565b6000617fb9601f8361846f565b9150617fc48261892e565b602082019050919050565b600060e0830160008301518482036000860152617fec8282617d80565b9150506020830151618001602086018261806b565b5060408301516180146040860182617c23565b5060608301516180276060860182617c23565b50608083015161803a6080860182618089565b5060a083015161804d60a0860182618089565b5060c083015161806060c0860182617cbe565b508091505092915050565b61807481618565565b82525050565b61808381618565565b82525050565b6180928161856f565b82525050565b60006180a48285617c32565b6014820191506180b48284617c32565b6014820191508190509392505050565b60006180d08285617c32565b6014820191506180e08284617c0c565b6014820191508190509392505050565b60006180fd828486617cdc565b91508190509392505050565b60006181158284617d01565b915081905092915050565b600061812b82617efd565b9150819050919050565b600061814082617f20565b915061814c8284617df2565b915081905092915050565b600060208201905081810360008301526181718184617c49565b905092915050565b600060208201905081810360008301526181938184617db9565b905092915050565b600060208201905081810360008301526181b481617e71565b9050919050565b600060208201905081810360008301526181d481617e94565b9050919050565b600060208201905081810360008301526181f481617eb7565b9050919050565b6000602082019050818103600083015261821481617eda565b9050919050565b6000602082019050818103600083015261823481617f43565b9050919050565b6000602082019050818103600083015261825481617f66565b9050919050565b6000602082019050818103600083015261827481617f89565b9050919050565b6000602082019050818103600083015261829481617fac565b9050919050565b60006020820190506182b0600083018461807a565b92915050565b60006040820190506182cb600083018561807a565b6182d86020830184617ccd565b9392505050565b60006182e96182fa565b90506182f582826185f0565b919050565b6000604051905090565b600067ffffffffffffffff82111561831f5761831e6186fe565b5b602082029050602081019050919050565b600067ffffffffffffffff82111561834b5761834a6186fe565b5b602082029050602081019050919050565b600067ffffffffffffffff821115618377576183766186fe565b5b602082029050602081019050919050565b600067ffffffffffffffff8211156183a3576183a26186fe565b5b602082029050602081019050919050565b600067ffffffffffffffff8211156183cf576183ce6186fe565b5b6183d88261872d565b9050602081019050919050565b6000819050602082019050919050565b60008190508160005260206000209050919050565b60008190508160005260206000209050919050565b600081519050919050565b600081519050919050565b6000602082019050919050565b600082825260208201905092915050565b600081905092915050565b600082825260208201905092915050565b600082825260208201905092915050565b600081905092915050565b600061849682618565565b91506184a183618565565b9250827fffffffffffffffffffffffffffffffffffffffffffffffffffffffffffffffff038211156184d6576184d56186a0565b5b828201905092915050565b60006184ec82618565565b91506184f783618565565b92508282101561850a576185096186a0565b5b828203905092915050565b600061852082618545565b9050919050565b600061853282618545565b9050919050565b60008115159050919050565b600073ffffffffffffffffffffffffffffffffffffffff82169050919050565b6000819050919050565b600060ff82169050919050565b82818337600083830152505050565b60005b838110156185a957808201518184015260208101905061858e565b838111156185b8576000848401525b50505050565b600060028204905060018216806185d657607f821691505b602082108114156185ea576185e96186cf565b5b50919050565b6185f98261872d565b810181811067ffffffffffffffff82111715618618576186176186fe565b5b80604052505050565b600061862c82618565565b91507fffffffffffffffffffffffffffffffffffffffffffffffffffffffffffffffff82141561865f5761865e6186a0565b5b600182019050919050565b60006186758261868e565b9050919050565b60006186878261868e565b9050919050565b60006186998261873e565b9050919050565b7f4e487b7100000000000000000000000000000000000000000000000000000000600052601160045260246000fd5b7f4e487b7100000000000000000000000000000000000000000000000000000000600052602260045260246000fd5b7f4e487b7100000000000000000000000000000000000000000000000000000000600052604160045260246000fd5b6000601f19601f8301169050919050565b60008160601b9050919050565b7f596f7520617265206e6f742074686520636c69656e742e000000000000000000600082015250565b7f546f74616c20616d6f756e74206973206c657373207468616e2063757272656e60008201527f742073656e6420616d6f756e7400000000000000000000000000000000000000602082015250565b7f416464726573736573206c656e677468206d75737420626520657175616c207460008201527f6f20616d6f756e7473206c656e67746800000000000000000000000000000000602082015250565b7f596f7520617265206e6f74207468652073656c6c65722e000000000000000000600082015250565b50565b7f4661696c656420746f2073656e64200000000000000000000000000000000000600082015250565b7f416464726573736573206c656e677468206d75737420626520657175616c207460008201527f6f2070726f6475637420686173686573206c656e677468000000000000000000602082015250565b7f416464726573732063616e277420626520300000000000000000000000000000600082015250565b7f416464726573736573206c656e677468206d75737420626520657175616c207460008201527f6f2076616c756573206c656e6774680000000000000000000000000000000000602082015250565b7f5265656e7472616e637947756172643a207265656e7472616e742063616c6c00600082015250565b61896081618515565b811461896b57600080fd5b50565b61897781618527565b811461898257600080fd5b50565b61898e81618565565b811461899957600080fd5b5056fea26469706673582212206f10bd131eb2399c0215a17c5d5062d1fa7cd4ea34be1064662100a3c4bca62a64736f6c63430008040033",
  "linkReferences": {},
  "deployedLinkReferences": {}
}