{
  "_format": "hh-sol-artifact-1",
  "contractName": "ShopsBulkTransactions",
  "sourceName": "contracts/ShopsBulkTransactions.sol",
  "abi": [
    {
      "inputs": [
        {
          "internalType": "string",
          "name": "_symbol",
          "type": "string"
        }
      ],
      "stateMutability": "nonpayable",
      "type": "constructor"
    },
    {
      "anonymous": false,
      "inputs": [
        {
          "indexed": false,
          "internalType": "uint256",
          "name": "_amount",
          "type": "uint256"
        },
        {
          "indexed": false,
          "internalType": "bool",
          "name": "_status",
          "type": "bool"
        }
      ],
      "name": "MultiTransfer",
      "type": "event"
    },
    {
      "inputs": [
        {
          "internalType": "address",
          "name": "seller",
          "type": "address"
        },
        {
          "internalType": "string",
          "name": "productHash",
          "type": "string"
        }
      ],
      "name": "checkProductOrders",
      "outputs": [
        {
          "internalType": "uint256",
          "name": "",
          "type": "uint256"
        }
      ],
      "stateMutability": "view",
      "type": "function"
    },
    {
      "inputs": [],
      "name": "clientCheckOrders",
      "outputs": [
        {
          "components": [
            {
              "internalType": "string",
              "name": "product_hash",
              "type": "string"
            },
            {
              "internalType": "uint256",
              "name": "value",
              "type": "uint256"
            },
            {
              "internalType": "address",
              "name": "client",
              "type": "address"
            },
            {
              "internalType": "address",
              "name": "sellar",
              "type": "address"
            },
            {
              "internalType": "uint8",
              "name": "clientDecision",
              "type": "uint8"
            },
            {
              "internalType": "uint8",
              "name": "sellerDecision",
              "type": "uint8"
            },
            {
              "internalType": "bool",
              "name": "active",
              "type": "bool"
            }
          ],
          "internalType": "struct ShopsBulkTransactions.Order[]",
          "name": "",
          "type": "tuple[]"
        }
      ],
      "stateMutability": "view",
      "type": "function"
    },
    {
      "inputs": [
        {
          "internalType": "address",
          "name": "seller",
          "type": "address"
        },
        {
          "internalType": "uint256",
          "name": "value",
          "type": "uint256"
        },
        {
          "internalType": "string",
          "name": "productHash",
          "type": "string"
        }
      ],
      "name": "clientProccessTransaction",
      "outputs": [],
      "stateMutability": "nonpayable",
      "type": "function"
    },
    {
      "inputs": [
        {
          "internalType": "address",
          "name": "seller",
          "type": "address"
        },
        {
          "internalType": "uint256",
          "name": "value",
          "type": "uint256"
        },
        {
          "internalType": "string",
          "name": "productHash",
          "type": "string"
        }
      ],
      "name": "clientRevertTransaction",
      "outputs": [],
      "stateMutability": "nonpayable",
      "type": "function"
    },
    {
      "inputs": [
        {
          "internalType": "address payable[]",
          "name": "_addresses",
          "type": "address[]"
        },
        {
          "internalType": "uint256[]",
          "name": "_amounts",
          "type": "uint256[]"
        },
        {
          "internalType": "string[]",
          "name": "_productHashes",
          "type": "string[]"
        }
      ],
      "name": "multiTransfer",
      "outputs": [],
      "stateMutability": "payable",
      "type": "function"
    },
    {
      "inputs": [],
      "name": "sellerCheckOrders",
      "outputs": [
        {
          "components": [
            {
              "internalType": "string",
              "name": "product_hash",
              "type": "string"
            },
            {
              "internalType": "uint256",
              "name": "value",
              "type": "uint256"
            },
            {
              "internalType": "address",
              "name": "client",
              "type": "address"
            },
            {
              "internalType": "address",
              "name": "sellar",
              "type": "address"
            },
            {
              "internalType": "uint8",
              "name": "clientDecision",
              "type": "uint8"
            },
            {
              "internalType": "uint8",
              "name": "sellerDecision",
              "type": "uint8"
            },
            {
              "internalType": "bool",
              "name": "active",
              "type": "bool"
            }
          ],
          "internalType": "struct ShopsBulkTransactions.Order[]",
          "name": "",
          "type": "tuple[]"
        }
      ],
      "stateMutability": "view",
      "type": "function"
    },
    {
      "inputs": [
        {
          "internalType": "address",
          "name": "client",
          "type": "address"
        },
        {
          "internalType": "uint256",
          "name": "value",
          "type": "uint256"
        },
        {
          "internalType": "string",
          "name": "productHash",
          "type": "string"
        }
      ],
      "name": "sellerProccessTransaction",
      "outputs": [],
      "stateMutability": "nonpayable",
      "type": "function"
    },
    {
      "inputs": [
        {
          "internalType": "address",
          "name": "client",
          "type": "address"
        },
        {
          "internalType": "uint256",
          "name": "value",
          "type": "uint256"
        },
        {
          "internalType": "string",
          "name": "productHash",
          "type": "string"
        }
      ],
      "name": "sellerRevertTransaction",
      "outputs": [],
      "stateMutability": "nonpayable",
      "type": "function"
    },
    {
      "inputs": [],
      "name": "symbol",
      "outputs": [
        {
          "internalType": "string",
          "name": "",
          "type": "string"
        }
      ],
      "stateMutability": "view",
      "type": "function"
    }
  ],
  "bytecode": "0x60806040523480156200001157600080fd5b50604051620024bb380380620024bb8339810160408190526200003491620000fc565b600160005580516200004e90600490602084019062000056565b505062000225565b8280546200006490620001d2565b90600052602060002090601f016020900481019282620000885760008555620000d3565b82601f10620000a357805160ff1916838001178555620000d3565b82800160010185558215620000d3579182015b82811115620000d3578251825591602001919060010190620000b6565b50620000e1929150620000e5565b5090565b5b80821115620000e15760008155600101620000e6565b600060208083850312156200010f578182fd5b82516001600160401b038082111562000126578384fd5b818501915085601f8301126200013a578384fd5b8151818111156200014f576200014f6200020f565b604051601f8201601f19908116603f011681019083821181831017156200017a576200017a6200020f565b81604052828152888684870101111562000192578687fd5b8693505b82841015620001b5578484018601518185018701529285019262000196565b82841115620001c657868684830101525b98975050505050505050565b600181811c90821680620001e757607f821691505b602082108114156200020957634e487b7160e01b600052602260045260246000fd5b50919050565b634e487b7160e01b600052604160045260246000fd5b61228680620002356000396000f3fe6080604052600436106100865760003560e01c806378e5a9151161005957806378e5a915146101225780637bcebb161461014257806395d89b4114610157578063d02dbed514610179578063d760a5a41461019957600080fd5b8063190209641461008b57806321a598de146100ad5780633723a1b1146100e05780636749cf5b14610100575b600080fd5b34801561009757600080fd5b506100ab6100a6366004611d65565b6101ac565b005b3480156100b957600080fd5b506100cd6100c8366004611d12565b6101f9565b6040519081526020015b60405180910390f35b3480156100ec57600080fd5b506100ab6100fb366004611d65565b6104a3565b34801561010c57600080fd5b506101156104dc565b6040516100d79190612025565b34801561012e57600080fd5b506100ab61013d366004611d65565b610841565b34801561014e57600080fd5b50610115610877565b34801561016357600080fd5b5061016c610bd2565b6040516100d791906120e1565b34801561018557600080fd5b506100ab610194366004611d65565b610c60565b6100ab6101a7366004611dbf565b610c96565b600260005414156101d85760405162461bcd60e51b81526004016101cf906120fb565b60405180910390fd5b60026000819055506101ee8484600285856110b6565b505060016000555050565b6001600160a01b038316600090815260036020908152604080832080548251818502810185019093528083528493849392919083018282801561025b57602002820191906000526020600020905b815481526020019060010190808311610247575b505050505090506000805b82518110156104975760006001600085848151811061029557634e487b7160e01b600052603260045260246000fd5b60200260200101518152602001908152602001600020805480602002602001604051908101604052809291908181526020016000905b828210156103f157838290600052602060002090600402016040518060e00160405290816000820180546102fe906121b6565b80601f016020809104026020016040519081016040528092919081815260200182805461032a906121b6565b80156103775780601f1061034c57610100808354040283529160200191610377565b820191906000526020600020905b81548152906001019060200180831161035a57829003601f168201915b505050918352505060018281015460208084019190915260028401546001600160a01b039081166040850152600390940154938416606084015260ff600160a01b850481166080850152600160a81b8504811660a0850152600160b01b909404909316151560c090920191909152918352920191016102cb565b50505050905060005b8151811015610482578888604051610413929190611f17565b604051809103902082848151811061043b57634e487b7160e01b600052603260045260246000fd5b602002602001015160000151805190602001201415610462578561045e816121f1565b9650505b8361046c816121f1565b945050808061047a906121f1565b9150506103fa565b5050808061048f906121f1565b915050610266565b50919695505050505050565b600260005414156104c65760405162461bcd60e51b81526004016101cf906120fb565b60026000819055506101ee84846002858561169b565b336000908152600260209081526040808320805482518185028101850190935280835260609493849392919083018282801561053757602002820191906000526020600020905b815481526020019060010190808311610523575b5050505050905060005b81518110156105a7576001600083838151811061056e57634e487b7160e01b600052603260045260246000fd5b6020026020010151815260200190815260200160002080549050836105939190612187565b92508061059f816121f1565b915050610541565b5060008267ffffffffffffffff8111156105d157634e487b7160e01b600052604160045260246000fd5b60405190808252806020026020018201604052801561060a57816020015b6105f7611aa6565b8152602001906001900390816105ef5790505b5090506000805b83518110156108375760006001600086848151811061064057634e487b7160e01b600052603260045260246000fd5b60200260200101518152602001908152602001600020805480602002602001604051908101604052809291908181526020016000905b8282101561079c57838290600052602060002090600402016040518060e00160405290816000820180546106a9906121b6565b80601f01602080910402602001604051908101604052809291908181526020018280546106d5906121b6565b80156107225780601f106106f757610100808354040283529160200191610722565b820191906000526020600020905b81548152906001019060200180831161070557829003601f168201915b505050918352505060018281015460208084019190915260028401546001600160a01b039081166040850152600390940154938416606084015260ff600160a01b850481166080850152600160a81b8504811660a0850152600160b01b909404909316151560c09092019190915291835292019101610676565b50505050905060005b8151811015610822578181815181106107ce57634e487b7160e01b600052603260045260246000fd5b60200260200101518585815181106107f657634e487b7160e01b600052603260045260246000fd5b6020026020010181905250838061080c906121f1565b945050808061081a906121f1565b9150506107a5565b5050808061082f906121f1565b915050610611565b5090949350505050565b600260005414156108645760405162461bcd60e51b81526004016101cf906120fb565b60026000556101ee84846001858561169b565b33600090815260036020908152604080832080548251818502810185019093528083526060949384939291908301828280156108d257602002820191906000526020600020905b8154815260200190600101908083116108be575b5050505050905060005b8151811015610942576001600083838151811061090957634e487b7160e01b600052603260045260246000fd5b60200260200101518152602001908152602001600020805490508361092e9190612187565b92508061093a816121f1565b9150506108dc565b5060008267ffffffffffffffff81111561096c57634e487b7160e01b600052604160045260246000fd5b6040519080825280602002602001820160405280156109a557816020015b610992611aa6565b81526020019060019003908161098a5790505b5090506000805b8351811015610837576000600160008684815181106109db57634e487b7160e01b600052603260045260246000fd5b60200260200101518152602001908152602001600020805480602002602001604051908101604052809291908181526020016000905b82821015610b3757838290600052602060002090600402016040518060e0016040529081600082018054610a44906121b6565b80601f0160208091040260200160405190810160405280929190818152602001828054610a70906121b6565b8015610abd5780601f10610a9257610100808354040283529160200191610abd565b820191906000526020600020905b815481529060010190602001808311610aa057829003601f168201915b505050918352505060018281015460208084019190915260028401546001600160a01b039081166040850152600390940154938416606084015260ff600160a01b850481166080850152600160a81b8504811660a0850152600160b01b909404909316151560c09092019190915291835292019101610a11565b50505050905060005b8151811015610bbd57818181518110610b6957634e487b7160e01b600052603260045260246000fd5b6020026020010151858581518110610b9157634e487b7160e01b600052603260045260246000fd5b60200260200101819052508380610ba7906121f1565b9450508080610bb5906121f1565b915050610b40565b50508080610bca906121f1565b9150506109ac565b60048054610bdf906121b6565b80601f0160208091040260200160405190810160405280929190818152602001828054610c0b906121b6565b8015610c585780601f10610c2d57610100808354040283529160200191610c58565b820191906000526020600020905b815481529060010190602001808311610c3b57829003601f168201915b505050505081565b60026000541415610c835760405162461bcd60e51b81526004016101cf906120fb565b60026000556101ee8484600185856110b6565b60026000541415610cb95760405162461bcd60e51b81526004016101cf906120fb565b60026000558151835114610d285760405162461bcd60e51b815260206004820152603060248201527f416464726573736573206c656e677468206d75737420626520657175616c207460448201526f0de40c2dadeeadce8e640d8cadccee8d60831b60648201526084016101cf565b348060005b855181101561107057848181518110610d5657634e487b7160e01b600052603260045260246000fd5b6020026020010151821015610dc35760405162461bcd60e51b815260206004820152602d60248201527f546f74616c20616d6f756e74206973206c657373207468616e2063757272656e60448201526c1d081cd95b9908185b5bdd5b9d609a1b60648201526084016101cf565b848181518110610de357634e487b7160e01b600052603260045260246000fd5b602002602001015182610df6919061219f565b9150610e00611aa6565b3360408201528651879083908110610e2857634e487b7160e01b600052603260045260246000fd5b60209081029190910101516001600160a01b03166060820152600160a0820152600060808201528551869083908110610e7157634e487b7160e01b600052603260045260246000fd5b6020026020010151816020018181525050848281518110610ea257634e487b7160e01b600052603260045260246000fd5b60209081029190910101518152600160c082015286516000903390899085908110610edd57634e487b7160e01b600052603260045260246000fd5b6020026020010151604051602001610ef6929190611ef0565b60408051601f19818403018152918152815160209283012060008181526001808552928120805493840181558152839020855180519295508694600490940290910192610f4892849290910190611ae2565b50602082810151600180840191909155604080850151600280860180546001600160a01b039384166001600160a01b031990911617905560608701516003968701805460808a015160a08b015160c0909b01511515600160b01b0260ff60b01b1960ff9c8d16600160a81b021661ffff60a81b199c909216600160a01b026001600160a81b031990931694909616939093171798909816179190911790955533600090815294835284208054918201815584529083200183905589519091908a908690811061102757634e487b7160e01b600052603260045260246000fd5b6020908102919091018101516001600160a01b03168252818101929092526040016000908120805460018101825590825291902001555080611068816121f1565b915050610d2d565b5060408051838152600160208201527fc05dae71ad6ebf2680862ebed51b27e8ea99855a67cfc24e7a3e0212c34e5e2f910160405180910390a150506001600055505050565b600260005414156110d95760405162461bcd60e51b81526004016101cf906120fb565b600260009081556040516110f39087903390602001611ef0565b60405160208183030381529060405280519060200120905060005b60008281526001602052604090205481101561168d578383604051611134929190611f17565b604051809103902060016000848152602001908152602001600020828154811061116e57634e487b7160e01b600052603260045260246000fd5b906000526020600020906004020160000160405161118c9190611f27565b60405180910390201480156111e1575060008281526001602052604090208054879190839081106111cd57634e487b7160e01b600052603260045260246000fd5b906000526020600020906004020160010154145b801561123d5750600082815260016020526040902080548290811061121657634e487b7160e01b600052603260045260246000fd5b906000526020600020906004020160030160169054906101000a900460ff16151560011515145b1561167b57600082815260016020526040902080543391908390811061127357634e487b7160e01b600052603260045260246000fd5b60009182526020909120600260049092020101546001600160a01b0316146112dd5760405162461bcd60e51b815260206004820152601760248201527f596f7520617265206e6f74207468652073656c6c65722e00000000000000000060448201526064016101cf565b600082815260016020526040902080548691908390811061130e57634e487b7160e01b600052603260045260246000fd5b906000526020600020906004020160030160156101000a81548160ff021916908360ff160217905550600061147b60016000858152602001908152602001600020838154811061136e57634e487b7160e01b600052603260045260246000fd5b90600052602060002090600402016040518060e0016040529081600082018054611397906121b6565b80601f01602080910402602001604051908101604052809291908181526020018280546113c3906121b6565b80156114105780601f106113e557610100808354040283529160200191611410565b820191906000526020600020905b8154815290600101906020018083116113f357829003601f168201915b50505091835250506001820154602082015260028201546001600160a01b039081166040830152600390920154918216606082015260ff600160a01b830481166080830152600160a81b8304811660a0830152600160b01b909204909116151560c090910152611965565b90508060ff16600114156115875760008381526001602052604081208054849081106114b757634e487b7160e01b600052603260045260246000fd5b906000526020600020906004020160030160166101000a81548160ff02191690831515021790555061158260016000858152602001908152602001600020838154811061151457634e487b7160e01b600052603260045260246000fd5b906000526020600020906004020160030160009054906101000a90046001600160a01b031660016000868152602001908152602001600020848154811061156b57634e487b7160e01b600052603260045260246000fd5b9060005260206000209060040201600101546119bf565b611675565b8060ff16600214156116755760008381526001602052604081208054849081106115c157634e487b7160e01b600052603260045260246000fd5b906000526020600020906004020160030160166101000a81548160ff02191690831515021790555061167560016000858152602001908152602001600020838154811061161e57634e487b7160e01b600052603260045260246000fd5b906000526020600020906004020160020160009054906101000a90046001600160a01b031660016000868152602001908152602001600020848154811061156b57634e487b7160e01b600052603260045260246000fd5b5061168d565b80611685816121f1565b91505061110e565b505060016000555050505050565b600260005414156116be5760405162461bcd60e51b81526004016101cf906120fb565b600260009081556040516116d89033908890602001611ef0565b60405160208183030381529060405280519060200120905060005b60008281526001602052604090205481101561168d578383604051611719929190611f17565b604051809103902060016000848152602001908152602001600020828154811061175357634e487b7160e01b600052603260045260246000fd5b90600052602060002090600402016000016040516117719190611f27565b60405180910390201480156117c6575060008281526001602052604090208054879190839081106117b257634e487b7160e01b600052603260045260246000fd5b906000526020600020906004020160010154145b8015611822575060008281526001602052604090208054829081106117fb57634e487b7160e01b600052603260045260246000fd5b906000526020600020906004020160030160169054906101000a900460ff16151560011515145b1561195357600082815260016020526040902080543391908390811061185857634e487b7160e01b600052603260045260246000fd5b60009182526020909120600260049092020101546001600160a01b0316146118c25760405162461bcd60e51b815260206004820152601760248201527f596f7520617265206e6f742074686520636c69656e742e00000000000000000060448201526064016101cf565b60008281526001602052604090208054869190839081106118f357634e487b7160e01b600052603260045260246000fd5b906000526020600020906004020160030160146101000a81548160ff021916908360ff160217905550600061147b60016000858152602001908152602001600020838154811061136e57634e487b7160e01b600052603260045260246000fd5b8061195d816121f1565b9150506116f3565b60006002600054141561198a5760405162461bcd60e51b81526004016101cf906120fb565b600260005560a0820151608083015160ff908116911614156119b1575060808101516119b5565b5060005b6001600055919050565b6001600160a01b038216611a0a5760405162461bcd60e51b81526020600482015260126024820152710416464726573732063616e277420626520360741b60448201526064016101cf565b6000826001600160a01b03168260405160006040518083038185875af1925050503d8060008114611a57576040519150601f19603f3d011682016040523d82523d6000602084013e611a5c565b606091505b50509050806004604051602001611a739190611f96565b60405160208183030381529060405290611aa05760405162461bcd60e51b81526004016101cf91906120e1565b50505050565b6040805160e081018252606080825260006020830181905292820183905281018290526080810182905260a0810182905260c081019190915290565b828054611aee906121b6565b90600052602060002090601f016020900481019282611b105760008555611b56565b82601f10611b2957805160ff1916838001178555611b56565b82800160010185558215611b56579182015b82811115611b56578251825591602001919060010190611b3b565b50611b62929150611b66565b5090565b5b80821115611b625760008155600101611b67565b6000601f8381840112611b8c578182fd5b82356020611ba1611b9c83612163565b612132565b80838252828201915082870188848660051b8a01011115611bc0578687fd5b865b85811015611c5357813567ffffffffffffffff80821115611be157898afd5b818b0191508b603f830112611bf457898afd5b86820135604082821115611c0a57611c0a612222565b611c1b828c01601f19168a01612132565b92508183528d81838601011115611c30578b8cfd5b818185018a85013750810187018a90528552509284019290840190600101611bc2565b509098975050505050505050565b600082601f830112611c71578081fd5b81356020611c81611b9c83612163565b80838252828201915082860187848660051b8901011115611ca0578586fd5b855b85811015611cbe57813584529284019290840190600101611ca2565b5090979650505050505050565b60008083601f840112611cdc578182fd5b50813567ffffffffffffffff811115611cf3578182fd5b602083019150836020828501011115611d0b57600080fd5b9250929050565b600080600060408486031215611d26578283fd5b8335611d3181612238565b9250602084013567ffffffffffffffff811115611d4c578283fd5b611d5886828701611ccb565b9497909650939450505050565b60008060008060608587031215611d7a578081fd5b8435611d8581612238565b935060208501359250604085013567ffffffffffffffff811115611da7578182fd5b611db387828801611ccb565b95989497509550505050565b600080600060608486031215611dd3578283fd5b833567ffffffffffffffff80821115611dea578485fd5b818601915086601f830112611dfd578485fd5b81356020611e0d611b9c83612163565b8083825282820191508286018b848660051b8901011115611e2c57898afd5b8996505b84871015611e57578035611e4381612238565b835260019690960195918301918301611e30565b5097505087013592505080821115611e6d578384fd5b611e7987838801611c61565b93506040860135915080821115611e8e578283fd5b50611e9b86828701611b7b565b9150509250925092565b60008151808452815b81811015611eca57602081850181015186830182015201611eae565b81811115611edb5782602083870101525b50601f01601f19169290920160200192915050565b6bffffffffffffffffffffffff19606093841b811682529190921b16601482015260280190565b8183823760009101908152919050565b6000808354611f35816121b6565b60018281168015611f4d5760018114611f5e57611f8a565b60ff19841687528287019450611f8a565b8786526020808720875b85811015611f815781548a820152908401908201611f68565b50505082870194505b50929695505050505050565b6e02330b4b632b2103a379039b2b7321608d1b81526000600f818454611fbb816121b6565b60018281168015611fd35760018114611fe857612018565b60ff1984168887015282880186019450612018565b8887526020808820885b8581101561200d5781548b82018a0152908401908201611ff2565b505050858389010194505b5092979650505050505050565b60006020808301818452808551808352604092508286019150828160051b870101848801865b83811015611c5357603f19898403018552815160e0815181865261207182870182611ea5565b838b0151878c0152898401516001600160a01b039081168b8901526060808601519091169088015260808085015160ff169088015260a08085015191935091506120bf8288018260ff169052565b505060c09182015115159490910193909352938601939086019060010161204b565b6020815260006120f46020830184611ea5565b9392505050565b6020808252601f908201527f5265656e7472616e637947756172643a207265656e7472616e742063616c6c00604082015260600190565b604051601f8201601f1916810167ffffffffffffffff8111828210171561215b5761215b612222565b604052919050565b600067ffffffffffffffff82111561217d5761217d612222565b5060051b60200190565b6000821982111561219a5761219a61220c565b500190565b6000828210156121b1576121b161220c565b500390565b600181811c908216806121ca57607f821691505b602082108114156121eb57634e487b7160e01b600052602260045260246000fd5b50919050565b60006000198214156122055761220561220c565b5060010190565b634e487b7160e01b600052601160045260246000fd5b634e487b7160e01b600052604160045260246000fd5b6001600160a01b038116811461224d57600080fd5b5056fea2646970667358221220615c26793c770bfa89aebec8cbf7944820678727e79db296fbd77def91cdb80664736f6c63430008040033",
  "linkReferences": {},
  "deployedLinkReferences": {}
}