{
  "_format": "hh-sol-artifact-1",
  "contractName": "ShopsBulkTransactions",
  "sourceName": "contracts/ShopsBulkTransactions.sol",
  "abi": [
    {
      "inputs": [
        {
          "internalType": "string",
          "name": "_symbol",
          "type": "string"
        },
        {
          "internalType": "address",
          "name": "arbitrator",
          "type": "address"
        }
      ],
      "stateMutability": "nonpayable",
      "type": "constructor"
    },
    {
      "anonymous": false,
      "inputs": [
        {
          "indexed": false,
          "internalType": "uint256",
          "name": "_amount",
          "type": "uint256"
        },
        {
          "indexed": false,
          "internalType": "bool",
          "name": "_status",
          "type": "bool"
        }
      ],
      "name": "MultiTransfer",
      "type": "event"
    },
    {
      "inputs": [
        {
          "internalType": "address[]",
          "name": "_clients",
          "type": "address[]"
        },
        {
          "internalType": "address[]",
          "name": "_sellers",
          "type": "address[]"
        },
        {
          "internalType": "uint256[]",
          "name": "_values",
          "type": "uint256[]"
        },
        {
          "internalType": "string[]",
          "name": "_productHashes",
          "type": "string[]"
        }
      ],
      "name": "arbitratorProccessTransaction",
      "outputs": [],
      "stateMutability": "nonpayable",
      "type": "function"
    },
    {
      "inputs": [
        {
          "internalType": "address[]",
          "name": "_clients",
          "type": "address[]"
        },
        {
          "internalType": "address[]",
          "name": "_sellers",
          "type": "address[]"
        },
        {
          "internalType": "uint256[]",
          "name": "_values",
          "type": "uint256[]"
        },
        {
          "internalType": "string[]",
          "name": "_productHashes",
          "type": "string[]"
        }
      ],
      "name": "arbitratorRevertTransaction",
      "outputs": [],
      "stateMutability": "nonpayable",
      "type": "function"
    },
    {
      "inputs": [
        {
          "internalType": "address",
          "name": "seller",
          "type": "address"
        },
        {
          "internalType": "string",
          "name": "productHash",
          "type": "string"
        }
      ],
      "name": "checkProductOrders",
      "outputs": [
        {
          "internalType": "uint256",
          "name": "",
          "type": "uint256"
        }
      ],
      "stateMutability": "view",
      "type": "function"
    },
    {
      "inputs": [],
      "name": "clientCheckActiveOrders",
      "outputs": [
        {
          "components": [
            {
              "internalType": "string",
              "name": "product_hash",
              "type": "string"
            },
            {
              "internalType": "uint256",
              "name": "value",
              "type": "uint256"
            },
            {
              "internalType": "address",
              "name": "client",
              "type": "address"
            },
            {
              "internalType": "address",
              "name": "seller",
              "type": "address"
            },
            {
              "internalType": "address",
              "name": "arbitrator",
              "type": "address"
            },
            {
              "internalType": "uint8",
              "name": "clientDecision",
              "type": "uint8"
            },
            {
              "internalType": "uint8",
              "name": "sellerDecision",
              "type": "uint8"
            },
            {
              "internalType": "uint8",
              "name": "arbitratorDecision",
              "type": "uint8"
            },
            {
              "internalType": "uint256",
              "name": "deadline",
              "type": "uint256"
            },
            {
              "internalType": "bool",
              "name": "active",
              "type": "bool"
            }
          ],
          "internalType": "struct ShopsBulkTransactions.Order[]",
          "name": "",
          "type": "tuple[]"
        }
      ],
      "stateMutability": "view",
      "type": "function"
    },
    {
      "inputs": [],
      "name": "clientCheckOrders",
      "outputs": [
        {
          "components": [
            {
              "internalType": "string",
              "name": "product_hash",
              "type": "string"
            },
            {
              "internalType": "uint256",
              "name": "value",
              "type": "uint256"
            },
            {
              "internalType": "address",
              "name": "client",
              "type": "address"
            },
            {
              "internalType": "address",
              "name": "seller",
              "type": "address"
            },
            {
              "internalType": "address",
              "name": "arbitrator",
              "type": "address"
            },
            {
              "internalType": "uint8",
              "name": "clientDecision",
              "type": "uint8"
            },
            {
              "internalType": "uint8",
              "name": "sellerDecision",
              "type": "uint8"
            },
            {
              "internalType": "uint8",
              "name": "arbitratorDecision",
              "type": "uint8"
            },
            {
              "internalType": "uint256",
              "name": "deadline",
              "type": "uint256"
            },
            {
              "internalType": "bool",
              "name": "active",
              "type": "bool"
            }
          ],
          "internalType": "struct ShopsBulkTransactions.Order[]",
          "name": "",
          "type": "tuple[]"
        }
      ],
      "stateMutability": "view",
      "type": "function"
    },
    {
      "inputs": [
        {
          "internalType": "address[]",
          "name": "_sellers",
          "type": "address[]"
        },
        {
          "internalType": "uint256[]",
          "name": "_values",
          "type": "uint256[]"
        },
        {
          "internalType": "string[]",
          "name": "_productHashes",
          "type": "string[]"
        }
      ],
      "name": "clientProccessTransaction",
      "outputs": [],
      "stateMutability": "nonpayable",
      "type": "function"
    },
    {
      "inputs": [
        {
          "internalType": "address[]",
          "name": "_sellers",
          "type": "address[]"
        },
        {
          "internalType": "uint256[]",
          "name": "_values",
          "type": "uint256[]"
        },
        {
          "internalType": "string[]",
          "name": "_productHashes",
          "type": "string[]"
        }
      ],
      "name": "clientRevertTransaction",
      "outputs": [],
      "stateMutability": "nonpayable",
      "type": "function"
    },
    {
      "inputs": [
        {
          "internalType": "address payable[]",
          "name": "_addresses",
          "type": "address[]"
        },
        {
          "internalType": "uint256[]",
          "name": "_amounts",
          "type": "uint256[]"
        },
        {
          "internalType": "string[]",
          "name": "_productHashes",
          "type": "string[]"
        }
      ],
      "name": "multiTransfer",
      "outputs": [],
      "stateMutability": "payable",
      "type": "function"
    },
    {
      "inputs": [],
      "name": "sellerCheckActiveOrders",
      "outputs": [
        {
          "components": [
            {
              "internalType": "string",
              "name": "product_hash",
              "type": "string"
            },
            {
              "internalType": "uint256",
              "name": "value",
              "type": "uint256"
            },
            {
              "internalType": "address",
              "name": "client",
              "type": "address"
            },
            {
              "internalType": "address",
              "name": "seller",
              "type": "address"
            },
            {
              "internalType": "address",
              "name": "arbitrator",
              "type": "address"
            },
            {
              "internalType": "uint8",
              "name": "clientDecision",
              "type": "uint8"
            },
            {
              "internalType": "uint8",
              "name": "sellerDecision",
              "type": "uint8"
            },
            {
              "internalType": "uint8",
              "name": "arbitratorDecision",
              "type": "uint8"
            },
            {
              "internalType": "uint256",
              "name": "deadline",
              "type": "uint256"
            },
            {
              "internalType": "bool",
              "name": "active",
              "type": "bool"
            }
          ],
          "internalType": "struct ShopsBulkTransactions.Order[]",
          "name": "",
          "type": "tuple[]"
        }
      ],
      "stateMutability": "view",
      "type": "function"
    },
    {
      "inputs": [],
      "name": "sellerCheckOrders",
      "outputs": [
        {
          "components": [
            {
              "internalType": "string",
              "name": "product_hash",
              "type": "string"
            },
            {
              "internalType": "uint256",
              "name": "value",
              "type": "uint256"
            },
            {
              "internalType": "address",
              "name": "client",
              "type": "address"
            },
            {
              "internalType": "address",
              "name": "seller",
              "type": "address"
            },
            {
              "internalType": "address",
              "name": "arbitrator",
              "type": "address"
            },
            {
              "internalType": "uint8",
              "name": "clientDecision",
              "type": "uint8"
            },
            {
              "internalType": "uint8",
              "name": "sellerDecision",
              "type": "uint8"
            },
            {
              "internalType": "uint8",
              "name": "arbitratorDecision",
              "type": "uint8"
            },
            {
              "internalType": "uint256",
              "name": "deadline",
              "type": "uint256"
            },
            {
              "internalType": "bool",
              "name": "active",
              "type": "bool"
            }
          ],
          "internalType": "struct ShopsBulkTransactions.Order[]",
          "name": "",
          "type": "tuple[]"
        }
      ],
      "stateMutability": "view",
      "type": "function"
    },
    {
      "inputs": [
        {
          "internalType": "address[]",
          "name": "_clients",
          "type": "address[]"
        },
        {
          "internalType": "uint256[]",
          "name": "_values",
          "type": "uint256[]"
        },
        {
          "internalType": "string[]",
          "name": "_productHashes",
          "type": "string[]"
        }
      ],
      "name": "sellerProccessTransaction",
      "outputs": [],
      "stateMutability": "nonpayable",
      "type": "function"
    },
    {
      "inputs": [
        {
          "internalType": "address[]",
          "name": "_clients",
          "type": "address[]"
        },
        {
          "internalType": "uint256[]",
          "name": "_values",
          "type": "uint256[]"
        },
        {
          "internalType": "string[]",
          "name": "_productHashes",
          "type": "string[]"
        }
      ],
      "name": "sellerRevertTransaction",
      "outputs": [],
      "stateMutability": "nonpayable",
      "type": "function"
    },
    {
      "inputs": [],
      "name": "symbol",
      "outputs": [
        {
          "internalType": "string",
          "name": "",
          "type": "string"
        }
      ],
      "stateMutability": "view",
      "type": "function"
    }
  ],
  "bytecode": "0x60806040523480156200001157600080fd5b506040516200b5bf3803806200b5bf8339818101604052810190620000379190620002e1565b6001600081905550620000737f2226720b3adea324d3f6540dc4ccabcef8c50e320704b90486c2cfa36d61290b60001b620001a560201b60201c565b620000a77f76e3b7336e5ac875c6f5d158adeb95921de24e70026b8b6e9f33058721473eda60001b620001a560201b60201c565b620000db7f84be49b428270c01830f3b4ac2acd821099856dc3e9595c4ca7c4e0525171b7960001b620001a560201b60201c565b8160059080519060200190620000f3929190620001a8565b50620001287f57bb7fcabf64cf913ca6426f6c81414ff3b320576f77249f21794aa81796a97d60001b620001a560201b60201c565b6200015c7fde6cb3df05d825d32cf9f1027ce1adc80d799ea1e0df3e131402807a05b49e1360001b620001a560201b60201c565b80600160006101000a81548173ffffffffffffffffffffffffffffffffffffffff021916908373ffffffffffffffffffffffffffffffffffffffff1602179055505050620004f9565b50565b828054620001b69062000404565b90600052602060002090601f016020900481019282620001da576000855562000226565b82601f10620001f557805160ff191683800117855562000226565b8280016001018555821562000226579182015b828111156200022557825182559160200191906001019062000208565b5b50905062000235919062000239565b5090565b5b80821115620002545760008160009055506001016200023a565b5090565b60006200026f620002698462000364565b6200033b565b9050828152602081018484840111156200028857600080fd5b62000295848285620003ce565b509392505050565b600081519050620002ae81620004df565b92915050565b600082601f830112620002c657600080fd5b8151620002d884826020860162000258565b91505092915050565b60008060408385031215620002f557600080fd5b600083015167ffffffffffffffff8111156200031057600080fd5b6200031e85828601620002b4565b925050602062000331858286016200029d565b9150509250929050565b6000620003476200035a565b90506200035582826200043a565b919050565b6000604051905090565b600067ffffffffffffffff8211156200038257620003816200049f565b5b6200038d82620004ce565b9050602081019050919050565b6000620003a782620003ae565b9050919050565b600073ffffffffffffffffffffffffffffffffffffffff82169050919050565b60005b83811015620003ee578082015181840152602081019050620003d1565b83811115620003fe576000848401525b50505050565b600060028204905060018216806200041d57607f821691505b6020821081141562000434576200043362000470565b5b50919050565b6200044582620004ce565b810181811067ffffffffffffffff821117156200046757620004666200049f565b5b80604052505050565b7f4e487b7100000000000000000000000000000000000000000000000000000000600052602260045260246000fd5b7f4e487b7100000000000000000000000000000000000000000000000000000000600052604160045260246000fd5b6000601f19601f8301169050919050565b620004ea816200039a565b8114620004f657600080fd5b50565b61b0b680620005096000396000f3fe6080604052600436106100c25760003560e01c80637bcebb161161007f578063d760a5a411610059578063d760a5a414610256578063dff68ed314610272578063e1a2974c1461029b578063fff35722146102c4576100c2565b80637bcebb16146101d557806395d89b411461020057806398feff331461022b576100c2565b80631bd0ecf8146100c757806321a598de146100f057806324c7ec201461012d5780632c7f173e146101565780636749cf5b1461017f578063697b8108146101aa575b600080fd5b3480156100d357600080fd5b506100ee60048036038101906100e9919061a072565b6102ed565b005b3480156100fc57600080fd5b5061011760048036038101906101129190619f57565b6106f8565b604051610124919061a907565b60405180910390f35b34801561013957600080fd5b50610154600480360381019061014f9190619faf565b610ece565b005b34801561016257600080fd5b5061017d6004803603810190610178919061a072565b611410565b005b34801561018b57600080fd5b5061019461181c565b6040516101a1919061a783565b60405180910390f35b3480156101b657600080fd5b506101bf61217c565b6040516101cc919061a783565b60405180910390f35b3480156101e157600080fd5b506101ea612ff5565b6040516101f7919061a783565b60405180910390f35b34801561020c57600080fd5b50610215613955565b604051610222919061a7a5565b60405180910390f35b34801561023757600080fd5b506102406139e3565b60405161024d919061a783565b60405180910390f35b610270600480360381019061026b919061a109565b61485c565b005b34801561027e57600080fd5b506102996004803603810190610294919061a072565b6158c1565b005b3480156102a757600080fd5b506102c260048036038101906102bd9190619faf565b615ccd565b005b3480156102d057600080fd5b506102eb60048036038101906102e6919061a072565b61620f565b005b60026000541415610333576040517f08c379a000000000000000000000000000000000000000000000000000000000815260040161032a9061a8e7565b60405180910390fd5b60026000819055506103677f110f6e8c9015622968d06f4dfaaea7886c78da91251c6fa5e1c32820237b216560001b61661b565b6103937f296b5783d6ff777135c28b98e79cd24d43c079525731f443393d617226c5b87c60001b61661b565b6103bf7fef02c3b67aa5d08584849f107cf97e6c3ada43d270be1bca098c41bedfb968a860001b61661b565b6103eb7f68b6027d5a4d26751c5d13eba0dddc938f57c42fc5130c3e62ba96e8cadf7e7e60001b61661b565b815183511461042f576040517f08c379a00000000000000000000000000000000000000000000000000000000081526004016104269061a8c7565b60405180910390fd5b61045b7fe96c886f6b94afab86a0e0290fa338e96c54a0bc32be917217bcb28d530bd85f60001b61661b565b6104867ed6ed4f3c73c35d46b88b7019cd55124c435deec0c865abc8d5c317a13bdb0660001b61661b565b6104b27ff9039e7dbb7b77d595e9c9d09c377f7e73b020161aa29f070586a3c97e2abcfb60001b61661b565b6104de7f21f8dec86290a3056d9e7a6c588256a6125d28570e5fa65300777722813c041660001b61661b565b8051835114610522576040517f08c379a00000000000000000000000000000000000000000000000000000000081526004016105199061a887565b60405180910390fd5b61054e7f38c2a31ef7b734bf42835ed23c15e462e09c7689ea38bc8c4e8a715a9cba9c9460001b61661b565b61057a7fffe54561b2c5d37547a8e9c0b6b009e124428530f2b35bed4f022b926d21e8ba60001b61661b565b6105a67f1e1a64e0b6f9bab8804c69150287cbe726c180a6e2a9f15fa64725d4d9b592d960001b61661b565b60005b83518110156106ea576105de7ff25a26209f84b743e5750f858c904182f369c13d49286e309da4db17d4e454e660001b61661b565b61060a7f6d5d93d4d666f39e3635f878ab1d6b1cdab1badf6f0133eb352306d3544c59f660001b61661b565b6106d7848281518110610646577f4e487b7100000000000000000000000000000000000000000000000000000000600052603260045260246000fd5b6020026020010151848381518110610687577f4e487b7100000000000000000000000000000000000000000000000000000000600052603260045260246000fd5b602002602001015160028585815181106106ca577f4e487b7100000000000000000000000000000000000000000000000000000000600052603260045260246000fd5b602002602001015161661e565b80806106e29061ac8d565b9150506105a9565b506001600081905550505050565b60006107267fb4cce98b5a4c3ed3972aed5cb02600605c32c4a439b5f6a403ac9d2580fe905e60001b61661b565b6107527f885ea0ffd9d8c5b0f2bcf4198c35b566f9db76fc97e7e0db303f5fc22f18497560001b61661b565b61077e7f4bd4688547bfbd4a4e034dd8a99df8c9e1341893c110a9fdb299a4756e9a31ef60001b61661b565b60006107ac7fcd3566958c7f42143eb53afe51bee3766e338394ed7aaa6f1d3613cabfe9cd8260001b61661b565b6107d87f9d37c55cfd143ffd9646690a068637aa5574c3967df72cdfeba69a734b00279c60001b61661b565b6000600460008773ffffffffffffffffffffffffffffffffffffffff1673ffffffffffffffffffffffffffffffffffffffff16815260200190815260200160002080548060200260200160405190810160405280929190818152602001828054801561086357602002820191906000526020600020905b81548152602001906001019080831161084f575b505050505090506108967fe52d950f7baa7e7cc9822ac0f9b0da8d1625ca2139bd9e49e3c127c0facaff3860001b61661b565b6108c27ffabc0ae6b2ad008967dd438286f56fdd7a9f5ee6ce7a2cc663bb946639c69e7960001b61661b565b60006108f07f45904b6703fe5652187e8881a0b316f2d848d27200aebde94da1f3496eae110a60001b61661b565b61091c7f7d8ae90e468b980021fa75ea6366163f9f268dbaac1652d74279eb072f939b8e60001b61661b565b60005b8251811015610e68576109547ff3d05d0e26e3fc313f3fb6e9dc2e6ab27b89031be7ee9f3543f81190f8fc00e160001b61661b565b6109807f1ce58042463b9f02a10ffc238cfe661880fd109cb126715373f7c72f93c45f5360001b61661b565b6000600260008584815181106109bf577f4e487b7100000000000000000000000000000000000000000000000000000000600052603260045260246000fd5b60200260200101518152602001908152602001600020805480602002602001604051908101604052809291908181526020016000905b82821015610c42578382906000526020600020906007020160405180610140016040529081600082018054610a299061ac2a565b80601f0160208091040260200160405190810160405280929190818152602001828054610a559061ac2a565b8015610aa25780601f10610a7757610100808354040283529160200191610aa2565b820191906000526020600020905b815481529060010190602001808311610a8557829003601f168201915b50505050508152602001600182015481526020016002820160009054906101000a900473ffffffffffffffffffffffffffffffffffffffff1673ffffffffffffffffffffffffffffffffffffffff1673ffffffffffffffffffffffffffffffffffffffff1681526020016003820160009054906101000a900473ffffffffffffffffffffffffffffffffffffffff1673ffffffffffffffffffffffffffffffffffffffff1673ffffffffffffffffffffffffffffffffffffffff1681526020016004820160009054906101000a900473ffffffffffffffffffffffffffffffffffffffff1673ffffffffffffffffffffffffffffffffffffffff1673ffffffffffffffffffffffffffffffffffffffff1681526020016004820160149054906101000a900460ff1660ff1660ff1681526020016004820160159054906101000a900460ff1660ff1660ff1681526020016004820160169054906101000a900460ff1660ff1660ff168152602001600582015481526020016006820160009054906101000a900460ff161515151581525050815260200190600101906109f5565b505050509050610c747f9b7be32bf7735389781830d5c41b728f2edb7a7fb3d31d38899774ebc91238fd60001b61661b565b610ca07f370f64d0535346cb0d2e21a8622cc2c914be672c42e67595ebec5352c818664260001b61661b565b60005b8151811015610e5357610cd87fdeeb61f89f80d24c37b28d995725a13992a762344f42d4da3e60277d9395b8d560001b61661b565b610d047f4054ef2bcad1b721f7cc91e6ea7e4b1f074a4ea0bcf0f79d76ace2389c48857060001b61661b565b8888604051610d1492919061a71c565b6040518091039020828281518110610d55577f4e487b7100000000000000000000000000000000000000000000000000000000600052603260045260246000fd5b602002602001015160000151805190602001201415610dd957610d9a7f4b12bda2ba3c04e9eb9adc649707d8e6bd9574c3235dfd3ed466252339a02efa60001b61661b565b610dc67fd061b1446faa6b5b823d3ed8a777fa26f07ac0a093eafa307f8c678441bd672360001b61661b565b8580610dd19061ac8d565b965050610e06565b610e057f3f47569b0f4c766d7d772be1bb3081443820fe53f82bfa0083a6290943c1cb3e60001b61661b565b5b610e327f6b3dbc2e27b43bef9dd0b119f2ede503dce40918cb071bf9ece74458dad9012460001b61661b565b8380610e3d9061ac8d565b9450508080610e4b9061ac8d565b915050610ca3565b50508080610e609061ac8d565b91505061091f565b50610e957fdccf07cc23be5d556fec7289dda66fdb70f691b0550d1ab77dcd6385a134295260001b61661b565b610ec17f293d1b8e514aed002ac43114f179820b4d20ecf111fcda5ba1ddf8a1d4fd701360001b61661b565b8293505050509392505050565b60026000541415610f14576040517f08c379a0000000000000000000000000000000000000000000000000000000008152600401610f0b9061a8e7565b60405180910390fd5b6002600081905550610f487fca1cd5ec324bc5d05989d262fc61bfcc6f40d3fbb935fc345a7c986d40f3715460001b61661b565b610f747f6b13571c2f4c86e3a2410c256b96bec1846d1b9d30ff14539e675cda94f1aa1f60001b61661b565b610fa07f946a0f1ea29888eff96c63ccb3e28f02a9e02736769e633641d27cc7b519f03a60001b61661b565b610fcc7fc02e244e66f091d811ec0e943be3b8b2d362ba71b2bb08f318053953a66d73ae60001b61661b565b8151845114611010576040517f08c379a00000000000000000000000000000000000000000000000000000000081526004016110079061a8c7565b60405180910390fd5b61103c7f797198a5e469046b5d2fc405837cf22d5696da572ee8e349aa960c4413d038b160001b61661b565b6110687fdb069da838535b0aba01dd47551e44bc01b2a822b7d425698a0bb47741a596d560001b61661b565b6110947f9b992f58a4bb9cf45ccea4f4c07e153d99f2d5182aecc0b5f04dcac09016075a60001b61661b565b6110c07ff75789c80bf75289f9cc789e6f331e39cc1b8e6303a7852535ed6f658a82698f60001b61661b565b8051845114611104576040517f08c379a00000000000000000000000000000000000000000000000000000000081526004016110fb9061a887565b60405180910390fd5b6111307f35a56bbb26f033b5c226bcdfc753b7081df7f69680ffd791fa3eb1545f81795060001b61661b565b61115c7f4170cc76744ec9aebc2f1bd0e3cc27aeff1e9bebf8b397c477f202c4231c6bed60001b61661b565b6111887ff6d96334876f621ce3480ff2033aeb4c823f46238184e228f900eb39a55f686b60001b61661b565b6111b47f4cf1e5a3f50f90ef9f6fd32fd7a02982112907e2acd930fb52be5381e4fe769d60001b61661b565b82518451146111f8576040517f08c379a00000000000000000000000000000000000000000000000000000000081526004016111ef9061a867565b60405180910390fd5b6112247f28db0a29fd6c74eef9edb831aa1009134563080ecafbfcf6aa7340355e95484b60001b61661b565b6112507f6e361069e3d3cfdf25c87ab05b3c54c8a6d8c14a40f3decae09a48deabafa98d60001b61661b565b61127c7f16d004c8c92566980ff47e351f06e61fa5f2d2b12d5889249335262d670cec0460001b61661b565b60005b8451811015611401576112b47ff7fac5e5260d444ed6b3a243112eb6941ca09741dd80624891c34cac1ac23ba060001b61661b565b6112e07f57331e1f6d794c4309ac187cdfa4a87e7efcfc22b28722dbf1b5cf8cb13b7c8d60001b61661b565b6113ee85828151811061131c577f4e487b7100000000000000000000000000000000000000000000000000000000600052603260045260246000fd5b602002602001015185838151811061135d577f4e487b7100000000000000000000000000000000000000000000000000000000600052603260045260246000fd5b602002602001015185848151811061139e577f4e487b7100000000000000000000000000000000000000000000000000000000600052603260045260246000fd5b602002602001015160028686815181106113e1577f4e487b7100000000000000000000000000000000000000000000000000000000600052603260045260246000fd5b6020026020010151617454565b80806113f99061ac8d565b91505061127f565b50600160008190555050505050565b60026000541415611456576040517f08c379a000000000000000000000000000000000000000000000000000000000815260040161144d9061a8e7565b60405180910390fd5b600260008190555061148a7f580626280a140b06a2a3f9f99b05517baf346b9831f6d6f548399a78d6e7cbc460001b61661b565b6114b67fed008b8714e0427442b66bdac8b7f26fcffa517de7a4bfb81c195719942e744b60001b61661b565b6114e27f9ff9b8f0baeca0b503d750f68031dcbc0af2aaa98f931431913e17568605c8ad60001b61661b565b61150e7f07bd60c06f70ffda42e499a140adb60c8c1452187e7c5c395863fd87c7f39a5e60001b61661b565b8151835114611552576040517f08c379a00000000000000000000000000000000000000000000000000000000081526004016115499061a8c7565b60405180910390fd5b61157e7f3aa70e00e2849c4a0be2d6e3128c54695a528e66cc5269c64b00a9774571864b60001b61661b565b6115aa7fe1e3f73ead691eb72af2d5bcf79e26f415cfeb3b7d7e7d8c1da2db523f8ea97960001b61661b565b6115d67f3751607b55b6687b326485a7fc3198eb0b42fb763ab9b97a073b2a4678ccb21760001b61661b565b6116027ffee8c2d3e2301774451fa413d64c98c46135cc1af119cc792f1054924f0f855b60001b61661b565b8051835114611646576040517f08c379a000000000000000000000000000000000000000000000000000000000815260040161163d9061a887565b60405180910390fd5b6116727f91f4647edcd93e81bd77a286e1b04e94134182eaa11401e5ea92f17dceecd2a360001b61661b565b61169e7f3d2e4469f5589814eec4c618f032be720e5bce9b9f7f9de580c74914bc22c13c60001b61661b565b6116ca7f326e6e06249c8d88d51b8b970c2c9501fb01e15fa831d225c3c0d72b06b24e1660001b61661b565b60005b835181101561180e576117027fd72da27dc5f0f3c46c9115dad7a276f0022cafb173ae24fc60cfe1d69803f85e60001b61661b565b61172e7f3b314b359cb150df41f55c39a050b0c5c3a4c8655aebe708667d656804ac2f3d60001b61661b565b6117fb84828151811061176a577f4e487b7100000000000000000000000000000000000000000000000000000000600052603260045260246000fd5b60200260200101518483815181106117ab577f4e487b7100000000000000000000000000000000000000000000000000000000600052603260045260246000fd5b602002602001015160018585815181106117ee577f4e487b7100000000000000000000000000000000000000000000000000000000600052603260045260246000fd5b602002602001015161661e565b80806118069061ac8d565b9150506116cd565b506001600081905550505050565b606061184a7f7a03cb84e8651c1563291dbec1969f8ef760d6567fa70a0de923a0d5f4203d8460001b61661b565b6118767f7f55289962b2a920cbcb7a2739bfa47910b3a04cfa97a565f82c6b89c240f8a260001b61661b565b6118a27f58a9495b12b90e23bc6227ef5d2873565bc33379c80c57122bdf06e79c51526d60001b61661b565b60006118d07f71840e5e01b7b978014869a332b1147b036955469c3a5dfc4c6144eaba278fdc60001b61661b565b6118fc7f05dc11c95ba7355164c5ee96b3bce3ce8794a72cfe432d605e5ec8c8a4b6412c60001b61661b565b6000600360003373ffffffffffffffffffffffffffffffffffffffff1673ffffffffffffffffffffffffffffffffffffffff16815260200190815260200160002080548060200260200160405190810160405280929190818152602001828054801561198757602002820191906000526020600020905b815481526020019060010190808311611973575b505050505090506119ba7fce631827f523dee1c0d90cc3bb88f04ea89caea28fec6a0317576739b31b43be60001b61661b565b6119e67f222bd5c3c60b207bc6c93b63f280df1d8ee0664faf2a65ba10d7e6aa8d227a2360001b61661b565b60005b8151811015611ac157611a1e7f33b970841f2c6fe739b21d5ed337b01d15d67cc56029fe918b7d6f22b0a7ed0360001b61661b565b611a4a7f8b9cb3ed2ca9416564be271b8f4bf006a0d89318c8bd24a118e84bd99965b9bc60001b61661b565b60026000838381518110611a87577f4e487b7100000000000000000000000000000000000000000000000000000000600052603260045260246000fd5b602002602001015181526020019081526020016000208054905083611aac919061aaf7565b92508080611ab99061ac8d565b9150506119e9565b50611aee7ff86d9ceb90330b5f7e16f3c0962294212eec37ce00968674754ec3d970eb6f1a60001b61661b565b611b1a7fda89b3d1a6820ee970a17fad959eff2d092cb4846605dca04076ca5cbb0b7d6060001b61661b565b60008267ffffffffffffffff811115611b5c577f4e487b7100000000000000000000000000000000000000000000000000000000600052604160045260246000fd5b604051908082528060200260200182016040528015611b9557816020015b611b82619ab1565b815260200190600190039081611b7a5790505b509050611bc47fc8feee1751f6bd166cc8d5d2ac1e82978364641fb2ba44784c2350763b51ee5f60001b61661b565b611bf07fef6a6c6ccabb67335437eda9e43c5cd482a052c201319992c63cd3cc3a27ec3460001b61661b565b6000611c1e7fcc4910ac7340514801008b98f4376365b8d6d25ea47f3cccf702f41c980c254960001b61661b565b611c4a7fdbaff91b5484fb8608ed4763a9380d51863bc0eecb837cf71173bbadbbb5e7d160001b61661b565b60005b835181101561211957611c827f8cad4bccaca425f2b174b1cbce0578b2dc73d0ab62f36378af4c4b3c7eb0422d60001b61661b565b611cae7ffb7d4dc8a90eeb933b8ac1088ed842e98fdd6b086eb93e30033834b0ec16075660001b61661b565b600060026000868481518110611ced577f4e487b7100000000000000000000000000000000000000000000000000000000600052603260045260246000fd5b60200260200101518152602001908152602001600020805480602002602001604051908101604052809291908181526020016000905b82821015611f70578382906000526020600020906007020160405180610140016040529081600082018054611d579061ac2a565b80601f0160208091040260200160405190810160405280929190818152602001828054611d839061ac2a565b8015611dd05780601f10611da557610100808354040283529160200191611dd0565b820191906000526020600020905b815481529060010190602001808311611db357829003601f168201915b50505050508152602001600182015481526020016002820160009054906101000a900473ffffffffffffffffffffffffffffffffffffffff1673ffffffffffffffffffffffffffffffffffffffff1673ffffffffffffffffffffffffffffffffffffffff1681526020016003820160009054906101000a900473ffffffffffffffffffffffffffffffffffffffff1673ffffffffffffffffffffffffffffffffffffffff1673ffffffffffffffffffffffffffffffffffffffff1681526020016004820160009054906101000a900473ffffffffffffffffffffffffffffffffffffffff1673ffffffffffffffffffffffffffffffffffffffff1673ffffffffffffffffffffffffffffffffffffffff1681526020016004820160149054906101000a900460ff1660ff1660ff1681526020016004820160159054906101000a900460ff1660ff1660ff1681526020016004820160169054906101000a900460ff1660ff1660ff168152602001600582015481526020016006820160009054906101000a900460ff16151515158152505081526020019060010190611d23565b505050509050611fa27fc6bbae8d0e656826d22a164dbc7a632558db9d4b02b991e82725ea8e867d4c4660001b61661b565b611fce7f44908b0f88c5bee1a78ced16e0d2c87b30fd133e047051d8523af19fad108ff860001b61661b565b60005b8151811015612104576120067f3d18168eda3d8e2ad718873b04ed6f0194beabeca9efd009f33b4c73b4a7263160001b61661b565b6120327f62a415ca574ccc183f19407b64765f21778a9c989d771fdfd74cd3a5049b447460001b61661b565b81818151811061206b577f4e487b7100000000000000000000000000000000000000000000000000000000600052603260045260246000fd5b60200260200101518585815181106120ac577f4e487b7100000000000000000000000000000000000000000000000000000000600052603260045260246000fd5b60200260200101819052506120e37f89345c7a548d73c339a626ae9047f2993f511fa726f73460df044523c7cd437460001b61661b565b83806120ee9061ac8d565b94505080806120fc9061ac8d565b915050611fd1565b505080806121119061ac8d565b915050611c4d565b506121467fe8d122382add2474332ddbe6c087227525da81175f64697b2c27a0d390d2977b60001b61661b565b6121727f668b9123dd0b448d32735793c50501fdc32929b0ab69e8647df6e34fba14a85560001b61661b565b8194505050505090565b60606121aa7f48d8b01496cbbaf52ae2fa84c9a829a9cf90666fc4e858c6473fe3520919807060001b61661b565b6121d67f804b86cdb370fd74d72bece4aaacdcbb9d0217463b54eaa37520c0d11dfa757860001b61661b565b6122027fc599e9f8c7b3fffc6c6a3e5406de671c75ecc78de6cd64bca191cb1123a9daf260001b61661b565b60006122307f2e5ac1126f2af602ceab1d5aaa0f92e76ce7002d565eeea08a16e78692da5e4860001b61661b565b61225c7fa5689d8cff4a9e4ae641dad46297d32ec284015c6bdfe3885352edf9891ec03860001b61661b565b6000600460003373ffffffffffffffffffffffffffffffffffffffff1673ffffffffffffffffffffffffffffffffffffffff1681526020019081526020016000208054806020026020016040519081016040528092919081815260200182805480156122e757602002820191906000526020600020905b8154815260200190600101908083116122d3575b5050505050905061231a7f0da1717149ca941f2633ca94680e7b3bd909a08319b2ca99cf99673b1c0edc1560001b61661b565b6123467fad6206ed1d944fc8b49676225681a4d9508db11ba396257151ff180142a0dee760001b61661b565b60006123747f72768c1c3cc5cf295218e11fcffa4fe188a35521f6bcecbead1b51c870144d3160001b61661b565b6123a07fa641166883bde9c6ba5df2c7bda4548341969a924594496e7bf99f04c25d79f960001b61661b565b60005b8251811015612893576123d87f11e7c5ddc2e68d6295c097688e70f297d26f759edbe7663358ba3c8be968379e60001b61661b565b6124047fc33871c901941bd26759eca95eb78e139f3c141e776f942c7e675ad232ea244660001b61661b565b600060026000858481518110612443577f4e487b7100000000000000000000000000000000000000000000000000000000600052603260045260246000fd5b60200260200101518152602001908152602001600020805480602002602001604051908101604052809291908181526020016000905b828210156126c65783829060005260206000209060070201604051806101400160405290816000820180546124ad9061ac2a565b80601f01602080910402602001604051908101604052809291908181526020018280546124d99061ac2a565b80156125265780601f106124fb57610100808354040283529160200191612526565b820191906000526020600020905b81548152906001019060200180831161250957829003601f168201915b50505050508152602001600182015481526020016002820160009054906101000a900473ffffffffffffffffffffffffffffffffffffffff1673ffffffffffffffffffffffffffffffffffffffff1673ffffffffffffffffffffffffffffffffffffffff1681526020016003820160009054906101000a900473ffffffffffffffffffffffffffffffffffffffff1673ffffffffffffffffffffffffffffffffffffffff1673ffffffffffffffffffffffffffffffffffffffff1681526020016004820160009054906101000a900473ffffffffffffffffffffffffffffffffffffffff1673ffffffffffffffffffffffffffffffffffffffff1673ffffffffffffffffffffffffffffffffffffffff1681526020016004820160149054906101000a900460ff1660ff1660ff1681526020016004820160159054906101000a900460ff1660ff1660ff1681526020016004820160169054906101000a900460ff1660ff1660ff168152602001600582015481526020016006820160009054906101000a900460ff16151515158152505081526020019060010190612479565b5050505090506126f87f65a41dca29515285f7d4a73a90c5bfd547a71558564e9ea13ed9c93466de43a960001b61661b565b6127247f69db9f7d211010a0508bfe8a3abd855fd1c1aea0f6a2b57146afdb1a4972a71e60001b61661b565b60005b815181101561287e5761275c7f4842ff640c4e8bec22eca7e262628d247a28ea3fca6ace094a971e51166e1fe260001b61661b565b6127887f257f3bd7522fc4e213d06b629efff15c1910e8da4b4557595d82766293b0d9ac60001b61661b565b8181815181106127c1577f4e487b7100000000000000000000000000000000000000000000000000000000600052603260045260246000fd5b602002602001015161012001511561283e576127ff7fc2a385ced33ea3fe95b10490bf40eca58778813cd41cc8e3f97b4dbd84d2bd4960001b61661b565b61282b7f4fa699d483984876d1e2a3a8853228353221b0088119c6b88068a047f2d5744560001b61661b565b85806128369061ac8d565b96505061286b565b61286a7f2e5aadbab38b4ad138ff95cd1314e48eb1ce2ffcb88bd7474e840d348cd217c560001b61661b565b5b80806128769061ac8d565b915050612727565b5050808061288b9061ac8d565b9150506123a3565b506128c07fc6188a527919ed1692de0f11b858f63480c26c58d0c97316badeccccf95f1ecc60001b61661b565b6128ec7f4137c928fa73878f4eac334003fcee907b8d51ca50cc787a3f854eba75e0ab9160001b61661b565b60008367ffffffffffffffff81111561292e577f4e487b7100000000000000000000000000000000000000000000000000000000600052604160045260246000fd5b60405190808252806020026020018201604052801561296757816020015b612954619ab1565b81526020019060019003908161294c5790505b5090506129967ffb51f2a388472d861b8957a7fe78496b4a8f771c31f60c8c93ca62085d79844760001b61661b565b6129c27f57c0d03956a5aa0419bd7753bcb87b13fcf5a4932e6d81f3ec4d165c5114141f60001b61661b565b60005b8351811015612f92576129fa7f159957f85714e751ecb111f2bed780b88b53d348eec47132e6010a89f94428f760001b61661b565b612a267f2c7a536a10b4ea5449aa2a553d0fc09f7f6b102cf963b5fe066a8b817de8b6f360001b61661b565b600060026000868481518110612a65577f4e487b7100000000000000000000000000000000000000000000000000000000600052603260045260246000fd5b60200260200101518152602001908152602001600020805480602002602001604051908101604052809291908181526020016000905b82821015612ce8578382906000526020600020906007020160405180610140016040529081600082018054612acf9061ac2a565b80601f0160208091040260200160405190810160405280929190818152602001828054612afb9061ac2a565b8015612b485780601f10612b1d57610100808354040283529160200191612b48565b820191906000526020600020905b815481529060010190602001808311612b2b57829003601f168201915b50505050508152602001600182015481526020016002820160009054906101000a900473ffffffffffffffffffffffffffffffffffffffff1673ffffffffffffffffffffffffffffffffffffffff1673ffffffffffffffffffffffffffffffffffffffff1681526020016003820160009054906101000a900473ffffffffffffffffffffffffffffffffffffffff1673ffffffffffffffffffffffffffffffffffffffff1673ffffffffffffffffffffffffffffffffffffffff1681526020016004820160009054906101000a900473ffffffffffffffffffffffffffffffffffffffff1673ffffffffffffffffffffffffffffffffffffffff1673ffffffffffffffffffffffffffffffffffffffff1681526020016004820160149054906101000a900460ff1660ff1660ff1681526020016004820160159054906101000a900460ff1660ff1660ff1681526020016004820160169054906101000a900460ff1660ff1660ff168152602001600582015481526020016006820160009054906101000a900460ff16151515158152505081526020019060010190612a9b565b505050509050612d1a7ff8ee68f24503fec4497a9ac0c120b2bc89ed7dfedd2aa7c567cf60424e6104c860001b61661b565b612d467fcd71eb1c75989473a9b68cbe8da397f3c7432360cdd4e5dd35ae4412ad6471d360001b61661b565b60005b8151811015612f7d57612d7e7fbdccc5d7f87e296b249c97a33cb8ec5d7df3d8081d356d5b45a37b48b98f037d60001b61661b565b612daa7ffde27b7f3517e798add8a57c171d8be4a17c74de0c25e18a6bee3726b570bf7160001b61661b565b818181518110612de3577f4e487b7100000000000000000000000000000000000000000000000000000000600052603260045260246000fd5b6020026020010151610120015115612f3d57612e217f4b093ba129723397d09862c5b7828dcce34dea49a29f9851d0a3072f97e0341a60001b61661b565b612e4d7f01dd144b7bc76e89f8390e4538b78676df4462a11bc9b922c3e7aa7ff11e49e660001b61661b565b612e797f1d25a4572e5b43e6ad13e6aef2a77ab8cfc84a45df00a57970d2294be4473dbf60001b61661b565b818181518110612eb2577f4e487b7100000000000000000000000000000000000000000000000000000000600052603260045260246000fd5b6020026020010151848681518110612ef3577f4e487b7100000000000000000000000000000000000000000000000000000000600052603260045260246000fd5b6020026020010181905250612f2a7fd044879869dd767d40ada8e5d04c491e4f6a09184b6da47bf82cc0660b0925f260001b61661b565b8480612f359061ac8d565b955050612f6a565b612f697fd8688389a6d2749bebe5c9b05535ff01c22e2360e9f66f80f2eaffd1f2e8bcfd60001b61661b565b5b8080612f759061ac8d565b915050612d49565b50508080612f8a9061ac8d565b9150506129c5565b50612fbf7fc160eddd79bcc37b560f1f48cf5891ef581023c46028421b890af30e521d6ec360001b61661b565b612feb7f6be84b3aac49dec470303b652c19738f59fee74fd80e9f262991a013e5dd368860001b61661b565b8094505050505090565b60606130237f64eda29a32a701c62d5e1dc34709b58a8da2050ca617a91c3fce535585625ce360001b61661b565b61304f7f20693dbf7d02b8b2ff3c8a3b8f9b32a6e599f8d656d058de244f23a56eba2d3f60001b61661b565b61307b7f58e93b0cb23ea18f904127a819f54aa692442d3d8e9e3b43a7188f7bd7e1a85c60001b61661b565b60006130a97f9095d97dbbe22925732d6036bcd7f656918109db03039995996387b1759cc00360001b61661b565b6130d57fc588e76523078724c9200906b3fbd930464efca5e9052517481e2c5161e5a92260001b61661b565b6000600460003373ffffffffffffffffffffffffffffffffffffffff1673ffffffffffffffffffffffffffffffffffffffff16815260200190815260200160002080548060200260200160405190810160405280929190818152602001828054801561316057602002820191906000526020600020905b81548152602001906001019080831161314c575b505050505090506131937f1c0cf05fa90f43438ab53c6825b663ab55e0c71f0b93f96ab0e97599540df64b60001b61661b565b6131bf7f8f836ace9f16af12100566a1bb15a8bd46a7cc3e3c96f7edf84ef77ad9e45d6b60001b61661b565b60005b815181101561329a576131f77f47936fee125bfe93da8e14a79c72441835628bdd1edb497cd38a5797947803f960001b61661b565b6132237fbe20d91755cc0a7875a492a5ad5ee4395c711990d9a2cee81bf0f526c473543d60001b61661b565b60026000838381518110613260577f4e487b7100000000000000000000000000000000000000000000000000000000600052603260045260246000fd5b602002602001015181526020019081526020016000208054905083613285919061aaf7565b925080806132929061ac8d565b9150506131c2565b506132c77f734f758d8f8c9f4e05d69b291d4c87862a31d008f5d7d2983c65b7c08a8fcae460001b61661b565b6132f37f9a10f36028b814bfd210594b9f4f446554fd1db55b0a9230bb4aec4ed157107660001b61661b565b60008267ffffffffffffffff811115613335577f4e487b7100000000000000000000000000000000000000000000000000000000600052604160045260246000fd5b60405190808252806020026020018201604052801561336e57816020015b61335b619ab1565b8152602001906001900390816133535790505b50905061339d7f6900b700b10c8059b800c61bb5f0a4760084f1a523e344bbf9e8c22511fa72cf60001b61661b565b6133c97f074275c4a970010ed2994c08e872a9343da3d950847ea6bd21b921cd4258757060001b61661b565b60006133f77f3d2dd2fcdefc969b4c256cf01804ccb632d9c41762a0b0afb721c6354fe7ad6560001b61661b565b6134237fd2da66384332bc26d5e13f61e41cf56c19b09c4df9be80dbd3e616e1085c3ab960001b61661b565b60005b83518110156138f25761345b7fb5e67bfa225c8d1c79d21dc7209fadc562d0fc584154d9ac52f7546bcdba2b3960001b61661b565b6134877f06707e0ba162d204714adb92118fddaf7e34eea61c8791b8b8d290574da6e58b60001b61661b565b6000600260008684815181106134c6577f4e487b7100000000000000000000000000000000000000000000000000000000600052603260045260246000fd5b60200260200101518152602001908152602001600020805480602002602001604051908101604052809291908181526020016000905b828210156137495783829060005260206000209060070201604051806101400160405290816000820180546135309061ac2a565b80601f016020809104026020016040519081016040528092919081815260200182805461355c9061ac2a565b80156135a95780601f1061357e576101008083540402835291602001916135a9565b820191906000526020600020905b81548152906001019060200180831161358c57829003601f168201915b50505050508152602001600182015481526020016002820160009054906101000a900473ffffffffffffffffffffffffffffffffffffffff1673ffffffffffffffffffffffffffffffffffffffff1673ffffffffffffffffffffffffffffffffffffffff1681526020016003820160009054906101000a900473ffffffffffffffffffffffffffffffffffffffff1673ffffffffffffffffffffffffffffffffffffffff1673ffffffffffffffffffffffffffffffffffffffff1681526020016004820160009054906101000a900473ffffffffffffffffffffffffffffffffffffffff1673ffffffffffffffffffffffffffffffffffffffff1673ffffffffffffffffffffffffffffffffffffffff1681526020016004820160149054906101000a900460ff1660ff1660ff1681526020016004820160159054906101000a900460ff1660ff1660ff1681526020016004820160169054906101000a900460ff1660ff1660ff168152602001600582015481526020016006820160009054906101000a900460ff161515151581525050815260200190600101906134fc565b50505050905061377b7f84e8d720bd40d7ccf8b0efdbec8131eb1209e1b238bb32e57787b93e06a2324b60001b61661b565b6137a77fce06d370584663254270c9f2f07e920e321d01582c9b7ce5c553ea839f3eed7860001b61661b565b60005b81518110156138dd576137df7f7db7c1d2d8114cbbf223dcfba533c9b05d474b8edaf6b93c8db7c966299743c060001b61661b565b61380b7f9b0e063fd8edd5c792d59f8bac934ef756337e86e2f8c0a71eb1ecd3e3a72aab60001b61661b565b818181518110613844577f4e487b7100000000000000000000000000000000000000000000000000000000600052603260045260246000fd5b6020026020010151858581518110613885577f4e487b7100000000000000000000000000000000000000000000000000000000600052603260045260246000fd5b60200260200101819052506138bc7f65ebc68c04f854b76e1956929d07bc2cde8ea1951eb9ee6fdf4cc3cc17d848ed60001b61661b565b83806138c79061ac8d565b94505080806138d59061ac8d565b9150506137aa565b505080806138ea9061ac8d565b915050613426565b5061391f7f5559521831722fbf24c439d3a5a639ec36292d6298640fdd2f0ae082e47f55a260001b61661b565b61394b7f9527a8974c33d6d4bb4f55d041ba131ede4d899466e087a03132e41217d9cd3260001b61661b565b8194505050505090565b600580546139629061ac2a565b80601f016020809104026020016040519081016040528092919081815260200182805461398e9061ac2a565b80156139db5780601f106139b0576101008083540402835291602001916139db565b820191906000526020600020905b8154815290600101906020018083116139be57829003601f168201915b505050505081565b6060613a117f54357b50e80713e1d685c2410e34d8d0d8e09e44e1d9aa9afe54733dedb16ce060001b61661b565b613a3d7f3b7c8caf3be9495e437ab2ba73df0960d5cafb8ee4c0872ec69608e5966b2d5a60001b61661b565b613a697f8e4333b1ac747524b764f899ec7735b80b61936e212e9f79ed1d9e3c8043cb1460001b61661b565b6000613a977fd84097bb7149014cce2b20c00cef04dc650f81775e4b6c72587f38079d2c53a660001b61661b565b613ac37fd308b0e293211ab0619236057f02623dab12e7c538bea8c6862fef543c584fa960001b61661b565b6000600360003373ffffffffffffffffffffffffffffffffffffffff1673ffffffffffffffffffffffffffffffffffffffff168152602001908152602001600020805480602002602001604051908101604052809291908181526020018280548015613b4e57602002820191906000526020600020905b815481526020019060010190808311613b3a575b50505050509050613b817f1713012f2938473c6dbe0565ea0f85e007f54a310e159f8669806d1942e8cba760001b61661b565b613bad7f63276596c358bd1154b1ccbc35c3bb881e337671a79d5ff41f0cc509be6fa8db60001b61661b565b6000613bdb7fd47552340fcd501acea69f4472e1f5c554d91cd3c29a8cabfdba34e2afb90da960001b61661b565b613c077fdb0b76a0dce10b2c616aa1471cd7e36a8bca49a227c1fa3ff435fca911a3078760001b61661b565b60005b82518110156140fa57613c3f7fd1716a729a89f69d72600f9179565b94f6a653437de7494ac79f6e267a4eb9e360001b61661b565b613c6b7fd1a4b36a0259ba81d9df120e50dedfa0ca8f2ce16591750f9a8b52cecf3cf78360001b61661b565b600060026000858481518110613caa577f4e487b7100000000000000000000000000000000000000000000000000000000600052603260045260246000fd5b60200260200101518152602001908152602001600020805480602002602001604051908101604052809291908181526020016000905b82821015613f2d578382906000526020600020906007020160405180610140016040529081600082018054613d149061ac2a565b80601f0160208091040260200160405190810160405280929190818152602001828054613d409061ac2a565b8015613d8d5780601f10613d6257610100808354040283529160200191613d8d565b820191906000526020600020905b815481529060010190602001808311613d7057829003601f168201915b50505050508152602001600182015481526020016002820160009054906101000a900473ffffffffffffffffffffffffffffffffffffffff1673ffffffffffffffffffffffffffffffffffffffff1673ffffffffffffffffffffffffffffffffffffffff1681526020016003820160009054906101000a900473ffffffffffffffffffffffffffffffffffffffff1673ffffffffffffffffffffffffffffffffffffffff1673ffffffffffffffffffffffffffffffffffffffff1681526020016004820160009054906101000a900473ffffffffffffffffffffffffffffffffffffffff1673ffffffffffffffffffffffffffffffffffffffff1673ffffffffffffffffffffffffffffffffffffffff1681526020016004820160149054906101000a900460ff1660ff1660ff1681526020016004820160159054906101000a900460ff1660ff1660ff1681526020016004820160169054906101000a900460ff1660ff1660ff168152602001600582015481526020016006820160009054906101000a900460ff16151515158152505081526020019060010190613ce0565b505050509050613f5f7f0513a72309a2a8d7a8094c5887b6fb62b8c25db21579393274f45e9133cd0d2e60001b61661b565b613f8b7f113afc036953b4909e0635f0741a0bf8fe4b5ef556a78795c768ca79ef77066860001b61661b565b60005b81518110156140e557613fc37f0ecda4a5019fa6f29cc5817d8c535c33fc1b0912763a43ae059b49910297297860001b61661b565b613fef7f88e63cf5e013c950455c818379506489606dd0b9ebda5af3a3630ca0d877e2e560001b61661b565b818181518110614028577f4e487b7100000000000000000000000000000000000000000000000000000000600052603260045260246000fd5b60200260200101516101200151156140a5576140667f18bf3c9e77bc5454590b39419fd6a0afe4342be7be03fb33e5541b993a0a6cbb60001b61661b565b6140927fc149372d9057fc7505c5a5c907fe0aadf90e0232a921f7eb32698a7b5eb070f460001b61661b565b858061409d9061ac8d565b9650506140d2565b6140d17f36012d30e5c326b8aed1ecfc279d035a2897e9a0e74e3aed9665342626bc187460001b61661b565b5b80806140dd9061ac8d565b915050613f8e565b505080806140f29061ac8d565b915050613c0a565b506141277fd9d9676a3042bb24e4bb5a1984897329c83b813593707a98ef107dc8ab143d3360001b61661b565b6141537f5d0b16690b569389ac46dea954d4b9ae434e965706654b262ff5d38eb0a4b03160001b61661b565b60008367ffffffffffffffff811115614195577f4e487b7100000000000000000000000000000000000000000000000000000000600052604160045260246000fd5b6040519080825280602002602001820160405280156141ce57816020015b6141bb619ab1565b8152602001906001900390816141b35790505b5090506141fd7f488569a5d444a81a1c6b456542bdfed94ee03c62550e7e63389ffe33ee2f4a1c60001b61661b565b6142297f7833acc5163c711ed8e8aae2896ae961f2858b87843023654ae70398059e404b60001b61661b565b60005b83518110156147f9576142617fe47c97f4fd576bbcebb9d31be91a11ac896889a6984added6cc8ed77c3152e0060001b61661b565b61428d7f90b9d60c0ea7578eea449e74c7d014bd0b6b11defd0ae16bdf2507f786ac44dc60001b61661b565b6000600260008684815181106142cc577f4e487b7100000000000000000000000000000000000000000000000000000000600052603260045260246000fd5b60200260200101518152602001908152602001600020805480602002602001604051908101604052809291908181526020016000905b8282101561454f5783829060005260206000209060070201604051806101400160405290816000820180546143369061ac2a565b80601f01602080910402602001604051908101604052809291908181526020018280546143629061ac2a565b80156143af5780601f10614384576101008083540402835291602001916143af565b820191906000526020600020905b81548152906001019060200180831161439257829003601f168201915b50505050508152602001600182015481526020016002820160009054906101000a900473ffffffffffffffffffffffffffffffffffffffff1673ffffffffffffffffffffffffffffffffffffffff1673ffffffffffffffffffffffffffffffffffffffff1681526020016003820160009054906101000a900473ffffffffffffffffffffffffffffffffffffffff1673ffffffffffffffffffffffffffffffffffffffff1673ffffffffffffffffffffffffffffffffffffffff1681526020016004820160009054906101000a900473ffffffffffffffffffffffffffffffffffffffff1673ffffffffffffffffffffffffffffffffffffffff1673ffffffffffffffffffffffffffffffffffffffff1681526020016004820160149054906101000a900460ff1660ff1660ff1681526020016004820160159054906101000a900460ff1660ff1660ff1681526020016004820160169054906101000a900460ff1660ff1660ff168152602001600582015481526020016006820160009054906101000a900460ff16151515158152505081526020019060010190614302565b5050505090506145817f40663ee4f026a9ab72187dfcbeb95f6e3d3a0170da79b6da2b8b871a3121d15c60001b61661b565b6145ad7fd3010ca31cce6cc98c76621550ed8bd91b1f600d9dfa066b7d9753de1f4a563460001b61661b565b60005b81518110156147e4576145e57f33837f06265691ac687b790a025204a4bbe6a7093869e3db920f4a6c2072315360001b61661b565b6146117f678f83765ee733af44f468743ec19c50b610673853f2c9a3d5631938d6911f8760001b61661b565b81818151811061464a577f4e487b7100000000000000000000000000000000000000000000000000000000600052603260045260246000fd5b60200260200101516101200151156147a4576146887f01aa34b85bd9593cdc34396d826594fb9a227cd27d4b3e9caf29dfde36ebc8cb60001b61661b565b6146b47f7b240bef50087b5f39e892384410ec7e595bc55541f465150e660e25db992c4260001b61661b565b6146e07f45d0e05ef3545c939bb4bbec5b129ea892640b193835c3521dcc298d064b67ff60001b61661b565b818181518110614719577f4e487b7100000000000000000000000000000000000000000000000000000000600052603260045260246000fd5b602002602001015184868151811061475a577f4e487b7100000000000000000000000000000000000000000000000000000000600052603260045260246000fd5b60200260200101819052506147917f29ac35bb54bb3a6cd2bb183cdd5551811c6760a50bff6d144ab64551e93e2c6960001b61661b565b848061479c9061ac8d565b9550506147d1565b6147d07fbd6bf9f362ddfc8ded0d0271dbbf6052fab03969af91163e89c842a669ead3f560001b61661b565b5b80806147dc9061ac8d565b9150506145b0565b505080806147f19061ac8d565b91505061422c565b506148267fc5eb8b1f93279b9ddceac691834f8d7d3ffcde19d6c46248df268b9d8eff797260001b61661b565b6148527f60b82b93ca2b285b36f1c21cf2071c908fa9f2a5fc3ff2a3777f7f09daf01a4a60001b61661b565b8094505050505090565b600260005414156148a2576040517f08c379a00000000000000000000000000000000000000000000000000000000081526004016148999061a8e7565b60405180910390fd5b60026000819055506148d67fbd62002383adeb0663dda15651b583ceb75c31561bb4014600c6388cfb4e6c1160001b61661b565b6149027fa677b725f6be7b89822010326718f8b04b384ed39cd4acd1de5a05218d3d969b60001b61661b565b61492e7f5e82ca6b665b43698f6687d164b5fd65646218df52d4cdbddadfdf681904bda760001b61661b565b61495a7f4023bf8ca586aac5e8fa32987e693e794009eb7007a770eda00663978fdc55f760001b61661b565b815183511461499e576040517f08c379a00000000000000000000000000000000000000000000000000000000081526004016149959061a807565b60405180910390fd5b6149ca7fae7ccc1238d9cfcdc30bdfeb1701795f9dd3e3981b992d51960891e3ce41cce960001b61661b565b6149f67f84024e72152ddd30f2941ab6ee536c897013e60b83718fd844f71b1191c56cee60001b61661b565b614a227fe4ca7d1344cb3de64511a104ef3f975484959d7bae8c0b2aef6ba92b08e3bf2a60001b61661b565b6000349050614a537fb9e5ded4758982dbbe00a37d7edbc8a9e823fe5950566a60a2774bc8c40d881b60001b61661b565b614a7f7f89ec7b5d6bb858108c2d4fabd59e19299dce1d5a7c1a73ef425c7aa01c38446360001b61661b565b6000349050614ab07fd0a816930603fb3a680490dee0f10fb1c2ec964e4492f407a5d00a07f9014f7560001b61661b565b614adc7f216c06d339af1fe21290b7a9b37a4e4656f8d8006c9a4323cc87377f1fa5253a60001b61661b565b60005b855181101561581f57614b147f3bb2f83bc0c17a6137ca255e10f3484619c3cae4af4cfb44b762ef085a0d98be60001b61661b565b614b407f7ebcbb5cf2f8762a3b999f93e8eef249d224483017b2ef5c20a9206b739ec7e960001b61661b565b614b6c7fc43178b6b68b23d247436e7543013cf3a8168bb4e5a06e7c1c236714ca87ab6960001b61661b565b848181518110614ba5577f4e487b7100000000000000000000000000000000000000000000000000000000600052603260045260246000fd5b6020026020010151821015614bef576040517f08c379a0000000000000000000000000000000000000000000000000000000008152600401614be69061a7e7565b60405180910390fd5b614c1b7fd85d814eb6f97f3d4c903ab01bdd88c27209709aad20258f1747d244877d162760001b61661b565b614c477f75a6c25dfbd8c8c6fc43eb5a11096034f8a172bc81243124188edbe327cbdad760001b61661b565b614c737f14c8814a49fea40f942df7e75f29dcf3d2082892e5c0fd2b0321dcd67f86c23260001b61661b565b848181518110614cac577f4e487b7100000000000000000000000000000000000000000000000000000000600052603260045260246000fd5b602002602001015182614cbf919061ab4d565b9150614ced7f16563cd738c0536a8035e24e6803fd8b967248ba15d3c3e7404774999e517a6e60001b61661b565b614d197fae1f12ef2098e13e4b96551839865bec433bbad9694e54da39a487e292d0a85960001b61661b565b614d21619ab1565b614d4d7feb8d9bc145985444be2308fb932bb65d1d961da4ff318c0efaa2e4ee337548ab60001b61661b565b614d797f78e9b43f2eb3d84d3129049f3b51f51310c87fcb9b56d49aec97930b5bcf652e60001b61661b565b33816040019073ffffffffffffffffffffffffffffffffffffffff16908173ffffffffffffffffffffffffffffffffffffffff1681525050614ddd7fa5afbe5b74af0a7398e583d8a07e66c68500fd4bae70f467f49a5adbdd15562e60001b61661b565b614e097f8b0d74648df624ca7d4b47fcd16e459b254775bfbb387097e614fce4099b236360001b61661b565b868281518110614e42577f4e487b7100000000000000000000000000000000000000000000000000000000600052603260045260246000fd5b6020026020010151816060019073ffffffffffffffffffffffffffffffffffffffff16908173ffffffffffffffffffffffffffffffffffffffff1681525050614ead7fba521e97adba263f57ca0b67fec7519b76b2703ae24177c0ad99b2927a7bed0a60001b61661b565b614ed97f7e7732563b0555388341742316d7e774ba8274a40c3b64e21ec57740c93dc14660001b61661b565b600160009054906101000a900473ffffffffffffffffffffffffffffffffffffffff16816080019073ffffffffffffffffffffffffffffffffffffffff16908173ffffffffffffffffffffffffffffffffffffffff1681525050614f5f7f6c783e909c09e578e42e0552e5e747992a85393c2da6f04292fc9e48dd66297760001b61661b565b614f8b7f2819975c4b6aaf9bf615dfc3e1e6036d6dd5692ee2f013289d22115ee3c50a3e60001b61661b565b60018160c0019060ff16908160ff1681525050614fca7f2a827d34bf1695d6984effd232f01396735bbe4e6902937f35867c41b0ab8c0b60001b61661b565b614ff67f5c3689dc7d4c4d092da08247b8c33ef8d3461345eb406148ab89e4e06189d37960001b61661b565b60008160a0019060ff16908160ff16815250506150357f89fa96a3b4f1bc915d13dd6d6aa930d877f86f68aaadadf0da7af14bfd6af6c960001b61661b565b6150617f45bc537c8142bc77490b94ab3baf00dca3395881a78ad2706d8c0b6395d7d97060001b61661b565b60008160e0019060ff16908160ff16815250506150a07f4e993a250feb410e43e54657ead082d7afeb15da55ab1e8003195936925dd55460001b61661b565b6150cc7f76a698951d2f0589b4a1b8cd97cc1471d1eedea4345582d2174a35cd72db144260001b61661b565b858281518110615105577f4e487b7100000000000000000000000000000000000000000000000000000000600052603260045260246000fd5b60200260200101518160200181815250506151427f428ba52e3191617290e9e2c9de1d51d220d542a8591c3f926b9ef7d8eb8c36e960001b61661b565b61516e7f890b3f539efcfb1826291e772e3c422900469b05869eabf7ba258329933aab3760001b61661b565b8482815181106151a7577f4e487b7100000000000000000000000000000000000000000000000000000000600052603260045260246000fd5b602002602001015181600001819052506151e37f9b2fd3f30f4c2553165a82df8c546e6685c457072d753c9f89ebbbefa534310660001b61661b565b61520f7ff39d1afa5322f0c9315a9384a89edcee160eb9381921b67c9dcb7cb2229556e360001b61661b565b62278d004261521e919061aaf7565b816101000181815250506152547f93f63b7d8f453acd3e3c7fc48135f41ca9ac56139240a1629347e4712b8e6d6e60001b61661b565b6152807f926c405000f4b941695fb53a0602755d8d6067f3178f62f24cda165b299246ea60001b61661b565b6001816101200190151590811515815250506152be7f3d6e390250b25172f55c5c80cd52d5f6e51836980978f96811a728a7ce5c5ddc60001b61661b565b6152ea7f1d6cfd7c74f91907e625b6c0bcc56d64313eb40de74806e9b312f6faec24ad7460001b61661b565b600033888481518110615326577f4e487b7100000000000000000000000000000000000000000000000000000000600052603260045260246000fd5b602002602001015160405160200161533f92919061a6f0565b6040516020818303038152906040528051906020012090506153837f6bf082f63849c31b4c8c3b4473eaa119d0561d658bd8369183edca56da4abc5060001b61661b565b6153af7f0987b899e26724efd03f435e3d6070a33bb9fcb90f4438d8b72541dbc8c4712160001b61661b565b600260008281526020019081526020016000208290806001815401808255809150506001900390600052602060002090600702016000909190919091506000820151816000019080519060200190615408929190619b51565b506020820151816001015560408201518160020160006101000a81548173ffffffffffffffffffffffffffffffffffffffff021916908373ffffffffffffffffffffffffffffffffffffffff16021790555060608201518160030160006101000a81548173ffffffffffffffffffffffffffffffffffffffff021916908373ffffffffffffffffffffffffffffffffffffffff16021790555060808201518160040160006101000a81548173ffffffffffffffffffffffffffffffffffffffff021916908373ffffffffffffffffffffffffffffffffffffffff16021790555060a08201518160040160146101000a81548160ff021916908360ff16021790555060c08201518160040160156101000a81548160ff021916908360ff16021790555060e08201518160040160166101000a81548160ff021916908360ff16021790555061010082015181600501556101208201518160060160006101000a81548160ff02191690831515021790555050506155a57f11f6b79c65525aa967486c6da616a4420514d61bb51407772d0c532f76ea29d460001b61661b565b6155d17ff2721113512ebc1b43b7f48516fd97bcaf4f0188fca67e55c2d5e34da71baa7760001b61661b565b6001600260008381526020019081526020016000208054905014156157dd5761561c7f3e15ac9fddbe850b91276bae678e955b1c6136882dff381b6727c7aa57247b9960001b61661b565b6156487fa5a1f44274239ec653f97a096a02cc427ec2ccdb40a1e78eb5001aa6aa59060d60001b61661b565b6156747f42e8d3193f76acb434a3d1ce3e28a5e5bc81c5285c8029f6e4bb0786e92f7fa260001b61661b565b600360003373ffffffffffffffffffffffffffffffffffffffff1673ffffffffffffffffffffffffffffffffffffffff1681526020019081526020016000208190806001815401808255809150506001900390600052602060002001600090919091909150556157067ffb2b7766d36631949b4feed8ffbc44e138a8cbc95b7a2ea5d24d412ad988f5d160001b61661b565b6157327fa7856fff9b2eefa15261b63e3af3f2a861c78a95023897ff28082b04618c783b60001b61661b565b6004600089858151811061576f577f4e487b7100000000000000000000000000000000000000000000000000000000600052603260045260246000fd5b602002602001015173ffffffffffffffffffffffffffffffffffffffff1673ffffffffffffffffffffffffffffffffffffffff16815260200190815260200160002081908060018154018082558091505060019003906000526020600020016000909190919091505561580a565b6158097f0d2c67bbb2124decc73f222ef0d8cdbdd58b490548fa38cefe847df196019ee460001b61661b565b5b505080806158179061ac8d565b915050614adf565b5061584c7fc843fd2ccfe6c9decf472a967292823a6e62bd006855c646d1174987acfd702060001b61661b565b6158787f6c1b83ca75e1706039e7106745f4bd735318a69b3ca7667e69931e392344032d60001b61661b565b7fc05dae71ad6ebf2680862ebed51b27e8ea99855a67cfc24e7a3e0212c34e5e2f8260016040516158aa92919061a922565b60405180910390a150506001600081905550505050565b60026000541415615907576040517f08c379a00000000000000000000000000000000000000000000000000000000081526004016158fe9061a8e7565b60405180910390fd5b600260008190555061593b7fb0133536dbb5b149f2a1661408e395f6fb6716b09f765eb60137a8238090e7a160001b61661b565b6159677f6eb51174eedb5bb1743fdf44ca5bc106b80a416e8a2156868884ecd2d135e26260001b61661b565b6159937f98d73073c056aeb187c72018bcc595cee644ff01b94b085b11da874847e5055860001b61661b565b6159bf7f52a993fd089ed2cae6a7c2e598a0837aecdb60c3beab7b1da62bcc1f3fb87e2360001b61661b565b8151835114615a03576040517f08c379a00000000000000000000000000000000000000000000000000000000081526004016159fa9061a8c7565b60405180910390fd5b615a2f7fcbd1034073bb369908dee0d382b6e19a37f70beacdd6eb866a427c4f5b35524460001b61661b565b615a5b7f927618f7c8e3a723fc8ebf0060b3d086ca545679444719ba139ff6062f45702a60001b61661b565b615a877feaf263512ab94d8c5027da194dc41cffad4978ef5339f008ffe42aff7947fd0160001b61661b565b615ab37f1b28156c09d43c4aaade23b34f8d8ce2dfa2832067202f19b21cb4a0878082ac60001b61661b565b8051835114615af7576040517f08c379a0000000000000000000000000000000000000000000000000000000008152600401615aee9061a887565b60405180910390fd5b615b237fa6124d4a2a8cdd3178cc97b046d63c3bc01c6bbb5137a89c2d96bbaa2be0194160001b61661b565b615b4f7f3a0f20ecc70dfa8f2051313c81a217bec583fc864b41481b2965b063fe81a09360001b61661b565b615b7b7f71f08193a37e668af77b3da62c34c204c6f174067e2cd4ffa929aaa15c66480260001b61661b565b60005b8351811015615cbf57615bb37f5b8a3e08342d74308281dbfd9c1f9336a5d2e85a33d7e73f4f89fbc4867f41c260001b61661b565b615bdf7fb299914feef0cad260f31ccc2fc3516e7fece8a77f3df6c646e1e3b7231baf1960001b61661b565b615cac848281518110615c1b577f4e487b7100000000000000000000000000000000000000000000000000000000600052603260045260246000fd5b6020026020010151848381518110615c5c577f4e487b7100000000000000000000000000000000000000000000000000000000600052603260045260246000fd5b60200260200101516001858581518110615c9f577f4e487b7100000000000000000000000000000000000000000000000000000000600052603260045260246000fd5b602002602001015161828b565b8080615cb79061ac8d565b915050615b7e565b506001600081905550505050565b60026000541415615d13576040517f08c379a0000000000000000000000000000000000000000000000000000000008152600401615d0a9061a8e7565b60405180910390fd5b6002600081905550615d477f88565780533668b1578752057653928d2d7ae4701cabb8808aaee6a86cfd5fdd60001b61661b565b615d737f87a5e5c02c305e98292ad30019da060da8af97b83ff71f46ce971e3e9d445cdd60001b61661b565b615d9f7fe57a0bcea12c25c211de669faab4e89fd49d328bfc090aab5142daa64020fdb060001b61661b565b615dcb7fb6e09a9eae77e295c40cfddc3bd9d661d6b52157dcf8c341f5304b5f711b35a160001b61661b565b8151845114615e0f576040517f08c379a0000000000000000000000000000000000000000000000000000000008152600401615e069061a8c7565b60405180910390fd5b615e3b7f235377ee7ad640cf7780a65b5cfd5caf06a1a29a84c2f53d345d81b4c83e893c60001b61661b565b615e677f5d02ebaa9bc0f17e5829cb8240561233bb0a9381b4971cd68608888dfed7790660001b61661b565b615e937f483530dc7a0c40d5f2b3e11c460c3212bc0948ae1d9ebbe5cc5476fd7c64c9f460001b61661b565b615ebf7f868423a91d1bf3d46128217a8ac48d9853a0df31fa43cbac3e528241ca14b1c160001b61661b565b8051845114615f03576040517f08c379a0000000000000000000000000000000000000000000000000000000008152600401615efa9061a887565b60405180910390fd5b615f2f7f7904933d7517fd626c69eb0ee89b6fd4d7e2c92e671e2a088065be25bac48a6260001b61661b565b615f5b7f70474d59d182d192e084109670673349263d7013c3db123c884553dded145f8360001b61661b565b615f877f4123dddd8bc2d006c09a7e2ce5483ff9fa6de24e277bb8f3fb2e102d9b7befe460001b61661b565b615fb37f2aa567d99708db3d884fd9f5e79f9fc5e710beb9324e45e56ac3d85ed0bd92e460001b61661b565b8251845114615ff7576040517f08c379a0000000000000000000000000000000000000000000000000000000008152600401615fee9061a867565b60405180910390fd5b6160237ff95721e8a3f725d5684e0af08956a42c951088c794c7307cae89e3301c336bb460001b61661b565b61604f7f2fec3b127ecd612fa2fa5428a5380f72e1dc9cab9428f925a4373787406b04ef60001b61661b565b61607b7fc1276eca93d60b4d6341c6c55fffa18d6199661908987357d08f6ab07de6b18c60001b61661b565b60005b8451811015616200576160b37fb00dfc4e0e62fdc00db092f5c9708450d7ff67c94425345f79b625f65cbdf7f760001b61661b565b6160df7fe0c8f0839d291e50be7f6e2d3aa76153e1a52912429ea5a64ba1b42d3130c31160001b61661b565b6161ed85828151811061611b577f4e487b7100000000000000000000000000000000000000000000000000000000600052603260045260246000fd5b602002602001015185838151811061615c577f4e487b7100000000000000000000000000000000000000000000000000000000600052603260045260246000fd5b602002602001015185848151811061619d577f4e487b7100000000000000000000000000000000000000000000000000000000600052603260045260246000fd5b602002602001015160018686815181106161e0577f4e487b7100000000000000000000000000000000000000000000000000000000600052603260045260246000fd5b6020026020010151617454565b80806161f89061ac8d565b91505061607e565b50600160008190555050505050565b60026000541415616255576040517f08c379a000000000000000000000000000000000000000000000000000000000815260040161624c9061a8e7565b60405180910390fd5b60026000819055506162897f6b1a85df98f3242777e5de08b6e2dc7b5997ad8f2286e100233f0432c69aa5ed60001b61661b565b6162b57fe9ff362e423db456d9ea3db26f458c1aa7110a5d214845fd8fae36669a3e89f360001b61661b565b6162e17f61452fce097c5c5dbe4886468103f38d94ddd089a969f922d8e98b8f65786b4160001b61661b565b61630d7f776a931901b759b4907749820c55b5bc7b129a346cbdd50c8c678cc96037ad0460001b61661b565b8151835114616351576040517f08c379a00000000000000000000000000000000000000000000000000000000081526004016163489061a8c7565b60405180910390fd5b61637d7f48cf56fc52fe977e282eeac6632426bedd372f04823a104645020424a51d1a0a60001b61661b565b6163a97ff8602e1c4445ef0e782d12f83eb37463ec2ab10b98f2a5be4cd53c49096ff09460001b61661b565b6163d57f5fb4738965a5550ffc8b8fd3a281aff7f38b429cdacab732a31a2d4fb37a22c260001b61661b565b6164017f3a5a2a277e455235e1e1b85e7b45f9a06f2bfafa068e9f2ad8c8f237b1f008e360001b61661b565b8051835114616445576040517f08c379a000000000000000000000000000000000000000000000000000000000815260040161643c9061a887565b60405180910390fd5b6164717f381ad280a6da1adb8a0d159d48dcc739ccb4e8d545d9568669bcb372a48d581160001b61661b565b61649d7f4f9aed166026740f6be5a9defa129872471f87df57eb0cca99a2a59c9f5a604c60001b61661b565b6164c97f4b777db8724acf451cc2b278a6bf728e23e441b33563be0424b79449dffad6de60001b61661b565b60005b835181101561660d576165017f73ae1a0bc210f2e15ab5594382a0822fe26ffede8e795bf49db704c4de7c884660001b61661b565b61652d7f6a867b3b26d8b770d11bc734ae1fed92d037196ec09b3f643609b18761345a2d60001b61661b565b6165fa848281518110616569577f4e487b7100000000000000000000000000000000000000000000000000000000600052603260045260246000fd5b60200260200101518483815181106165aa577f4e487b7100000000000000000000000000000000000000000000000000000000600052603260045260246000fd5b602002602001015160028585815181106165ed577f4e487b7100000000000000000000000000000000000000000000000000000000600052603260045260246000fd5b602002602001015161828b565b80806166059061ac8d565b9150506164cc565b506001600081905550505050565b50565b61664a7f7d29e25132a85bad7441588a2552c5e5ad3acf709ed817a11fa51cf14958f45d60001b61661b565b6166767fce225872c6dced3665beec03ccb12cef74a3271767c0ca34c64caa923b80242a60001b61661b565b6166a27f1323fb38451aca7270d138706b745515259c5ae19144b5d1b0d79732e17081ce60001b61661b565b600033856040516020016166b792919061a6c4565b6040516020818303038152906040528051906020012090506166fb7fee734aff5bc82bde0e97a79474abca482fbd6c41dfc822fb682f7bda0045b74260001b61661b565b6167277fd8ee4d9eddf2ee47367ad57d440be17885da3f28a67debe95c0916bc1589ea5360001b61661b565b60005b600260008381526020019081526020016000208054905081101561744c576167747f55f203aa50f16e213ef613d324f37a086c8db69d4681a1a1fb14655ab7cc6aff60001b61661b565b6167a07fc8213e7d012ccb11824fbf947209fe9db810ddef149c562c1182bb464e41fb7560001b61661b565b82805190602001206002600084815260200190815260200160002082815481106167f3577f4e487b7100000000000000000000000000000000000000000000000000000000600052603260045260246000fd5b9060005260206000209060070201600001604051616811919061a735565b604051809103902014801561688157508460026000848152602001908152602001600020828154811061686d577f4e487b7100000000000000000000000000000000000000000000000000000000600052603260045260246000fd5b906000526020600020906007020160010154145b80156168fa5750600115156002600084815260200190815260200160002082815481106168d7577f4e487b7100000000000000000000000000000000000000000000000000000000600052603260045260246000fd5b906000526020600020906007020160060160009054906101000a900460ff161515145b1561740d5761692b7fc2f5d4b98f0ce79934e027a09aa5f05c8979e8884aaa38fb053a55e1c1b7008860001b61661b565b6169577f4afb693150ebc803c9b9b407e29c0787bf450a039a687fdc6d36784d996c592b60001b61661b565b6169837f120f3e6026e3ccd889e2aa4aef40acd1ba4209e9570b5d59798f60951e78398a60001b61661b565b6169af7f6ad3315e610968c7ef5617953002108d073f2069711c1769abc1cdf1b45bcb7660001b61661b565b3373ffffffffffffffffffffffffffffffffffffffff16600260008481526020019081526020016000208281548110616a11577f4e487b7100000000000000000000000000000000000000000000000000000000600052603260045260246000fd5b906000526020600020906007020160020160009054906101000a900473ffffffffffffffffffffffffffffffffffffffff1673ffffffffffffffffffffffffffffffffffffffff1614616a99576040517f08c379a0000000000000000000000000000000000000000000000000000000008152600401616a909061a7c7565b60405180910390fd5b616ac57f7b8346fe2b001426a8db8ff8c8864347fca068a2c51cf79608051b38319e951c60001b61661b565b616af17f47b09443ad6b9c906a009bf0a6e80e9c6cccab9f1f6296500f807ace8b289a6c60001b61661b565b616b1d7fdc4b9a05170cb35e930301cd2a6241261193dee3b72b1583f895314e96d986e960001b61661b565b83600260008481526020019081526020016000208281548110616b69577f4e487b7100000000000000000000000000000000000000000000000000000000600052603260045260246000fd5b906000526020600020906007020160040160146101000a81548160ff021916908360ff160217905550616bbe7f45bc97869a901b06ab58ac604318fbc1e2eaedbe961c9543008cfd0fd9906de060001b61661b565b616bea7f22c741739e6584fce21bce0e1a5efa9a7b3e68dc3cdcc1eb8a7c8c4c682413ac60001b61661b565b6000616e73600260008581526020019081526020016000208381548110616c3a577f4e487b7100000000000000000000000000000000000000000000000000000000600052603260045260246000fd5b906000526020600020906007020160405180610140016040529081600082018054616c649061ac2a565b80601f0160208091040260200160405190810160405280929190818152602001828054616c909061ac2a565b8015616cdd5780601f10616cb257610100808354040283529160200191616cdd565b820191906000526020600020905b815481529060010190602001808311616cc057829003601f168201915b50505050508152602001600182015481526020016002820160009054906101000a900473ffffffffffffffffffffffffffffffffffffffff1673ffffffffffffffffffffffffffffffffffffffff1673ffffffffffffffffffffffffffffffffffffffff1681526020016003820160009054906101000a900473ffffffffffffffffffffffffffffffffffffffff1673ffffffffffffffffffffffffffffffffffffffff1673ffffffffffffffffffffffffffffffffffffffff1681526020016004820160009054906101000a900473ffffffffffffffffffffffffffffffffffffffff1673ffffffffffffffffffffffffffffffffffffffff1673ffffffffffffffffffffffffffffffffffffffff1681526020016004820160149054906101000a900460ff1660ff1660ff1681526020016004820160159054906101000a900460ff1660ff1660ff1681526020016004820160169054906101000a900460ff1660ff1660ff168152602001600582015481526020016006820160009054906101000a900460ff16151515158152505061942e565b9050616ea17fe1f14b5b287d3c376513b93832aeb34dc85bc5e67e0b18be7358c543476d953560001b61661b565b616ecd7ff96e1be01757cd692fba3b828f9a989c292b98cc55fd03d8da404115e7de152760001b61661b565b60018160ff16141561711157616f057f605c6368627562466ab87460aac936c57df4714a2f3f36fab63ded8b033c206360001b61661b565b616f317f0630989738fe3afa06aa0ad8887ddb0e0c7403a590f9e66fe6cb604ff117d0e860001b61661b565b616f5d7fb26bb0e4d191a52f7fa922505a4bbec6f3623595c92504a559b7bb4c261d6f1560001b61661b565b6000600260008581526020019081526020016000208381548110616faa577f4e487b7100000000000000000000000000000000000000000000000000000000600052603260045260246000fd5b906000526020600020906007020160060160006101000a81548160ff021916908315150217905550616ffe7f3393e140d524dd7a94537af0ced7a2abd1a3547fedb17b6160fb39e0a5d6667160001b61661b565b61702a7f92a1729bc461cc299047e287845b661f8b3ea90073afcaeaa33e3f2ea4f1a25560001b61661b565b61710c600260008581526020019081526020016000208381548110617078577f4e487b7100000000000000000000000000000000000000000000000000000000600052603260045260246000fd5b906000526020600020906007020160030160009054906101000a900473ffffffffffffffffffffffffffffffffffffffff166002600086815260200190815260200160002084815481106170f5577f4e487b7100000000000000000000000000000000000000000000000000000000600052603260045260246000fd5b906000526020600020906007020160010154619788565b6173db565b61713d7fd3a58cdc6c7ed24d29763d9f51a33bace457fd44ff8c2ab925e002cb3bc7bd3160001b61661b565b6171697ffa896351ef360a2823528f39656e4db955ebaaee3521d42895343c6f77c2b82060001b61661b565b60028160ff1614156173ad576171a17f6bde55768d84a52ec7ff4199bb8d93309109b235b12afdcbfb2adec100257ce660001b61661b565b6171cd7fad5a5b40c30d9518d30bacae4424b45f12cdedf7e3a93de9b12dcd21bfde7e4f60001b61661b565b6171f97f85d50a6352ce5720060e47f70bed0a4d409d221be134e9262fb07db34dd6a13d60001b61661b565b6000600260008581526020019081526020016000208381548110617246577f4e487b7100000000000000000000000000000000000000000000000000000000600052603260045260246000fd5b906000526020600020906007020160060160006101000a81548160ff02191690831515021790555061729a7fe9a7b28c1d469265c28ff4181b260a0451cac7b78132bd36301e4c72f225900860001b61661b565b6172c67fd7c50ae5a66cea5dc82e6a7eca3f2d16e59824c1b0c2c33df787fa190d222d0b60001b61661b565b6173a8600260008581526020019081526020016000208381548110617314577f4e487b7100000000000000000000000000000000000000000000000000000000600052603260045260246000fd5b906000526020600020906007020160020160009054906101000a900473ffffffffffffffffffffffffffffffffffffffff16600260008681526020019081526020016000208481548110617391577f4e487b7100000000000000000000000000000000000000000000000000000000600052603260045260246000fd5b906000526020600020906007020160010154619788565b6173da565b6173d97fcf91c5af73084883f146ab837cbdc6f5aadae26d8fea48b10f92e15f19e51c7560001b61661b565b5b5b6174077fe4920712f789066ebb77a380a6d415fb95246753fe11307454a054248459928360001b61661b565b5061744c565b6174397fdfb6464a5b280b098fa3805443364a1987a2fcae08aa912f32be32d24d81915860001b61661b565b80806174449061ac8d565b91505061672a565b505050505050565b6174807f2c6cf5abc5f9539a3843977f4d870a8a17d841589ac8723881274fa605c1c73160001b61661b565b6174ac7f7513b3e7872da7cb68497c45da98043b9bf903df75fbf1ca916abcd4c201ee2360001b61661b565b6174d87fcc18a4ef3db18b48346bbd379772e285948d99756320b9ede51b4df118016eab60001b61661b565b600085856040516020016174ed92919061a6c4565b6040516020818303038152906040528051906020012090506175317f298c734710f3cd14a918c8b8790550b9b8e8297bc41cb055aef59b7e2aa00b9660001b61661b565b61755d7f23fcf050fa789e279497bab31e37fa42a262acea17ab87bcea4fb1f153a50f1060001b61661b565b60005b6002600083815260200190815260200160002080549050811015618282576175aa7f3b729cf250d4af06713bdd65a46a28d5323de4b1380b4612d9993a25a33df9c660001b61661b565b6175d67f25200f70c4b546e0b265cbd4dfce97b70f472fa9794ab6968450c6a598c1684560001b61661b565b8280519060200120600260008481526020019081526020016000208281548110617629577f4e487b7100000000000000000000000000000000000000000000000000000000600052603260045260246000fd5b9060005260206000209060070201600001604051617647919061a735565b60405180910390201480156176b75750846002600084815260200190815260200160002082815481106176a3577f4e487b7100000000000000000000000000000000000000000000000000000000600052603260045260246000fd5b906000526020600020906007020160010154145b801561773057506001151560026000848152602001908152602001600020828154811061770d577f4e487b7100000000000000000000000000000000000000000000000000000000600052603260045260246000fd5b906000526020600020906007020160060160009054906101000a900460ff161515145b15618243576177617f9a5c0b8d478375a95addbb69a29ea7e83e582028998e27e185a18c0457fdd72d60001b61661b565b61778d7f80576dd627dc35ffa66b15ad9be58a080d1b23f2e67b7fb40b76d6f29ea12def60001b61661b565b6177b97f46487c7ddab774f81821bf3cc179579b9f5659b8314d336311d82e04c9152b0860001b61661b565b6177e57fb6f663ce8562c2d08157f0b958eb07c40c4ebf12743c34e7754b9b17eb019a6160001b61661b565b3373ffffffffffffffffffffffffffffffffffffffff16600260008481526020019081526020016000208281548110617847577f4e487b7100000000000000000000000000000000000000000000000000000000600052603260045260246000fd5b906000526020600020906007020160040160009054906101000a900473ffffffffffffffffffffffffffffffffffffffff1673ffffffffffffffffffffffffffffffffffffffff16146178cf576040517f08c379a00000000000000000000000000000000000000000000000000000000081526004016178c69061a847565b60405180910390fd5b6178fb7f4d805ba9c3705892f9e95052f8a3daacd90df4b189bdf3492f69618fac7c860260001b61661b565b6179277f7c9e2be4f091942ce46fd5f7394ec861c531cb0a5c483ff599540fe29c0fc4c060001b61661b565b6179537f4587c589d2aa2daf8267dfb72489ffc5896965ca94bd647c09d4758d51dbdc0060001b61661b565b8360026000848152602001908152602001600020828154811061799f577f4e487b7100000000000000000000000000000000000000000000000000000000600052603260045260246000fd5b906000526020600020906007020160040160166101000a81548160ff021916908360ff1602179055506179f47fb7006e26f7eb2243dbdb9f11c3233ca0f3371c13665b8127283e55f90d387ff760001b61661b565b617a207f94bfa586206fae8b7bbe67dfdb26d01cb82197842783ed01886742ea1c4a20f060001b61661b565b6000617ca9600260008581526020019081526020016000208381548110617a70577f4e487b7100000000000000000000000000000000000000000000000000000000600052603260045260246000fd5b906000526020600020906007020160405180610140016040529081600082018054617a9a9061ac2a565b80601f0160208091040260200160405190810160405280929190818152602001828054617ac69061ac2a565b8015617b135780601f10617ae857610100808354040283529160200191617b13565b820191906000526020600020905b815481529060010190602001808311617af657829003601f168201915b50505050508152602001600182015481526020016002820160009054906101000a900473ffffffffffffffffffffffffffffffffffffffff1673ffffffffffffffffffffffffffffffffffffffff1673ffffffffffffffffffffffffffffffffffffffff1681526020016003820160009054906101000a900473ffffffffffffffffffffffffffffffffffffffff1673ffffffffffffffffffffffffffffffffffffffff1673ffffffffffffffffffffffffffffffffffffffff1681526020016004820160009054906101000a900473ffffffffffffffffffffffffffffffffffffffff1673ffffffffffffffffffffffffffffffffffffffff1673ffffffffffffffffffffffffffffffffffffffff1681526020016004820160149054906101000a900460ff1660ff1660ff1681526020016004820160159054906101000a900460ff1660ff1660ff1681526020016004820160169054906101000a900460ff1660ff1660ff168152602001600582015481526020016006820160009054906101000a900460ff16151515158152505061942e565b9050617cd77f90dd530398ee38221e176ccf74f020724385c81a9ccfd6647c4e661fe4bf33b260001b61661b565b617d037f1606a8fbcb38d26df23df7a56745e89816515fab70109f8a664d0b4856791aa360001b61661b565b60018160ff161415617f4757617d3b7f7e54ce2e61e8a07c064f9000a247f8068c788998245df0581065b15e521f96bd60001b61661b565b617d677fe94af58f186fb56919b76d33ec10e5a6e59cac6b1831ba44a569ddcd34a54b3260001b61661b565b617d937f8ee5e1095f3e3c15608a6b196b71b457990297ab4112b1dc0baa19b38926d54f60001b61661b565b6000600260008581526020019081526020016000208381548110617de0577f4e487b7100000000000000000000000000000000000000000000000000000000600052603260045260246000fd5b906000526020600020906007020160060160006101000a81548160ff021916908315150217905550617e347f2307210ebddc8d9e7c976db2379853d443addbcdb20bf69d8a2782107d7cfc6860001b61661b565b617e607f3a1dfc404f9c88dfc73c55305ce9a88ec6880c18d5c3d2366bd011592c89828260001b61661b565b617f42600260008581526020019081526020016000208381548110617eae577f4e487b7100000000000000000000000000000000000000000000000000000000600052603260045260246000fd5b906000526020600020906007020160030160009054906101000a900473ffffffffffffffffffffffffffffffffffffffff16600260008681526020019081526020016000208481548110617f2b577f4e487b7100000000000000000000000000000000000000000000000000000000600052603260045260246000fd5b906000526020600020906007020160010154619788565b618211565b617f737f84af55d46646631dcd5c60e3c8cda57bb1b4d28c0ff5a3bfcc64d4dacd6b911960001b61661b565b617f9f7fb09f7f6a590ce2aab8447869dbdf3387838fc4170a89b721f1ee6d9a8e88d25e60001b61661b565b60028160ff1614156181e357617fd77f6e8a72bd0ae89c2e0fbf2986f59166d566427769287497fe9c5fefe1866f64d860001b61661b565b6180037f7543ef07e6c9bb48317bb4f3b16cdd741ca78faa6c83f4da6917f1aee4218c8f60001b61661b565b61802f7fd19cdac1ce8c683eb774dc08ce1f240d7bc0ec85b5dd005e65eb19b1d5212b0760001b61661b565b600060026000858152602001908152602001600020838154811061807c577f4e487b7100000000000000000000000000000000000000000000000000000000600052603260045260246000fd5b906000526020600020906007020160060160006101000a81548160ff0219169083151502179055506180d07f34f8aae375a2ca68de70a30717a052ba9745b0e51d0d0cfab682eaf9104fb82a60001b61661b565b6180fc7f56c6743ab0aca8fe48088ba8ac12dd6131e002f9603ca86113c89142a5c8a1ce60001b61661b565b6181de60026000858152602001908152602001600020838154811061814a577f4e487b7100000000000000000000000000000000000000000000000000000000600052603260045260246000fd5b906000526020600020906007020160020160009054906101000a900473ffffffffffffffffffffffffffffffffffffffff166002600086815260200190815260200160002084815481106181c7577f4e487b7100000000000000000000000000000000000000000000000000000000600052603260045260246000fd5b906000526020600020906007020160010154619788565b618210565b61820f7f29e2c4b17907fa0e2379f8abee0d479209589ca235c146ec60494c16ce44f6c960001b61661b565b5b5b61823d7faf117b6517c327fc6f95611580a68a65cdc268332e37cad78586b8fe603c1aca60001b61661b565b50618282565b61826f7fc2160bcef98ccc042d647904ada604b6b663ae79bb3dab6828f927af939d196d60001b61661b565b808061827a9061ac8d565b915050617560565b50505050505050565b6182b77f6cf636fcce5b8bdd6a30ba3eabb6ca449b559097a75fd76d61b12454d413b27b60001b61661b565b6182e37f7dc49570188db9cd4a6fbb57b3b0b6fa73e89f7ddf170dc590f18a18a74d3fcb60001b61661b565b61830f7f885e80c7e978c4b28a2e15d370ec559b614e54ac96ab936a7d09e6aec6555ed360001b61661b565b6000843360405160200161832492919061a6c4565b6040516020818303038152906040528051906020012090506183687f509c5c4d1ef1f7f5ef2933a2b01652fc31aeb268183d53aca7cd34068486fcff60001b61661b565b6183947f975969b3eea1901f9b5808678472c07da2e5b897f3038c0223b87c79414e245d60001b61661b565b60005b6002600083815260200190815260200160002080549050811015619426576183e17f8e7240870454a1cc59670ae72d51d3dbe6c80a0bb2daa7186bc241e9856dccfd60001b61661b565b61840d7f884f425d5efdc9b7b2680d30dea37b4ed737818cfd107f8dc5dcab69e0e5cdd260001b61661b565b8280519060200120600260008481526020019081526020016000208281548110618460577f4e487b7100000000000000000000000000000000000000000000000000000000600052603260045260246000fd5b906000526020600020906007020160000160405161847e919061a735565b60405180910390201480156184ee5750846002600084815260200190815260200160002082815481106184da577f4e487b7100000000000000000000000000000000000000000000000000000000600052603260045260246000fd5b906000526020600020906007020160010154145b8015618567575060011515600260008481526020019081526020016000208281548110618544577f4e487b7100000000000000000000000000000000000000000000000000000000600052603260045260246000fd5b906000526020600020906007020160060160009054906101000a900460ff161515145b156193e7576185987fdf194bc1cc9218e47181df0dc47e49ce37a09b617a0827c4f9340789469f9de660001b61661b565b6185c47f0fb46a91f9d1091a2293a8b6b5ff02cb52d6005faa1faea8c37b4356c376a72360001b61661b565b6185f07f887e6e69df35b0a71d56be8f57572d3a3900e00c610d782a7e7d767aaec3454160001b61661b565b61861c7ff4f39df32f3ba0986946319005f702c22d02b339084dc0f5134465570ea7e41360001b61661b565b3373ffffffffffffffffffffffffffffffffffffffff1660026000848152602001908152602001600020828154811061867e577f4e487b7100000000000000000000000000000000000000000000000000000000600052603260045260246000fd5b906000526020600020906007020160030160009054906101000a900473ffffffffffffffffffffffffffffffffffffffff1673ffffffffffffffffffffffffffffffffffffffff1614618706576040517f08c379a00000000000000000000000000000000000000000000000000000000081526004016186fd9061a827565b60405180910390fd5b6187327f9ada3eff898cdd6c516c8a7c501b7b28aa85ad689737de962acfd659c405999260001b61661b565b61875e7fbc824a199d35fba14dd21eb9699be03f8068ef5f847d53a2a5b2114c8aa7f34e60001b61661b565b61878a7f64a43fba3dafac21dac5a16729b7621bc2ad3fdd6013fe9df0e8e8a4d17ded8260001b61661b565b836002600084815260200190815260200160002082815481106187d6577f4e487b7100000000000000000000000000000000000000000000000000000000600052603260045260246000fd5b906000526020600020906007020160040160156101000a81548160ff021916908360ff16021790555061882b7f102792acea8042302dd4ea8142450df56cbd9bd914e354ce1c81a4ba36dff65460001b61661b565b6188577f7345ab6d4b8a37aa58311dc7867225e4fe738d8694e17d5fa3aad97dbd8ffbf360001b61661b565b6000618ae06002600085815260200190815260200160002083815481106188a7577f4e487b7100000000000000000000000000000000000000000000000000000000600052603260045260246000fd5b9060005260206000209060070201604051806101400160405290816000820180546188d19061ac2a565b80601f01602080910402602001604051908101604052809291908181526020018280546188fd9061ac2a565b801561894a5780601f1061891f5761010080835404028352916020019161894a565b820191906000526020600020905b81548152906001019060200180831161892d57829003601f168201915b50505050508152602001600182015481526020016002820160009054906101000a900473ffffffffffffffffffffffffffffffffffffffff1673ffffffffffffffffffffffffffffffffffffffff1673ffffffffffffffffffffffffffffffffffffffff1681526020016003820160009054906101000a900473ffffffffffffffffffffffffffffffffffffffff1673ffffffffffffffffffffffffffffffffffffffff1673ffffffffffffffffffffffffffffffffffffffff1681526020016004820160009054906101000a900473ffffffffffffffffffffffffffffffffffffffff1673ffffffffffffffffffffffffffffffffffffffff1673ffffffffffffffffffffffffffffffffffffffff1681526020016004820160149054906101000a900460ff1660ff1660ff1681526020016004820160159054906101000a900460ff1660ff1660ff1681526020016004820160169054906101000a900460ff1660ff1660ff168152602001600582015481526020016006820160009054906101000a900460ff16151515158152505061942e565b9050618b0e7f8af34646974b93ec249c42c5f734d8cce595536ce3540395f9aa19796569e9cc60001b61661b565b618b3a7f0b8e74f29847cbeddd53f90553e08b5cc80bf0886f72b4a78993649a2008f22260001b61661b565b60018160ff161415618d7e57618b727f29b2f39d683a71078ebc55e75911653f715907ca7a0a70c0cbdd7ee3f1a43d6160001b61661b565b618b9e7fea7c7d45363c255e8f6876be4a896e69c2719671d7e2f93cacad2cc97a36f6c360001b61661b565b618bca7f7972acb2711ab07c3a8aea04f4ac9b34cf767168f5619b6058b642619ab1cde860001b61661b565b6000600260008581526020019081526020016000208381548110618c17577f4e487b7100000000000000000000000000000000000000000000000000000000600052603260045260246000fd5b906000526020600020906007020160060160006101000a81548160ff021916908315150217905550618c6b7fc3488727d8408e9ad4a2b076491ff82bf9c4025309af92aaec13b4d012658f4060001b61661b565b618c977f9eba7de883eacbd67f39b955b87b9763752c8407a331350e8d94a9b568bdae9a60001b61661b565b618d79600260008581526020019081526020016000208381548110618ce5577f4e487b7100000000000000000000000000000000000000000000000000000000600052603260045260246000fd5b906000526020600020906007020160030160009054906101000a900473ffffffffffffffffffffffffffffffffffffffff16600260008681526020019081526020016000208481548110618d62577f4e487b7100000000000000000000000000000000000000000000000000000000600052603260045260246000fd5b906000526020600020906007020160010154619788565b6193b5565b618daa7fc61ec12f65977e00a224bb6bcde56da2897e450b8bcbb5cdff82d593a18211c360001b61661b565b618dd67f93adb31ac62e1ad42de614264256fb35e831a96831b56aeccac1bea89f4ee10360001b61661b565b60028160ff16141561901a57618e0e7f0c79687543dcfc721b77d9664f5b84bab2dedca422c9038b4863bd3b1b70541960001b61661b565b618e3a7fe629f083ec54999e1f943a442dfa9d63b55ebd86d94786dba1b485fd845d915460001b61661b565b618e667f9c27018cc9446cc7ad69ea74635ea404415e9021648a95459a0fd52154c9eeb760001b61661b565b6000600260008581526020019081526020016000208381548110618eb3577f4e487b7100000000000000000000000000000000000000000000000000000000600052603260045260246000fd5b906000526020600020906007020160060160006101000a81548160ff021916908315150217905550618f077f94fb308a42f54264855038e99ad836ccb780a6c3db1a59f69d228be93ee331cc60001b61661b565b618f337f2be9fbaa356e95e00dfa66bdb3bb63bbb80db2fcec9912a4d7b34890480505ae60001b61661b565b619015600260008581526020019081526020016000208381548110618f81577f4e487b7100000000000000000000000000000000000000000000000000000000600052603260045260246000fd5b906000526020600020906007020160020160009054906101000a900473ffffffffffffffffffffffffffffffffffffffff16600260008681526020019081526020016000208481548110618ffe577f4e487b7100000000000000000000000000000000000000000000000000000000600052603260045260246000fd5b906000526020600020906007020160010154619788565b6193b4565b6190467f33107a5735490a6f1dfccfac711a3cae7e207b6950cb25b191268f7ff10a79db60001b61661b565b6190727ffc56934afcf86f4705088f421a787ee9501515e946790f4983fde1d37951cbb960001b61661b565b426002600085815260200190815260200160002083815481106190be577f4e487b7100000000000000000000000000000000000000000000000000000000600052603260045260246000fd5b90600052602060002090600702016005015410801561914957506000600260008581526020019081526020016000208381548110619125577f4e487b7100000000000000000000000000000000000000000000000000000000600052603260045260246000fd5b906000526020600020906007020160040160149054906101000a900460ff1660ff16145b156193865761917a7fb691f3e98e3f6f316544de74f39beefe848856b2e36e01d43345db637fb9fe6260001b61661b565b6191a67fca93852d056ef4e1f99976986152643780f4aed9d4a7cc64a19ade1e5365d7ee60001b61661b565b6191d27fca24c6bec7f5ee95052a4e8d24849fc659d9716879173d79740643fee52d19cb60001b61661b565b600060026000858152602001908152602001600020838154811061921f577f4e487b7100000000000000000000000000000000000000000000000000000000600052603260045260246000fd5b906000526020600020906007020160060160006101000a81548160ff0219169083151502179055506192737f3ff04b0297bb2df9b0f01b0333cb6ce5c13b13f0fcc2b91bc68d547e8a90090260001b61661b565b61929f7f7e7f774a4abc73e5a777141daf53848029272d061460ec96e0c573e165f17c4360001b61661b565b6193816002600085815260200190815260200160002083815481106192ed577f4e487b7100000000000000000000000000000000000000000000000000000000600052603260045260246000fd5b906000526020600020906007020160030160009054906101000a900473ffffffffffffffffffffffffffffffffffffffff1660026000868152602001908152602001600020848154811061936a577f4e487b7100000000000000000000000000000000000000000000000000000000600052603260045260246000fd5b906000526020600020906007020160010154619788565b6193b3565b6193b27fd023d16ad0edd65993bd6809c42937ebbfb449076852cc9b68b94b8c4224cc0d60001b61661b565b5b5b5b6193e17fb10dd68e8a422d9916b99333b192c9d65635b0053c21bf54c0702b63f1d6e2b960001b61661b565b50619426565b6194137f458fe24b31cb912b8825e3d6b8e947a33e6934a9ce8d98d45e5a32ff0b96abe160001b61661b565b808061941e9061ac8d565b915050618397565b505050505050565b600061945c7fdcf703fcf270bf3b23752f02f42978c209b39650fa725cb2ddcc5eac5e494eef60001b61661b565b6194887f37398638a6afeb11075d7c90a8d097e956b3bfeed6644339311712279ec5e24860001b61661b565b6194b47f4cb65f69d2d206122f7afa94e00c9422600cba10951c565913b65525e225e26360001b61661b565b8160c0015160ff168260a0015160ff16141561955a576194f67f79a0d6708dcd2e8e985ab8265b3faefbe3f02823c8818b53302020c55cf3c79060001b61661b565b6195227f3a0d5261176f6a00d4609fcc5b1c0392a974620cc908ff97a8c4eaeaa6dbb70260001b61661b565b61954e7fe6314975e5d249722b6e7ee8fac8fa183843380a14682136a6ccb44b423ff04360001b61661b565b8160a001519050619783565b6195867fb95d0fc3c4a94a4a334d0439b3f477c7706365ea0abc4d6d9318ac2efb0da6a860001b61661b565b6195b27f47765b28ad7692e9a317beb9af244efbf77f9e64d4d124a8070e0de91e3373ea60001b61661b565b8160e0015160ff168260a0015160ff161415619658576195f47f0b134d0e5ce7c3f174e3cd33d028413a61eb797c556998e26f3aa9fb8928e70960001b61661b565b6196207fa4190470457fa0fa61447a1834dbdfe71f8b44a37b5de209c3fac77f5b7e92bd60001b61661b565b61964c7f083c51243a2f76ef61b3680ccf2dc6ea3e784c0f2421532ef34ffc5a8e3dd93760001b61661b565b8160a001519050619783565b6196847f99eee5929aa802a93368125957e06a88cc8e9e18a01d4bbeda0bb8c43ae77e7b60001b61661b565b6196b07f5019b229f799dfce4e29566c016adaae96cac2fe0d6079e2e37008ce3fce345860001b61661b565b8160c0015160ff168260e0015160ff161415619756576196f27f40af5b9a309629bdcbd47f61fae6c23eaccc9b413f4a7029bbf19aa3590931d660001b61661b565b61971e7f296bf0a7a83664a6b9f4354503ffa99e9e7180921aceeed988e915915885975660001b61661b565b61974a7f8e4360a2d62a326ee63cc252c046f3e17c5645174ad3979b2ecde8481e1692bd60001b61661b565b8160e001519050619783565b6197827f5e3829e677254ac9767263386db30a1da3433db0cd79038d87d5501f1de0a89b60001b61661b565b5b919050565b6197b47f32f3ac2aacaa08705e9421fceb4e7ee39f226ade9a5df260f40702572e57451c60001b61661b565b6197e07f9c7710b72d4553ec8a5b2e435147ffe48524d2ec8dcb94b2a1d81d85bf829dae60001b61661b565b61980c7f614d7d515e187d52a5799412a8f5336b0c187b85e78a3e2331d97dd35c6900c960001b61661b565b6198387f024d954e12dbfce65be63965c18fe91755acf9b2b683dd4b6c9def4f9ee53b9f60001b61661b565b600073ffffffffffffffffffffffffffffffffffffffff168273ffffffffffffffffffffffffffffffffffffffff1614156198a8576040517f08c379a000000000000000000000000000000000000000000000000000000000815260040161989f9061a8a7565b60405180910390fd5b6198d47f0da55b20b2c824eb182713a1546efcba2ad23a1bf5080a5f089f9831204dc46960001b61661b565b6199007f826a0e6112bf7dc680f121948f48feaf76010f6b096c16a2aaecbecffb3b0c8760001b61661b565b61992c7f4c87bb614d0489cc3284e6e3a863c7a57ee5f4f519ea041ef7a9a0fca6d0780460001b61661b565b60008273ffffffffffffffffffffffffffffffffffffffff16826040516199529061a74c565b60006040518083038185875af1925050503d806000811461998f576040519150601f19603f3d011682016040523d82523d6000602084013e619994565b606091505b505090506199c47f6b751c4842b13b1383558da172fbb7b628d6e9bf70f2b1ce3f3e1d771aa6996e60001b61661b565b6199f07fb66a4169aa2016aa58ea9729e01d19075032fa42bbe67ce8aa1b4c1f21716fda60001b61661b565b619a1c7f4ed52de0a1dd5dfe8df4c94a7816ef0aaa204a061a06b08686a28013d5fb845760001b61661b565b806005604051602001619a2f919061a761565b60405160208183030381529060405290619a7f576040517f08c379a0000000000000000000000000000000000000000000000000000000008152600401619a76919061a7a5565b60405180910390fd5b50619aac7f797941f7ced2e68f8c6efdc66a8329e2d57479f9651c489c0f68b35e2953d7f160001b61661b565b505050565b6040518061014001604052806060815260200160008152602001600073ffffffffffffffffffffffffffffffffffffffff168152602001600073ffffffffffffffffffffffffffffffffffffffff168152602001600073ffffffffffffffffffffffffffffffffffffffff168152602001600060ff168152602001600060ff168152602001600060ff168152602001600081526020016000151581525090565b828054619b5d9061ac2a565b90600052602060002090601f016020900481019282619b7f5760008555619bc6565b82601f10619b9857805160ff1916838001178555619bc6565b82800160010185558215619bc6579182015b82811115619bc5578251825591602001919060010190619baa565b5b509050619bd39190619bd7565b5090565b5b80821115619bf0576000816000905550600101619bd8565b5090565b6000619c07619c028461a970565b61a94b565b90508083825260208201905082856020860282011115619c2657600080fd5b60005b85811015619c565781619c3c8882619dfc565b845260208401935060208301925050600181019050619c29565b5050509392505050565b6000619c73619c6e8461a99c565b61a94b565b90508083825260208201905082856020860282011115619c9257600080fd5b60005b85811015619cc25781619ca88882619e11565b845260208401935060208301925050600181019050619c95565b5050509392505050565b6000619cdf619cda8461a9c8565b61a94b565b90508083825260208201905082856020860282011115619cfe57600080fd5b60005b85811015619d4857813567ffffffffffffffff811115619d2057600080fd5b808601619d2d8982619f18565b85526020850194506020840193505050600181019050619d01565b5050509392505050565b6000619d65619d608461a9f4565b61a94b565b90508083825260208201905082856020860282011115619d8457600080fd5b60005b85811015619db45781619d9a8882619f42565b845260208401935060208301925050600181019050619d87565b5050509392505050565b6000619dd1619dcc8461aa20565b61a94b565b905082815260208101848484011115619de957600080fd5b619df484828561abe8565b509392505050565b600081359050619e0b8161b03b565b92915050565b600081359050619e208161b052565b92915050565b600082601f830112619e3757600080fd5b8135619e47848260208601619bf4565b91505092915050565b600082601f830112619e6157600080fd5b8135619e71848260208601619c60565b91505092915050565b600082601f830112619e8b57600080fd5b8135619e9b848260208601619ccc565b91505092915050565b600082601f830112619eb557600080fd5b8135619ec5848260208601619d52565b91505092915050565b60008083601f840112619ee057600080fd5b8235905067ffffffffffffffff811115619ef957600080fd5b602083019150836001820283011115619f1157600080fd5b9250929050565b600082601f830112619f2957600080fd5b8135619f39848260208601619dbe565b91505092915050565b600081359050619f518161b069565b92915050565b600080600060408486031215619f6c57600080fd5b6000619f7a86828701619dfc565b935050602084013567ffffffffffffffff811115619f9757600080fd5b619fa386828701619ece565b92509250509250925092565b60008060008060808587031215619fc557600080fd5b600085013567ffffffffffffffff811115619fdf57600080fd5b619feb87828801619e26565b945050602085013567ffffffffffffffff81111561a00857600080fd5b61a01487828801619e26565b935050604085013567ffffffffffffffff81111561a03157600080fd5b61a03d87828801619ea4565b925050606085013567ffffffffffffffff81111561a05a57600080fd5b61a06687828801619e7a565b91505092959194509250565b60008060006060848603121561a08757600080fd5b600084013567ffffffffffffffff81111561a0a157600080fd5b61a0ad86828701619e26565b935050602084013567ffffffffffffffff81111561a0ca57600080fd5b61a0d686828701619ea4565b925050604084013567ffffffffffffffff81111561a0f357600080fd5b61a0ff86828701619e7a565b9150509250925092565b60008060006060848603121561a11e57600080fd5b600084013567ffffffffffffffff81111561a13857600080fd5b61a14486828701619e50565b935050602084013567ffffffffffffffff81111561a16157600080fd5b61a16d86828701619ea4565b925050604084013567ffffffffffffffff81111561a18a57600080fd5b61a19686828701619e7a565b9150509250925092565b600061a1ac838361a5bd565b905092915050565b61a1c561a1c08261ab93565b61ace8565b82525050565b61a1d48161ab81565b82525050565b61a1eb61a1e68261ab81565b61acd6565b82525050565b600061a1fc8261aa8b565b61a206818561aaae565b93508360208202850161a2188561aa51565b8060005b8581101561a254578484038952815161a235858261a1a0565b945061a2408361aaa1565b925060208a0199505060018101905061a21c565b50829750879550505050505092915050565b61a26f8161aba5565b82525050565b61a27e8161aba5565b82525050565b600061a290838561aabf565b935061a29d83858461abe8565b82840190509392505050565b6000815461a2b68161ac2a565b61a2c0818661aabf565b9450600182166000811461a2db576001811461a2ec5761a31f565b60ff1983168652818601935061a31f565b61a2f58561aa61565b60005b8381101561a3175781548189015260018201915060208101905061a2f8565b838801955050505b50505092915050565b600061a3338261aa96565b61a33d818561aaca565b935061a34d81856020860161abf7565b61a3568161ad99565b840191505092915050565b600061a36c8261aa96565b61a376818561aadb565b935061a38681856020860161abf7565b61a38f8161ad99565b840191505092915050565b6000815461a3a78161ac2a565b61a3b1818661aaec565b9450600182166000811461a3cc576001811461a3dd5761a410565b60ff1983168652818601935061a410565b61a3e68561aa76565b60005b8381101561a4085781548189015260018201915060208101905061a3e9565b838801955050505b50505092915050565b600061a42660178361aadb565b915061a4318261adb7565b602082019050919050565b600061a449602d8361aadb565b915061a4548261ade0565b604082019050919050565b600061a46c60308361aadb565b915061a4778261ae2f565b604082019050919050565b600061a48f60178361aadb565b915061a49a8261ae7e565b602082019050919050565b600061a4b2601b8361aadb565b915061a4bd8261aea7565b602082019050919050565b600061a4d560008361aabf565b915061a4e08261aed0565b600082019050919050565b600061a4f8600f8361aaec565b915061a5038261aed3565b600f82019050919050565b600061a51b602e8361aadb565b915061a5268261aefc565b604082019050919050565b600061a53e60378361aadb565b915061a5498261af4b565b604082019050919050565b600061a56160128361aadb565b915061a56c8261af9a565b602082019050919050565b600061a584602f8361aadb565b915061a58f8261afc3565b604082019050919050565b600061a5a7601f8361aadb565b915061a5b28261b012565b602082019050919050565b600061014083016000830151848203600086015261a5db828261a328565b915050602083015161a5f0602086018261a697565b50604083015161a603604086018261a1cb565b50606083015161a616606086018261a1cb565b50608083015161a629608086018261a1cb565b5060a083015161a63c60a086018261a6b5565b5060c083015161a64f60c086018261a6b5565b5060e083015161a66260e086018261a6b5565b5061010083015161a67761010086018261a697565b5061012083015161a68c61012086018261a266565b508091505092915050565b61a6a08161abd1565b82525050565b61a6af8161abd1565b82525050565b61a6be8161abdb565b82525050565b600061a6d0828561a1da565b60148201915061a6e0828461a1da565b6014820191508190509392505050565b600061a6fc828561a1da565b60148201915061a70c828461a1b4565b6014820191508190509392505050565b600061a72982848661a284565b91508190509392505050565b600061a741828461a2a9565b915081905092915050565b600061a7578261a4c8565b9150819050919050565b600061a76c8261a4eb565b915061a778828461a39a565b915081905092915050565b6000602082019050818103600083015261a79d818461a1f1565b905092915050565b6000602082019050818103600083015261a7bf818461a361565b905092915050565b6000602082019050818103600083015261a7e08161a419565b9050919050565b6000602082019050818103600083015261a8008161a43c565b9050919050565b6000602082019050818103600083015261a8208161a45f565b9050919050565b6000602082019050818103600083015261a8408161a482565b9050919050565b6000602082019050818103600083015261a8608161a4a5565b9050919050565b6000602082019050818103600083015261a8808161a50e565b9050919050565b6000602082019050818103600083015261a8a08161a531565b9050919050565b6000602082019050818103600083015261a8c08161a554565b9050919050565b6000602082019050818103600083015261a8e08161a577565b9050919050565b6000602082019050818103600083015261a9008161a59a565b9050919050565b600060208201905061a91c600083018461a6a6565b92915050565b600060408201905061a937600083018561a6a6565b61a944602083018461a275565b9392505050565b600061a95561a966565b905061a961828261ac5c565b919050565b6000604051905090565b600067ffffffffffffffff82111561a98b5761a98a61ad6a565b5b602082029050602081019050919050565b600067ffffffffffffffff82111561a9b75761a9b661ad6a565b5b602082029050602081019050919050565b600067ffffffffffffffff82111561a9e35761a9e261ad6a565b5b602082029050602081019050919050565b600067ffffffffffffffff82111561aa0f5761aa0e61ad6a565b5b602082029050602081019050919050565b600067ffffffffffffffff82111561aa3b5761aa3a61ad6a565b5b61aa448261ad99565b9050602081019050919050565b6000819050602082019050919050565b60008190508160005260206000209050919050565b60008190508160005260206000209050919050565b600081519050919050565b600081519050919050565b6000602082019050919050565b600082825260208201905092915050565b600081905092915050565b600082825260208201905092915050565b600082825260208201905092915050565b600081905092915050565b600061ab028261abd1565b915061ab0d8361abd1565b9250827fffffffffffffffffffffffffffffffffffffffffffffffffffffffffffffffff0382111561ab425761ab4161ad0c565b5b828201905092915050565b600061ab588261abd1565b915061ab638361abd1565b92508282101561ab765761ab7561ad0c565b5b828203905092915050565b600061ab8c8261abb1565b9050919050565b600061ab9e8261abb1565b9050919050565b60008115159050919050565b600073ffffffffffffffffffffffffffffffffffffffff82169050919050565b6000819050919050565b600060ff82169050919050565b82818337600083830152505050565b60005b8381101561ac1557808201518184015260208101905061abfa565b8381111561ac24576000848401525b50505050565b6000600282049050600182168061ac4257607f821691505b6020821081141561ac565761ac5561ad3b565b5b50919050565b61ac658261ad99565b810181811067ffffffffffffffff8211171561ac845761ac8361ad6a565b5b80604052505050565b600061ac988261abd1565b91507fffffffffffffffffffffffffffffffffffffffffffffffffffffffffffffffff82141561accb5761acca61ad0c565b5b600182019050919050565b600061ace18261acfa565b9050919050565b600061acf38261acfa565b9050919050565b600061ad058261adaa565b9050919050565b7f4e487b7100000000000000000000000000000000000000000000000000000000600052601160045260246000fd5b7f4e487b7100000000000000000000000000000000000000000000000000000000600052602260045260246000fd5b7f4e487b7100000000000000000000000000000000000000000000000000000000600052604160045260246000fd5b6000601f19601f8301169050919050565b60008160601b9050919050565b7f596f7520617265206e6f742074686520636c69656e742e000000000000000000600082015250565b7f546f74616c20616d6f756e74206973206c657373207468616e2063757272656e60008201527f742073656e6420616d6f756e7400000000000000000000000000000000000000602082015250565b7f416464726573736573206c656e677468206d75737420626520657175616c207460008201527f6f20616d6f756e7473206c656e67746800000000000000000000000000000000602082015250565b7f596f7520617265206e6f74207468652073656c6c65722e000000000000000000600082015250565b7f596f7520617265206e6f74207468652061726269747261746f722e0000000000600082015250565b50565b7f4661696c656420746f2073656e64200000000000000000000000000000000000600082015250565b7f436c69656e7473206c656e677468206d75737420626520657175616c20746f2060008201527f73656c6c657273206c656e677468000000000000000000000000000000000000602082015250565b7f416464726573736573206c656e677468206d75737420626520657175616c207460008201527f6f2070726f6475637420686173686573206c656e677468000000000000000000602082015250565b7f416464726573732063616e277420626520300000000000000000000000000000600082015250565b7f416464726573736573206c656e677468206d75737420626520657175616c207460008201527f6f2076616c756573206c656e6774680000000000000000000000000000000000602082015250565b7f5265656e7472616e637947756172643a207265656e7472616e742063616c6c00600082015250565b61b0448161ab81565b811461b04f57600080fd5b50565b61b05b8161ab93565b811461b06657600080fd5b50565b61b0728161abd1565b811461b07d57600080fd5b5056fea2646970667358221220f10533fdb32479cbeaa85e2f606731bde4e46e934baa68df5e7a47e6ce22e2e964736f6c63430008040033",
  "linkReferences": {},
  "deployedLinkReferences": {}
}