{
  "_format": "hh-sol-artifact-1",
  "contractName": "ShopsBulkTransactions",
  "sourceName": "contracts/ShopsBulkTransactions.sol",
  "abi": [
    {
      "inputs": [
        {
          "internalType": "string",
          "name": "_symbol",
          "type": "string"
        }
      ],
      "stateMutability": "nonpayable",
      "type": "constructor"
    },
    {
      "anonymous": false,
      "inputs": [
        {
          "indexed": false,
          "internalType": "uint256",
          "name": "_amount",
          "type": "uint256"
        },
        {
          "indexed": false,
          "internalType": "bool",
          "name": "_status",
          "type": "bool"
        }
      ],
      "name": "MultiTransfer",
      "type": "event"
    },
    {
      "inputs": [
        {
          "internalType": "address",
          "name": "seller",
          "type": "address"
        },
        {
          "internalType": "string",
          "name": "productHash",
          "type": "string"
        }
      ],
      "name": "checkProductOrders",
      "outputs": [
        {
          "internalType": "uint256",
          "name": "",
          "type": "uint256"
        }
      ],
      "stateMutability": "view",
      "type": "function"
    },
    {
      "inputs": [],
      "name": "clientCheckActiveOrders",
      "outputs": [
        {
          "components": [
            {
              "internalType": "string",
              "name": "product_hash",
              "type": "string"
            },
            {
              "internalType": "uint256",
              "name": "value",
              "type": "uint256"
            },
            {
              "internalType": "address",
              "name": "client",
              "type": "address"
            },
            {
              "internalType": "address",
              "name": "sellar",
              "type": "address"
            },
            {
              "internalType": "uint8",
              "name": "clientDecision",
              "type": "uint8"
            },
            {
              "internalType": "uint8",
              "name": "sellerDecision",
              "type": "uint8"
            },
            {
              "internalType": "bool",
              "name": "active",
              "type": "bool"
            }
          ],
          "internalType": "struct ShopsBulkTransactions.Order[]",
          "name": "",
          "type": "tuple[]"
        }
      ],
      "stateMutability": "view",
      "type": "function"
    },
    {
      "inputs": [],
      "name": "clientCheckOrders",
      "outputs": [
        {
          "components": [
            {
              "internalType": "string",
              "name": "product_hash",
              "type": "string"
            },
            {
              "internalType": "uint256",
              "name": "value",
              "type": "uint256"
            },
            {
              "internalType": "address",
              "name": "client",
              "type": "address"
            },
            {
              "internalType": "address",
              "name": "sellar",
              "type": "address"
            },
            {
              "internalType": "uint8",
              "name": "clientDecision",
              "type": "uint8"
            },
            {
              "internalType": "uint8",
              "name": "sellerDecision",
              "type": "uint8"
            },
            {
              "internalType": "bool",
              "name": "active",
              "type": "bool"
            }
          ],
          "internalType": "struct ShopsBulkTransactions.Order[]",
          "name": "",
          "type": "tuple[]"
        }
      ],
      "stateMutability": "view",
      "type": "function"
    },
    {
      "inputs": [
        {
          "internalType": "address[]",
          "name": "_sellers",
          "type": "address[]"
        },
        {
          "internalType": "uint256[]",
          "name": "_values",
          "type": "uint256[]"
        },
        {
          "internalType": "string[]",
          "name": "_productHashes",
          "type": "string[]"
        }
      ],
      "name": "clientProccessTransaction",
      "outputs": [],
      "stateMutability": "nonpayable",
      "type": "function"
    },
    {
      "inputs": [
        {
          "internalType": "address[]",
          "name": "_sellers",
          "type": "address[]"
        },
        {
          "internalType": "uint256[]",
          "name": "_values",
          "type": "uint256[]"
        },
        {
          "internalType": "string[]",
          "name": "_productHashes",
          "type": "string[]"
        }
      ],
      "name": "clientRevertTransaction",
      "outputs": [],
      "stateMutability": "nonpayable",
      "type": "function"
    },
    {
      "inputs": [
        {
          "internalType": "address payable[]",
          "name": "_addresses",
          "type": "address[]"
        },
        {
          "internalType": "uint256[]",
          "name": "_amounts",
          "type": "uint256[]"
        },
        {
          "internalType": "string[]",
          "name": "_productHashes",
          "type": "string[]"
        }
      ],
      "name": "multiTransfer",
      "outputs": [],
      "stateMutability": "payable",
      "type": "function"
    },
    {
      "inputs": [],
      "name": "sellerCheckActiveOrders",
      "outputs": [
        {
          "components": [
            {
              "internalType": "string",
              "name": "product_hash",
              "type": "string"
            },
            {
              "internalType": "uint256",
              "name": "value",
              "type": "uint256"
            },
            {
              "internalType": "address",
              "name": "client",
              "type": "address"
            },
            {
              "internalType": "address",
              "name": "sellar",
              "type": "address"
            },
            {
              "internalType": "uint8",
              "name": "clientDecision",
              "type": "uint8"
            },
            {
              "internalType": "uint8",
              "name": "sellerDecision",
              "type": "uint8"
            },
            {
              "internalType": "bool",
              "name": "active",
              "type": "bool"
            }
          ],
          "internalType": "struct ShopsBulkTransactions.Order[]",
          "name": "",
          "type": "tuple[]"
        }
      ],
      "stateMutability": "view",
      "type": "function"
    },
    {
      "inputs": [],
      "name": "sellerCheckOrders",
      "outputs": [
        {
          "components": [
            {
              "internalType": "string",
              "name": "product_hash",
              "type": "string"
            },
            {
              "internalType": "uint256",
              "name": "value",
              "type": "uint256"
            },
            {
              "internalType": "address",
              "name": "client",
              "type": "address"
            },
            {
              "internalType": "address",
              "name": "sellar",
              "type": "address"
            },
            {
              "internalType": "uint8",
              "name": "clientDecision",
              "type": "uint8"
            },
            {
              "internalType": "uint8",
              "name": "sellerDecision",
              "type": "uint8"
            },
            {
              "internalType": "bool",
              "name": "active",
              "type": "bool"
            }
          ],
          "internalType": "struct ShopsBulkTransactions.Order[]",
          "name": "",
          "type": "tuple[]"
        }
      ],
      "stateMutability": "view",
      "type": "function"
    },
    {
      "inputs": [
        {
          "internalType": "address[]",
          "name": "_clients",
          "type": "address[]"
        },
        {
          "internalType": "uint256[]",
          "name": "_values",
          "type": "uint256[]"
        },
        {
          "internalType": "string[]",
          "name": "_productHashes",
          "type": "string[]"
        }
      ],
      "name": "sellerProccessTransaction",
      "outputs": [],
      "stateMutability": "nonpayable",
      "type": "function"
    },
    {
      "inputs": [
        {
          "internalType": "address[]",
          "name": "_clients",
          "type": "address[]"
        },
        {
          "internalType": "uint256[]",
          "name": "_values",
          "type": "uint256[]"
        },
        {
          "internalType": "string[]",
          "name": "_productHashes",
          "type": "string[]"
        }
      ],
      "name": "sellerRevertTransaction",
      "outputs": [],
      "stateMutability": "nonpayable",
      "type": "function"
    },
    {
      "inputs": [],
      "name": "symbol",
      "outputs": [
        {
          "internalType": "string",
          "name": "",
          "type": "string"
        }
      ],
      "stateMutability": "view",
      "type": "function"
    }
  ],
  "bytecode": "0x60806040523480156200001157600080fd5b5060405162003297380380620032978339810160408190526200003491620000fc565b600160005580516200004e90600490602084019062000056565b505062000225565b8280546200006490620001d2565b90600052602060002090601f016020900481019282620000885760008555620000d3565b82601f10620000a357805160ff1916838001178555620000d3565b82800160010185558215620000d3579182015b82811115620000d3578251825591602001919060010190620000b6565b50620000e1929150620000e5565b5090565b5b80821115620000e15760008155600101620000e6565b600060208083850312156200010f578182fd5b82516001600160401b038082111562000126578384fd5b818501915085601f8301126200013a578384fd5b8151818111156200014f576200014f6200020f565b604051601f8201601f19908116603f011681019083821181831017156200017a576200017a6200020f565b81604052828152888684870101111562000192578687fd5b8693505b82841015620001b5578484018601518185018701529285019262000196565b82841115620001c657868684830101525b98975050505050505050565b600181811c90821680620001e757607f821691505b602082108114156200020957634e487b7160e01b600052602260045260246000fd5b50919050565b634e487b7160e01b600052604160045260246000fd5b61306280620002356000396000f3fe60806040526004361061009c5760003560e01c80637bcebb16116100645780637bcebb161461014d57806395d89b411461016257806398feff3314610184578063d760a5a414610199578063dff68ed3146101ac578063fff35722146101cc57600080fd5b80631bd0ecf8146100a157806321a598de146100c35780632c7f173e146100f65780636749cf5b14610116578063697b810814610138575b600080fd5b3480156100ad57600080fd5b506100c16100bc366004612a8e565b6101ec565b005b3480156100cf57600080fd5b506100e36100de366004612a0e565b61030a565b6040519081526020015b60405180910390f35b34801561010257600080fd5b506100c1610111366004612a8e565b6105b4565b34801561012257600080fd5b5061012b6106b1565b6040516100ed9190612d5c565b34801561014457600080fd5b5061012b610a16565b34801561015957600080fd5b5061012b610f48565b34801561016e57600080fd5b506101776112a3565b6040516100ed9190612e18565b34801561019057600080fd5b5061012b611331565b6100c16101a7366004612b74565b61185a565b3480156101b857600080fd5b506100c16101c7366004612a8e565b611c9a565b3480156101d857600080fd5b506100c16101e7366004612a8e565b611da4565b600260005414156102185760405162461bcd60e51b815260040161020f90612ed7565b60405180910390fd5b6002600055815183511461023e5760405162461bcd60e51b815260040161020f90612e88565b805183511461025f5760405162461bcd60e51b815260040161020f90612e2b565b60005b83518110156102ff576102ed84828151811061028e57634e487b7160e01b600052603260045260246000fd5b60200260200101518483815181106102b657634e487b7160e01b600052603260045260246000fd5b602002602001015160028585815181106102e057634e487b7160e01b600052603260045260246000fd5b6020026020010151611ea1565b806102f781612fcd565b915050610262565b505060016000555050565b6001600160a01b038316600090815260036020908152604080832080548251818502810185019093528083528493849392919083018282801561036c57602002820191906000526020600020905b815481526020019060010190808311610358575b505050505090506000805b82518110156105a8576000600160008584815181106103a657634e487b7160e01b600052603260045260246000fd5b60200260200101518152602001908152602001600020805480602002602001604051908101604052809291908181526020016000905b8282101561050257838290600052602060002090600402016040518060e001604052908160008201805461040f90612f92565b80601f016020809104026020016040519081016040528092919081815260200182805461043b90612f92565b80156104885780601f1061045d57610100808354040283529160200191610488565b820191906000526020600020905b81548152906001019060200180831161046b57829003601f168201915b505050918352505060018281015460208084019190915260028401546001600160a01b039081166040850152600390940154938416606084015260ff600160a01b850481166080850152600160a81b8504811660a0850152600160b01b909404909316151560c090920191909152918352920191016103dc565b50505050905060005b8151811015610593578888604051610524929190612d15565b604051809103902082848151811061054c57634e487b7160e01b600052603260045260246000fd5b602002602001015160000151805190602001201415610573578561056f81612fcd565b9650505b8361057d81612fcd565b945050808061058b90612fcd565b91505061050b565b505080806105a090612fcd565b915050610377565b50919695505050505050565b600260005414156105d75760405162461bcd60e51b815260040161020f90612ed7565b600260005581518351146105fd5760405162461bcd60e51b815260040161020f90612e88565b805183511461061e5760405162461bcd60e51b815260040161020f90612e2b565b60005b83518110156102ff5761069f84828151811061064d57634e487b7160e01b600052603260045260246000fd5b602002602001015184838151811061067557634e487b7160e01b600052603260045260246000fd5b602002602001015160018585815181106102e057634e487b7160e01b600052603260045260246000fd5b806106a981612fcd565b915050610621565b336000908152600260209081526040808320805482518185028101850190935280835260609493849392919083018282801561070c57602002820191906000526020600020905b8154815260200190600101908083116106f8575b5050505050905060005b815181101561077c576001600083838151811061074357634e487b7160e01b600052603260045260246000fd5b6020026020010151815260200190815260200160002080549050836107689190612f63565b92508061077481612fcd565b915050610716565b5060008267ffffffffffffffff8111156107a657634e487b7160e01b600052604160045260246000fd5b6040519080825280602002602001820160405280156107df57816020015b6107cc6127e9565b8152602001906001900390816107c45790505b5090506000805b8351811015610a0c5760006001600086848151811061081557634e487b7160e01b600052603260045260246000fd5b60200260200101518152602001908152602001600020805480602002602001604051908101604052809291908181526020016000905b8282101561097157838290600052602060002090600402016040518060e001604052908160008201805461087e90612f92565b80601f01602080910402602001604051908101604052809291908181526020018280546108aa90612f92565b80156108f75780601f106108cc576101008083540402835291602001916108f7565b820191906000526020600020905b8154815290600101906020018083116108da57829003601f168201915b505050918352505060018281015460208084019190915260028401546001600160a01b039081166040850152600390940154938416606084015260ff600160a01b850481166080850152600160a81b8504811660a0850152600160b01b909404909316151560c0909201919091529183529201910161084b565b50505050905060005b81518110156109f7578181815181106109a357634e487b7160e01b600052603260045260246000fd5b60200260200101518585815181106109cb57634e487b7160e01b600052603260045260246000fd5b602002602001018190525083806109e190612fcd565b94505080806109ef90612fcd565b91505061097a565b50508080610a0490612fcd565b9150506107e6565b5090949350505050565b3360009081526003602090815260408083208054825181850281018501909352808352606094938493929190830182828015610a7157602002820191906000526020600020905b815481526020019060010190808311610a5d575b505050505090506000805b8251811015610c7f57600060016000858481518110610aab57634e487b7160e01b600052603260045260246000fd5b60200260200101518152602001908152602001600020805480602002602001604051908101604052809291908181526020016000905b82821015610c0757838290600052602060002090600402016040518060e0016040529081600082018054610b1490612f92565b80601f0160208091040260200160405190810160405280929190818152602001828054610b4090612f92565b8015610b8d5780601f10610b6257610100808354040283529160200191610b8d565b820191906000526020600020905b815481529060010190602001808311610b7057829003601f168201915b505050918352505060018281015460208084019190915260028401546001600160a01b039081166040850152600390940154938416606084015260ff600160a01b850481166080850152600160a81b8504811660a0850152600160b01b909404909316151560c09092019190915291835292019101610ae1565b50505050905060005b8151811015610c6a57818181518110610c3957634e487b7160e01b600052603260045260246000fd5b602002602001015160c0015115610c585785610c5481612fcd565b9650505b80610c6281612fcd565b915050610c10565b50508080610c7790612fcd565b915050610a7c565b5060008367ffffffffffffffff811115610ca957634e487b7160e01b600052604160045260246000fd5b604051908082528060200260200182016040528015610ce257816020015b610ccf6127e9565b815260200190600190039081610cc75790505b50905060005b8351811015610f3f57600060016000868481518110610d1757634e487b7160e01b600052603260045260246000fd5b60200260200101518152602001908152602001600020805480602002602001604051908101604052809291908181526020016000905b82821015610e7357838290600052602060002090600402016040518060e0016040529081600082018054610d8090612f92565b80601f0160208091040260200160405190810160405280929190818152602001828054610dac90612f92565b8015610df95780601f10610dce57610100808354040283529160200191610df9565b820191906000526020600020905b815481529060010190602001808311610ddc57829003601f168201915b505050918352505060018281015460208084019190915260028401546001600160a01b039081166040850152600390940154938416606084015260ff600160a01b850481166080850152600160a81b8504811660a0850152600160b01b909404909316151560c09092019190915291835292019101610d4d565b50505050905060005b8151811015610f2a57818181518110610ea557634e487b7160e01b600052603260045260246000fd5b602002602001015160c0015115610f1857818181518110610ed657634e487b7160e01b600052603260045260246000fd5b6020026020010151848681518110610efe57634e487b7160e01b600052603260045260246000fd5b60200260200101819052508480610f1490612fcd565b9550505b80610f2281612fcd565b915050610e7c565b50508080610f3790612fcd565b915050610ce8565b50949350505050565b3360009081526003602090815260408083208054825181850281018501909352808352606094938493929190830182828015610fa357602002820191906000526020600020905b815481526020019060010190808311610f8f575b5050505050905060005b81518110156110135760016000838381518110610fda57634e487b7160e01b600052603260045260246000fd5b602002602001015181526020019081526020016000208054905083610fff9190612f63565b92508061100b81612fcd565b915050610fad565b5060008267ffffffffffffffff81111561103d57634e487b7160e01b600052604160045260246000fd5b60405190808252806020026020018201604052801561107657816020015b6110636127e9565b81526020019060019003908161105b5790505b5090506000805b8351811015610a0c576000600160008684815181106110ac57634e487b7160e01b600052603260045260246000fd5b60200260200101518152602001908152602001600020805480602002602001604051908101604052809291908181526020016000905b8282101561120857838290600052602060002090600402016040518060e001604052908160008201805461111590612f92565b80601f016020809104026020016040519081016040528092919081815260200182805461114190612f92565b801561118e5780601f106111635761010080835404028352916020019161118e565b820191906000526020600020905b81548152906001019060200180831161117157829003601f168201915b505050918352505060018281015460208084019190915260028401546001600160a01b039081166040850152600390940154938416606084015260ff600160a01b850481166080850152600160a81b8504811660a0850152600160b01b909404909316151560c090920191909152918352920191016110e2565b50505050905060005b815181101561128e5781818151811061123a57634e487b7160e01b600052603260045260246000fd5b602002602001015185858151811061126257634e487b7160e01b600052603260045260246000fd5b6020026020010181905250838061127890612fcd565b945050808061128690612fcd565b915050611211565b5050808061129b90612fcd565b91505061107d565b600480546112b090612f92565b80601f01602080910402602001604051908101604052809291908181526020018280546112dc90612f92565b80156113295780601f106112fe57610100808354040283529160200191611329565b820191906000526020600020905b81548152906001019060200180831161130c57829003601f168201915b505050505081565b336000908152600260209081526040808320805482518185028101850190935280835260609493849392919083018282801561138c57602002820191906000526020600020905b815481526020019060010190808311611378575b505050505090506000805b825181101561159a576000600160008584815181106113c657634e487b7160e01b600052603260045260246000fd5b60200260200101518152602001908152602001600020805480602002602001604051908101604052809291908181526020016000905b8282101561152257838290600052602060002090600402016040518060e001604052908160008201805461142f90612f92565b80601f016020809104026020016040519081016040528092919081815260200182805461145b90612f92565b80156114a85780601f1061147d576101008083540402835291602001916114a8565b820191906000526020600020905b81548152906001019060200180831161148b57829003601f168201915b505050918352505060018281015460208084019190915260028401546001600160a01b039081166040850152600390940154938416606084015260ff600160a01b850481166080850152600160a81b8504811660a0850152600160b01b909404909316151560c090920191909152918352920191016113fc565b50505050905060005b81518110156115855781818151811061155457634e487b7160e01b600052603260045260246000fd5b602002602001015160c0015115611573578561156f81612fcd565b9650505b8061157d81612fcd565b91505061152b565b5050808061159290612fcd565b915050611397565b5060008367ffffffffffffffff8111156115c457634e487b7160e01b600052604160045260246000fd5b6040519080825280602002602001820160405280156115fd57816020015b6115ea6127e9565b8152602001906001900390816115e25790505b50905060005b8351811015610f3f5760006001600086848151811061163257634e487b7160e01b600052603260045260246000fd5b60200260200101518152602001908152602001600020805480602002602001604051908101604052809291908181526020016000905b8282101561178e57838290600052602060002090600402016040518060e001604052908160008201805461169b90612f92565b80601f01602080910402602001604051908101604052809291908181526020018280546116c790612f92565b80156117145780601f106116e957610100808354040283529160200191611714565b820191906000526020600020905b8154815290600101906020018083116116f757829003601f168201915b505050918352505060018281015460208084019190915260028401546001600160a01b039081166040850152600390940154938416606084015260ff600160a01b850481166080850152600160a81b8504811660a0850152600160b01b909404909316151560c09092019190915291835292019101611668565b50505050905060005b8151811015611845578181815181106117c057634e487b7160e01b600052603260045260246000fd5b602002602001015160c0015115611833578181815181106117f157634e487b7160e01b600052603260045260246000fd5b602002602001015184868151811061181957634e487b7160e01b600052603260045260246000fd5b6020026020010181905250848061182f90612fcd565b9550505b8061183d81612fcd565b915050611797565b5050808061185290612fcd565b915050611603565b6002600054141561187d5760405162461bcd60e51b815260040161020f90612ed7565b600260005581518351146118ec5760405162461bcd60e51b815260206004820152603060248201527f416464726573736573206c656e677468206d75737420626520657175616c207460448201526f0de40c2dadeeadce8e640d8cadccee8d60831b606482015260840161020f565b348060005b8551811015611c545784818151811061191a57634e487b7160e01b600052603260045260246000fd5b60200260200101518210156119875760405162461bcd60e51b815260206004820152602d60248201527f546f74616c20616d6f756e74206973206c657373207468616e2063757272656e60448201526c1d081cd95b9908185b5bdd5b9d609a1b606482015260840161020f565b8481815181106119a757634e487b7160e01b600052603260045260246000fd5b6020026020010151826119ba9190612f7b565b91506119c46127e9565b33604082015286518790839081106119ec57634e487b7160e01b600052603260045260246000fd5b60209081029190910101516001600160a01b03166060820152600160a0820152600060808201528551869083908110611a3557634e487b7160e01b600052603260045260246000fd5b6020026020010151816020018181525050848281518110611a6657634e487b7160e01b600052603260045260246000fd5b60209081029190910101518152600160c082015286516000903390899085908110611aa157634e487b7160e01b600052603260045260246000fd5b6020026020010151604051602001611aba929190612cee565b60408051601f19818403018152918152815160209283012060008181526001808552928120805493840181558152839020855180519295508694600490940290910192611b0c92849290910190612825565b506020828101516001838101919091556040808501516002850180546001600160a01b0319166001600160a01b03928316179055606086015160039095018054608088015160a089015160c090990151979093166001600160a81b031990911617600160a01b60ff938416021761ffff60a81b1916600160a81b929097169190910260ff60b01b191695909517600160b01b941515949094029390931790935560008481529083905220541415611c3f5733600090815260026020908152604082208054600181018255908352908220018290558851600391908a9086908110611c0657634e487b7160e01b600052603260045260246000fd5b6020908102919091018101516001600160a01b031682528181019290925260400160009081208054600181018255908252919020018190555b50508080611c4c90612fcd565b9150506118f1565b5060408051838152600160208201527fc05dae71ad6ebf2680862ebed51b27e8ea99855a67cfc24e7a3e0212c34e5e2f910160405180910390a150506001600055505050565b60026000541415611cbd5760405162461bcd60e51b815260040161020f90612ed7565b60026000558151835114611ce35760405162461bcd60e51b815260040161020f90612e88565b8051835114611d045760405162461bcd60e51b815260040161020f90612e2b565b60005b83518110156102ff57611d92848281518110611d3357634e487b7160e01b600052603260045260246000fd5b6020026020010151848381518110611d5b57634e487b7160e01b600052603260045260246000fd5b60200260200101516001858581518110611d8557634e487b7160e01b600052603260045260246000fd5b6020026020010151612448565b80611d9c81612fcd565b915050611d07565b60026000541415611dc75760405162461bcd60e51b815260040161020f90612ed7565b60026000558151835114611ded5760405162461bcd60e51b815260040161020f90612e88565b8051835114611e0e5760405162461bcd60e51b815260040161020f90612e2b565b60005b83518110156102ff57611e8f848281518110611e3d57634e487b7160e01b600052603260045260246000fd5b6020026020010151848381518110611e6557634e487b7160e01b600052603260045260246000fd5b60200260200101516002858581518110611d8557634e487b7160e01b600052603260045260246000fd5b80611e9981612fcd565b915050611e11565b60003385604051602001611eb6929190612cee565b60405160208183030381529060405280519060200120905060005b600082815260016020526040902054811015612440578280519060200120600160008481526020019081526020016000208281548110611f2157634e487b7160e01b600052603260045260246000fd5b9060005260206000209060040201600001604051611f3f9190612d25565b6040518091039020148015611f9457506000828152600160205260409020805486919083908110611f8057634e487b7160e01b600052603260045260246000fd5b906000526020600020906004020160010154145b8015611ff057506000828152600160205260409020805482908110611fc957634e487b7160e01b600052603260045260246000fd5b906000526020600020906004020160030160169054906101000a900460ff16151560011515145b1561242e57600082815260016020526040902080543391908390811061202657634e487b7160e01b600052603260045260246000fd5b60009182526020909120600260049092020101546001600160a01b0316146120905760405162461bcd60e51b815260206004820152601760248201527f596f7520617265206e6f742074686520636c69656e742e000000000000000000604482015260640161020f565b60008281526001602052604090208054859190839081106120c157634e487b7160e01b600052603260045260246000fd5b906000526020600020906004020160030160146101000a81548160ff021916908360ff160217905550600061222e60016000858152602001908152602001600020838154811061212157634e487b7160e01b600052603260045260246000fd5b90600052602060002090600402016040518060e001604052908160008201805461214a90612f92565b80601f016020809104026020016040519081016040528092919081815260200182805461217690612f92565b80156121c35780601f10612198576101008083540402835291602001916121c3565b820191906000526020600020905b8154815290600101906020018083116121a657829003601f168201915b50505091835250506001820154602082015260028201546001600160a01b039081166040830152600390920154918216606082015260ff600160a01b830481166080830152600160a81b8304811660a0830152600160b01b909204909116151560c0909101526126da565b90508060ff166001141561233a57600083815260016020526040812080548490811061226a57634e487b7160e01b600052603260045260246000fd5b906000526020600020906004020160030160166101000a81548160ff0219169083151502179055506123356001600085815260200190815260200160002083815481106122c757634e487b7160e01b600052603260045260246000fd5b906000526020600020906004020160030160009054906101000a90046001600160a01b031660016000868152602001908152602001600020848154811061231e57634e487b7160e01b600052603260045260246000fd5b906000526020600020906004020160010154612702565b612428565b8060ff166002141561242857600083815260016020526040812080548490811061237457634e487b7160e01b600052603260045260246000fd5b906000526020600020906004020160030160166101000a81548160ff0219169083151502179055506124286001600085815260200190815260200160002083815481106123d157634e487b7160e01b600052603260045260246000fd5b906000526020600020906004020160020160009054906101000a90046001600160a01b031660016000868152602001908152602001600020848154811061231e57634e487b7160e01b600052603260045260246000fd5b50612440565b8061243881612fcd565b915050611ed1565b505050505050565b6000843360405160200161245d929190612cee565b60405160208183030381529060405280519060200120905060005b6000828152600160205260409020548110156124405782805190602001206001600084815260200190815260200160002082815481106124c857634e487b7160e01b600052603260045260246000fd5b90600052602060002090600402016000016040516124e69190612d25565b604051809103902014801561253b5750600082815260016020526040902080548691908390811061252757634e487b7160e01b600052603260045260246000fd5b906000526020600020906004020160010154145b80156125975750600082815260016020526040902080548290811061257057634e487b7160e01b600052603260045260246000fd5b906000526020600020906004020160030160169054906101000a900460ff16151560011515145b156126c85760008281526001602052604090208054339190839081106125cd57634e487b7160e01b600052603260045260246000fd5b60009182526020909120600260049092020101546001600160a01b0316146126375760405162461bcd60e51b815260206004820152601760248201527f596f7520617265206e6f74207468652073656c6c65722e000000000000000000604482015260640161020f565b600082815260016020526040902080548591908390811061266857634e487b7160e01b600052603260045260246000fd5b906000526020600020906004020160030160156101000a81548160ff021916908360ff160217905550600061222e60016000858152602001908152602001600020838154811061212157634e487b7160e01b600052603260045260246000fd5b806126d281612fcd565b915050612478565b60008160a0015160ff16826080015160ff1614156126fa57506080015190565b506000919050565b6001600160a01b03821661274d5760405162461bcd60e51b81526020600482015260126024820152710416464726573732063616e277420626520360741b604482015260640161020f565b6000826001600160a01b03168260405160006040518083038185875af1925050503d806000811461279a576040519150601f19603f3d011682016040523d82523d6000602084013e61279f565b606091505b505090508060046040516020016127b69190612d38565b604051602081830303815290604052906127e35760405162461bcd60e51b815260040161020f9190612e18565b50505050565b6040805160e081018252606080825260006020830181905292820183905281018290526080810182905260a0810182905260c081019190915290565b82805461283190612f92565b90600052602060002090601f0160209004810192826128535760008555612899565b82601f1061286c57805160ff1916838001178555612899565b82800160010185558215612899579182015b8281111561289957825182559160200191906001019061287e565b506128a59291506128a9565b5090565b5b808211156128a557600081556001016128aa565b6000601f83818401126128cf578182fd5b823560206128e46128df83612f3f565b612f0e565b80838252828201915082870188848660051b8a01011115612903578687fd5b865b8581101561299657813567ffffffffffffffff8082111561292457898afd5b818b0191508b603f83011261293757898afd5b8682013560408282111561294d5761294d612ffe565b61295e828c01601f19168a01612f0e565b92508183528d81838601011115612973578b8cfd5b818185018a85013750810187018a90528552509284019290840190600101612905565b509098975050505050505050565b600082601f8301126129b4578081fd5b813560206129c46128df83612f3f565b80838252828201915082860187848660051b89010111156129e3578586fd5b855b85811015612a01578135845292840192908401906001016129e5565b5090979650505050505050565b600080600060408486031215612a22578283fd5b8335612a2d81613014565b9250602084013567ffffffffffffffff80821115612a49578384fd5b818601915086601f830112612a5c578384fd5b813581811115612a6a578485fd5b876020828501011115612a7b578485fd5b6020830194508093505050509250925092565b600080600060608486031215612aa2578283fd5b833567ffffffffffffffff80821115612ab9578485fd5b818601915086601f830112612acc578485fd5b81356020612adc6128df83612f3f565b8083825282820191508286018b848660051b8901011115612afb57898afd5b8996505b84871015612b26578035612b1281613014565b835260019690960195918301918301612aff565b5097505087013592505080821115612b3c578384fd5b612b48878388016129a4565b93506040860135915080821115612b5d578283fd5b50612b6a868287016128be565b9150509250925092565b600080600060608486031215612b88578283fd5b833567ffffffffffffffff80821115612b9f578485fd5b818601915086601f830112612bb2578485fd5b81356020612bc26128df83612f3f565b8083825282820191508286018b848660051b8901011115612be157898afd5b8996505b84871015612b26578035612bf881613014565b835260019690960195918301918301612be5565b8054600090600181811c9080831680612c2657607f831692505b6020808410821415612c4657634e487b7160e01b86526022600452602486fd5b818015612c5a5760018114612c6b57612c97565b60ff19861689528489019650612c97565b876000528160002060005b86811015612c8f5781548b820152908501908301612c76565b505084890196505b50505050505092915050565b60008151808452815b81811015612cc857602081850181015186830182015201612cac565b81811115612cd95782602083870101525b50601f01601f19169290920160200192915050565b6bffffffffffffffffffffffff19606093841b811682529190921b16601482015260280190565b8183823760009101908152919050565b6000612d318284612c0c565b9392505050565b6e02330b4b632b2103a379039b2b7321608d1b81526000612d31600f830184612c0c565b60006020808301818452808551808352604092508286019150828160051b870101848801865b8381101561299657603f19898403018552815160e08151818652612da882870182612ca3565b838b0151878c0152898401516001600160a01b039081168b8901526060808601519091169088015260808085015160ff169088015260a0808501519193509150612df68288018260ff169052565b505060c091820151151594909101939093529386019390860190600101612d82565b602081526000612d316020830184612ca3565b60208082526037908201527f416464726573736573206c656e677468206d75737420626520657175616c207460408201527f6f2070726f6475637420686173686573206c656e677468000000000000000000606082015260800190565b6020808252602f908201527f416464726573736573206c656e677468206d75737420626520657175616c207460408201526e0de40ecc2d8eacae640d8cadccee8d608b1b606082015260800190565b6020808252601f908201527f5265656e7472616e637947756172643a207265656e7472616e742063616c6c00604082015260600190565b604051601f8201601f1916810167ffffffffffffffff81118282101715612f3757612f37612ffe565b604052919050565b600067ffffffffffffffff821115612f5957612f59612ffe565b5060051b60200190565b60008219821115612f7657612f76612fe8565b500190565b600082821015612f8d57612f8d612fe8565b500390565b600181811c90821680612fa657607f821691505b60208210811415612fc757634e487b7160e01b600052602260045260246000fd5b50919050565b6000600019821415612fe157612fe1612fe8565b5060010190565b634e487b7160e01b600052601160045260246000fd5b634e487b7160e01b600052604160045260246000fd5b6001600160a01b038116811461302957600080fd5b5056fea26469706673582212209ffc9c9afa96b22d118ccd87b93ba8563217c3298cd3aa8f0bd3e33481022c0464736f6c63430008040033",
  "linkReferences": {},
  "deployedLinkReferences": {}
}