{
  "_format": "hh-sol-artifact-1",
  "contractName": "ShopsBulkTransactions",
  "sourceName": "contracts/ShopsBulkTransactions.sol",
  "abi": [
    {
      "inputs": [
        {
          "internalType": "string",
          "name": "_symbol",
          "type": "string"
        }
      ],
      "stateMutability": "nonpayable",
      "type": "constructor"
    },
    {
      "anonymous": false,
      "inputs": [
        {
          "indexed": false,
          "internalType": "uint256",
          "name": "_amount",
          "type": "uint256"
        },
        {
          "indexed": false,
          "internalType": "bool",
          "name": "_status",
          "type": "bool"
        }
      ],
      "name": "MultiTransfer",
      "type": "event"
    },
    {
      "inputs": [
        {
          "internalType": "address payable[]",
          "name": "_addresses",
          "type": "address[]"
        },
        {
          "internalType": "uint256[]",
          "name": "_amounts",
          "type": "uint256[]"
        }
      ],
      "name": "multiTransfer",
      "outputs": [],
      "stateMutability": "payable",
      "type": "function"
    },
    {
      "inputs": [],
      "name": "symbol",
      "outputs": [
        {
          "internalType": "string",
          "name": "",
          "type": "string"
        }
      ],
      "stateMutability": "view",
      "type": "function"
    }
  ],
  "bytecode": "0x60806040523480156200001157600080fd5b50604051620009cd380380620009cd8339810160408190526200003491620000fc565b6001600081905581516200004e9190602084019062000056565b505062000225565b8280546200006490620001d2565b90600052602060002090601f016020900481019282620000885760008555620000d3565b82601f10620000a357805160ff1916838001178555620000d3565b82800160010185558215620000d3579182015b82811115620000d3578251825591602001919060010190620000b6565b50620000e1929150620000e5565b5090565b5b80821115620000e15760008155600101620000e6565b600060208083850312156200010f578182fd5b82516001600160401b038082111562000126578384fd5b818501915085601f8301126200013a578384fd5b8151818111156200014f576200014f6200020f565b604051601f8201601f19908116603f011681019083821181831017156200017a576200017a6200020f565b81604052828152888684870101111562000192578687fd5b8693505b82841015620001b5578484018601518185018701529285019262000196565b82841115620001c657868684830101525b98975050505050505050565b600181811c90821680620001e757607f821691505b602082108114156200020957634e487b7160e01b600052602260045260246000fd5b50919050565b634e487b7160e01b600052604160045260246000fd5b61079880620002356000396000f3fe6080604052600436106100295760003560e01c80631e89d5451461002e57806395d89b4114610043575b600080fd5b61004161003c366004610498565b61006e565b005b34801561004f57600080fd5b506100586102b4565b6040516100659190610621565b60405180910390f35b600260005414156100c65760405162461bcd60e51b815260206004820152601f60248201527f5265656e7472616e637947756172643a207265656e7472616e742063616c6c0060448201526064015b60405180910390fd5b600260005580518251146101355760405162461bcd60e51b815260206004820152603060248201527f416464726573736573206c656e677468206d75737420626520657175616c207460448201526f0de40c2dadeeadce8e640d8cadccee8d60831b60648201526084016100bd565b348060005b845181101561026f5783818151811061016357634e487b7160e01b600052603260045260246000fd5b60200260200101518210156101d05760405162461bcd60e51b815260206004820152602d60248201527f546f74616c20616d6f756e74206973206c657373207468616e2063757272656e60448201526c1d081cd95b9908185b5bdd5b9d609a1b60648201526084016100bd565b8381815181106101f057634e487b7160e01b600052603260045260246000fd5b60200260200101518261020391906106c9565b915061025d85828151811061022857634e487b7160e01b600052603260045260246000fd5b602002602001015185838151811061025057634e487b7160e01b600052603260045260246000fd5b6020026020010151610342565b806102678161071b565b91505061013a565b5060408051838152600160208201527fc05dae71ad6ebf2680862ebed51b27e8ea99855a67cfc24e7a3e0212c34e5e2f910160405180910390a1505060016000555050565b600180546102c1906106e0565b80601f01602080910402602001604051908101604052809291908181526020018280546102ed906106e0565b801561033a5780601f1061030f5761010080835404028352916020019161033a565b820191906000526020600020905b81548152906001019060200180831161031d57829003601f168201915b505050505081565b6001600160a01b03821661038d5760405162461bcd60e51b81526020600482015260126024820152710416464726573732063616e277420626520360741b60448201526064016100bd565b6000826001600160a01b03168260405160006040518083038185875af1925050503d80600081146103da576040519150601f19603f3d011682016040523d82523d6000602084013e6103df565b606091505b505090508060016040516020016103f69190610566565b604051602081830303815290604052906104235760405162461bcd60e51b81526004016100bd9190610621565b50505050565b600082601f830112610439578081fd5b8135602061044e610449836106a5565b610674565b80838252828201915082860187848660051b890101111561046d578586fd5b855b8581101561048b5781358452928401929084019060010161046f565b5090979650505050505050565b600080604083850312156104aa578182fd5b823567ffffffffffffffff808211156104c1578384fd5b818501915085601f8301126104d4578384fd5b813560206104e4610449836106a5565b8083825282820191508286018a848660051b8901011115610503578889fd5b8896505b848710156105395780356001600160a01b038116811461052557898afd5b835260019690960195918301918301610507565b509650508601359250508082111561054f578283fd5b5061055c85828601610429565b9150509250929050565b6e02330b4b632b2103a379039b2b7321608d1b81526000600f81845483600182811c91508083168061059957607f831692505b60208084108214156105b957634e487b7160e01b88526022600452602488fd5b8180156105cd57600181146105e257610612565b60ff1986168a890152848a0188019650610612565b60008b815260209020895b868110156106085781548c82018b01529085019083016105ed565b505087858b010196505b50949998505050505050505050565b6000602080835283518082850152825b8181101561064d57858101830151858201604001528201610631565b8181111561065e5783604083870101525b50601f01601f1916929092016040019392505050565b604051601f8201601f1916810167ffffffffffffffff8111828210171561069d5761069d61074c565b604052919050565b600067ffffffffffffffff8211156106bf576106bf61074c565b5060051b60200190565b6000828210156106db576106db610736565b500390565b600181811c908216806106f457607f821691505b6020821081141561071557634e487b7160e01b600052602260045260246000fd5b50919050565b600060001982141561072f5761072f610736565b5060010190565b634e487b7160e01b600052601160045260246000fd5b634e487b7160e01b600052604160045260246000fdfea2646970667358221220066127f7444271946b08f2cee945d7fdbf677b3efd168db05dc6493df43576d464736f6c63430008040033",
  "linkReferences": {},
  "deployedLinkReferences": {}
}