{
  "_format": "hh-sol-artifact-1",
  "contractName": "ShopsBulkTransactions",
  "sourceName": "contracts/ShopsBulkTransactions.sol",
  "abi": [
    {
      "inputs": [
        {
          "internalType": "string",
          "name": "_symbol",
          "type": "string"
        },
        {
          "internalType": "address",
          "name": "arbitrator",
          "type": "address"
        }
      ],
      "stateMutability": "nonpayable",
      "type": "constructor"
    },
    {
      "anonymous": false,
      "inputs": [
        {
          "indexed": false,
          "internalType": "uint256",
          "name": "_amount",
          "type": "uint256"
        },
        {
          "indexed": false,
          "internalType": "bool",
          "name": "_status",
          "type": "bool"
        }
      ],
      "name": "MultiTransfer",
      "type": "event"
    },
    {
      "inputs": [
        {
          "internalType": "address[]",
          "name": "_clients",
          "type": "address[]"
        },
        {
          "internalType": "address[]",
          "name": "_sellers",
          "type": "address[]"
        },
        {
          "internalType": "bytes32[]",
          "name": "_orderHashes",
          "type": "bytes32[]"
        }
      ],
      "name": "arbitratorProccessTransaction",
      "outputs": [],
      "stateMutability": "nonpayable",
      "type": "function"
    },
    {
      "inputs": [
        {
          "internalType": "address[]",
          "name": "_clients",
          "type": "address[]"
        },
        {
          "internalType": "address[]",
          "name": "_sellers",
          "type": "address[]"
        },
        {
          "internalType": "bytes32[]",
          "name": "_orderHashes",
          "type": "bytes32[]"
        }
      ],
      "name": "arbitratorRevertTransaction",
      "outputs": [],
      "stateMutability": "nonpayable",
      "type": "function"
    },
    {
      "inputs": [
        {
          "internalType": "address",
          "name": "seller",
          "type": "address"
        },
        {
          "internalType": "string",
          "name": "productHash",
          "type": "string"
        }
      ],
      "name": "checkProductOrders",
      "outputs": [
        {
          "internalType": "uint256",
          "name": "",
          "type": "uint256"
        }
      ],
      "stateMutability": "view",
      "type": "function"
    },
    {
      "inputs": [],
      "name": "clientCheckActiveOrders",
      "outputs": [
        {
          "components": [
            {
              "internalType": "bytes32",
              "name": "orderHash",
              "type": "bytes32"
            },
            {
              "internalType": "string",
              "name": "productHash",
              "type": "string"
            },
            {
              "internalType": "string",
              "name": "clientWebId",
              "type": "string"
            },
            {
              "internalType": "uint256",
              "name": "value",
              "type": "uint256"
            },
            {
              "internalType": "address",
              "name": "client",
              "type": "address"
            },
            {
              "internalType": "address",
              "name": "seller",
              "type": "address"
            },
            {
              "internalType": "address",
              "name": "arbitrator",
              "type": "address"
            },
            {
              "internalType": "uint8",
              "name": "clientDecision",
              "type": "uint8"
            },
            {
              "internalType": "uint8",
              "name": "sellerDecision",
              "type": "uint8"
            },
            {
              "internalType": "uint8",
              "name": "arbitratorDecision",
              "type": "uint8"
            },
            {
              "internalType": "uint256",
              "name": "deadline",
              "type": "uint256"
            },
            {
              "internalType": "bool",
              "name": "active",
              "type": "bool"
            }
          ],
          "internalType": "struct ShopsBulkTransactions.Order[]",
          "name": "",
          "type": "tuple[]"
        }
      ],
      "stateMutability": "view",
      "type": "function"
    },
    {
      "inputs": [],
      "name": "clientCheckOrders",
      "outputs": [
        {
          "components": [
            {
              "internalType": "bytes32",
              "name": "orderHash",
              "type": "bytes32"
            },
            {
              "internalType": "string",
              "name": "productHash",
              "type": "string"
            },
            {
              "internalType": "string",
              "name": "clientWebId",
              "type": "string"
            },
            {
              "internalType": "uint256",
              "name": "value",
              "type": "uint256"
            },
            {
              "internalType": "address",
              "name": "client",
              "type": "address"
            },
            {
              "internalType": "address",
              "name": "seller",
              "type": "address"
            },
            {
              "internalType": "address",
              "name": "arbitrator",
              "type": "address"
            },
            {
              "internalType": "uint8",
              "name": "clientDecision",
              "type": "uint8"
            },
            {
              "internalType": "uint8",
              "name": "sellerDecision",
              "type": "uint8"
            },
            {
              "internalType": "uint8",
              "name": "arbitratorDecision",
              "type": "uint8"
            },
            {
              "internalType": "uint256",
              "name": "deadline",
              "type": "uint256"
            },
            {
              "internalType": "bool",
              "name": "active",
              "type": "bool"
            }
          ],
          "internalType": "struct ShopsBulkTransactions.Order[]",
          "name": "",
          "type": "tuple[]"
        }
      ],
      "stateMutability": "view",
      "type": "function"
    },
    {
      "inputs": [
        {
          "internalType": "address[]",
          "name": "_sellers",
          "type": "address[]"
        },
        {
          "internalType": "bytes32[]",
          "name": "_orderHashes",
          "type": "bytes32[]"
        }
      ],
      "name": "clientProccessTransaction",
      "outputs": [],
      "stateMutability": "nonpayable",
      "type": "function"
    },
    {
      "inputs": [
        {
          "internalType": "address[]",
          "name": "_sellers",
          "type": "address[]"
        },
        {
          "internalType": "bytes32[]",
          "name": "_orderHashes",
          "type": "bytes32[]"
        }
      ],
      "name": "clientRevertTransaction",
      "outputs": [],
      "stateMutability": "nonpayable",
      "type": "function"
    },
    {
      "inputs": [
        {
          "internalType": "address payable[]",
          "name": "_addresses",
          "type": "address[]"
        },
        {
          "internalType": "uint256[]",
          "name": "_amounts",
          "type": "uint256[]"
        },
        {
          "internalType": "string[]",
          "name": "_productHashes",
          "type": "string[]"
        },
        {
          "internalType": "string",
          "name": "_clientWebId",
          "type": "string"
        }
      ],
      "name": "multiTransfer",
      "outputs": [],
      "stateMutability": "payable",
      "type": "function"
    },
    {
      "inputs": [],
      "name": "sellerCheckActiveOrders",
      "outputs": [
        {
          "components": [
            {
              "internalType": "bytes32",
              "name": "orderHash",
              "type": "bytes32"
            },
            {
              "internalType": "string",
              "name": "productHash",
              "type": "string"
            },
            {
              "internalType": "string",
              "name": "clientWebId",
              "type": "string"
            },
            {
              "internalType": "uint256",
              "name": "value",
              "type": "uint256"
            },
            {
              "internalType": "address",
              "name": "client",
              "type": "address"
            },
            {
              "internalType": "address",
              "name": "seller",
              "type": "address"
            },
            {
              "internalType": "address",
              "name": "arbitrator",
              "type": "address"
            },
            {
              "internalType": "uint8",
              "name": "clientDecision",
              "type": "uint8"
            },
            {
              "internalType": "uint8",
              "name": "sellerDecision",
              "type": "uint8"
            },
            {
              "internalType": "uint8",
              "name": "arbitratorDecision",
              "type": "uint8"
            },
            {
              "internalType": "uint256",
              "name": "deadline",
              "type": "uint256"
            },
            {
              "internalType": "bool",
              "name": "active",
              "type": "bool"
            }
          ],
          "internalType": "struct ShopsBulkTransactions.Order[]",
          "name": "",
          "type": "tuple[]"
        }
      ],
      "stateMutability": "view",
      "type": "function"
    },
    {
      "inputs": [],
      "name": "sellerCheckOrders",
      "outputs": [
        {
          "components": [
            {
              "internalType": "bytes32",
              "name": "orderHash",
              "type": "bytes32"
            },
            {
              "internalType": "string",
              "name": "productHash",
              "type": "string"
            },
            {
              "internalType": "string",
              "name": "clientWebId",
              "type": "string"
            },
            {
              "internalType": "uint256",
              "name": "value",
              "type": "uint256"
            },
            {
              "internalType": "address",
              "name": "client",
              "type": "address"
            },
            {
              "internalType": "address",
              "name": "seller",
              "type": "address"
            },
            {
              "internalType": "address",
              "name": "arbitrator",
              "type": "address"
            },
            {
              "internalType": "uint8",
              "name": "clientDecision",
              "type": "uint8"
            },
            {
              "internalType": "uint8",
              "name": "sellerDecision",
              "type": "uint8"
            },
            {
              "internalType": "uint8",
              "name": "arbitratorDecision",
              "type": "uint8"
            },
            {
              "internalType": "uint256",
              "name": "deadline",
              "type": "uint256"
            },
            {
              "internalType": "bool",
              "name": "active",
              "type": "bool"
            }
          ],
          "internalType": "struct ShopsBulkTransactions.Order[]",
          "name": "",
          "type": "tuple[]"
        }
      ],
      "stateMutability": "view",
      "type": "function"
    },
    {
      "inputs": [
        {
          "internalType": "address[]",
          "name": "_clients",
          "type": "address[]"
        },
        {
          "internalType": "bytes32[]",
          "name": "_orderHashes",
          "type": "bytes32[]"
        }
      ],
      "name": "sellerProccessTransaction",
      "outputs": [],
      "stateMutability": "nonpayable",
      "type": "function"
    },
    {
      "inputs": [
        {
          "internalType": "address[]",
          "name": "_clients",
          "type": "address[]"
        },
        {
          "internalType": "bytes32[]",
          "name": "_orderHashes",
          "type": "bytes32[]"
        }
      ],
      "name": "sellerRevertTransaction",
      "outputs": [],
      "stateMutability": "nonpayable",
      "type": "function"
    },
    {
      "inputs": [],
      "name": "symbol",
      "outputs": [
        {
          "internalType": "string",
          "name": "",
          "type": "string"
        }
      ],
      "stateMutability": "view",
      "type": "function"
    }
  ],
  "bytecode": "0x60806040523480156200001157600080fd5b506040516200491438038062004914833981016040819052620000349162000139565b600160005581516200004e90600590602085019062000076565b50600180546001600160a01b0319166001600160a01b03929092169190911790555062000277565b828054620000849062000224565b90600052602060002090601f016020900481019282620000a85760008555620000f3565b82601f10620000c357805160ff1916838001178555620000f3565b82800160010185558215620000f3579182015b82811115620000f3578251825591602001919060010190620000d6565b506200010192915062000105565b5090565b5b8082111562000101576000815560010162000106565b80516001600160a01b03811681146200013457600080fd5b919050565b600080604083850312156200014c578182fd5b82516001600160401b038082111562000163578384fd5b818501915085601f83011262000177578384fd5b8151818111156200018c576200018c62000261565b604051601f8201601f19908116603f01168101908382118183101715620001b757620001b762000261565b81604052828152602093508884848701011115620001d3578687fd5b8691505b82821015620001f65784820184015181830185015290830190620001d7565b828211156200020757868484830101525b9550620002199150508582016200011c565b925050509250929050565b600181811c908216806200023957607f821691505b602082108114156200025b57634e487b7160e01b600052602260045260246000fd5b50919050565b634e487b7160e01b600052604160045260246000fd5b61468d80620002876000396000f3fe6080604052600436106100c25760003560e01c8063745715b51161007f57806398feff331161005957806398feff33146101ea578063b49eb25a146101ff578063f24baeaa14610212578063fcf8a0c01461023257600080fd5b8063745715b5146101935780637bcebb16146101b357806395d89b41146101c857600080fd5b80630955bff5146100c757806321a598de146100e95780633acee9bc1461011c578063400b64031461013c5780636749cf5b1461015c578063697b81081461017e575b600080fd5b3480156100d357600080fd5b506100e76100e2366004613f63565b610252565b005b3480156100f557600080fd5b50610109610104366004613e5f565b610347565b6040519081526020015b60405180910390f35b34801561012857600080fd5b506100e7610137366004613f63565b6106b2565b34801561014857600080fd5b506100e7610157366004613edf565b610794565b34801561016857600080fd5b506101716108a9565b60405161011391906142d0565b34801561018a57600080fd5b50610171610ccf565b34801561019f57600080fd5b506100e76101ae366004613f63565b611385565b3480156101bf57600080fd5b5061017161145a565b3480156101d457600080fd5b506101dd611876565b60405161011391906143f0565b3480156101f657600080fd5b50610171611904565b6100e761020d366004613fc4565b611fb1565b34801561021e57600080fd5b506100e761022d366004613f63565b612494565b34801561023e57600080fd5b506100e761024d366004613edf565b612569565b6002600054141561027e5760405162461bcd60e51b8152600401610275906144d6565b60405180910390fd5b600260005580518251146102a45760405162461bcd60e51b815260040161027590614480565b60008251116102c55760405162461bcd60e51b81526004016102759061440a565b60005b825181101561033d5761032b8382815181106102f457634e487b7160e01b600052603260045260246000fd5b6020026020010151600184848151811061031e57634e487b7160e01b600052603260045260246000fd5b6020026020010151612666565b80610335816145f8565b9150506102c8565b5050600160005550565b6001600160a01b03831660009081526004602090815260408083208054825181850281018501909352808352849384939291908301828280156103a957602002820191906000526020600020905b815481526020019060010190808311610395575b505050505090506000805b82518110156106a6576000600260008584815181106103e357634e487b7160e01b600052603260045260246000fd5b60200260200101518152602001908152602001600020805480602002602001604051908101604052809291908181526020016000905b8282101561060057838290600052602060002090600902016040518061018001604052908160008201548152602001600182018054610457906145bd565b80601f0160208091040260200160405190810160405280929190818152602001828054610483906145bd565b80156104d05780601f106104a5576101008083540402835291602001916104d0565b820191906000526020600020905b8154815290600101906020018083116104b357829003601f168201915b505050505081526020016002820180546104e9906145bd565b80601f0160208091040260200160405190810160405280929190818152602001828054610515906145bd565b80156105625780601f1061053757610100808354040283529160200191610562565b820191906000526020600020905b81548152906001019060200180831161054557829003601f168201915b5050509183525050600382015460208083019190915260048301546001600160a01b0390811660408401526005840154811660608401526006840154908116608084015260ff600160a01b8204811660a0850152600160a81b8204811660c0850152600160b01b909104811660e084015260078401546101008401526008909301549092161515610120909101529082526001929092019101610419565b50505050905060005b8151811015610691578888604051610622929190614205565b604051809103902082828151811061064a57634e487b7160e01b600052603260045260246000fd5b602002602001015160200151805190602001201415610671578561066d816145f8565b9650505b8361067b816145f8565b9450508080610689906145f8565b915050610609565b5050808061069e906145f8565b9150506103b4565b50919695505050505050565b600260005414156106d55760405162461bcd60e51b8152600401610275906144d6565b600260005580518251146106fb5760405162461bcd60e51b815260040161027590614480565b600082511161071c5760405162461bcd60e51b81526004016102759061440a565b60005b825181101561033d5761078283828151811061074b57634e487b7160e01b600052603260045260246000fd5b6020026020010151600184848151811061077557634e487b7160e01b600052603260045260246000fd5b6020026020010151612f90565b8061078c816145f8565b91505061071f565b600260005414156107b75760405162461bcd60e51b8152600401610275906144d6565b600260005580518351146107dd5760405162461bcd60e51b815260040161027590614480565b81518351146107fe5760405162461bcd60e51b815260040161027590614432565b60005b835181101561089e5761088c84828151811061082d57634e487b7160e01b600052603260045260246000fd5b602002602001015184838151811061085557634e487b7160e01b600052603260045260246000fd5b6020026020010151600185858151811061087f57634e487b7160e01b600052603260045260246000fd5b6020026020010151613513565b80610896816145f8565b915050610801565b505060016000555050565b336000908152600360209081526040808320805482518185028101850190935280835260609493849392919083018282801561090457602002820191906000526020600020905b8154815260200190600101908083116108f0575b5050505050905060005b8151811015610974576002600083838151811061093b57634e487b7160e01b600052603260045260246000fd5b6020026020010151815260200190815260200160002080549050836109609190614562565b92508061096c816145f8565b91505061090e565b5060008267ffffffffffffffff81111561099e57634e487b7160e01b600052604160045260246000fd5b6040519080825280602002602001820160405280156109d757816020015b6109c4613ba1565b8152602001906001900390816109bc5790505b5090506000805b8351811015610cc557600060026000868481518110610a0d57634e487b7160e01b600052603260045260246000fd5b60200260200101518152602001908152602001600020805480602002602001604051908101604052809291908181526020016000905b82821015610c2a57838290600052602060002090600902016040518061018001604052908160008201548152602001600182018054610a81906145bd565b80601f0160208091040260200160405190810160405280929190818152602001828054610aad906145bd565b8015610afa5780601f10610acf57610100808354040283529160200191610afa565b820191906000526020600020905b815481529060010190602001808311610add57829003601f168201915b50505050508152602001600282018054610b13906145bd565b80601f0160208091040260200160405190810160405280929190818152602001828054610b3f906145bd565b8015610b8c5780601f10610b6157610100808354040283529160200191610b8c565b820191906000526020600020905b815481529060010190602001808311610b6f57829003601f168201915b5050509183525050600382015460208083019190915260048301546001600160a01b0390811660408401526005840154811660608401526006840154908116608084015260ff600160a01b8204811660a0850152600160a81b8204811660c0850152600160b01b909104811660e084015260078401546101008401526008909301549092161515610120909101529082526001929092019101610a43565b50505050905060005b8151811015610cb057818181518110610c5c57634e487b7160e01b600052603260045260246000fd5b6020026020010151858581518110610c8457634e487b7160e01b600052603260045260246000fd5b60200260200101819052508380610c9a906145f8565b9450508080610ca8906145f8565b915050610c33565b50508080610cbd906145f8565b9150506109de565b5090949350505050565b3360009081526004602090815260408083208054825181850281018501909352808352606094938493929190830182828015610d2a57602002820191906000526020600020905b815481526020019060010190808311610d16575b505050505090506000805b8251811015610ffa57600060026000858481518110610d6457634e487b7160e01b600052603260045260246000fd5b60200260200101518152602001908152602001600020805480602002602001604051908101604052809291908181526020016000905b82821015610f8157838290600052602060002090600902016040518061018001604052908160008201548152602001600182018054610dd8906145bd565b80601f0160208091040260200160405190810160405280929190818152602001828054610e04906145bd565b8015610e515780601f10610e2657610100808354040283529160200191610e51565b820191906000526020600020905b815481529060010190602001808311610e3457829003601f168201915b50505050508152602001600282018054610e6a906145bd565b80601f0160208091040260200160405190810160405280929190818152602001828054610e96906145bd565b8015610ee35780601f10610eb857610100808354040283529160200191610ee3565b820191906000526020600020905b815481529060010190602001808311610ec657829003601f168201915b5050509183525050600382015460208083019190915260048301546001600160a01b0390811660408401526005840154811660608401526006840154908116608084015260ff600160a01b8204811660a0850152600160a81b8204811660c0850152600160b01b909104811660e084015260078401546101008401526008909301549092161515610120909101529082526001929092019101610d9a565b50505050905060005b8151811015610fe557818181518110610fb357634e487b7160e01b600052603260045260246000fd5b6020026020010151610160015115610fd35785610fcf816145f8565b9650505b80610fdd816145f8565b915050610f8a565b50508080610ff2906145f8565b915050610d35565b5060008367ffffffffffffffff81111561102457634e487b7160e01b600052604160045260246000fd5b60405190808252806020026020018201604052801561105d57816020015b61104a613ba1565b8152602001906001900390816110425790505b50905060005b835181101561137c5760006002600086848151811061109257634e487b7160e01b600052603260045260246000fd5b60200260200101518152602001908152602001600020805480602002602001604051908101604052809291908181526020016000905b828210156112af57838290600052602060002090600902016040518061018001604052908160008201548152602001600182018054611106906145bd565b80601f0160208091040260200160405190810160405280929190818152602001828054611132906145bd565b801561117f5780601f106111545761010080835404028352916020019161117f565b820191906000526020600020905b81548152906001019060200180831161116257829003601f168201915b50505050508152602001600282018054611198906145bd565b80601f01602080910402602001604051908101604052809291908181526020018280546111c4906145bd565b80156112115780601f106111e657610100808354040283529160200191611211565b820191906000526020600020905b8154815290600101906020018083116111f457829003601f168201915b5050509183525050600382015460208083019190915260048301546001600160a01b0390811660408401526005840154811660608401526006840154908116608084015260ff600160a01b8204811660a0850152600160a81b8204811660c0850152600160b01b909104811660e0840152600784015461010084015260089093015490921615156101209091015290825260019290920191016110c8565b50505050905060005b8151811015611367578181815181106112e157634e487b7160e01b600052603260045260246000fd5b60200260200101516101600151156113555781818151811061131357634e487b7160e01b600052603260045260246000fd5b602002602001015184868151811061133b57634e487b7160e01b600052603260045260246000fd5b60200260200101819052508480611351906145f8565b9550505b8061135f816145f8565b9150506112b8565b50508080611374906145f8565b915050611063565b50949350505050565b600260005414156113a85760405162461bcd60e51b8152600401610275906144d6565b600260005580518251146113ce5760405162461bcd60e51b815260040161027590614480565b60008251116113ef5760405162461bcd60e51b81526004016102759061440a565b60005b825181101561033d5761144883828151811061141e57634e487b7160e01b600052603260045260246000fd5b6020026020010151600284848151811061031e57634e487b7160e01b600052603260045260246000fd5b80611452816145f8565b9150506113f2565b33600090815260046020908152604080832080548251818502810185019093528083526060949384939291908301828280156114b557602002820191906000526020600020905b8154815260200190600101908083116114a1575b5050505050905060005b815181101561152557600260008383815181106114ec57634e487b7160e01b600052603260045260246000fd5b6020026020010151815260200190815260200160002080549050836115119190614562565b92508061151d816145f8565b9150506114bf565b5060008267ffffffffffffffff81111561154f57634e487b7160e01b600052604160045260246000fd5b60405190808252806020026020018201604052801561158857816020015b611575613ba1565b81526020019060019003908161156d5790505b5090506000805b8351811015610cc5576000600260008684815181106115be57634e487b7160e01b600052603260045260246000fd5b60200260200101518152602001908152602001600020805480602002602001604051908101604052809291908181526020016000905b828210156117db57838290600052602060002090600902016040518061018001604052908160008201548152602001600182018054611632906145bd565b80601f016020809104026020016040519081016040528092919081815260200182805461165e906145bd565b80156116ab5780601f10611680576101008083540402835291602001916116ab565b820191906000526020600020905b81548152906001019060200180831161168e57829003601f168201915b505050505081526020016002820180546116c4906145bd565b80601f01602080910402602001604051908101604052809291908181526020018280546116f0906145bd565b801561173d5780601f106117125761010080835404028352916020019161173d565b820191906000526020600020905b81548152906001019060200180831161172057829003601f168201915b5050509183525050600382015460208083019190915260048301546001600160a01b0390811660408401526005840154811660608401526006840154908116608084015260ff600160a01b8204811660a0850152600160a81b8204811660c0850152600160b01b909104811660e0840152600784015461010084015260089093015490921615156101209091015290825260019290920191016115f4565b50505050905060005b81518110156118615781818151811061180d57634e487b7160e01b600052603260045260246000fd5b602002602001015185858151811061183557634e487b7160e01b600052603260045260246000fd5b6020026020010181905250838061184b906145f8565b9450508080611859906145f8565b9150506117e4565b5050808061186e906145f8565b91505061158f565b60058054611883906145bd565b80601f01602080910402602001604051908101604052809291908181526020018280546118af906145bd565b80156118fc5780601f106118d1576101008083540402835291602001916118fc565b820191906000526020600020905b8154815290600101906020018083116118df57829003601f168201915b505050505081565b336000908152600360209081526040808320805482518185028101850190935280835260609493849392919083018282801561195f57602002820191906000526020600020905b81548152602001906001019080831161194b575b505050505090506000805b8251811015611c2f5760006002600085848151811061199957634e487b7160e01b600052603260045260246000fd5b60200260200101518152602001908152602001600020805480602002602001604051908101604052809291908181526020016000905b82821015611bb657838290600052602060002090600902016040518061018001604052908160008201548152602001600182018054611a0d906145bd565b80601f0160208091040260200160405190810160405280929190818152602001828054611a39906145bd565b8015611a865780601f10611a5b57610100808354040283529160200191611a86565b820191906000526020600020905b815481529060010190602001808311611a6957829003601f168201915b50505050508152602001600282018054611a9f906145bd565b80601f0160208091040260200160405190810160405280929190818152602001828054611acb906145bd565b8015611b185780601f10611aed57610100808354040283529160200191611b18565b820191906000526020600020905b815481529060010190602001808311611afb57829003601f168201915b5050509183525050600382015460208083019190915260048301546001600160a01b0390811660408401526005840154811660608401526006840154908116608084015260ff600160a01b8204811660a0850152600160a81b8204811660c0850152600160b01b909104811660e0840152600784015461010084015260089093015490921615156101209091015290825260019290920191016119cf565b50505050905060005b8151811015611c1a57818181518110611be857634e487b7160e01b600052603260045260246000fd5b6020026020010151610160015115611c085785611c04816145f8565b9650505b80611c12816145f8565b915050611bbf565b50508080611c27906145f8565b91505061196a565b5060008367ffffffffffffffff811115611c5957634e487b7160e01b600052604160045260246000fd5b604051908082528060200260200182016040528015611c9257816020015b611c7f613ba1565b815260200190600190039081611c775790505b50905060005b835181101561137c57600060026000868481518110611cc757634e487b7160e01b600052603260045260246000fd5b60200260200101518152602001908152602001600020805480602002602001604051908101604052809291908181526020016000905b82821015611ee457838290600052602060002090600902016040518061018001604052908160008201548152602001600182018054611d3b906145bd565b80601f0160208091040260200160405190810160405280929190818152602001828054611d67906145bd565b8015611db45780601f10611d8957610100808354040283529160200191611db4565b820191906000526020600020905b815481529060010190602001808311611d9757829003601f168201915b50505050508152602001600282018054611dcd906145bd565b80601f0160208091040260200160405190810160405280929190818152602001828054611df9906145bd565b8015611e465780601f10611e1b57610100808354040283529160200191611e46565b820191906000526020600020905b815481529060010190602001808311611e2957829003601f168201915b5050509183525050600382015460208083019190915260048301546001600160a01b0390811660408401526005840154811660608401526006840154908116608084015260ff600160a01b8204811660a0850152600160a81b8204811660c0850152600160b01b909104811660e084015260078401546101008401526008909301549092161515610120909101529082526001929092019101611cfd565b50505050905060005b8151811015611f9c57818181518110611f1657634e487b7160e01b600052603260045260246000fd5b6020026020010151610160015115611f8a57818181518110611f4857634e487b7160e01b600052603260045260246000fd5b6020026020010151848681518110611f7057634e487b7160e01b600052603260045260246000fd5b60200260200101819052508480611f86906145f8565b9550505b80611f94816145f8565b915050611eed565b50508080611fa9906145f8565b915050611c98565b60026000541415611fd45760405162461bcd60e51b8152600401610275906144d6565b600260005582518451146120435760405162461bcd60e51b815260206004820152603060248201527f416464726573736573206c656e677468206d75737420626520657175616c207460448201526f0de40c2dadeeadce8e640d8cadccee8d60831b6064820152608401610275565b348060005b865181101561244d5785818151811061207157634e487b7160e01b600052603260045260246000fd5b60200260200101518210156120de5760405162461bcd60e51b815260206004820152602d60248201527f546f74616c20616d6f756e74206973206c657373207468616e2063757272656e60448201526c1d081cd95b9908185b5bdd5b9d609a1b6064820152608401610275565b8581815181106120fe57634e487b7160e01b600052603260045260246000fd5b602002602001015182612111919061457a565b915061211b613ba1565b336080820152875188908390811061214357634e487b7160e01b600052603260045260246000fd5b60209081029190910101516001600160a01b0390811660a08301526001805490911660c0830152610100820152600060e0820181905261012082015286518790839081106121a157634e487b7160e01b600052603260045260246000fd5b60200260200101518160600181815250508481604001819052508582815181106121db57634e487b7160e01b600052603260045260246000fd5b602002602001015181602001819052504262278d006121fa9190614562565b6101408201526001610160820152612211816139dd565b8152875160009033908a908590811061223a57634e487b7160e01b600052603260045260246000fd5b60200260200101516040516020016122539291906140fa565b60408051601f19818403018152918152815160209283012060008181526002845291822080546001818101835591845292849020865160099094020192835585840151805192955086946122ad9392850192910190613c06565b50604082015180516122c9916002840191602090910190613c06565b506060820151600382015560808201516004820180546001600160a01b03199081166001600160a01b039384161790915560a084015160058401805490921690831617905560c083015160068301805460e0860151610100870151610120880151949095166001600160a81b031990921691909117600160a01b60ff928316021761ffff60a81b1916600160a81b9482169490940260ff60b01b191693909317600160b01b93909216929092021790556101408201516007820155610160909101516008909101805460ff1916911515919091179055600081815260026020526040902054600114156124385733600090815260036020908152604082208054600181018255908352908220018290558951600491908b90869081106123ff57634e487b7160e01b600052603260045260246000fd5b6020908102919091018101516001600160a01b031682528181019290925260400160009081208054600181018255908252919020018190555b50508080612445906145f8565b915050612048565b5060408051838152600160208201527fc05dae71ad6ebf2680862ebed51b27e8ea99855a67cfc24e7a3e0212c34e5e2f910160405180910390a15050600160005550505050565b600260005414156124b75760405162461bcd60e51b8152600401610275906144d6565b600260005580518251146124dd5760405162461bcd60e51b815260040161027590614480565b60008251116124fe5760405162461bcd60e51b81526004016102759061440a565b60005b825181101561033d5761255783828151811061252d57634e487b7160e01b600052603260045260246000fd5b6020026020010151600284848151811061077557634e487b7160e01b600052603260045260246000fd5b80612561816145f8565b915050612501565b6002600054141561258c5760405162461bcd60e51b8152600401610275906144d6565b600260005580518351146125b25760405162461bcd60e51b815260040161027590614480565b81518351146125d35760405162461bcd60e51b815260040161027590614432565b60005b835181101561089e5761265484828151811061260257634e487b7160e01b600052603260045260246000fd5b602002602001015184838151811061262a57634e487b7160e01b600052603260045260246000fd5b6020026020010151600285858151811061087f57634e487b7160e01b600052603260045260246000fd5b8061265e816145f8565b9150506125d6565b6000338460405160200161267b9291906140fa565b60405160208183030381529060405280519060200120905060005b600082815260026020526040902054811015612f895760008281526002602052604090208054849190839081106126dd57634e487b7160e01b600052603260045260246000fd5b9060005260206000209060090201600001541480156127425750600082815260026020526040902080548290811061272557634e487b7160e01b600052603260045260246000fd5b600091825260209091206008600990920201015460ff1615156001145b15612f7757600082815260026020526040902080543391908390811061277857634e487b7160e01b600052603260045260246000fd5b60009182526020909120600460099092020101546001600160a01b0316146127e25760405162461bcd60e51b815260206004820152601760248201527f596f7520617265206e6f742074686520636c69656e742e0000000000000000006044820152606401610275565b600082815260026020526040902080548591908390811061281357634e487b7160e01b600052603260045260246000fd5b906000526020600020906009020160060160146101000a81548160ff021916908360ff160217905550612a3f60026000848152602001908152602001600020828154811061287157634e487b7160e01b600052603260045260246000fd5b906000526020600020906009020160405180610180016040529081600082015481526020016001820180546128a5906145bd565b80601f01602080910402602001604051908101604052809291908181526020018280546128d1906145bd565b801561291e5780601f106128f35761010080835404028352916020019161291e565b820191906000526020600020905b81548152906001019060200180831161290157829003601f168201915b50505050508152602001600282018054612937906145bd565b80601f0160208091040260200160405190810160405280929190818152602001828054612963906145bd565b80156129b05780601f10612985576101008083540402835291602001916129b0565b820191906000526020600020905b81548152906001019060200180831161299357829003601f168201915b50505091835250506003820154602082015260048201546001600160a01b0390811660408301526005830154811660608301526006830154908116608083015260ff600160a01b8204811660a0840152600160a81b8204811660c0840152600160b01b909104811660e083015260078301546101008301526008909201549091161515610120909101526139dd565b6000838152600260205260409020805483908110612a6d57634e487b7160e01b600052603260045260246000fd5b9060005260206000209060090201600001819055506000612c87600260008581526020019081526020016000208381548110612ab957634e487b7160e01b600052603260045260246000fd5b90600052602060002090600902016040518061018001604052908160008201548152602001600182018054612aed906145bd565b80601f0160208091040260200160405190810160405280929190818152602001828054612b19906145bd565b8015612b665780601f10612b3b57610100808354040283529160200191612b66565b820191906000526020600020905b815481529060010190602001808311612b4957829003601f168201915b50505050508152602001600282018054612b7f906145bd565b80601f0160208091040260200160405190810160405280929190818152602001828054612bab906145bd565b8015612bf85780601f10612bcd57610100808354040283529160200191612bf8565b820191906000526020600020905b815481529060010190602001808311612bdb57829003601f168201915b50505091835250506003820154602082015260048201546001600160a01b0390811660408301526005830154811660608301526006830154908116608083015260ff600160a01b8204811660a0840152600160a81b8204811660c0840152600160b01b909104811660e08301526007830154610100830152600890920154909116151561012090910152613a54565b90508060ff1660011415612e0b576000838152600260205260408120805484908110612cc357634e487b7160e01b600052603260045260246000fd5b906000526020600020906009020160080160006101000a81548160ff021916908315150217905550612d2060026000858152602001908152602001600020838154811061287157634e487b7160e01b600052603260045260246000fd5b6000848152600260205260409020805484908110612d4e57634e487b7160e01b600052603260045260246000fd5b906000526020600020906009020160000181905550612e06600260008581526020019081526020016000208381548110612d9857634e487b7160e01b600052603260045260246000fd5b906000526020600020906009020160050160009054906101000a90046001600160a01b0316600260008681526020019081526020016000208481548110612def57634e487b7160e01b600052603260045260246000fd5b906000526020600020906009020160030154613aba565b612f71565b8060ff1660021415612f71576000838152600260205260408120805484908110612e4557634e487b7160e01b600052603260045260246000fd5b906000526020600020906009020160080160006101000a81548160ff021916908315150217905550612ea260026000858152602001908152602001600020838154811061287157634e487b7160e01b600052603260045260246000fd5b6000848152600260205260409020805484908110612ed057634e487b7160e01b600052603260045260246000fd5b906000526020600020906009020160000181905550612f71600260008581526020019081526020016000208381548110612f1a57634e487b7160e01b600052603260045260246000fd5b906000526020600020906009020160040160009054906101000a90046001600160a01b0316600260008681526020019081526020016000208481548110612def57634e487b7160e01b600052603260045260246000fd5b50612f89565b80612f81816145f8565b915050612696565b5050505050565b60008333604051602001612fa59291906140fa565b60405160208183030381529060405280519060200120905060005b600082815260026020526040902054811015612f8957600082815260026020526040902080548491908390811061300757634e487b7160e01b600052603260045260246000fd5b90600052602060002090600902016000015414801561306c5750600082815260026020526040902080548290811061304f57634e487b7160e01b600052603260045260246000fd5b600091825260209091206008600990920201015460ff1615156001145b156135015760008281526002602052604090208054339190839081106130a257634e487b7160e01b600052603260045260246000fd5b60009182526020909120600560099092020101546001600160a01b03161461310c5760405162461bcd60e51b815260206004820152601760248201527f596f7520617265206e6f74207468652073656c6c65722e0000000000000000006044820152606401610275565b600082815260026020526040902080548591908390811061313d57634e487b7160e01b600052603260045260246000fd5b906000526020600020906009020160060160156101000a81548160ff021916908360ff16021790555061319b60026000848152602001908152602001600020828154811061287157634e487b7160e01b600052603260045260246000fd5b60008381526002602052604090208054839081106131c957634e487b7160e01b600052603260045260246000fd5b9060005260206000209060090201600001819055506000613215600260008581526020019081526020016000208381548110612ab957634e487b7160e01b600052603260045260246000fd5b90508060ff1660011415613251576000838152600260205260408120805484908110612cc357634e487b7160e01b600052603260045260246000fd5b8060ff166002141561336057600083815260026020526040812080548490811061328b57634e487b7160e01b600052603260045260246000fd5b906000526020600020906009020160080160006101000a81548160ff0219169083151502179055506132e860026000858152602001908152602001600020838154811061287157634e487b7160e01b600052603260045260246000fd5b600084815260026020526040902080548490811061331657634e487b7160e01b600052603260045260246000fd5b906000526020600020906009020160000181905550612e06600260008581526020019081526020016000208381548110612f1a57634e487b7160e01b600052603260045260246000fd5b600083815260026020526040902080544291908490811061339157634e487b7160e01b600052603260045260246000fd5b9060005260206000209060090201600701541080156133f9575060008381526002602052604090208054839081106133d957634e487b7160e01b600052603260045260246000fd5b6000918252602090912060099091020160060154600160a01b900460ff16155b15612f7157600083815260026020526040812080548490811061342c57634e487b7160e01b600052603260045260246000fd5b906000526020600020906009020160080160006101000a81548160ff02191690831515021790555061348960026000858152602001908152602001600020838154811061287157634e487b7160e01b600052603260045260246000fd5b60008481526002602052604090208054849081106134b757634e487b7160e01b600052603260045260246000fd5b906000526020600020906009020160000181905550612f71600260008581526020019081526020016000208381548110612d9857634e487b7160e01b600052603260045260246000fd5b8061350b816145f8565b915050612fc0565b600084846040516020016135289291906140fa565b60405160208183030381529060405280519060200120905060005b6000828152600260205260409020548110156139d557600082815260026020526040902080548491908390811061358a57634e487b7160e01b600052603260045260246000fd5b9060005260206000209060090201600001541480156135ef575060008281526002602052604090208054829081106135d257634e487b7160e01b600052603260045260246000fd5b600091825260209091206008600990920201015460ff1615156001145b156139c357600082815260026020526040902080543391908390811061362557634e487b7160e01b600052603260045260246000fd5b60009182526020909120600660099092020101546001600160a01b03161461368f5760405162461bcd60e51b815260206004820152601b60248201527f596f7520617265206e6f74207468652061726269747261746f722e00000000006044820152606401610275565b60008281526002602052604090208054859190839081106136c057634e487b7160e01b600052603260045260246000fd5b906000526020600020906009020160060160166101000a81548160ff021916908360ff16021790555061371e60026000848152602001908152602001600020828154811061287157634e487b7160e01b600052603260045260246000fd5b600083815260026020526040902080548390811061374c57634e487b7160e01b600052603260045260246000fd5b9060005260206000209060090201600001819055506000613798600260008581526020019081526020016000208381548110612ab957634e487b7160e01b600052603260045260246000fd5b90508060ff16600114156138ae5760008381526002602052604081208054849081106137d457634e487b7160e01b600052603260045260246000fd5b906000526020600020906009020160080160006101000a81548160ff02191690831515021790555061383160026000858152602001908152602001600020838154811061287157634e487b7160e01b600052603260045260246000fd5b600084815260026020526040902080548490811061385f57634e487b7160e01b600052603260045260246000fd5b9060005260206000209060090201600001819055506138a9600260008581526020019081526020016000208381548110612d9857634e487b7160e01b600052603260045260246000fd5b6139bd565b8060ff16600214156139bd5760008381526002602052604081208054849081106138e857634e487b7160e01b600052603260045260246000fd5b906000526020600020906009020160080160006101000a81548160ff02191690831515021790555061394560026000858152602001908152602001600020838154811061287157634e487b7160e01b600052603260045260246000fd5b600084815260026020526040902080548490811061397357634e487b7160e01b600052603260045260246000fd5b9060005260206000209060090201600001819055506139bd600260008581526020019081526020016000208381548110612f1a57634e487b7160e01b600052603260045260246000fd5b506139d5565b806139cd816145f8565b915050613543565b505050505050565b60008082608001518360a001518460c001518561010001518660e00151876101200151886060015189602001518a604001518b61014001518c6101600151604051602001613a359b9a9998979695949392919061411c565b60408051601f1981840301815291905280516020909101209392505050565b600081610100015160ff168260e0015160ff161415613a75575060e0015190565b81610120015160ff168260e0015160ff161415613a94575060e0015190565b81610100015160ff1682610120015160ff161415613ab55750610120015190565b919050565b6001600160a01b038216613b055760405162461bcd60e51b81526020600482015260126024820152710416464726573732063616e277420626520360741b6044820152606401610275565b6000826001600160a01b03168260405160006040518083038185875af1925050503d8060008114613b52576040519150601f19603f3d011682016040523d82523d6000602084013e613b57565b606091505b50509050806005604051602001613b6e9190614215565b60405160208183030381529060405290613b9b5760405162461bcd60e51b815260040161027591906143f0565b50505050565b604080516101808101825260008082526060602083018190529282018390529181018290526080810182905260a0810182905260c0810182905260e0810182905261010081018290526101208101829052610140810182905261016081019190915290565b828054613c12906145bd565b90600052602060002090601f016020900481019282613c345760008555613c7a565b82601f10613c4d57805160ff1916838001178555613c7a565b82800160010185558215613c7a579182015b82811115613c7a578251825591602001919060010190613c5f565b50613c86929150613c8a565b5090565b5b80821115613c865760008155600101613c8b565b600082601f830112613caf578081fd5b81356020613cc4613cbf8361453e565b61450d565b80838252828201915082860187848660051b8901011115613ce3578586fd5b855b85811015613d0a578135613cf88161463f565b84529284019290840190600101613ce5565b5090979650505050505050565b600082601f830112613d27578081fd5b81356020613d37613cbf8361453e565b80838252828201915082860187848660051b8901011115613d56578586fd5b855b85811015613d0a57813584529284019290840190600101613d58565b600082601f830112613d84578081fd5b81356020613d94613cbf8361453e565b80838252828201915082860187848660051b8901011115613db3578586fd5b855b85811015613d0a57813567ffffffffffffffff811115613dd3578788fd5b613de18a87838c0101613df4565b8552509284019290840190600101613db5565b600082601f830112613e04578081fd5b813567ffffffffffffffff811115613e1e57613e1e614629565b613e31601f8201601f191660200161450d565b818152846020838601011115613e45578283fd5b816020850160208301379081016020019190915292915050565b600080600060408486031215613e73578283fd5b8335613e7e8161463f565b9250602084013567ffffffffffffffff80821115613e9a578384fd5b818601915086601f830112613ead578384fd5b813581811115613ebb578485fd5b876020828501011115613ecc578485fd5b6020830194508093505050509250925092565b600080600060608486031215613ef3578283fd5b833567ffffffffffffffff80821115613f0a578485fd5b613f1687838801613c9f565b94506020860135915080821115613f2b578384fd5b613f3787838801613c9f565b93506040860135915080821115613f4c578283fd5b50613f5986828701613d17565b9150509250925092565b60008060408385031215613f75578182fd5b823567ffffffffffffffff80821115613f8c578384fd5b613f9886838701613c9f565b93506020850135915080821115613fad578283fd5b50613fba85828601613d17565b9150509250929050565b60008060008060808587031215613fd9578081fd5b843567ffffffffffffffff80821115613ff0578283fd5b818701915087601f830112614003578283fd5b81356020614013613cbf8361453e565b8083825282820191508286018c848660051b8901011115614032578788fd5b8796505b8487101561405d5780356140498161463f565b835260019690960195918301918301614036565b5098505088013592505080821115614073578283fd5b61407f88838901613d17565b94506040870135915080821115614094578283fd5b6140a088838901613d74565b935060608701359150808211156140b5578283fd5b506140c287828801613df4565b91505092959194509250565b600081518084526140e6816020860160208601614591565b601f01601f19169290920160200192915050565b6001600160601b0319606093841b811682529190921b16601482015260280190565b6bffffffffffffffffffffffff198c60601b16815261414a601482018c60601b6001600160601b0319169052565b614163602882018b60601b6001600160601b0319169052565b61417c603c82018a60f81b6001600160f81b0319169052565b614195603d82018960f81b6001600160f81b0319169052565b6141ae603e82018860f81b6001600160f81b0319169052565b85603f820152600085516141c981605f850160208a01614591565b8551908301906141e081605f840160208a01614591565b01605f8101949094525050151560f81b607f8201526080019998505050505050505050565b8183823760009101908152919050565b6e02330b4b632b2103a379039b2b7321608d1b81526000600f81845483600182811c91508083168061424857607f831692505b602080841082141561426857634e487b7160e01b88526022600452602488fd5b81801561427c5760018114614291576142c1565b60ff1986168a890152848a01880196506142c1565b60008b815260209020895b868110156142b75781548c82018b015290850190830161429c565b505087858b010196505b50949998505050505050505050565b60006020808301818452808551808352604092508286019150828160051b870101848801865b838110156143e257603f1989840301855281516101808151855288820151818a870152614325828701826140ce565b915050878201518582038987015261433d82826140ce565b9150506060808301518187015250608080830151614365828801826001600160a01b03169052565b505060a0828101516001600160a01b039081169187019190915260c0808401519091169086015260e08083015160ff908116918701919091526101008084015182169087015261012080840151909116908601526101408083015190860152610160918201511515919094015293860193908601906001016142f6565b509098975050505050505050565b60208152600061440360208301846140ce565b9392505050565b6020808252600e908201526d2737903830b930b6b2ba32b9399760911b604082015260600190565b6020808252602e908201527f436c69656e7473206c656e677468206d75737420626520657175616c20746f2060408201526d0e6cad8d8cae4e640d8cadccee8d60931b606082015260800190565b60208082526036908201527f416464726573736573206c656e677468206d75737420626520657175616c2074604082015275379037b93232b9103430b9b432b9903632b733ba341760511b606082015260800190565b6020808252601f908201527f5265656e7472616e637947756172643a207265656e7472616e742063616c6c00604082015260600190565b604051601f8201601f1916810167ffffffffffffffff8111828210171561453657614536614629565b604052919050565b600067ffffffffffffffff82111561455857614558614629565b5060051b60200190565b6000821982111561457557614575614613565b500190565b60008282101561458c5761458c614613565b500390565b60005b838110156145ac578181015183820152602001614594565b83811115613b9b5750506000910152565b600181811c908216806145d157607f821691505b602082108114156145f257634e487b7160e01b600052602260045260246000fd5b50919050565b600060001982141561460c5761460c614613565b5060010190565b634e487b7160e01b600052601160045260246000fd5b634e487b7160e01b600052604160045260246000fd5b6001600160a01b038116811461465457600080fd5b5056fea2646970667358221220370a67bd4be9beaeb9c13e45752fd5e7265cd3c4fb857bf4fd8b065edf61a5a464736f6c63430008040033",
  "linkReferences": {},
  "deployedLinkReferences": {}
}