{
  "_format": "hh-sol-artifact-1",
  "contractName": "ShopsBulkTransactions",
  "sourceName": "contracts/ShopsBulkTransactions.sol",
  "abi": [
    {
      "inputs": [
        {
          "internalType": "string",
          "name": "_symbol",
          "type": "string"
        }
      ],
      "stateMutability": "nonpayable",
      "type": "constructor"
    },
    {
      "anonymous": false,
      "inputs": [
        {
          "indexed": false,
          "internalType": "uint256",
          "name": "_amount",
          "type": "uint256"
        },
        {
          "indexed": false,
          "internalType": "bool",
          "name": "_status",
          "type": "bool"
        }
      ],
      "name": "MultiTransfer",
      "type": "event"
    },
    {
      "inputs": [
        {
          "internalType": "address",
          "name": "seller",
          "type": "address"
        },
        {
          "internalType": "string",
          "name": "productHash",
          "type": "string"
        }
      ],
      "name": "checkProductOrders",
      "outputs": [
        {
          "internalType": "uint256",
          "name": "",
          "type": "uint256"
        }
      ],
      "stateMutability": "view",
      "type": "function"
    },
    {
      "inputs": [],
      "name": "clientCheckOrders",
      "outputs": [
        {
          "components": [
            {
              "internalType": "string",
              "name": "product_hash",
              "type": "string"
            },
            {
              "internalType": "uint256",
              "name": "value",
              "type": "uint256"
            },
            {
              "internalType": "address",
              "name": "client",
              "type": "address"
            },
            {
              "internalType": "address",
              "name": "sellar",
              "type": "address"
            },
            {
              "internalType": "uint8",
              "name": "clientDecision",
              "type": "uint8"
            },
            {
              "internalType": "uint8",
              "name": "sellerDecision",
              "type": "uint8"
            },
            {
              "internalType": "bool",
              "name": "active",
              "type": "bool"
            }
          ],
          "internalType": "struct ShopsBulkTransactions.Order[]",
          "name": "",
          "type": "tuple[]"
        }
      ],
      "stateMutability": "view",
      "type": "function"
    },
    {
      "inputs": [
        {
          "internalType": "address[]",
          "name": "_sellers",
          "type": "address[]"
        },
        {
          "internalType": "uint256[]",
          "name": "_values",
          "type": "uint256[]"
        },
        {
          "internalType": "string[]",
          "name": "_productHashes",
          "type": "string[]"
        }
      ],
      "name": "clientProccessTransaction",
      "outputs": [],
      "stateMutability": "nonpayable",
      "type": "function"
    },
    {
      "inputs": [
        {
          "internalType": "address[]",
          "name": "_sellers",
          "type": "address[]"
        },
        {
          "internalType": "uint256[]",
          "name": "_values",
          "type": "uint256[]"
        },
        {
          "internalType": "string[]",
          "name": "_productHashes",
          "type": "string[]"
        }
      ],
      "name": "clientRevertTransaction",
      "outputs": [],
      "stateMutability": "nonpayable",
      "type": "function"
    },
    {
      "inputs": [
        {
          "internalType": "address payable[]",
          "name": "_addresses",
          "type": "address[]"
        },
        {
          "internalType": "uint256[]",
          "name": "_amounts",
          "type": "uint256[]"
        },
        {
          "internalType": "string[]",
          "name": "_productHashes",
          "type": "string[]"
        }
      ],
      "name": "multiTransfer",
      "outputs": [],
      "stateMutability": "payable",
      "type": "function"
    },
    {
      "inputs": [],
      "name": "sellerCheckOrders",
      "outputs": [
        {
          "components": [
            {
              "internalType": "string",
              "name": "product_hash",
              "type": "string"
            },
            {
              "internalType": "uint256",
              "name": "value",
              "type": "uint256"
            },
            {
              "internalType": "address",
              "name": "client",
              "type": "address"
            },
            {
              "internalType": "address",
              "name": "sellar",
              "type": "address"
            },
            {
              "internalType": "uint8",
              "name": "clientDecision",
              "type": "uint8"
            },
            {
              "internalType": "uint8",
              "name": "sellerDecision",
              "type": "uint8"
            },
            {
              "internalType": "bool",
              "name": "active",
              "type": "bool"
            }
          ],
          "internalType": "struct ShopsBulkTransactions.Order[]",
          "name": "",
          "type": "tuple[]"
        }
      ],
      "stateMutability": "view",
      "type": "function"
    },
    {
      "inputs": [
        {
          "internalType": "address[]",
          "name": "_clients",
          "type": "address[]"
        },
        {
          "internalType": "uint256[]",
          "name": "_values",
          "type": "uint256[]"
        },
        {
          "internalType": "string[]",
          "name": "_productHashes",
          "type": "string[]"
        }
      ],
      "name": "sellerProccessTransaction",
      "outputs": [],
      "stateMutability": "nonpayable",
      "type": "function"
    },
    {
      "inputs": [
        {
          "internalType": "address[]",
          "name": "_clients",
          "type": "address[]"
        },
        {
          "internalType": "uint256[]",
          "name": "_values",
          "type": "uint256[]"
        },
        {
          "internalType": "string[]",
          "name": "_productHashes",
          "type": "string[]"
        }
      ],
      "name": "sellerRevertTransaction",
      "outputs": [],
      "stateMutability": "nonpayable",
      "type": "function"
    },
    {
      "inputs": [],
      "name": "symbol",
      "outputs": [
        {
          "internalType": "string",
          "name": "",
          "type": "string"
        }
      ],
      "stateMutability": "view",
      "type": "function"
    }
  ],
  "bytecode": "0x60806040523480156200001157600080fd5b5060405162002883380380620028838339810160408190526200003491620000fc565b600160005580516200004e90600490602084019062000056565b505062000225565b8280546200006490620001d2565b90600052602060002090601f016020900481019282620000885760008555620000d3565b82601f10620000a357805160ff1916838001178555620000d3565b82800160010185558215620000d3579182015b82811115620000d3578251825591602001919060010190620000b6565b50620000e1929150620000e5565b5090565b5b80821115620000e15760008155600101620000e6565b600060208083850312156200010f578182fd5b82516001600160401b038082111562000126578384fd5b818501915085601f8301126200013a578384fd5b8151818111156200014f576200014f6200020f565b604051601f8201601f19908116603f011681019083821181831017156200017a576200017a6200020f565b81604052828152888684870101111562000192578687fd5b8693505b82841015620001b5578484018601518185018701529285019262000196565b82841115620001c657868684830101525b98975050505050505050565b600181811c90821680620001e757607f821691505b602082108114156200020957634e487b7160e01b600052602260045260246000fd5b50919050565b634e487b7160e01b600052604160045260246000fd5b61264e80620002356000396000f3fe6080604052600436106100865760003560e01c80637bcebb16116100595780637bcebb161461012257806395d89b4114610137578063d760a5a414610159578063dff68ed31461016c578063fff357221461018c57600080fd5b80631bd0ecf81461008b57806321a598de146100ad5780632c7f173e146100e05780636749cf5b14610100575b600080fd5b34801561009757600080fd5b506100ab6100a636600461207a565b6101ac565b005b3480156100b957600080fd5b506100cd6100c8366004611ffa565b6102ca565b6040519081526020015b60405180910390f35b3480156100ec57600080fd5b506100ab6100fb36600461207a565b610574565b34801561010c57600080fd5b50610115610671565b6040516100d79190612348565b34801561012e57600080fd5b506101156109d6565b34801561014357600080fd5b5061014c610d31565b6040516100d79190612404565b6100ab610167366004612160565b610dbf565b34801561017857600080fd5b506100ab61018736600461207a565b6111ff565b34801561019857600080fd5b506100ab6101a736600461207a565b611309565b600260005414156101d85760405162461bcd60e51b81526004016101cf906124c3565b60405180910390fd5b600260005581518351146101fe5760405162461bcd60e51b81526004016101cf90612474565b805183511461021f5760405162461bcd60e51b81526004016101cf90612417565b60005b83518110156102bf576102ad84828151811061024e57634e487b7160e01b600052603260045260246000fd5b602002602001015184838151811061027657634e487b7160e01b600052603260045260246000fd5b602002602001015160028585815181106102a057634e487b7160e01b600052603260045260246000fd5b6020026020010151611406565b806102b7816125b9565b915050610222565b505060016000555050565b6001600160a01b038316600090815260036020908152604080832080548251818502810185019093528083528493849392919083018282801561032c57602002820191906000526020600020905b815481526020019060010190808311610318575b505050505090506000805b82518110156105685760006001600085848151811061036657634e487b7160e01b600052603260045260246000fd5b60200260200101518152602001908152602001600020805480602002602001604051908101604052809291908181526020016000905b828210156104c257838290600052602060002090600402016040518060e00160405290816000820180546103cf9061257e565b80601f01602080910402602001604051908101604052809291908181526020018280546103fb9061257e565b80156104485780601f1061041d57610100808354040283529160200191610448565b820191906000526020600020905b81548152906001019060200180831161042b57829003601f168201915b505050918352505060018281015460208084019190915260028401546001600160a01b039081166040850152600390940154938416606084015260ff600160a01b850481166080850152600160a81b8504811660a0850152600160b01b909404909316151560c0909201919091529183529201910161039c565b50505050905060005b81518110156105535788886040516104e4929190612301565b604051809103902082848151811061050c57634e487b7160e01b600052603260045260246000fd5b602002602001015160000151805190602001201415610533578561052f816125b9565b9650505b8361053d816125b9565b945050808061054b906125b9565b9150506104cb565b50508080610560906125b9565b915050610337565b50919695505050505050565b600260005414156105975760405162461bcd60e51b81526004016101cf906124c3565b600260005581518351146105bd5760405162461bcd60e51b81526004016101cf90612474565b80518351146105de5760405162461bcd60e51b81526004016101cf90612417565b60005b83518110156102bf5761065f84828151811061060d57634e487b7160e01b600052603260045260246000fd5b602002602001015184838151811061063557634e487b7160e01b600052603260045260246000fd5b602002602001015160018585815181106102a057634e487b7160e01b600052603260045260246000fd5b80610669816125b9565b9150506105e1565b33600090815260026020908152604080832080548251818502810185019093528083526060949384939291908301828280156106cc57602002820191906000526020600020905b8154815260200190600101908083116106b8575b5050505050905060005b815181101561073c576001600083838151811061070357634e487b7160e01b600052603260045260246000fd5b602002602001015181526020019081526020016000208054905083610728919061254f565b925080610734816125b9565b9150506106d6565b5060008267ffffffffffffffff81111561076657634e487b7160e01b600052604160045260246000fd5b60405190808252806020026020018201604052801561079f57816020015b61078c611dd5565b8152602001906001900390816107845790505b5090506000805b83518110156109cc576000600160008684815181106107d557634e487b7160e01b600052603260045260246000fd5b60200260200101518152602001908152602001600020805480602002602001604051908101604052809291908181526020016000905b8282101561093157838290600052602060002090600402016040518060e001604052908160008201805461083e9061257e565b80601f016020809104026020016040519081016040528092919081815260200182805461086a9061257e565b80156108b75780601f1061088c576101008083540402835291602001916108b7565b820191906000526020600020905b81548152906001019060200180831161089a57829003601f168201915b505050918352505060018281015460208084019190915260028401546001600160a01b039081166040850152600390940154938416606084015260ff600160a01b850481166080850152600160a81b8504811660a0850152600160b01b909404909316151560c0909201919091529183529201910161080b565b50505050905060005b81518110156109b75781818151811061096357634e487b7160e01b600052603260045260246000fd5b602002602001015185858151811061098b57634e487b7160e01b600052603260045260246000fd5b602002602001018190525083806109a1906125b9565b94505080806109af906125b9565b91505061093a565b505080806109c4906125b9565b9150506107a6565b5090949350505050565b3360009081526003602090815260408083208054825181850281018501909352808352606094938493929190830182828015610a3157602002820191906000526020600020905b815481526020019060010190808311610a1d575b5050505050905060005b8151811015610aa15760016000838381518110610a6857634e487b7160e01b600052603260045260246000fd5b602002602001015181526020019081526020016000208054905083610a8d919061254f565b925080610a99816125b9565b915050610a3b565b5060008267ffffffffffffffff811115610acb57634e487b7160e01b600052604160045260246000fd5b604051908082528060200260200182016040528015610b0457816020015b610af1611dd5565b815260200190600190039081610ae95790505b5090506000805b83518110156109cc57600060016000868481518110610b3a57634e487b7160e01b600052603260045260246000fd5b60200260200101518152602001908152602001600020805480602002602001604051908101604052809291908181526020016000905b82821015610c9657838290600052602060002090600402016040518060e0016040529081600082018054610ba39061257e565b80601f0160208091040260200160405190810160405280929190818152602001828054610bcf9061257e565b8015610c1c5780601f10610bf157610100808354040283529160200191610c1c565b820191906000526020600020905b815481529060010190602001808311610bff57829003601f168201915b505050918352505060018281015460208084019190915260028401546001600160a01b039081166040850152600390940154938416606084015260ff600160a01b850481166080850152600160a81b8504811660a0850152600160b01b909404909316151560c09092019190915291835292019101610b70565b50505050905060005b8151811015610d1c57818181518110610cc857634e487b7160e01b600052603260045260246000fd5b6020026020010151858581518110610cf057634e487b7160e01b600052603260045260246000fd5b60200260200101819052508380610d06906125b9565b9450508080610d14906125b9565b915050610c9f565b50508080610d29906125b9565b915050610b0b565b60048054610d3e9061257e565b80601f0160208091040260200160405190810160405280929190818152602001828054610d6a9061257e565b8015610db75780601f10610d8c57610100808354040283529160200191610db7565b820191906000526020600020905b815481529060010190602001808311610d9a57829003601f168201915b505050505081565b60026000541415610de25760405162461bcd60e51b81526004016101cf906124c3565b60026000558151835114610e515760405162461bcd60e51b815260206004820152603060248201527f416464726573736573206c656e677468206d75737420626520657175616c207460448201526f0de40c2dadeeadce8e640d8cadccee8d60831b60648201526084016101cf565b348060005b85518110156111b957848181518110610e7f57634e487b7160e01b600052603260045260246000fd5b6020026020010151821015610eec5760405162461bcd60e51b815260206004820152602d60248201527f546f74616c20616d6f756e74206973206c657373207468616e2063757272656e60448201526c1d081cd95b9908185b5bdd5b9d609a1b60648201526084016101cf565b848181518110610f0c57634e487b7160e01b600052603260045260246000fd5b602002602001015182610f1f9190612567565b9150610f29611dd5565b3360408201528651879083908110610f5157634e487b7160e01b600052603260045260246000fd5b60209081029190910101516001600160a01b03166060820152600160a0820152600060808201528551869083908110610f9a57634e487b7160e01b600052603260045260246000fd5b6020026020010151816020018181525050848281518110610fcb57634e487b7160e01b600052603260045260246000fd5b60209081029190910101518152600160c08201528651600090339089908590811061100657634e487b7160e01b600052603260045260246000fd5b602002602001015160405160200161101f9291906122da565b60408051601f1981840301815291815281516020928301206000818152600180855292812080549384018155815283902085518051929550869460049094029091019261107192849290910190611e11565b506020828101516001838101919091556040808501516002850180546001600160a01b0319166001600160a01b03928316179055606086015160039095018054608088015160a089015160c090990151979093166001600160a81b031990911617600160a01b60ff938416021761ffff60a81b1916600160a81b929097169190910260ff60b01b191695909517600160b01b9415159490940293909317909355600084815290839052205414156111a45733600090815260026020908152604082208054600181018255908352908220018290558851600391908a908690811061116b57634e487b7160e01b600052603260045260246000fd5b6020908102919091018101516001600160a01b031682528181019290925260400160009081208054600181018255908252919020018190555b505080806111b1906125b9565b915050610e56565b5060408051838152600160208201527fc05dae71ad6ebf2680862ebed51b27e8ea99855a67cfc24e7a3e0212c34e5e2f910160405180910390a150506001600055505050565b600260005414156112225760405162461bcd60e51b81526004016101cf906124c3565b600260005581518351146112485760405162461bcd60e51b81526004016101cf90612474565b80518351146112695760405162461bcd60e51b81526004016101cf90612417565b60005b83518110156102bf576112f784828151811061129857634e487b7160e01b600052603260045260246000fd5b60200260200101518483815181106112c057634e487b7160e01b600052603260045260246000fd5b602002602001015160018585815181106112ea57634e487b7160e01b600052603260045260246000fd5b60200260200101516119da565b80611301816125b9565b91505061126c565b6002600054141561132c5760405162461bcd60e51b81526004016101cf906124c3565b600260005581518351146113525760405162461bcd60e51b81526004016101cf90612474565b80518351146113735760405162461bcd60e51b81526004016101cf90612417565b60005b83518110156102bf576113f48482815181106113a257634e487b7160e01b600052603260045260246000fd5b60200260200101518483815181106113ca57634e487b7160e01b600052603260045260246000fd5b602002602001015160028585815181106112ea57634e487b7160e01b600052603260045260246000fd5b806113fe816125b9565b915050611376565b600260005414156114295760405162461bcd60e51b81526004016101cf906124c3565b6002600090815560405161144390339087906020016122da565b60405160208183030381529060405280519060200120905060005b6000828152600160205260409020548110156119cd5782805190602001206001600084815260200190815260200160002082815481106114ae57634e487b7160e01b600052603260045260246000fd5b90600052602060002090600402016000016040516114cc9190612311565b60405180910390201480156115215750600082815260016020526040902080548691908390811061150d57634e487b7160e01b600052603260045260246000fd5b906000526020600020906004020160010154145b801561157d5750600082815260016020526040902080548290811061155657634e487b7160e01b600052603260045260246000fd5b906000526020600020906004020160030160169054906101000a900460ff16151560011515145b156119bb5760008281526001602052604090208054339190839081106115b357634e487b7160e01b600052603260045260246000fd5b60009182526020909120600260049092020101546001600160a01b03161461161d5760405162461bcd60e51b815260206004820152601760248201527f596f7520617265206e6f742074686520636c69656e742e00000000000000000060448201526064016101cf565b600082815260016020526040902080548591908390811061164e57634e487b7160e01b600052603260045260246000fd5b906000526020600020906004020160030160146101000a81548160ff021916908360ff16021790555060006117bb6001600085815260200190815260200160002083815481106116ae57634e487b7160e01b600052603260045260246000fd5b90600052602060002090600402016040518060e00160405290816000820180546116d79061257e565b80601f01602080910402602001604051908101604052809291908181526020018280546117039061257e565b80156117505780601f1061172557610100808354040283529160200191611750565b820191906000526020600020905b81548152906001019060200180831161173357829003601f168201915b50505091835250506001820154602082015260028201546001600160a01b039081166040830152600390920154918216606082015260ff600160a01b830481166080830152600160a81b8304811660a0830152600160b01b909204909116151560c090910152611c94565b90508060ff16600114156118c75760008381526001602052604081208054849081106117f757634e487b7160e01b600052603260045260246000fd5b906000526020600020906004020160030160166101000a81548160ff0219169083151502179055506118c260016000858152602001908152602001600020838154811061185457634e487b7160e01b600052603260045260246000fd5b906000526020600020906004020160030160009054906101000a90046001600160a01b03166001600086815260200190815260200160002084815481106118ab57634e487b7160e01b600052603260045260246000fd5b906000526020600020906004020160010154611cee565b6119b5565b8060ff16600214156119b557600083815260016020526040812080548490811061190157634e487b7160e01b600052603260045260246000fd5b906000526020600020906004020160030160166101000a81548160ff0219169083151502179055506119b560016000858152602001908152602001600020838154811061195e57634e487b7160e01b600052603260045260246000fd5b906000526020600020906004020160020160009054906101000a90046001600160a01b03166001600086815260200190815260200160002084815481106118ab57634e487b7160e01b600052603260045260246000fd5b506119cd565b806119c5816125b9565b91505061145e565b5050600160005550505050565b600260005414156119fd5760405162461bcd60e51b81526004016101cf906124c3565b60026000908155604051611a1790869033906020016122da565b60405160208183030381529060405280519060200120905060005b6000828152600160205260409020548110156119cd578280519060200120600160008481526020019081526020016000208281548110611a8257634e487b7160e01b600052603260045260246000fd5b9060005260206000209060040201600001604051611aa09190612311565b6040518091039020148015611af557506000828152600160205260409020805486919083908110611ae157634e487b7160e01b600052603260045260246000fd5b906000526020600020906004020160010154145b8015611b5157506000828152600160205260409020805482908110611b2a57634e487b7160e01b600052603260045260246000fd5b906000526020600020906004020160030160169054906101000a900460ff16151560011515145b15611c82576000828152600160205260409020805433919083908110611b8757634e487b7160e01b600052603260045260246000fd5b60009182526020909120600260049092020101546001600160a01b031614611bf15760405162461bcd60e51b815260206004820152601760248201527f596f7520617265206e6f74207468652073656c6c65722e00000000000000000060448201526064016101cf565b6000828152600160205260409020805485919083908110611c2257634e487b7160e01b600052603260045260246000fd5b906000526020600020906004020160030160156101000a81548160ff021916908360ff16021790555060006117bb6001600085815260200190815260200160002083815481106116ae57634e487b7160e01b600052603260045260246000fd5b80611c8c816125b9565b915050611a32565b600060026000541415611cb95760405162461bcd60e51b81526004016101cf906124c3565b600260005560a0820151608083015160ff90811691161415611ce057506080810151611ce4565b5060005b6001600055919050565b6001600160a01b038216611d395760405162461bcd60e51b81526020600482015260126024820152710416464726573732063616e277420626520360741b60448201526064016101cf565b6000826001600160a01b03168260405160006040518083038185875af1925050503d8060008114611d86576040519150601f19603f3d011682016040523d82523d6000602084013e611d8b565b606091505b50509050806004604051602001611da29190612324565b60405160208183030381529060405290611dcf5760405162461bcd60e51b81526004016101cf9190612404565b50505050565b6040805160e081018252606080825260006020830181905292820183905281018290526080810182905260a0810182905260c081019190915290565b828054611e1d9061257e565b90600052602060002090601f016020900481019282611e3f5760008555611e85565b82601f10611e5857805160ff1916838001178555611e85565b82800160010185558215611e85579182015b82811115611e85578251825591602001919060010190611e6a565b50611e91929150611e95565b5090565b5b80821115611e915760008155600101611e96565b6000601f8381840112611ebb578182fd5b82356020611ed0611ecb8361252b565b6124fa565b80838252828201915082870188848660051b8a01011115611eef578687fd5b865b85811015611f8257813567ffffffffffffffff80821115611f1057898afd5b818b0191508b603f830112611f2357898afd5b86820135604082821115611f3957611f396125ea565b611f4a828c01601f19168a016124fa565b92508183528d81838601011115611f5f578b8cfd5b818185018a85013750810187018a90528552509284019290840190600101611ef1565b509098975050505050505050565b600082601f830112611fa0578081fd5b81356020611fb0611ecb8361252b565b80838252828201915082860187848660051b8901011115611fcf578586fd5b855b85811015611fed57813584529284019290840190600101611fd1565b5090979650505050505050565b60008060006040848603121561200e578283fd5b833561201981612600565b9250602084013567ffffffffffffffff80821115612035578384fd5b818601915086601f830112612048578384fd5b813581811115612056578485fd5b876020828501011115612067578485fd5b6020830194508093505050509250925092565b60008060006060848603121561208e578283fd5b833567ffffffffffffffff808211156120a5578485fd5b818601915086601f8301126120b8578485fd5b813560206120c8611ecb8361252b565b8083825282820191508286018b848660051b89010111156120e757898afd5b8996505b848710156121125780356120fe81612600565b8352600196909601959183019183016120eb565b5097505087013592505080821115612128578384fd5b61213487838801611f90565b93506040860135915080821115612149578283fd5b5061215686828701611eaa565b9150509250925092565b600080600060608486031215612174578283fd5b833567ffffffffffffffff8082111561218b578485fd5b818601915086601f83011261219e578485fd5b813560206121ae611ecb8361252b565b8083825282820191508286018b848660051b89010111156121cd57898afd5b8996505b848710156121125780356121e481612600565b8352600196909601959183019183016121d1565b8054600090600181811c908083168061221257607f831692505b602080841082141561223257634e487b7160e01b86526022600452602486fd5b818015612246576001811461225757612283565b60ff19861689528489019650612283565b876000528160002060005b8681101561227b5781548b820152908501908301612262565b505084890196505b50505050505092915050565b60008151808452815b818110156122b457602081850181015186830182015201612298565b818111156122c55782602083870101525b50601f01601f19169290920160200192915050565b6bffffffffffffffffffffffff19606093841b811682529190921b16601482015260280190565b8183823760009101908152919050565b600061231d82846121f8565b9392505050565b6e02330b4b632b2103a379039b2b7321608d1b8152600061231d600f8301846121f8565b60006020808301818452808551808352604092508286019150828160051b870101848801865b83811015611f8257603f19898403018552815160e081518186526123948287018261228f565b838b0151878c0152898401516001600160a01b039081168b8901526060808601519091169088015260808085015160ff169088015260a08085015191935091506123e28288018260ff169052565b505060c09182015115159490910193909352938601939086019060010161236e565b60208152600061231d602083018461228f565b60208082526037908201527f416464726573736573206c656e677468206d75737420626520657175616c207460408201527f6f2070726f6475637420686173686573206c656e677468000000000000000000606082015260800190565b6020808252602f908201527f416464726573736573206c656e677468206d75737420626520657175616c207460408201526e0de40ecc2d8eacae640d8cadccee8d608b1b606082015260800190565b6020808252601f908201527f5265656e7472616e637947756172643a207265656e7472616e742063616c6c00604082015260600190565b604051601f8201601f1916810167ffffffffffffffff81118282101715612523576125236125ea565b604052919050565b600067ffffffffffffffff821115612545576125456125ea565b5060051b60200190565b60008219821115612562576125626125d4565b500190565b600082821015612579576125796125d4565b500390565b600181811c9082168061259257607f821691505b602082108114156125b357634e487b7160e01b600052602260045260246000fd5b50919050565b60006000198214156125cd576125cd6125d4565b5060010190565b634e487b7160e01b600052601160045260246000fd5b634e487b7160e01b600052604160045260246000fd5b6001600160a01b038116811461261557600080fd5b5056fea264697066735822122053d72f45f28778c455703aba8c9a75d7a58381362fda3115386e94e636864ed264736f6c63430008040033",
  "linkReferences": {},
  "deployedLinkReferences": {}
}