{
  "_format": "hh-sol-artifact-1",
  "contractName": "ShopsBulkTransactions",
  "sourceName": "contracts/ShopsBulkTransactions.sol",
  "abi": [
    {
      "inputs": [
        {
          "internalType": "string",
          "name": "_symbol",
          "type": "string"
        }
      ],
      "stateMutability": "nonpayable",
      "type": "constructor"
    },
    {
      "anonymous": false,
      "inputs": [
        {
          "indexed": false,
          "internalType": "uint256",
          "name": "_amount",
          "type": "uint256"
        },
        {
          "indexed": false,
          "internalType": "bool",
          "name": "_status",
          "type": "bool"
        }
      ],
      "name": "MultiTransfer",
      "type": "event"
    },
    {
      "inputs": [
        {
          "internalType": "address",
          "name": "seller",
          "type": "address"
        },
        {
          "internalType": "string",
          "name": "productHash",
          "type": "string"
        }
      ],
      "name": "checkProductOrders",
      "outputs": [
        {
          "internalType": "uint256",
          "name": "",
          "type": "uint256"
        }
      ],
      "stateMutability": "view",
      "type": "function"
    },
    {
      "inputs": [],
      "name": "clientCheckOrders",
      "outputs": [
        {
          "components": [
            {
              "internalType": "string",
              "name": "product_hash",
              "type": "string"
            },
            {
              "internalType": "uint256",
              "name": "value",
              "type": "uint256"
            },
            {
              "internalType": "address",
              "name": "client",
              "type": "address"
            },
            {
              "internalType": "address",
              "name": "sellar",
              "type": "address"
            },
            {
              "internalType": "uint8",
              "name": "clientDecision",
              "type": "uint8"
            },
            {
              "internalType": "uint8",
              "name": "sellerDecision",
              "type": "uint8"
            },
            {
              "internalType": "bool",
              "name": "active",
              "type": "bool"
            }
          ],
          "internalType": "struct ShopsBulkTransactions.Order[]",
          "name": "",
          "type": "tuple[]"
        }
      ],
      "stateMutability": "view",
      "type": "function"
    },
    {
      "inputs": [
        {
          "internalType": "address[]",
          "name": "_sellers",
          "type": "address[]"
        },
        {
          "internalType": "uint256[]",
          "name": "_values",
          "type": "uint256[]"
        },
        {
          "internalType": "string[]",
          "name": "_productHashes",
          "type": "string[]"
        }
      ],
      "name": "clientProccessTransaction",
      "outputs": [],
      "stateMutability": "nonpayable",
      "type": "function"
    },
    {
      "inputs": [
        {
          "internalType": "address[]",
          "name": "_sellers",
          "type": "address[]"
        },
        {
          "internalType": "uint256[]",
          "name": "_values",
          "type": "uint256[]"
        },
        {
          "internalType": "string[]",
          "name": "_productHashes",
          "type": "string[]"
        }
      ],
      "name": "clientRevertTransaction",
      "outputs": [],
      "stateMutability": "nonpayable",
      "type": "function"
    },
    {
      "inputs": [
        {
          "internalType": "address payable[]",
          "name": "_addresses",
          "type": "address[]"
        },
        {
          "internalType": "uint256[]",
          "name": "_amounts",
          "type": "uint256[]"
        },
        {
          "internalType": "string[]",
          "name": "_productHashes",
          "type": "string[]"
        }
      ],
      "name": "multiTransfer",
      "outputs": [],
      "stateMutability": "payable",
      "type": "function"
    },
    {
      "inputs": [],
      "name": "sellerCheckOrders",
      "outputs": [
        {
          "components": [
            {
              "internalType": "string",
              "name": "product_hash",
              "type": "string"
            },
            {
              "internalType": "uint256",
              "name": "value",
              "type": "uint256"
            },
            {
              "internalType": "address",
              "name": "client",
              "type": "address"
            },
            {
              "internalType": "address",
              "name": "sellar",
              "type": "address"
            },
            {
              "internalType": "uint8",
              "name": "clientDecision",
              "type": "uint8"
            },
            {
              "internalType": "uint8",
              "name": "sellerDecision",
              "type": "uint8"
            },
            {
              "internalType": "bool",
              "name": "active",
              "type": "bool"
            }
          ],
          "internalType": "struct ShopsBulkTransactions.Order[]",
          "name": "",
          "type": "tuple[]"
        }
      ],
      "stateMutability": "view",
      "type": "function"
    },
    {
      "inputs": [
        {
          "internalType": "address[]",
          "name": "_clients",
          "type": "address[]"
        },
        {
          "internalType": "uint256[]",
          "name": "_values",
          "type": "uint256[]"
        },
        {
          "internalType": "string[]",
          "name": "_productHashes",
          "type": "string[]"
        }
      ],
      "name": "sellerProccessTransaction",
      "outputs": [],
      "stateMutability": "nonpayable",
      "type": "function"
    },
    {
      "inputs": [
        {
          "internalType": "address[]",
          "name": "_clients",
          "type": "address[]"
        },
        {
          "internalType": "uint256[]",
          "name": "_values",
          "type": "uint256[]"
        },
        {
          "internalType": "string[]",
          "name": "_productHashes",
          "type": "string[]"
        }
      ],
      "name": "sellerRevertTransaction",
      "outputs": [],
      "stateMutability": "nonpayable",
      "type": "function"
    },
    {
      "inputs": [],
      "name": "symbol",
      "outputs": [
        {
          "internalType": "string",
          "name": "",
          "type": "string"
        }
      ],
      "stateMutability": "view",
      "type": "function"
    }
  ],
  "bytecode": "0x60806040523480156200001157600080fd5b506040516200282e3803806200282e8339810160408190526200003491620000fc565b600160005580516200004e90600490602084019062000056565b505062000225565b8280546200006490620001d2565b90600052602060002090601f016020900481019282620000885760008555620000d3565b82601f10620000a357805160ff1916838001178555620000d3565b82800160010185558215620000d3579182015b82811115620000d3578251825591602001919060010190620000b6565b50620000e1929150620000e5565b5090565b5b80821115620000e15760008155600101620000e6565b600060208083850312156200010f578182fd5b82516001600160401b038082111562000126578384fd5b818501915085601f8301126200013a578384fd5b8151818111156200014f576200014f6200020f565b604051601f8201601f19908116603f011681019083821181831017156200017a576200017a6200020f565b81604052828152888684870101111562000192578687fd5b8693505b82841015620001b5578484018601518185018701529285019262000196565b82841115620001c657868684830101525b98975050505050505050565b600181811c90821680620001e757607f821691505b602082108114156200020957634e487b7160e01b600052602260045260246000fd5b50919050565b634e487b7160e01b600052604160045260246000fd5b6125f980620002356000396000f3fe6080604052600436106100865760003560e01c80637bcebb16116100595780637bcebb161461012257806395d89b4114610137578063d760a5a414610159578063dff68ed31461016c578063fff357221461018c57600080fd5b80631bd0ecf81461008b57806321a598de146100ad5780632c7f173e146100e05780636749cf5b14610100575b600080fd5b34801561009757600080fd5b506100ab6100a6366004612025565b6101ac565b005b3480156100b957600080fd5b506100cd6100c8366004611fa5565b6102ca565b6040519081526020015b60405180910390f35b3480156100ec57600080fd5b506100ab6100fb366004612025565b610574565b34801561010c57600080fd5b50610115610671565b6040516100d791906122f3565b34801561012e57600080fd5b506101156109d6565b34801561014357600080fd5b5061014c610d31565b6040516100d791906123af565b6100ab61016736600461210b565b610dbf565b34801561017857600080fd5b506100ab610187366004612025565b6111ff565b34801561019857600080fd5b506100ab6101a7366004612025565b611309565b600260005414156101d85760405162461bcd60e51b81526004016101cf9061246e565b60405180910390fd5b600260005581518351146101fe5760405162461bcd60e51b81526004016101cf9061241f565b805183511461021f5760405162461bcd60e51b81526004016101cf906123c2565b60005b83518110156102bf576102ad84828151811061024e57634e487b7160e01b600052603260045260246000fd5b602002602001015184838151811061027657634e487b7160e01b600052603260045260246000fd5b602002602001015160028585815181106102a057634e487b7160e01b600052603260045260246000fd5b6020026020010151611406565b806102b781612564565b915050610222565b505060016000555050565b6001600160a01b038316600090815260036020908152604080832080548251818502810185019093528083528493849392919083018282801561032c57602002820191906000526020600020905b815481526020019060010190808311610318575b505050505090506000805b82518110156105685760006001600085848151811061036657634e487b7160e01b600052603260045260246000fd5b60200260200101518152602001908152602001600020805480602002602001604051908101604052809291908181526020016000905b828210156104c257838290600052602060002090600402016040518060e00160405290816000820180546103cf90612529565b80601f01602080910402602001604051908101604052809291908181526020018280546103fb90612529565b80156104485780601f1061041d57610100808354040283529160200191610448565b820191906000526020600020905b81548152906001019060200180831161042b57829003601f168201915b505050918352505060018281015460208084019190915260028401546001600160a01b039081166040850152600390940154938416606084015260ff600160a01b850481166080850152600160a81b8504811660a0850152600160b01b909404909316151560c0909201919091529183529201910161039c565b50505050905060005b81518110156105535788886040516104e49291906122ac565b604051809103902082848151811061050c57634e487b7160e01b600052603260045260246000fd5b602002602001015160000151805190602001201415610533578561052f81612564565b9650505b8361053d81612564565b945050808061054b90612564565b9150506104cb565b5050808061056090612564565b915050610337565b50919695505050505050565b600260005414156105975760405162461bcd60e51b81526004016101cf9061246e565b600260005581518351146105bd5760405162461bcd60e51b81526004016101cf9061241f565b80518351146105de5760405162461bcd60e51b81526004016101cf906123c2565b60005b83518110156102bf5761065f84828151811061060d57634e487b7160e01b600052603260045260246000fd5b602002602001015184838151811061063557634e487b7160e01b600052603260045260246000fd5b602002602001015160018585815181106102a057634e487b7160e01b600052603260045260246000fd5b8061066981612564565b9150506105e1565b33600090815260026020908152604080832080548251818502810185019093528083526060949384939291908301828280156106cc57602002820191906000526020600020905b8154815260200190600101908083116106b8575b5050505050905060005b815181101561073c576001600083838151811061070357634e487b7160e01b600052603260045260246000fd5b60200260200101518152602001908152602001600020805490508361072891906124fa565b92508061073481612564565b9150506106d6565b5060008267ffffffffffffffff81111561076657634e487b7160e01b600052604160045260246000fd5b60405190808252806020026020018201604052801561079f57816020015b61078c611d80565b8152602001906001900390816107845790505b5090506000805b83518110156109cc576000600160008684815181106107d557634e487b7160e01b600052603260045260246000fd5b60200260200101518152602001908152602001600020805480602002602001604051908101604052809291908181526020016000905b8282101561093157838290600052602060002090600402016040518060e001604052908160008201805461083e90612529565b80601f016020809104026020016040519081016040528092919081815260200182805461086a90612529565b80156108b75780601f1061088c576101008083540402835291602001916108b7565b820191906000526020600020905b81548152906001019060200180831161089a57829003601f168201915b505050918352505060018281015460208084019190915260028401546001600160a01b039081166040850152600390940154938416606084015260ff600160a01b850481166080850152600160a81b8504811660a0850152600160b01b909404909316151560c0909201919091529183529201910161080b565b50505050905060005b81518110156109b75781818151811061096357634e487b7160e01b600052603260045260246000fd5b602002602001015185858151811061098b57634e487b7160e01b600052603260045260246000fd5b602002602001018190525083806109a190612564565b94505080806109af90612564565b91505061093a565b505080806109c490612564565b9150506107a6565b5090949350505050565b3360009081526003602090815260408083208054825181850281018501909352808352606094938493929190830182828015610a3157602002820191906000526020600020905b815481526020019060010190808311610a1d575b5050505050905060005b8151811015610aa15760016000838381518110610a6857634e487b7160e01b600052603260045260246000fd5b602002602001015181526020019081526020016000208054905083610a8d91906124fa565b925080610a9981612564565b915050610a3b565b5060008267ffffffffffffffff811115610acb57634e487b7160e01b600052604160045260246000fd5b604051908082528060200260200182016040528015610b0457816020015b610af1611d80565b815260200190600190039081610ae95790505b5090506000805b83518110156109cc57600060016000868481518110610b3a57634e487b7160e01b600052603260045260246000fd5b60200260200101518152602001908152602001600020805480602002602001604051908101604052809291908181526020016000905b82821015610c9657838290600052602060002090600402016040518060e0016040529081600082018054610ba390612529565b80601f0160208091040260200160405190810160405280929190818152602001828054610bcf90612529565b8015610c1c5780601f10610bf157610100808354040283529160200191610c1c565b820191906000526020600020905b815481529060010190602001808311610bff57829003601f168201915b505050918352505060018281015460208084019190915260028401546001600160a01b039081166040850152600390940154938416606084015260ff600160a01b850481166080850152600160a81b8504811660a0850152600160b01b909404909316151560c09092019190915291835292019101610b70565b50505050905060005b8151811015610d1c57818181518110610cc857634e487b7160e01b600052603260045260246000fd5b6020026020010151858581518110610cf057634e487b7160e01b600052603260045260246000fd5b60200260200101819052508380610d0690612564565b9450508080610d1490612564565b915050610c9f565b50508080610d2990612564565b915050610b0b565b60048054610d3e90612529565b80601f0160208091040260200160405190810160405280929190818152602001828054610d6a90612529565b8015610db75780601f10610d8c57610100808354040283529160200191610db7565b820191906000526020600020905b815481529060010190602001808311610d9a57829003601f168201915b505050505081565b60026000541415610de25760405162461bcd60e51b81526004016101cf9061246e565b60026000558151835114610e515760405162461bcd60e51b815260206004820152603060248201527f416464726573736573206c656e677468206d75737420626520657175616c207460448201526f0de40c2dadeeadce8e640d8cadccee8d60831b60648201526084016101cf565b348060005b85518110156111b957848181518110610e7f57634e487b7160e01b600052603260045260246000fd5b6020026020010151821015610eec5760405162461bcd60e51b815260206004820152602d60248201527f546f74616c20616d6f756e74206973206c657373207468616e2063757272656e60448201526c1d081cd95b9908185b5bdd5b9d609a1b60648201526084016101cf565b848181518110610f0c57634e487b7160e01b600052603260045260246000fd5b602002602001015182610f1f9190612512565b9150610f29611d80565b3360408201528651879083908110610f5157634e487b7160e01b600052603260045260246000fd5b60209081029190910101516001600160a01b03166060820152600160a0820152600060808201528551869083908110610f9a57634e487b7160e01b600052603260045260246000fd5b6020026020010151816020018181525050848281518110610fcb57634e487b7160e01b600052603260045260246000fd5b60209081029190910101518152600160c08201528651600090339089908590811061100657634e487b7160e01b600052603260045260246000fd5b602002602001015160405160200161101f929190612285565b60408051601f1981840301815291815281516020928301206000818152600180855292812080549384018155815283902085518051929550869460049094029091019261107192849290910190611dbc565b506020828101516001838101919091556040808501516002850180546001600160a01b0319166001600160a01b03928316179055606086015160039095018054608088015160a089015160c090990151979093166001600160a81b031990911617600160a01b60ff938416021761ffff60a81b1916600160a81b929097169190910260ff60b01b191695909517600160b01b9415159490940293909317909355600084815290839052205414156111a45733600090815260026020908152604082208054600181018255908352908220018290558851600391908a908690811061116b57634e487b7160e01b600052603260045260246000fd5b6020908102919091018101516001600160a01b031682528181019290925260400160009081208054600181018255908252919020018190555b505080806111b190612564565b915050610e56565b5060408051838152600160208201527fc05dae71ad6ebf2680862ebed51b27e8ea99855a67cfc24e7a3e0212c34e5e2f910160405180910390a150506001600055505050565b600260005414156112225760405162461bcd60e51b81526004016101cf9061246e565b600260005581518351146112485760405162461bcd60e51b81526004016101cf9061241f565b80518351146112695760405162461bcd60e51b81526004016101cf906123c2565b60005b83518110156102bf576112f784828151811061129857634e487b7160e01b600052603260045260246000fd5b60200260200101518483815181106112c057634e487b7160e01b600052603260045260246000fd5b602002602001015160018585815181106112ea57634e487b7160e01b600052603260045260246000fd5b60200260200101516119ad565b8061130181612564565b91505061126c565b6002600054141561132c5760405162461bcd60e51b81526004016101cf9061246e565b600260005581518351146113525760405162461bcd60e51b81526004016101cf9061241f565b80518351146113735760405162461bcd60e51b81526004016101cf906123c2565b60005b83518110156102bf576113f48482815181106113a257634e487b7160e01b600052603260045260246000fd5b60200260200101518483815181106113ca57634e487b7160e01b600052603260045260246000fd5b602002602001015160028585815181106112ea57634e487b7160e01b600052603260045260246000fd5b806113fe81612564565b915050611376565b6000338560405160200161141b929190612285565b60405160208183030381529060405280519060200120905060005b6000828152600160205260409020548110156119a557828051906020012060016000848152602001908152602001600020828154811061148657634e487b7160e01b600052603260045260246000fd5b90600052602060002090600402016000016040516114a491906122bc565b60405180910390201480156114f9575060008281526001602052604090208054869190839081106114e557634e487b7160e01b600052603260045260246000fd5b906000526020600020906004020160010154145b80156115555750600082815260016020526040902080548290811061152e57634e487b7160e01b600052603260045260246000fd5b906000526020600020906004020160030160169054906101000a900460ff16151560011515145b1561199357600082815260016020526040902080543391908390811061158b57634e487b7160e01b600052603260045260246000fd5b60009182526020909120600260049092020101546001600160a01b0316146115f55760405162461bcd60e51b815260206004820152601760248201527f596f7520617265206e6f742074686520636c69656e742e00000000000000000060448201526064016101cf565b600082815260016020526040902080548591908390811061162657634e487b7160e01b600052603260045260246000fd5b906000526020600020906004020160030160146101000a81548160ff021916908360ff160217905550600061179360016000858152602001908152602001600020838154811061168657634e487b7160e01b600052603260045260246000fd5b90600052602060002090600402016040518060e00160405290816000820180546116af90612529565b80601f01602080910402602001604051908101604052809291908181526020018280546116db90612529565b80156117285780601f106116fd57610100808354040283529160200191611728565b820191906000526020600020905b81548152906001019060200180831161170b57829003601f168201915b50505091835250506001820154602082015260028201546001600160a01b039081166040830152600390920154918216606082015260ff600160a01b830481166080830152600160a81b8304811660a0830152600160b01b909204909116151560c090910152611c3f565b90508060ff166001141561189f5760008381526001602052604081208054849081106117cf57634e487b7160e01b600052603260045260246000fd5b906000526020600020906004020160030160166101000a81548160ff02191690831515021790555061189a60016000858152602001908152602001600020838154811061182c57634e487b7160e01b600052603260045260246000fd5b906000526020600020906004020160030160009054906101000a90046001600160a01b031660016000868152602001908152602001600020848154811061188357634e487b7160e01b600052603260045260246000fd5b906000526020600020906004020160010154611c99565b61198d565b8060ff166002141561198d5760008381526001602052604081208054849081106118d957634e487b7160e01b600052603260045260246000fd5b906000526020600020906004020160030160166101000a81548160ff02191690831515021790555061198d60016000858152602001908152602001600020838154811061193657634e487b7160e01b600052603260045260246000fd5b906000526020600020906004020160020160009054906101000a90046001600160a01b031660016000868152602001908152602001600020848154811061188357634e487b7160e01b600052603260045260246000fd5b506119a5565b8061199d81612564565b915050611436565b505050505050565b600084336040516020016119c2929190612285565b60405160208183030381529060405280519060200120905060005b6000828152600160205260409020548110156119a5578280519060200120600160008481526020019081526020016000208281548110611a2d57634e487b7160e01b600052603260045260246000fd5b9060005260206000209060040201600001604051611a4b91906122bc565b6040518091039020148015611aa057506000828152600160205260409020805486919083908110611a8c57634e487b7160e01b600052603260045260246000fd5b906000526020600020906004020160010154145b8015611afc57506000828152600160205260409020805482908110611ad557634e487b7160e01b600052603260045260246000fd5b906000526020600020906004020160030160169054906101000a900460ff16151560011515145b15611c2d576000828152600160205260409020805433919083908110611b3257634e487b7160e01b600052603260045260246000fd5b60009182526020909120600260049092020101546001600160a01b031614611b9c5760405162461bcd60e51b815260206004820152601760248201527f596f7520617265206e6f74207468652073656c6c65722e00000000000000000060448201526064016101cf565b6000828152600160205260409020805485919083908110611bcd57634e487b7160e01b600052603260045260246000fd5b906000526020600020906004020160030160156101000a81548160ff021916908360ff160217905550600061179360016000858152602001908152602001600020838154811061168657634e487b7160e01b600052603260045260246000fd5b80611c3781612564565b9150506119dd565b600060026000541415611c645760405162461bcd60e51b81526004016101cf9061246e565b600260005560a0820151608083015160ff90811691161415611c8b57506080810151611c8f565b5060005b6001600055919050565b6001600160a01b038216611ce45760405162461bcd60e51b81526020600482015260126024820152710416464726573732063616e277420626520360741b60448201526064016101cf565b6000826001600160a01b03168260405160006040518083038185875af1925050503d8060008114611d31576040519150601f19603f3d011682016040523d82523d6000602084013e611d36565b606091505b50509050806004604051602001611d4d91906122cf565b60405160208183030381529060405290611d7a5760405162461bcd60e51b81526004016101cf91906123af565b50505050565b6040805160e081018252606080825260006020830181905292820183905281018290526080810182905260a0810182905260c081019190915290565b828054611dc890612529565b90600052602060002090601f016020900481019282611dea5760008555611e30565b82601f10611e0357805160ff1916838001178555611e30565b82800160010185558215611e30579182015b82811115611e30578251825591602001919060010190611e15565b50611e3c929150611e40565b5090565b5b80821115611e3c5760008155600101611e41565b6000601f8381840112611e66578182fd5b82356020611e7b611e76836124d6565b6124a5565b80838252828201915082870188848660051b8a01011115611e9a578687fd5b865b85811015611f2d57813567ffffffffffffffff80821115611ebb57898afd5b818b0191508b603f830112611ece57898afd5b86820135604082821115611ee457611ee4612595565b611ef5828c01601f19168a016124a5565b92508183528d81838601011115611f0a578b8cfd5b818185018a85013750810187018a90528552509284019290840190600101611e9c565b509098975050505050505050565b600082601f830112611f4b578081fd5b81356020611f5b611e76836124d6565b80838252828201915082860187848660051b8901011115611f7a578586fd5b855b85811015611f9857813584529284019290840190600101611f7c565b5090979650505050505050565b600080600060408486031215611fb9578283fd5b8335611fc4816125ab565b9250602084013567ffffffffffffffff80821115611fe0578384fd5b818601915086601f830112611ff3578384fd5b813581811115612001578485fd5b876020828501011115612012578485fd5b6020830194508093505050509250925092565b600080600060608486031215612039578283fd5b833567ffffffffffffffff80821115612050578485fd5b818601915086601f830112612063578485fd5b81356020612073611e76836124d6565b8083825282820191508286018b848660051b890101111561209257898afd5b8996505b848710156120bd5780356120a9816125ab565b835260019690960195918301918301612096565b50975050870135925050808211156120d3578384fd5b6120df87838801611f3b565b935060408601359150808211156120f4578283fd5b5061210186828701611e55565b9150509250925092565b60008060006060848603121561211f578283fd5b833567ffffffffffffffff80821115612136578485fd5b818601915086601f830112612149578485fd5b81356020612159611e76836124d6565b8083825282820191508286018b848660051b890101111561217857898afd5b8996505b848710156120bd57803561218f816125ab565b83526001969096019591830191830161217c565b8054600090600181811c90808316806121bd57607f831692505b60208084108214156121dd57634e487b7160e01b86526022600452602486fd5b8180156121f157600181146122025761222e565b60ff1986168952848901965061222e565b876000528160002060005b868110156122265781548b82015290850190830161220d565b505084890196505b50505050505092915050565b60008151808452815b8181101561225f57602081850181015186830182015201612243565b818111156122705782602083870101525b50601f01601f19169290920160200192915050565b6bffffffffffffffffffffffff19606093841b811682529190921b16601482015260280190565b8183823760009101908152919050565b60006122c882846121a3565b9392505050565b6e02330b4b632b2103a379039b2b7321608d1b815260006122c8600f8301846121a3565b60006020808301818452808551808352604092508286019150828160051b870101848801865b83811015611f2d57603f19898403018552815160e0815181865261233f8287018261223a565b838b0151878c0152898401516001600160a01b039081168b8901526060808601519091169088015260808085015160ff169088015260a080850151919350915061238d8288018260ff169052565b505060c091820151151594909101939093529386019390860190600101612319565b6020815260006122c8602083018461223a565b60208082526037908201527f416464726573736573206c656e677468206d75737420626520657175616c207460408201527f6f2070726f6475637420686173686573206c656e677468000000000000000000606082015260800190565b6020808252602f908201527f416464726573736573206c656e677468206d75737420626520657175616c207460408201526e0de40ecc2d8eacae640d8cadccee8d608b1b606082015260800190565b6020808252601f908201527f5265656e7472616e637947756172643a207265656e7472616e742063616c6c00604082015260600190565b604051601f8201601f1916810167ffffffffffffffff811182821017156124ce576124ce612595565b604052919050565b600067ffffffffffffffff8211156124f0576124f0612595565b5060051b60200190565b6000821982111561250d5761250d61257f565b500190565b6000828210156125245761252461257f565b500390565b600181811c9082168061253d57607f821691505b6020821081141561255e57634e487b7160e01b600052602260045260246000fd5b50919050565b60006000198214156125785761257861257f565b5060010190565b634e487b7160e01b600052601160045260246000fd5b634e487b7160e01b600052604160045260246000fd5b6001600160a01b03811681146125c057600080fd5b5056fea26469706673582212205cfd49846beb539301c3f85b0b725a6c12174ccd0bc732fa6e1621d56d1b8f0a64736f6c63430008040033",
  "linkReferences": {},
  "deployedLinkReferences": {}
}